{
  "_format": "hh-sol-artifact-1",
  "contractName": "ConstantProductPool",
  "sourceName": "contracts/pool/ConstantProductPool.sol",
  "abi": [
    {
      "inputs": [
        {
          "internalType": "bytes",
          "name": "_deployData",
          "type": "bytes"
        },
        {
          "internalType": "address",
          "name": "_masterDeployer",
          "type": "address"
        }
      ],
      "stateMutability": "nonpayable",
      "type": "constructor"
    },
    {
      "anonymous": false,
      "inputs": [
        {
          "indexed": true,
          "internalType": "address",
          "name": "owner",
          "type": "address"
        },
        {
          "indexed": true,
          "internalType": "address",
          "name": "spender",
          "type": "address"
        },
        {
          "indexed": false,
          "internalType": "uint256",
          "name": "amount",
          "type": "uint256"
        }
      ],
      "name": "Approval",
      "type": "event"
    },
    {
      "anonymous": false,
      "inputs": [
        {
          "indexed": true,
          "internalType": "address",
          "name": "sender",
          "type": "address"
        },
        {
          "indexed": false,
          "internalType": "uint256",
          "name": "amount0",
          "type": "uint256"
        },
        {
          "indexed": false,
          "internalType": "uint256",
          "name": "amount1",
          "type": "uint256"
        },
        {
          "indexed": true,
          "internalType": "address",
          "name": "recipient",
          "type": "address"
        }
      ],
      "name": "Burn",
      "type": "event"
    },
    {
      "anonymous": false,
      "inputs": [
        {
          "indexed": true,
          "internalType": "address",
          "name": "sender",
          "type": "address"
        },
        {
          "indexed": false,
          "internalType": "uint256",
          "name": "amount0",
          "type": "uint256"
        },
        {
          "indexed": false,
          "internalType": "uint256",
          "name": "amount1",
          "type": "uint256"
        },
        {
          "indexed": true,
          "internalType": "address",
          "name": "recipient",
          "type": "address"
        }
      ],
      "name": "Mint",
      "type": "event"
    },
    {
      "anonymous": false,
      "inputs": [
        {
          "indexed": true,
          "internalType": "address",
          "name": "recipient",
          "type": "address"
        },
        {
          "indexed": true,
          "internalType": "address",
          "name": "tokenIn",
          "type": "address"
        },
        {
          "indexed": true,
          "internalType": "address",
          "name": "tokenOut",
          "type": "address"
        },
        {
          "indexed": false,
          "internalType": "uint256",
          "name": "amountIn",
          "type": "uint256"
        },
        {
          "indexed": false,
          "internalType": "uint256",
          "name": "amountOut",
          "type": "uint256"
        }
      ],
      "name": "Swap",
      "type": "event"
    },
    {
      "anonymous": false,
      "inputs": [
        {
          "indexed": false,
          "internalType": "uint256",
          "name": "reserve0",
          "type": "uint256"
        },
        {
          "indexed": false,
          "internalType": "uint256",
          "name": "reserve1",
          "type": "uint256"
        }
      ],
      "name": "Sync",
      "type": "event"
    },
    {
      "anonymous": false,
      "inputs": [
        {
          "indexed": true,
          "internalType": "address",
          "name": "sender",
          "type": "address"
        },
        {
          "indexed": true,
          "internalType": "address",
          "name": "recipient",
          "type": "address"
        },
        {
          "indexed": false,
          "internalType": "uint256",
          "name": "amount",
          "type": "uint256"
        }
      ],
      "name": "Transfer",
      "type": "event"
    },
    {
      "inputs": [],
      "name": "DOMAIN_SEPARATOR",
      "outputs": [
        {
          "internalType": "bytes32",
          "name": "",
          "type": "bytes32"
        }
      ],
      "stateMutability": "view",
      "type": "function"
    },
    {
      "inputs": [],
      "name": "PERMIT_TYPEHASH",
      "outputs": [
        {
          "internalType": "bytes32",
          "name": "",
          "type": "bytes32"
        }
      ],
      "stateMutability": "view",
      "type": "function"
    },
    {
      "inputs": [
        {
          "internalType": "address",
          "name": "",
          "type": "address"
        },
        {
          "internalType": "address",
          "name": "",
          "type": "address"
        }
      ],
      "name": "allowance",
      "outputs": [
        {
          "internalType": "uint256",
          "name": "",
          "type": "uint256"
        }
      ],
      "stateMutability": "view",
      "type": "function"
    },
    {
      "inputs": [
        {
          "internalType": "address",
          "name": "spender",
          "type": "address"
        },
        {
          "internalType": "uint256",
          "name": "amount",
          "type": "uint256"
        }
      ],
      "name": "approve",
      "outputs": [
        {
          "internalType": "bool",
          "name": "",
          "type": "bool"
        }
      ],
      "stateMutability": "nonpayable",
      "type": "function"
    },
    {
      "inputs": [
        {
          "internalType": "address",
          "name": "",
          "type": "address"
        }
      ],
      "name": "balanceOf",
      "outputs": [
        {
          "internalType": "uint256",
          "name": "",
          "type": "uint256"
        }
      ],
      "stateMutability": "view",
      "type": "function"
    },
    {
      "inputs": [],
      "name": "barFee",
      "outputs": [
        {
          "internalType": "uint256",
          "name": "",
          "type": "uint256"
        }
      ],
      "stateMutability": "view",
      "type": "function"
    },
    {
      "inputs": [],
      "name": "barFeeTo",
      "outputs": [
        {
          "internalType": "address",
          "name": "",
          "type": "address"
        }
      ],
      "stateMutability": "view",
      "type": "function"
    },
    {
      "inputs": [],
      "name": "bento",
      "outputs": [
        {
          "internalType": "address",
          "name": "",
          "type": "address"
        }
      ],
      "stateMutability": "view",
      "type": "function"
    },
    {
      "inputs": [
        {
          "internalType": "bytes",
          "name": "data",
          "type": "bytes"
        }
      ],
      "name": "burn",
      "outputs": [
        {
          "components": [
            {
              "internalType": "address",
              "name": "token",
              "type": "address"
            },
            {
              "internalType": "uint256",
              "name": "amount",
              "type": "uint256"
            }
          ],
          "internalType": "struct IPool.TokenAmount[]",
          "name": "withdrawnAmounts",
          "type": "tuple[]"
        }
      ],
      "stateMutability": "nonpayable",
      "type": "function"
    },
    {
      "inputs": [
        {
          "internalType": "bytes",
          "name": "data",
          "type": "bytes"
        }
      ],
      "name": "burnSingle",
      "outputs": [
        {
          "internalType": "uint256",
          "name": "amountOut",
          "type": "uint256"
        }
      ],
      "stateMutability": "nonpayable",
      "type": "function"
    },
    {
      "inputs": [],
      "name": "decimals",
      "outputs": [
        {
          "internalType": "uint8",
          "name": "",
          "type": "uint8"
        }
      ],
      "stateMutability": "view",
      "type": "function"
    },
    {
      "inputs": [
        {
          "internalType": "bytes",
          "name": "data",
          "type": "bytes"
        }
      ],
      "name": "flashSwap",
      "outputs": [
        {
          "internalType": "uint256",
          "name": "amountOut",
          "type": "uint256"
        }
      ],
      "stateMutability": "nonpayable",
      "type": "function"
    },
    {
      "inputs": [
        {
          "internalType": "bytes",
          "name": "data",
          "type": "bytes"
        }
      ],
      "name": "getAmountOut",
      "outputs": [
        {
          "internalType": "uint256",
          "name": "finalAmountOut",
          "type": "uint256"
        }
      ],
      "stateMutability": "view",
      "type": "function"
    },
    {
      "inputs": [],
      "name": "getAssets",
      "outputs": [
        {
          "internalType": "address[]",
          "name": "assets",
          "type": "address[]"
        }
      ],
      "stateMutability": "view",
      "type": "function"
    },
    {
      "inputs": [],
      "name": "getReserves",
      "outputs": [
        {
          "internalType": "uint112",
          "name": "_reserve0",
          "type": "uint112"
        },
        {
          "internalType": "uint112",
          "name": "_reserve1",
          "type": "uint112"
        },
        {
          "internalType": "uint32",
          "name": "_blockTimestampLast",
          "type": "uint32"
        }
      ],
      "stateMutability": "view",
      "type": "function"
    },
    {
      "inputs": [],
      "name": "kLast",
      "outputs": [
        {
          "internalType": "uint256",
          "name": "",
          "type": "uint256"
        }
      ],
      "stateMutability": "view",
      "type": "function"
    },
    {
      "inputs": [],
      "name": "masterDeployer",
      "outputs": [
        {
          "internalType": "address",
          "name": "",
          "type": "address"
        }
      ],
      "stateMutability": "view",
      "type": "function"
    },
    {
      "inputs": [
        {
          "internalType": "bytes",
          "name": "data",
          "type": "bytes"
        }
      ],
      "name": "mint",
      "outputs": [
        {
          "internalType": "uint256",
          "name": "liquidity",
          "type": "uint256"
        }
      ],
      "stateMutability": "nonpayable",
      "type": "function"
    },
    {
      "inputs": [],
      "name": "name",
      "outputs": [
        {
          "internalType": "string",
          "name": "",
          "type": "string"
        }
      ],
      "stateMutability": "view",
      "type": "function"
    },
    {
      "inputs": [
        {
          "internalType": "address",
          "name": "",
          "type": "address"
        }
      ],
      "name": "nonces",
      "outputs": [
        {
          "internalType": "uint256",
          "name": "",
          "type": "uint256"
        }
      ],
      "stateMutability": "view",
      "type": "function"
    },
    {
      "inputs": [
        {
          "internalType": "address",
          "name": "owner",
          "type": "address"
        },
        {
          "internalType": "address",
          "name": "spender",
          "type": "address"
        },
        {
          "internalType": "uint256",
          "name": "amount",
          "type": "uint256"
        },
        {
          "internalType": "uint256",
          "name": "deadline",
          "type": "uint256"
        },
        {
          "internalType": "uint8",
          "name": "v",
          "type": "uint8"
        },
        {
          "internalType": "bytes32",
          "name": "r",
          "type": "bytes32"
        },
        {
          "internalType": "bytes32",
          "name": "s",
          "type": "bytes32"
        }
      ],
      "name": "permit",
      "outputs": [],
      "stateMutability": "nonpayable",
      "type": "function"
    },
    {
      "inputs": [],
      "name": "poolIdentifier",
      "outputs": [
        {
          "internalType": "bytes32",
          "name": "",
          "type": "bytes32"
        }
      ],
      "stateMutability": "view",
      "type": "function"
    },
    {
      "inputs": [],
      "name": "price0CumulativeLast",
      "outputs": [
        {
          "internalType": "uint256",
          "name": "",
          "type": "uint256"
        }
      ],
      "stateMutability": "view",
      "type": "function"
    },
    {
      "inputs": [],
      "name": "price1CumulativeLast",
      "outputs": [
        {
          "internalType": "uint256",
          "name": "",
          "type": "uint256"
        }
      ],
      "stateMutability": "view",
      "type": "function"
    },
    {
      "inputs": [
        {
          "internalType": "bytes",
          "name": "data",
          "type": "bytes"
        }
      ],
      "name": "swap",
      "outputs": [
        {
          "internalType": "uint256",
          "name": "amountOut",
          "type": "uint256"
        }
      ],
      "stateMutability": "nonpayable",
      "type": "function"
    },
    {
      "inputs": [],
      "name": "swapFee",
      "outputs": [
        {
          "internalType": "uint256",
          "name": "",
          "type": "uint256"
        }
      ],
      "stateMutability": "view",
      "type": "function"
    },
    {
      "inputs": [],
      "name": "symbol",
      "outputs": [
        {
          "internalType": "string",
          "name": "",
          "type": "string"
        }
      ],
      "stateMutability": "view",
      "type": "function"
    },
    {
      "inputs": [],
      "name": "token0",
      "outputs": [
        {
          "internalType": "address",
          "name": "",
          "type": "address"
        }
      ],
      "stateMutability": "view",
      "type": "function"
    },
    {
      "inputs": [],
      "name": "token1",
      "outputs": [
        {
          "internalType": "address",
          "name": "",
          "type": "address"
        }
      ],
      "stateMutability": "view",
      "type": "function"
    },
    {
      "inputs": [],
      "name": "totalSupply",
      "outputs": [
        {
          "internalType": "uint256",
          "name": "",
          "type": "uint256"
        }
      ],
      "stateMutability": "view",
      "type": "function"
    },
    {
      "inputs": [
        {
          "internalType": "address",
          "name": "recipient",
          "type": "address"
        },
        {
          "internalType": "uint256",
          "name": "amount",
          "type": "uint256"
        }
      ],
      "name": "transfer",
      "outputs": [
        {
          "internalType": "bool",
          "name": "",
          "type": "bool"
        }
      ],
      "stateMutability": "nonpayable",
      "type": "function"
    },
    {
      "inputs": [
        {
          "internalType": "address",
          "name": "sender",
          "type": "address"
        },
        {
          "internalType": "address",
          "name": "recipient",
          "type": "address"
        },
        {
          "internalType": "uint256",
          "name": "amount",
          "type": "uint256"
        }
      ],
      "name": "transferFrom",
      "outputs": [
        {
          "internalType": "bool",
          "name": "",
          "type": "bool"
        }
      ],
      "stateMutability": "nonpayable",
      "type": "function"
    },
    {
      "inputs": [],
      "name": "updateBarFee",
      "outputs": [],
      "stateMutability": "nonpayable",
      "type": "function"
    }
  ],
  "bytecode": "0x6101806040523480156200001257600080fd5b5060405162004195380380620041958339810160408190526200003591620005d2565b604080518082018252600e81526d29bab9b434902628102a37b5b2b760911b6020918201528151808301835260018152603160f81b9082015281517f8b73c3c69bb8fe3d512ecc4cf759cc79239f7b179b0ffacaa9a75d522b39400f918101919091527fc2bf45081e840722410522aa366600d7fe4da5bfb5a5b417f4d5125b4ed180a4918101919091527fc89efdaa54c0f20c7adf612882df0950f5a951637e0307cdcb4c672f298b8bc6606082015246608082018190523060a08301529060c0016040516020818303038152906040528051906020012060808181525050506000806000808580602001905181019062000132919062000572565b929650909450925090506001600160a01b038416620001875760405162461bcd60e51b815260206004820152600c60248201526b5a45524f5f4144445245535360a01b60448201526064015b60405180910390fd5b826001600160a01b0316846001600160a01b03161415620001eb5760405162461bcd60e51b815260206004820152601360248201527f4944454e544943414c5f4144445245535345530000000000000000000000000060448201526064016200017e565b6001600160a01b038416301415620002365760405162461bcd60e51b815260206004820152600d60248201526c24a72b20a624a22faa27a5a2a760991b60448201526064016200017e565b6001600160a01b038316301415620002815760405162461bcd60e51b815260206004820152600d60248201526c24a72b20a624a22faa27a5a2a760991b60448201526064016200017e565b612710821115620002c85760405162461bcd60e51b815260206004820152601060248201526f494e56414c49445f535741505f46454560801b60448201526064016200017e565b60408051600481526024810182526020810180516001600160e01b03166360a56c0160e11b17905290516000916001600160a01b038816916200030c9190620006b9565b600060405180830381855afa9150503d806000811462000349576040519150601f19603f3d011682016040523d82523d6000602084013e6200034e565b606091505b5060408051600481526024810182526020810180516001600160e01b0316630605066960e11b1790529051919350600092506001600160a01b03891691620003979190620006b9565b600060405180830381855afa9150503d8060008114620003d4576040519150601f19603f3d011682016040523d82523d6000602084013e620003d9565b606091505b5060408051600481526024810182526020810180516001600160e01b0316634da3182760e01b1790529051919350600092506001600160a01b038a1691620004229190620006b9565b600060405180830381855afa9150503d80600081146200045f576040519150601f19603f3d011682016040523d82523d6000602084013e62000464565b606091505b506001600160601b031960608a811b82166101405289901b166101605260a087905261271087900360c0528451909250620004aa9150840160209081019085016200069f565b6004558151620004c490830160209081019084016200054b565b60601b6001600160601b03191660e0528051620004eb90602090830181019083016200054b565b6001600160601b0319606091821b8116610100529089901b1661012052600160095583156200052a57600880546001600160e01b0316600160e01b1790555b50505050505050505062000739565b8051620005468162000720565b919050565b6000602082840312156200055e57600080fd5b81516200056b8162000720565b9392505050565b600080600080608085870312156200058957600080fd5b8451620005968162000720565b6020860151909450620005a98162000720565b6040860151606087015191945092508015158114620005c757600080fd5b939692955090935050565b60008060408385031215620005e657600080fd5b82516001600160401b0380821115620005fe57600080fd5b818501915085601f8301126200061357600080fd5b8151818111156200062857620006286200070a565b604051601f8201601f19908116603f011681019083821181831017156200065357620006536200070a565b816040528281528860208487010111156200066d57600080fd5b62000680836020830160208801620006d7565b8096505050505050620006966020840162000539565b90509250929050565b600060208284031215620006b257600080fd5b5051919050565b60008251620006cd818460208701620006d7565b9190910192915050565b60005b83811015620006f4578181015183820152602001620006da565b8381111562000704576000848401525b50505050565b634e487b7160e01b600052604160045260246000fd5b6001600160a01b03811681146200073657600080fd5b50565b60805160a05160c05160e05160601c6101005160601c6101205160601c6101405160601c6101605160601c61390062000895600039600081816105b301528181610791015281816108c00152818161096e01528181610ff6015281816110fe01528181611336015281816113a5015281816115e701528181611fc30152818161204a01526129e701526000818161032e0152818161070d01528181610a5301528181610b8201528181610fca01528181611095015281816112e2015281816114860152818161157901528181611d24015281816120830152818161216e01526128e801526000818161058c015281816118070152611c240152600081816103f901528181612650015281816127c6015281816128ac0152612a900152600081816102e20152612eb3015260006125520152600081816104200152818161315501526131c00152600081816103d2015261233901526139006000f3fe608060405234801561001057600080fd5b506004361061020b5760003560e01c8063627dd56a1161012a578063a69840a8116100bd578063c14ad8021161008c578063d21220a711610071578063d21220a7146105ae578063d505accf146105d5578063dd62ed3e146105e857600080fd5b8063c14ad8021461057e578063cf58879a1461058757600080fd5b8063a69840a81461051e578063a8f1f52e14610545578063a9059cbb14610558578063af8c09bf1461056b57600080fd5b80637ba0e2e7116100f95780637ba0e2e7146104a55780637ecebe00146104b857806392bc3219146104d857806395d89b41146104e257600080fd5b8063627dd56a1461045457806367e4ac2c1461046757806370a082311461047c5780637464fc3d1461049c57600080fd5b80632a07b6c7116101a25780634da31827116101715780634da31827146103f457806354cf2aeb1461041b5780635909c0d5146104425780635a3d54931461044b57600080fd5b80632a07b6c71461036c57806330adf81f1461038c578063313ce567146103b35780633644e515146103cd57600080fd5b80630c0a0cd2116101de5780630c0a0cd2146102dd5780630dfe16811461032957806318160ddd1461035057806323b872dd1461035957600080fd5b8063053da1c81461021057806306fdde03146102365780630902f1ac1461027f578063095ea7b3146102ba575b600080fd5b61022361021e366004613566565b610613565b6040519081526020015b60405180910390f35b6102726040518060400160405280600e81526020017f5375736869204c5020546f6b656e00000000000000000000000000000000000081525081565b60405161022d9190613716565b610287610c3e565b604080516dffffffffffffffffffffffffffff948516815293909216602084015263ffffffff169082015260600161022d565b6102cd6102c8366004613449565b610ca7565b604051901515815260200161022d565b6103047f000000000000000000000000000000000000000000000000000000000000000081565b60405173ffffffffffffffffffffffffffffffffffffffff909116815260200161022d565b6103047f000000000000000000000000000000000000000000000000000000000000000081565b61022360005481565b6102cd6103673660046134ae565b610d20565b61037f61037a366004613566565b610e6c565b60405161022d91906136b1565b6102237f6e71edae12b1b97f4d1f60370fef10105fa2faae0126114a169c64845d6126c981565b6103bb601281565b60405160ff909116815260200161022d565b6102237f000000000000000000000000000000000000000000000000000000000000000081565b6103047f000000000000000000000000000000000000000000000000000000000000000081565b6102237f000000000000000000000000000000000000000000000000000000000000000081565b61022360055481565b61022360065481565b610223610462366004613566565b6111e1565b61046f611557565b60405161022d9190613657565b61022361048a36600461327d565b60016020526000908152604090205481565b61022360075481565b6102236104b3366004613566565b611656565b6102236104c636600461327d565b60036020526000908152604090205481565b6104e0611bb2565b005b6102726040518060400160405280600381526020017f534c50000000000000000000000000000000000000000000000000000000000081525081565b6102237f54726964656e743a436f6e7374616e7450726f6475637400000000000000000081565b610223610553366004613566565b611cad565b6102cd610566366004613449565b611de0565b610223610579366004613566565b611e65565b61022360045481565b6103047f000000000000000000000000000000000000000000000000000000000000000081565b6103047f000000000000000000000000000000000000000000000000000000000000000081565b6104e06105e33660046134ef565b61220e565b6102236105f6366004613475565b600260209081526000928352604080842090915290825290205481565b6000600954600114610686576040517f08c379a000000000000000000000000000000000000000000000000000000000815260206004820152600660248201527f4c4f434b4544000000000000000000000000000000000000000000000000000060448201526064015b60405180910390fd5b600260095560008080808061069d87890189613305565b9450945094509450945060008060006107056008546dffffffffffffffffffffffffffff808216926e01000000000000000000000000000083049091169163ffffffff7c01000000000000000000000000000000000000000000000000000000009091041690565b9250925092507f000000000000000000000000000000000000000000000000000000000000000073ffffffffffffffffffffffffffffffffffffffff168873ffffffffffffffffffffffffffffffffffffffff16141561096c5761078a85846dffffffffffffffffffffffffffff16846dffffffffffffffffffffffffffff1661254a565b98506107b87f00000000000000000000000000000000000000000000000000000000000000008a89896125ad565b6040517fbd50c7b1000000000000000000000000000000000000000000000000000000008152339063bd50c7b1906107f4908790600401613716565b600060405180830381600087803b15801561080e57600080fd5b505af1158015610822573d6000803e3d6000fd5b505050506000806108316128a5565b9150915086856dffffffffffffffffffffffffffff16830310156108b1576040517f08c379a000000000000000000000000000000000000000000000000000000000815260206004820152601660248201527f494e53554646494349454e545f414d4f554e545f494e00000000000000000000604482015260640161067d565b6108be8282878787612b1d565b7f000000000000000000000000000000000000000000000000000000000000000073ffffffffffffffffffffffffffffffffffffffff168a73ffffffffffffffffffffffffffffffffffffffff168a73ffffffffffffffffffffffffffffffffffffffff167fcd3829a3813dc3cdd188fd3d01dcf3268c16be2fdd2dd21d0665418816e460628a8f60405161095d929190918252602082015260400190565b60405180910390a45050610c2a565b7f000000000000000000000000000000000000000000000000000000000000000073ffffffffffffffffffffffffffffffffffffffff168873ffffffffffffffffffffffffffffffffffffffff1614610a21576040517f08c379a000000000000000000000000000000000000000000000000000000000815260206004820152601360248201527f494e56414c49445f494e5055545f544f4b454e00000000000000000000000000604482015260640161067d565b610a4c85836dffffffffffffffffffffffffffff16856dffffffffffffffffffffffffffff1661254a565b9850610a7a7f00000000000000000000000000000000000000000000000000000000000000008a89896125ad565b6040517fbd50c7b1000000000000000000000000000000000000000000000000000000008152339063bd50c7b190610ab6908790600401613716565b600060405180830381600087803b158015610ad057600080fd5b505af1158015610ae4573d6000803e3d6000fd5b50505050600080610af36128a5565b9150915086846dffffffffffffffffffffffffffff1682031015610b73576040517f08c379a000000000000000000000000000000000000000000000000000000000815260206004820152601660248201527f494e53554646494349454e545f414d4f554e545f494e00000000000000000000604482015260640161067d565b610b808282878787612b1d565b7f000000000000000000000000000000000000000000000000000000000000000073ffffffffffffffffffffffffffffffffffffffff168a73ffffffffffffffffffffffffffffffffffffffff168a73ffffffffffffffffffffffffffffffffffffffff167fcd3829a3813dc3cdd188fd3d01dcf3268c16be2fdd2dd21d0665418816e460628a8f604051610c1f929190918252602082015260400190565b60405180910390a450505b505060016009555094979650505050505050565b6000806000610c9c6008546dffffffffffffffffffffffffffff808216926e01000000000000000000000000000083049091169163ffffffff7c01000000000000000000000000000000000000000000000000000000009091041690565b925092509250909192565b33600081815260026020908152604080832073ffffffffffffffffffffffffffffffffffffffff8716808552925280832085905551919290917f8c5be1e5ebec7d5bd14f71427d1e84f3dd0314c0f7b2291e5b200ac8c7c3b92590610d0f9086815260200190565b60405180910390a350600192915050565b73ffffffffffffffffffffffffffffffffffffffff831660009081526002602090815260408083203384529091528120547fffffffffffffffffffffffffffffffffffffffffffffffffffffffffffffffff14610dbd5773ffffffffffffffffffffffffffffffffffffffff8416600090815260026020908152604080832033845290915281208054849290610db7908490613792565b90915550505b73ffffffffffffffffffffffffffffffffffffffff841660009081526001602052604081208054849290610df2908490613792565b909155505073ffffffffffffffffffffffffffffffffffffffff808416600081815260016020526040908190208054860190555190918616907fddf252ad1be2c89b69c2b068fc378daa952ba7f163c4a11628f55a4df523b3ef90610e5a9086815260200190565b60405180910390a35060019392505050565b6060600954600114610eda576040517f08c379a000000000000000000000000000000000000000000000000000000000815260206004820152600660248201527f4c4f434b45440000000000000000000000000000000000000000000000000000604482015260640161067d565b6002600955600080610eee84860186613414565b915091506000806000610f506008546dffffffffffffffffffffffffffff808216926e01000000000000000000000000000083049091169163ffffffff7c01000000000000000000000000000000000000000000000000000000009091041690565b925092509250600080610f616128a5565b60008054308252600160205260409091205492945090925090610f85878784612e33565b90910190600082610f968684613755565b610fa09190613741565b9050600083610faf8685613755565b610fb99190613741565b9050610fc53084612ee2565b610ff17f0000000000000000000000000000000000000000000000000000000000000000838d8d6125ad565b61101d7f0000000000000000000000000000000000000000000000000000000000000000828d8d6125ad565b8186039550808503945061103486868b8b8b612b1d565b6110466110418688613755565b612f75565b6007556040805160028082526060820190925290816020015b604080518082019091526000808252602082015281526020019060019003908161105f579050509b5060405180604001604052807f000000000000000000000000000000000000000000000000000000000000000073ffffffffffffffffffffffffffffffffffffffff168152602001838152508c6000815181106110e6576110e6613847565b602002602001018190525060405180604001604052807f000000000000000000000000000000000000000000000000000000000000000073ffffffffffffffffffffffffffffffffffffffff168152602001828152508c60018151811061114f5761114f613847565b60200260200101819052508a73ffffffffffffffffffffffffffffffffffffffff163373ffffffffffffffffffffffffffffffffffffffff167fdccd412f0b1252819cb1fd330b93224ca42612892bb3f4f789976e6d8193649684846040516111c2929190918252602082015260400190565b60405180910390a35050600160095550979a9950505050505050505050565b600060095460011461124f576040517f08c379a000000000000000000000000000000000000000000000000000000000815260206004820152600660248201527f4c4f434b45440000000000000000000000000000000000000000000000000000604482015260640161067d565b600260095560008080611264858701876132be565b92509250925060008060006112c86008546dffffffffffffffffffffffffffff808216926e01000000000000000000000000000083049091169163ffffffff7c01000000000000000000000000000000000000000000000000000000009091041690565b9250925092506000806112d96128a5565b915091506000807f000000000000000000000000000000000000000000000000000000000000000073ffffffffffffffffffffffffffffffffffffffff168a73ffffffffffffffffffffffffffffffffffffffff1614156113a3577f00000000000000000000000000000000000000000000000000000000000000009050866dffffffffffffffffffffffffffff168403915061139782886dffffffffffffffffffffffffffff16886dffffffffffffffffffffffffffff1661254a565b9a508a830392506114bf565b7f000000000000000000000000000000000000000000000000000000000000000073ffffffffffffffffffffffffffffffffffffffff168a73ffffffffffffffffffffffffffffffffffffffff1614611458576040517f08c379a000000000000000000000000000000000000000000000000000000000815260206004820152601360248201527f494e56414c49445f494e5055545f544f4b454e00000000000000000000000000604482015260640161067d565b50506008546dffffffffffffffffffffffffffff6e01000000000000000000000000000090910481168203907f0000000000000000000000000000000000000000000000000000000000000000906114b7908390888116908a1661254a565b9a508a840393505b6114cb818c8b8b6125ad565b6114d88484898989612b1d565b8073ffffffffffffffffffffffffffffffffffffffff168a73ffffffffffffffffffffffffffffffffffffffff168a73ffffffffffffffffffffffffffffffffffffffff167fcd3829a3813dc3cdd188fd3d01dcf3268c16be2fdd2dd21d0665418816e46062858f604051610c1f929190918252602082015260400190565b60408051600280825260608083018452926020830190803683370190505090507f0000000000000000000000000000000000000000000000000000000000000000816000815181106115ab576115ab613847565b602002602001019073ffffffffffffffffffffffffffffffffffffffff16908173ffffffffffffffffffffffffffffffffffffffff16815250507f00000000000000000000000000000000000000000000000000000000000000008160018151811061161957611619613847565b602002602001019073ffffffffffffffffffffffffffffffffffffffff16908173ffffffffffffffffffffffffffffffffffffffff168152505090565b60006009546001146116c4576040517f08c379a000000000000000000000000000000000000000000000000000000000815260206004820152600660248201527f4c4f434b45440000000000000000000000000000000000000000000000000000604482015260640161067d565b600260095560006116d78385018561327d565b905060008060006117376008546dffffffffffffffffffffffffffff808216926e01000000000000000000000000000083049091169163ffffffff7c01000000000000000000000000000000000000000000000000000000009091041690565b9250925092506000806117486128a5565b600054919350915061175b868683612e33565b0160006117786dffffffffffffffffffffffffffff881685613792565b905060006117966dffffffffffffffffffffffffffff881685613792565b90506000806117c784848c6dffffffffffffffffffffffffffff168c6dffffffffffffffffffffffffffff166130fa565b909250905060006117ef6117db8389613792565b6117e5858b613792565b6110419190613755565b905085611a705761180360006103e86131fd565b60007f000000000000000000000000000000000000000000000000000000000000000073ffffffffffffffffffffffffffffffffffffffff16637cd07e476040518163ffffffff1660e01b815260040160206040518083038186803b15801561186b57600080fd5b505afa15801561187f573d6000803e3d6000fd5b505050506040513d601f19601f820116820180604052508101906118a391906132a1565b90503373ffffffffffffffffffffffffffffffffffffffff821614156119dd578073ffffffffffffffffffffffffffffffffffffffff166340dc0e376040518163ffffffff1660e01b815260040160206040518083038186803b15801561190957600080fd5b505afa15801561191d573d6000803e3d6000fd5b505050506040513d601f19601f8201168201806040525081019061194191906135d8565b9d508d1580159061197257507fffffffffffffffffffffffffffffffffffffffffffffffffffffffffffffffff8e14155b6119d8576040517f08c379a000000000000000000000000000000000000000000000000000000000815260206004820152601560248201527f4241445f444553495245445f4c49515549444954590000000000000000000000604482015260640161067d565b611a6a565b73ffffffffffffffffffffffffffffffffffffffff811615611a5b576040517f08c379a000000000000000000000000000000000000000000000000000000000815260206004820152600d60248201527f4f4e4c595f4d49475241544f5200000000000000000000000000000000000000604482015260640161067d565b611a676103e883613792565b9d505b50611ab8565b6000611a926110416dffffffffffffffffffffffffffff808e16908f16613755565b90508087611aa08285613792565b611aaa9190613755565b611ab49190613741565b9d50505b8c611b1f576040517f08c379a000000000000000000000000000000000000000000000000000000000815260206004820152601d60248201527f494e53554646494349454e545f4c49515549444954595f4d494e544544000000604482015260640161067d565b611b298c8e6131fd565b611b3688888d8d8d612b1d565b611b43611041888a613755565b600755604080518681526020810186905273ffffffffffffffffffffffffffffffffffffffff8e169133917fdbba30eb0402b389513e87f51f4db2db80bed454384ec6925a24097c3548a02a91015b60405180910390a35050600160095550989b9a5050505050505050505050565b60408051600481526024810182526020810180517bffffffffffffffffffffffffffffffffffffffffffffffffffffffff167fc14ad80200000000000000000000000000000000000000000000000000000000179052905160009173ffffffffffffffffffffffffffffffffffffffff7f00000000000000000000000000000000000000000000000000000000000000001691611c4f919061363b565b600060405180830381855afa9150503d8060008114611c8a576040519150601f19603f3d011682016040523d82523d6000602084013e611c8f565b606091505b5091505080806020019051810190611ca791906135d8565b60045550565b60008080611cbd84860186613449565b91509150600080611d1d6008546dffffffffffffffffffffffffffff808216926e01000000000000000000000000000083049091169163ffffffff7c01000000000000000000000000000000000000000000000000000000009091041690565b50915091507f000000000000000000000000000000000000000000000000000000000000000073ffffffffffffffffffffffffffffffffffffffff168473ffffffffffffffffffffffffffffffffffffffff161415611da857611da183836dffffffffffffffffffffffffffff16836dffffffffffffffffffffffffffff1661254a565b9450611dd6565b611dd383826dffffffffffffffffffffffffffff16846dffffffffffffffffffffffffffff1661254a565b94505b5050505092915050565b33600090815260016020526040812080548391908390611e01908490613792565b909155505073ffffffffffffffffffffffffffffffffffffffff8316600081815260016020526040908190208054850190555133907fddf252ad1be2c89b69c2b068fc378daa952ba7f163c4a11628f55a4df523b3ef90610d0f9086815260200190565b6000600954600114611ed3576040517f08c379a000000000000000000000000000000000000000000000000000000000815260206004820152600660248201527f4c4f434b45440000000000000000000000000000000000000000000000000000604482015260640161067d565b600260095560008080611ee8858701876132be565b9250925092506000806000611f4c6008546dffffffffffffffffffffffffffff808216926e01000000000000000000000000000083049091169163ffffffff7c01000000000000000000000000000000000000000000000000000000009091041690565b925092509250600080611f5d6128a5565b60008054308252600160205260409091205492945090925090611f81878784612e33565b90910190600082611f928684613755565b611f9c9190613741565b9050600083611fab8685613755565b611fb59190613741565b9050611fc13084612ee2565b7f000000000000000000000000000000000000000000000000000000000000000073ffffffffffffffffffffffffffffffffffffffff168c73ffffffffffffffffffffffffffffffffffffffff1614156120815761204482838b6dffffffffffffffffffffffffffff1603838b6dffffffffffffffffffffffffffff160361254a565b016120717f0000000000000000000000000000000000000000000000000000000000000000828d8d6125ad565b9b5050918a90039160008b6121a1565b7f000000000000000000000000000000000000000000000000000000000000000073ffffffffffffffffffffffffffffffffffffffff168c73ffffffffffffffffffffffffffffffffffffffff1614612136576040517f08c379a000000000000000000000000000000000000000000000000000000000815260206004820152601460248201527f494e56414c49445f4f55545055545f544f4b454e000000000000000000000000604482015260640161067d565b61216581828a6dffffffffffffffffffffffffffff1603848c6dffffffffffffffffffffffffffff160361254a565b820191506121957f0000000000000000000000000000000000000000000000000000000000000000838d8d6125ad565b509a50928a9003928a60005b6121ae86868b8b8b612b1d565b6121bb6110418688613755565b600755604080518381526020810183905273ffffffffffffffffffffffffffffffffffffffff8d169133917fdccd412f0b1252819cb1fd330b93224ca42612892bb3f4f789976e6d819364969101611b92565b42841015612278576040517f08c379a000000000000000000000000000000000000000000000000000000000815260206004820152601760248201527f5045524d49545f444541444c494e455f45585049524544000000000000000000604482015260640161067d565b73ffffffffffffffffffffffffffffffffffffffff878116600081815260036020908152604080832080546001810190915581517f6e71edae12b1b97f4d1f60370fef10105fa2faae0126114a169c64845d6126c98185015280830195909552948b166060850152608084018a905260a084019490945260c08084018990528451808503909101815260e0840190945283519301929092207f19010000000000000000000000000000000000000000000000000000000000006101008301527f000000000000000000000000000000000000000000000000000000000000000061010283015261012282015261014201604080517fffffffffffffffffffffffffffffffffffffffffffffffffffffffffffffffe08184030181528282528051602091820120600080855291840180845281905260ff88169284019290925260608301869052608083018590529092509060019060a0016020604051602081039080840390855afa1580156123f1573d6000803e3d6000fd5b50506040517fffffffffffffffffffffffffffffffffffffffffffffffffffffffffffffffe0015191505073ffffffffffffffffffffffffffffffffffffffff81161580159061246c57508873ffffffffffffffffffffffffffffffffffffffff168173ffffffffffffffffffffffffffffffffffffffff16145b6124d2576040517f08c379a000000000000000000000000000000000000000000000000000000000815260206004820152601860248201527f494e56414c49445f5045524d49545f5349474e41545552450000000000000000604482015260640161067d565b73ffffffffffffffffffffffffffffffffffffffff90811660009081526002602090815260408083208b8516808552908352928190208a905551898152919350918a16917f8c5be1e5ebec7d5bd14f71427d1e84f3dd0314c0f7b2291e5b200ac8c7c3b925910160405180910390a350505050505050565b6000806125777f000000000000000000000000000000000000000000000000000000000000000086613755565b90508061258661271086613755565b6125909190613729565b61259a8483613755565b6125a49190613741565b95945050505050565b801561272f576040805173ffffffffffffffffffffffffffffffffffffffff8681166024830152306044830152848116606483015260006084830181905260a48084018890528451808503909101815260c490930184526020830180517bffffffffffffffffffffffffffffffffffffffffffffffffffffffff167f97da6d300000000000000000000000000000000000000000000000000000000017905292517f00000000000000000000000000000000000000000000000000000000000000009091169161267c9161363b565b6000604051808303816000865af19150503d80600081146126b9576040519150601f19603f3d011682016040523d82523d6000602084013e6126be565b606091505b5050905080612729576040517f08c379a000000000000000000000000000000000000000000000000000000000815260206004820152600f60248201527f57495448445241575f4641494c45440000000000000000000000000000000000604482015260640161067d565b5061289f565b6040805173ffffffffffffffffffffffffffffffffffffffff8681166024830152306044830152848116606483015260848083018790528351808403909101815260a490920183526020820180517bffffffffffffffffffffffffffffffffffffffffffffffffffffffff167ff18d03cc0000000000000000000000000000000000000000000000000000000017905291516000927f000000000000000000000000000000000000000000000000000000000000000016916127f09161363b565b6000604051808303816000865af19150503d806000811461282d576040519150601f19603f3d011682016040523d82523d6000602084013e612832565b606091505b505090508061289d576040517f08c379a000000000000000000000000000000000000000000000000000000000815260206004820152600f60248201527f5452414e534645525f4641494c45440000000000000000000000000000000000604482015260640161067d565b505b50505050565b60008060007f000000000000000000000000000000000000000000000000000000000000000073ffffffffffffffffffffffffffffffffffffffff1663f7888aec7f00000000000000000000000000000000000000000000000000000000000000003060405160240161293b92919073ffffffffffffffffffffffffffffffffffffffff92831681529116602082015260400190565b6040516020818303038152906040529060e01b6020820180517bffffffffffffffffffffffffffffffffffffffffffffffffffffffff8381831617835250505050604051612989919061363b565b600060405180830381855afa9150503d80600081146129c4576040519150601f19603f3d011682016040523d82523d6000602084013e6129c9565b606091505b50915050808060200190518101906129e191906135d8565b604080517f000000000000000000000000000000000000000000000000000000000000000073ffffffffffffffffffffffffffffffffffffffff90811660248301523060448084019190915283518084039091018152606490920183526020820180517bffffffffffffffffffffffffffffffffffffffffffffffffffffffff167ff7888aec0000000000000000000000000000000000000000000000000000000017905291519295506000927f000000000000000000000000000000000000000000000000000000000000000090921691612abd919061363b565b600060405180830381855afa9150503d8060008114612af8576040519150601f19603f3d011682016040523d82523d6000602084013e612afd565b606091505b5091505080806020019051810190612b1591906135d8565b925050509091565b6dffffffffffffffffffffffffffff8511801590612b4957506dffffffffffffffffffffffffffff8411155b612baf576040517f08c379a000000000000000000000000000000000000000000000000000000000815260206004820152600860248201527f4f564552464c4f57000000000000000000000000000000000000000000000000604482015260640161067d565b6008547c0100000000000000000000000000000000000000000000000000000000900463ffffffff16612c3357600880546dffffffffffffffffffffffffffff8681166e010000000000000000000000000000027fffffffff0000000000000000000000000000000000000000000000000000000090921690881617179055612df3565b6000612c44640100000000426137d5565b90508163ffffffff168163ffffffff1614158015612c7157506dffffffffffffffffffffffffffff841615155b8015612c8c57506dffffffffffffffffffffffffffff831615155b15612d515781810360006dffffffffffffffffffffffffffff86167bffffffffffffffffffffffffffff0000000000000000000000000000607087901b1681612cd757612cd7613818565b600580549290910463ffffffff851681029092019055905060006dffffffffffffffffffffffffffff8616607088901b7bffffffffffffffffffffffffffff00000000000000000000000000001681612d3257612d32613818565b0490508263ffffffff1681026006600082825401925050819055505050505b6008805463ffffffff9092167c0100000000000000000000000000000000000000000000000000000000027bffffffffffffffffffffffffffffffffffffffffffffffffffffffff6dffffffffffffffffffffffffffff8881166e010000000000000000000000000000027fffffffff00000000000000000000000000000000000000000000000000000000909516908a161793909317929092169190911790555b60408051868152602081018690527fcf2aa50876cdfbb541206f89af0ee78d44a2abf8d328e37fa4917f982149848a910160405180910390a15050505050565b6007546000908015612eda576000612e616110416dffffffffffffffffffffffffffff808816908916613755565b905081811115612ed857612710816004548484612e7e9190613792565b612e889088613755565b612e929190613755565b612e9c9190613741565b612ea69190613741565b92508215612ed857612ed87f0000000000000000000000000000000000000000000000000000000000000000846131fd565b505b509392505050565b73ffffffffffffffffffffffffffffffffffffffff821660009081526001602052604081208054839290612f17908490613792565b909155505060008054829003815560405182815273ffffffffffffffffffffffffffffffffffffffff8416907fddf252ad1be2c89b69c2b068fc378daa952ba7f163c4a11628f55a4df523b3ef906020015b60405180910390a35050565b600081612f8457506000919050565b8160017001000000000000000000000000000000008210612faa5760809190911c9060401b5b680100000000000000008210612fc55760409190911c9060201b5b6401000000008210612fdc5760209190911c9060101b5b620100008210612ff15760109190911c9060081b5b61010082106130055760089190911c9060041b5b601082106130185760049190911c9060021b5b600882106130245760011b5b600181858161303557613035613818565b048201901c9050600181858161304d5761304d613818565b048201901c9050600181858161306557613065613818565b048201901c9050600181858161307d5761307d613818565b048201901c9050600181858161309557613095613818565b048201901c905060018185816130ad576130ad613818565b048201901c905060018185816130c5576130c5613818565b048201901c905060008185816130dd576130dd613818565b0490508082106130ed57806130ef565b815b93505050505b919050565b600080831580613108575082155b15613118575060009050806131f4565b6000846131258589613755565b61312f9190613741565b905085811161318a576131456127106002613755565b61314f8288613792565b613179907f0000000000000000000000000000000000000000000000000000000000000000613755565b6131839190613741565b91506131f2565b6000846131978789613755565b6131a19190613741565b90506131b06127106002613755565b6131ba828a613792565b6131e4907f0000000000000000000000000000000000000000000000000000000000000000613755565b6131ee9190613741565b9350505b505b94509492505050565b8060008082825461320e9190613729565b909155505073ffffffffffffffffffffffffffffffffffffffff82166000818152600160209081526040808320805486019055518481527fddf252ad1be2c89b69c2b068fc378daa952ba7f163c4a11628f55a4df523b3ef9101612f69565b803580151581146130f557600080fd5b60006020828403121561328f57600080fd5b813561329a816138a5565b9392505050565b6000602082840312156132b357600080fd5b815161329a816138a5565b6000806000606084860312156132d357600080fd5b83356132de816138a5565b925060208401356132ee816138a5565b91506132fc6040850161326d565b90509250925092565b600080600080600060a0868803121561331d57600080fd5b8535613328816138a5565b94506020860135613338816138a5565b93506133466040870161326d565b925060608601359150608086013567ffffffffffffffff8082111561336a57600080fd5b818801915088601f83011261337e57600080fd5b81358181111561339057613390613876565b604051601f82017fffffffffffffffffffffffffffffffffffffffffffffffffffffffffffffffe0908116603f011681019083821181831017156133d6576133d6613876565b816040528281528b60208487010111156133ef57600080fd5b8260208601602083013760006020848301015280955050505050509295509295909350565b6000806040838503121561342757600080fd5b8235613432816138a5565b91506134406020840161326d565b90509250929050565b6000806040838503121561345c57600080fd5b8235613467816138a5565b946020939093013593505050565b6000806040838503121561348857600080fd5b8235613493816138a5565b915060208301356134a3816138a5565b809150509250929050565b6000806000606084860312156134c357600080fd5b83356134ce816138a5565b925060208401356134de816138a5565b929592945050506040919091013590565b600080600080600080600060e0888a03121561350a57600080fd5b8735613515816138a5565b96506020880135613525816138a5565b95506040880135945060608801359350608088013560ff8116811461354957600080fd5b9699959850939692959460a0840135945060c09093013592915050565b6000806020838503121561357957600080fd5b823567ffffffffffffffff8082111561359157600080fd5b818501915085601f8301126135a557600080fd5b8135818111156135b457600080fd5b8660208285010111156135c657600080fd5b60209290920196919550909350505050565b6000602082840312156135ea57600080fd5b5051919050565b600081518084526136098160208601602086016137a9565b601f017fffffffffffffffffffffffffffffffffffffffffffffffffffffffffffffffe0169290920160200192915050565b6000825161364d8184602087016137a9565b9190910192915050565b6020808252825182820181905260009190848201906040850190845b818110156136a557835173ffffffffffffffffffffffffffffffffffffffff1683529284019291840191600101613673565b50909695505050505050565b602080825282518282018190526000919060409081850190868401855b82811015613709578151805173ffffffffffffffffffffffffffffffffffffffff1685528601518685015292840192908501906001016136ce565b5091979650505050505050565b60208152600061329a60208301846135f1565b6000821982111561373c5761373c6137e9565b500190565b60008261375057613750613818565b500490565b6000817fffffffffffffffffffffffffffffffffffffffffffffffffffffffffffffffff048311821515161561378d5761378d6137e9565b500290565b6000828210156137a4576137a46137e9565b500390565b60005b838110156137c45781810151838201526020016137ac565b8381111561289f5750506000910152565b6000826137e4576137e4613818565b500690565b7f4e487b7100000000000000000000000000000000000000000000000000000000600052601160045260246000fd5b7f4e487b7100000000000000000000000000000000000000000000000000000000600052601260045260246000fd5b7f4e487b7100000000000000000000000000000000000000000000000000000000600052603260045260246000fd5b7f4e487b7100000000000000000000000000000000000000000000000000000000600052604160045260246000fd5b73ffffffffffffffffffffffffffffffffffffffff811681146138c757600080fd5b5056fea264697066735822122004f193ad403a2048e6ef0c1fc9da9b9f522fe2ad030c99737c73f0f04901cf7464736f6c63430008070033",
  "linkReferences": {},
  "deployedLinkReferences": {}
}