{
  "address": "0x5215637AcBfa396b1D948CEd2D47b5c28924482f",
  "abi": [
    {
      "inputs": [
        {
          "internalType": "address",
          "name": "_masterDeployer",
          "type": "address"
        }
      ],
      "stateMutability": "nonpayable",
      "type": "constructor"
    },
    {
      "inputs": [
        {
          "internalType": "bytes",
          "name": "",
          "type": "bytes"
        }
      ],
      "name": "configAddress",
      "outputs": [
        {
          "internalType": "address",
          "name": "",
          "type": "address"
        }
      ],
      "stateMutability": "view",
      "type": "function"
    },
    {
      "inputs": [
        {
          "internalType": "bytes",
          "name": "_deployData",
          "type": "bytes"
        }
      ],
      "name": "deployPool",
      "outputs": [
        {
          "internalType": "address",
          "name": "pool",
          "type": "address"
        }
      ],
      "stateMutability": "nonpayable",
      "type": "function"
    },
    {
      "inputs": [],
      "name": "masterDeployer",
      "outputs": [
        {
          "internalType": "address",
          "name": "",
          "type": "address"
        }
      ],
      "stateMutability": "view",
      "type": "function"
    }
  ],
  "transactionHash": "0x82a78118718b03688fcb0b790887a60b477a4a92409373f71eaee369921c5584",
  "args": [
    "0x312b493E71EF0aECdAF7480523C114c68a298B17"
  ],
  "solcInputHash": "8a0b70ce299dd51a4139b0ba951a7dae",
  "bytecode": "0x60a060405234801561001057600080fd5b506040516144a13803806144a183398101604081905261002f9161008f565b806001600160a01b0381166100795760405162461bcd60e51b815260206004820152600c60248201526b5a45524f5f4144445245535360a01b604482015260640160405180910390fd5b60601b6001600160601b031916608052506100bf565b6000602082840312156100a157600080fd5b81516001600160a01b03811681146100b857600080fd5b9392505050565b60805160601c6143be6100e36000396000818160d5015261034201526143be6000f3fe60806040523480156200001157600080fd5b5060043610620000465760003560e01c80630d617dfa146200004b57806327c3cae114620000b8578063cf58879a14620000cf575b600080fd5b6200008f6200005c366004620005c6565b805160208183018101805160008252928201919093012091525473ffffffffffffffffffffffffffffffffffffffff1681565b60405173ffffffffffffffffffffffffffffffffffffffff909116815260200160405180910390f35b6200008f620000c9366004620005c6565b620000f7565b6200008f7f000000000000000000000000000000000000000000000000000000000000000081565b60008082806020019051810190620001109190620004cb565b505090506200016381604051806020016200012b9062000443565b7fffffffffffffffffffffffffffffffffffffffffffffffffffffffffffffffe082820381018352601f90910116604052856200016a565b9392505050565b6000805b84518160ff161015620002765784816200018881620007f0565b925060ff1681518110620001a057620001a062000838565b602002602001015173ffffffffffffffffffffffffffffffffffffffff16858260ff1681518110620001d657620001d662000838565b602002602001015173ffffffffffffffffffffffffffffffffffffffff161062000261576040517f08c379a000000000000000000000000000000000000000000000000000000000815260206004820152601360248201527f494e56414c49445f544f4b454e5f4f524445520000000000000000000000000060448201526064015b60405180910390fd5b806200026d81620007f0565b9150506200016e565b50600073ffffffffffffffffffffffffffffffffffffffff16600083604051620002a1919062000682565b9081526040519081900360200190205473ffffffffffffffffffffffffffffffffffffffff161462000330576040517f08c379a000000000000000000000000000000000000000000000000000000000815260206004820152601560248201527f504f4f4c5f414c52454144595f4445504c4f5945440000000000000000000000604482015260640162000258565b600082805190602001209050600084847f000000000000000000000000000000000000000000000000000000000000000060405160200162000374929190620006d3565b604080517fffffffffffffffffffffffffffffffffffffffffffffffffffffffffffffffe081840301815290829052620003b29291602001620006a0565b6040516020818303038152906040529050818151602083016000f59250823b620003db57600080fd5b82600085604051620003ee919062000682565b908152602001604051809103902060006101000a81548173ffffffffffffffffffffffffffffffffffffffff021916908373ffffffffffffffffffffffffffffffffffffffff16021790555050509392505050565b613af2806200089783390190565b600082601f8301126200046357600080fd5b815160206200047c620004768362000796565b62000744565b80838252828201915082860187848660051b89010111156200049d57600080fd5b60005b85811015620004be57815184529284019290840190600101620004a0565b5090979650505050505050565b600080600060608486031215620004e157600080fd5b835167ffffffffffffffff80821115620004fa57600080fd5b818601915086601f8301126200050f57600080fd5b8151602062000522620004768362000796565b8083825282820191508286018b848660051b89010111156200054357600080fd5b600096505b848710156200058b57805173ffffffffffffffffffffffffffffffffffffffff811681146200057657600080fd5b83526001969096019591830191830162000548565b5091890151919750909350505080821115620005a657600080fd5b50620005b58682870162000451565b925050604084015190509250925092565b60006020808385031215620005da57600080fd5b823567ffffffffffffffff80821115620005f357600080fd5b818501915085601f8301126200060857600080fd5b8135818111156200061d576200061d62000867565b6200064f847fffffffffffffffffffffffffffffffffffffffffffffffffffffffffffffffe0601f8401160162000744565b915080825286848285010111156200066657600080fd5b8084840185840137600090820190930192909252509392505050565b6000825162000696818460208701620007bd565b9190910192915050565b60008351620006b4818460208801620007bd565b835190830190620006ca818360208801620007bd565b01949350505050565b6040815260008351806040840152620006f4816060850160208801620007bd565b73ffffffffffffffffffffffffffffffffffffffff93909316602083015250601f919091017fffffffffffffffffffffffffffffffffffffffffffffffffffffffffffffffe01601606001919050565b604051601f82017fffffffffffffffffffffffffffffffffffffffffffffffffffffffffffffffe016810167ffffffffffffffff811182821017156200078e576200078e62000867565b604052919050565b600067ffffffffffffffff821115620007b357620007b362000867565b5060051b60200190565b60005b83811015620007da578181015183820152602001620007c0565b83811115620007ea576000848401525b50505050565b600060ff821660ff8114156200082f577f4e487b7100000000000000000000000000000000000000000000000000000000600052601160045260246000fd5b60010192915050565b7f4e487b7100000000000000000000000000000000000000000000000000000000600052603260045260246000fd5b7f4e487b7100000000000000000000000000000000000000000000000000000000600052604160045260246000fdfe6101206040523480156200001257600080fd5b5060405162003af238038062003af2833981016040819052620000359162000962565b604080518082018252600e81526d29bab9b434902628102a37b5b2b760911b6020918201528151808301835260018152603160f81b9082015281517f8b73c3c69bb8fe3d512ecc4cf759cc79239f7b179b0ffacaa9a75d522b39400f918101919091527fc2bf45081e840722410522aa366600d7fe4da5bfb5a5b417f4d5125b4ed180a4918101919091527fc89efdaa54c0f20c7adf612882df0950f5a951637e0307cdcb4c672f298b8bc6606082015246608082018190523060a08301529060c00160405160208183030381529060405280519060200120608081815250505060008060008480602001905181019062000131919062000880565b92509250925081518351146200017f5760405162461bcd60e51b815260206004820152600e60248201526d494e56414c49445f41525241595360901b60448201526064015b60405180910390fd5b8062000197620f4240670de0b6b3a764000062000aab565b11158015620001ba5750620001b6600a670de0b6b3a764000062000aab565b8111155b620001fb5760405162461bcd60e51b815260206004820152601060248201526f494e56414c49445f535741505f46454560801b604482015260640162000176565b82516002111580156200021057506008835111155b6200025e5760405162461bcd60e51b815260206004820152601560248201527f494e56414c49445f544f4b454e535f4c454e4754480000000000000000000000604482015260640162000176565b60005b83518160ff1610156200056f5760006001600160a01b0316848260ff168151811062000291576200029162000b5c565b60200260200101516001600160a01b03161415620002e15760405162461bcd60e51b815260206004820152600c60248201526b5a45524f5f4144445245535360a01b604482015260640162000176565b60076000858360ff1681518110620002fd57620002fd62000b5c565b6020908102919091018101516001600160a01b031682528101919091526040016000205460ff1615620003595760405162461bcd60e51b815260206004820152600360248201526214d15560ea1b604482015260640162000176565b828160ff168151811062000371576200037162000b5c565b6020026020010151670de0b6b3a764000011158015620003c45750620003a1670de0b6b3a7640000603262000ace565b838260ff1681518110620003b957620003b962000b5c565b602002602001015111155b620004035760405162461bcd60e51b815260206004820152600e60248201526d1253959053125117d5d15251d21560921b604482015260640162000176565b60405180608001604052806001151581526020018260ff168152602001848360ff168151811062000438576200043862000b5c565b60200260200101518152602001600081525060076000868460ff168151811062000466576200046662000b5c565b6020908102919091018101516001600160a01b03168252818101929092526040908101600020835181549385015161ffff1990941690151561ff0019161761010060ff9485160217815590830151600182015560609092015160029092019190915584516004918691908416908110620004e457620004e462000b5c565b60209081029190910181015182546001810184556000938452919092200180546001600160a01b0319166001600160a01b039092169190911790558251839060ff831690811062000539576200053962000b5c565b60200260200101516005600082825462000554919062000a90565b90915550819050620005668162000b23565b91505062000261565b5062000585670de0b6b3a7640000603262000ace565b6005541115620005cb5760405162461bcd60e51b815260206004820152601060248201526f13505617d513d5105317d5d15251d21560821b604482015260640162000176565b620005ec6000620005e6670de0b6b3a7640000606462000ace565b62000773565b60408051600481526024810182526020810180516001600160e01b0316634da3182760e01b17905290516000916001600160a01b0387169162000630919062000a19565b600060405180830381855afa9150503d80600081146200066d576040519150601f19603f3d011682016040523d82523d6000602084013e62000672565b606091505b5060408051600481526024810182526020810180516001600160e01b0316630605066960e11b1790529051919350600092506001600160a01b03881691620006bb919062000a19565b600060405180830381855afa9150503d8060008114620006f8576040519150601f19603f3d011682016040523d82523d6000602084013e620006fd565b606091505b509150508180602001905181019062000717919062000859565b60601b6001600160601b03191660e05280516200073e906020908301810190830162000859565b6001600160601b0319606091821b811660c05260a0949094529590951b90911661010052505060016006555062000ba1915050565b8060008082825462000786919062000a90565b90915550506001600160a01b0382166000818152600160209081526040808320805486019055518481527fddf252ad1be2c89b69c2b068fc378daa952ba7f163c4a11628f55a4df523b3ef910160405180910390a35050565b600082601f830112620007f157600080fd5b815160206200080a620008048362000a6a565b62000a37565b80838252828201915082860187848660051b89010111156200082b57600080fd5b60005b858110156200084c578151845292840192908401906001016200082e565b5090979650505050505050565b6000602082840312156200086c57600080fd5b8151620008798162000b88565b9392505050565b6000806000606084860312156200089657600080fd5b83516001600160401b0380821115620008ae57600080fd5b818601915086601f830112620008c357600080fd5b81516020620008d6620008048362000a6a565b8083825282820191508286018b848660051b8901011115620008f757600080fd5b600096505b8487101562000927578051620009128162000b88565b835260019690960195918301918301620008fc565b50918901519197509093505050808211156200094257600080fd5b506200095186828701620007df565b925050604084015190509250925092565b600080604083850312156200097657600080fd5b82516001600160401b03808211156200098e57600080fd5b818501915085601f830112620009a357600080fd5b815181811115620009b857620009b862000b72565b620009cd601f8201601f191660200162000a37565b9150808252866020828501011115620009e557600080fd5b620009f881602084016020860162000af0565b508093505050602083015162000a0e8162000b88565b809150509250929050565b6000825162000a2d81846020870162000af0565b9190910192915050565b604051601f8201601f191681016001600160401b038111828210171562000a625762000a6262000b72565b604052919050565b60006001600160401b0382111562000a865762000a8662000b72565b5060051b60200190565b6000821982111562000aa65762000aa662000b46565b500190565b60008262000ac957634e487b7160e01b600052601260045260246000fd5b500490565b600081600019048311821515161562000aeb5762000aeb62000b46565b500290565b60005b8381101562000b0d57818101518382015260200162000af3565b8381111562000b1d576000848401525b50505050565b600060ff821660ff81141562000b3d5762000b3d62000b46565b60010192915050565b634e487b7160e01b600052601160045260246000fd5b634e487b7160e01b600052603260045260246000fd5b634e487b7160e01b600052604160045260246000fd5b6001600160a01b038116811462000b9e57600080fd5b50565b60805160a05160c05160601c60e05160601c6101005160601c612ed962000c1960003960006104fe01526000818161039901528181611e1401528181611f4301526120b90152600061024a0152600081816103c0015281816116d90152611d0401526000818161031301526118df0152612ed96000f3fe608060405234801561001057600080fd5b50600436106101ae5760003560e01c8063627dd56a116100ee578063a69840a811610097578063af8c09bf11610071578063af8c09bf146104e6578063cf58879a146104f9578063d505accf14610520578063dd62ed3e1461053557600080fd5b8063a69840a814610499578063a8f1f52e146104c0578063a9059cbb146104d357600080fd5b80637ba0e2e7116100c85780637ba0e2e71461042a5780637ecebe001461043d57806395d89b411461045d57600080fd5b8063627dd56a146103e257806367e4ac2c146103f557806370a082311461040a57600080fd5b80632a07b6c71161015b5780633644e515116101355780633644e5151461030e578063469e9067146103355780634da318271461039457806354cf2aeb146103bb57600080fd5b80632a07b6c7146102ad57806330adf81f146102cd578063313ce567146102f457600080fd5b80630c0a0cd21161018c5780630c0a0cd21461024557806318160ddd1461029157806323b872dd1461029a57600080fd5b8063053da1c8146101b357806306fdde03146101d9578063095ea7b314610222575b600080fd5b6101c66101c1366004612acb565b610560565b6040519081526020015b60405180910390f35b6102156040518060400160405280600e81526020017f5375736869204c5020546f6b656e00000000000000000000000000000000000081525081565b6040516101d09190612cb6565b6102356102303660046129ae565b61095c565b60405190151581526020016101d0565b61026c7f000000000000000000000000000000000000000000000000000000000000000081565b60405173ffffffffffffffffffffffffffffffffffffffff90911681526020016101d0565b6101c660005481565b6102356102a8366004612a13565b6109d6565b6102c06102bb366004612acb565b610b22565b6040516101d09190612c51565b6101c67f6e71edae12b1b97f4d1f60370fef10105fa2faae0126114a169c64845d6126c981565b6102fc601281565b60405160ff90911681526020016101d0565b6101c67f000000000000000000000000000000000000000000000000000000000000000081565b610370610343366004612782565b60076020526000908152604090208054600182015460029092015460ff8083169361010090930416919084565b60408051941515855260ff90931660208501529183015260608201526080016101d0565b61026c7f000000000000000000000000000000000000000000000000000000000000000081565b6101c67f000000000000000000000000000000000000000000000000000000000000000081565b6101c66103f0366004612acb565b610e36565b6103fd6111b6565b6040516101d09190612bf7565b6101c6610418366004612782565b60016020526000908152604090205481565b6101c6610438366004612acb565b611225565b6101c661044b366004612782565b60036020526000908152604090205481565b6102156040518060400160405280600381526020017f534c50000000000000000000000000000000000000000000000000000000000081525081565b6101c67f54726964656e743a496e6465780000000000000000000000000000000000000081565b6101c66104ce366004612acb565b6114e8565b6102356104e13660046129ae565b61151e565b6101c66104f4366004612acb565b6115a3565b61026c7f000000000000000000000000000000000000000000000000000000000000000081565b61053361052e366004612a54565b611826565b005b6101c66105433660046129da565b600260209081526000928352604080842090915290825290205481565b60006006546001146105d3576040517f08c379a000000000000000000000000000000000000000000000000000000000815260206004820152600660248201527f4c4f434b4544000000000000000000000000000000000000000000000000000060448201526064015b60405180910390fd5b6002600655600080808080806105eb888a018a612801565b73ffffffffffffffffffffffffffffffffffffffff8616600090815260076020526040902054959b5093995091975095509350915060ff168015610654575073ffffffffffffffffffffffffffffffffffffffff851660009081526007602052604090205460ff165b6106ba576040517f08c379a000000000000000000000000000000000000000000000000000000000815260206004820152600760248201527f4e4f545f5345540000000000000000000000000000000000000000000000000060448201526064016105ca565b73ffffffffffffffffffffffffffffffffffffffff808716600090815260076020526040808220928816825290206002808301546107099161070490670de0b6b3a7640000612ce1565b611bda565b841115610772576040517f08c379a000000000000000000000000000000000000000000000000000000000815260206004820152600c60248201527f4d41585f494e5f524154494f000000000000000000000000000000000000000060448201526064016105ca565b61078f826002015483600101548360020154846001015488611cea565b6040517fbd50c7b1000000000000000000000000000000000000000000000000000000008152909950339063bd50c7b1906107ce908690600401612cb6565b600060405180830381600087803b1580156107e857600080fd5b505af11580156107fc573d6000803e3d6000fd5b505050600283015461080f915085612cc9565b61081889611d87565b1015610880576040517f08c379a000000000000000000000000000000000000000000000000000000000815260206004820152600c60248201527f4e4f545f5245434549564544000000000000000000000000000000000000000060448201526064016105ca565b838260020160008282546108949190612cc9565b92505081905550888160020160008282546108af9190612d32565b909155506108c19050878a8888611ea0565b8673ffffffffffffffffffffffffffffffffffffffff168873ffffffffffffffffffffffffffffffffffffffff168773ffffffffffffffffffffffffffffffffffffffff167fcd3829a3813dc3cdd188fd3d01dcf3268c16be2fdd2dd21d0665418816e46062878d604051610940929190918252602082015260400190565b60405180910390a4505060016006555094979650505050505050565b33600081815260026020908152604080832073ffffffffffffffffffffffffffffffffffffffff8716808552925280832085905551919290917f8c5be1e5ebec7d5bd14f71427d1e84f3dd0314c0f7b2291e5b200ac8c7c3b925906109c49086815260200190565b60405180910390a35060015b92915050565b73ffffffffffffffffffffffffffffffffffffffff831660009081526002602090815260408083203384529091528120547fffffffffffffffffffffffffffffffffffffffffffffffffffffffffffffffff14610a735773ffffffffffffffffffffffffffffffffffffffff8416600090815260026020908152604080832033845290915281208054849290610a6d908490612d32565b90915550505b73ffffffffffffffffffffffffffffffffffffffff841660009081526001602052604081208054849290610aa8908490612d32565b909155505073ffffffffffffffffffffffffffffffffffffffff808416600081815260016020526040908190208054860190555190918616907fddf252ad1be2c89b69c2b068fc378daa952ba7f163c4a11628f55a4df523b3ef90610b109086815260200190565b60405180910390a35060019392505050565b6060600654600114610b90576040517f08c379a000000000000000000000000000000000000000000000000000000000815260206004820152600660248201527f4c4f434b4544000000000000000000000000000000000000000000000000000060448201526064016105ca565b600260065560008080610ba585870187612970565b9250925092506000610bb982600054612198565b9050610bc53083612314565b60045467ffffffffffffffff811115610be057610be0612e4f565b604051908082528060200260200182016040528015610c2557816020015b6040805180820190915260008082526020820152815260200190600190039081610bfe5790505b50945060005b600454811015610e2557600060048281548110610c4a57610c4a612e20565b600091825260208083209091015473ffffffffffffffffffffffffffffffffffffffff168083526007909152604082206002015490925090610c8c8583611bda565b905080610cf5576040517f08c379a000000000000000000000000000000000000000000000000000000000815260206004820152600b60248201527f4d4154485f415050524f5800000000000000000000000000000000000000000060448201526064016105ca565b73ffffffffffffffffffffffffffffffffffffffff831660009081526007602052604081206002018054839290610d2d908490612d32565b90915550610d3f905083828a8a611ea0565b60405180604001604052808473ffffffffffffffffffffffffffffffffffffffff16815260200182815250898581518110610d7c57610d7c612e20565b60200260200101819052508773ffffffffffffffffffffffffffffffffffffffff163373ffffffffffffffffffffffffffffffffffffffff167f3dd1df88dc92e2788892542d81f999d720a44b4c127065d45c128f4f59fdc3738584604051610e0792919073ffffffffffffffffffffffffffffffffffffffff929092168252602082015260400190565b60405180910390a35050508080610e1d90612d75565b915050610c2b565b505060016006555091949350505050565b6000600654600114610ea4576040517f08c379a000000000000000000000000000000000000000000000000000000000815260206004820152600660248201527f4c4f434b4544000000000000000000000000000000000000000000000000000060448201526064016105ca565b6002600655600080808080610ebb8789018961279f565b73ffffffffffffffffffffffffffffffffffffffff85166000908152600760205260409020549499509297509095509350915060ff168015610f22575073ffffffffffffffffffffffffffffffffffffffff841660009081526007602052604090205460ff165b610f88576040517f08c379a000000000000000000000000000000000000000000000000000000000815260206004820152600760248201527f4e4f545f5345540000000000000000000000000000000000000000000000000060448201526064016105ca565b73ffffffffffffffffffffffffffffffffffffffff80861660009081526007602052604080822092871682529020600280830154610fd29161070490670de0b6b3a7640000612ce1565b83111561103b576040517f08c379a000000000000000000000000000000000000000000000000000000000815260206004820152600c60248201527f4d41585f494e5f524154494f000000000000000000000000000000000000000060448201526064016105ca565b611058826002015483600101548360020154846001015487611cea565b975081600201548361106a9190612cc9565b61107388611d87565b10156110db576040517f08c379a000000000000000000000000000000000000000000000000000000000815260206004820152600c60248201527f4e4f545f5245434549564544000000000000000000000000000000000000000060448201526064016105ca565b828260020160008282546110ef9190612cc9565b925050819055508781600201600082825461110a9190612d32565b9091555061111c905086898787611ea0565b8573ffffffffffffffffffffffffffffffffffffffff168773ffffffffffffffffffffffffffffffffffffffff168673ffffffffffffffffffffffffffffffffffffffff167fcd3829a3813dc3cdd188fd3d01dcf3268c16be2fdd2dd21d0665418816e46062868c60405161119b929190918252602082015260400190565b60405180910390a45050600160065550939695505050505050565b6060600480548060200260200160405190810160405280929190818152602001828054801561121b57602002820191906000526020600020905b815473ffffffffffffffffffffffffffffffffffffffff1681526001909101906020018083116111f0575b5050505050905090565b6000600654600114611293576040517f08c379a000000000000000000000000000000000000000000000000000000000815260206004820152600660248201527f4c4f434b4544000000000000000000000000000000000000000000000000000060448201526064016105ca565b60026006556000806112a7848601866129ae565b9150915060006112b982600054612198565b905060005b6004548110156114cf576000600482815481106112dd576112dd612e20565b600091825260208083209091015473ffffffffffffffffffffffffffffffffffffffff16808352600790915260408220600201549092509081611320578461132a565b61132a8583611bda565b905061134364e8d4a51000670de0b6b3a7640000612ce1565b8110156113ac576040517f08c379a000000000000000000000000000000000000000000000000000000000815260206004820152600b60248201527f4d494e5f42414c414e434500000000000000000000000000000000000000000060448201526064016105ca565b6113b68282612cc9565b6113bf84611d87565b1015611427576040517f08c379a000000000000000000000000000000000000000000000000000000000815260206004820152600c60248201527f4e4f545f5245434549564544000000000000000000000000000000000000000060448201526064016105ca565b73ffffffffffffffffffffffffffffffffffffffff83166000908152600760205260408120600201805483929061145f908490612cc9565b90915550506040805173ffffffffffffffffffffffffffffffffffffffff85811682526020820184905289169133917ff9403b28cc8805935e0ce6943ed646d5fde3d1e14f6b398e85bfa2851d1b85f7910160405180910390a350505080806114c790612d75565b9150506112be565b506114da83836123a7565b506001600655949350505050565b600080808080806114fb87890189612b56565b945094509450945094506115128585858585611cea565b98975050505050505050565b3360009081526001602052604081208054839190839061153f908490612d32565b909155505073ffffffffffffffffffffffffffffffffffffffff8316600081815260016020526040908190208054850190555133907fddf252ad1be2c89b69c2b068fc378daa952ba7f163c4a11628f55a4df523b3ef906109c49086815260200190565b6000600654600114611611576040517f08c379a000000000000000000000000000000000000000000000000000000000815260206004820152600660248201527f4c4f434b4544000000000000000000000000000000000000000000000000000060448201526064016105ca565b6002600655600080808061162786880188612921565b73ffffffffffffffffffffffffffffffffffffffff84166000908152600760205260409020805494985092965090945092509060ff166116c3576040517f08c379a000000000000000000000000000000000000000000000000000000000815260206004820152600760248201527f4e4f545f5345540000000000000000000000000000000000000000000000000060448201526064016105ca565b6116fd81600201548260010154600054600554867f0000000000000000000000000000000000000000000000000000000000000000612417565b955061172781600201546003670de0b6b3a764000061171c9190612ce1565b610704906001612cc9565b861115611790576040517f08c379a000000000000000000000000000000000000000000000000000000000815260206004820152600d60248201527f4d41585f4f55545f524154494f0000000000000000000000000000000000000060448201526064016105ca565b858160020160008282546117a49190612d32565b909155506117b490503083612314565b6117c085878686611ea0565b6040805173ffffffffffffffffffffffffffffffffffffffff87811682526020820189905286169133917f3dd1df88dc92e2788892542d81f999d720a44b4c127065d45c128f4f59fdc373910160405180910390a3505060016006555091949350505050565b428410156118b6576040517f08c379a000000000000000000000000000000000000000000000000000000000815260206004820152602560248201527f54726964656e7445524332303a205045524d49545f444541444c494e455f455860448201527f504952454400000000000000000000000000000000000000000000000000000060648201526084016105ca565b73ffffffffffffffffffffffffffffffffffffffff8716600090815260036020526040812080547f0000000000000000000000000000000000000000000000000000000000000000917f6e71edae12b1b97f4d1f60370fef10105fa2faae0126114a169c64845d6126c9918b918b918b918761193183612d75565b9091555060408051602081019690965273ffffffffffffffffffffffffffffffffffffffff94851690860152929091166060840152608083015260a082015260c0810187905260e001604051602081830303815290604052805190602001206040516020016119d29291907f190100000000000000000000000000000000000000000000000000000000000081526002810192909252602282015260420190565b604080517fffffffffffffffffffffffffffffffffffffffffffffffffffffffffffffffe08184030181528282528051602091820120600080855291840180845281905260ff88169284019290925260608301869052608083018590529092509060019060a0016020604051602081039080840390855afa158015611a5b573d6000803e3d6000fd5b50506040517fffffffffffffffffffffffffffffffffffffffffffffffffffffffffffffffe0015191505073ffffffffffffffffffffffffffffffffffffffff811615801590611ad657508873ffffffffffffffffffffffffffffffffffffffff168173ffffffffffffffffffffffffffffffffffffffff16145b611b62576040517f08c379a000000000000000000000000000000000000000000000000000000000815260206004820152602660248201527f54726964656e7445524332303a20494e56414c49445f5045524d49545f53494760448201527f4e4154555245000000000000000000000000000000000000000000000000000060648201526084016105ca565b73ffffffffffffffffffffffffffffffffffffffff81811660009081526002602090815260408083208c8516808552908352928190208b9055518a815291928c16917f8c5be1e5ebec7d5bd14f71427d1e84f3dd0314c0f7b2291e5b200ac8c7c3b925910160405180910390a3505050505050505050565b6000828202831580611bfa575082848281611bf757611bf7612df1565b04145b611c60576040517f08c379a000000000000000000000000000000000000000000000000000000000815260206004820152600c60248201527f4d554c5f4f564552464c4f57000000000000000000000000000000000000000060448201526064016105ca565b6706f05b59d3b20000810181811015611cd5576040517f08c379a000000000000000000000000000000000000000000000000000000000815260206004820152600c60248201527f4d554c5f4f564552464c4f57000000000000000000000000000000000000000060448201526064016105ca565b670de0b6b3a7640000815b0495945050505050565b600080611cf78685612198565b90506000611d31846107047f0000000000000000000000000000000000000000000000000000000000000000670de0b6b3a7640000612d32565b90506000611d4889611d438482612cc9565b612198565b90506000611d5682856124c6565b90506000611d6c82670de0b6b3a7640000612d32565b9050611d788982611bda565b9b9a5050505050505050505050565b6040805173ffffffffffffffffffffffffffffffffffffffff83811660248301523060448084019190915283518084039091018152606490920183526020820180517bffffffffffffffffffffffffffffffffffffffffffffffffffffffff167ff7888aec00000000000000000000000000000000000000000000000000000000179052915160009283927f000000000000000000000000000000000000000000000000000000000000000090911691611e419190612bdb565b600060405180830381855afa9150503d8060008114611e7c576040519150601f19603f3d011682016040523d82523d6000602084013e611e81565b606091505b5091505080806020019051810190611e999190612b3d565b9392505050565b8015612022576040805173ffffffffffffffffffffffffffffffffffffffff8681166024830152306044830152848116606483015260006084830181905260a48084018890528451808503909101815260c490930184526020830180517bffffffffffffffffffffffffffffffffffffffffffffffffffffffff167f97da6d300000000000000000000000000000000000000000000000000000000017905292517f000000000000000000000000000000000000000000000000000000000000000090911691611f6f91612bdb565b6000604051808303816000865af19150503d8060008114611fac576040519150601f19603f3d011682016040523d82523d6000602084013e611fb1565b606091505b505090508061201c576040517f08c379a000000000000000000000000000000000000000000000000000000000815260206004820152600f60248201527f57495448445241575f4641494c4544000000000000000000000000000000000060448201526064016105ca565b50612192565b6040805173ffffffffffffffffffffffffffffffffffffffff8681166024830152306044830152848116606483015260848083018790528351808403909101815260a490920183526020820180517bffffffffffffffffffffffffffffffffffffffffffffffffffffffff167ff18d03cc0000000000000000000000000000000000000000000000000000000017905291516000927f000000000000000000000000000000000000000000000000000000000000000016916120e391612bdb565b6000604051808303816000865af19150503d8060008114612120576040519150601f19603f3d011682016040523d82523d6000602084013e612125565b606091505b5050905080612190576040517f08c379a000000000000000000000000000000000000000000000000000000000815260206004820152600f60248201527f5452414e534645525f4641494c4544000000000000000000000000000000000060448201526064016105ca565b505b50505050565b600081612201576040517f08c379a000000000000000000000000000000000000000000000000000000000815260206004820152600860248201527f4449565f5a45524f00000000000000000000000000000000000000000000000060448201526064016105ca565b670de0b6b3a7640000830283158061222f5750670de0b6b3a764000084828161222c5761222c612df1565b04145b612295576040517f08c379a000000000000000000000000000000000000000000000000000000000815260206004820152600c60248201527f4449565f494e5445524e414c000000000000000000000000000000000000000060448201526064016105ca565b60028304810181811015612305576040517f08c379a000000000000000000000000000000000000000000000000000000000815260206004820152600c60248201527f4449565f494e5445524e414c000000000000000000000000000000000000000060448201526064016105ca565b838181611ce057611ce0612df1565b73ffffffffffffffffffffffffffffffffffffffff821660009081526001602052604081208054839290612349908490612d32565b909155505060008054829003815560405182815273ffffffffffffffffffffffffffffffffffffffff8416907fddf252ad1be2c89b69c2b068fc378daa952ba7f163c4a11628f55a4df523b3ef906020015b60405180910390a35050565b806000808282546123b89190612cc9565b909155505073ffffffffffffffffffffffffffffffffffffffff82166000818152600160209081526040808320805486019055518481527fddf252ad1be2c89b69c2b068fc378daa952ba7f163c4a11628f55a4df523b3ef910161239b565b6000806124248786612198565b905060006124328588612d32565b905060006124408289612198565b9050600061245f8261245a670de0b6b3a764000087612198565b6125e9565b9050600061246d828d611bda565b9050600061247b828e612d32565b905060008861249288670de0b6b3a7640000612d32565b61249c9190612cf5565b90506124b48261070483670de0b6b3a7640000612d32565b9e9d5050505050505050505050505050565b6000826001111580156124f7575060016124e9670de0b6b3a76400006002612cf5565b6124f39190612d32565b8311155b61255d576040517f08c379a000000000000000000000000000000000000000000000000000000000815260206004820152600c60248201527f494e56414c49445f42415345000000000000000000000000000000000000000060448201526064016105ca565b6000670de0b6b3a76400006125728185612ce1565b61257c9190612cf5565b9050600061258a8285612d32565b905060006125a48661245a670de0b6b3a764000086612ce1565b9050816125af578093505b60006125d287846125cd6402540be400670de0b6b3a7640000612ce1565b612658565b90506125de8282611bda565b979650505050505050565b60006125f6600283612dae565b61260857670de0b6b3a764000061260a565b825b9050612617600283612ce1565b91505b811561263e5761262a8380612cf5565b9250612637600283612ce1565b915061261a565b612649600283612dae565b156109d057611e998382612cf5565b600082818061266f87670de0b6b3a7640000612748565b670de0b6b3a76400009550909250905083600060015b87831061273b5760006126a0670de0b6b3a764000083612cf5565b90506000806126c0896126bb670de0b6b3a764000086612d32565b612748565b915091506126d286610704848b611bda565b95506126de8684612198565b9550856126ed5750505061273b565b86156126f7579315935b8015612701579315935b841561271857612711868b612d32565b9950612725565b612722868b612cc9565b99505b505050808061273390612d75565b915050612685565b5050505050509392505050565b60008082841061275e5750508082036000612766565b505081810360015b9250929050565b8035801515811461277d57600080fd5b919050565b60006020828403121561279457600080fd5b8135611e9981612e7e565b600080600080600060a086880312156127b757600080fd5b85356127c281612e7e565b945060208601356127d281612e7e565b935060408601356127e281612e7e565b92506127f06060870161276d565b949793965091946080013592915050565b60008060008060008060c0878903121561281a57600080fd5b863561282581612e7e565b9550602087013561283581612e7e565b9450604087013561284581612e7e565b93506128536060880161276d565b92506080870135915060a087013567ffffffffffffffff8082111561287757600080fd5b818901915089601f83011261288b57600080fd5b81358181111561289d5761289d612e4f565b604051601f82017fffffffffffffffffffffffffffffffffffffffffffffffffffffffffffffffe0908116603f011681019083821181831017156128e3576128e3612e4f565b816040528281528c60208487010111156128fc57600080fd5b8260208601602083013760006020848301015280955050505050509295509295509295565b6000806000806080858703121561293757600080fd5b843561294281612e7e565b9350602085013561295281612e7e565b92506129606040860161276d565b9396929550929360600135925050565b60008060006060848603121561298557600080fd5b833561299081612e7e565b925061299e6020850161276d565b9150604084013590509250925092565b600080604083850312156129c157600080fd5b82356129cc81612e7e565b946020939093013593505050565b600080604083850312156129ed57600080fd5b82356129f881612e7e565b91506020830135612a0881612e7e565b809150509250929050565b600080600060608486031215612a2857600080fd5b8335612a3381612e7e565b92506020840135612a4381612e7e565b929592945050506040919091013590565b600080600080600080600060e0888a031215612a6f57600080fd5b8735612a7a81612e7e565b96506020880135612a8a81612e7e565b95506040880135945060608801359350608088013560ff81168114612aae57600080fd5b9699959850939692959460a0840135945060c09093013592915050565b60008060208385031215612ade57600080fd5b823567ffffffffffffffff80821115612af657600080fd5b818501915085601f830112612b0a57600080fd5b813581811115612b1957600080fd5b866020828501011115612b2b57600080fd5b60209290920196919550909350505050565b600060208284031215612b4f57600080fd5b5051919050565b600080600080600060a08688031215612b6e57600080fd5b505083359560208501359550604085013594606081013594506080013592509050565b60008151808452612ba9816020860160208601612d49565b601f017fffffffffffffffffffffffffffffffffffffffffffffffffffffffffffffffe0169290920160200192915050565b60008251612bed818460208701612d49565b9190910192915050565b6020808252825182820181905260009190848201906040850190845b81811015612c4557835173ffffffffffffffffffffffffffffffffffffffff1683529284019291840191600101612c13565b50909695505050505050565b602080825282518282018190526000919060409081850190868401855b82811015612ca9578151805173ffffffffffffffffffffffffffffffffffffffff168552860151868501529284019290850190600101612c6e565b5091979650505050505050565b602081526000611e996020830184612b91565b60008219821115612cdc57612cdc612dc2565b500190565b600082612cf057612cf0612df1565b500490565b6000817fffffffffffffffffffffffffffffffffffffffffffffffffffffffffffffffff0483118215151615612d2d57612d2d612dc2565b500290565b600082821015612d4457612d44612dc2565b500390565b60005b83811015612d64578181015183820152602001612d4c565b838111156121925750506000910152565b60007fffffffffffffffffffffffffffffffffffffffffffffffffffffffffffffffff821415612da757612da7612dc2565b5060010190565b600082612dbd57612dbd612df1565b500690565b7f4e487b7100000000000000000000000000000000000000000000000000000000600052601160045260246000fd5b7f4e487b7100000000000000000000000000000000000000000000000000000000600052601260045260246000fd5b7f4e487b7100000000000000000000000000000000000000000000000000000000600052603260045260246000fd5b7f4e487b7100000000000000000000000000000000000000000000000000000000600052604160045260246000fd5b73ffffffffffffffffffffffffffffffffffffffff81168114612ea057600080fd5b5056fea2646970667358221220ca28cc1174b4db1b62cbbc60a259b357b8aa4b6eff1802e3cc01fcb3140d127b64736f6c63430008060033a264697066735822122002fe4eeb075b4eedfad8f087f95730cce9a6add2fb7946dc62d115d200eadbeb64736f6c63430008060033",
  "devdoc": {
    "author": "Mudit Gupta",
    "kind": "dev",
    "methods": {},
    "version": 1
  },
  "userdoc": {
    "kind": "user",
    "methods": {},
    "notice": "Contract for deploying Trident exchange Index Pool with configurations.",
    "version": 1
  },
  "storageLayout": {
    "storage": [
      {
        "astId": 2312,
        "contract": "contracts/pool/IndexPoolFactory.sol:IndexPoolFactory",
        "label": "configAddress",
        "offset": 0,
        "slot": "0",
        "type": "t_mapping(t_bytes_memory_ptr,t_address)"
      }
    ],
    "types": {
      "t_address": {
        "encoding": "inplace",
        "label": "address",
        "numberOfBytes": "20"
      },
      "t_bytes_memory_ptr": {
        "encoding": "bytes",
        "label": "bytes",
        "numberOfBytes": "32"
      },
      "t_mapping(t_bytes_memory_ptr,t_address)": {
        "encoding": "mapping",
        "key": "t_bytes_memory_ptr",
        "label": "mapping(bytes => address)",
        "numberOfBytes": "32",
        "value": "t_address"
      }
    }
  }
}