{
  "address": "0x4bB038e775d74d76427878EAe1B5B0AcA78F23Fe",
  "abi": [
    {
      "inputs": [
        {
          "internalType": "bytes",
          "name": "_deployData",
          "type": "bytes"
        },
        {
          "internalType": "address",
          "name": "_masterDeployer",
          "type": "address"
        }
      ],
      "stateMutability": "nonpayable",
      "type": "constructor"
    },
    {
      "anonymous": false,
      "inputs": [
        {
          "indexed": true,
          "internalType": "address",
          "name": "owner",
          "type": "address"
        },
        {
          "indexed": true,
          "internalType": "address",
          "name": "spender",
          "type": "address"
        },
        {
          "indexed": false,
          "internalType": "uint256",
          "name": "amount",
          "type": "uint256"
        }
      ],
      "name": "Approval",
      "type": "event"
    },
    {
      "anonymous": false,
      "inputs": [
        {
          "indexed": true,
          "internalType": "address",
          "name": "sender",
          "type": "address"
        },
        {
          "indexed": false,
          "internalType": "uint256",
          "name": "amount0",
          "type": "uint256"
        },
        {
          "indexed": false,
          "internalType": "uint256",
          "name": "amount1",
          "type": "uint256"
        },
        {
          "indexed": true,
          "internalType": "address",
          "name": "recipient",
          "type": "address"
        }
      ],
      "name": "Burn",
      "type": "event"
    },
    {
      "anonymous": false,
      "inputs": [
        {
          "indexed": true,
          "internalType": "address",
          "name": "sender",
          "type": "address"
        },
        {
          "indexed": false,
          "internalType": "uint256",
          "name": "amount0",
          "type": "uint256"
        },
        {
          "indexed": false,
          "internalType": "uint256",
          "name": "amount1",
          "type": "uint256"
        },
        {
          "indexed": true,
          "internalType": "address",
          "name": "recipient",
          "type": "address"
        }
      ],
      "name": "Mint",
      "type": "event"
    },
    {
      "anonymous": false,
      "inputs": [
        {
          "indexed": true,
          "internalType": "address",
          "name": "recipient",
          "type": "address"
        },
        {
          "indexed": true,
          "internalType": "address",
          "name": "tokenIn",
          "type": "address"
        },
        {
          "indexed": true,
          "internalType": "address",
          "name": "tokenOut",
          "type": "address"
        },
        {
          "indexed": false,
          "internalType": "uint256",
          "name": "amountIn",
          "type": "uint256"
        },
        {
          "indexed": false,
          "internalType": "uint256",
          "name": "amountOut",
          "type": "uint256"
        }
      ],
      "name": "Swap",
      "type": "event"
    },
    {
      "anonymous": false,
      "inputs": [
        {
          "indexed": false,
          "internalType": "uint256",
          "name": "reserve0",
          "type": "uint256"
        },
        {
          "indexed": false,
          "internalType": "uint256",
          "name": "reserve1",
          "type": "uint256"
        }
      ],
      "name": "Sync",
      "type": "event"
    },
    {
      "anonymous": false,
      "inputs": [
        {
          "indexed": true,
          "internalType": "address",
          "name": "sender",
          "type": "address"
        },
        {
          "indexed": true,
          "internalType": "address",
          "name": "recipient",
          "type": "address"
        },
        {
          "indexed": false,
          "internalType": "uint256",
          "name": "amount",
          "type": "uint256"
        }
      ],
      "name": "Transfer",
      "type": "event"
    },
    {
      "inputs": [],
      "name": "DOMAIN_SEPARATOR",
      "outputs": [
        {
          "internalType": "bytes32",
          "name": "domainSeperator",
          "type": "bytes32"
        }
      ],
      "stateMutability": "view",
      "type": "function"
    },
    {
      "inputs": [],
      "name": "PERMIT_TYPEHASH",
      "outputs": [
        {
          "internalType": "bytes32",
          "name": "",
          "type": "bytes32"
        }
      ],
      "stateMutability": "view",
      "type": "function"
    },
    {
      "inputs": [
        {
          "internalType": "address",
          "name": "",
          "type": "address"
        },
        {
          "internalType": "address",
          "name": "",
          "type": "address"
        }
      ],
      "name": "allowance",
      "outputs": [
        {
          "internalType": "uint256",
          "name": "",
          "type": "uint256"
        }
      ],
      "stateMutability": "view",
      "type": "function"
    },
    {
      "inputs": [
        {
          "internalType": "address",
          "name": "spender",
          "type": "address"
        },
        {
          "internalType": "uint256",
          "name": "amount",
          "type": "uint256"
        }
      ],
      "name": "approve",
      "outputs": [
        {
          "internalType": "bool",
          "name": "",
          "type": "bool"
        }
      ],
      "stateMutability": "nonpayable",
      "type": "function"
    },
    {
      "inputs": [
        {
          "internalType": "address",
          "name": "",
          "type": "address"
        }
      ],
      "name": "balanceOf",
      "outputs": [
        {
          "internalType": "uint256",
          "name": "",
          "type": "uint256"
        }
      ],
      "stateMutability": "view",
      "type": "function"
    },
    {
      "inputs": [],
      "name": "barFee",
      "outputs": [
        {
          "internalType": "uint256",
          "name": "",
          "type": "uint256"
        }
      ],
      "stateMutability": "view",
      "type": "function"
    },
    {
      "inputs": [],
      "name": "barFeeTo",
      "outputs": [
        {
          "internalType": "address",
          "name": "",
          "type": "address"
        }
      ],
      "stateMutability": "view",
      "type": "function"
    },
    {
      "inputs": [],
      "name": "bento",
      "outputs": [
        {
          "internalType": "contract IBentoBoxMinimal",
          "name": "",
          "type": "address"
        }
      ],
      "stateMutability": "view",
      "type": "function"
    },
    {
      "inputs": [
        {
          "internalType": "bytes",
          "name": "data",
          "type": "bytes"
        }
      ],
      "name": "burn",
      "outputs": [
        {
          "components": [
            {
              "internalType": "address",
              "name": "token",
              "type": "address"
            },
            {
              "internalType": "uint256",
              "name": "amount",
              "type": "uint256"
            }
          ],
          "internalType": "struct IPool.TokenAmount[]",
          "name": "withdrawnAmounts",
          "type": "tuple[]"
        }
      ],
      "stateMutability": "nonpayable",
      "type": "function"
    },
    {
      "inputs": [
        {
          "internalType": "bytes",
          "name": "data",
          "type": "bytes"
        }
      ],
      "name": "burnSingle",
      "outputs": [
        {
          "internalType": "uint256",
          "name": "amountOut",
          "type": "uint256"
        }
      ],
      "stateMutability": "nonpayable",
      "type": "function"
    },
    {
      "inputs": [],
      "name": "decimals",
      "outputs": [
        {
          "internalType": "uint8",
          "name": "",
          "type": "uint8"
        }
      ],
      "stateMutability": "view",
      "type": "function"
    },
    {
      "inputs": [
        {
          "internalType": "bytes",
          "name": "data",
          "type": "bytes"
        }
      ],
      "name": "flashSwap",
      "outputs": [
        {
          "internalType": "uint256",
          "name": "amountOut",
          "type": "uint256"
        }
      ],
      "stateMutability": "nonpayable",
      "type": "function"
    },
    {
      "inputs": [
        {
          "internalType": "bytes",
          "name": "data",
          "type": "bytes"
        }
      ],
      "name": "getAmountOut",
      "outputs": [
        {
          "internalType": "uint256",
          "name": "finalAmountOut",
          "type": "uint256"
        }
      ],
      "stateMutability": "view",
      "type": "function"
    },
    {
      "inputs": [],
      "name": "getAssets",
      "outputs": [
        {
          "internalType": "address[]",
          "name": "assets",
          "type": "address[]"
        }
      ],
      "stateMutability": "view",
      "type": "function"
    },
    {
      "inputs": [],
      "name": "getReserves",
      "outputs": [
        {
          "internalType": "uint112",
          "name": "_reserve0",
          "type": "uint112"
        },
        {
          "internalType": "uint112",
          "name": "_reserve1",
          "type": "uint112"
        },
        {
          "internalType": "uint32",
          "name": "_blockTimestampLast",
          "type": "uint32"
        }
      ],
      "stateMutability": "view",
      "type": "function"
    },
    {
      "inputs": [],
      "name": "kLast",
      "outputs": [
        {
          "internalType": "uint256",
          "name": "",
          "type": "uint256"
        }
      ],
      "stateMutability": "view",
      "type": "function"
    },
    {
      "inputs": [],
      "name": "masterDeployer",
      "outputs": [
        {
          "internalType": "contract IMasterDeployer",
          "name": "",
          "type": "address"
        }
      ],
      "stateMutability": "view",
      "type": "function"
    },
    {
      "inputs": [
        {
          "internalType": "bytes",
          "name": "data",
          "type": "bytes"
        }
      ],
      "name": "mint",
      "outputs": [
        {
          "internalType": "uint256",
          "name": "liquidity",
          "type": "uint256"
        }
      ],
      "stateMutability": "nonpayable",
      "type": "function"
    },
    {
      "inputs": [],
      "name": "name",
      "outputs": [
        {
          "internalType": "string",
          "name": "",
          "type": "string"
        }
      ],
      "stateMutability": "view",
      "type": "function"
    },
    {
      "inputs": [
        {
          "internalType": "address",
          "name": "",
          "type": "address"
        }
      ],
      "name": "nonces",
      "outputs": [
        {
          "internalType": "uint256",
          "name": "",
          "type": "uint256"
        }
      ],
      "stateMutability": "view",
      "type": "function"
    },
    {
      "inputs": [
        {
          "internalType": "address",
          "name": "owner",
          "type": "address"
        },
        {
          "internalType": "address",
          "name": "spender",
          "type": "address"
        },
        {
          "internalType": "uint256",
          "name": "amount",
          "type": "uint256"
        },
        {
          "internalType": "uint256",
          "name": "deadline",
          "type": "uint256"
        },
        {
          "internalType": "uint8",
          "name": "v",
          "type": "uint8"
        },
        {
          "internalType": "bytes32",
          "name": "r",
          "type": "bytes32"
        },
        {
          "internalType": "bytes32",
          "name": "s",
          "type": "bytes32"
        }
      ],
      "name": "permit",
      "outputs": [],
      "stateMutability": "nonpayable",
      "type": "function"
    },
    {
      "inputs": [],
      "name": "poolIdentifier",
      "outputs": [
        {
          "internalType": "bytes32",
          "name": "",
          "type": "bytes32"
        }
      ],
      "stateMutability": "view",
      "type": "function"
    },
    {
      "inputs": [],
      "name": "price0CumulativeLast",
      "outputs": [
        {
          "internalType": "uint256",
          "name": "",
          "type": "uint256"
        }
      ],
      "stateMutability": "view",
      "type": "function"
    },
    {
      "inputs": [],
      "name": "price1CumulativeLast",
      "outputs": [
        {
          "internalType": "uint256",
          "name": "",
          "type": "uint256"
        }
      ],
      "stateMutability": "view",
      "type": "function"
    },
    {
      "inputs": [
        {
          "internalType": "bytes",
          "name": "data",
          "type": "bytes"
        }
      ],
      "name": "swap",
      "outputs": [
        {
          "internalType": "uint256",
          "name": "amountOut",
          "type": "uint256"
        }
      ],
      "stateMutability": "nonpayable",
      "type": "function"
    },
    {
      "inputs": [],
      "name": "swapFee",
      "outputs": [
        {
          "internalType": "uint256",
          "name": "",
          "type": "uint256"
        }
      ],
      "stateMutability": "view",
      "type": "function"
    },
    {
      "inputs": [],
      "name": "symbol",
      "outputs": [
        {
          "internalType": "string",
          "name": "",
          "type": "string"
        }
      ],
      "stateMutability": "view",
      "type": "function"
    },
    {
      "inputs": [],
      "name": "token0",
      "outputs": [
        {
          "internalType": "address",
          "name": "",
          "type": "address"
        }
      ],
      "stateMutability": "view",
      "type": "function"
    },
    {
      "inputs": [],
      "name": "token1",
      "outputs": [
        {
          "internalType": "address",
          "name": "",
          "type": "address"
        }
      ],
      "stateMutability": "view",
      "type": "function"
    },
    {
      "inputs": [],
      "name": "totalSupply",
      "outputs": [
        {
          "internalType": "uint256",
          "name": "",
          "type": "uint256"
        }
      ],
      "stateMutability": "view",
      "type": "function"
    },
    {
      "inputs": [
        {
          "internalType": "address",
          "name": "recipient",
          "type": "address"
        },
        {
          "internalType": "uint256",
          "name": "amount",
          "type": "uint256"
        }
      ],
      "name": "transfer",
      "outputs": [
        {
          "internalType": "bool",
          "name": "",
          "type": "bool"
        }
      ],
      "stateMutability": "nonpayable",
      "type": "function"
    },
    {
      "inputs": [
        {
          "internalType": "address",
          "name": "sender",
          "type": "address"
        },
        {
          "internalType": "address",
          "name": "recipient",
          "type": "address"
        },
        {
          "internalType": "uint256",
          "name": "amount",
          "type": "uint256"
        }
      ],
      "name": "transferFrom",
      "outputs": [
        {
          "internalType": "bool",
          "name": "",
          "type": "bool"
        }
      ],
      "stateMutability": "nonpayable",
      "type": "function"
    },
    {
      "inputs": [],
      "name": "updateBarFee",
      "outputs": [],
      "stateMutability": "nonpayable",
      "type": "function"
    }
  ],
  "transactionHash": "0xe5538bdadfd78afaf38401ea11e1c068a21a26a00ea189034a776217a7fe011c",
  "args": [
    "0x0000000000000000000000000d500b1d8e8ef31e21c99d1db9a6444d3adf12700000000000000000000000002791bca1f2de4661ed88a30c99a7a9449aa84174000000000000000000000000000000000000000000000000000000000000000a0000000000000000000000000000000000000000000000000000000000000000",
    "0x0558e2014283B32879769FFB0f0a77D377a5ed92"
  ],
  "solcInputHash": "4288bfa622499c4fc67d6bbe19253cbc",
  "bytecode": "0x6101a06040523480156200001257600080fd5b5060405162003f5838038062003f58833981016040819052620000359162000562565b4660805262000112604080518082018252600e81526d29bab9b434902628102a37b5b2b760911b6020918201528151808301835260018152603160f81b9082015281517f8b73c3c69bb8fe3d512ecc4cf759cc79239f7b179b0ffacaa9a75d522b39400f818301527fc2bf45081e840722410522aa366600d7fe4da5bfb5a5b417f4d5125b4ed180a4818401527fc89efdaa54c0f20c7adf612882df0950f5a951637e0307cdcb4c672f298b8bc660608201524660808201523060a0808301919091528351808303909101815260c0909101909252815191012090565b60a081815250506000806000808580602001905181019062000135919062000502565b929650909450925090506001600160a01b0384166200018a5760405162461bcd60e51b815260206004820152600c60248201526b5a45524f5f4144445245535360a01b60448201526064015b60405180910390fd5b826001600160a01b0316846001600160a01b03161415620001ee5760405162461bcd60e51b815260206004820152601360248201527f4944454e544943414c5f41444452455353455300000000000000000000000000604482015260640162000181565b6001600160a01b038416301415620002395760405162461bcd60e51b815260206004820152600d60248201526c24a72b20a624a22faa27a5a2a760991b604482015260640162000181565b6001600160a01b038316301415620002845760405162461bcd60e51b815260206004820152600d60248201526c24a72b20a624a22faa27a5a2a760991b604482015260640162000181565b612710821115620002cb5760405162461bcd60e51b815260206004820152601060248201526f494e56414c49445f535741505f46454560801b604482015260640162000181565b6001600160601b0319606085811b82166101605284901b166101805260c082905261271082900360e052604080516360a56c0160e11b815290516001600160a01b0387169163c14ad802916004808301926020929190829003018186803b1580156200033657600080fd5b505afa1580156200034b573d6000803e3d6000fd5b505050506040513d601f19601f8201168201806040525081019062000371919062000653565b600481905550846001600160a01b0316630c0a0cd26040518163ffffffff1660e01b815260040160206040518083038186803b158015620003b157600080fd5b505afa158015620003c6573d6000803e3d6000fd5b505050506040513d601f19601f82011682018060405250810190620003ec9190620004db565b6001600160a01b0316610100816001600160a01b031660601b81525050846001600160a01b0316634da318276040518163ffffffff1660e01b815260040160206040518083038186803b1580156200044357600080fd5b505afa15801562000458573d6000803e3d6000fd5b505050506040513d601f19601f820116820180604052508101906200047e9190620004db565b6001600160601b0319606091821b8116610120529086901b166101405260016009558015620004bd57600880546001600160e01b0316600160e01b1790555b5050505050506200069c565b8051620004d68162000683565b919050565b600060208284031215620004ee57600080fd5b8151620004fb8162000683565b9392505050565b600080600080608085870312156200051957600080fd5b8451620005268162000683565b6020860151909450620005398162000683565b60408601516060870151919450925080151581146200055757600080fd5b939692955090935050565b600080604083850312156200057657600080fd5b82516001600160401b03808211156200058e57600080fd5b818501915085601f830112620005a357600080fd5b815181811115620005b857620005b86200066d565b604051601f8201601f19908116603f01168101908382118183101715620005e357620005e36200066d565b816040528281526020935088848487010111156200060057600080fd5b600091505b8282101562000624578482018401518183018501529083019062000605565b82821115620006365760008484830101525b955062000648915050858201620004c9565b925050509250929050565b6000602082840312156200066657600080fd5b5051919050565b634e487b7160e01b600052604160045260246000fd5b6001600160a01b03811681146200069957600080fd5b50565b60805160a05160c05160e0516101005160601c6101205160601c6101405160601c6101605160601c6101805160601c613763620007f560003960008181610594015281816107ec0152818161091b015281816109c90152818161104c0152818161115401528181611555015281816115c40152818161180601528181611fbb01528181612042015261289301526000818161032e0152818161076801528181610aae01528181610bdd01528181611020015281816110eb01528181611501015281816116a50152818161179801528181611cda0152818161207b0152818161216601526127a901526000818161056d0152611bc20152600081816103da0152818161262d01528181612709015281816127dc01526128c40152600081816102e20152612cbe0152600061256b01526000818161040101528181612f6d0152612fd8015260006113640152600061123b01526137636000f3fe608060405234801561001057600080fd5b506004361061020b5760003560e01c8063627dd56a1161012a578063a69840a8116100bd578063c14ad8021161008c578063d21220a711610071578063d21220a71461058f578063d505accf146105b6578063dd62ed3e146105c957600080fd5b8063c14ad8021461055f578063cf58879a1461056857600080fd5b8063a69840a8146104ff578063a8f1f52e14610526578063a9059cbb14610539578063af8c09bf1461054c57600080fd5b80637ba0e2e7116100f95780637ba0e2e7146104865780637ecebe001461049957806392bc3219146104b957806395d89b41146104c357600080fd5b8063627dd56a1461043557806367e4ac2c1461044857806370a082311461045d5780637464fc3d1461047d57600080fd5b80632a07b6c7116101a25780634da31827116101715780634da31827146103d557806354cf2aeb146103fc5780635909c0d5146104235780635a3d54931461042c57600080fd5b80632a07b6c71461036c57806330adf81f1461038c578063313ce567146103b35780633644e515146103cd57600080fd5b80630c0a0cd2116101de5780630c0a0cd2146102dd5780630dfe16811461032957806318160ddd1461035057806323b872dd1461035957600080fd5b8063053da1c81461021057806306fdde03146102365780630902f1ac1461027f578063095ea7b3146102ba575b600080fd5b61022361021e366004613361565b6105f4565b6040519081526020015b60405180910390f35b6102726040518060400160405280600e81526020017f5375736869204c5020546f6b656e00000000000000000000000000000000000081525081565b60405161022d919061353a565b610287610c99565b604080516dffffffffffffffffffffffffffff948516815293909216602084015263ffffffff169082015260600161022d565b6102cd6102c8366004613244565b610d02565b604051901515815260200161022d565b6103047f000000000000000000000000000000000000000000000000000000000000000081565b60405173ffffffffffffffffffffffffffffffffffffffff909116815260200161022d565b6103047f000000000000000000000000000000000000000000000000000000000000000081565b61022360005481565b6102cd6103673660046132a9565b610d7b565b61037f61037a366004613361565b610ec7565b60405161022d91906134d5565b6102237f6e71edae12b1b97f4d1f60370fef10105fa2faae0126114a169c64845d6126c981565b6103bb601281565b60405160ff909116815260200161022d565b610223611237565b6103047f000000000000000000000000000000000000000000000000000000000000000081565b6102237f000000000000000000000000000000000000000000000000000000000000000081565b61022360055481565b61022360065481565b610223610443366004613361565b611386565b610450611776565b60405161022d919061347b565b61022361046b366004613095565b60016020526000908152604090205481565b61022360075481565b610223610494366004613361565b611875565b6102236104a7366004613095565b60036020526000908152604090205481565b6104c1611bc0565b005b6102726040518060400160405280600381526020017f534c50000000000000000000000000000000000000000000000000000000000081525081565b6102237f54726964656e743a436f6e7374616e7450726f6475637400000000000000000081565b610223610534366004613361565b611c63565b6102cd610547366004613244565b611d96565b61022361055a366004613361565b611e1b565b61022360045481565b6103047f000000000000000000000000000000000000000000000000000000000000000081565b6103047f000000000000000000000000000000000000000000000000000000000000000081565b6104c16105c43660046132ea565b612211565b6102236105d7366004613270565b600260209081526000928352604080842090915290825290205481565b6000600954600114610667576040517f08c379a000000000000000000000000000000000000000000000000000000000815260206004820152600660248201527f4c4f434b4544000000000000000000000000000000000000000000000000000060448201526064015b60405180910390fd5b600260095560008080808061067e87890189613100565b9450945094509450945060008060006106e66008546dffffffffffffffffffffffffffff808216926e01000000000000000000000000000083049091169163ffffffff7c01000000000000000000000000000000000000000000000000000000009091041690565b9250925092506000836dffffffffffffffffffffffffffff1611610766576040517f08c379a000000000000000000000000000000000000000000000000000000000815260206004820152601260248201527f504f4f4c5f554e494e495449414c495a45440000000000000000000000000000604482015260640161065e565b7f000000000000000000000000000000000000000000000000000000000000000073ffffffffffffffffffffffffffffffffffffffff168873ffffffffffffffffffffffffffffffffffffffff1614156109c7576107e585846dffffffffffffffffffffffffffff16846dffffffffffffffffffffffffffff16612563565b98506108137f00000000000000000000000000000000000000000000000000000000000000008a89896125c6565b6040517fbd50c7b1000000000000000000000000000000000000000000000000000000008152339063bd50c7b19061084f90879060040161353a565b600060405180830381600087803b15801561086957600080fd5b505af115801561087d573d6000803e3d6000fd5b5050505060008061088c61276c565b9150915086856dffffffffffffffffffffffffffff168303101561090c576040517f08c379a000000000000000000000000000000000000000000000000000000000815260206004820152601660248201527f494e53554646494349454e545f414d4f554e545f494e00000000000000000000604482015260640161065e565b6109198282878787612946565b7f000000000000000000000000000000000000000000000000000000000000000073ffffffffffffffffffffffffffffffffffffffff168a73ffffffffffffffffffffffffffffffffffffffff168a73ffffffffffffffffffffffffffffffffffffffff167fcd3829a3813dc3cdd188fd3d01dcf3268c16be2fdd2dd21d0665418816e460628a8f6040516109b8929190918252602082015260400190565b60405180910390a45050610c85565b7f000000000000000000000000000000000000000000000000000000000000000073ffffffffffffffffffffffffffffffffffffffff168873ffffffffffffffffffffffffffffffffffffffff1614610a7c576040517f08c379a000000000000000000000000000000000000000000000000000000000815260206004820152601360248201527f494e56414c49445f494e5055545f544f4b454e00000000000000000000000000604482015260640161065e565b610aa785836dffffffffffffffffffffffffffff16856dffffffffffffffffffffffffffff16612563565b9850610ad57f00000000000000000000000000000000000000000000000000000000000000008a89896125c6565b6040517fbd50c7b1000000000000000000000000000000000000000000000000000000008152339063bd50c7b190610b1190879060040161353a565b600060405180830381600087803b158015610b2b57600080fd5b505af1158015610b3f573d6000803e3d6000fd5b50505050600080610b4e61276c565b9150915086846dffffffffffffffffffffffffffff1682031015610bce576040517f08c379a000000000000000000000000000000000000000000000000000000000815260206004820152601660248201527f494e53554646494349454e545f414d4f554e545f494e00000000000000000000604482015260640161065e565b610bdb8282878787612946565b7f000000000000000000000000000000000000000000000000000000000000000073ffffffffffffffffffffffffffffffffffffffff168a73ffffffffffffffffffffffffffffffffffffffff168a73ffffffffffffffffffffffffffffffffffffffff167fcd3829a3813dc3cdd188fd3d01dcf3268c16be2fdd2dd21d0665418816e460628a8f604051610c7a929190918252602082015260400190565b60405180910390a450505b505060016009555094979650505050505050565b6000806000610cf76008546dffffffffffffffffffffffffffff808216926e01000000000000000000000000000083049091169163ffffffff7c01000000000000000000000000000000000000000000000000000000009091041690565b925092509250909192565b33600081815260026020908152604080832073ffffffffffffffffffffffffffffffffffffffff8716808552925280832085905551919290917f8c5be1e5ebec7d5bd14f71427d1e84f3dd0314c0f7b2291e5b200ac8c7c3b92590610d6a9086815260200190565b60405180910390a350600192915050565b73ffffffffffffffffffffffffffffffffffffffff831660009081526002602090815260408083203384529091528120547fffffffffffffffffffffffffffffffffffffffffffffffffffffffffffffffff14610e185773ffffffffffffffffffffffffffffffffffffffff8416600090815260026020908152604080832033845290915281208054849290610e129084906135e8565b90915550505b73ffffffffffffffffffffffffffffffffffffffff841660009081526001602052604081208054849290610e4d9084906135e8565b909155505073ffffffffffffffffffffffffffffffffffffffff808416600081815260016020526040908190208054860190555190918616907fddf252ad1be2c89b69c2b068fc378daa952ba7f163c4a11628f55a4df523b3ef90610eb59086815260200190565b60405180910390a35060019392505050565b6060600954600114610f35576040517f08c379a000000000000000000000000000000000000000000000000000000000815260206004820152600660248201527f4c4f434b45440000000000000000000000000000000000000000000000000000604482015260640161065e565b6002600955600080610f498486018661320f565b915091506000806000610fab6008546dffffffffffffffffffffffffffff808216926e01000000000000000000000000000083049091169163ffffffff7c01000000000000000000000000000000000000000000000000000000009091041690565b925092509250600080610fbc61276c565b30600090815260016020526040812054929450909250610fdc8787612c3a565b509050600081610fec86856135ab565b610ff69190613597565b905060008261100586866135ab565b61100f9190613597565b905061101b3085612cfa565b6110477f0000000000000000000000000000000000000000000000000000000000000000838d8d6125c6565b6110737f0000000000000000000000000000000000000000000000000000000000000000828d8d6125c6565b8186039550808503945061108a86868b8b8b612946565b61109c61109786886135ab565b612d8d565b6007556040805160028082526060820190925290816020015b60408051808201909152600080825260208201528152602001906001900390816110b5579050509b5060405180604001604052807f000000000000000000000000000000000000000000000000000000000000000073ffffffffffffffffffffffffffffffffffffffff168152602001838152508c60008151811061113c5761113c6136aa565b602002602001018190525060405180604001604052807f000000000000000000000000000000000000000000000000000000000000000073ffffffffffffffffffffffffffffffffffffffff168152602001828152508c6001815181106111a5576111a56136aa565b60200260200101819052508a73ffffffffffffffffffffffffffffffffffffffff163373ffffffffffffffffffffffffffffffffffffffff167fdccd412f0b1252819cb1fd330b93224ca42612892bb3f4f789976e6d819364968484604051611218929190918252602082015260400190565b60405180910390a35050600160095550979a9950505050505050505050565b60007f000000000000000000000000000000000000000000000000000000000000000046146113615750604080518082018252600e81527f5375736869204c5020546f6b656e00000000000000000000000000000000000060209182015281518083018352600181527f31000000000000000000000000000000000000000000000000000000000000009082015281517f8b73c3c69bb8fe3d512ecc4cf759cc79239f7b179b0ffacaa9a75d522b39400f818301527fc2bf45081e840722410522aa366600d7fe4da5bfb5a5b417f4d5125b4ed180a4818401527fc89efdaa54c0f20c7adf612882df0950f5a951637e0307cdcb4c672f298b8bc660608201524660808201523060a0808301919091528351808303909101815260c0909101909252815191012090565b507f000000000000000000000000000000000000000000000000000000000000000090565b60006009546001146113f4576040517f08c379a000000000000000000000000000000000000000000000000000000000815260206004820152600660248201527f4c4f434b45440000000000000000000000000000000000000000000000000000604482015260640161065e565b600260095560008080611409858701876130b9565b925092509250600080600061146d6008546dffffffffffffffffffffffffffff808216926e01000000000000000000000000000083049091169163ffffffff7c01000000000000000000000000000000000000000000000000000000009091041690565b9250925092506000836dffffffffffffffffffffffffffff16116114ed576040517f08c379a000000000000000000000000000000000000000000000000000000000815260206004820152601260248201527f504f4f4c5f554e494e495449414c495a45440000000000000000000000000000604482015260640161065e565b6000806114f861276c565b915091506000807f000000000000000000000000000000000000000000000000000000000000000073ffffffffffffffffffffffffffffffffffffffff168a73ffffffffffffffffffffffffffffffffffffffff1614156115c2577f00000000000000000000000000000000000000000000000000000000000000009050866dffffffffffffffffffffffffffff16840391506115b682886dffffffffffffffffffffffffffff16886dffffffffffffffffffffffffffff16612563565b9a508a830392506116de565b7f000000000000000000000000000000000000000000000000000000000000000073ffffffffffffffffffffffffffffffffffffffff168a73ffffffffffffffffffffffffffffffffffffffff1614611677576040517f08c379a000000000000000000000000000000000000000000000000000000000815260206004820152601360248201527f494e56414c49445f494e5055545f544f4b454e00000000000000000000000000604482015260640161065e565b50506008546dffffffffffffffffffffffffffff6e01000000000000000000000000000090910481168203907f0000000000000000000000000000000000000000000000000000000000000000906116d6908390888116908a16612563565b9a508a840393505b6116ea818c8b8b6125c6565b6116f78484898989612946565b8073ffffffffffffffffffffffffffffffffffffffff168a73ffffffffffffffffffffffffffffffffffffffff168a73ffffffffffffffffffffffffffffffffffffffff167fcd3829a3813dc3cdd188fd3d01dcf3268c16be2fdd2dd21d0665418816e46062858f604051610c7a929190918252602082015260400190565b60408051600280825260608083018452926020830190803683370190505090507f0000000000000000000000000000000000000000000000000000000000000000816000815181106117ca576117ca6136aa565b602002602001019073ffffffffffffffffffffffffffffffffffffffff16908173ffffffffffffffffffffffffffffffffffffffff16815250507f000000000000000000000000000000000000000000000000000000000000000081600181518110611838576118386136aa565b602002602001019073ffffffffffffffffffffffffffffffffffffffff16908173ffffffffffffffffffffffffffffffffffffffff168152505090565b60006009546001146118e3576040517f08c379a000000000000000000000000000000000000000000000000000000000815260206004820152600660248201527f4c4f434b45440000000000000000000000000000000000000000000000000000604482015260640161065e565b600260095560006118f683850185613095565b905060008060006119566008546dffffffffffffffffffffffffffff808216926e01000000000000000000000000000083049091169163ffffffff7c01000000000000000000000000000000000000000000000000000000009091041690565b92509250925060008061196761276c565b9092509050600061197b61109783856135ab565b905060006119996dffffffffffffffffffffffffffff8816856135e8565b905060006119b76dffffffffffffffffffffffffffff8816856135e8565b90506000806119e884848c6dffffffffffffffffffffffffffff168c6dffffffffffffffffffffffffffff16612f12565b90925090506119f7828b61354d565b9950611a03818a61354d565b9850600080611a128c8c612c3a565b915091508160001415611ab557600086118015611a2f5750600085115b611a95576040517f08c379a000000000000000000000000000000000000000000000000000000000815260206004820152600f60248201527f494e56414c49445f414d4f554e54530000000000000000000000000000000000604482015260640161065e565b611aa16103e8886135e8565b9d50611ab060006103e8613015565b611ad1565b80870381611ac384836135ab565b611acd9190613597565b9e50505b8d611b38576040517f08c379a000000000000000000000000000000000000000000000000000000000815260206004820152601d60248201527f494e53554646494349454e545f4c49515549444954595f4d494e544544000000604482015260640161065e565b611b428d8f613015565b611b4f89898e8e8e612946565b6007879055604080518781526020810187905273ffffffffffffffffffffffffffffffffffffffff8f169133917fdbba30eb0402b389513e87f51f4db2db80bed454384ec6925a24097c3548a02a910160405180910390a35050600160095550999c9b505050505050505050505050565b7f000000000000000000000000000000000000000000000000000000000000000073ffffffffffffffffffffffffffffffffffffffff1663c14ad8026040518163ffffffff1660e01b815260040160206040518083038186803b158015611c2657600080fd5b505afa158015611c3a573d6000803e3d6000fd5b505050506040513d601f19601f82011682018060405250810190611c5e91906133d3565b600455565b60008080611c7384860186613244565b91509150600080611cd36008546dffffffffffffffffffffffffffff808216926e01000000000000000000000000000083049091169163ffffffff7c01000000000000000000000000000000000000000000000000000000009091041690565b50915091507f000000000000000000000000000000000000000000000000000000000000000073ffffffffffffffffffffffffffffffffffffffff168473ffffffffffffffffffffffffffffffffffffffff161415611d5e57611d5783836dffffffffffffffffffffffffffff16836dffffffffffffffffffffffffffff16612563565b9450611d8c565b611d8983826dffffffffffffffffffffffffffff16846dffffffffffffffffffffffffffff16612563565b94505b5050505092915050565b33600090815260016020526040812080548391908390611db79084906135e8565b909155505073ffffffffffffffffffffffffffffffffffffffff8316600081815260016020526040908190208054850190555133907fddf252ad1be2c89b69c2b068fc378daa952ba7f163c4a11628f55a4df523b3ef90610d6a9086815260200190565b6000600954600114611e89576040517f08c379a000000000000000000000000000000000000000000000000000000000815260206004820152600660248201527f4c4f434b45440000000000000000000000000000000000000000000000000000604482015260640161065e565b600260095560008080611e9e858701876130b9565b9250925092506000806000611f026008546dffffffffffffffffffffffffffff808216926e01000000000000000000000000000083049091169163ffffffff7c01000000000000000000000000000000000000000000000000000000009091041690565b925092509250600080611f1361276c565b30600090815260016020526040812054929450909250611f338787612c3a565b509050600081611f4386856135ab565b611f4d9190613597565b9050600082611f5c86866135ab565b611f669190613597565b9050611f723085612cfa565b611fb3611f8f826dffffffffffffffffffffffffffff8b166135e8565b611fa9846dffffffffffffffffffffffffffff8d166135e8565b61109791906135ab565b6007819055507f000000000000000000000000000000000000000000000000000000000000000073ffffffffffffffffffffffffffffffffffffffff168c73ffffffffffffffffffffffffffffffffffffffff1614156120795761203c82838b6dffffffffffffffffffffffffffff1603838b6dffffffffffffffffffffffffffff1603612563565b016120697f0000000000000000000000000000000000000000000000000000000000000000828d8d6125c6565b9b5050918a90039160008b612199565b7f000000000000000000000000000000000000000000000000000000000000000073ffffffffffffffffffffffffffffffffffffffff168c73ffffffffffffffffffffffffffffffffffffffff161461212e576040517f08c379a000000000000000000000000000000000000000000000000000000000815260206004820152601460248201527f494e56414c49445f4f55545055545f544f4b454e000000000000000000000000604482015260640161065e565b61215d81828a6dffffffffffffffffffffffffffff1603848c6dffffffffffffffffffffffffffff1603612563565b8201915061218d7f0000000000000000000000000000000000000000000000000000000000000000838d8d6125c6565b509a50928a9003928a60005b6121a686868b8b8b612946565b604080518381526020810183905273ffffffffffffffffffffffffffffffffffffffff8d169133917fdccd412f0b1252819cb1fd330b93224ca42612892bb3f4f789976e6d81936496910160405180910390a35050600160095550989b9a5050505050505050505050565b4284101561227b576040517f08c379a000000000000000000000000000000000000000000000000000000000815260206004820152601760248201527f5045524d49545f444541444c494e455f45585049524544000000000000000000604482015260640161065e565b6000612285611237565b73ffffffffffffffffffffffffffffffffffffffff8916600090815260036020526040812080547f6e71edae12b1b97f4d1f60370fef10105fa2faae0126114a169c64845d6126c9928c928c928c929091906122e0836135ff565b9091555060408051602081019690965273ffffffffffffffffffffffffffffffffffffffff94851690860152929091166060840152608083015260a082015260c0810187905260e001604051602081830303815290604052805190602001206040516020016123819291907f190100000000000000000000000000000000000000000000000000000000000081526002810192909252602282015260420190565b604080517fffffffffffffffffffffffffffffffffffffffffffffffffffffffffffffffe08184030181528282528051602091820120600080855291840180845281905260ff88169284019290925260608301869052608083018590529092509060019060a0016020604051602081039080840390855afa15801561240a573d6000803e3d6000fd5b50506040517fffffffffffffffffffffffffffffffffffffffffffffffffffffffffffffffe0015191505073ffffffffffffffffffffffffffffffffffffffff81161580159061248557508873ffffffffffffffffffffffffffffffffffffffff168173ffffffffffffffffffffffffffffffffffffffff16145b6124eb576040517f08c379a000000000000000000000000000000000000000000000000000000000815260206004820152601860248201527f494e56414c49445f5045524d49545f5349474e41545552450000000000000000604482015260640161065e565b73ffffffffffffffffffffffffffffffffffffffff81811660009081526002602090815260408083208c8516808552908352928190208b9055518a815291928c16917f8c5be1e5ebec7d5bd14f71427d1e84f3dd0314c0f7b2291e5b200ac8c7c3b925910160405180910390a3505050505050505050565b6000806125907f0000000000000000000000000000000000000000000000000000000000000000866135ab565b90508061259f612710866135ab565b6125a9919061357f565b6125b384836135ab565b6125bd9190613597565b95945050505050565b80156126af576040517f97da6d3000000000000000000000000000000000000000000000000000000000815273ffffffffffffffffffffffffffffffffffffffff8581166004830152306024830152838116604483015260006064830152608482018590527f000000000000000000000000000000000000000000000000000000000000000016906397da6d309060a4016040805180830381600087803b15801561267057600080fd5b505af1158015612684573d6000803e3d6000fd5b505050506040513d601f19601f820116820180604052508101906126a891906133ec565b5050612766565b6040517ff18d03cc00000000000000000000000000000000000000000000000000000000815273ffffffffffffffffffffffffffffffffffffffff85811660048301523060248301528381166044830152606482018590527f0000000000000000000000000000000000000000000000000000000000000000169063f18d03cc90608401600060405180830381600087803b15801561274d57600080fd5b505af1158015612761573d6000803e3d6000fd5b505050505b50505050565b6040517ff7888aec00000000000000000000000000000000000000000000000000000000815273ffffffffffffffffffffffffffffffffffffffff7f00000000000000000000000000000000000000000000000000000000000000008116600483015230602483015260009182917f0000000000000000000000000000000000000000000000000000000000000000169063f7888aec9060440160206040518083038186803b15801561281e57600080fd5b505afa158015612832573d6000803e3d6000fd5b505050506040513d601f19601f8201168201806040525081019061285691906133d3565b6040517ff7888aec00000000000000000000000000000000000000000000000000000000815273ffffffffffffffffffffffffffffffffffffffff7f0000000000000000000000000000000000000000000000000000000000000000811660048301523060248301529193507f00000000000000000000000000000000000000000000000000000000000000009091169063f7888aec9060440160206040518083038186803b15801561290857600080fd5b505afa15801561291c573d6000803e3d6000fd5b505050506040513d601f19601f8201168201806040525081019061294091906133d3565b90509091565b6dffffffffffffffffffffffffffff851180159061297257506dffffffffffffffffffffffffffff8411155b6129d8576040517f08c379a000000000000000000000000000000000000000000000000000000000815260206004820152600860248201527f4f564552464c4f57000000000000000000000000000000000000000000000000604482015260640161065e565b63ffffffff8116612a3a57600880546dffffffffffffffffffffffffffff8681166e010000000000000000000000000000027fffffffff0000000000000000000000000000000000000000000000000000000090921690881617179055612bfa565b6000612a4b64010000000042613638565b90508163ffffffff168163ffffffff1614158015612a7857506dffffffffffffffffffffffffffff841615155b8015612a9357506dffffffffffffffffffffffffffff831615155b15612b585781810360006dffffffffffffffffffffffffffff86167bffffffffffffffffffffffffffff0000000000000000000000000000607087901b1681612ade57612ade61367b565b600580549290910463ffffffff851681029092019055905060006dffffffffffffffffffffffffffff8616607088901b7bffffffffffffffffffffffffffff00000000000000000000000000001681612b3957612b3961367b565b0490508263ffffffff1681026006600082825401925050819055505050505b6008805463ffffffff9092167c0100000000000000000000000000000000000000000000000000000000027bffffffffffffffffffffffffffffffffffffffffffffffffffffffff6dffffffffffffffffffffffffffff8881166e010000000000000000000000000000027fffffffff00000000000000000000000000000000000000000000000000000000909516908a161793909317929092169190911790555b60408051868152602081018690527fcf2aa50876cdfbb541206f89af0ee78d44a2abf8d328e37fa4917f982149848a910160405180910390a15050505050565b600080546007549091908015612cf257612c6a6110976dffffffffffffffffffffffffffff8087169088166135ab565b915080821115612cf2576000612710836004548486612c8991906135e8565b612c9390886135ab565b612c9d91906135ab565b612ca79190613597565b612cb19190613597565b90508015612cf057612ce37f000000000000000000000000000000000000000000000000000000000000000082613015565b612ced818561357f565b93505b505b509250929050565b73ffffffffffffffffffffffffffffffffffffffff821660009081526001602052604081208054839290612d2f9084906135e8565b909155505060008054829003815560405182815273ffffffffffffffffffffffffffffffffffffffff8416907fddf252ad1be2c89b69c2b068fc378daa952ba7f163c4a11628f55a4df523b3ef906020015b60405180910390a35050565b600081612d9c57506000919050565b8160017001000000000000000000000000000000008210612dc25760809190911c9060401b5b680100000000000000008210612ddd5760409190911c9060201b5b6401000000008210612df45760209190911c9060101b5b620100008210612e095760109190911c9060081b5b6101008210612e1d5760089190911c9060041b5b60108210612e305760049190911c9060021b5b60088210612e3c5760011b5b6001818581612e4d57612e4d61367b565b048201901c90506001818581612e6557612e6561367b565b048201901c90506001818581612e7d57612e7d61367b565b048201901c90506001818581612e9557612e9561367b565b048201901c90506001818581612ead57612ead61367b565b048201901c90506001818581612ec557612ec561367b565b048201901c90506001818581612edd57612edd61367b565b048201901c90506000818581612ef557612ef561367b565b049050808210612f055780612f07565b815b93505050505b919050565b600080831580612f20575082155b15612f305750600090508061300c565b600084612f3d85896135ab565b612f479190613597565b9050858111612fa257612f5d61271060026135ab565b612f6782886135e8565b612f91907f00000000000000000000000000000000000000000000000000000000000000006135ab565b612f9b9190613597565b915061300a565b600084612faf87896135ab565b612fb99190613597565b9050612fc861271060026135ab565b612fd2828a6135e8565b612ffc907f00000000000000000000000000000000000000000000000000000000000000006135ab565b6130069190613597565b9350505b505b94509492505050565b80600080828254613026919061357f565b909155505073ffffffffffffffffffffffffffffffffffffffff82166000818152600160209081526040808320805486019055518481527fddf252ad1be2c89b69c2b068fc378daa952ba7f163c4a11628f55a4df523b3ef9101612d81565b80358015158114612f0d57600080fd5b6000602082840312156130a757600080fd5b81356130b281613708565b9392505050565b6000806000606084860312156130ce57600080fd5b83356130d981613708565b925060208401356130e981613708565b91506130f760408501613085565b90509250925092565b600080600080600060a0868803121561311857600080fd5b853561312381613708565b9450602086013561313381613708565b935061314160408701613085565b925060608601359150608086013567ffffffffffffffff8082111561316557600080fd5b818801915088601f83011261317957600080fd5b81358181111561318b5761318b6136d9565b604051601f82017fffffffffffffffffffffffffffffffffffffffffffffffffffffffffffffffe0908116603f011681019083821181831017156131d1576131d16136d9565b816040528281528b60208487010111156131ea57600080fd5b8260208601602083013760006020848301015280955050505050509295509295909350565b6000806040838503121561322257600080fd5b823561322d81613708565b915061323b60208401613085565b90509250929050565b6000806040838503121561325757600080fd5b823561326281613708565b946020939093013593505050565b6000806040838503121561328357600080fd5b823561328e81613708565b9150602083013561329e81613708565b809150509250929050565b6000806000606084860312156132be57600080fd5b83356132c981613708565b925060208401356132d981613708565b929592945050506040919091013590565b600080600080600080600060e0888a03121561330557600080fd5b873561331081613708565b9650602088013561332081613708565b95506040880135945060608801359350608088013560ff8116811461334457600080fd5b9699959850939692959460a0840135945060c09093013592915050565b6000806020838503121561337457600080fd5b823567ffffffffffffffff8082111561338c57600080fd5b818501915085601f8301126133a057600080fd5b8135818111156133af57600080fd5b8660208285010111156133c157600080fd5b60209290920196919550909350505050565b6000602082840312156133e557600080fd5b5051919050565b600080604083850312156133ff57600080fd5b505080516020909101519092909150565b6000815180845260005b818110156134365760208185018101518683018201520161341a565b81811115613448576000602083870101525b50601f017fffffffffffffffffffffffffffffffffffffffffffffffffffffffffffffffe0169290920160200192915050565b6020808252825182820181905260009190848201906040850190845b818110156134c957835173ffffffffffffffffffffffffffffffffffffffff1683529284019291840191600101613497565b50909695505050505050565b602080825282518282018190526000919060409081850190868401855b8281101561352d578151805173ffffffffffffffffffffffffffffffffffffffff1685528601518685015292840192908501906001016134f2565b5091979650505050505050565b6020815260006130b26020830184613410565b60006dffffffffffffffffffffffffffff8083168185168083038211156135765761357661364c565b01949350505050565b600082198211156135925761359261364c565b500190565b6000826135a6576135a661367b565b500490565b6000817fffffffffffffffffffffffffffffffffffffffffffffffffffffffffffffffff04831182151516156135e3576135e361364c565b500290565b6000828210156135fa576135fa61364c565b500390565b60007fffffffffffffffffffffffffffffffffffffffffffffffffffffffffffffffff8214156136315761363161364c565b5060010190565b6000826136475761364761367b565b500690565b7f4e487b7100000000000000000000000000000000000000000000000000000000600052601160045260246000fd5b7f4e487b7100000000000000000000000000000000000000000000000000000000600052601260045260246000fd5b7f4e487b7100000000000000000000000000000000000000000000000000000000600052603260045260246000fd5b7f4e487b7100000000000000000000000000000000000000000000000000000000600052604160045260246000fd5b73ffffffffffffffffffffffffffffffffffffffff8116811461372a57600080fd5b5056fea2646970667358221220d8f37d2974a98b7ab2b885d3cd3ffd80d149fe9df39c4a8dc700d5a23ab3cb8664736f6c63430008070033",
  "devdoc": {
    "details": "The reserves are stored as bento shares.      The curve is applied to shares as well. This pool does not care about the underlying amounts.",
    "kind": "dev",
    "methods": {
      "approve(address,uint256)": {
        "params": {
          "amount": "The maximum collective `amount` that `spender` can pull.",
          "spender": "Address of the party that can pull tokens from `msg.sender`'s account."
        },
        "returns": {
          "_0": "(bool) Returns 'true' if succeeded."
        }
      },
      "burn(bytes)": {
        "details": "Burns LP tokens sent to this contract. The router must ensure that the user gets sufficient output tokens."
      },
      "burnSingle(bytes)": {
        "details": "Burns LP tokens sent to this contract and swaps one of the output tokens for another - i.e., the user gets a single token out by burning LP tokens."
      },
      "flashSwap(bytes)": {
        "details": "Swaps one token for another. The router must support swap callbacks and ensure there isn't too much slippage."
      },
      "getAmountOut(bytes)": {
        "details": "The pool does not need to include a trade simulator directly in itself - it can use a library.",
        "params": {
          "data": "ABI-encoded params that the pool requires."
        },
        "returns": {
          "finalAmountOut": "The amount of output tokens that will be sent to the user if the trade is executed."
        }
      },
      "getAssets()": {
        "returns": {
          "assets": "An array of tokens supported by the pool."
        }
      },
      "mint(bytes)": {
        "details": "Mints LP tokens - should be called via the router after transferring `bento` tokens. The router must ensure that sufficient LP tokens are minted by using the return value."
      },
      "permit(address,address,uint256,uint256,uint8,bytes32,bytes32)": {
        "params": {
          "amount": "The number of tokens that are approved (2^256-1 means infinite).",
          "deadline": "The time at which to expire the signature.",
          "owner": "The address to approve from.",
          "r": "Half of the ECDSA signature pair.",
          "s": "Half of the ECDSA signature pair.",
          "spender": "The address to be approved.",
          "v": "The recovery byte of the signature."
        }
      },
      "swap(bytes)": {
        "details": "Swaps one token for another. The router must prefund this contract and ensure there isn't too much slippage."
      },
      "transfer(address,uint256)": {
        "params": {
          "amount": "The token `amount` to move.",
          "recipient": "The address to move tokens to."
        },
        "returns": {
          "_0": "(bool) Returns 'true' if succeeded."
        }
      },
      "transferFrom(address,address,uint256)": {
        "params": {
          "amount": "The token `amount` to move.",
          "recipient": "The address to move tokens to.",
          "sender": "Address to pull tokens `from`."
        },
        "returns": {
          "_0": "(bool) Returns 'true' if succeeded."
        }
      },
      "updateBarFee()": {
        "details": "Updates `barFee` for Trident protocol."
      }
    },
    "stateVariables": {
      "poolIdentifier": {
        "return": "A unique identifier for the pool type.",
        "returns": {
          "_0": "A unique identifier for the pool type."
        }
      }
    },
    "version": 1
  },
  "userdoc": {
    "kind": "user",
    "methods": {
      "DOMAIN_SEPARATOR()": {
        "notice": "EIP-712 typehash for this contract's domain."
      },
      "PERMIT_TYPEHASH()": {
        "notice": "EIP-712 typehash for this contract's {permit} struct."
      },
      "allowance(address,address)": {
        "notice": "owner -> spender -> allowance mapping."
      },
      "approve(address,uint256)": {
        "notice": "Approves `amount` from `msg.sender` to be spent by `spender`."
      },
      "balanceOf(address)": {
        "notice": "owner -> balance mapping."
      },
      "getAmountOut(bytes)": {
        "notice": "Simulates a trade and returns the expected output."
      },
      "nonces(address)": {
        "notice": "owner -> nonce mapping used in {permit}."
      },
      "permit(address,address,uint256,uint256,uint8,bytes32,bytes32)": {
        "notice": "Triggers an approval from `owner` to `spender`."
      },
      "transfer(address,uint256)": {
        "notice": "Transfers `amount` tokens from `msg.sender` to `recipient`."
      },
      "transferFrom(address,address,uint256)": {
        "notice": "Transfers `amount` tokens from `sender` to `recipient`. Caller needs approval from `from`."
      }
    },
    "notice": "Trident exchange pool template with constant product formula for swapping between an ERC-20 token pair.",
    "version": 1
  },
  "storageLayout": {
    "storage": [
      {
        "astId": 8096,
        "contract": "contracts/pool/ConstantProductPool.sol:ConstantProductPool",
        "label": "totalSupply",
        "offset": 0,
        "slot": "0",
        "type": "t_uint256"
      },
      {
        "astId": 8101,
        "contract": "contracts/pool/ConstantProductPool.sol:ConstantProductPool",
        "label": "balanceOf",
        "offset": 0,
        "slot": "1",
        "type": "t_mapping(t_address,t_uint256)"
      },
      {
        "astId": 8108,
        "contract": "contracts/pool/ConstantProductPool.sol:ConstantProductPool",
        "label": "allowance",
        "offset": 0,
        "slot": "2",
        "type": "t_mapping(t_address,t_mapping(t_address,t_uint256))"
      },
      {
        "astId": 8125,
        "contract": "contracts/pool/ConstantProductPool.sol:ConstantProductPool",
        "label": "nonces",
        "offset": 0,
        "slot": "3",
        "type": "t_mapping(t_address,t_uint256)"
      },
      {
        "astId": 2352,
        "contract": "contracts/pool/ConstantProductPool.sol:ConstantProductPool",
        "label": "barFee",
        "offset": 0,
        "slot": "4",
        "type": "t_uint256"
      },
      {
        "astId": 2354,
        "contract": "contracts/pool/ConstantProductPool.sol:ConstantProductPool",
        "label": "price0CumulativeLast",
        "offset": 0,
        "slot": "5",
        "type": "t_uint256"
      },
      {
        "astId": 2356,
        "contract": "contracts/pool/ConstantProductPool.sol:ConstantProductPool",
        "label": "price1CumulativeLast",
        "offset": 0,
        "slot": "6",
        "type": "t_uint256"
      },
      {
        "astId": 2358,
        "contract": "contracts/pool/ConstantProductPool.sol:ConstantProductPool",
        "label": "kLast",
        "offset": 0,
        "slot": "7",
        "type": "t_uint256"
      },
      {
        "astId": 2360,
        "contract": "contracts/pool/ConstantProductPool.sol:ConstantProductPool",
        "label": "reserve0",
        "offset": 0,
        "slot": "8",
        "type": "t_uint112"
      },
      {
        "astId": 2362,
        "contract": "contracts/pool/ConstantProductPool.sol:ConstantProductPool",
        "label": "reserve1",
        "offset": 14,
        "slot": "8",
        "type": "t_uint112"
      },
      {
        "astId": 2364,
        "contract": "contracts/pool/ConstantProductPool.sol:ConstantProductPool",
        "label": "blockTimestampLast",
        "offset": 28,
        "slot": "8",
        "type": "t_uint32"
      },
      {
        "astId": 2370,
        "contract": "contracts/pool/ConstantProductPool.sol:ConstantProductPool",
        "label": "unlocked",
        "offset": 0,
        "slot": "9",
        "type": "t_uint256"
      }
    ],
    "types": {
      "t_address": {
        "encoding": "inplace",
        "label": "address",
        "numberOfBytes": "20"
      },
      "t_mapping(t_address,t_mapping(t_address,t_uint256))": {
        "encoding": "mapping",
        "key": "t_address",
        "label": "mapping(address => mapping(address => uint256))",
        "numberOfBytes": "32",
        "value": "t_mapping(t_address,t_uint256)"
      },
      "t_mapping(t_address,t_uint256)": {
        "encoding": "mapping",
        "key": "t_address",
        "label": "mapping(address => uint256)",
        "numberOfBytes": "32",
        "value": "t_uint256"
      },
      "t_uint112": {
        "encoding": "inplace",
        "label": "uint112",
        "numberOfBytes": "14"
      },
      "t_uint256": {
        "encoding": "inplace",
        "label": "uint256",
        "numberOfBytes": "32"
      },
      "t_uint32": {
        "encoding": "inplace",
        "label": "uint32",
        "numberOfBytes": "4"
      }
    }
  }
}