{
  "address": "0x05689fCfeE31FCe4a67FbC7Cab13E74F80A4E288",
  "abi": [
    {
      "inputs": [
        {
          "internalType": "address",
          "name": "_masterDeployer",
          "type": "address"
        }
      ],
      "stateMutability": "nonpayable",
      "type": "constructor"
    },
    {
      "inputs": [],
      "name": "InvalidTokenOrder",
      "type": "error"
    },
    {
      "inputs": [],
      "name": "UnauthorisedDeployer",
      "type": "error"
    },
    {
      "inputs": [],
      "name": "ZeroAddress",
      "type": "error"
    },
    {
      "inputs": [
        {
          "internalType": "bytes32",
          "name": "",
          "type": "bytes32"
        }
      ],
      "name": "configAddress",
      "outputs": [
        {
          "internalType": "address",
          "name": "",
          "type": "address"
        }
      ],
      "stateMutability": "view",
      "type": "function"
    },
    {
      "inputs": [
        {
          "internalType": "bytes",
          "name": "_deployData",
          "type": "bytes"
        }
      ],
      "name": "deployPool",
      "outputs": [
        {
          "internalType": "address",
          "name": "pool",
          "type": "address"
        }
      ],
      "stateMutability": "nonpayable",
      "type": "function"
    },
    {
      "inputs": [
        {
          "internalType": "address",
          "name": "token0",
          "type": "address"
        },
        {
          "internalType": "address",
          "name": "token1",
          "type": "address"
        },
        {
          "internalType": "uint256",
          "name": "startIndex",
          "type": "uint256"
        },
        {
          "internalType": "uint256",
          "name": "count",
          "type": "uint256"
        }
      ],
      "name": "getPools",
      "outputs": [
        {
          "internalType": "address[]",
          "name": "pairPools",
          "type": "address[]"
        }
      ],
      "stateMutability": "view",
      "type": "function"
    },
    {
      "inputs": [],
      "name": "masterDeployer",
      "outputs": [
        {
          "internalType": "address",
          "name": "",
          "type": "address"
        }
      ],
      "stateMutability": "view",
      "type": "function"
    },
    {
      "inputs": [
        {
          "internalType": "address",
          "name": "",
          "type": "address"
        },
        {
          "internalType": "address",
          "name": "",
          "type": "address"
        },
        {
          "internalType": "uint256",
          "name": "",
          "type": "uint256"
        }
      ],
      "name": "pools",
      "outputs": [
        {
          "internalType": "address",
          "name": "",
          "type": "address"
        }
      ],
      "stateMutability": "view",
      "type": "function"
    },
    {
      "inputs": [
        {
          "internalType": "address",
          "name": "token0",
          "type": "address"
        },
        {
          "internalType": "address",
          "name": "token1",
          "type": "address"
        }
      ],
      "name": "poolsCount",
      "outputs": [
        {
          "internalType": "uint256",
          "name": "count",
          "type": "uint256"
        }
      ],
      "stateMutability": "view",
      "type": "function"
    }
  ],
  "transactionHash": "0xa643b6833a2c74213f9ee2a9b7e8746e8fe92d2da4326990344e0519cfc062d0",
  "args": [
    "0x351447fc9bd20A917783E159e61E86EDDA0b0187"
  ],
  "numDeployments": 1,
  "solcInputHash": "a791399fbaf65505c5865b104243762c",
  "bytecode": "0x60a060405234801561001057600080fd5b5060405161514a38038061514a83398101604081905261002f91610069565b806001600160a01b0381166100575760405163d92e233d60e01b815260040160405180910390fd5b6001600160a01b031660805250610099565b60006020828403121561007b57600080fd5b81516001600160a01b038116811461009257600080fd5b9392505050565b6080516150886100c26000396000818161015a0152818161038d015261054201526150886000f3fe60806040523480156200001157600080fd5b50600436106200007b5760003560e01c806371a25812116200005657806371a25812146200012e578063cf58879a1462000154578063f6ab6d99146200017c57600080fd5b8063169c4cef146200008057806327c3cae114620000c15780635bc93d6c14620000d8575b600080fd5b6200009762000091366004620008c0565b620001b5565b60405173ffffffffffffffffffffffffffffffffffffffff90911681526020015b60405180910390f35b62000097620000d236600462000935565b62000208565b6200011f620000e936600462000a0e565b73ffffffffffffffffffffffffffffffffffffffff91821660009081526020818152604080832093909416825291909152205490565b604051908152602001620000b8565b620001456200013f36600462000a4c565b62000401565b604051620000b8919062000a97565b620000977f000000000000000000000000000000000000000000000000000000000000000081565b620000976200018d36600462000af3565b60016020526000908152604090205473ffffffffffffffffffffffffffffffffffffffff1681565b60006020528260005260406000206020528160005260406000208181548110620001de57600080fd5b60009182526020909120015473ffffffffffffffffffffffffffffffffffffffff16925083915050565b60008060008060008580602001905181019062000226919062000b0d565b93509350935093508273ffffffffffffffffffffffffffffffffffffffff168473ffffffffffffffffffffffffffffffffffffffff16111562000267579192915b6040805173ffffffffffffffffffffffffffffffffffffffff808716602083015285169181019190915260608101839052811515608082015260a001604080518083037fffffffffffffffffffffffffffffffffffffffffffffffffffffffffffffffe0018152600280845260608401909252975060009190816020016020820280368337019050509050848160008151811062000309576200030962000b6d565b602002602001019073ffffffffffffffffffffffffffffffffffffffff16908173ffffffffffffffffffffffffffffffffffffffff168152505083816001815181106200035a576200035a62000b6d565b73ffffffffffffffffffffffffffffffffffffffff909216602092830291909101820152875190880120604051819089907f000000000000000000000000000000000000000000000000000000000000000090620003b8906200088c565b620003c592919062000b9c565b8190604051809103906000f5905080158015620003e6573d6000803e3d6000fd5b509650620003f68783836200052a565b505050505050919050565b60608167ffffffffffffffff8111156200041f576200041f62000906565b60405190808252806020026020018201604052801562000449578160200160208202803683370190505b50905060005b82811015620005215773ffffffffffffffffffffffffffffffffffffffff80871660009081526020818152604080832093891683529290522062000494828662000c5f565b81548110620004a757620004a762000b6d565b9060005260206000200160009054906101000a900473ffffffffffffffffffffffffffffffffffffffff16828281518110620004e757620004e762000b6d565b73ffffffffffffffffffffffffffffffffffffffff9092166020928302919091019091015280620005188162000c7a565b9150506200044f565b50949350505050565b3373ffffffffffffffffffffffffffffffffffffffff7f000000000000000000000000000000000000000000000000000000000000000016146200059a576040517f03781a5300000000000000000000000000000000000000000000000000000000815260040160405180910390fd5b600081815260016020526040812080547fffffffffffffffffffffffff00000000000000000000000000000000000000001673ffffffffffffffffffffffffffffffffffffffff86161790555b600183510381101562000886578281600101815181106200060c576200060c62000b6d565b602002602001015173ffffffffffffffffffffffffffffffffffffffff168382815181106200063f576200063f62000b6d565b602002602001015173ffffffffffffffffffffffffffffffffffffffff161062000695576040517f3f06bf8100000000000000000000000000000000000000000000000000000000815260040160405180910390fd5b600181015b83518110156200087c57600080858481518110620006bc57620006bc62000b6d565b602002602001015173ffffffffffffffffffffffffffffffffffffffff1673ffffffffffffffffffffffffffffffffffffffff168152602001908152602001600020600085838151811062000715576200071562000b6d565b60209081029190910181015173ffffffffffffffffffffffffffffffffffffffff90811683528282019390935260409091016000908120805460018101825590825291812090910180547fffffffffffffffffffffffff0000000000000000000000000000000000000000169288169290921790915584518190869084908110620007a457620007a462000b6d565b602002602001015173ffffffffffffffffffffffffffffffffffffffff1673ffffffffffffffffffffffffffffffffffffffff1681526020019081526020016000206000858481518110620007fd57620007fd62000b6d565b60209081029190910181015173ffffffffffffffffffffffffffffffffffffffff908116835282820193909352604090910160009081208054600180820183559183529290912090910180547fffffffffffffffffffffffff00000000000000000000000000000000000000001692881692909217909155016200069a565b50600101620005e7565b50505050565b61439c8062000cb783390190565b73ffffffffffffffffffffffffffffffffffffffff81168114620008bd57600080fd5b50565b600080600060608486031215620008d657600080fd5b8335620008e3816200089a565b92506020840135620008f5816200089a565b929592945050506040919091013590565b7f4e487b7100000000000000000000000000000000000000000000000000000000600052604160045260246000fd5b6000602082840312156200094857600080fd5b813567ffffffffffffffff808211156200096157600080fd5b818401915084601f8301126200097657600080fd5b8135818111156200098b576200098b62000906565b604051601f82017fffffffffffffffffffffffffffffffffffffffffffffffffffffffffffffffe0908116603f01168101908382118183101715620009d457620009d462000906565b81604052828152876020848701011115620009ee57600080fd5b826020860160208301376000928101602001929092525095945050505050565b6000806040838503121562000a2257600080fd5b823562000a2f816200089a565b9150602083013562000a41816200089a565b809150509250929050565b6000806000806080858703121562000a6357600080fd5b843562000a70816200089a565b9350602085013562000a82816200089a565b93969395505050506040820135916060013590565b6020808252825182820181905260009190848201906040850190845b8181101562000ae757835173ffffffffffffffffffffffffffffffffffffffff168352928401929184019160010162000ab3565b50909695505050505050565b60006020828403121562000b0657600080fd5b5035919050565b6000806000806080858703121562000b2457600080fd5b845162000b31816200089a565b602086015190945062000b44816200089a565b604086015160608701519194509250801515811462000b6257600080fd5b939692955090935050565b7f4e487b7100000000000000000000000000000000000000000000000000000000600052603260045260246000fd5b604081526000835180604084015260005b8181101562000bcc576020818701810151606086840101520162000bad565b8181111562000bdf576000606083860101525b5073ffffffffffffffffffffffffffffffffffffffff93909316602083015250601f919091017fffffffffffffffffffffffffffffffffffffffffffffffffffffffffffffffe01601606001919050565b7f4e487b7100000000000000000000000000000000000000000000000000000000600052601160045260246000fd5b6000821982111562000c755762000c7562000c30565b500190565b60007fffffffffffffffffffffffffffffffffffffffffffffffffffffffffffffffff82141562000caf5762000caf62000c30565b506001019056fe6101c060405260016006553480156200001757600080fd5b506040516200439c3803806200439c8339810160408190526200003a91620004a9565b604080518082018252600e81526d29bab9b434902628102a37b5b2b760911b6020808301918252835180850190945260038452620534c560ec1b9084015281519192916012916200008f9160009190620003c2565b508151620000a5906001906020850190620003c2565b5060ff81166080524660a052620000bb62000326565b60c0818152505050505060008060008085806020019051810190620000e191906200059a565b929650909450925090506001600160a01b038416620001135760405163d92e233d60e01b815260040160405180910390fd5b826001600160a01b0316846001600160a01b03161415620001475760405163065af08d60e01b815260040160405180910390fd5b6127108211156200016b5760405163da7459b760e01b815260040160405180910390fd5b6001600160a01b03808516610180528381166101a05260e083905261271083900361010052604080516360a56c0160e11b815290519187169163c14ad802916004808201926020929091908290030181865afa158015620001d0573d6000803e3d6000fd5b505050506040513d601f19601f82011682018060405250810190620001f69190620005fa565b600781905550846001600160a01b0316630c0a0cd26040518163ffffffff1660e01b8152600401602060405180830381865afa1580156200023b573d6000803e3d6000fd5b505050506040513d601f19601f8201168201806040525081019062000261919062000614565b6001600160a01b0316610120816001600160a01b031681525050846001600160a01b0316634da318276040518163ffffffff1660e01b8152600401602060405180830381865afa158015620002ba573d6000803e3d6000fd5b505050506040513d601f19601f82011682018060405250810190620002e0919062000614565b6001600160a01b039081166101405285166101605280156200031a57600b80546001600160e01b0316600160e01b4263ffffffff16021790555b5050505050506200071c565b60007f8b73c3c69bb8fe3d512ecc4cf759cc79239f7b179b0ffacaa9a75d522b39400f60006040516200035a919062000678565b6040805191829003822060208301939093528101919091527fc89efdaa54c0f20c7adf612882df0950f5a951637e0307cdcb4c672f298b8bc660608201524660808201523060a082015260c00160405160208183030381529060405280519060200120905090565b828054620003d0906200063b565b90600052602060002090601f016020900481019282620003f457600085556200043f565b82601f106200040f57805160ff19168380011785556200043f565b828001600101855582156200043f579182015b828111156200043f57825182559160200191906001019062000422565b506200044d92915062000451565b5090565b5b808211156200044d576000815560010162000452565b634e487b7160e01b600052604160045260246000fd5b6001600160a01b03811681146200049457600080fd5b50565b8051620004a4816200047e565b919050565b60008060408385031215620004bd57600080fd5b82516001600160401b0380821115620004d557600080fd5b818501915085601f830112620004ea57600080fd5b815181811115620004ff57620004ff62000468565b604051601f8201601f19908116603f011681019083821181831017156200052a576200052a62000468565b816040528281526020935088848487010111156200054757600080fd5b600091505b828210156200056b57848201840151818301850152908301906200054c565b828211156200057d5760008484830101525b95506200058f91505085820162000497565b925050509250929050565b60008060008060808587031215620005b157600080fd5b8451620005be816200047e565b6020860151909450620005d1816200047e565b6040860151606087015191945092508015158114620005ef57600080fd5b939692955090935050565b6000602082840312156200060d57600080fd5b5051919050565b6000602082840312156200062757600080fd5b815162000634816200047e565b9392505050565b600181811c908216806200065057607f821691505b602082108114156200067257634e487b7160e01b600052602260045260246000fd5b50919050565b600080835481600182811c9150808316806200069557607f831692505b6020808410821415620006b657634e487b7160e01b86526022600452602486fd5b818015620006cd5760018114620006df576200070e565b60ff198616895284890196506200070e565b60008a81526020902060005b86811015620007065781548b820152908501908301620006eb565b505084890196505b509498975050505050505050565b60805160a05160c05160e05161010051610120516101405161016051610180516101a051613af3620008a9600039600081816105bd015281816107e6015281816108e5015281816109930152818161103c01528181611144015281816112f9015281816115da015281816116490152818161196101528181611ab101528181611f9e0152818161227f015281816123060152612ae90152600081816103300152818161076201528181610a4801528181610b4701528181611010015281816110db0152818161137f01528181611586015281816116fa0152818161186a01528181611a4301528181611f1f0152818161233b015281816123f60152612a0e0152600081816105960152611e0901526000818161040e015281816118b7015281816119a9015281816128a10152818161296e01528181612a410152612b1a0152600081816102e40152612ee10152600081816127df015261313a015260008181610435015281816131fc0152613267015260006112600152600061122b015260006103ba0152613af36000f3fe608060405234801561001057600080fd5b50600436106102415760003560e01c8063627dd56a11610145578063a69840a8116100bd578063c14ad8021161008c578063d21220a711610071578063d21220a7146105b8578063d505accf146105df578063dd62ed3e146105f257600080fd5b8063c14ad80214610588578063cf58879a1461059157600080fd5b8063a69840a814610528578063a8f1f52e1461054f578063a9059cbb14610562578063af8c09bf1461057557600080fd5b80637464fc3d116101145780637ecebe00116100f95780637ecebe00146104f657806392bc32191461051657806395d89b411461052057600080fd5b80637464fc3d146104da5780637ba0e2e7146104e357600080fd5b8063627dd56a1461046957806365dfc7671461047c57806367e4ac2c146104a557806370a08231146104ba57600080fd5b80632a07b6c7116101d8578063499a3c50116101a757806354cf2aeb1161018c57806354cf2aeb146104305780635909c0d5146104575780635a3d54931461046057600080fd5b8063499a3c50146103f65780634da318271461040957600080fd5b80632a07b6c71461036e57806330adf81f1461038e578063313ce567146103b55780633644e515146103ee57600080fd5b80630c0a0cd2116102145780630c0a0cd2146102df5780630dfe16811461032b57806318160ddd1461035257806323b872dd1461035b57600080fd5b8063053da1c81461024657806306fdde031461026c5780630902f1ac14610281578063095ea7b3146102bc575b600080fd5b610259610254366004613315565b61061d565b6040519081526020015b60405180910390f35b610274610c03565b60405161026391906133f2565b610289610c91565b604080516dffffffffffffffffffffffffffff948516815293909216602084015263ffffffff1690820152606001610263565b6102cf6102ca366004613431565b610cfa565b6040519015158152602001610263565b6103067f000000000000000000000000000000000000000000000000000000000000000081565b60405173ffffffffffffffffffffffffffffffffffffffff9091168152602001610263565b6103067f000000000000000000000000000000000000000000000000000000000000000081565b61025960025481565b6102cf61036936600461345d565b610d73565b61038161037c366004613315565b610eb7565b604051610263919061349e565b6102597f6e71edae12b1b97f4d1f60370fef10105fa2faae0126114a169c64845d6126c981565b6103dc7f000000000000000000000000000000000000000000000000000000000000000081565b60405160ff9091168152602001610263565b610259611227565b610259610404366004613315565b611282565b6103067f000000000000000000000000000000000000000000000000000000000000000081565b6102597f000000000000000000000000000000000000000000000000000000000000000081565b61025960085481565b61025960095481565b610259610477366004613315565b61143a565b6104846117cb565b60408051938452602084019290925263ffffffff1690820152606001610263565b6104ad611a21565b6040516102639190613503565b6102596104c836600461355d565b60036020526000908152604090205481565b610259600a5481565b6102596104f1366004613315565b611b20565b61025961050436600461355d565b60056020526000908152604090205481565b61051e611e07565b005b610274611e9b565b6102597f54726964656e743a436f6e7374616e7450726f6475637400000000000000000081565b61025961055d366004613315565b611ea8565b6102cf610570366004613431565b61204c565b610259610583366004613315565b6120d1565b61025960075481565b6103067f000000000000000000000000000000000000000000000000000000000000000081565b6103067f000000000000000000000000000000000000000000000000000000000000000081565b61051e6105ed36600461357a565b6124ab565b6102596106003660046135f1565b600460209081526000928352604080842090915290825290205481565b6000600654600114610690576040517f08c379a000000000000000000000000000000000000000000000000000000000815260206004820152600a60248201527f5245454e5452414e43590000000000000000000000000000000000000000000060448201526064015b60405180910390fd5b60026006556000808080806106a78789018961366e565b94509450945094509450600080600061070f600b546dffffffffffffffffffffffffffff808216926e01000000000000000000000000000083049091169163ffffffff7c01000000000000000000000000000000000000000000000000000000009091041690565b925092509250826dffffffffffffffffffffffffffff1660001415610760576040517fd886367700000000000000000000000000000000000000000000000000000000815260040160405180910390fd5b7f000000000000000000000000000000000000000000000000000000000000000073ffffffffffffffffffffffffffffffffffffffff168873ffffffffffffffffffffffffffffffffffffffff161415610991576107df85846dffffffffffffffffffffffffffff16846dffffffffffffffffffffffffffff166127d7565b985061080d7f00000000000000000000000000000000000000000000000000000000000000008a898961283a565b6040517fbd50c7b1000000000000000000000000000000000000000000000000000000008152339063bd50c7b1906108499087906004016133f2565b600060405180830381600087803b15801561086357600080fd5b505af1158015610877573d6000803e3d6000fd5b505050506000806108866129d1565b9150915086856dffffffffffffffffffffffffffff16830310156108d6576040517fdf5b2ee600000000000000000000000000000000000000000000000000000000815260040160405180910390fd5b6108e38282878787612b8d565b7f000000000000000000000000000000000000000000000000000000000000000073ffffffffffffffffffffffffffffffffffffffff168a73ffffffffffffffffffffffffffffffffffffffff168a73ffffffffffffffffffffffffffffffffffffffff167fcd3829a3813dc3cdd188fd3d01dcf3268c16be2fdd2dd21d0665418816e460628a8f604051610982929190918252602082015260400190565b60405180910390a45050610bef565b7f000000000000000000000000000000000000000000000000000000000000000073ffffffffffffffffffffffffffffffffffffffff168873ffffffffffffffffffffffffffffffffffffffff1614610a16576040517f2df9739b00000000000000000000000000000000000000000000000000000000815260040160405180910390fd5b610a4185836dffffffffffffffffffffffffffff16856dffffffffffffffffffffffffffff166127d7565b9850610a6f7f00000000000000000000000000000000000000000000000000000000000000008a898961283a565b6040517fbd50c7b1000000000000000000000000000000000000000000000000000000008152339063bd50c7b190610aab9087906004016133f2565b600060405180830381600087803b158015610ac557600080fd5b505af1158015610ad9573d6000803e3d6000fd5b50505050600080610ae86129d1565b9150915086846dffffffffffffffffffffffffffff1682031015610b38576040517fdf5b2ee600000000000000000000000000000000000000000000000000000000815260040160405180910390fd5b610b458282878787612b8d565b7f000000000000000000000000000000000000000000000000000000000000000073ffffffffffffffffffffffffffffffffffffffff168a73ffffffffffffffffffffffffffffffffffffffff168a73ffffffffffffffffffffffffffffffffffffffff167fcd3829a3813dc3cdd188fd3d01dcf3268c16be2fdd2dd21d0665418816e460628a8f604051610be4929190918252602082015260400190565b60405180910390a450505b505060016006555094979650505050505050565b60008054610c109061377d565b80601f0160208091040260200160405190810160405280929190818152602001828054610c3c9061377d565b8015610c895780601f10610c5e57610100808354040283529160200191610c89565b820191906000526020600020905b815481529060010190602001808311610c6c57829003601f168201915b505050505081565b6000806000610cef600b546dffffffffffffffffffffffffffff808216926e01000000000000000000000000000083049091169163ffffffff7c01000000000000000000000000000000000000000000000000000000009091041690565b925092509250909192565b33600081815260046020908152604080832073ffffffffffffffffffffffffffffffffffffffff8716808552925280832085905551919290917f8c5be1e5ebec7d5bd14f71427d1e84f3dd0314c0f7b2291e5b200ac8c7c3b92590610d629086815260200190565b60405180910390a350600192915050565b73ffffffffffffffffffffffffffffffffffffffff831660009081526004602090815260408083203384529091528120547fffffffffffffffffffffffffffffffffffffffffffffffffffffffffffffffff8114610e0757610dd583826137fa565b73ffffffffffffffffffffffffffffffffffffffff861660009081526004602090815260408083203384529091529020555b73ffffffffffffffffffffffffffffffffffffffff851660009081526003602052604081208054859290610e3c9084906137fa565b909155505073ffffffffffffffffffffffffffffffffffffffff808516600081815260036020526040908190208054870190555190918716907fddf252ad1be2c89b69c2b068fc378daa952ba7f163c4a11628f55a4df523b3ef90610ea49087815260200190565b60405180910390a3506001949350505050565b6060600654600114610f25576040517f08c379a000000000000000000000000000000000000000000000000000000000815260206004820152600a60248201527f5245454e5452414e4359000000000000000000000000000000000000000000006044820152606401610687565b6002600655600080610f3984860186613811565b915091506000806000610f9b600b546dffffffffffffffffffffffffffff808216926e01000000000000000000000000000083049091169163ffffffff7c01000000000000000000000000000000000000000000000000000000009091041690565b925092509250600080610fac6129d1565b30600090815260036020526040812054929450909250610fcc8787612e3a565b509050600081610fdc8685613846565b610fe691906138b2565b9050600082610ff58686613846565b610fff91906138b2565b905061100b3085612f20565b6110377f0000000000000000000000000000000000000000000000000000000000000000838d8d61283a565b6110637f0000000000000000000000000000000000000000000000000000000000000000828d8d61283a565b8186039550808503945061107a86868b8b8b612b8d565b61108c6110878688613846565b612fb6565b600a556040805160028082526060820190925290816020015b60408051808201909152600080825260208201528152602001906001900390816110a5579050509b5060405180604001604052807f000000000000000000000000000000000000000000000000000000000000000073ffffffffffffffffffffffffffffffffffffffff168152602001838152508c60008151811061112c5761112c6138ed565b602002602001018190525060405180604001604052807f000000000000000000000000000000000000000000000000000000000000000073ffffffffffffffffffffffffffffffffffffffff168152602001828152508c600181518110611195576111956138ed565b60200260200101819052508a73ffffffffffffffffffffffffffffffffffffffff163373ffffffffffffffffffffffffffffffffffffffff167fdccd412f0b1252819cb1fd330b93224ca42612892bb3f4f789976e6d819364968484604051611208929190918252602082015260400190565b60405180910390a35050600160065550979a9950505050505050505050565b60007f0000000000000000000000000000000000000000000000000000000000000000461461125d5761125861309c565b905090565b507f000000000000000000000000000000000000000000000000000000000000000090565b6000808061129284860186613431565b915091506000806112f2600b546dffffffffffffffffffffffffffff808216926e01000000000000000000000000000083049091169163ffffffff7c01000000000000000000000000000000000000000000000000000000009091041690565b50915091507f000000000000000000000000000000000000000000000000000000000000000073ffffffffffffffffffffffffffffffffffffffff168473ffffffffffffffffffffffffffffffffffffffff16141561137d5761137683836dffffffffffffffffffffffffffff16836dffffffffffffffffffffffffffff16613136565b9450611430565b7f000000000000000000000000000000000000000000000000000000000000000073ffffffffffffffffffffffffffffffffffffffff168473ffffffffffffffffffffffffffffffffffffffff1614611402576040517f0620202000000000000000000000000000000000000000000000000000000000815260040160405180910390fd5b61142d83826dffffffffffffffffffffffffffff16846dffffffffffffffffffffffffffff16613136565b94505b5050505092915050565b60006006546001146114a8576040517f08c379a000000000000000000000000000000000000000000000000000000000815260206004820152600a60248201527f5245454e5452414e4359000000000000000000000000000000000000000000006044820152606401610687565b6002600655600080806114bd8587018761391c565b9250925092506000806000611521600b546dffffffffffffffffffffffffffff808216926e01000000000000000000000000000083049091169163ffffffff7c01000000000000000000000000000000000000000000000000000000009091041690565b925092509250826dffffffffffffffffffffffffffff1660001415611572576040517fd886367700000000000000000000000000000000000000000000000000000000815260040160405180910390fd5b60008061157d6129d1565b915091506000807f000000000000000000000000000000000000000000000000000000000000000073ffffffffffffffffffffffffffffffffffffffff168a73ffffffffffffffffffffffffffffffffffffffff161415611647577f00000000000000000000000000000000000000000000000000000000000000009050866dffffffffffffffffffffffffffff168403915061163b82886dffffffffffffffffffffffffffff16886dffffffffffffffffffffffffffff166127d7565b9a508a83039250611733565b7f000000000000000000000000000000000000000000000000000000000000000073ffffffffffffffffffffffffffffffffffffffff168a73ffffffffffffffffffffffffffffffffffffffff16146116cc576040517f2df9739b00000000000000000000000000000000000000000000000000000000815260040160405180910390fd5b5050600b546dffffffffffffffffffffffffffff6e01000000000000000000000000000090910481168203907f00000000000000000000000000000000000000000000000000000000000000009061172b908390888116908a166127d7565b9a508a840393505b61173f818c8b8b61283a565b61174c8484898989612b8d565b8073ffffffffffffffffffffffffffffffffffffffff168a73ffffffffffffffffffffffffffffffffffffffff168a73ffffffffffffffffffffffffffffffffffffffff167fcd3829a3813dc3cdd188fd3d01dcf3268c16be2fdd2dd21d0665418816e46062858f604051610be4929190918252602082015260400190565b60008060008060008061182d600b546dffffffffffffffffffffffffffff808216926e01000000000000000000000000000083049091169163ffffffff7c01000000000000000000000000000000000000000000000000000000009091041690565b6040517f5662311800000000000000000000000000000000000000000000000000000000815273ffffffffffffffffffffffffffffffffffffffff7f0000000000000000000000000000000000000000000000000000000000000000811660048301526dffffffffffffffffffffffffffff851660248301526000604483015293965091945092507f000000000000000000000000000000000000000000000000000000000000000090911690635662311890606401602060405180830381865afa158015611900573d6000803e3d6000fd5b505050506040513d601f19601f820116820180604052508101906119249190613963565b6040517f5662311800000000000000000000000000000000000000000000000000000000815273ffffffffffffffffffffffffffffffffffffffff7f0000000000000000000000000000000000000000000000000000000000000000811660048301526dffffffffffffffffffffffffffff85166024830152600060448301529197507f000000000000000000000000000000000000000000000000000000000000000090911690635662311890606401602060405180830381865afa1580156119f2573d6000803e3d6000fd5b505050506040513d601f19601f82011682018060405250810190611a169190613963565b959690945092505050565b60408051600280825260608083018452926020830190803683370190505090507f000000000000000000000000000000000000000000000000000000000000000081600081518110611a7557611a756138ed565b602002602001019073ffffffffffffffffffffffffffffffffffffffff16908173ffffffffffffffffffffffffffffffffffffffff16815250507f000000000000000000000000000000000000000000000000000000000000000081600181518110611ae357611ae36138ed565b602002602001019073ffffffffffffffffffffffffffffffffffffffff16908173ffffffffffffffffffffffffffffffffffffffff168152505090565b6000600654600114611b8e576040517f08c379a000000000000000000000000000000000000000000000000000000000815260206004820152600a60248201527f5245454e5452414e4359000000000000000000000000000000000000000000006044820152606401610687565b60026006556000611ba18385018561355d565b90506000806000611c01600b546dffffffffffffffffffffffffffff808216926e01000000000000000000000000000083049091169163ffffffff7c01000000000000000000000000000000000000000000000000000000009091041690565b925092509250600080611c126129d1565b90925090506000611c266110878385613846565b90506000611c446dffffffffffffffffffffffffffff8816856137fa565b90506000611c626dffffffffffffffffffffffffffff8816856137fa565b9050600080611c9384848c6dffffffffffffffffffffffffffff168c6dffffffffffffffffffffffffffff166131a1565b9092509050611ca2828b61397c565b9950611cae818a61397c565b9850600080611cbd8c8c612e3a565b915091508160001415611d2c57851580611cd5575084155b15611d0c576040517fd856fc5a00000000000000000000000000000000000000000000000000000000815260040160405180910390fd5b611d186103e8886137fa565b9d50611d2760006103e86132a4565b611d48565b80870381611d3a8483613846565b611d4491906138b2565b9e50505b8d611d7f576040517fd226f9d400000000000000000000000000000000000000000000000000000000815260040160405180910390fd5b611d898d8f6132a4565b611d9689898e8e8e612b8d565b600a879055604080518781526020810187905273ffffffffffffffffffffffffffffffffffffffff8f169133917fdbba30eb0402b389513e87f51f4db2db80bed454384ec6925a24097c3548a02a910160405180910390a35050600160065550999c9b505050505050505050505050565b7f000000000000000000000000000000000000000000000000000000000000000073ffffffffffffffffffffffffffffffffffffffff1663c14ad8026040518163ffffffff1660e01b8152600401602060405180830381865afa158015611e72573d6000803e3d6000fd5b505050506040513d601f19601f82011682018060405250810190611e969190613963565b600755565b60018054610c109061377d565b60008080611eb884860186613431565b91509150600080611f18600b546dffffffffffffffffffffffffffff808216926e01000000000000000000000000000083049091169163ffffffff7c01000000000000000000000000000000000000000000000000000000009091041690565b50915091507f000000000000000000000000000000000000000000000000000000000000000073ffffffffffffffffffffffffffffffffffffffff168473ffffffffffffffffffffffffffffffffffffffff161415611f9c5761137683836dffffffffffffffffffffffffffff16836dffffffffffffffffffffffffffff166127d7565b7f000000000000000000000000000000000000000000000000000000000000000073ffffffffffffffffffffffffffffffffffffffff168473ffffffffffffffffffffffffffffffffffffffff1614612021576040517f2df9739b00000000000000000000000000000000000000000000000000000000815260040160405180910390fd5b61142d83826dffffffffffffffffffffffffffff16846dffffffffffffffffffffffffffff166127d7565b3360009081526003602052604081208054839190839061206d9084906137fa565b909155505073ffffffffffffffffffffffffffffffffffffffff8316600081815260036020526040908190208054850190555133907fddf252ad1be2c89b69c2b068fc378daa952ba7f163c4a11628f55a4df523b3ef90610d629086815260200190565b600060065460011461213f576040517f08c379a000000000000000000000000000000000000000000000000000000000815260206004820152600a60248201527f5245454e5452414e4359000000000000000000000000000000000000000000006044820152606401610687565b6002600655600080806121548587018761391c565b92509250925060008060006121b8600b546dffffffffffffffffffffffffffff808216926e01000000000000000000000000000083049091169163ffffffff7c01000000000000000000000000000000000000000000000000000000009091041690565b3060009081526003602052604081205493965091945092506121da8585612e3a565b5090506000816121fa6dffffffffffffffffffffffffffff881685613846565b61220491906138b2565b90506000826122236dffffffffffffffffffffffffffff881686613846565b61222d91906138b2565b905061227061224c826dffffffffffffffffffffffffffff89166137fa565b612266846dffffffffffffffffffffffffffff8b166137fa565b6110879190613846565b600a5561227d3085612f20565b7f000000000000000000000000000000000000000000000000000000000000000073ffffffffffffffffffffffffffffffffffffffff168a73ffffffffffffffffffffffffffffffffffffffff161415612339576123008283896dffffffffffffffffffffffffffff160383896dffffffffffffffffffffffffffff16036127d7565b0161232d7f0000000000000000000000000000000000000000000000000000000000000000828b8b61283a565b809a5060009150612424565b7f000000000000000000000000000000000000000000000000000000000000000073ffffffffffffffffffffffffffffffffffffffff168a73ffffffffffffffffffffffffffffffffffffffff16146123be576040517f0620202000000000000000000000000000000000000000000000000000000000815260040160405180910390fd5b6123ed8182886dffffffffffffffffffffffffffff1603848a6dffffffffffffffffffffffffffff16036127d7565b8201915061241d7f0000000000000000000000000000000000000000000000000000000000000000838b8b61283a565b5098508860005b60008061242f6129d1565b9150915061244082828b8b8b612b8d565b604080518581526020810185905273ffffffffffffffffffffffffffffffffffffffff8d169133917fdccd412f0b1252819cb1fd330b93224ca42612892bb3f4f789976e6d81936496910160405180910390a35050600160065550989b9a5050505050505050505050565b42841015612515576040517f08c379a000000000000000000000000000000000000000000000000000000000815260206004820152601760248201527f5045524d49545f444541444c494e455f455850495245440000000000000000006044820152606401610687565b600061251f611227565b73ffffffffffffffffffffffffffffffffffffffff89811660008181526005602090815260409182902080546001810190915582517f6e71edae12b1b97f4d1f60370fef10105fa2faae0126114a169c64845d6126c98184015280840194909452938c166060840152608083018b905260a083019390935260c08083018a90528151808403909101815260e0830190915280519201919091207f190100000000000000000000000000000000000000000000000000000000000061010083015261010282019290925261012281019190915261014201604080517fffffffffffffffffffffffffffffffffffffffffffffffffffffffffffffffe08184030181528282528051602091820120600080855291840180845281905260ff88169284019290925260608301869052608083018590529092509060019060a0016020604051602081039080840390855afa15801561267e573d6000803e3d6000fd5b50506040517fffffffffffffffffffffffffffffffffffffffffffffffffffffffffffffffe0015191505073ffffffffffffffffffffffffffffffffffffffff8116158015906126f957508873ffffffffffffffffffffffffffffffffffffffff168173ffffffffffffffffffffffffffffffffffffffff16145b61275f576040517f08c379a000000000000000000000000000000000000000000000000000000000815260206004820152600e60248201527f494e56414c49445f5349474e45520000000000000000000000000000000000006044820152606401610687565b73ffffffffffffffffffffffffffffffffffffffff90811660009081526004602090815260408083208b8516808552908352928190208a905551898152919350918a16917f8c5be1e5ebec7d5bd14f71427d1e84f3dd0314c0f7b2291e5b200ac8c7c3b925910160405180910390a350505050505050565b6000806128047f000000000000000000000000000000000000000000000000000000000000000086613846565b90508061281361271086613846565b61281d91906139ae565b6128278483613846565b61283191906138b2565b95945050505050565b8015612914576040517f97da6d3000000000000000000000000000000000000000000000000000000000815273ffffffffffffffffffffffffffffffffffffffff8581166004830152306024830152838116604483015260006064830152608482018590527f000000000000000000000000000000000000000000000000000000000000000016906397da6d309060a40160408051808303816000875af11580156128e9573d6000803e3d6000fd5b505050506040513d601f19601f8201168201806040525081019061290d91906139c6565b50506129cb565b6040517ff18d03cc00000000000000000000000000000000000000000000000000000000815273ffffffffffffffffffffffffffffffffffffffff85811660048301523060248301528381166044830152606482018590527f0000000000000000000000000000000000000000000000000000000000000000169063f18d03cc90608401600060405180830381600087803b1580156129b257600080fd5b505af11580156129c6573d6000803e3d6000fd5b505050505b50505050565b6040517ff7888aec00000000000000000000000000000000000000000000000000000000815273ffffffffffffffffffffffffffffffffffffffff7f00000000000000000000000000000000000000000000000000000000000000008116600483015230602483015260009182917f0000000000000000000000000000000000000000000000000000000000000000169063f7888aec90604401602060405180830381865afa158015612a88573d6000803e3d6000fd5b505050506040513d601f19601f82011682018060405250810190612aac9190613963565b6040517ff7888aec00000000000000000000000000000000000000000000000000000000815273ffffffffffffffffffffffffffffffffffffffff7f0000000000000000000000000000000000000000000000000000000000000000811660048301523060248301529193507f00000000000000000000000000000000000000000000000000000000000000009091169063f7888aec90604401602060405180830381865afa158015612b63573d6000803e3d6000fd5b505050506040513d601f19601f82011682018060405250810190612b879190613963565b90509091565b6dffffffffffffffffffffffffffff851180612bb657506dffffffffffffffffffffffffffff84115b15612bed576040517f35278d1200000000000000000000000000000000000000000000000000000000815260040160405180910390fd5b63ffffffff8116612c4f57600b80546dffffffffffffffffffffffffffff8681166e010000000000000000000000000000027fffffffff0000000000000000000000000000000000000000000000000000000090921690881617179055612dfa565b4263ffffffff80821690831614801590612c7857506dffffffffffffffffffffffffffff841615155b8015612c9357506dffffffffffffffffffffffffffff831615155b15612d585781810360006dffffffffffffffffffffffffffff86167bffffffffffffffffffffffffffff0000000000000000000000000000607087901b1681612cde57612cde613883565b600880549290910463ffffffff851681029092019055905060006dffffffffffffffffffffffffffff8616607088901b7bffffffffffffffffffffffffffff00000000000000000000000000001681612d3957612d39613883565b0490508263ffffffff1681026009600082825401925050819055505050505b600b805463ffffffff9092167c0100000000000000000000000000000000000000000000000000000000027bffffffffffffffffffffffffffffffffffffffffffffffffffffffff6dffffffffffffffffffffffffffff8881166e010000000000000000000000000000027fffffffff00000000000000000000000000000000000000000000000000000000909516908a161793909317929092169190911790555b60408051868152602081018690527fcf2aa50876cdfbb541206f89af0ee78d44a2abf8d328e37fa4917f982149848a910160405180910390a15050505050565b600254600a546000908015612f1857612e696110876dffffffffffffffffffffffffffff808716908816613846565b915080821115612f1857600754600081612e8384866137fa565b612e8d9087613846565b612e979190613846565b90506000612ea58484613846565b85612eb2856127106137fa565b612ebc9190613846565b612ec691906139ae565b90506000612ed482846138b2565b90508015612f1357612f067f0000000000000000000000000000000000000000000000000000000000000000826132a4565b612f1081886139ae565b96505b505050505b509250929050565b73ffffffffffffffffffffffffffffffffffffffff821660009081526003602052604081208054839290612f559084906137fa565b909155505060028054829003905560405181815260009073ffffffffffffffffffffffffffffffffffffffff8416907fddf252ad1be2c89b69c2b068fc378daa952ba7f163c4a11628f55a4df523b3ef906020015b60405180910390a35050565b6001817001000000000000000000000000000000008110612fdc5760409190911b9060801c5b680100000000000000008110612ff75760209190911b9060401c5b640100000000811061300e5760109190911b9060201c5b6201000081106130235760089190911b9060101c5b61010081106130375760049190911b9060081c5b6010811061304a5760029190911b9060041c5b60088110613059578160011b91505b5080820401600190811c80830401811c80830401811c80830401811c80830401811c80830401811c80830401901c80820481811015613096578091505b50919050565b60007f8b73c3c69bb8fe3d512ecc4cf759cc79239f7b179b0ffacaa9a75d522b39400f60006040516130ce91906139ea565b6040805191829003822060208301939093528101919091527fc89efdaa54c0f20c7adf612882df0950f5a951637e0307cdcb4c672f298b8bc660608201524660808201523060a082015260c00160405160208183030381529060405280519060200120905090565b60007f000000000000000000000000000000000000000000000000000000000000000061316385846137fa565b61316d9190613846565b61271061317a8686613846565b6131849190613846565b61318e91906138b2565b6131999060016139ae565b949350505050565b6000808315806131af575082155b156131bf5750600090508061329b565b6000846131cc8589613846565b6131d691906138b2565b9050858111613231576131ec6127106002613846565b6131f682886137fa565b613220907f0000000000000000000000000000000000000000000000000000000000000000613846565b61322a91906138b2565b9150613299565b60008461323e8789613846565b61324891906138b2565b90506132576127106002613846565b613261828a6137fa565b61328b907f0000000000000000000000000000000000000000000000000000000000000000613846565b61329591906138b2565b9350505b505b94509492505050565b80600260008282546132b691906139ae565b909155505073ffffffffffffffffffffffffffffffffffffffff82166000818152600360209081526040808320805486019055518481527fddf252ad1be2c89b69c2b068fc378daa952ba7f163c4a11628f55a4df523b3ef9101612faa565b6000806020838503121561332857600080fd5b823567ffffffffffffffff8082111561334057600080fd5b818501915085601f83011261335457600080fd5b81358181111561336357600080fd5b86602082850101111561337557600080fd5b60209290920196919550909350505050565b6000815180845260005b818110156133ad57602081850181015186830182015201613391565b818111156133bf576000602083870101525b50601f017fffffffffffffffffffffffffffffffffffffffffffffffffffffffffffffffe0169290920160200192915050565b6020815260006134056020830184613387565b9392505050565b73ffffffffffffffffffffffffffffffffffffffff8116811461342e57600080fd5b50565b6000806040838503121561344457600080fd5b823561344f8161340c565b946020939093013593505050565b60008060006060848603121561347257600080fd5b833561347d8161340c565b9250602084013561348d8161340c565b929592945050506040919091013590565b602080825282518282018190526000919060409081850190868401855b828110156134f6578151805173ffffffffffffffffffffffffffffffffffffffff1685528601518685015292840192908501906001016134bb565b5091979650505050505050565b6020808252825182820181905260009190848201906040850190845b8181101561355157835173ffffffffffffffffffffffffffffffffffffffff168352928401929184019160010161351f565b50909695505050505050565b60006020828403121561356f57600080fd5b81356134058161340c565b600080600080600080600060e0888a03121561359557600080fd5b87356135a08161340c565b965060208801356135b08161340c565b95506040880135945060608801359350608088013560ff811681146135d457600080fd5b9699959850939692959460a0840135945060c09093013592915050565b6000806040838503121561360457600080fd5b823561360f8161340c565b9150602083013561361f8161340c565b809150509250929050565b8035801515811461363a57600080fd5b919050565b7f4e487b7100000000000000000000000000000000000000000000000000000000600052604160045260246000fd5b600080600080600060a0868803121561368657600080fd5b85356136918161340c565b945060208601356136a18161340c565b93506136af6040870161362a565b925060608601359150608086013567ffffffffffffffff808211156136d357600080fd5b818801915088601f8301126136e757600080fd5b8135818111156136f9576136f961363f565b604051601f82017fffffffffffffffffffffffffffffffffffffffffffffffffffffffffffffffe0908116603f0116810190838211818310171561373f5761373f61363f565b816040528281528b602084870101111561375857600080fd5b8260208601602083013760006020848301015280955050505050509295509295909350565b600181811c9082168061379157607f821691505b60208210811415613096577f4e487b7100000000000000000000000000000000000000000000000000000000600052602260045260246000fd5b7f4e487b7100000000000000000000000000000000000000000000000000000000600052601160045260246000fd5b60008282101561380c5761380c6137cb565b500390565b6000806040838503121561382457600080fd5b823561382f8161340c565b915061383d6020840161362a565b90509250929050565b6000817fffffffffffffffffffffffffffffffffffffffffffffffffffffffffffffffff048311821515161561387e5761387e6137cb565b500290565b7f4e487b7100000000000000000000000000000000000000000000000000000000600052601260045260246000fd5b6000826138e8577f4e487b7100000000000000000000000000000000000000000000000000000000600052601260045260246000fd5b500490565b7f4e487b7100000000000000000000000000000000000000000000000000000000600052603260045260246000fd5b60008060006060848603121561393157600080fd5b833561393c8161340c565b9250602084013561394c8161340c565b915061395a6040850161362a565b90509250925092565b60006020828403121561397557600080fd5b5051919050565b60006dffffffffffffffffffffffffffff8083168185168083038211156139a5576139a56137cb565b01949350505050565b600082198211156139c1576139c16137cb565b500190565b600080604083850312156139d957600080fd5b505080516020909101519092909150565b600080835481600182811c915080831680613a0657607f831692505b6020808410821415613a3f577f4e487b710000000000000000000000000000000000000000000000000000000086526022600452602486fd5b818015613a535760018114613a8257613aaf565b7fffffffffffffffffffffffffffffffffffffffffffffffffffffffffffffff00861689528489019650613aaf565b60008a81526020902060005b86811015613aa75781548b820152908501908301613a8e565b505084890196505b50949897505050505050505056fea264697066735822122023b1b16732d5efbbde4fe9c09ad57bc5e282ee9d8115186daf2a0c35f79fae8264736f6c634300080a0033a26469706673582212202574e272fe091577903e8619f249f8e3e1f3373c680480c579a6639f1784d57a64736f6c634300080a0033",
  "devdoc": {
    "author": "Mudit Gupta.",
    "errors": {
      "UnauthorisedDeployer()": [
        {
          "details": "Custom Errors"
        }
      ]
    },
    "kind": "dev",
    "methods": {},
    "version": 1
  },
  "userdoc": {
    "kind": "user",
    "methods": {},
    "notice": "Contract for deploying Trident exchange Constant Product Pool with configurations.",
    "version": 1
  },
  "storageLayout": {
    "storage": [
      {
        "astId": 4755,
        "contract": "contracts/pool/constant-product/ConstantProductPoolFactory.sol:ConstantProductPoolFactory",
        "label": "pools",
        "offset": 0,
        "slot": "0",
        "type": "t_mapping(t_address,t_mapping(t_address,t_array(t_address)dyn_storage))"
      },
      {
        "astId": 4759,
        "contract": "contracts/pool/constant-product/ConstantProductPoolFactory.sol:ConstantProductPoolFactory",
        "label": "configAddress",
        "offset": 0,
        "slot": "1",
        "type": "t_mapping(t_bytes32,t_address)"
      }
    ],
    "types": {
      "t_address": {
        "encoding": "inplace",
        "label": "address",
        "numberOfBytes": "20"
      },
      "t_array(t_address)dyn_storage": {
        "base": "t_address",
        "encoding": "dynamic_array",
        "label": "address[]",
        "numberOfBytes": "32"
      },
      "t_bytes32": {
        "encoding": "inplace",
        "label": "bytes32",
        "numberOfBytes": "32"
      },
      "t_mapping(t_address,t_array(t_address)dyn_storage)": {
        "encoding": "mapping",
        "key": "t_address",
        "label": "mapping(address => address[])",
        "numberOfBytes": "32",
        "value": "t_array(t_address)dyn_storage"
      },
      "t_mapping(t_address,t_mapping(t_address,t_array(t_address)dyn_storage))": {
        "encoding": "mapping",
        "key": "t_address",
        "label": "mapping(address => mapping(address => address[]))",
        "numberOfBytes": "32",
        "value": "t_mapping(t_address,t_array(t_address)dyn_storage)"
      },
      "t_mapping(t_bytes32,t_address)": {
        "encoding": "mapping",
        "key": "t_bytes32",
        "label": "mapping(bytes32 => address)",
        "numberOfBytes": "32",
        "value": "t_address"
      }
    }
  }
}