{
  "address": "0x5629CE74DdCAD7Cc72b3Ea30444dA7172AD851D9",
  "abi": [
    {
      "inputs": [
        {
          "internalType": "contract IBentoBoxMinimal",
          "name": "_bentoBox",
          "type": "address"
        },
        {
          "internalType": "contract IPoolFactory",
          "name": "_poolFactory",
          "type": "address"
        },
        {
          "internalType": "contract IMasterDeployer",
          "name": "_masterDeployer",
          "type": "address"
        }
      ],
      "stateMutability": "nonpayable",
      "type": "constructor"
    },
    {
      "inputs": [],
      "name": "MinimumOutput",
      "type": "error"
    },
    {
      "inputs": [
        {
          "internalType": "contract IUniswapV2Minimal",
          "name": "pair",
          "type": "address"
        },
        {
          "internalType": "uint256",
          "name": "amount",
          "type": "uint256"
        },
        {
          "internalType": "uint256",
          "name": "swapFee",
          "type": "uint256"
        },
        {
          "internalType": "bool",
          "name": "twapSupport",
          "type": "bool"
        },
        {
          "internalType": "uint256",
          "name": "minToken0Received",
          "type": "uint256"
        },
        {
          "internalType": "uint256",
          "name": "minToken1Received",
          "type": "uint256"
        },
        {
          "internalType": "uint256",
          "name": "minLpReceived",
          "type": "uint256"
        }
      ],
      "name": "migrate",
      "outputs": [
        {
          "internalType": "uint256",
          "name": "liquidity",
          "type": "uint256"
        }
      ],
      "stateMutability": "nonpayable",
      "type": "function"
    },
    {
      "inputs": [
        {
          "internalType": "bytes[]",
          "name": "data",
          "type": "bytes[]"
        }
      ],
      "name": "multicall",
      "outputs": [
        {
          "internalType": "bytes[]",
          "name": "results",
          "type": "bytes[]"
        }
      ],
      "stateMutability": "payable",
      "type": "function"
    },
    {
      "inputs": [
        {
          "internalType": "address",
          "name": "token",
          "type": "address"
        },
        {
          "internalType": "uint256",
          "name": "value",
          "type": "uint256"
        },
        {
          "internalType": "uint256",
          "name": "deadline",
          "type": "uint256"
        },
        {
          "internalType": "uint8",
          "name": "v",
          "type": "uint8"
        },
        {
          "internalType": "bytes32",
          "name": "r",
          "type": "bytes32"
        },
        {
          "internalType": "bytes32",
          "name": "s",
          "type": "bytes32"
        }
      ],
      "name": "selfPermit",
      "outputs": [],
      "stateMutability": "payable",
      "type": "function"
    },
    {
      "inputs": [
        {
          "internalType": "address",
          "name": "token",
          "type": "address"
        },
        {
          "internalType": "uint256",
          "name": "nonce",
          "type": "uint256"
        },
        {
          "internalType": "uint256",
          "name": "expiry",
          "type": "uint256"
        },
        {
          "internalType": "uint8",
          "name": "v",
          "type": "uint8"
        },
        {
          "internalType": "bytes32",
          "name": "r",
          "type": "bytes32"
        },
        {
          "internalType": "bytes32",
          "name": "s",
          "type": "bytes32"
        }
      ],
      "name": "selfPermitAllowed",
      "outputs": [],
      "stateMutability": "payable",
      "type": "function"
    },
    {
      "inputs": [
        {
          "internalType": "address",
          "name": "token",
          "type": "address"
        },
        {
          "internalType": "uint256",
          "name": "nonce",
          "type": "uint256"
        },
        {
          "internalType": "uint256",
          "name": "expiry",
          "type": "uint256"
        },
        {
          "internalType": "uint8",
          "name": "v",
          "type": "uint8"
        },
        {
          "internalType": "bytes32",
          "name": "r",
          "type": "bytes32"
        },
        {
          "internalType": "bytes32",
          "name": "s",
          "type": "bytes32"
        }
      ],
      "name": "selfPermitAllowedIfNecessary",
      "outputs": [],
      "stateMutability": "payable",
      "type": "function"
    },
    {
      "inputs": [
        {
          "internalType": "address",
          "name": "token",
          "type": "address"
        },
        {
          "internalType": "uint256",
          "name": "value",
          "type": "uint256"
        },
        {
          "internalType": "uint256",
          "name": "deadline",
          "type": "uint256"
        },
        {
          "internalType": "uint8",
          "name": "v",
          "type": "uint8"
        },
        {
          "internalType": "bytes32",
          "name": "r",
          "type": "bytes32"
        },
        {
          "internalType": "bytes32",
          "name": "s",
          "type": "bytes32"
        }
      ],
      "name": "selfPermitIfNecessary",
      "outputs": [],
      "stateMutability": "payable",
      "type": "function"
    }
  ],
  "transactionHash": "0x74aabf8773d61ad823e9edc44c30069c7c16dc7080f4ebdcad36809f01e9d880",
  "args": [
    "0x0319000133d3AdA02600f0875d2cf03D442C3367",
    "0x05689fCfeE31FCe4a67FbC7Cab13E74F80A4E288",
    "0x351447fc9bd20A917783E159e61E86EDDA0b0187"
  ],
  "numDeployments": 1,
  "solcInputHash": "0175e29b90ab318fdedbdaf5c6f41891",
  "bytecode": "0x60e060405234801561001057600080fd5b5060405161125838038061125883398101604081905261002f91610064565b6001600160a01b0392831660805290821660a0521660c0526100b1565b6001600160a01b038116811461006157600080fd5b50565b60008060006060848603121561007957600080fd5b83516100848161004c565b60208501519093506100958161004c565b60408501519092506100a68161004c565b809150509250925092565b60805160a05160c0516111636100f560003960006107970152600081816106bb01526107c401526000818161091001528181610a160152610ae701526111636000f3fe6080604052600436106100655760003560e01c8063c2e3140a11610043578063c2e3140a146100bb578063f3995c67146100ce578063fb728f12146100e157600080fd5b80634659a4941461006a578063a4a78f0c1461007f578063ac9650d814610092575b600080fd5b61007d610078366004610c7c565b61010f565b005b61007d61008d366004610c7c565b6101ca565b6100a56100a0366004610cde565b61029c565b6040516100b29190610dcd565b60405180910390f35b61007d6100c9366004610c7c565b61040c565b61007d6100dc366004610c7c565b6104b2565b3480156100ed57600080fd5b506101016100fc366004610e5b565b61052f565b6040519081526020016100b2565b6040517f8fcbaf0c00000000000000000000000000000000000000000000000000000000815233600482015230602482015260448101869052606481018590526001608482015260ff841660a482015260c4810183905260e4810182905273ffffffffffffffffffffffffffffffffffffffff871690638fcbaf0c90610104015b600060405180830381600087803b1580156101aa57600080fd5b505af11580156101be573d6000803e3d6000fd5b50505050505050505050565b6040517fdd62ed3e0000000000000000000000000000000000000000000000000000000081523360048201523060248201527fffffffffffffffffffffffffffffffffffffffffffffffffffffffffffffffff9073ffffffffffffffffffffffffffffffffffffffff88169063dd62ed3e90604401602060405180830381865afa15801561025c573d6000803e3d6000fd5b505050506040513d601f19601f820116820180604052508101906102809190610ec0565b10156102945761029486868686868661010f565b505050505050565b60608167ffffffffffffffff8111156102b7576102b7610ed9565b6040519080825280602002602001820160405280156102ea57816020015b60608152602001906001900390816102d55790505b50905060005b82811015610405576000803086868581811061030e5761030e610f08565b90506020028101906103209190610f37565b60405161032e929190610fa3565b600060405180830381855af49150503d8060008114610369576040519150601f19603f3d011682016040523d82523d6000602084013e61036e565b606091505b5091509150816103dd5760448151101561038757600080fd5b600481019050808060200190518101906103a19190610fb3565b6040517f08c379a00000000000000000000000000000000000000000000000000000000081526004016103d4919061107e565b60405180910390fd5b808484815181106103f0576103f0610f08565b602090810291909101015250506001016102f0565b5092915050565b6040517fdd62ed3e000000000000000000000000000000000000000000000000000000008152336004820152306024820152859073ffffffffffffffffffffffffffffffffffffffff88169063dd62ed3e90604401602060405180830381865afa15801561047e573d6000803e3d6000fd5b505050506040513d601f19601f820116820180604052508101906104a29190610ec0565b1015610294576102948686868686865b6040517fd505accf000000000000000000000000000000000000000000000000000000008152336004820152306024820152604481018690526064810185905260ff8416608482015260a4810183905260c4810182905273ffffffffffffffffffffffffffffffffffffffff87169063d505accf9060e401610190565b6000808873ffffffffffffffffffffffffffffffffffffffff16630dfe16816040518163ffffffff1660e01b8152600401602060405180830381865afa15801561057d573d6000803e3d6000fd5b505050506040513d601f19601f820116820180604052508101906105a19190611098565b905060008973ffffffffffffffffffffffffffffffffffffffff1663d21220a76040518163ffffffff1660e01b8152600401602060405180830381865afa1580156105f0573d6000803e3d6000fd5b505050506040513d601f19601f820116820180604052508101906106149190611098565b6040805173ffffffffffffffffffffffffffffffffffffffff8086166020830152831691810191909152606081018a9052881515608082015290915060009060a001604080518083037fffffffffffffffffffffffffffffffffffffffffffffffffffffffffffffffe001815290829052805160208201207ff6ab6d99000000000000000000000000000000000000000000000000000000008352600483015291506000907f000000000000000000000000000000000000000000000000000000000000000073ffffffffffffffffffffffffffffffffffffffff169063f6ab6d99906024016020604051808303816000875af1158015610719573d6000803e3d6000fd5b505050506040513d601f19601f8201168201806040525081019061073d9190611098565b905073ffffffffffffffffffffffffffffffffffffffff8116610834576040517f250558dc00000000000000000000000000000000000000000000000000000000815273ffffffffffffffffffffffffffffffffffffffff7f0000000000000000000000000000000000000000000000000000000000000000169063250558dc906107ee907f00000000000000000000000000000000000000000000000000000000000000009086906004016110b5565b6020604051808303816000875af115801561080d573d6000803e3d6000fd5b505050506040513d601f19601f820116820180604052508101906108319190611098565b90505b6040517f23b872dd00000000000000000000000000000000000000000000000000000000815233600482015273ffffffffffffffffffffffffffffffffffffffff8d1660248201819052604482018d9052906323b872dd906064016020604051808303816000875af11580156108ae573d6000803e3d6000fd5b505050506040513d601f19601f820116820180604052508101906108d291906110ec565b506040517f89afcb4400000000000000000000000000000000000000000000000000000000815273ffffffffffffffffffffffffffffffffffffffff7f00000000000000000000000000000000000000000000000000000000000000008116600483015260009182918f16906389afcb449060240160408051808303816000875af1158015610965573d6000803e3d6000fd5b505050506040513d601f19601f820116820180604052508101906109899190611109565b915091508982108061099a57508881105b156109d1576040517f9b9d48e100000000000000000000000000000000000000000000000000000000815260040160405180910390fd5b6040517f02b9446c00000000000000000000000000000000000000000000000000000000815273ffffffffffffffffffffffffffffffffffffffff87811660048301527f000000000000000000000000000000000000000000000000000000000000000081166024830181905290851660448301526064820184905260006084830152906302b9446c9060a40160408051808303816000875af1158015610a7c573d6000803e3d6000fd5b505050506040513d601f19601f82011682018060405250810190610aa09190611109565b50506040517f02b9446c00000000000000000000000000000000000000000000000000000000815273ffffffffffffffffffffffffffffffffffffffff86811660048301527f000000000000000000000000000000000000000000000000000000000000000081166024830181905290851660448301526064820183905260006084830152906302b9446c9060a40160408051808303816000875af1158015610b4d573d6000803e3d6000fd5b505050506040513d601f19601f82011682018060405250810190610b719190611109565b50506040805133602082015273ffffffffffffffffffffffffffffffffffffffff851691637ba0e2e791016040516020818303038152906040526040518263ffffffff1660e01b8152600401610bc7919061107e565b6020604051808303816000875af1158015610be6573d6000803e3d6000fd5b505050506040513d601f19601f82011682018060405250810190610c0a9190610ec0565b965087871015610c46576040517f9b9d48e100000000000000000000000000000000000000000000000000000000815260040160405180910390fd5b505050505050979650505050505050565b73ffffffffffffffffffffffffffffffffffffffff81168114610c7957600080fd5b50565b60008060008060008060c08789031215610c9557600080fd5b8635610ca081610c57565b95506020870135945060408701359350606087013560ff81168114610cc457600080fd5b9598949750929560808101359460a0909101359350915050565b60008060208385031215610cf157600080fd5b823567ffffffffffffffff80821115610d0957600080fd5b818501915085601f830112610d1d57600080fd5b813581811115610d2c57600080fd5b8660208260051b8501011115610d4157600080fd5b60209290920196919550909350505050565b60005b83811015610d6e578181015183820152602001610d56565b83811115610d7d576000848401525b50505050565b60008151808452610d9b816020860160208601610d53565b601f017fffffffffffffffffffffffffffffffffffffffffffffffffffffffffffffffe0169290920160200192915050565b6000602080830181845280855180835260408601915060408160051b870101925083870160005b82811015610e40577fffffffffffffffffffffffffffffffffffffffffffffffffffffffffffffffc0888603018452610e2e858351610d83565b94509285019290850190600101610df4565b5092979650505050505050565b8015158114610c7957600080fd5b600080600080600080600060e0888a031215610e7657600080fd5b8735610e8181610c57565b965060208801359550604088013594506060880135610e9f81610e4d565b9699959850939660808101359560a0820135955060c0909101359350915050565b600060208284031215610ed257600080fd5b5051919050565b7f4e487b7100000000000000000000000000000000000000000000000000000000600052604160045260246000fd5b7f4e487b7100000000000000000000000000000000000000000000000000000000600052603260045260246000fd5b60008083357fffffffffffffffffffffffffffffffffffffffffffffffffffffffffffffffe1843603018112610f6c57600080fd5b83018035915067ffffffffffffffff821115610f8757600080fd5b602001915036819003821315610f9c57600080fd5b9250929050565b8183823760009101908152919050565b600060208284031215610fc557600080fd5b815167ffffffffffffffff80821115610fdd57600080fd5b818401915084601f830112610ff157600080fd5b81518181111561100357611003610ed9565b604051601f82017fffffffffffffffffffffffffffffffffffffffffffffffffffffffffffffffe0908116603f0116810190838211818310171561104957611049610ed9565b8160405282815287602084870101111561106257600080fd5b611073836020830160208801610d53565b979650505050505050565b6020815260006110916020830184610d83565b9392505050565b6000602082840312156110aa57600080fd5b815161109181610c57565b73ffffffffffffffffffffffffffffffffffffffff831681526040602082015260006110e46040830184610d83565b949350505050565b6000602082840312156110fe57600080fd5b815161109181610e4d565b6000806040838503121561111c57600080fd5b50508051602090910151909290915056fea264697066735822122023cfc6f92b16814f3018727b41c432f9ce10f5b36721eaa1119583d9287ff9b964736f6c634300080a0033",
  "devdoc": {
    "kind": "dev",
    "methods": {
      "migrate(address,uint256,uint256,bool,uint256,uint256,uint256)": {
        "details": "If the pool with the current conditions doesn't exist it will be deployed. ",
        "params": {
          "amount": "Liquidity amount (Lp token balance) to be migrated.",
          "minLpReceived": "Slippage protection for minting liquidity on the Trident CP pool.",
          "minToken0Received": "Slippage protection for removing liquidity from a UniV2 style pool.",
          "minToken1Received": "Slippage protection for removing liquidity from a UniV2 style pool.",
          "pair": "Uniswap V2 style liquidity pool address.",
          "swapFee": "Swap fee of the Trident CP pool we are migrating into.",
          "twapSupport": "Whether the Trident CP pool we are migrating into supports twap oracles."
        }
      }
    },
    "version": 1
  },
  "userdoc": {
    "kind": "user",
    "methods": {
      "migrate(address,uint256,uint256,bool,uint256,uint256,uint256)": {
        "notice": "Function to migrate existing Sushiswap or other Uniswap V2 style pools to Trident."
      }
    },
    "notice": "Liquidity migrator from UniV2 style pool to Trident Constant product pool.",
    "version": 1
  },
  "storageLayout": {
    "storage": [],
    "types": null
  }
}