{
  "address": "0xc5017BE80b4446988e8686168396289a9A62668E",
  "abi": [
    {
      "inputs": [
        {
          "internalType": "contract IBentoBoxMinimal",
          "name": "_bento",
          "type": "address"
        },
        {
          "internalType": "contract IMasterDeployer",
          "name": "_masterDeployer",
          "type": "address"
        },
        {
          "internalType": "address",
          "name": "_wETH",
          "type": "address"
        }
      ],
      "stateMutability": "nonpayable",
      "type": "constructor"
    },
    {
      "inputs": [],
      "name": "IncorrectTokenWithdrawn",
      "type": "error"
    },
    {
      "inputs": [],
      "name": "InsufficientWETH",
      "type": "error"
    },
    {
      "inputs": [],
      "name": "InvalidPool",
      "type": "error"
    },
    {
      "inputs": [],
      "name": "NotEnoughLiquidityMinted",
      "type": "error"
    },
    {
      "inputs": [],
      "name": "NotWethSender",
      "type": "error"
    },
    {
      "inputs": [],
      "name": "TooLittleReceived",
      "type": "error"
    },
    {
      "inputs": [
        {
          "components": [
            {
              "internalType": "address",
              "name": "token",
              "type": "address"
            },
            {
              "internalType": "bool",
              "name": "native",
              "type": "bool"
            },
            {
              "internalType": "uint256",
              "name": "amount",
              "type": "uint256"
            }
          ],
          "internalType": "struct ITridentRouter.TokenInput[]",
          "name": "tokenInput",
          "type": "tuple[]"
        },
        {
          "internalType": "address",
          "name": "pool",
          "type": "address"
        },
        {
          "internalType": "uint256",
          "name": "minLiquidity",
          "type": "uint256"
        },
        {
          "internalType": "bytes",
          "name": "data",
          "type": "bytes"
        }
      ],
      "name": "addLiquidity",
      "outputs": [
        {
          "internalType": "uint256",
          "name": "liquidity",
          "type": "uint256"
        }
      ],
      "stateMutability": "payable",
      "type": "function"
    },
    {
      "inputs": [
        {
          "internalType": "uint8",
          "name": "v",
          "type": "uint8"
        },
        {
          "internalType": "bytes32",
          "name": "r",
          "type": "bytes32"
        },
        {
          "internalType": "bytes32",
          "name": "s",
          "type": "bytes32"
        }
      ],
      "name": "approveMasterContract",
      "outputs": [],
      "stateMutability": "payable",
      "type": "function"
    },
    {
      "inputs": [],
      "name": "bento",
      "outputs": [
        {
          "internalType": "contract IBentoBoxMinimal",
          "name": "",
          "type": "address"
        }
      ],
      "stateMutability": "view",
      "type": "function"
    },
    {
      "inputs": [
        {
          "internalType": "address",
          "name": "pool",
          "type": "address"
        },
        {
          "internalType": "uint256",
          "name": "liquidity",
          "type": "uint256"
        },
        {
          "internalType": "bytes",
          "name": "data",
          "type": "bytes"
        },
        {
          "components": [
            {
              "internalType": "address",
              "name": "token",
              "type": "address"
            },
            {
              "internalType": "uint256",
              "name": "amount",
              "type": "uint256"
            }
          ],
          "internalType": "struct IPool.TokenAmount[]",
          "name": "minWithdrawals",
          "type": "tuple[]"
        }
      ],
      "name": "burnLiquidity",
      "outputs": [],
      "stateMutability": "nonpayable",
      "type": "function"
    },
    {
      "inputs": [
        {
          "internalType": "address",
          "name": "pool",
          "type": "address"
        },
        {
          "internalType": "uint256",
          "name": "liquidity",
          "type": "uint256"
        },
        {
          "internalType": "bytes",
          "name": "data",
          "type": "bytes"
        },
        {
          "internalType": "uint256",
          "name": "minWithdrawal",
          "type": "uint256"
        }
      ],
      "name": "burnLiquiditySingle",
      "outputs": [],
      "stateMutability": "nonpayable",
      "type": "function"
    },
    {
      "inputs": [
        {
          "components": [
            {
              "components": [
                {
                  "internalType": "address",
                  "name": "tokenIn",
                  "type": "address"
                },
                {
                  "internalType": "address",
                  "name": "pool",
                  "type": "address"
                },
                {
                  "internalType": "bool",
                  "name": "native",
                  "type": "bool"
                },
                {
                  "internalType": "uint256",
                  "name": "amount",
                  "type": "uint256"
                },
                {
                  "internalType": "bytes",
                  "name": "data",
                  "type": "bytes"
                }
              ],
              "internalType": "struct ITridentRouter.InitialPath[]",
              "name": "initialPath",
              "type": "tuple[]"
            },
            {
              "components": [
                {
                  "internalType": "address",
                  "name": "tokenIn",
                  "type": "address"
                },
                {
                  "internalType": "address",
                  "name": "pool",
                  "type": "address"
                },
                {
                  "internalType": "uint64",
                  "name": "balancePercentage",
                  "type": "uint64"
                },
                {
                  "internalType": "bytes",
                  "name": "data",
                  "type": "bytes"
                }
              ],
              "internalType": "struct ITridentRouter.PercentagePath[]",
              "name": "percentagePath",
              "type": "tuple[]"
            },
            {
              "components": [
                {
                  "internalType": "address",
                  "name": "token",
                  "type": "address"
                },
                {
                  "internalType": "address",
                  "name": "to",
                  "type": "address"
                },
                {
                  "internalType": "bool",
                  "name": "unwrapBento",
                  "type": "bool"
                },
                {
                  "internalType": "uint256",
                  "name": "minAmount",
                  "type": "uint256"
                }
              ],
              "internalType": "struct ITridentRouter.Output[]",
              "name": "output",
              "type": "tuple[]"
            }
          ],
          "internalType": "struct ITridentRouter.ComplexPathParams",
          "name": "params",
          "type": "tuple"
        }
      ],
      "name": "complexPath",
      "outputs": [],
      "stateMutability": "payable",
      "type": "function"
    },
    {
      "inputs": [
        {
          "internalType": "address",
          "name": "factory",
          "type": "address"
        },
        {
          "internalType": "bytes",
          "name": "deployData",
          "type": "bytes"
        }
      ],
      "name": "deployPool",
      "outputs": [
        {
          "internalType": "address",
          "name": "",
          "type": "address"
        }
      ],
      "stateMutability": "payable",
      "type": "function"
    },
    {
      "inputs": [
        {
          "components": [
            {
              "internalType": "address",
              "name": "tokenIn",
              "type": "address"
            },
            {
              "internalType": "uint256",
              "name": "amountIn",
              "type": "uint256"
            },
            {
              "internalType": "uint256",
              "name": "amountOutMinimum",
              "type": "uint256"
            },
            {
              "components": [
                {
                  "internalType": "address",
                  "name": "pool",
                  "type": "address"
                },
                {
                  "internalType": "bytes",
                  "name": "data",
                  "type": "bytes"
                }
              ],
              "internalType": "struct ITridentRouter.Path[]",
              "name": "path",
              "type": "tuple[]"
            }
          ],
          "internalType": "struct ITridentRouter.ExactInputParams",
          "name": "params",
          "type": "tuple"
        }
      ],
      "name": "exactInput",
      "outputs": [
        {
          "internalType": "uint256",
          "name": "amountOut",
          "type": "uint256"
        }
      ],
      "stateMutability": "payable",
      "type": "function"
    },
    {
      "inputs": [
        {
          "components": [
            {
              "internalType": "uint256",
              "name": "amountIn",
              "type": "uint256"
            },
            {
              "internalType": "uint256",
              "name": "amountOutMinimum",
              "type": "uint256"
            },
            {
              "internalType": "address",
              "name": "pool",
              "type": "address"
            },
            {
              "internalType": "address",
              "name": "tokenIn",
              "type": "address"
            },
            {
              "internalType": "bytes",
              "name": "data",
              "type": "bytes"
            }
          ],
          "internalType": "struct ITridentRouter.ExactInputSingleParams",
          "name": "params",
          "type": "tuple"
        }
      ],
      "name": "exactInputSingle",
      "outputs": [
        {
          "internalType": "uint256",
          "name": "amountOut",
          "type": "uint256"
        }
      ],
      "stateMutability": "payable",
      "type": "function"
    },
    {
      "inputs": [
        {
          "components": [
            {
              "internalType": "uint256",
              "name": "amountIn",
              "type": "uint256"
            },
            {
              "internalType": "uint256",
              "name": "amountOutMinimum",
              "type": "uint256"
            },
            {
              "internalType": "address",
              "name": "pool",
              "type": "address"
            },
            {
              "internalType": "address",
              "name": "tokenIn",
              "type": "address"
            },
            {
              "internalType": "bytes",
              "name": "data",
              "type": "bytes"
            }
          ],
          "internalType": "struct ITridentRouter.ExactInputSingleParams",
          "name": "params",
          "type": "tuple"
        }
      ],
      "name": "exactInputSingleWithNativeToken",
      "outputs": [
        {
          "internalType": "uint256",
          "name": "amountOut",
          "type": "uint256"
        }
      ],
      "stateMutability": "payable",
      "type": "function"
    },
    {
      "inputs": [
        {
          "components": [
            {
              "internalType": "address",
              "name": "tokenIn",
              "type": "address"
            },
            {
              "internalType": "uint256",
              "name": "amountIn",
              "type": "uint256"
            },
            {
              "internalType": "uint256",
              "name": "amountOutMinimum",
              "type": "uint256"
            },
            {
              "components": [
                {
                  "internalType": "address",
                  "name": "pool",
                  "type": "address"
                },
                {
                  "internalType": "bytes",
                  "name": "data",
                  "type": "bytes"
                }
              ],
              "internalType": "struct ITridentRouter.Path[]",
              "name": "path",
              "type": "tuple[]"
            }
          ],
          "internalType": "struct ITridentRouter.ExactInputParams",
          "name": "params",
          "type": "tuple"
        }
      ],
      "name": "exactInputWithNativeToken",
      "outputs": [
        {
          "internalType": "uint256",
          "name": "amountOut",
          "type": "uint256"
        }
      ],
      "stateMutability": "payable",
      "type": "function"
    },
    {
      "inputs": [],
      "name": "masterDeployer",
      "outputs": [
        {
          "internalType": "contract IMasterDeployer",
          "name": "",
          "type": "address"
        }
      ],
      "stateMutability": "view",
      "type": "function"
    },
    {
      "inputs": [
        {
          "internalType": "bytes[]",
          "name": "data",
          "type": "bytes[]"
        }
      ],
      "name": "multicall",
      "outputs": [
        {
          "internalType": "bytes[]",
          "name": "results",
          "type": "bytes[]"
        }
      ],
      "stateMutability": "payable",
      "type": "function"
    },
    {
      "inputs": [
        {
          "internalType": "address",
          "name": "token",
          "type": "address"
        },
        {
          "internalType": "uint256",
          "name": "value",
          "type": "uint256"
        },
        {
          "internalType": "uint256",
          "name": "deadline",
          "type": "uint256"
        },
        {
          "internalType": "uint8",
          "name": "v",
          "type": "uint8"
        },
        {
          "internalType": "bytes32",
          "name": "r",
          "type": "bytes32"
        },
        {
          "internalType": "bytes32",
          "name": "s",
          "type": "bytes32"
        }
      ],
      "name": "selfPermit",
      "outputs": [],
      "stateMutability": "payable",
      "type": "function"
    },
    {
      "inputs": [
        {
          "internalType": "address",
          "name": "token",
          "type": "address"
        },
        {
          "internalType": "uint256",
          "name": "nonce",
          "type": "uint256"
        },
        {
          "internalType": "uint256",
          "name": "expiry",
          "type": "uint256"
        },
        {
          "internalType": "uint8",
          "name": "v",
          "type": "uint8"
        },
        {
          "internalType": "bytes32",
          "name": "r",
          "type": "bytes32"
        },
        {
          "internalType": "bytes32",
          "name": "s",
          "type": "bytes32"
        }
      ],
      "name": "selfPermitAllowed",
      "outputs": [],
      "stateMutability": "payable",
      "type": "function"
    },
    {
      "inputs": [
        {
          "internalType": "address",
          "name": "token",
          "type": "address"
        },
        {
          "internalType": "uint256",
          "name": "nonce",
          "type": "uint256"
        },
        {
          "internalType": "uint256",
          "name": "expiry",
          "type": "uint256"
        },
        {
          "internalType": "uint8",
          "name": "v",
          "type": "uint8"
        },
        {
          "internalType": "bytes32",
          "name": "r",
          "type": "bytes32"
        },
        {
          "internalType": "bytes32",
          "name": "s",
          "type": "bytes32"
        }
      ],
      "name": "selfPermitAllowedIfNecessary",
      "outputs": [],
      "stateMutability": "payable",
      "type": "function"
    },
    {
      "inputs": [
        {
          "internalType": "address",
          "name": "token",
          "type": "address"
        },
        {
          "internalType": "uint256",
          "name": "value",
          "type": "uint256"
        },
        {
          "internalType": "uint256",
          "name": "deadline",
          "type": "uint256"
        },
        {
          "internalType": "uint8",
          "name": "v",
          "type": "uint8"
        },
        {
          "internalType": "bytes32",
          "name": "r",
          "type": "bytes32"
        },
        {
          "internalType": "bytes32",
          "name": "s",
          "type": "bytes32"
        }
      ],
      "name": "selfPermitIfNecessary",
      "outputs": [],
      "stateMutability": "payable",
      "type": "function"
    },
    {
      "inputs": [
        {
          "internalType": "address",
          "name": "token",
          "type": "address"
        },
        {
          "internalType": "uint256",
          "name": "amount",
          "type": "uint256"
        },
        {
          "internalType": "address",
          "name": "recipient",
          "type": "address"
        },
        {
          "internalType": "bool",
          "name": "onBento",
          "type": "bool"
        }
      ],
      "name": "sweep",
      "outputs": [],
      "stateMutability": "payable",
      "type": "function"
    },
    {
      "inputs": [
        {
          "internalType": "uint256",
          "name": "amountMinimum",
          "type": "uint256"
        },
        {
          "internalType": "address",
          "name": "recipient",
          "type": "address"
        }
      ],
      "name": "unwrapWETH",
      "outputs": [],
      "stateMutability": "payable",
      "type": "function"
    },
    {
      "stateMutability": "payable",
      "type": "receive"
    }
  ],
  "transactionHash": "0x632787e41da5737b82638d78e53302a533e55297b232a71ae1309fef8e0a106c",
  "args": [
    "0x0319000133d3AdA02600f0875d2cf03D442C3367",
    "0x351447fc9bd20A917783E159e61E86EDDA0b0187",
    "0x0d500B1d8E8eF31E21C99d1Db9A6444d3ADf1270"
  ],
  "numDeployments": 1,
  "solcInputHash": "bdc4913d6061a42ffd76126bbf998ad8",
  "bytecode": "0x60e06040523480156200001157600080fd5b5060405162003aca38038062003aca8339810160408190526200003491620000c3565b6001600160a01b03808416608081905283821660a05290821660c0526040805163577268d960e11b8152905163aee4d1b29160048082019260009290919082900301818387803b1580156200008857600080fd5b505af11580156200009d573d6000803e3d6000fd5b5050505050505062000117565b6001600160a01b0381168114620000c057600080fd5b50565b600080600060608486031215620000d957600080fd5b8351620000e681620000aa565b6020850151909350620000f981620000aa565b60408501519092506200010c81620000aa565b809150509250925092565b60805160a05160c051613913620001b760003960008181610165015281816122cf01526123c0015260008181610385015281816108de01526126450152600081816102b2015281816105e10152818161097b01528181610c4501528181610e95015281816115b301528181611883015281816119ff01528181611ca401528181611e4201528181611f9a0152818161212b01526124eb01526139136000f3fe6080604052600436106101485760003560e01c8063783312d9116100c0578063bc10869311610074578063cf58879a11610059578063cf58879a14610373578063e16d9ce5146103a7578063f3995c67146103ba57600080fd5b8063bc1086931461034d578063c2e3140a1461036057600080fd5b8063a4a78f0c116100a5578063a4a78f0c14610307578063ac9650d81461031a578063b96c5c0e1461033a57600080fd5b8063783312d9146102d45780639fa74491146102f457600080fd5b80632c0d9a0111610117578063403335a8116100fc578063403335a81461027a5780634659a4941461028d5780634da31827146102a057600080fd5b80632c0d9a01146102545780632cfcb94f1461026757600080fd5b80630b0d1b1e146101c35780630f93d439146101e95780631aa349a8146101fc578063250558dc1461021c57600080fd5b366101be573373ffffffffffffffffffffffffffffffffffffffff7f000000000000000000000000000000000000000000000000000000000000000016146101bc576040517fe7218bb300000000000000000000000000000000000000000000000000000000815260040160405180910390fd5b005b600080fd5b6101d66101d1366004612af6565b6103cd565b6040519081526020015b60405180910390f35b6101d66101f7366004612b38565b6105c8565b34801561020857600080fd5b506101bc610217366004612be9565b610795565b61022f61022a366004612c4d565b61089e565b60405173ffffffffffffffffffffffffffffffffffffffff90911681526020016101e0565b6101d6610262366004612af6565b610962565b6101d6610275366004612ca2565b610bac565b6101bc610288366004612d6e565b610e43565b6101bc61029b366004612da1565b610f0b565b3480156102ac57600080fd5b5061022f7f000000000000000000000000000000000000000000000000000000000000000081565b3480156102e057600080fd5b506101bc6102ef366004612dfb565b610fc6565b6101d6610302366004612b38565b61121a565b6101bc610315366004612da1565b611256565b61032d610328366004612eb6565b611320565b6040516101e09190612fa1565b6101bc610348366004613021565b611490565b6101bc61035b36600461306a565b6120cb565b6101bc61036e366004612da1565b6121f4565b34801561037f57600080fd5b5061022f7f000000000000000000000000000000000000000000000000000000000000000081565b6101bc6103b53660046130bd565b61229e565b6101bc6103c8366004612da1565b612457565b60006104276103df60208401846130ed565b6103ec606085018561310a565b60008181106103fd576103fd613172565b905060200281019061040f91906131a1565b61041d9060208101906130ed565b84602001356124d4565b60005b610437606084018461310a565b905081101561058457610485610450606085018561310a565b8381811061046057610460613172565b905060200281019061047291906131a1565b6104809060208101906130ed565b6125d3565b610492606084018461310a565b828181106104a2576104a2613172565b90506020028101906104b491906131a1565b6104c29060208101906130ed565b73ffffffffffffffffffffffffffffffffffffffff1663627dd56a6104ea606086018661310a565b848181106104fa576104fa613172565b905060200281019061050c91906131a1565b61051a9060208101906131df565b6040518363ffffffff1660e01b815260040161053792919061328d565b6020604051808303816000875af1158015610556573d6000803e3d6000fd5b505050506040513d601f19601f8201168201806040525081019061057a91906132a1565b915060010161042a565b5081604001358110156105c3576040517fc9f52c7100000000000000000000000000000000000000000000000000000000815260040160405180910390fd5b919050565b600073ffffffffffffffffffffffffffffffffffffffff7f00000000000000000000000000000000000000000000000000000000000000001663f18d03cc61061660808501606086016130ed565b3361062760608701604088016130ed565b6040517fffffffff0000000000000000000000000000000000000000000000000000000060e086901b16815273ffffffffffffffffffffffffffffffffffffffff93841660048201529183166024830152909116604482015284356064820152608401600060405180830381600087803b1580156106a457600080fd5b505af11580156106b8573d6000803e3d6000fd5b506106cd9250505060608301604084016130ed565b73ffffffffffffffffffffffffffffffffffffffff1663627dd56a6106f560808501856131df565b6040518363ffffffff1660e01b815260040161071292919061328d565b6020604051808303816000875af1158015610731573d6000803e3d6000fd5b505050506040513d601f19601f8201168201806040525081019061075591906132a1565b905081602001358110156105c3576040517fc9f52c7100000000000000000000000000000000000000000000000000000000815260040160405180910390fd5b61079e856125d3565b6107c073ffffffffffffffffffffffffffffffffffffffff8616338787612738565b6040517faf8c09bf00000000000000000000000000000000000000000000000000000000815260009073ffffffffffffffffffffffffffffffffffffffff87169063af8c09bf90610817908790879060040161328d565b6020604051808303816000875af1158015610836573d6000803e3d6000fd5b505050506040513d601f19601f8201168201806040525081019061085a91906132a1565b905081811015610896576040517fc9f52c7100000000000000000000000000000000000000000000000000000000815260040160405180910390fd5b505050505050565b6040517f250558dc00000000000000000000000000000000000000000000000000000000815260009073ffffffffffffffffffffffffffffffffffffffff7f0000000000000000000000000000000000000000000000000000000000000000169063250558dc90610917908790879087906004016132ba565b6020604051808303816000875af1158015610936573d6000803e3d6000fd5b505050506040513d601f19601f8201168201806040525081019061095a91906132f3565b949350505050565b600073ffffffffffffffffffffffffffffffffffffffff7f00000000000000000000000000000000000000000000000000000000000000001663f18d03cc6109ad60208501856130ed565b336109bb606087018761310a565b60008181106109cc576109cc613172565b90506020028101906109de91906131a1565b6109ec9060208101906130ed565b60405160e085901b7fffffffff0000000000000000000000000000000000000000000000000000000016815273ffffffffffffffffffffffffffffffffffffffff93841660048201529183166024830152909116604482015260208501356064820152608401600060405180830381600087803b158015610a6c57600080fd5b505af1158015610a80573d6000803e3d6000fd5b5050505060005b610a94606084018461310a565b905081101561058457610aad610450606085018561310a565b610aba606084018461310a565b82818110610aca57610aca613172565b9050602002810190610adc91906131a1565b610aea9060208101906130ed565b73ffffffffffffffffffffffffffffffffffffffff1663627dd56a610b12606086018661310a565b84818110610b2257610b22613172565b9050602002810190610b3491906131a1565b610b429060208101906131df565b6040518363ffffffff1660e01b8152600401610b5f92919061328d565b6020604051808303816000875af1158015610b7e573d6000803e3d6000fd5b505050506040513d601f19601f82011682018060405250810190610ba291906132a1565b9150600101610a87565b6000610bb7856125d3565b60005b86811015610d6557878782818110610bd457610bd4613172565b9050606002016020016020810190610bec9190613310565b15610c4357610c3e888883818110610c0657610c06613172565b610c1c92602060609092020190810191506130ed565b878a8a85818110610c2f57610c2f613172565b905060600201604001356124d4565b610d5d565b7f000000000000000000000000000000000000000000000000000000000000000073ffffffffffffffffffffffffffffffffffffffff1663f18d03cc898984818110610c9157610c91613172565b610ca792602060609092020190810191506130ed565b33898c8c87818110610cbb57610cbb613172565b604080517fffffffff0000000000000000000000000000000000000000000000000000000060e08a901b16815273ffffffffffffffffffffffffffffffffffffffff978816600482015295871660248701529590931660448501525060609091020191909101356064820152608401600060405180830381600087803b158015610d4457600080fd5b505af1158015610d58573d6000803e3d6000fd5b505050505b600101610bba565b506040517f7ba0e2e700000000000000000000000000000000000000000000000000000000815273ffffffffffffffffffffffffffffffffffffffff861690637ba0e2e790610dba908690869060040161328d565b6020604051808303816000875af1158015610dd9573d6000803e3d6000fd5b505050506040513d601f19601f82011682018060405250810190610dfd91906132a1565b905083811015610e39576040517f249942be00000000000000000000000000000000000000000000000000000000815260040160405180910390fd5b9695505050505050565b6040517fc0a47c930000000000000000000000000000000000000000000000000000000081523360048201523060248201526001604482015260ff841660648201526084810183905260a481018290527f000000000000000000000000000000000000000000000000000000000000000073ffffffffffffffffffffffffffffffffffffffff169063c0a47c939060c401600060405180830381600087803b158015610eee57600080fd5b505af1158015610f02573d6000803e3d6000fd5b50505050505050565b6040517f8fcbaf0c00000000000000000000000000000000000000000000000000000000815233600482015230602482015260448101869052606481018590526001608482015260ff841660a482015260c4810183905260e4810182905273ffffffffffffffffffffffffffffffffffffffff871690638fcbaf0c90610104015b600060405180830381600087803b158015610fa657600080fd5b505af1158015610fba573d6000803e3d6000fd5b50505050505050505050565b610fcf866125d3565b610ff173ffffffffffffffffffffffffffffffffffffffff8716338888612738565b6040517f2a07b6c700000000000000000000000000000000000000000000000000000000815260009073ffffffffffffffffffffffffffffffffffffffff881690632a07b6c790611048908890889060040161328d565b6000604051808303816000875af1158015611067573d6000803e3d6000fd5b505050506040513d6000823e601f3d9081017fffffffffffffffffffffffffffffffffffffffffffffffffffffffffffffffe01682016040526110ad91908101906133d4565b905060005b828110156112105760005b82518110156111c5578484838181106110d8576110d8613172565b6110ee92602060409092020190810191506130ed565b73ffffffffffffffffffffffffffffffffffffffff1683828151811061111657611116613172565b60200260200101516000015173ffffffffffffffffffffffffffffffffffffffff1614156111b55784848381811061115057611150613172565b9050604002016020013583828151811061116c5761116c613172565b60200260200101516020015110156111b0576040517fc9f52c7100000000000000000000000000000000000000000000000000000000815260040160405180910390fd5b6111c5565b6111be816134d9565b90506110bd565b825181106111ff576040517f85b6199600000000000000000000000000000000000000000000000000000000815260040160405180910390fd5b50611209816134d9565b90506110b2565b5050505050505050565b600061124661122f60808401606085016130ed565b61123f60608501604086016130ed565b84356124d4565b6106cd60608301604084016130ed565b6040517fdd62ed3e0000000000000000000000000000000000000000000000000000000081523360048201523060248201527fffffffffffffffffffffffffffffffffffffffffffffffffffffffffffffffff9073ffffffffffffffffffffffffffffffffffffffff88169063dd62ed3e90604401602060405180830381865afa1580156112e8573d6000803e3d6000fd5b505050506040513d601f19601f8201168201806040525081019061130c91906132a1565b101561089657610896868686868686610f0b565b60608167ffffffffffffffff81111561133b5761133b61332d565b60405190808252806020026020018201604052801561136e57816020015b60608152602001906001900390816113595790505b50905060005b82811015611489576000803086868581811061139257611392613172565b90506020028101906113a491906131df565b6040516113b2929190613512565b600060405180830381855af49150503d80600081146113ed576040519150601f19603f3d011682016040523d82523d6000602084013e6113f2565b606091505b5091509150816114615760448151101561140b57600080fd5b600481019050808060200190518101906114259190613522565b6040517f08c379a000000000000000000000000000000000000000000000000000000000815260040161145891906135d4565b60405180910390fd5b8084848151811061147457611474613172565b60209081029190910101525050600101611374565b5092915050565b60005b61149d828061310a565b9050811015611850576114b0828061310a565b828181106114c0576114c0613172565b90506020028101906114d291906135e7565b6114e3906060810190604001613310565b1561159c576115976114f5838061310a565b8381811061150557611505613172565b905060200281019061151791906135e7565b6115259060208101906130ed565b61152f848061310a565b8481811061153f5761153f613172565b905060200281019061155191906135e7565b6115629060408101906020016130ed565b61156c858061310a565b8581811061157c5761157c613172565b905060200281019061158e91906135e7565b606001356124d4565b611715565b73ffffffffffffffffffffffffffffffffffffffff7f00000000000000000000000000000000000000000000000000000000000000001663f18d03cc6115e2848061310a565b848181106115f2576115f2613172565b905060200281019061160491906135e7565b6116129060208101906130ed565b3361161d868061310a565b8681811061162d5761162d613172565b905060200281019061163f91906135e7565b6116509060408101906020016130ed565b61165a878061310a565b8781811061166a5761166a613172565b905060200281019061167c91906135e7565b60405160e086901b7fffffffff0000000000000000000000000000000000000000000000000000000016815273ffffffffffffffffffffffffffffffffffffffff94851660048201529284166024840152921660448201526060909101356064820152608401600060405180830381600087803b1580156116fc57600080fd5b505af1158015611710573d6000803e3d6000fd5b505050505b611755611722838061310a565b8381811061173257611732613172565b905060200281019061174491906135e7565b6104809060408101906020016130ed565b61175f828061310a565b8281811061176f5761176f613172565b905060200281019061178191906135e7565b6117929060408101906020016130ed565b73ffffffffffffffffffffffffffffffffffffffff1663627dd56a6117b7848061310a565b848181106117c7576117c7613172565b90506020028101906117d991906135e7565b6117e79060808101906131df565b6040518363ffffffff1660e01b815260040161180492919061328d565b6020604051808303816000875af1158015611823573d6000803e3d6000fd5b505050506040513d601f19601f8201168201806040525081019061184791906132a1565b50600101611493565b5060005b611861602083018361310a565b9050811015611c7157600073ffffffffffffffffffffffffffffffffffffffff7f00000000000000000000000000000000000000000000000000000000000000001663f7888aec6118b5602086018661310a565b858181106118c5576118c5613172565b90506020028101906118d7919061361b565b6118e59060208101906130ed565b6040517fffffffff0000000000000000000000000000000000000000000000000000000060e084901b16815273ffffffffffffffffffffffffffffffffffffffff9091166004820152306024820152604401602060405180830381865afa158015611954573d6000803e3d6000fd5b505050506040513d601f19601f8201168201806040525081019061197891906132a1565b905060006119886008600a613771565b611995602086018661310a565b858181106119a5576119a5613172565b90506020028101906119b7919061361b565b6119c8906060810190604001613780565b6119dc9067ffffffffffffffff16846137aa565b6119e691906137e7565b905073ffffffffffffffffffffffffffffffffffffffff7f00000000000000000000000000000000000000000000000000000000000000001663f18d03cc611a31602087018761310a565b86818110611a4157611a41613172565b9050602002810190611a53919061361b565b611a619060208101906130ed565b30611a6f602089018961310a565b88818110611a7f57611a7f613172565b9050602002810190611a91919061361b565b611aa29060408101906020016130ed565b60405160e085901b7fffffffff0000000000000000000000000000000000000000000000000000000016815273ffffffffffffffffffffffffffffffffffffffff93841660048201529183166024830152909116604482015260648101849052608401600060405180830381600087803b158015611b1f57600080fd5b505af1158015611b33573d6000803e3d6000fd5b50611b6b9250611b49915050602086018661310a565b85818110611b5957611b59613172565b9050602002810190611744919061361b565b611b78602085018561310a565b84818110611b8857611b88613172565b9050602002810190611b9a919061361b565b611bab9060408101906020016130ed565b73ffffffffffffffffffffffffffffffffffffffff1663627dd56a611bd3602087018761310a565b86818110611be357611be3613172565b9050602002810190611bf5919061361b565b611c039060608101906131df565b6040518363ffffffff1660e01b8152600401611c2092919061328d565b6020604051808303816000875af1158015611c3f573d6000803e3d6000fd5b505050506040513d601f19601f82011682018060405250810190611c6391906132a1565b508260010192505050611854565b5060005b611c826040830183613822565b90508110156120c757600073ffffffffffffffffffffffffffffffffffffffff7f00000000000000000000000000000000000000000000000000000000000000001663f7888aec611cd66040860186613822565b85818110611ce657611ce6613172565b611cfc92602060809092020190810191506130ed565b6040517fffffffff0000000000000000000000000000000000000000000000000000000060e084901b16815273ffffffffffffffffffffffffffffffffffffffff9091166004820152306024820152604401602060405180830381865afa158015611d6b573d6000803e3d6000fd5b505050506040513d601f19601f82011682018060405250810190611d8f91906132a1565b9050611d9e6040840184613822565b83818110611dae57611dae613172565b90506080020160600135811015611df1576040517fc9f52c7100000000000000000000000000000000000000000000000000000000815260040160405180910390fd5b611dfe6040840184613822565b83818110611e0e57611e0e613172565b9050608002016040016020810190611e269190613310565b15611f835773ffffffffffffffffffffffffffffffffffffffff7f0000000000000000000000000000000000000000000000000000000000000000166397da6d30611e746040860186613822565b85818110611e8457611e84613172565b611e9a92602060809092020190810191506130ed565b30611ea86040880188613822565b87818110611eb857611eb8613172565b9050608002016020016020810190611ed091906130ed565b60405160e085901b7fffffffff0000000000000000000000000000000000000000000000000000000016815273ffffffffffffffffffffffffffffffffffffffff938416600482015291831660248301529091166044820152600060648201526084810184905260a40160408051808303816000875af1158015611f58573d6000803e3d6000fd5b505050506040513d601f19601f82011682018060405250810190611f7c919061388a565b50506120be565b73ffffffffffffffffffffffffffffffffffffffff7f00000000000000000000000000000000000000000000000000000000000000001663f18d03cc611fcc6040860186613822565b85818110611fdc57611fdc613172565b611ff292602060809092020190810191506130ed565b306120006040880188613822565b8781811061201057612010613172565b905060800201602001602081019061202891906130ed565b60405160e085901b7fffffffff0000000000000000000000000000000000000000000000000000000016815273ffffffffffffffffffffffffffffffffffffffff93841660048201529183166024830152909116604482015260648101849052608401600060405180830381600087803b1580156120a557600080fd5b505af11580156120b9573d6000803e3d6000fd5b505050505b50600101611c75565b5050565b801561218c576040517ff18d03cc00000000000000000000000000000000000000000000000000000000815273ffffffffffffffffffffffffffffffffffffffff85811660048301523060248301528381166044830152606482018590527f0000000000000000000000000000000000000000000000000000000000000000169063f18d03cc90608401600060405180830381600087803b15801561216f57600080fd5b505af1158015612183573d6000803e3d6000fd5b505050506121ee565b73ffffffffffffffffffffffffffffffffffffffff8416156121ce576121c973ffffffffffffffffffffffffffffffffffffffff851683856128a9565b6121ee565b6121ee73ffffffffffffffffffffffffffffffffffffffff831647612a12565b50505050565b6040517fdd62ed3e000000000000000000000000000000000000000000000000000000008152336004820152306024820152859073ffffffffffffffffffffffffffffffffffffffff88169063dd62ed3e90604401602060405180830381865afa158015612266573d6000803e3d6000fd5b505050506040513d601f19601f8201168201806040525081019061228a91906132a1565b101561089657610896868686868686612457565b6040517f70a082310000000000000000000000000000000000000000000000000000000081523060048201526000907f000000000000000000000000000000000000000000000000000000000000000073ffffffffffffffffffffffffffffffffffffffff16906370a0823190602401602060405180830381865afa15801561232b573d6000803e3d6000fd5b505050506040513d601f19601f8201168201806040525081019061234f91906132a1565b90508281101561238b576040517f6f2750f500000000000000000000000000000000000000000000000000000000815260040160405180910390fd5b8015612452576040517f2e1a7d4d000000000000000000000000000000000000000000000000000000008152600481018290527f000000000000000000000000000000000000000000000000000000000000000073ffffffffffffffffffffffffffffffffffffffff1690632e1a7d4d90602401600060405180830381600087803b15801561241957600080fd5b505af115801561242d573d6000803e3d6000fd5b506124529250505073ffffffffffffffffffffffffffffffffffffffff831682612a12565b505050565b6040517fd505accf000000000000000000000000000000000000000000000000000000008152336004820152306024820152604481018690526064810185905260ff8416608482015260a4810183905260c4810182905273ffffffffffffffffffffffffffffffffffffffff87169063d505accf9060e401610f8c565b73ffffffffffffffffffffffffffffffffffffffff7f00000000000000000000000000000000000000000000000000000000000000008116906302b9446c90851615612521576000612523565b825b6040517fffffffff0000000000000000000000000000000000000000000000000000000060e084901b16815273ffffffffffffffffffffffffffffffffffffffff808816600483015233602483015286166044820152606481018590526000608482015260a401604080518083038185885af11580156125a7573d6000803e3d6000fd5b50505050506040513d601f19601f820116820180604052508101906125cc919061388a565b5050505050565b73ffffffffffffffffffffffffffffffffffffffff811660009081526020819052604090205460ff16612735576040517fa4063dbc00000000000000000000000000000000000000000000000000000000815273ffffffffffffffffffffffffffffffffffffffff82811660048301527f0000000000000000000000000000000000000000000000000000000000000000169063a4063dbc90602401602060405180830381865afa15801561268c573d6000803e3d6000fd5b505050506040513d601f19601f820116820180604052508101906126b091906138ae565b6126e6576040517f2083cd4000000000000000000000000000000000000000000000000000000000815260040160405180910390fd5b73ffffffffffffffffffffffffffffffffffffffff8116600090815260208190526040902080547fffffffffffffffffffffffffffffffffffffffffffffffffffffffffffffff001660011790555b50565b6040805173ffffffffffffffffffffffffffffffffffffffff85811660248301528481166044830152606480830185905283518084039091018152608490920183526020820180517bffffffffffffffffffffffffffffffffffffffffffffffffffffffff167f23b872dd0000000000000000000000000000000000000000000000000000000017905291516000928392908816916127d791906138cb565b6000604051808303816000865af19150503d8060008114612814576040519150601f19603f3d011682016040523d82523d6000602084013e612819565b606091505b509150915081801561284357508051158061284357508080602001905181019061284391906138ae565b610896576040517f08c379a000000000000000000000000000000000000000000000000000000000815260206004820152600360248201527f53544600000000000000000000000000000000000000000000000000000000006044820152606401611458565b6040805173ffffffffffffffffffffffffffffffffffffffff8481166024830152604480830185905283518084039091018152606490920183526020820180517bffffffffffffffffffffffffffffffffffffffffffffffffffffffff167fa9059cbb00000000000000000000000000000000000000000000000000000000179052915160009283929087169161294091906138cb565b6000604051808303816000865af19150503d806000811461297d576040519150601f19603f3d011682016040523d82523d6000602084013e612982565b606091505b50915091508180156129ac5750805115806129ac5750808060200190518101906129ac91906138ae565b6125cc576040517f08c379a000000000000000000000000000000000000000000000000000000000815260206004820152600260248201527f53540000000000000000000000000000000000000000000000000000000000006044820152606401611458565b6040805160008082526020820190925273ffffffffffffffffffffffffffffffffffffffff8416908390604051612a4991906138cb565b60006040518083038185875af1925050503d8060008114612a86576040519150601f19603f3d011682016040523d82523d6000602084013e612a8b565b606091505b5050905080612452576040517f08c379a000000000000000000000000000000000000000000000000000000000815260206004820152600360248201527f53544500000000000000000000000000000000000000000000000000000000006044820152606401611458565b600060208284031215612b0857600080fd5b813567ffffffffffffffff811115612b1f57600080fd5b820160808185031215612b3157600080fd5b9392505050565b600060208284031215612b4a57600080fd5b813567ffffffffffffffff811115612b6157600080fd5b820160a08185031215612b3157600080fd5b73ffffffffffffffffffffffffffffffffffffffff8116811461273557600080fd5b80356105c381612b73565b60008083601f840112612bb257600080fd5b50813567ffffffffffffffff811115612bca57600080fd5b602083019150836020828501011115612be257600080fd5b9250929050565b600080600080600060808688031215612c0157600080fd5b8535612c0c81612b73565b945060208601359350604086013567ffffffffffffffff811115612c2f57600080fd5b612c3b88828901612ba0565b96999598509660600135949350505050565b600080600060408486031215612c6257600080fd5b8335612c6d81612b73565b9250602084013567ffffffffffffffff811115612c8957600080fd5b612c9586828701612ba0565b9497909650939450505050565b60008060008060008060808789031215612cbb57600080fd5b863567ffffffffffffffff80821115612cd357600080fd5b818901915089601f830112612ce757600080fd5b813581811115612cf657600080fd5b8a6020606083028501011115612d0b57600080fd5b60208301985080975050612d2160208a01612b95565b9550604089013594506060890135915080821115612d3e57600080fd5b50612d4b89828a01612ba0565b979a9699509497509295939492505050565b803560ff811681146105c357600080fd5b600080600060608486031215612d8357600080fd5b612d8c84612d5d565b95602085013595506040909401359392505050565b60008060008060008060c08789031215612dba57600080fd5b8635612dc581612b73565b95506020870135945060408701359350612de160608801612d5d565b92506080870135915060a087013590509295509295509295565b60008060008060008060808789031215612e1457600080fd5b8635612e1f81612b73565b955060208701359450604087013567ffffffffffffffff80821115612e4357600080fd5b612e4f8a838b01612ba0565b90965094506060890135915080821115612e6857600080fd5b818901915089601f830112612e7c57600080fd5b813581811115612e8b57600080fd5b8a60208260061b8501011115612ea057600080fd5b6020830194508093505050509295509295509295565b60008060208385031215612ec957600080fd5b823567ffffffffffffffff80821115612ee157600080fd5b818501915085601f830112612ef557600080fd5b813581811115612f0457600080fd5b8660208260051b8501011115612f1957600080fd5b60209290920196919550909350505050565b60005b83811015612f46578181015183820152602001612f2e565b838111156121ee5750506000910152565b60008151808452612f6f816020860160208601612f2b565b601f017fffffffffffffffffffffffffffffffffffffffffffffffffffffffffffffffe0169290920160200192915050565b6000602080830181845280855180835260408601915060408160051b870101925083870160005b82811015613014577fffffffffffffffffffffffffffffffffffffffffffffffffffffffffffffffc0888603018452613002858351612f57565b94509285019290850190600101612fc8565b5092979650505050505050565b60006020828403121561303357600080fd5b813567ffffffffffffffff81111561304a57600080fd5b820160608185031215612b3157600080fd5b801515811461273557600080fd5b6000806000806080858703121561308057600080fd5b843561308b81612b73565b93506020850135925060408501356130a281612b73565b915060608501356130b28161305c565b939692955090935050565b600080604083850312156130d057600080fd5b8235915060208301356130e281612b73565b809150509250929050565b6000602082840312156130ff57600080fd5b8135612b3181612b73565b60008083357fffffffffffffffffffffffffffffffffffffffffffffffffffffffffffffffe184360301811261313f57600080fd5b83018035915067ffffffffffffffff82111561315a57600080fd5b6020019150600581901b3603821315612be257600080fd5b7f4e487b7100000000000000000000000000000000000000000000000000000000600052603260045260246000fd5b600082357fffffffffffffffffffffffffffffffffffffffffffffffffffffffffffffffc18336030181126131d557600080fd5b9190910192915050565b60008083357fffffffffffffffffffffffffffffffffffffffffffffffffffffffffffffffe184360301811261321457600080fd5b83018035915067ffffffffffffffff82111561322f57600080fd5b602001915036819003821315612be257600080fd5b8183528181602085013750600060208284010152600060207fffffffffffffffffffffffffffffffffffffffffffffffffffffffffffffffe0601f840116840101905092915050565b60208152600061095a602083018486613244565b6000602082840312156132b357600080fd5b5051919050565b73ffffffffffffffffffffffffffffffffffffffff841681526040602082015260006132ea604083018486613244565b95945050505050565b60006020828403121561330557600080fd5b8151612b3181612b73565b60006020828403121561332257600080fd5b8135612b318161305c565b7f4e487b7100000000000000000000000000000000000000000000000000000000600052604160045260246000fd5b6040805190810167ffffffffffffffff8111828210171561337f5761337f61332d565b60405290565b604051601f82017fffffffffffffffffffffffffffffffffffffffffffffffffffffffffffffffe016810167ffffffffffffffff811182821017156133cc576133cc61332d565b604052919050565b600060208083850312156133e757600080fd5b825167ffffffffffffffff808211156133ff57600080fd5b818501915085601f83011261341357600080fd5b8151818111156134255761342561332d565b613433848260051b01613385565b818152848101925060069190911b83018401908782111561345357600080fd5b928401925b8184101561349f57604084890312156134715760008081fd5b61347961335c565b845161348481612b73565b81528486015186820152835260409093019291840191613458565b979650505050505050565b7f4e487b7100000000000000000000000000000000000000000000000000000000600052601160045260246000fd5b60007fffffffffffffffffffffffffffffffffffffffffffffffffffffffffffffffff82141561350b5761350b6134aa565b5060010190565b8183823760009101908152919050565b60006020828403121561353457600080fd5b815167ffffffffffffffff8082111561354c57600080fd5b818401915084601f83011261356057600080fd5b8151818111156135725761357261332d565b6135a360207fffffffffffffffffffffffffffffffffffffffffffffffffffffffffffffffe0601f84011601613385565b91508082528560208285010111156135ba57600080fd5b6135cb816020840160208601612f2b565b50949350505050565b602081526000612b316020830184612f57565b600082357fffffffffffffffffffffffffffffffffffffffffffffffffffffffffffffff618336030181126131d557600080fd5b600082357fffffffffffffffffffffffffffffffffffffffffffffffffffffffffffffff818336030181126131d557600080fd5b600181815b808511156136a857817fffffffffffffffffffffffffffffffffffffffffffffffffffffffffffffffff0482111561368e5761368e6134aa565b8085161561369b57918102915b93841c9390800290613654565b509250929050565b6000826136bf5750600161376b565b816136cc5750600061376b565b81600181146136e257600281146136ec57613708565b600191505061376b565b60ff8411156136fd576136fd6134aa565b50506001821b61376b565b5060208310610133831016604e8410600b841016171561372b575081810a61376b565b613735838361364f565b807fffffffffffffffffffffffffffffffffffffffffffffffffffffffffffffffff04821115613767576137676134aa565b0290505b92915050565b6000612b3160ff8416836136b0565b60006020828403121561379257600080fd5b813567ffffffffffffffff81168114612b3157600080fd5b6000817fffffffffffffffffffffffffffffffffffffffffffffffffffffffffffffffff04831182151516156137e2576137e26134aa565b500290565b60008261381d577f4e487b7100000000000000000000000000000000000000000000000000000000600052601260045260246000fd5b500490565b60008083357fffffffffffffffffffffffffffffffffffffffffffffffffffffffffffffffe184360301811261385757600080fd5b83018035915067ffffffffffffffff82111561387257600080fd5b6020019150600781901b3603821315612be257600080fd5b6000806040838503121561389d57600080fd5b505080516020909101519092909150565b6000602082840312156138c057600080fd5b8151612b318161305c565b600082516131d5818460208701612f2b56fea2646970667358221220610e85b9c8ea9fbde73bf314b4e7830fb0c85d6a97c75fb29573f6a05fddd67664736f6c634300080a0033",
  "devdoc": {
    "errors": {
      "NotWethSender()": [
        {
          "details": "Custom Errors"
        }
      ]
    },
    "kind": "dev",
    "methods": {
      "addLiquidity((address,bool,uint256)[],address,uint256,bytes)": {
        "params": {
          "data": "Data required by the pool to add liquidity.",
          "minLiquidity": "Minimum output liquidity - caps slippage.",
          "pool": "Pool address to add liquidity to.",
          "tokenInput": "Token address and amount to add as liquidity."
        }
      },
      "burnLiquidity(address,uint256,bytes,(address,uint256)[])": {
        "params": {
          "data": "Data required by the pool to burn liquidity.",
          "liquidity": "Amount of liquidity tokens to burn.",
          "minWithdrawals": "Minimum amount of `bento` tokens to be returned.",
          "pool": "Pool address."
        }
      },
      "burnLiquiditySingle(address,uint256,bytes,uint256)": {
        "details": "The tokens are swapped automatically and the output is in a single token.",
        "params": {
          "data": "Data required by the pool to burn liquidity.",
          "liquidity": "Amount of liquidity tokens to burn.",
          "minWithdrawal": "Minimum amount of tokens to be returned.",
          "pool": "Pool address."
        }
      },
      "complexPath(((address,address,bool,uint256,bytes)[],(address,address,uint64,bytes)[],(address,address,bool,uint256)[]))": {
        "details": "This function is not optimized for single swaps and should only be used in complex cases where the amounts are large enough that minimizing slippage by using multiple paths is worth the extra gas.",
        "params": {
          "params": "This includes everything needed for the swap. Look at the `ComplexPathParams` struct for more details."
        }
      },
      "exactInput((address,uint256,uint256,(address,bytes)[]))": {
        "details": "Ensure that the pools are trusted before calling this function. The pools can steal users' tokens.",
        "params": {
          "params": "This includes the addresses of the tokens, pools, amount of token A to swap, minimum amount of token B after the swap and data required by the pools for the swaps."
        }
      },
      "exactInputSingle((uint256,uint256,address,address,bytes))": {
        "details": "Ensure that the pool is trusted before calling this function. The pool can steal users' tokens.",
        "params": {
          "params": "This includes the address of token A, pool, amount of token A to swap, minimum amount of token B after the swap and data required by the pool for the swap."
        }
      },
      "exactInputSingleWithNativeToken((uint256,uint256,address,address,bytes))": {
        "details": "Ensure that the pool is trusted before calling this function. The pool can steal users' tokens.",
        "params": {
          "params": "This includes the address of token A, pool, amount of token A to swap, minimum amount of token B after the swap and data required by the pool for the swap."
        }
      },
      "exactInputWithNativeToken((address,uint256,uint256,(address,bytes)[]))": {
        "details": "Ensure that the pools are trusted before calling this function. The pools can steal users' tokens.",
        "params": {
          "params": "This includes the addresses of the tokens, pools, amount of token A to swap, minimum amount of token B after the swap and data required by the pools for the swaps."
        }
      }
    },
    "stateVariables": {
      "whitelistedPools": {
        "details": "Cached whitelisted pools."
      }
    },
    "version": 1
  },
  "userdoc": {
    "kind": "user",
    "methods": {
      "addLiquidity((address,bool,uint256)[],address,uint256,bytes)": {
        "notice": "Add liquidity to a pool."
      },
      "approveMasterContract(uint8,bytes32,bytes32)": {
        "notice": "Wrapper function to allow bento set master contract approval to be batched, so the first trade can happen in one transaction."
      },
      "bento()": {
        "notice": "BentoBox token vault."
      },
      "burnLiquidity(address,uint256,bytes,(address,uint256)[])": {
        "notice": "Burn liquidity tokens to get back `bento` tokens."
      },
      "burnLiquiditySingle(address,uint256,bytes,uint256)": {
        "notice": "Burn liquidity tokens to get back `bento` tokens."
      },
      "complexPath(((address,address,bool,uint256,bytes)[],(address,address,uint64,bytes)[],(address,address,bool,uint256)[]))": {
        "notice": "Swaps multiple input tokens to multiple output tokens using multiple paths, in different percentages. For example, you can swap 50 DAI + 100 USDC into 60% ETH and 40% BTC."
      },
      "deployPool(address,bytes)": {
        "notice": "Wrapper function to allow pool deployment to be batched. "
      },
      "exactInput((address,uint256,uint256,(address,bytes)[]))": {
        "notice": "Swaps token A to token B indirectly by using multiple hops."
      },
      "exactInputSingle((uint256,uint256,address,address,bytes))": {
        "notice": "Swaps token A to token B directly. Swaps are done on `bento` tokens."
      },
      "exactInputSingleWithNativeToken((uint256,uint256,address,address,bytes))": {
        "notice": "Swaps token A to token B directly. It's the same as `exactInputSingle` except it takes raw ERC-20 tokens from the users and deposits them into `bento`."
      },
      "exactInputWithNativeToken((address,uint256,uint256,(address,bytes)[]))": {
        "notice": "Swaps token A to token B indirectly by using multiple hops. It's the same as `exactInput` except it takes raw ERC-20 tokens from the users and deposits them into `bento`."
      },
      "masterDeployer()": {
        "notice": "Master deployer."
      },
      "sweep(address,uint256,address,bool)": {
        "notice": "Recover mistakenly sent tokens."
      },
      "unwrapWETH(uint256,address)": {
        "notice": "Unwrap this contract's `wETH` into ETH."
      }
    },
    "notice": "Router contract that helps in swapping across Trident pools.",
    "version": 1
  },
  "storageLayout": {
    "storage": [
      {
        "astId": 3685,
        "contract": "contracts/TridentRouter.sol:TridentRouter",
        "label": "whitelistedPools",
        "offset": 0,
        "slot": "0",
        "type": "t_mapping(t_address,t_bool)"
      }
    ],
    "types": {
      "t_address": {
        "encoding": "inplace",
        "label": "address",
        "numberOfBytes": "20"
      },
      "t_bool": {
        "encoding": "inplace",
        "label": "bool",
        "numberOfBytes": "1"
      },
      "t_mapping(t_address,t_bool)": {
        "encoding": "mapping",
        "key": "t_address",
        "label": "mapping(address => bool)",
        "numberOfBytes": "32",
        "value": "t_bool"
      }
    }
  }
}