{
  "_format": "hh-sol-artifact-1",
  "contractName": "TridentHelper",
  "sourceName": "contracts/utils/TridentHelper.sol",
  "abi": [
    {
      "inputs": [
        {
          "internalType": "address",
          "name": "_wETH",
          "type": "address"
        }
      ],
      "stateMutability": "nonpayable",
      "type": "constructor"
    },
    {
      "inputs": [
        {
          "internalType": "bytes[]",
          "name": "data",
          "type": "bytes[]"
        }
      ],
      "name": "batch",
      "outputs": [
        {
          "internalType": "bytes[]",
          "name": "results",
          "type": "bytes[]"
        }
      ],
      "stateMutability": "payable",
      "type": "function"
    },
    {
      "inputs": [
        {
          "internalType": "address",
          "name": "token",
          "type": "address"
        },
        {
          "internalType": "uint256",
          "name": "amount",
          "type": "uint256"
        },
        {
          "internalType": "uint256",
          "name": "deadline",
          "type": "uint256"
        },
        {
          "internalType": "uint8",
          "name": "v",
          "type": "uint8"
        },
        {
          "internalType": "bytes32",
          "name": "r",
          "type": "bytes32"
        },
        {
          "internalType": "bytes32",
          "name": "s",
          "type": "bytes32"
        }
      ],
      "name": "permitThis",
      "outputs": [],
      "stateMutability": "nonpayable",
      "type": "function"
    },
    {
      "inputs": [
        {
          "internalType": "address",
          "name": "token",
          "type": "address"
        },
        {
          "internalType": "uint256",
          "name": "nonce",
          "type": "uint256"
        },
        {
          "internalType": "uint256",
          "name": "expiry",
          "type": "uint256"
        },
        {
          "internalType": "uint8",
          "name": "v",
          "type": "uint8"
        },
        {
          "internalType": "bytes32",
          "name": "r",
          "type": "bytes32"
        },
        {
          "internalType": "bytes32",
          "name": "s",
          "type": "bytes32"
        }
      ],
      "name": "permitThisAllowed",
      "outputs": [],
      "stateMutability": "nonpayable",
      "type": "function"
    }
  ],
  "bytecode": "0x60a060405234801561001057600080fd5b50604051610aeb380380610aeb83398101604081905261002f91610044565b60601b6001600160601b031916608052610074565b60006020828403121561005657600080fd5b81516001600160a01b038116811461006d57600080fd5b9392505050565b60805160601c610a5c61008f60003960005050610a5c6000f3fe6080604052600436106100345760003560e01c80631e897afb146100395780637763198114610062578063a9b62c2314610084575b600080fd5b61004c61004736600461067c565b6100a4565b6040516100599190610832565b60405180910390f35b34801561006e57600080fd5b5061008261007d366004610601565b610436565b005b34801561009057600080fd5b5061008261009f366004610601565b61059c565b60608167ffffffffffffffff8111156100bf576100bf6109f7565b6040519080825280602002602001820160405280156100f257816020015b60608152602001906001900390816100dd5790505b5090506000805b8381101561042e576000610164868684818110610118576101186109c8565b905060200281019061012a91906108cc565b8080601f0160208091040260200160405190810160405280939291908181526020018383808284376000920191909152506105fa92505050565b90507fffffffff0000000000000000000000000000000000000000000000000000000081167f0f93d4390000000000000000000000000000000000000000000000000000000014806101f757507fffffffff0000000000000000000000000000000000000000000000000000000081167f9fa7449100000000000000000000000000000000000000000000000000000000145b15610272578215610269576040517f08c379a000000000000000000000000000000000000000000000000000000000815260206004820152601160248201527f537761702063616c6c656420747769636500000000000000000000000000000060448201526064015b60405180910390fd5b6001925061031e565b7fffffffff0000000000000000000000000000000000000000000000000000000081167f1e897afb00000000000000000000000000000000000000000000000000000000141561031e576040517f08c379a000000000000000000000000000000000000000000000000000000000815260206004820152600c60248201527f4e657374656420426174636800000000000000000000000000000000000000006044820152606401610260565b60008030888886818110610334576103346109c8565b905060200281019061034691906108cc565b604051610354929190610806565b600060405180830381855af49150503d806000811461038f576040519150601f19603f3d011682016040523d82523d6000602084013e610394565b606091505b5091509150816103fa576044815110156103ad57600080fd5b600481019050808060200190518101906103c791906106f1565b6040517f08c379a000000000000000000000000000000000000000000000000000000000815260040161026091906108b2565b8086858151811061040d5761040d6109c8565b6020026020010181905250505050808061042690610968565b9150506100f9565b505092915050565b6040513360248201523060448201526064810186905260848101859052600160a482015260ff841660c482015260e48101839052610104810182905260009073ffffffffffffffffffffffffffffffffffffffff881690638fcbaf0c90610124015b6040516020818303038152906040529060e01b6020820180517bffffffffffffffffffffffffffffffffffffffffffffffffffffffff83818316178352505050506040516104e69190610816565b6000604051808303816000865af19150503d8060008114610523576040519150601f19603f3d011682016040523d82523d6000602084013e610528565b606091505b5050905080610593576040517f08c379a000000000000000000000000000000000000000000000000000000000815260206004820152600d60248201527f5045524d49545f4641494c4544000000000000000000000000000000000000006044820152606401610260565b50505050505050565b604051336024820152306044820152606481018690526084810185905260ff841660a482015260c4810183905260e4810182905260009073ffffffffffffffffffffffffffffffffffffffff88169063d505accf9061010401610498565b6020015190565b60008060008060008060c0878903121561061a57600080fd5b863573ffffffffffffffffffffffffffffffffffffffff8116811461063e57600080fd5b95506020870135945060408701359350606087013560ff8116811461066257600080fd5b9598949750929560808101359460a0909101359350915050565b6000806020838503121561068f57600080fd5b823567ffffffffffffffff808211156106a757600080fd5b818501915085601f8301126106bb57600080fd5b8135818111156106ca57600080fd5b8660208260051b85010111156106df57600080fd5b60209290920196919550909350505050565b60006020828403121561070357600080fd5b815167ffffffffffffffff8082111561071b57600080fd5b818401915084601f83011261072f57600080fd5b815181811115610741576107416109f7565b604051601f82017fffffffffffffffffffffffffffffffffffffffffffffffffffffffffffffffe0908116603f01168101908382118183101715610787576107876109f7565b816040528281528760208487010111156107a057600080fd5b6107b1836020830160208801610938565b979650505050505050565b600081518084526107d4816020860160208601610938565b601f017fffffffffffffffffffffffffffffffffffffffffffffffffffffffffffffffe0169290920160200192915050565b8183823760009101908152919050565b60008251610828818460208701610938565b9190910192915050565b6000602080830181845280855180835260408601915060408160051b870101925083870160005b828110156108a5577fffffffffffffffffffffffffffffffffffffffffffffffffffffffffffffffc08886030184526108938583516107bc565b94509285019290850190600101610859565b5092979650505050505050565b6020815260006108c560208301846107bc565b9392505050565b60008083357fffffffffffffffffffffffffffffffffffffffffffffffffffffffffffffffe184360301811261090157600080fd5b83018035915067ffffffffffffffff82111561091c57600080fd5b60200191503681900382131561093157600080fd5b9250929050565b60005b8381101561095357818101518382015260200161093b565b83811115610962576000848401525b50505050565b60007fffffffffffffffffffffffffffffffffffffffffffffffffffffffffffffffff8214156109c1577f4e487b7100000000000000000000000000000000000000000000000000000000600052601160045260246000fd5b5060010190565b7f4e487b7100000000000000000000000000000000000000000000000000000000600052603260045260246000fd5b7f4e487b7100000000000000000000000000000000000000000000000000000000600052604160045260246000fdfea264697066735822122023e5785295ea4ce603dfdadb89edf4ad74c9a607d5e8c6e8b775442feaba4d3c64736f6c63430008070033",
  "linkReferences": {},
  "deployedLinkReferences": {}
}