{
  "_format": "hh-sol-artifact-1",
  "contractName": "MasterDeployer",
  "sourceName": "contracts/deployer/MasterDeployer.sol",
  "abi": [
    {
      "inputs": [
        {
          "internalType": "uint256",
          "name": "_barFee",
          "type": "uint256"
        },
        {
          "internalType": "address",
          "name": "_barFeeTo",
          "type": "address"
        },
        {
          "internalType": "address",
          "name": "_bento",
          "type": "address"
        }
      ],
      "stateMutability": "nonpayable",
      "type": "constructor"
    },
    {
      "anonymous": false,
      "inputs": [
        {
          "indexed": true,
          "internalType": "address",
          "name": "_factory",
          "type": "address"
        }
      ],
      "name": "AddToWhitelist",
      "type": "event"
    },
    {
      "anonymous": false,
      "inputs": [
        {
          "indexed": true,
          "internalType": "uint256",
          "name": "_barFee",
          "type": "uint256"
        }
      ],
      "name": "BarFeeUpdated",
      "type": "event"
    },
    {
      "anonymous": false,
      "inputs": [
        {
          "indexed": true,
          "internalType": "address",
          "name": "_factory",
          "type": "address"
        },
        {
          "indexed": true,
          "internalType": "address",
          "name": "pool",
          "type": "address"
        }
      ],
      "name": "DeployPool",
      "type": "event"
    },
    {
      "anonymous": false,
      "inputs": [
        {
          "indexed": true,
          "internalType": "address",
          "name": "_migrator",
          "type": "address"
        }
      ],
      "name": "MigratorUpdated",
      "type": "event"
    },
    {
      "anonymous": false,
      "inputs": [
        {
          "indexed": true,
          "internalType": "address",
          "name": "_factory",
          "type": "address"
        }
      ],
      "name": "RemoveFromWhitelist",
      "type": "event"
    },
    {
      "anonymous": false,
      "inputs": [
        {
          "indexed": true,
          "internalType": "address",
          "name": "sender",
          "type": "address"
        },
        {
          "indexed": true,
          "internalType": "address",
          "name": "recipient",
          "type": "address"
        }
      ],
      "name": "TransferOwner",
      "type": "event"
    },
    {
      "anonymous": false,
      "inputs": [
        {
          "indexed": true,
          "internalType": "address",
          "name": "sender",
          "type": "address"
        },
        {
          "indexed": true,
          "internalType": "address",
          "name": "recipient",
          "type": "address"
        }
      ],
      "name": "TransferOwnerClaim",
      "type": "event"
    },
    {
      "inputs": [
        {
          "internalType": "address",
          "name": "_factory",
          "type": "address"
        }
      ],
      "name": "addToWhitelist",
      "outputs": [],
      "stateMutability": "nonpayable",
      "type": "function"
    },
    {
      "inputs": [],
      "name": "barFee",
      "outputs": [
        {
          "internalType": "uint256",
          "name": "",
          "type": "uint256"
        }
      ],
      "stateMutability": "view",
      "type": "function"
    },
    {
      "inputs": [],
      "name": "barFeeTo",
      "outputs": [
        {
          "internalType": "address",
          "name": "",
          "type": "address"
        }
      ],
      "stateMutability": "view",
      "type": "function"
    },
    {
      "inputs": [],
      "name": "bento",
      "outputs": [
        {
          "internalType": "address",
          "name": "",
          "type": "address"
        }
      ],
      "stateMutability": "view",
      "type": "function"
    },
    {
      "inputs": [],
      "name": "claimOwner",
      "outputs": [],
      "stateMutability": "nonpayable",
      "type": "function"
    },
    {
      "inputs": [
        {
          "internalType": "address",
          "name": "_factory",
          "type": "address"
        },
        {
          "internalType": "bytes",
          "name": "_deployData",
          "type": "bytes"
        }
      ],
      "name": "deployPool",
      "outputs": [
        {
          "internalType": "address",
          "name": "pool",
          "type": "address"
        }
      ],
      "stateMutability": "nonpayable",
      "type": "function"
    },
    {
      "inputs": [],
      "name": "migrator",
      "outputs": [
        {
          "internalType": "address",
          "name": "",
          "type": "address"
        }
      ],
      "stateMutability": "view",
      "type": "function"
    },
    {
      "inputs": [],
      "name": "owner",
      "outputs": [
        {
          "internalType": "address",
          "name": "",
          "type": "address"
        }
      ],
      "stateMutability": "view",
      "type": "function"
    },
    {
      "inputs": [],
      "name": "pendingOwner",
      "outputs": [
        {
          "internalType": "address",
          "name": "",
          "type": "address"
        }
      ],
      "stateMutability": "view",
      "type": "function"
    },
    {
      "inputs": [
        {
          "internalType": "address",
          "name": "",
          "type": "address"
        }
      ],
      "name": "pools",
      "outputs": [
        {
          "internalType": "bool",
          "name": "",
          "type": "bool"
        }
      ],
      "stateMutability": "view",
      "type": "function"
    },
    {
      "inputs": [
        {
          "internalType": "address",
          "name": "_factory",
          "type": "address"
        }
      ],
      "name": "removeFromWhitelist",
      "outputs": [],
      "stateMutability": "nonpayable",
      "type": "function"
    },
    {
      "inputs": [
        {
          "internalType": "uint256",
          "name": "_barFee",
          "type": "uint256"
        }
      ],
      "name": "setBarFee",
      "outputs": [],
      "stateMutability": "nonpayable",
      "type": "function"
    },
    {
      "inputs": [
        {
          "internalType": "address",
          "name": "_migrator",
          "type": "address"
        }
      ],
      "name": "setMigrator",
      "outputs": [],
      "stateMutability": "nonpayable",
      "type": "function"
    },
    {
      "inputs": [
        {
          "internalType": "address",
          "name": "recipient",
          "type": "address"
        },
        {
          "internalType": "bool",
          "name": "direct",
          "type": "bool"
        }
      ],
      "name": "transferOwner",
      "outputs": [],
      "stateMutability": "nonpayable",
      "type": "function"
    },
    {
      "inputs": [
        {
          "internalType": "address",
          "name": "",
          "type": "address"
        }
      ],
      "name": "whitelistedFactories",
      "outputs": [
        {
          "internalType": "bool",
          "name": "",
          "type": "bool"
        }
      ],
      "stateMutability": "view",
      "type": "function"
    }
  ],
  "bytecode": "0x60c060405234801561001057600080fd5b50604051610e8d380380610e8d83398101604081905261002f91610182565b600080546001600160a01b0319163390811782556040519091907f5bb496b3f951b55d3a1d8e479725a4d25bdc7644fc355f0b71c540354820a1c5908290a36127108311156100b75760405162461bcd60e51b815260206004820152600f60248201526e494e56414c49445f4241525f46454560881b60448201526064015b60405180910390fd5b6001600160a01b0382166100fc5760405162461bcd60e51b815260206004820152600c60248201526b5a45524f5f4144445245535360a01b60448201526064016100ae565b6001600160a01b0381166101415760405162461bcd60e51b815260206004820152600c60248201526b5a45524f5f4144445245535360a01b60448201526064016100ae565b6002929092556001600160601b0319606091821b811660805291901b1660a0526101be565b80516001600160a01b038116811461017d57600080fd5b919050565b60008060006060848603121561019757600080fd5b835192506101a760208501610166565b91506101b560408501610166565b90509250925092565b60805160601c60a05160601c610ca46101e96000396000610193015260006101140152610ca46000f3fe608060405234801561001057600080fd5b50600436106100f55760003560e01c80637cd07e4711610097578063c14ad80211610066578063c14ad8021461025e578063cf81afaa14610275578063e30c397814610288578063e43252d7146102a857600080fd5b80637cd07e47146101e85780638ab1d681146102085780638da5cb5b1461021b578063a4063dbc1461023b57600080fd5b8063250558dc116100d3578063250558dc146101735780633bd1adec146101865780634da318271461018e5780636f50f2f4146101b557600080fd5b806306e22d12146100fa5780630c0a0cd21461010f57806323cf311814610160575b600080fd5b61010d610108366004610be3565b6102bb565b005b6101367f000000000000000000000000000000000000000000000000000000000000000081565b60405173ffffffffffffffffffffffffffffffffffffffff90911681526020015b60405180910390f35b61010d61016e366004610adf565b6103e0565b610136610181366004610b5e565b6104d0565b61010d61068a565b6101367f000000000000000000000000000000000000000000000000000000000000000081565b6101d86101c3366004610adf565b60056020526000908152604090205460ff1681565b6040519015158152602001610157565b6003546101369073ffffffffffffffffffffffffffffffffffffffff1681565b61010d610216366004610adf565b610788565b6000546101369073ffffffffffffffffffffffffffffffffffffffff1681565b6101d8610249366004610adf565b60046020526000908152604090205460ff1681565b61026760025481565b604051908152602001610157565b61010d610283366004610b20565b61087d565b6001546101369073ffffffffffffffffffffffffffffffffffffffff1681565b61010d6102b6366004610adf565b6109e7565b60005473ffffffffffffffffffffffffffffffffffffffff163314610341576040517f08c379a000000000000000000000000000000000000000000000000000000000815260206004820152600960248201527f4e4f545f4f574e4552000000000000000000000000000000000000000000000060448201526064015b60405180910390fd5b6127108111156103ad576040517f08c379a000000000000000000000000000000000000000000000000000000000815260206004820152600f60248201527f494e56414c49445f4241525f46454500000000000000000000000000000000006044820152606401610338565b600281905560405181907f880a5214911723edb25bb08410581af1de2e40c52eda03920990c4bc27011fb690600090a250565b60005473ffffffffffffffffffffffffffffffffffffffff163314610461576040517f08c379a000000000000000000000000000000000000000000000000000000000815260206004820152600960248201527f4e4f545f4f574e455200000000000000000000000000000000000000000000006044820152606401610338565b600380547fffffffffffffffffffffffff00000000000000000000000000000000000000001673ffffffffffffffffffffffffffffffffffffffff83169081179091556040517f6d4faaba9390b6bfbd5cb72e0cd8dfb4781f53d262654f8aa7eca81a0e24b31590600090a250565b73ffffffffffffffffffffffffffffffffffffffff831660009081526005602052604081205460ff1661055f576040517f08c379a000000000000000000000000000000000000000000000000000000000815260206004820152601760248201527f464143544f52595f4e4f545f57484954454c49535445440000000000000000006044820152606401610338565b6040517f27c3cae100000000000000000000000000000000000000000000000000000000815273ffffffffffffffffffffffffffffffffffffffff8516906327c3cae1906105b39086908690600401610bfc565b602060405180830381600087803b1580156105cd57600080fd5b505af11580156105e1573d6000803e3d6000fd5b505050506040513d601f19601f820116820180604052508101906106059190610b03565b73ffffffffffffffffffffffffffffffffffffffff80821660008181526004602052604080822080547fffffffffffffffffffffffffffffffffffffffffffffffffffffffffffffff00166001179055519394509092918716917f09310de353e26995666d463e09a3b190f1dc6e3b64426870ee889ade2cf99d629190a39392505050565b60015473ffffffffffffffffffffffffffffffffffffffff16331461070b576040517f08c379a000000000000000000000000000000000000000000000000000000000815260206004820152601160248201527f4e4f545f50454e44494e475f4f574e45520000000000000000000000000000006044820152606401610338565b60008054604051339273ffffffffffffffffffffffffffffffffffffffff909216917f5bb496b3f951b55d3a1d8e479725a4d25bdc7644fc355f0b71c540354820a1c591a3600080547fffffffffffffffffffffffff00000000000000000000000000000000000000009081163317909155600180549091169055565b60005473ffffffffffffffffffffffffffffffffffffffff163314610809576040517f08c379a000000000000000000000000000000000000000000000000000000000815260206004820152600960248201527f4e4f545f4f574e455200000000000000000000000000000000000000000000006044820152606401610338565b73ffffffffffffffffffffffffffffffffffffffff811660008181526005602052604080822080547fffffffffffffffffffffffffffffffffffffffffffffffffffffffffffffff00169055517f1f756c8b089af6b33ee121fee8badac2553a2fa89c0575ea91ff8792617746c29190a250565b60005473ffffffffffffffffffffffffffffffffffffffff1633146108fe576040517f08c379a000000000000000000000000000000000000000000000000000000000815260206004820152600960248201527f4e4f545f4f574e455200000000000000000000000000000000000000000000006044820152606401610338565b801561097557600080547fffffffffffffffffffffffff00000000000000000000000000000000000000001673ffffffffffffffffffffffffffffffffffffffff84169081178255604051909133917f5bb496b3f951b55d3a1d8e479725a4d25bdc7644fc355f0b71c540354820a1c59190a35050565b600180547fffffffffffffffffffffffff00000000000000000000000000000000000000001673ffffffffffffffffffffffffffffffffffffffff841690811790915560405133907f87f5c8846f4c51400fa448cfb84edcec5cc0f333b6d20a5b903e050823dcb66790600090a35050565b60005473ffffffffffffffffffffffffffffffffffffffff163314610a68576040517f08c379a000000000000000000000000000000000000000000000000000000000815260206004820152600960248201527f4e4f545f4f574e455200000000000000000000000000000000000000000000006044820152606401610338565b73ffffffffffffffffffffffffffffffffffffffff811660008181526005602052604080822080547fffffffffffffffffffffffffffffffffffffffffffffffffffffffffffffff00166001179055517f75b2135d1c8c3519f3c09c43fe6527089ef09f40c7981ebf0ed46e79e79032c79190a250565b600060208284031215610af157600080fd5b8135610afc81610c49565b9392505050565b600060208284031215610b1557600080fd5b8151610afc81610c49565b60008060408385031215610b3357600080fd5b8235610b3e81610c49565b915060208301358015158114610b5357600080fd5b809150509250929050565b600080600060408486031215610b7357600080fd5b8335610b7e81610c49565b9250602084013567ffffffffffffffff80821115610b9b57600080fd5b818601915086601f830112610baf57600080fd5b813581811115610bbe57600080fd5b876020828501011115610bd057600080fd5b6020830194508093505050509250925092565b600060208284031215610bf557600080fd5b5035919050565b60208152816020820152818360408301376000818301604090810191909152601f9092017fffffffffffffffffffffffffffffffffffffffffffffffffffffffffffffffe0160101919050565b73ffffffffffffffffffffffffffffffffffffffff81168114610c6b57600080fd5b5056fea26469706673582212202fdeacc477ec036b7fcc79960b236eb7f38547e7b7fc6ffc3d7f9198fe86bc6564736f6c63430008070033",
  "linkReferences": {},
  "deployedLinkReferences": {}
}