{
  "address": "0x5FC8d32690cc91D4c39d9d3abcBD16989F875707",
  "abi": [
    {
      "inputs": [
        {
          "internalType": "address",
          "name": "_masterDeployer",
          "type": "address"
        }
      ],
      "stateMutability": "nonpayable",
      "type": "constructor"
    },
    {
      "inputs": [
        {
          "internalType": "bytes",
          "name": "",
          "type": "bytes"
        }
      ],
      "name": "configAddress",
      "outputs": [
        {
          "internalType": "address",
          "name": "",
          "type": "address"
        }
      ],
      "stateMutability": "view",
      "type": "function"
    },
    {
      "inputs": [
        {
          "internalType": "bytes",
          "name": "_deployData",
          "type": "bytes"
        }
      ],
      "name": "deployPool",
      "outputs": [
        {
          "internalType": "address",
          "name": "pool",
          "type": "address"
        }
      ],
      "stateMutability": "nonpayable",
      "type": "function"
    },
    {
      "inputs": [
        {
          "internalType": "address",
          "name": "token0",
          "type": "address"
        },
        {
          "internalType": "address",
          "name": "token1",
          "type": "address"
        },
        {
          "internalType": "uint256",
          "name": "startIndex",
          "type": "uint256"
        },
        {
          "internalType": "uint256",
          "name": "endIndex",
          "type": "uint256"
        }
      ],
      "name": "getPools",
      "outputs": [
        {
          "internalType": "address[]",
          "name": "pairPools",
          "type": "address[]"
        }
      ],
      "stateMutability": "view",
      "type": "function"
    },
    {
      "inputs": [],
      "name": "masterDeployer",
      "outputs": [
        {
          "internalType": "address",
          "name": "",
          "type": "address"
        }
      ],
      "stateMutability": "view",
      "type": "function"
    },
    {
      "inputs": [
        {
          "internalType": "address",
          "name": "",
          "type": "address"
        },
        {
          "internalType": "address",
          "name": "",
          "type": "address"
        },
        {
          "internalType": "uint256",
          "name": "",
          "type": "uint256"
        }
      ],
      "name": "pools",
      "outputs": [
        {
          "internalType": "address",
          "name": "",
          "type": "address"
        }
      ],
      "stateMutability": "view",
      "type": "function"
    },
    {
      "inputs": [
        {
          "internalType": "address",
          "name": "token0",
          "type": "address"
        },
        {
          "internalType": "address",
          "name": "token1",
          "type": "address"
        }
      ],
      "name": "poolsCount",
      "outputs": [
        {
          "internalType": "uint256",
          "name": "count",
          "type": "uint256"
        }
      ],
      "stateMutability": "view",
      "type": "function"
    }
  ],
  "transactionHash": "0x7ef1c36b11fad2f93cc8123a93bf146fd093ce2520aed4e56a4f581d4432e61a",
  "args": [
    "0x9fE46736679d2D9a65F0992F2272dE9f3c7fa6e0"
  ],
  "solcInputHash": "8aefef22c63fcc2a1730a774a4a7414a",
  "bytecode": "0x60a060405234801561001057600080fd5b5060405161582338038061582383398101604081905261002f9161008f565b806001600160a01b0381166100795760405162461bcd60e51b815260206004820152600c60248201526b5a45524f5f4144445245535360a01b604482015260640160405180910390fd5b60601b6001600160601b031916608052506100bf565b6000602082840312156100a157600080fd5b81516001600160a01b03811681146100b857600080fd5b9392505050565b60805160601c61573f6100e46000396000818161019e01526105ba015261573f6000f3fe60806040523480156200001157600080fd5b50600436106200007b5760003560e01c80635bc93d6c11620000565780635bc93d6c146200011c57806371a258121462000172578063cf58879a146200019857600080fd5b80630d617dfa1462000080578063169c4cef14620000ee57806327c3cae11462000105575b600080fd5b620000c46200009136600462000857565b805160208183018101805160018252928201919093012091525473ffffffffffffffffffffffffffffffffffffffff1681565b60405173ffffffffffffffffffffffffffffffffffffffff90911681526020015b60405180910390f35b620000c4620000ff366004620007c6565b620001c0565b620000c46200011636600462000857565b62000213565b620001636200012d36600462000788565b73ffffffffffffffffffffffffffffffffffffffff91821660009081526020818152604080832093909416825291909152205490565b604051908152602001620000e5565b62000189620001833660046200080c565b62000318565b604051620000e5919062000981565b620000c47f000000000000000000000000000000000000000000000000000000000000000081565b60006020528260005260406000206020528160005260406000208181548110620001e957600080fd5b60009182526020909120015473ffffffffffffffffffffffffffffffffffffffff16925083915050565b6000806000806000858060200190518101906200023191906200073b565b93509350935093508273ffffffffffffffffffffffffffffffffffffffff168473ffffffffffffffffffffffffffffffffffffffff161115620002be576040805173ffffffffffffffffffffffffffffffffffffffff8086166020830152861691810191909152606081018390526080810182905292939260a00160405160208183030381529060405295505b6200030e848460405180602001620002d6906200072d565b7fffffffffffffffffffffffffffffffffffffffffffffffffffffffffffffffe082820381018352601f909101166040528962000452565b9695505050505050565b606062000326838362000a4e565b67ffffffffffffffff81111562000341576200034162000b35565b6040519080825280602002602001820160405280156200036b578160200160208202803683370190505b50905060005b82841015620004495773ffffffffffffffffffffffffffffffffffffffff808716600090815260208181526040808320938916835292905220805485908110620003bf57620003bf62000b06565b9060005260206000200160009054906101000a900473ffffffffffffffffffffffffffffffffffffffff16828281518110620003ff57620003ff62000b06565b73ffffffffffffffffffffffffffffffffffffffff9092166020928302919091019091015283620004308162000a9b565b9450508080620004409062000a9b565b91505062000371565b50949350505050565b60008373ffffffffffffffffffffffffffffffffffffffff168573ffffffffffffffffffffffffffffffffffffffff1610620004ef576040517f08c379a000000000000000000000000000000000000000000000000000000000815260206004820152601360248201527f494e56414c49445f544f4b454e5f4f524445520000000000000000000000000060448201526064015b60405180910390fd5b600073ffffffffffffffffffffffffffffffffffffffff1660018360405162000519919062000930565b9081526040519081900360200190205473ffffffffffffffffffffffffffffffffffffffff1614620005a8576040517f08c379a000000000000000000000000000000000000000000000000000000000815260206004820152601560248201527f504f4f4c5f414c52454144595f4445504c4f59454400000000000000000000006044820152606401620004e6565b600082805190602001209050600084847f0000000000000000000000000000000000000000000000000000000000000000604051602001620005ec929190620009dd565b604080517fffffffffffffffffffffffffffffffffffffffffffffffffffffffffffffffe0818403018152908290526200062a92916020016200094e565b6040516020818303038152906040529050818151602083016000f59250823b6200065357600080fd5b73ffffffffffffffffffffffffffffffffffffffff8781166000908152602081815260408083208a8516845282528083208054600180820183559185529290932090910180547fffffffffffffffffffffffff000000000000000000000000000000000000000016938716939093179092559051849190620006d790879062000930565b908152602001604051809103902060006101000a81548173ffffffffffffffffffffffffffffffffffffffff021916908373ffffffffffffffffffffffffffffffffffffffff1602179055505050949350505050565b614b7f8062000b8b83390190565b600080600080608085870312156200075257600080fd5b84516200075f8162000b64565b6020860151909450620007728162000b64565b6040860151606090960151949790965092505050565b600080604083850312156200079c57600080fd5b8235620007a98162000b64565b91506020830135620007bb8162000b64565b809150509250929050565b600080600060608486031215620007dc57600080fd5b8335620007e98162000b64565b92506020840135620007fb8162000b64565b929592945050506040919091013590565b600080600080608085870312156200082357600080fd5b8435620008308162000b64565b93506020850135620008428162000b64565b93969395505050506040820135916060013590565b6000602082840312156200086a57600080fd5b813567ffffffffffffffff808211156200088357600080fd5b818401915084601f8301126200089857600080fd5b813581811115620008ad57620008ad62000b35565b604051601f82017fffffffffffffffffffffffffffffffffffffffffffffffffffffffffffffffe0908116603f01168101908382118183101715620008f657620008f662000b35565b816040528281528760208487010111156200091057600080fd5b826020860160208301376000928101602001929092525095945050505050565b600082516200094481846020870162000a68565b9190910192915050565b600083516200096281846020880162000a68565b8351908301906200097881836020880162000a68565b01949350505050565b6020808252825182820181905260009190848201906040850190845b81811015620009d157835173ffffffffffffffffffffffffffffffffffffffff16835292840192918401916001016200099d565b50909695505050505050565b6040815260008351806040840152620009fe81606085016020880162000a68565b73ffffffffffffffffffffffffffffffffffffffff93909316602083015250601f919091017fffffffffffffffffffffffffffffffffffffffffffffffffffffffffffffffe01601606001919050565b60008282101562000a635762000a6362000ad7565b500390565b60005b8381101562000a8557818101518382015260200162000a6b565b8381111562000a95576000848401525b50505050565b60007fffffffffffffffffffffffffffffffffffffffffffffffffffffffffffffffff82141562000ad05762000ad062000ad7565b5060010190565b7f4e487b7100000000000000000000000000000000000000000000000000000000600052601160045260246000fd5b7f4e487b7100000000000000000000000000000000000000000000000000000000600052603260045260246000fd5b7f4e487b7100000000000000000000000000000000000000000000000000000000600052604160045260246000fd5b73ffffffffffffffffffffffffffffffffffffffff8116811462000b8757600080fd5b5056fe6101e060405260016005553480156200001757600080fd5b5060405162004b7f38038062004b7f8339810160408190526200003a91620005c0565b604080518082018252600e81526d29bab9b434902628102a37b5b2b760911b6020918201528151808301835260018152603160f81b9082015281517f8b73c3c69bb8fe3d512ecc4cf759cc79239f7b179b0ffacaa9a75d522b39400f918101919091527fc2bf45081e840722410522aa366600d7fe4da5bfb5a5b417f4d5125b4ed180a4918101919091527fc89efdaa54c0f20c7adf612882df0950f5a951637e0307cdcb4c672f298b8bc6606082015246608082018190523060a08301529060c0016040516020818303038152906040528051906020012060808181525050506000806000808580602001905181019062000137919062000573565b929650909450925090506001600160a01b0384166200019d5760405162461bcd60e51b815260206004820152601860248201527f487962726964506f6f6c3a205a45524f5f41444452455353000000000000000060448201526064015b60405180910390fd5b826001600160a01b0316846001600160a01b03161415620002015760405162461bcd60e51b815260206004820152601f60248201527f487962726964506f6f6c3a204944454e544943414c5f41444452455353455300604482015260640162000194565b612710821115620002555760405162461bcd60e51b815260206004820152601c60248201527f487962726964506f6f6c3a20494e56414c49445f535741505f46454500000000604482015260640162000194565b80620002995760405162461bcd60e51b8152602060048201526012602482015271487962726964506f6f6c3a205a45524f5f4160701b604482015260640162000194565b6001600160601b0319606085811b82166101205284901b166101405260a082905260408051634da3182760e01b815290516001600160a01b03871691634da31827916004808301926020929190829003018186803b158015620002fb57600080fd5b505afa15801562000310573d6000803e3d6000fd5b505050506040513d601f19601f820116820180604052508101906200033691906200054c565b6001600160a01b031660e0816001600160a01b031660601b81525050846001600160a01b0316630c0a0cd26040518163ffffffff1660e01b815260040160206040518083038186803b1580156200038c57600080fd5b505afa158015620003a1573d6000803e3d6000fd5b505050506040513d601f19601f82011682018060405250810190620003c791906200054c565b6001600160601b0319606091821b811660c0529086901b1661010052610160819052620003f6816002620007e0565b6101808181525050836001600160a01b031663313ce5676040518163ffffffff1660e01b815260040160206040518083038186803b1580156200043857600080fd5b505afa1580156200044d573d6000803e3d6000fd5b505050506040513d601f19601f82011682018060405250810190620004739190620006b1565b6200048090601262000802565b6200048d90600a6200071f565b6101a08181525050826001600160a01b031663313ce5676040518163ffffffff1660e01b815260040160206040518083038186803b158015620004cf57600080fd5b505afa158015620004e4573d6000803e3d6000fd5b505050506040513d601f19601f820116820180604052508101906200050a9190620006b1565b6200051790601262000802565b6200052490600a6200071f565b6101c05250506001600555506200086d92505050565b8051620005478162000854565b919050565b6000602082840312156200055f57600080fd5b81516200056c8162000854565b9392505050565b600080600080608085870312156200058a57600080fd5b8451620005978162000854565b6020860151909450620005aa8162000854565b6040860151606090960151949790965092505050565b60008060408385031215620005d457600080fd5b82516001600160401b0380821115620005ec57600080fd5b818501915085601f8301126200060157600080fd5b8151818111156200061657620006166200083e565b604051601f8201601f19908116603f011681019083821181831017156200064157620006416200083e565b816040528281526020935088848487010111156200065e57600080fd5b600091505b8282101562000682578482018401518183018501529083019062000663565b82821115620006945760008484830101525b9550620006a69150508582016200053a565b925050509250929050565b600060208284031215620006c457600080fd5b815160ff811681146200056c57600080fd5b600181815b8085111562000717578160001904821115620006fb57620006fb62000828565b808516156200070957918102915b93841c9390800290620006db565b509250929050565b60006200056c60ff8416836000826200073b57506001620007da565b816200074a57506000620007da565b81600181146200076357600281146200076e576200078e565b6001915050620007da565b60ff84111562000782576200078262000828565b50506001821b620007da565b5060208310610133831016604e8410600b8410161715620007b3575081810a620007da565b620007bf8383620006d6565b8060001904821115620007d657620007d662000828565b0290505b92915050565b6000816000190483118215151615620007fd57620007fd62000828565b500290565b600060ff821660ff8416808210156200081f576200081f62000828565b90039392505050565b634e487b7160e01b600052601160045260246000fd5b634e487b7160e01b600052604160045260246000fd5b6001600160a01b03811681146200086a57600080fd5b50565b60805160a05160c05160601c60e05160601c6101005160601c6101205160601c6101405160601c61016051610180516101a0516101c05161406862000b17600039600081816103bf0152818161199f015281816119fc01528181611a5401528181611aed01526138c401526000818161053701528181611973015281816119cb01528181611a2801528181611ac70152613896015260008181613579015281816135cf0152818161367a01526136c4015260006105ec0152600081816105850152818161084c01528181610ab301528181610ba301528181610d6c01528181611252015281816113ad01528181611523015281816117210152818161174b015281816118f4015281816120bd015281816121760152818161235f01528181612423015281816129d801528181612ea4015261322b0152600081816102cd015281816106b5015281816107440152818161089c01528181610cab01528181610d1001528181611226015281816112b6015281816114ba01528181611699015281816118340152818161188601528181611ebb01528181612116015281816121da015281816122a5015281816123bf015281816128bd01528181612dba015261309001526000818161055e01526134110152600081816103980152818161077a015281816108e301528181610bd901528181610d41015281816112ec015281816113e601528181611df801528181612210015281816124590152818161292101528181612a1101528181612b8401528181612c5901528181612deb01528181612ed8015281816130c4015261325d01526000818161028101528181610f3201526134c90152600081816103e6015281816107fe01528181610c5d01528181611e7e015281816133d9015281816137e60152613851015260008181610371015261266b01526140686000f3fe608060405234801561001057600080fd5b50600436106101e55760003560e01c806367e4ac2c1161010f578063a9059cbb116100a2578063d21220a711610071578063d21220a714610580578063d505accf146105a7578063dd62ed3e146105bc578063f446c1d0146105e757600080fd5b8063a9059cbb1461050c578063af8c09bf1461051f578063baa8c7cb14610532578063cf58879a1461055957600080fd5b80637ecebe00116100de5780637ecebe001461047657806395d89b4114610496578063a69840a8146104d2578063a8f1f52e146104f957600080fd5b806367e4ac2c1461041b5780636b4a20441461043057806370a08231146104435780637ba0e2e71461046357600080fd5b80632a07b6c7116101875780634da31827116101565780634da31827146103935780634e25dc47146103ba57806354cf2aeb146103e1578063627dd56a1461040857600080fd5b80632a07b6c71461030b57806330adf81f1461032b578063313ce567146103525780633644e5151461036c57600080fd5b80630c0a0cd2116101c35780630c0a0cd21461027c5780630dfe1681146102c857806318160ddd146102ef57806323b872dd146102f857600080fd5b8063053da1c8146101ea57806306fdde0314610210578063095ea7b314610259575b600080fd5b6101fd6101f8366004613c7a565b61060e565b6040519081526020015b60405180910390f35b61024c6040518060400160405280600e81526020017f5375736869204c5020546f6b656e00000000000000000000000000000000000081525081565b6040516102079190613e92565b61026c610267366004613b5d565b610f75565b6040519015158152602001610207565b6102a37f000000000000000000000000000000000000000000000000000000000000000081565b60405173ffffffffffffffffffffffffffffffffffffffff9091168152602001610207565b6102a37f000000000000000000000000000000000000000000000000000000000000000081565b6101fd60005481565b61026c610306366004613bc2565b610fef565b61031e610319366004613c7a565b61113b565b6040516102079190613e2d565b6101fd7f6e71edae12b1b97f4d1f60370fef10105fa2faae0126114a169c64845d6126c981565b61035a601281565b60405160ff9091168152602001610207565b6101fd7f000000000000000000000000000000000000000000000000000000000000000081565b6102a37f000000000000000000000000000000000000000000000000000000000000000081565b6101fd7f000000000000000000000000000000000000000000000000000000000000000081565b6101fd7f000000000000000000000000000000000000000000000000000000000000000081565b6101fd610416366004613c7a565b6115ee565b610423611864565b6040516102079190613dd3565b6101fd61043e366004613d29565b611963565b6101fd6104513660046139ae565b60016020526000908152604090205481565b6101fd610471366004613c7a565b611b26565b6101fd6104843660046139ae565b60036020526000908152604090205481565b61024c6040518060400160405280600381526020017f534c50000000000000000000000000000000000000000000000000000000000081525081565b6101fd7f54726964656e743a48796272696450616972000000000000000000000000000081565b6101fd610507366004613c7a565b611d80565b61026c61051a366004613b5d565b611f3b565b6101fd61052d366004613c7a565b611fc0565b6101fd7f000000000000000000000000000000000000000000000000000000000000000081565b6102a37f000000000000000000000000000000000000000000000000000000000000000081565b6102a37f000000000000000000000000000000000000000000000000000000000000000081565b6105ba6105b5366004613c03565b612540565b005b6101fd6105ca366004613b89565b600260209081526000928352604080842090915290825290205481565b6101fd7f000000000000000000000000000000000000000000000000000000000000000081565b6000600554600114610681576040517f08c379a000000000000000000000000000000000000000000000000000000000815260206004820152601260248201527f487962726964506f6f6c3a204c4f434b4544000000000000000000000000000060448201526064015b60405180910390fd5b600260055560008080808061069887890189613a19565b945094509450945094506000806106ad61287c565b9150915060007f000000000000000000000000000000000000000000000000000000000000000073ffffffffffffffffffffffffffffffffffffffff168873ffffffffffffffffffffffffffffffffffffffff161415610ab1576040517f5662311800000000000000000000000000000000000000000000000000000000815273ffffffffffffffffffffffffffffffffffffffff7f00000000000000000000000000000000000000000000000000000000000000008116600483015260248201879052600060448301527f0000000000000000000000000000000000000000000000000000000000000000169063566231189060640160206040518083038186803b1580156107bc57600080fd5b505afa1580156107d0573d6000803e3d6000fd5b505050506040513d601f19601f820116820180604052508101906107f49190613cec565b94506127106108237f000000000000000000000000000000000000000000000000000000000000000087613ef8565b61082d9190613ebd565b905061084561083c8287613f35565b84846001611963565b98506108747f0000000000000000000000000000000000000000000000000000000000000000888b878a612a94565b6040517ff7888aec0000000000000000000000000000000000000000000000000000000081527f000000000000000000000000000000000000000000000000000000000000000073ffffffffffffffffffffffffffffffffffffffff81811660048401523060248401526000927f00000000000000000000000000000000000000000000000000000000000000009190911691635662311891839063f7888aec9060440160206040518083038186803b15801561093057600080fd5b505afa158015610944573d6000803e3d6000fd5b505050506040513d601f19601f820116820180604052508101906109689190613cec565b6040517fffffffff0000000000000000000000000000000000000000000000000000000060e085901b16815273ffffffffffffffffffffffffffffffffffffffff909216600483015260248201526000604482015260640160206040518083038186803b1580156109d857600080fd5b505afa1580156109ec573d6000803e3d6000fd5b505050506040513d601f19601f82011682018060405250810190610a109190613cec565b905085610a1d8583613f35565b1015610aab576040517f08c379a000000000000000000000000000000000000000000000000000000000815260206004820152602360248201527f487962726964506f6f6c3a20496e7375666666696369656e7420616d6f756e7460448201527f20696e00000000000000000000000000000000000000000000000000000000006064820152608401610678565b50610f2c565b7f000000000000000000000000000000000000000000000000000000000000000073ffffffffffffffffffffffffffffffffffffffff168873ffffffffffffffffffffffffffffffffffffffff1614610b66576040517f08c379a000000000000000000000000000000000000000000000000000000000815260206004820152601f60248201527f487962726964506f6f6c3a20496e76616c696420696e70757420746f6b656e006044820152606401610678565b6040517f5662311800000000000000000000000000000000000000000000000000000000815273ffffffffffffffffffffffffffffffffffffffff7f00000000000000000000000000000000000000000000000000000000000000008116600483015260248201879052600060448301527f0000000000000000000000000000000000000000000000000000000000000000169063566231189060640160206040518083038186803b158015610c1b57600080fd5b505afa158015610c2f573d6000803e3d6000fd5b505050506040513d601f19601f82011682018060405250810190610c539190613cec565b9450612710610c827f000000000000000000000000000000000000000000000000000000000000000087613ef8565b610c8c9190613ebd565b9050610ca4610c9b8287613f35565b84846000611963565b9850610cd37f0000000000000000000000000000000000000000000000000000000000000000888b878a612a94565b6040517ff7888aec00000000000000000000000000000000000000000000000000000000815273ffffffffffffffffffffffffffffffffffffffff7f0000000000000000000000000000000000000000000000000000000000000000811660048301523060248301526000917f0000000000000000000000000000000000000000000000000000000000000000909116906356623118907f000000000000000000000000000000000000000000000000000000000000000090839063f7888aec9060440160206040518083038186803b158015610daf57600080fd5b505afa158015610dc3573d6000803e3d6000fd5b505050506040513d601f19601f82011682018060405250810190610de79190613cec565b6040517fffffffff0000000000000000000000000000000000000000000000000000000060e085901b16815273ffffffffffffffffffffffffffffffffffffffff909216600483015260248201526000604482015260640160206040518083038186803b158015610e5757600080fd5b505afa158015610e6b573d6000803e3d6000fd5b505050506040513d601f19601f82011682018060405250810190610e8f9190613cec565b905085610e9c8483613f35565b1015610f2a576040517f08c379a000000000000000000000000000000000000000000000000000000000815260206004820152602260248201527f487962726964506f6f6c3a20496e73756666696369656e7420616d6f756e742060448201527f696e0000000000000000000000000000000000000000000000000000000000006064820152608401610678565b505b610f59887f0000000000000000000000000000000000000000000000000000000000000000836000612b1d565b610f61612d7d565b505060016005555094979650505050505050565b33600081815260026020908152604080832073ffffffffffffffffffffffffffffffffffffffff8716808552925280832085905551919290917f8c5be1e5ebec7d5bd14f71427d1e84f3dd0314c0f7b2291e5b200ac8c7c3b92590610fdd9086815260200190565b60405180910390a35060015b92915050565b73ffffffffffffffffffffffffffffffffffffffff831660009081526002602090815260408083203384529091528120547fffffffffffffffffffffffffffffffffffffffffffffffffffffffffffffffff1461108c5773ffffffffffffffffffffffffffffffffffffffff8416600090815260026020908152604080832033845290915281208054849290611086908490613f35565b90915550505b73ffffffffffffffffffffffffffffffffffffffff8416600090815260016020526040812080548492906110c1908490613f35565b909155505073ffffffffffffffffffffffffffffffffffffffff808416600081815260016020526040908190208054860190555190918616907fddf252ad1be2c89b69c2b068fc378daa952ba7f163c4a11628f55a4df523b3ef906111299086815260200190565b60405180910390a35060019392505050565b60606005546001146111a9576040517f08c379a000000000000000000000000000000000000000000000000000000000815260206004820152601260248201527f487962726964506f6f6c3a204c4f434b454400000000000000000000000000006044820152606401610678565b60026005556000806111bd84860186613b28565b6000805430825260016020526040822054939550919350909190806111e0613053565b90925090506000846111f28486613ef8565b6111fc9190613ebd565b905060008561120b8487613ef8565b6112159190613ebd565b9050611221308661333c565b61124d7f000000000000000000000000000000000000000000000000000000000000000089848a612b1d565b6112797f000000000000000000000000000000000000000000000000000000000000000089838a612b1d565b6040517fda5139ca00000000000000000000000000000000000000000000000000000000815273ffffffffffffffffffffffffffffffffffffffff7f00000000000000000000000000000000000000000000000000000000000000008116600483015260248201849052600060448301527f0000000000000000000000000000000000000000000000000000000000000000169063da5139ca9060640160206040518083038186803b15801561132e57600080fd5b505afa158015611342573d6000803e3d6000fd5b505050506040513d601f19601f820116820180604052508101906113669190613cec565b6113709085613f35565b6040517fda5139ca00000000000000000000000000000000000000000000000000000000815273ffffffffffffffffffffffffffffffffffffffff7f00000000000000000000000000000000000000000000000000000000000000008116600483015260248201849052600060448301529195507f00000000000000000000000000000000000000000000000000000000000000009091169063da5139ca9060640160206040518083038186803b15801561142a57600080fd5b505afa15801561143e573d6000803e3d6000fd5b505050506040513d601f19601f820116820180604052508101906114629190613cec565b61146c9084613f35565b60408051600280825260608201909252919450816020015b604080518082019091526000808252602082015281526020019060019003908161148457905050985060405180604001604052807f000000000000000000000000000000000000000000000000000000000000000073ffffffffffffffffffffffffffffffffffffffff168152602001838152508960008151811061150b5761150b613faf565b602002602001018190525060405180604001604052807f000000000000000000000000000000000000000000000000000000000000000073ffffffffffffffffffffffffffffffffffffffff168152602001828152508960018151811061157457611574613faf565b6020026020010181905250611587612d7d565b604080518381526020810183905273ffffffffffffffffffffffffffffffffffffffff8a169133917fdccd412f0b1252819cb1fd330b93224ca42612892bb3f4f789976e6d81936496910160405180910390a3505060016005555094979650505050505050565b600060055460011461165c576040517f08c379a000000000000000000000000000000000000000000000000000000000815260206004820152601260248201527f487962726964506f6f6c3a204c4f434b454400000000000000000000000000006044820152606401610678565b600260055560008080611671858701876139d2565b92509250925060008061168261287c565b91509150600080611691613053565b9150915060007f000000000000000000000000000000000000000000000000000000000000000073ffffffffffffffffffffffffffffffffffffffff168873ffffffffffffffffffffffffffffffffffffffff1614156117495760006116f78685613f35565b905060006117058a836133cf565b905061171d6117148284613f35565b88886001611963565b9a507f000000000000000000000000000000000000000000000000000000000000000092505050611858565b7f000000000000000000000000000000000000000000000000000000000000000073ffffffffffffffffffffffffffffffffffffffff168873ffffffffffffffffffffffffffffffffffffffff16146117fe576040517f08c379a000000000000000000000000000000000000000000000000000000000815260206004820152601f60248201527f487962726964506f6f6c3a20496e76616c696420696e70757420746f6b656e006044820152606401610678565b600061180a8584613f35565b905060006118188a836133cf565b90506118306118278284613f35565b88886000611963565b9a507f0000000000000000000000000000000000000000000000000000000000000000925050505b610f5981888b89612b1d565b60408051600280825260608083018452926020830190803683370190505090507f0000000000000000000000000000000000000000000000000000000000000000816000815181106118b8576118b8613faf565b602002602001019073ffffffffffffffffffffffffffffffffffffffff16908173ffffffffffffffffffffffffffffffffffffffff16815250507f00000000000000000000000000000000000000000000000000000000000000008160018151811061192657611926613faf565b602002602001019073ffffffffffffffffffffffffffffffffffffffff16908173ffffffffffffffffffffffffffffffffffffffff168152505090565b600080600083156119f7576119987f000000000000000000000000000000000000000000000000000000000000000087613ef8565b91506119c47f000000000000000000000000000000000000000000000000000000000000000086613ef8565b90506119f07f000000000000000000000000000000000000000000000000000000000000000088613ef8565b9650611a7c565b611a217f000000000000000000000000000000000000000000000000000000000000000086613ef8565b9150611a4d7f000000000000000000000000000000000000000000000000000000000000000087613ef8565b9050611a797f000000000000000000000000000000000000000000000000000000000000000088613ef8565b96505b6000611a8883836134f7565b90506000611a968985613ea5565b90506000611aa4828461364f565b905060006001611ab48387613f35565b611abe9190613f35565b905087611aeb577f0000000000000000000000000000000000000000000000000000000000000000611b0d565b7f00000000000000000000000000000000000000000000000000000000000000005b611b179082613ebd565b9b9a5050505050505050505050565b6000600554600114611b94576040517f08c379a000000000000000000000000000000000000000000000000000000000815260206004820152601260248201527f487962726964506f6f6c3a204c4f434b454400000000000000000000000000006044820152606401610678565b60026005556000611ba7838501856139ae565b9050600080611bb461287c565b6000805492945090925080611bc7613053565b90925090506000611bd88684613f35565b90506000611be68684613f35565b9050600080611bf784848b8b61378b565b90925090506000611c1a611c0b8489613f35565b611c158489613f35565b61388e565b905087611c4157611c2d6103e882613f35565b9b50611c3c60006103e86138fe565b611c73565b6000611c4d8b8b61388e565b90508089611c5b8285613f35565b611c659190613ef8565b611c6f9190613ebd565b9c50505b60008c11611d03576040517f08c379a000000000000000000000000000000000000000000000000000000000815260206004820152602960248201527f487962726964506f6f6c3a20494e53554646494349454e545f4c49515549444960448201527f54595f4d494e54454400000000000000000000000000000000000000000000006064820152608401610678565b611d0d8b8d6138fe565b611d15612d7d565b604080518681526020810186905273ffffffffffffffffffffffffffffffffffffffff8d169133917fdbba30eb0402b389513e87f51f4db2db80bed454384ec6925a24097c3548a02a91015b60405180910390a35050600160055550979a9950505050505050505050565b60008080611d9084860186613b5d565b91509150600080611d9f61287c565b6040517f5662311800000000000000000000000000000000000000000000000000000000815273ffffffffffffffffffffffffffffffffffffffff878116600483015260248201879052600060448301529294509092507f00000000000000000000000000000000000000000000000000000000000000009091169063566231189060640160206040518083038186803b158015611e3c57600080fd5b505afa158015611e50573d6000803e3d6000fd5b505050506040513d601f19601f82011682018060405250810190611e749190613cec565b9250612710611ea37f000000000000000000000000000000000000000000000000000000000000000085613ef8565b611ead9190613ebd565b611eb79084613f35565b92507f000000000000000000000000000000000000000000000000000000000000000073ffffffffffffffffffffffffffffffffffffffff168473ffffffffffffffffffffffffffffffffffffffff161415611f2157611f1a8383836001611963565b9450611f31565b611f2e8383836000611963565b94505b5050505092915050565b33600090815260016020526040812080548391908390611f5c908490613f35565b909155505073ffffffffffffffffffffffffffffffffffffffff8316600081815260016020526040908190208054850190555133907fddf252ad1be2c89b69c2b068fc378daa952ba7f163c4a11628f55a4df523b3ef90610fdd9086815260200190565b600060055460011461202e576040517f08c379a000000000000000000000000000000000000000000000000000000000815260206004820152601260248201527f487962726964506f6f6c3a204c4f434b454400000000000000000000000000006044820152606401610678565b600260055560008080612043858701876139d2565b92509250925060008061205461287c565b91509150600080612063613053565b60008054308083526001602052604090922054939550919350909190612089908261333c565b6000826120968684613ef8565b6120a09190613ebd565b90506000836120af8685613ef8565b6120b99190613ebd565b90507f000000000000000000000000000000000000000000000000000000000000000073ffffffffffffffffffffffffffffffffffffffff168b73ffffffffffffffffffffffffffffffffffffffff1614156122a357600061213b7f0000000000000000000000000000000000000000000000000000000000000000846133cf565b905061216561214a8285613f35565b612154858c613f35565b61215e858c613f35565b6001611963565b61216f9083613ea5565b915061219d7f00000000000000000000000000000000000000000000000000000000000000008c848d612b1d565b6040517fda5139ca00000000000000000000000000000000000000000000000000000000815273ffffffffffffffffffffffffffffffffffffffff7f00000000000000000000000000000000000000000000000000000000000000008116600483015260248201859052600060448301527f0000000000000000000000000000000000000000000000000000000000000000169063da5139ca9060640160206040518083038186803b15801561225257600080fd5b505afa158015612266573d6000803e3d6000fd5b505050506040513d601f19601f8201168201806040525081019061228a9190613cec565b6122949088613f35565b9650819c5060009250506124e8565b7f000000000000000000000000000000000000000000000000000000000000000073ffffffffffffffffffffffffffffffffffffffff168b73ffffffffffffffffffffffffffffffffffffffff1614612358576040517f08c379a000000000000000000000000000000000000000000000000000000000815260206004820152601460248201527f494e56414c49445f4f55545055545f544f4b454e0000000000000000000000006044820152606401610678565b60006123847f0000000000000000000000000000000000000000000000000000000000000000836133cf565b90506123ae6123938284613f35565b61239d858c613f35565b6123a7858c613f35565b6000611963565b6123b89084613ea5565b92506123e67f00000000000000000000000000000000000000000000000000000000000000008c858d612b1d565b6040517fda5139ca00000000000000000000000000000000000000000000000000000000815273ffffffffffffffffffffffffffffffffffffffff7f00000000000000000000000000000000000000000000000000000000000000008116600483015260248201849052600060448301527f0000000000000000000000000000000000000000000000000000000000000000169063da5139ca9060640160206040518083038186803b15801561249b57600080fd5b505afa1580156124af573d6000803e3d6000fd5b505050506040513d601f19601f820116820180604052508101906124d39190613cec565b6124dd9087613f35565b9550829c5060009150505b6124f0612d7d565b604080518381526020810183905273ffffffffffffffffffffffffffffffffffffffff8c169133917fdccd412f0b1252819cb1fd330b93224ca42612892bb3f4f789976e6d819364969101611d61565b428410156125aa576040517f08c379a000000000000000000000000000000000000000000000000000000000815260206004820152601760248201527f5045524d49545f444541444c494e455f455850495245440000000000000000006044820152606401610678565b73ffffffffffffffffffffffffffffffffffffffff878116600081815260036020908152604080832080546001810190915581517f6e71edae12b1b97f4d1f60370fef10105fa2faae0126114a169c64845d6126c98185015280830195909552948b166060850152608084018a905260a084019490945260c08084018990528451808503909101815260e0840190945283519301929092207f19010000000000000000000000000000000000000000000000000000000000006101008301527f000000000000000000000000000000000000000000000000000000000000000061010283015261012282015261014201604080517fffffffffffffffffffffffffffffffffffffffffffffffffffffffffffffffe08184030181528282528051602091820120600080855291840180845281905260ff88169284019290925260608301869052608083018590529092509060019060a0016020604051602081039080840390855afa158015612723573d6000803e3d6000fd5b50506040517fffffffffffffffffffffffffffffffffffffffffffffffffffffffffffffffe0015191505073ffffffffffffffffffffffffffffffffffffffff81161580159061279e57508873ffffffffffffffffffffffffffffffffffffffff168173ffffffffffffffffffffffffffffffffffffffff16145b612804576040517f08c379a000000000000000000000000000000000000000000000000000000000815260206004820152601860248201527f494e56414c49445f5045524d49545f5349474e415455524500000000000000006044820152606401610678565b73ffffffffffffffffffffffffffffffffffffffff90811660009081526002602090815260408083208b8516808552908352928190208a905551898152919350918a16917f8c5be1e5ebec7d5bd14f71427d1e84f3dd0314c0f7b2291e5b200ac8c7c3b925910160405180910390a350505050505050565b600480546040517f5662311800000000000000000000000000000000000000000000000000000000815273ffffffffffffffffffffffffffffffffffffffff7f00000000000000000000000000000000000000000000000000000000000000008116938201939093526fffffffffffffffffffffffffffffffff80831660248301819052600060448401529370010000000000000000000000000000000090930416917f0000000000000000000000000000000000000000000000000000000000000000169063566231189060640160206040518083038186803b15801561296357600080fd5b505afa158015612977573d6000803e3d6000fd5b505050506040513d601f19601f8201168201806040525081019061299b9190613cec565b6040517f5662311800000000000000000000000000000000000000000000000000000000815273ffffffffffffffffffffffffffffffffffffffff7f00000000000000000000000000000000000000000000000000000000000000008116600483015260248201849052600060448301529193507f0000000000000000000000000000000000000000000000000000000000000000909116906356623118906064015b60206040518083038186803b158015612a5657600080fd5b505afa158015612a6a573d6000803e3d6000fd5b505050506040513d601f19601f82011682018060405250810190612a8e9190613cec565b90509091565b612aa085858584612b1d565b815115612b16576040517fbd50c7b1000000000000000000000000000000000000000000000000000000008152339063bd50c7b190612ae3908590600401613e92565b600060405180830381600087803b158015612afd57600080fd5b505af1158015612b11573d6000803e3d6000fd5b505050505b5050505050565b8015612c06576040517f97da6d3000000000000000000000000000000000000000000000000000000000815273ffffffffffffffffffffffffffffffffffffffff8581166004830152306024830152848116604483015260648201849052600060848301527f000000000000000000000000000000000000000000000000000000000000000016906397da6d309060a4016040805180830381600087803b158015612bc757600080fd5b505af1158015612bdb573d6000803e3d6000fd5b505050506040513d601f19601f82011682018060405250810190612bff9190613d05565b5050612d77565b6040517fda5139ca00000000000000000000000000000000000000000000000000000000815273ffffffffffffffffffffffffffffffffffffffff858116600483015260248201849052600060448301527f0000000000000000000000000000000000000000000000000000000000000000169063f18d03cc90869030908790859063da5139ca9060640160206040518083038186803b158015612ca957600080fd5b505afa158015612cbd573d6000803e3d6000fd5b505050506040513d601f19601f82011682018060405250810190612ce19190613cec565b6040517fffffffff0000000000000000000000000000000000000000000000000000000060e087901b16815273ffffffffffffffffffffffffffffffffffffffff94851660048201529284166024840152921660448201526064810191909152608401600060405180830381600087803b158015612d5e57600080fd5b505af1158015612d72573d6000803e3d6000fd5b505050505b50505050565b6040517ff7888aec00000000000000000000000000000000000000000000000000000000815273ffffffffffffffffffffffffffffffffffffffff7f0000000000000000000000000000000000000000000000000000000000000000811660048301523060248301526000917f00000000000000000000000000000000000000000000000000000000000000009091169063f7888aec9060440160206040518083038186803b158015612e2f57600080fd5b505afa158015612e43573d6000803e3d6000fd5b505050506040513d601f19601f82011682018060405250810190612e679190613cec565b6040517ff7888aec00000000000000000000000000000000000000000000000000000000815273ffffffffffffffffffffffffffffffffffffffff7f0000000000000000000000000000000000000000000000000000000000000000811660048301523060248301529192506000917f0000000000000000000000000000000000000000000000000000000000000000169063f7888aec9060440160206040518083038186803b158015612f1a57600080fd5b505afa158015612f2e573d6000803e3d6000fd5b505050506040513d601f19601f82011682018060405250810190612f529190613cec565b90506fffffffffffffffffffffffffffffffff82108015612f8257506fffffffffffffffffffffffffffffffff81105b612fe8576040517f08c379a000000000000000000000000000000000000000000000000000000000815260206004820152601460248201527f487962726964506f6f6c3a204f564552464c4f570000000000000000000000006044820152606401610678565b6fffffffffffffffffffffffffffffffff818116700100000000000000000000000000000000029083161760045560408051838152602081018390527fcf2aa50876cdfbb541206f89af0ee78d44a2abf8d328e37fa4917f982149848a910160405180910390a15050565b6040517ff7888aec00000000000000000000000000000000000000000000000000000000815273ffffffffffffffffffffffffffffffffffffffff7f0000000000000000000000000000000000000000000000000000000000000000818116600484015230602484015260009283927f00000000000000000000000000000000000000000000000000000000000000001691635662311891839063f7888aec9060440160206040518083038186803b15801561310e57600080fd5b505afa158015613122573d6000803e3d6000fd5b505050506040513d601f19601f820116820180604052508101906131469190613cec565b6040517fffffffff0000000000000000000000000000000000000000000000000000000060e085901b16815273ffffffffffffffffffffffffffffffffffffffff909216600483015260248201526000604482015260640160206040518083038186803b1580156131b657600080fd5b505afa1580156131ca573d6000803e3d6000fd5b505050506040513d601f19601f820116820180604052508101906131ee9190613cec565b6040517ff7888aec00000000000000000000000000000000000000000000000000000000815273ffffffffffffffffffffffffffffffffffffffff7f000000000000000000000000000000000000000000000000000000000000000081811660048401523060248401529294507f00000000000000000000000000000000000000000000000000000000000000001691635662311891839063f7888aec9060440160206040518083038186803b1580156132a757600080fd5b505afa1580156132bb573d6000803e3d6000fd5b505050506040513d601f19601f820116820180604052508101906132df9190613cec565b6040517fffffffff0000000000000000000000000000000000000000000000000000000060e085901b16815273ffffffffffffffffffffffffffffffffffffffff9092166004830152602482015260006044820152606401612a3e565b73ffffffffffffffffffffffffffffffffffffffff821660009081526001602052604081208054839290613371908490613f35565b909155505060008054829003815560405182815273ffffffffffffffffffffffffffffffffffffffff8416907fddf252ad1be2c89b69c2b068fc378daa952ba7f163c4a11628f55a4df523b3ef906020015b60405180910390a35050565b60006127106133fe7f000000000000000000000000000000000000000000000000000000000000000084613ef8565b6134089190613ebd565b905060006127107f000000000000000000000000000000000000000000000000000000000000000073ffffffffffffffffffffffffffffffffffffffff1663c14ad8026040518163ffffffff1660e01b815260040160206040518083038186803b15801561347557600080fd5b505afa158015613489573d6000803e3d6000fd5b505050506040513d601f19601f820116820180604052508101906134ad9190613cec565b6134b79084613ef8565b6134c19190613ebd565b90506134f0847f0000000000000000000000000000000000000000000000000000000000000000836000612b1d565b5092915050565b6000806135048385613ea5565b905080613515576000915050610fe9565b600081815b610100811015613645576000600487848a6135358280613ef8565b61353f9190613ebd565b6135499190613ef8565b6135539190613ebd565b61355d9190613ebd565b905082935080600361356f9190613ef8565b83600161359d60647f0000000000000000000000000000000000000000000000000000000000000000613ebd565b6135a79190613f35565b6135b19190613ef8565b6135bb9190613ea5565b836135c7836002613ef8565b60646135f3897f0000000000000000000000000000000000000000000000000000000000000000613ef8565b6135fd9190613ebd565b6136079190613ea5565b6136119190613ef8565b61361b9190613ebd565b9250613627838561396e565b156136325750613645565b508061363d81613f47565b91505061351a565b5095945050505050565b60008061365d846002613ef8565b6136678480613ef8565b6136719190613ebd565b905060646136a07f00000000000000000000000000000000000000000000000000000000000000006002613ef8565b6136aa9190613ebd565b6136b48483613ef8565b6136be9190613ebd565b905060007f00000000000000000000000000000000000000000000000000000000000000006136ee606486613ef8565b6136f89190613ebd565b6137029086613ea5565b9050600084815b6101008110156137805781925086848360026137259190613ef8565b61372f9190613ea5565b6137399190613f35565b856137448480613ef8565b61374e9190613ea5565b6137589190613ebd565b9150613764828461396e565b1561376e57613780565b8061377881613f47565b915050613709565b509695505050505050565b600080831580613799575082155b156137a957506000905080613885565b6000846137b68589613ef8565b6137c09190613ebd565b905085811161381b576137d66127106002613ef8565b6137e08288613f35565b61380a907f0000000000000000000000000000000000000000000000000000000000000000613ef8565b6138149190613ebd565b9150613883565b6000846138288789613ef8565b6138329190613ebd565b90506138416127106002613ef8565b61384b828a613f35565b613875907f0000000000000000000000000000000000000000000000000000000000000000613ef8565b61387f9190613ebd565b9350505b505b94509492505050565b6000806138bb7f000000000000000000000000000000000000000000000000000000000000000085613ef8565b905060006138e97f000000000000000000000000000000000000000000000000000000000000000085613ef8565b90506138f582826134f7565b95945050505050565b8060008082825461390f9190613ea5565b909155505073ffffffffffffffffffffffffffffffffffffffff82166000818152600160209081526040808320805486019055518481527fddf252ad1be2c89b69c2b068fc378daa952ba7f163c4a11628f55a4df523b3ef91016133c3565b6000600161397c8484613985565b11159392505050565b60008183111561399457508082035b500390565b803580151581146139a957600080fd5b919050565b6000602082840312156139c057600080fd5b81356139cb8161400d565b9392505050565b6000806000606084860312156139e757600080fd5b83356139f28161400d565b92506020840135613a028161400d565b9150613a1060408501613999565b90509250925092565b600080600080600060a08688031215613a3157600080fd5b8535613a3c8161400d565b94506020860135613a4c8161400d565b9350613a5a60408701613999565b925060608601359150608086013567ffffffffffffffff80821115613a7e57600080fd5b818801915088601f830112613a9257600080fd5b813581811115613aa457613aa4613fde565b604051601f82017fffffffffffffffffffffffffffffffffffffffffffffffffffffffffffffffe0908116603f01168101908382118183101715613aea57613aea613fde565b816040528281528b6020848701011115613b0357600080fd5b8260208601602083013760006020848301015280955050505050509295509295909350565b60008060408385031215613b3b57600080fd5b8235613b468161400d565b9150613b5460208401613999565b90509250929050565b60008060408385031215613b7057600080fd5b8235613b7b8161400d565b946020939093013593505050565b60008060408385031215613b9c57600080fd5b8235613ba78161400d565b91506020830135613bb78161400d565b809150509250929050565b600080600060608486031215613bd757600080fd5b8335613be28161400d565b92506020840135613bf28161400d565b929592945050506040919091013590565b600080600080600080600060e0888a031215613c1e57600080fd5b8735613c298161400d565b96506020880135613c398161400d565b95506040880135945060608801359350608088013560ff81168114613c5d57600080fd5b9699959850939692959460a0840135945060c09093013592915050565b60008060208385031215613c8d57600080fd5b823567ffffffffffffffff80821115613ca557600080fd5b818501915085601f830112613cb957600080fd5b813581811115613cc857600080fd5b866020828501011115613cda57600080fd5b60209290920196919550909350505050565b600060208284031215613cfe57600080fd5b5051919050565b60008060408385031215613d1857600080fd5b505080516020909101519092909150565b60008060008060808587031215613d3f57600080fd5b843593506020850135925060408501359150613d5d60608601613999565b905092959194509250565b6000815180845260005b81811015613d8e57602081850181015186830182015201613d72565b81811115613da0576000602083870101525b50601f017fffffffffffffffffffffffffffffffffffffffffffffffffffffffffffffffe0169290920160200192915050565b6020808252825182820181905260009190848201906040850190845b81811015613e2157835173ffffffffffffffffffffffffffffffffffffffff1683529284019291840191600101613def565b50909695505050505050565b602080825282518282018190526000919060409081850190868401855b82811015613e85578151805173ffffffffffffffffffffffffffffffffffffffff168552860151868501529284019290850190600101613e4a565b5091979650505050505050565b6020815260006139cb6020830184613d68565b60008219821115613eb857613eb8613f80565b500190565b600082613ef3577f4e487b7100000000000000000000000000000000000000000000000000000000600052601260045260246000fd5b500490565b6000817fffffffffffffffffffffffffffffffffffffffffffffffffffffffffffffffff0483118215151615613f3057613f30613f80565b500290565b60008282101561399457613994613f80565b60007fffffffffffffffffffffffffffffffffffffffffffffffffffffffffffffffff821415613f7957613f79613f80565b5060010190565b7f4e487b7100000000000000000000000000000000000000000000000000000000600052601160045260246000fd5b7f4e487b7100000000000000000000000000000000000000000000000000000000600052603260045260246000fd5b7f4e487b7100000000000000000000000000000000000000000000000000000000600052604160045260246000fd5b73ffffffffffffffffffffffffffffffffffffffff8116811461402f57600080fd5b5056fea2646970667358221220eed1a1fdcfcd79de8fa0821566f4d0bbecdeebbb38c4f188f880fba415fc073764736f6c63430008070033a26469706673582212205a13ed8c6718eccc09a1032cbf0d886a527b4de094c07b98d6815d0c94fd7acd64736f6c63430008070033",
  "devdoc": {
    "author": "Mudit Gupta.",
    "kind": "dev",
    "methods": {},
    "version": 1
  },
  "userdoc": {
    "kind": "user",
    "methods": {},
    "notice": "Contract for deploying Trident exchange Hybrid Pool with configurations.",
    "version": 1
  },
  "storageLayout": {
    "storage": [
      {
        "astId": 7763,
        "contract": "contracts/pool/HybridPoolFactory.sol:HybridPoolFactory",
        "label": "pools",
        "offset": 0,
        "slot": "0",
        "type": "t_mapping(t_address,t_mapping(t_address,t_array(t_address)dyn_storage))"
      },
      {
        "astId": 7767,
        "contract": "contracts/pool/HybridPoolFactory.sol:HybridPoolFactory",
        "label": "configAddress",
        "offset": 0,
        "slot": "1",
        "type": "t_mapping(t_bytes_memory_ptr,t_address)"
      }
    ],
    "types": {
      "t_address": {
        "encoding": "inplace",
        "label": "address",
        "numberOfBytes": "20"
      },
      "t_array(t_address)dyn_storage": {
        "base": "t_address",
        "encoding": "dynamic_array",
        "label": "address[]",
        "numberOfBytes": "32"
      },
      "t_bytes_memory_ptr": {
        "encoding": "bytes",
        "label": "bytes",
        "numberOfBytes": "32"
      },
      "t_mapping(t_address,t_array(t_address)dyn_storage)": {
        "encoding": "mapping",
        "key": "t_address",
        "label": "mapping(address => address[])",
        "numberOfBytes": "32",
        "value": "t_array(t_address)dyn_storage"
      },
      "t_mapping(t_address,t_mapping(t_address,t_array(t_address)dyn_storage))": {
        "encoding": "mapping",
        "key": "t_address",
        "label": "mapping(address => mapping(address => address[]))",
        "numberOfBytes": "32",
        "value": "t_mapping(t_address,t_array(t_address)dyn_storage)"
      },
      "t_mapping(t_bytes_memory_ptr,t_address)": {
        "encoding": "mapping",
        "key": "t_bytes_memory_ptr",
        "label": "mapping(bytes => address)",
        "numberOfBytes": "32",
        "value": "t_address"
      }
    }
  }
}