{
  "address": "0x8A791620dd6260079BF849Dc5567aDC3F2FdC318",
  "abi": [
    {
      "inputs": [
        {
          "internalType": "contract IBentoBoxMinimal",
          "name": "_bento",
          "type": "address"
        },
        {
          "internalType": "contract IMasterDeployer",
          "name": "_masterDeployer",
          "type": "address"
        },
        {
          "internalType": "address",
          "name": "_wETH",
          "type": "address"
        }
      ],
      "stateMutability": "nonpayable",
      "type": "constructor"
    },
    {
      "inputs": [
        {
          "components": [
            {
              "internalType": "address",
              "name": "token",
              "type": "address"
            },
            {
              "internalType": "bool",
              "name": "native",
              "type": "bool"
            },
            {
              "internalType": "uint256",
              "name": "amount",
              "type": "uint256"
            }
          ],
          "internalType": "struct ITridentRouter.TokenInput[]",
          "name": "tokenInput",
          "type": "tuple[]"
        },
        {
          "internalType": "address",
          "name": "pool",
          "type": "address"
        },
        {
          "internalType": "uint256",
          "name": "minLiquidity",
          "type": "uint256"
        },
        {
          "internalType": "bytes",
          "name": "data",
          "type": "bytes"
        }
      ],
      "name": "addLiquidity",
      "outputs": [
        {
          "internalType": "uint256",
          "name": "liquidity",
          "type": "uint256"
        }
      ],
      "stateMutability": "payable",
      "type": "function"
    },
    {
      "inputs": [
        {
          "internalType": "address",
          "name": "pool",
          "type": "address"
        },
        {
          "internalType": "uint256",
          "name": "minLiquidity",
          "type": "uint256"
        },
        {
          "internalType": "bytes",
          "name": "data",
          "type": "bytes"
        }
      ],
      "name": "addLiquidityLazy",
      "outputs": [
        {
          "internalType": "uint256",
          "name": "liquidity",
          "type": "uint256"
        }
      ],
      "stateMutability": "payable",
      "type": "function"
    },
    {
      "inputs": [
        {
          "internalType": "bytes[]",
          "name": "data",
          "type": "bytes[]"
        }
      ],
      "name": "batch",
      "outputs": [
        {
          "internalType": "bytes[]",
          "name": "results",
          "type": "bytes[]"
        }
      ],
      "stateMutability": "payable",
      "type": "function"
    },
    {
      "inputs": [],
      "name": "bento",
      "outputs": [
        {
          "internalType": "contract IBentoBoxMinimal",
          "name": "",
          "type": "address"
        }
      ],
      "stateMutability": "view",
      "type": "function"
    },
    {
      "inputs": [
        {
          "internalType": "address",
          "name": "pool",
          "type": "address"
        },
        {
          "internalType": "uint256",
          "name": "liquidity",
          "type": "uint256"
        },
        {
          "internalType": "bytes",
          "name": "data",
          "type": "bytes"
        },
        {
          "components": [
            {
              "internalType": "address",
              "name": "token",
              "type": "address"
            },
            {
              "internalType": "uint256",
              "name": "amount",
              "type": "uint256"
            }
          ],
          "internalType": "struct IPool.TokenAmount[]",
          "name": "minWithdrawals",
          "type": "tuple[]"
        }
      ],
      "name": "burnLiquidity",
      "outputs": [],
      "stateMutability": "nonpayable",
      "type": "function"
    },
    {
      "inputs": [
        {
          "internalType": "address",
          "name": "pool",
          "type": "address"
        },
        {
          "internalType": "uint256",
          "name": "liquidity",
          "type": "uint256"
        },
        {
          "internalType": "bytes",
          "name": "data",
          "type": "bytes"
        },
        {
          "internalType": "uint256",
          "name": "minWithdrawal",
          "type": "uint256"
        }
      ],
      "name": "burnLiquiditySingle",
      "outputs": [],
      "stateMutability": "nonpayable",
      "type": "function"
    },
    {
      "inputs": [],
      "name": "cachedMsgSender",
      "outputs": [
        {
          "internalType": "address",
          "name": "",
          "type": "address"
        }
      ],
      "stateMutability": "view",
      "type": "function"
    },
    {
      "inputs": [],
      "name": "cachedPool",
      "outputs": [
        {
          "internalType": "address",
          "name": "",
          "type": "address"
        }
      ],
      "stateMutability": "view",
      "type": "function"
    },
    {
      "inputs": [
        {
          "components": [
            {
              "components": [
                {
                  "internalType": "address",
                  "name": "tokenIn",
                  "type": "address"
                },
                {
                  "internalType": "address",
                  "name": "pool",
                  "type": "address"
                },
                {
                  "internalType": "bool",
                  "name": "native",
                  "type": "bool"
                },
                {
                  "internalType": "uint256",
                  "name": "amount",
                  "type": "uint256"
                },
                {
                  "internalType": "bytes",
                  "name": "data",
                  "type": "bytes"
                }
              ],
              "internalType": "struct ITridentRouter.InitialPath[]",
              "name": "initialPath",
              "type": "tuple[]"
            },
            {
              "components": [
                {
                  "internalType": "address",
                  "name": "tokenIn",
                  "type": "address"
                },
                {
                  "internalType": "address",
                  "name": "pool",
                  "type": "address"
                },
                {
                  "internalType": "uint64",
                  "name": "balancePercentage",
                  "type": "uint64"
                },
                {
                  "internalType": "bytes",
                  "name": "data",
                  "type": "bytes"
                }
              ],
              "internalType": "struct ITridentRouter.PercentagePath[]",
              "name": "percentagePath",
              "type": "tuple[]"
            },
            {
              "components": [
                {
                  "internalType": "address",
                  "name": "token",
                  "type": "address"
                },
                {
                  "internalType": "address",
                  "name": "to",
                  "type": "address"
                },
                {
                  "internalType": "bool",
                  "name": "unwrapBento",
                  "type": "bool"
                },
                {
                  "internalType": "uint256",
                  "name": "minAmount",
                  "type": "uint256"
                }
              ],
              "internalType": "struct ITridentRouter.Output[]",
              "name": "output",
              "type": "tuple[]"
            }
          ],
          "internalType": "struct ITridentRouter.ComplexPathParams",
          "name": "params",
          "type": "tuple"
        }
      ],
      "name": "complexPath",
      "outputs": [],
      "stateMutability": "payable",
      "type": "function"
    },
    {
      "inputs": [
        {
          "internalType": "address",
          "name": "_factory",
          "type": "address"
        },
        {
          "internalType": "bytes",
          "name": "_deployData",
          "type": "bytes"
        }
      ],
      "name": "deployPool",
      "outputs": [
        {
          "internalType": "address",
          "name": "",
          "type": "address"
        }
      ],
      "stateMutability": "nonpayable",
      "type": "function"
    },
    {
      "inputs": [
        {
          "components": [
            {
              "internalType": "address",
              "name": "tokenIn",
              "type": "address"
            },
            {
              "internalType": "uint256",
              "name": "amountIn",
              "type": "uint256"
            },
            {
              "internalType": "uint256",
              "name": "amountOutMinimum",
              "type": "uint256"
            },
            {
              "components": [
                {
                  "internalType": "address",
                  "name": "pool",
                  "type": "address"
                },
                {
                  "internalType": "bytes",
                  "name": "data",
                  "type": "bytes"
                }
              ],
              "internalType": "struct ITridentRouter.Path[]",
              "name": "path",
              "type": "tuple[]"
            }
          ],
          "internalType": "struct ITridentRouter.ExactInputParams",
          "name": "params",
          "type": "tuple"
        }
      ],
      "name": "exactInput",
      "outputs": [
        {
          "internalType": "uint256",
          "name": "amountOut",
          "type": "uint256"
        }
      ],
      "stateMutability": "payable",
      "type": "function"
    },
    {
      "inputs": [
        {
          "internalType": "uint256",
          "name": "amountOutMinimum",
          "type": "uint256"
        },
        {
          "components": [
            {
              "internalType": "address",
              "name": "pool",
              "type": "address"
            },
            {
              "internalType": "bytes",
              "name": "data",
              "type": "bytes"
            }
          ],
          "internalType": "struct ITridentRouter.Path[]",
          "name": "path",
          "type": "tuple[]"
        }
      ],
      "name": "exactInputLazy",
      "outputs": [
        {
          "internalType": "uint256",
          "name": "amountOut",
          "type": "uint256"
        }
      ],
      "stateMutability": "payable",
      "type": "function"
    },
    {
      "inputs": [
        {
          "components": [
            {
              "internalType": "uint256",
              "name": "amountIn",
              "type": "uint256"
            },
            {
              "internalType": "uint256",
              "name": "amountOutMinimum",
              "type": "uint256"
            },
            {
              "internalType": "address",
              "name": "pool",
              "type": "address"
            },
            {
              "internalType": "address",
              "name": "tokenIn",
              "type": "address"
            },
            {
              "internalType": "bytes",
              "name": "data",
              "type": "bytes"
            }
          ],
          "internalType": "struct ITridentRouter.ExactInputSingleParams",
          "name": "params",
          "type": "tuple"
        }
      ],
      "name": "exactInputSingle",
      "outputs": [
        {
          "internalType": "uint256",
          "name": "amountOut",
          "type": "uint256"
        }
      ],
      "stateMutability": "payable",
      "type": "function"
    },
    {
      "inputs": [
        {
          "components": [
            {
              "internalType": "uint256",
              "name": "amountIn",
              "type": "uint256"
            },
            {
              "internalType": "uint256",
              "name": "amountOutMinimum",
              "type": "uint256"
            },
            {
              "internalType": "address",
              "name": "pool",
              "type": "address"
            },
            {
              "internalType": "address",
              "name": "tokenIn",
              "type": "address"
            },
            {
              "internalType": "bytes",
              "name": "data",
              "type": "bytes"
            }
          ],
          "internalType": "struct ITridentRouter.ExactInputSingleParams",
          "name": "params",
          "type": "tuple"
        }
      ],
      "name": "exactInputSingleWithNativeToken",
      "outputs": [
        {
          "internalType": "uint256",
          "name": "amountOut",
          "type": "uint256"
        }
      ],
      "stateMutability": "payable",
      "type": "function"
    },
    {
      "inputs": [
        {
          "components": [
            {
              "internalType": "address",
              "name": "tokenIn",
              "type": "address"
            },
            {
              "internalType": "uint256",
              "name": "amountIn",
              "type": "uint256"
            },
            {
              "internalType": "uint256",
              "name": "amountOutMinimum",
              "type": "uint256"
            },
            {
              "components": [
                {
                  "internalType": "address",
                  "name": "pool",
                  "type": "address"
                },
                {
                  "internalType": "bytes",
                  "name": "data",
                  "type": "bytes"
                }
              ],
              "internalType": "struct ITridentRouter.Path[]",
              "name": "path",
              "type": "tuple[]"
            }
          ],
          "internalType": "struct ITridentRouter.ExactInputParams",
          "name": "params",
          "type": "tuple"
        }
      ],
      "name": "exactInputWithNativeToken",
      "outputs": [
        {
          "internalType": "uint256",
          "name": "amountOut",
          "type": "uint256"
        }
      ],
      "stateMutability": "payable",
      "type": "function"
    },
    {
      "inputs": [],
      "name": "masterDeployer",
      "outputs": [
        {
          "internalType": "contract IMasterDeployer",
          "name": "",
          "type": "address"
        }
      ],
      "stateMutability": "view",
      "type": "function"
    },
    {
      "inputs": [
        {
          "internalType": "address",
          "name": "token",
          "type": "address"
        },
        {
          "internalType": "uint256",
          "name": "amount",
          "type": "uint256"
        },
        {
          "internalType": "uint256",
          "name": "deadline",
          "type": "uint256"
        },
        {
          "internalType": "uint8",
          "name": "v",
          "type": "uint8"
        },
        {
          "internalType": "bytes32",
          "name": "r",
          "type": "bytes32"
        },
        {
          "internalType": "bytes32",
          "name": "s",
          "type": "bytes32"
        }
      ],
      "name": "permitThis",
      "outputs": [],
      "stateMutability": "nonpayable",
      "type": "function"
    },
    {
      "inputs": [
        {
          "internalType": "address",
          "name": "token",
          "type": "address"
        },
        {
          "internalType": "uint256",
          "name": "nonce",
          "type": "uint256"
        },
        {
          "internalType": "uint256",
          "name": "expiry",
          "type": "uint256"
        },
        {
          "internalType": "uint8",
          "name": "v",
          "type": "uint8"
        },
        {
          "internalType": "bytes32",
          "name": "r",
          "type": "bytes32"
        },
        {
          "internalType": "bytes32",
          "name": "s",
          "type": "bytes32"
        }
      ],
      "name": "permitThisAllowed",
      "outputs": [],
      "stateMutability": "nonpayable",
      "type": "function"
    },
    {
      "inputs": [],
      "name": "refundETH",
      "outputs": [],
      "stateMutability": "payable",
      "type": "function"
    },
    {
      "inputs": [
        {
          "internalType": "address",
          "name": "token",
          "type": "address"
        },
        {
          "internalType": "uint256",
          "name": "amount",
          "type": "uint256"
        },
        {
          "internalType": "address",
          "name": "recipient",
          "type": "address"
        }
      ],
      "name": "sweepBentoBoxToken",
      "outputs": [],
      "stateMutability": "nonpayable",
      "type": "function"
    },
    {
      "inputs": [
        {
          "internalType": "address",
          "name": "token",
          "type": "address"
        },
        {
          "internalType": "uint256",
          "name": "amount",
          "type": "uint256"
        },
        {
          "internalType": "address",
          "name": "recipient",
          "type": "address"
        }
      ],
      "name": "sweepNativeToken",
      "outputs": [],
      "stateMutability": "nonpayable",
      "type": "function"
    },
    {
      "inputs": [
        {
          "internalType": "bytes",
          "name": "data",
          "type": "bytes"
        }
      ],
      "name": "tridentMintCallback",
      "outputs": [],
      "stateMutability": "nonpayable",
      "type": "function"
    },
    {
      "inputs": [
        {
          "internalType": "bytes",
          "name": "data",
          "type": "bytes"
        }
      ],
      "name": "tridentSwapCallback",
      "outputs": [],
      "stateMutability": "nonpayable",
      "type": "function"
    },
    {
      "inputs": [
        {
          "internalType": "uint256",
          "name": "amountMinimum",
          "type": "uint256"
        },
        {
          "internalType": "address",
          "name": "recipient",
          "type": "address"
        }
      ],
      "name": "unwrapWETH",
      "outputs": [],
      "stateMutability": "nonpayable",
      "type": "function"
    },
    {
      "inputs": [],
      "name": "wETH",
      "outputs": [
        {
          "internalType": "address",
          "name": "",
          "type": "address"
        }
      ],
      "stateMutability": "view",
      "type": "function"
    },
    {
      "stateMutability": "payable",
      "type": "receive"
    }
  ],
  "transactionHash": "0xbc2b4e2f15920ddd0dce266c77b8779016a00ab03e11ff61134fd3c5eed10430",
  "args": [
    "0xe7f1725E7734CE288F8367e1Bb143E90bb3F0512",
    "0x9fE46736679d2D9a65F0992F2272dE9f3c7fa6e0",
    "0x5FbDB2315678afecb367f032d93F642f64180aa3"
  ],
  "solcInputHash": "8641bc912625474bbf8ba32e216caa90",
  "bytecode": "0x60e06040523480156200001157600080fd5b5060405162004bb238038062004bb28339810160408190526200003491620000e0565b6001600160601b0319606082901b166080526040805163577268d960e11b815290516001600160a01b0385169163aee4d1b291600480830192600092919082900301818387803b1580156200008857600080fd5b505af11580156200009d573d6000803e3d6000fd5b5050505050606091821b6001600160601b031990811660a052911b1660c0526000805460016001600160a01b03199182168117909255815416811790556200014d565b600080600060608486031215620000f657600080fd5b8351620001038162000134565b6020850151909350620001168162000134565b6040850151909250620001298162000134565b809150509250925092565b6001600160a01b03811681146200014a57600080fd5b50565b60805160601c60a05160601c60c05160601c6149a76200020b600039600081816104a001528181610fe40152612d5c0152600081816102f90152818161074b01528181611078015281816113050152818161199201528181611ce001528181611f370152818161208a015281816122b201528181612466015281816125ac01528181612812015281816129d501528181612bfa01526132500152600081816101b7015281816104f401528181612b3a01526134a601526149a76000f3fe60806040526004361061019a5760003560e01c8063783312d9116100e1578063a9b62c231161008a578063ced10b4911610064578063ced10b491461046e578063cf58879a1461048e578063e16d9ce5146104c2578063f2428621146104e257600080fd5b8063a9b62c231461041b578063b96c5c0e1461043b578063bd50c7b11461044e57600080fd5b806394ae4ab2116100bb57806394ae4ab2146103d557806398a691de146103f55780639fa744911461040857600080fd5b8063783312d914610368578063794d1833146103885780639128efda146103b557600080fd5b8063250558dc116101435780634da318271161011d5780634da31827146102e75780635fcc8f2b1461031b578063776319811461034857600080fd5b8063250558dc1461027c5780632c0d9a01146102c15780632cfcb94f146102d457600080fd5b80631aa349a8116101745780631aa349a8146102295780631ab5d6c8146102495780631e897afb1461025c57600080fd5b80630b0d1b1e146101e85780630f93d4391461020e57806312210e8a1461022157600080fd5b366101e3573373ffffffffffffffffffffffffffffffffffffffff7f000000000000000000000000000000000000000000000000000000000000000016146101e157600080fd5b005b600080fd5b6101fb6101f63660046141b7565b610516565b6040519081526020015b60405180910390f35b6101fb61021c36600461424d565b6106e1565b6101e16108aa565b34801561023557600080fd5b506101e1610244366004613b7e565b6108bc565b6101fb610257366004614359565b6109eb565b61026f61026a366004613c41565b610c17565b604051610205919061445f565b34801561028857600080fd5b5061029c61029736600461398b565b610fa4565b60405173ffffffffffffffffffffffffffffffffffffffff9091168152602001610205565b6101fb6102cf3660046141b7565b611074565b6101fb6102e2366004613e0f565b61127f565b3480156102f357600080fd5b5061029c7f000000000000000000000000000000000000000000000000000000000000000081565b34801561032757600080fd5b5060015461029c9073ffffffffffffffffffffffffffffffffffffffff1681565b34801561035457600080fd5b506101e1610363366004613bdf565b61152c565b34801561037457600080fd5b506101e1610383366004613a76565b611692565b34801561039457600080fd5b5060005461029c9073ffffffffffffffffffffffffffffffffffffffff1681565b3480156103c157600080fd5b506101e16103d03660046139db565b611938565b3480156103e157600080fd5b506101e16103f03660046139db565b6119ea565b6101fb610403366004613a1d565b6119fa565b6101fb61041636600461424d565b611b81565b34801561042757600080fd5b506101e1610436366004613bdf565b611bdb565b6101e1610449366004613ff4565b611c39565b34801561045a57600080fd5b506101e1610469366004613f48565b6126db565b34801561047a57600080fd5b506101e1610489366004613f48565b6128a0565b34801561049a57600080fd5b5061029c7f000000000000000000000000000000000000000000000000000000000000000081565b3480156104ce57600080fd5b506101e16104dd366004614329565b612b33565b3480156104ee57600080fd5b5061029c7f000000000000000000000000000000000000000000000000000000000000000081565b600061054d82600001518360600151600081518110610537576105376148e3565b6020026020010151600001518460200151612be3565b60005b8260600151518110156106685761058783606001518281518110610576576105766148e3565b602002602001015160000151612cea565b8260600151818151811061059d5761059d6148e3565b60200260200101516000015173ffffffffffffffffffffffffffffffffffffffff1663627dd56a846060015183815181106105da576105da6148e3565b6020026020010151602001516040518263ffffffff1660e01b815260040161060291906144df565b602060405180830381600087803b15801561061c57600080fd5b505af1158015610630573d6000803e3d6000fd5b505050506040513d601f19601f820116820180604052508101906106549190614310565b9150806106608161487b565b915050610550565b5081604001518110156106dc576040517f08c379a000000000000000000000000000000000000000000000000000000000815260206004820152601360248201527f544f4f5f4c4954544c455f52454345495645440000000000000000000000000060448201526064015b60405180910390fd5b919050565b6060810151604080830151835191517ff18d03cc00000000000000000000000000000000000000000000000000000000815273ffffffffffffffffffffffffffffffffffffffff9384166004820152336024820152908316604482015260648101919091526000917f0000000000000000000000000000000000000000000000000000000000000000169063f18d03cc90608401600060405180830381600087803b15801561078f57600080fd5b505af11580156107a3573d6000803e3d6000fd5b50505050816040015173ffffffffffffffffffffffffffffffffffffffff1663627dd56a83608001516040518263ffffffff1660e01b81526004016107e891906144df565b602060405180830381600087803b15801561080257600080fd5b505af1158015610816573d6000803e3d6000fd5b505050506040513d601f19601f8201168201806040525081019061083a9190614310565b905081602001518110156106dc576040517f08c379a000000000000000000000000000000000000000000000000000000000815260206004820152601360248201527f544f4f5f4c4954544c455f52454345495645440000000000000000000000000060448201526064016106d3565b47156108ba576108ba3347612e8e565b565b6108c584612cea565b6108d184338686612f58565b6040517faf8c09bf00000000000000000000000000000000000000000000000000000000815260009073ffffffffffffffffffffffffffffffffffffffff86169063af8c09bf906109269086906004016144df565b602060405180830381600087803b15801561094057600080fd5b505af1158015610954573d6000803e3d6000fd5b505050506040513d601f19601f820116820180604052508101906109789190614310565b9050818110156109e4576040517f08c379a000000000000000000000000000000000000000000000000000000000815260206004820152601360248201527f544f4f5f4c4954544c455f52454345495645440000000000000000000000000060448201526064016106d3565b5050505050565b6000805b8251811015610b7057610a0d838281518110610576576105766148e3565b600080547fffffffffffffffffffffffff000000000000000000000000000000000000000016331790558251839082908110610a4b57610a4b6148e3565b602002602001015160000151600160006101000a81548173ffffffffffffffffffffffffffffffffffffffff021916908373ffffffffffffffffffffffffffffffffffffffff160217905550828181518110610aa957610aa96148e3565b60200260200101516000015173ffffffffffffffffffffffffffffffffffffffff1663053da1c8848381518110610ae257610ae26148e3565b6020026020010151602001516040518263ffffffff1660e01b8152600401610b0a91906144df565b602060405180830381600087803b158015610b2457600080fd5b505af1158015610b38573d6000803e3d6000fd5b505050506040513d601f19601f82011682018060405250810190610b5c9190614310565b915080610b688161487b565b9150506109ef565b506000805460017fffffffffffffffffffffffff000000000000000000000000000000000000000091821681179092558154168117905582811015610c11576040517f08c379a000000000000000000000000000000000000000000000000000000000815260206004820152601360248201527f544f4f5f4c4954544c455f52454345495645440000000000000000000000000060448201526064016106d3565b92915050565b60608167ffffffffffffffff811115610c3257610c32614912565b604051908082528060200260200182016040528015610c6557816020015b6060815260200190600190039081610c505790505b5090506000805b83811015610f9c576000610cd7868684818110610c8b57610c8b6148e3565b9050602002810190610c9d91906144f2565b8080601f0160208091040260200160405190810160405280939291908181526020018383808284376000920191909152506130c992505050565b90507fffffffff0000000000000000000000000000000000000000000000000000000081167f0f93d439000000000000000000000000000000000000000000000000000000001480610d6a57507fffffffff0000000000000000000000000000000000000000000000000000000081167f9fa7449100000000000000000000000000000000000000000000000000000000145b15610de0578215610dd7576040517f08c379a000000000000000000000000000000000000000000000000000000000815260206004820152601160248201527f537761702063616c6c656420747769636500000000000000000000000000000060448201526064016106d3565b60019250610e8c565b7fffffffff0000000000000000000000000000000000000000000000000000000081167f1e897afb000000000000000000000000000000000000000000000000000000001415610e8c576040517f08c379a000000000000000000000000000000000000000000000000000000000815260206004820152600c60248201527f4e6573746564204261746368000000000000000000000000000000000000000060448201526064016106d3565b60008030888886818110610ea257610ea26148e3565b9050602002810190610eb491906144f2565b604051610ec2929190614404565b600060405180830381855af49150503d8060008114610efd576040519150601f19603f3d011682016040523d82523d6000602084013e610f02565b606091505b509150915081610f6857604481511015610f1b57600080fd5b60048101905080806020019051810190610f359190613f7d565b6040517f08c379a00000000000000000000000000000000000000000000000000000000081526004016106d391906144df565b80868581518110610f7b57610f7b6148e3565b60200260200101819052505050508080610f949061487b565b915050610c6c565b505092915050565b6040517f250558dc00000000000000000000000000000000000000000000000000000000815260009073ffffffffffffffffffffffffffffffffffffffff7f0000000000000000000000000000000000000000000000000000000000000000169063250558dc9061101b9086908690600401614430565b602060405180830381600087803b15801561103557600080fd5b505af1158015611049573d6000803e3d6000fd5b505050506040513d601f19601f8201168201806040525081019061106d919061396e565b9392505050565b60007f000000000000000000000000000000000000000000000000000000000000000073ffffffffffffffffffffffffffffffffffffffff1663f18d03cc83600001513385606001516000815181106110cf576110cf6148e3565b60209081029190910181015151908701516040517fffffffff0000000000000000000000000000000000000000000000000000000060e087901b16815273ffffffffffffffffffffffffffffffffffffffff94851660048201529284166024840152921660448201526064810191909152608401600060405180830381600087803b15801561115d57600080fd5b505af1158015611171573d6000803e3d6000fd5b5050505060005b8260600151518110156106685761119e83606001518281518110610576576105766148e3565b826060015181815181106111b4576111b46148e3565b60200260200101516000015173ffffffffffffffffffffffffffffffffffffffff1663627dd56a846060015183815181106111f1576111f16148e3565b6020026020010151602001516040518263ffffffff1660e01b815260040161121991906144df565b602060405180830381600087803b15801561123357600080fd5b505af1158015611247573d6000803e3d6000fd5b505050506040513d601f19601f8201168201806040525081019061126b9190614310565b9150806112778161487b565b915050611178565b600061128a84612cea565b60005b8551811015611413578581815181106112a8576112a86148e3565b60200260200101516020015115611303576112fe8682815181106112ce576112ce6148e3565b602002602001015160000151868884815181106112ed576112ed6148e3565b602002602001015160400151612be3565b611401565b7f000000000000000000000000000000000000000000000000000000000000000073ffffffffffffffffffffffffffffffffffffffff1663f18d03cc878381518110611351576113516148e3565b60200260200101516000015133888a8681518110611371576113716148e3565b6020026020010151604001516040518563ffffffff1660e01b81526004016113ce949392919073ffffffffffffffffffffffffffffffffffffffff9485168152928416602084015292166040820152606081019190915260800190565b600060405180830381600087803b1580156113e857600080fd5b505af11580156113fc573d6000803e3d6000fd5b505050505b8061140b8161487b565b91505061128d565b506040517f7ba0e2e700000000000000000000000000000000000000000000000000000000815273ffffffffffffffffffffffffffffffffffffffff851690637ba0e2e7906114669085906004016144df565b602060405180830381600087803b15801561148057600080fd5b505af1158015611494573d6000803e3d6000fd5b505050506040513d601f19601f820116820180604052508101906114b89190614310565b905082811015611524576040517f08c379a000000000000000000000000000000000000000000000000000000000815260206004820152601b60248201527f4e4f545f454e4f5547485f4c49515549444954595f4d494e544544000000000060448201526064016106d3565b949350505050565b6040513360248201523060448201526064810186905260848101859052600160a482015260ff841660c482015260e48101839052610104810182905260009073ffffffffffffffffffffffffffffffffffffffff881690638fcbaf0c90610124015b6040516020818303038152906040529060e01b6020820180517bffffffffffffffffffffffffffffffffffffffffffffffffffffffff83818316178352505050506040516115dc9190614414565b6000604051808303816000865af19150503d8060008114611619576040519150601f19603f3d011682016040523d82523d6000602084013e61161e565b606091505b5050905080611689576040517f08c379a000000000000000000000000000000000000000000000000000000000815260206004820152600d60248201527f5045524d49545f4641494c45440000000000000000000000000000000000000060448201526064016106d3565b50505050505050565b61169b84612cea565b6116a784338686612f58565b6040517f2a07b6c700000000000000000000000000000000000000000000000000000000815260009073ffffffffffffffffffffffffffffffffffffffff861690632a07b6c7906116fc9086906004016144df565b600060405180830381600087803b15801561171657600080fd5b505af115801561172a573d6000803e3d6000fd5b505050506040513d6000823e601f3d9081017fffffffffffffffffffffffffffffffffffffffffffffffffffffffffffffffe01682016040526117709190810190613cb6565b905060005b82518110156119305760005b82518110156118b35783828151811061179c5761179c6148e3565b60200260200101516000015173ffffffffffffffffffffffffffffffffffffffff168382815181106117d0576117d06148e3565b60200260200101516000015173ffffffffffffffffffffffffffffffffffffffff1614156118a15783828151811061180a5761180a6148e3565b602002602001015160200151838281518110611828576118286148e3565b602002602001015160200151101561189c576040517f08c379a000000000000000000000000000000000000000000000000000000000815260206004820152601360248201527f544f4f5f4c4954544c455f52454345495645440000000000000000000000000060448201526064016106d3565b6118b3565b806118ab8161487b565b915050611781565b8251811061191d576040517f08c379a000000000000000000000000000000000000000000000000000000000815260206004820152601960248201527f494e434f52524543545f544f4b454e5f57495448445241574e0000000000000060448201526064016106d3565b50806119288161487b565b915050611775565b505050505050565b6040517ff18d03cc00000000000000000000000000000000000000000000000000000000815273ffffffffffffffffffffffffffffffffffffffff84811660048301523060248301528281166044830152606482018490527f0000000000000000000000000000000000000000000000000000000000000000169063f18d03cc90608401600060405180830381600087803b1580156119d657600080fd5b505af1158015611689573d6000803e3d6000fd5b6119f58382846130d0565b505050565b6000611a0584612cea565b600080547fffffffffffffffffffffffff000000000000000000000000000000000000000090811633179091556001805473ffffffffffffffffffffffffffffffffffffffff87169216821790556040517f7ba0e2e7000000000000000000000000000000000000000000000000000000008152637ba0e2e790611a8d9085906004016144df565b602060405180830381600087803b158015611aa757600080fd5b505af1158015611abb573d6000803e3d6000fd5b505050506040513d601f19601f82011682018060405250810190611adf9190614310565b6000805460017fffffffffffffffffffffffff000000000000000000000000000000000000000091821681179092558154168117905590508281101561106d576040517f08c379a000000000000000000000000000000000000000000000000000000000815260206004820152601b60248201527f4e4f545f454e4f5547485f4c49515549444954595f4d494e544544000000000060448201526064016106d3565b6000611b9a826060015183604001518460000151612be3565b816040015173ffffffffffffffffffffffffffffffffffffffff1663627dd56a83608001516040518263ffffffff1660e01b81526004016107e891906144df565b604051336024820152306044820152606481018690526084810185905260ff841660a482015260c4810183905260e4810182905260009073ffffffffffffffffffffffffffffffffffffffff88169063d505accf906101040161158e565b60005b815151811015611f22578151805182908110611c5a57611c5a6148e3565b60200260200101516040015115611cde57611cd982600001518281518110611c8457611c846148e3565b60200260200101516000015183600001518381518110611ca657611ca66148e3565b60200260200101516020015184600001518481518110611cc857611cc86148e3565b602002602001015160600151612be3565b611e1a565b7f000000000000000000000000000000000000000000000000000000000000000073ffffffffffffffffffffffffffffffffffffffff1663f18d03cc83600001518381518110611d3057611d306148e3565b6020026020010151600001513385600001518581518110611d5357611d536148e3565b60200260200101516020015186600001518681518110611d7557611d756148e3565b6020908102919091010151606001516040517fffffffff0000000000000000000000000000000000000000000000000000000060e087901b16815273ffffffffffffffffffffffffffffffffffffffff94851660048201529284166024840152921660448201526064810191909152608401600060405180830381600087803b158015611e0157600080fd5b505af1158015611e15573d6000803e3d6000fd5b505050505b611e4482600001518281518110611e3357611e336148e3565b602002602001015160200151612cea565b8151805182908110611e5857611e586148e3565b60200260200101516020015173ffffffffffffffffffffffffffffffffffffffff1663627dd56a83600001518381518110611e9557611e956148e3565b6020026020010151608001516040518263ffffffff1660e01b8152600401611ebd91906144df565b602060405180830381600087803b158015611ed757600080fd5b505af1158015611eeb573d6000803e3d6000fd5b505050506040513d601f19601f82011682018060405250810190611f0f9190614310565b5080611f1a8161487b565b915050611c3c565b5060005b81602001515181101561229d5760007f000000000000000000000000000000000000000000000000000000000000000073ffffffffffffffffffffffffffffffffffffffff1663f7888aec84602001518481518110611f8757611f876148e3565b6020908102919091010151516040517fffffffff0000000000000000000000000000000000000000000000000000000060e084901b16815273ffffffffffffffffffffffffffffffffffffffff909116600482015230602482015260440160206040518083038186803b158015611ffd57600080fd5b505afa158015612011573d6000803e3d6000fd5b505050506040513d601f19601f820116820180604052508101906120359190614310565b905060006120456008600a614745565b8460200151848151811061205b5761205b6148e3565b60200260200101516040015167ffffffffffffffff168361207c919061480e565b61208691906146a9565b90507f000000000000000000000000000000000000000000000000000000000000000073ffffffffffffffffffffffffffffffffffffffff1663f18d03cc856020015185815181106120da576120da6148e3565b60200260200101516000015130876020015187815181106120fd576120fd6148e3565b60209081029190910181015101516040517fffffffff0000000000000000000000000000000000000000000000000000000060e086901b16815273ffffffffffffffffffffffffffffffffffffffff9384166004820152918316602483015291909116604482015260648101849052608401600060405180830381600087803b15801561218957600080fd5b505af115801561219d573d6000803e3d6000fd5b505050506121ba84602001518481518110611e3357611e336148e3565b836020015183815181106121d0576121d06148e3565b60200260200101516020015173ffffffffffffffffffffffffffffffffffffffff1663627dd56a8560200151858151811061220d5761220d6148e3565b6020026020010151606001516040518263ffffffff1660e01b815260040161223591906144df565b602060405180830381600087803b15801561224f57600080fd5b505af1158015612263573d6000803e3d6000fd5b505050506040513d601f19601f820116820180604052508101906122879190614310565b50505080806122959061487b565b915050611f26565b5060005b8160400151518110156126d75760007f000000000000000000000000000000000000000000000000000000000000000073ffffffffffffffffffffffffffffffffffffffff1663f7888aec84604001518481518110612302576123026148e3565b6020908102919091010151516040517fffffffff0000000000000000000000000000000000000000000000000000000060e084901b16815273ffffffffffffffffffffffffffffffffffffffff909116600482015230602482015260440160206040518083038186803b15801561237857600080fd5b505afa15801561238c573d6000803e3d6000fd5b505050506040513d601f19601f820116820180604052508101906123b09190614310565b9050826040015182815181106123c8576123c86148e3565b60200260200101516060015181101561243d576040517f08c379a000000000000000000000000000000000000000000000000000000000815260206004820152601360248201527f544f4f5f4c4954544c455f52454345495645440000000000000000000000000060448201526064016106d3565b82604001518281518110612453576124536148e3565b602002602001015160400151156125aa577f000000000000000000000000000000000000000000000000000000000000000073ffffffffffffffffffffffffffffffffffffffff166397da6d30846040015184815181106124b6576124b66148e3565b60200260200101516000015130866040015186815181106124d9576124d96148e3565b60209081029190910181015101516040517fffffffff0000000000000000000000000000000000000000000000000000000060e086901b16815273ffffffffffffffffffffffffffffffffffffffff93841660048201529183166024830152919091166044820152600060648201526084810184905260a4016040805180830381600087803b15801561256b57600080fd5b505af115801561257f573d6000803e3d6000fd5b505050506040513d601f19601f820116820180604052508101906125a39190614396565b50506126c4565b7f000000000000000000000000000000000000000000000000000000000000000073ffffffffffffffffffffffffffffffffffffffff1663f18d03cc846040015184815181106125fc576125fc6148e3565b602002602001015160000151308660400151868151811061261f5761261f6148e3565b60209081029190910181015101516040517fffffffff0000000000000000000000000000000000000000000000000000000060e086901b16815273ffffffffffffffffffffffffffffffffffffffff9384166004820152918316602483015291909116604482015260648101849052608401600060405180830381600087803b1580156126ab57600080fd5b505af11580156126bf573d6000803e3d6000fd5b505050505b50806126cf8161487b565b9150506122a1565b5050565b60015473ffffffffffffffffffffffffffffffffffffffff16331461275c576040517f08c379a000000000000000000000000000000000000000000000000000000000815260206004820152601560248201527f554e415554484f52495a45445f43414c4c4241434b000000000000000000000060448201526064016106d3565b60008180602001905181019061277291906142f4565b90508060200151156127b057805160005460408301516127ab929173ffffffffffffffffffffffffffffffffffffffff16903390613239565b612871565b805160005460408084015190517ff18d03cc00000000000000000000000000000000000000000000000000000000815273ffffffffffffffffffffffffffffffffffffffff9384166004820152918316602483015233604483015260648201527f00000000000000000000000000000000000000000000000000000000000000009091169063f18d03cc90608401600060405180830381600087803b15801561285857600080fd5b505af115801561286c573d6000803e3d6000fd5b505050505b5050600080547fffffffffffffffffffffffff0000000000000000000000000000000000000000166001179055565b60015473ffffffffffffffffffffffffffffffffffffffff163314612921576040517f08c379a000000000000000000000000000000000000000000000000000000000815260206004820152601560248201527f554e415554484f52495a45445f43414c4c4241434b000000000000000000000060448201526064016106d3565b6000818060200190518101906129379190613d7a565b905060005b8151811015612b0357818181518110612957576129576148e3565b602002602001015160200151156129d3576129ce82828151811061297d5761297d6148e3565b60200260200101516000015160008054906101000a900473ffffffffffffffffffffffffffffffffffffffff16338585815181106129bd576129bd6148e3565b602002602001015160400151613239565b612af1565b7f000000000000000000000000000000000000000000000000000000000000000073ffffffffffffffffffffffffffffffffffffffff1663f18d03cc838381518110612a2157612a216148e3565b60200260200101516000015160008054906101000a900473ffffffffffffffffffffffffffffffffffffffff1633868681518110612a6157612a616148e3565b6020026020010151604001516040518563ffffffff1660e01b8152600401612abe949392919073ffffffffffffffffffffffffffffffffffffffff9485168152928416602084015292166040820152606081019190915260800190565b600060405180830381600087803b158015612ad857600080fd5b505af1158015612aec573d6000803e3d6000fd5b505050505b80612afb8161487b565b91505061293c565b5050600080547fffffffffffffffffffffffff000000000000000000000000000000000000000016600117905550565b6000612b5e7f0000000000000000000000000000000000000000000000000000000000000000613342565b905082811015612bca576040517f08c379a000000000000000000000000000000000000000000000000000000000815260206004820152601160248201527f494e53554646494349454e545f5745544800000000000000000000000000000060448201526064016106d3565b80156119f557612bd9816134a2565b6119f58282612e8e565b73ffffffffffffffffffffffffffffffffffffffff7f00000000000000000000000000000000000000000000000000000000000000008116906302b9446c90851615612c30576000612c32565b825b6040517fffffffff0000000000000000000000000000000000000000000000000000000060e084901b16815273ffffffffffffffffffffffffffffffffffffffff808816600483015233602483015286166044820152606481018590526000608482015260a40160408051808303818588803b158015612cb157600080fd5b505af1158015612cc5573d6000803e3d6000fd5b50505050506040513d601f19601f820116820180604052508101906109e49190614396565b73ffffffffffffffffffffffffffffffffffffffff811660009081526002602052604090205460ff16612e8b576040517fa4063dbc00000000000000000000000000000000000000000000000000000000815273ffffffffffffffffffffffffffffffffffffffff82811660048301527f0000000000000000000000000000000000000000000000000000000000000000169063a4063dbc9060240160206040518083038186803b158015612d9e57600080fd5b505afa158015612db2573d6000803e3d6000fd5b505050506040513d601f19601f82011682018060405250810190612dd69190613f2b565b612e3c576040517f08c379a000000000000000000000000000000000000000000000000000000000815260206004820152600c60248201527f494e56414c494420504f4f4c000000000000000000000000000000000000000060448201526064016106d3565b73ffffffffffffffffffffffffffffffffffffffff8116600090815260026020526040902080547fffffffffffffffffffffffffffffffffffffffffffffffffffffffffffffff001660011790555b50565b60008273ffffffffffffffffffffffffffffffffffffffff168260405160006040518083038185875af1925050503d8060008114612ee8576040519150601f19603f3d011682016040523d82523d6000602084013e612eed565b606091505b50509050806119f5576040517f08c379a000000000000000000000000000000000000000000000000000000000815260206004820152601360248201527f4554485f5452414e534645525f4641494c45440000000000000000000000000060448201526064016106d3565b6040805173ffffffffffffffffffffffffffffffffffffffff85811660248301528481166044830152606480830185905283518084039091018152608490920183526020820180517bffffffffffffffffffffffffffffffffffffffffffffffffffffffff167f23b872dd000000000000000000000000000000000000000000000000000000001790529151600092839290881691612ff79190614414565b6000604051808303816000865af19150503d8060008114613034576040519150601f19603f3d011682016040523d82523d6000602084013e613039565b606091505b50915091508180156130635750805115806130635750808060200190518101906130639190613f2b565b611930576040517f08c379a000000000000000000000000000000000000000000000000000000000815260206004820152601460248201527f5452414e534645525f46524f4d5f4641494c454400000000000000000000000060448201526064016106d3565b6020015190565b6040805173ffffffffffffffffffffffffffffffffffffffff8481166024830152604480830185905283518084039091018152606490920183526020820180517bffffffffffffffffffffffffffffffffffffffffffffffffffffffff167fa9059cbb0000000000000000000000000000000000000000000000000000000017905291516000928392908716916131679190614414565b6000604051808303816000865af19150503d80600081146131a4576040519150601f19603f3d011682016040523d82523d6000602084013e6131a9565b606091505b50915091508180156131d35750805115806131d35750808060200190518101906131d39190613f2b565b6109e4576040517f08c379a000000000000000000000000000000000000000000000000000000000815260206004820152600f60248201527f5452414e534645525f4641494c4544000000000000000000000000000000000060448201526064016106d3565b73ffffffffffffffffffffffffffffffffffffffff7f00000000000000000000000000000000000000000000000000000000000000008116906302b9446c90861615613286576000613288565b825b6040517fffffffff0000000000000000000000000000000000000000000000000000000060e084901b16815273ffffffffffffffffffffffffffffffffffffffff8089166004830152808816602483015286166044820152606481018590526000608482015260a40160408051808303818588803b15801561330957600080fd5b505af115801561331d573d6000803e3d6000fd5b50505050506040513d601f19601f820116820180604052508101906119309190614396565b604080513060248083019190915282518083039091018152604490910182526020810180517bffffffffffffffffffffffffffffffffffffffffffffffffffffffff167f70a082310000000000000000000000000000000000000000000000000000000017905290516000918291829173ffffffffffffffffffffffffffffffffffffffff8616916133d49190614414565b600060405180830381855afa9150503d806000811461340f576040519150601f19603f3d011682016040523d82523d6000602084013e613414565b606091505b509150915081801561342857506020815110155b61348e576040517f08c379a000000000000000000000000000000000000000000000000000000000815260206004820152601160248201527f42414c414e43455f4f465f4641494c454400000000000000000000000000000060448201526064016106d3565b808060200190518101906115249190614310565b60007f000000000000000000000000000000000000000000000000000000000000000073ffffffffffffffffffffffffffffffffffffffff16632e1a7d4d836040516024016134f391815260200190565b6040516020818303038152906040529060e01b6020820180517bffffffffffffffffffffffffffffffffffffffffffffffffffffffff83818316178352505050506040516135419190614414565b6000604051808303816000865af19150503d806000811461357e576040519150601f19603f3d011682016040523d82523d6000602084013e613583565b606091505b50509050806126d7576040517f08c379a000000000000000000000000000000000000000000000000000000000815260206004820152601960248201527f57495448445241575f46524f4d5f574554485f4641494c45440000000000000060448201526064016106d3565b80356106dc81614941565b600082601f83011261360a57600080fd5b8135602061361f61361a8361463f565b6145f0565b80838252828201915082860187848660071b890101111561363f57600080fd5b6000805b868110156136b057608080848c03121561365b578283fd5b61366361455e565b843561366e81614941565b81528488013561367d81614941565b8189015260408581013561369081614963565b908201526060858101359082015286529486019490920191600101613643565b509198975050505050505050565b600082601f8301126136cf57600080fd5b813560206136df61361a8361463f565b80838252828201915082860187848660051b89010111156136ff57600080fd5b60005b858110156137aa57813567ffffffffffffffff8082111561372257600080fd5b818a0191506040807fffffffffffffffffffffffffffffffffffffffffffffffffffffffffffffffe0848e0301121561375a57600080fd5b613762614587565b8884013561376f81614941565b815290830135908282111561378357600080fd5b6137918d8a848701016138cf565b818a015287525050509284019290840190600101613702565b5090979650505050505050565b600082601f8301126137c857600080fd5b813560206137d861361a8361463f565b80838252828201915082860187848660051b89010111156137f857600080fd5b60005b858110156137aa57813567ffffffffffffffff8082111561381b57600080fd5b818a0191506080807fffffffffffffffffffffffffffffffffffffffffffffffffffffffffffffffe0848e0301121561385357600080fd5b61385b61455e565b8884013561386881614941565b815260408481013561387981614941565b828b0152606085810135858116811461389157600080fd5b838301529285013592848411156138a757600080fd5b6138b58f8c868901016138cf565b9083015250875250505092840192908401906001016137fb565b600082601f8301126138e057600080fd5b81356138ee61361a82614663565b81815284602083860101111561390357600080fd5b816020850160208301376000918101602001919091529392505050565b60006060828403121561393257600080fd5b61393a6145aa565b9050815161394781614941565b8152602082015161395781614963565b806020830152506040820151604082015292915050565b60006020828403121561398057600080fd5b815161106d81614941565b6000806040838503121561399e57600080fd5b82356139a981614941565b9150602083013567ffffffffffffffff8111156139c557600080fd5b6139d1858286016138cf565b9150509250929050565b6000806000606084860312156139f057600080fd5b83356139fb81614941565b9250602084013591506040840135613a1281614941565b809150509250925092565b600080600060608486031215613a3257600080fd5b8335613a3d81614941565b925060208401359150604084013567ffffffffffffffff811115613a6057600080fd5b613a6c868287016138cf565b9150509250925092565b60008060008060808587031215613a8c57600080fd5b8435613a9781614941565b9350602085810135935060408087013567ffffffffffffffff80821115613abd57600080fd5b613ac98a838b016138cf565b95506060890135915080821115613adf57600080fd5b508701601f81018913613af157600080fd5b8035613aff61361a8261463f565b8082825285820191508584018c878560061b8701011115613b1f57600080fd5b60009450845b84811015613b6a5786828f031215613b3b578586fd5b613b43614587565b8235613b4e81614941565b8152828901358982015284529287019290860190600101613b25565b505080965050505050505092959194509250565b60008060008060808587031215613b9457600080fd5b8435613b9f81614941565b935060208501359250604085013567ffffffffffffffff811115613bc257600080fd5b613bce878288016138cf565b949793965093946060013593505050565b60008060008060008060c08789031215613bf857600080fd5b8635613c0381614941565b95506020870135945060408701359350606087013560ff81168114613c2757600080fd5b9598949750929560808101359460a0909101359350915050565b60008060208385031215613c5457600080fd5b823567ffffffffffffffff80821115613c6c57600080fd5b818501915085601f830112613c8057600080fd5b813581811115613c8f57600080fd5b8660208260051b8501011115613ca457600080fd5b60209290920196919550909350505050565b60006020808385031215613cc957600080fd5b825167ffffffffffffffff811115613ce057600080fd5b8301601f81018513613cf157600080fd5b8051613cff61361a8261463f565b80828252848201915084840188868560061b8701011115613d1f57600080fd5b60009450845b84811015613d6c57604080838c031215613d3d578687fd5b613d45614587565b8351613d5081614941565b8152838901518982015285529387019390910190600101613d25565b509098975050505050505050565b60006020808385031215613d8d57600080fd5b825167ffffffffffffffff811115613da457600080fd5b8301601f81018513613db557600080fd5b8051613dc361361a8261463f565b818152838101908385016060808502860187018a1015613de257600080fd5b600095505b84861015613d6c57613df98a83613920565b8452600195909501949286019290810190613de7565b60008060008060808587031215613e2557600080fd5b843567ffffffffffffffff80821115613e3d57600080fd5b818701915087601f830112613e5157600080fd5b81356020613e6161361a8361463f565b828152818101908583016060808602880185018e1015613e8057600080fd5b600097505b85881015613ee25780828f031215613e9c57600080fd5b613ea46145aa565b8235613eaf81614941565b815282860135613ebe81614963565b81870152604083810135908201528452600197909701969284019290810190613e85565b829b50613ef0858e016135ee565b9a5060408d01359950808d0135975050505050505080821115613f1257600080fd5b50613f1f878288016138cf565b91505092959194509250565b600060208284031215613f3d57600080fd5b815161106d81614963565b600060208284031215613f5a57600080fd5b813567ffffffffffffffff811115613f7157600080fd5b611524848285016138cf565b600060208284031215613f8f57600080fd5b815167ffffffffffffffff811115613fa657600080fd5b8201601f81018413613fb757600080fd5b8051613fc561361a82614663565b818152856020838501011115613fda57600080fd5b613feb82602083016020860161484b565b95945050505050565b60006020828403121561400657600080fd5b67ffffffffffffffff808335111561401d57600080fd5b823583016060818603121561403157600080fd5b6140396145aa565b828235111561404757600080fd5b8135820186601f82011261405a57600080fd5b803561406861361a8261463f565b80828252602082019150602084018a60208560051b870101111561408b57600080fd5b60005b8481101561415f5788823511156140a457600080fd5b8135860160a07fffffffffffffffffffffffffffffffffffffffffffffffffffffffffffffffe0828f030112156140da57600080fd5b6140e26145cd565b60208201356140f081614941565b8152604082013561410081614941565b6020820152606082013561411381614963565b60408201526080820135606082015260a08201358b81111561413457600080fd5b6141438f6020838601016138cf565b608083015250855250602093840193919091019060010161408e565b5050845250505060208201358381111561417857600080fd5b614184878285016137b7565b60208301525060408201358381111561419c57600080fd5b6141a8878285016135f9565b60408301525095945050505050565b6000602082840312156141c957600080fd5b813567ffffffffffffffff808211156141e157600080fd5b90830190608082860312156141f557600080fd5b6141fd61455e565b823561420881614941565b80825250602083013560208201526040830135604082015260608301358281111561423257600080fd5b61423e878286016136be565b60608301525095945050505050565b60006020828403121561425f57600080fd5b813567ffffffffffffffff8082111561427757600080fd5b9083019060a0828603121561428b57600080fd5b6142936145cd565b823581526020830135602082015260408301356142af81614941565b604082015260608301356142c281614941565b60608201526080830135828111156142d957600080fd5b6142e5878286016138cf565b60808301525095945050505050565b60006060828403121561430657600080fd5b61106d8383613920565b60006020828403121561432257600080fd5b5051919050565b6000806040838503121561433c57600080fd5b82359150602083013561434e81614941565b809150509250929050565b6000806040838503121561436c57600080fd5b82359150602083013567ffffffffffffffff81111561438a57600080fd5b6139d1858286016136be565b600080604083850312156143a957600080fd5b505080516020909101519092909150565b600081518084526143d281602086016020860161484b565b601f017fffffffffffffffffffffffffffffffffffffffffffffffffffffffffffffffe0169290920160200192915050565b8183823760009101908152919050565b6000825161442681846020870161484b565b9190910192915050565b73ffffffffffffffffffffffffffffffffffffffff8316815260406020820152600061152460408301846143ba565b6000602080830181845280855180835260408601915060408160051b870101925083870160005b828110156144d2577fffffffffffffffffffffffffffffffffffffffffffffffffffffffffffffffc08886030184526144c08583516143ba565b94509285019290850190600101614486565b5092979650505050505050565b60208152600061106d60208301846143ba565b60008083357fffffffffffffffffffffffffffffffffffffffffffffffffffffffffffffffe184360301811261452757600080fd5b83018035915067ffffffffffffffff82111561454257600080fd5b60200191503681900382131561455757600080fd5b9250929050565b6040516080810167ffffffffffffffff8111828210171561458157614581614912565b60405290565b6040805190810167ffffffffffffffff8111828210171561458157614581614912565b6040516060810167ffffffffffffffff8111828210171561458157614581614912565b60405160a0810167ffffffffffffffff8111828210171561458157614581614912565b604051601f82017fffffffffffffffffffffffffffffffffffffffffffffffffffffffffffffffe016810167ffffffffffffffff8111828210171561463757614637614912565b604052919050565b600067ffffffffffffffff82111561465957614659614912565b5060051b60200190565b600067ffffffffffffffff82111561467d5761467d614912565b50601f017fffffffffffffffffffffffffffffffffffffffffffffffffffffffffffffffe01660200190565b6000826146df577f4e487b7100000000000000000000000000000000000000000000000000000000600052601260045260246000fd5b500490565b600181815b8085111561473d57817fffffffffffffffffffffffffffffffffffffffffffffffffffffffffffffffff04821115614723576147236148b4565b8085161561473057918102915b93841c93908002906146e9565b509250929050565b600061106d60ff84168360008261475e57506001610c11565b8161476b57506000610c11565b8160018114614781576002811461478b576147a7565b6001915050610c11565b60ff84111561479c5761479c6148b4565b50506001821b610c11565b5060208310610133831016604e8410600b84101617156147ca575081810a610c11565b6147d483836146e4565b807fffffffffffffffffffffffffffffffffffffffffffffffffffffffffffffffff04821115614806576148066148b4565b029392505050565b6000817fffffffffffffffffffffffffffffffffffffffffffffffffffffffffffffffff0483118215151615614846576148466148b4565b500290565b60005b8381101561486657818101518382015260200161484e565b83811115614875576000848401525b50505050565b60007fffffffffffffffffffffffffffffffffffffffffffffffffffffffffffffffff8214156148ad576148ad6148b4565b5060010190565b7f4e487b7100000000000000000000000000000000000000000000000000000000600052601160045260246000fd5b7f4e487b7100000000000000000000000000000000000000000000000000000000600052603260045260246000fd5b7f4e487b7100000000000000000000000000000000000000000000000000000000600052604160045260246000fd5b73ffffffffffffffffffffffffffffffffffffffff81168114612e8b57600080fd5b8015158114612e8b57600080fdfea2646970667358221220799b9ee11759ece687c3eeb544fd5c52c4626a5f4f9a4c263c56dd543e38945064736f6c63430008070033",
  "devdoc": {
    "kind": "dev",
    "methods": {
      "addLiquidity((address,bool,uint256)[],address,uint256,bytes)": {
        "params": {
          "data": "Data required by the pool to add liquidity.",
          "minLiquidity": "Minimum output liquidity - caps slippage.",
          "pool": "Pool address to add liquidity to.",
          "tokenInput": "Token address and amount to add as liquidity."
        }
      },
      "addLiquidityLazy(address,uint256,bytes)": {
        "details": "The input tokens are sent to the pool during the callback."
      },
      "batch(bytes[])": {
        "details": "The `msg.value` should not be trusted for any method callable from this function.Uses a modified version of the batch function - preventing multiple calls of the single input swap functions",
        "params": {
          "data": "ABI-encoded params for each of the calls to make to this contract."
        },
        "returns": {
          "results": "The results from each of the calls passed in via `data`."
        }
      },
      "burnLiquidity(address,uint256,bytes,(address,uint256)[])": {
        "params": {
          "data": "Data required by the pool to burn liquidity.",
          "liquidity": "Amount of liquidity tokens to burn.",
          "minWithdrawals": "Minimum amount of `bento` tokens to be returned.",
          "pool": "Pool address."
        }
      },
      "burnLiquiditySingle(address,uint256,bytes,uint256)": {
        "details": "The tokens are swapped automatically and the output is in a single token.",
        "params": {
          "data": "Data required by the pool to burn liquidity.",
          "liquidity": "Amount of liquidity tokens to burn.",
          "minWithdrawal": "Minimum amount of tokens to be returned.",
          "pool": "Pool address."
        }
      },
      "complexPath(((address,address,bool,uint256,bytes)[],(address,address,uint64,bytes)[],(address,address,bool,uint256)[]))": {
        "details": "This function is not optimized for single swaps and should only be used in complex cases where the amounts are large enough that minimizing slippage by using multiple paths is worth the extra gas.",
        "params": {
          "params": "This includes everything needed for the swap. Look at the `ComplexPathParams` struct for more details."
        }
      },
      "exactInput((address,uint256,uint256,(address,bytes)[]))": {
        "details": "Ensure that the pools are trusted before calling this function. The pools can steal users' tokens.",
        "params": {
          "params": "This includes the addresses of the tokens, pools, amount of token A to swap, minimum amount of token B after the swap and data required by the pools for the swaps."
        }
      },
      "exactInputLazy(uint256,(address,bytes)[])": {
        "details": "Ensure that the pools are trusted before calling this function. The pools can steal users' tokens. This function will unlikely be used in production but it shows how to use callbacks. One use case will be arbitrage.",
        "params": {
          "amountOutMinimum": "Minimum amount of token B after the swap.",
          "path": "Addresses of the pools and data required by the pools for the swaps."
        }
      },
      "exactInputSingle((uint256,uint256,address,address,bytes))": {
        "details": "Ensure that the pool is trusted before calling this function. The pool can steal users' tokens.",
        "params": {
          "params": "This includes the address of token A, pool, amount of token A to swap, minimum amount of token B after the swap and data required by the pool for the swap."
        }
      },
      "exactInputSingleWithNativeToken((uint256,uint256,address,address,bytes))": {
        "details": "Ensure that the pool is trusted before calling this function. The pool can steal users' tokens.",
        "params": {
          "params": "This includes the address of token A, pool, amount of token A to swap, minimum amount of token B after the swap and data required by the pool for the swap."
        }
      },
      "exactInputWithNativeToken((address,uint256,uint256,(address,bytes)[]))": {
        "details": "Ensure that the pools are trusted before calling this function. The pools can steal users' tokens.",
        "params": {
          "params": "This includes the addresses of the tokens, pools, amount of token A to swap, minimum amount of token B after the swap and data required by the pools for the swaps."
        }
      },
      "permitThis(address,uint256,uint256,uint8,bytes32,bytes32)": {
        "params": {
          "amount": "Token amount to grant spending right over.",
          "deadline": "Termination for signed approval (UTC timestamp in seconds).",
          "r": "Half of the ECDSA signature pair.",
          "s": "Half of the ECDSA signature pair.",
          "token": "Address of ERC-20 token.",
          "v": "The recovery byte of the signature."
        }
      },
      "permitThisAllowed(address,uint256,uint256,uint8,bytes32,bytes32)": {
        "params": {
          "expiry": "Termination for signed approval - UTC timestamp in seconds.",
          "nonce": "Token owner's nonce - increases at each call to {permit}.",
          "r": "Half of the ECDSA signature pair.",
          "s": "Half of the ECDSA signature pair.",
          "token": "Address of ERC-20 token.",
          "v": "The recovery byte of the signature."
        }
      }
    },
    "stateVariables": {
      "cachedMsgSender": {
        "details": "Used to ensure that `tridentSwapCallback` is called only by the authorized address. These are set when someone calls a flash swap and reset afterwards."
      }
    },
    "version": 1
  },
  "userdoc": {
    "kind": "user",
    "methods": {
      "addLiquidity((address,bool,uint256)[],address,uint256,bytes)": {
        "notice": "Add liquidity to a pool."
      },
      "addLiquidityLazy(address,uint256,bytes)": {
        "notice": "Add liquidity to a pool using callbacks - same as `addLiquidity`, but now with callbacks."
      },
      "batch(bytes[])": {
        "notice": "Adapted from https://github.com/Uniswap/uniswap-v3-periphery/blob/main/contracts/base/Multicall.sol, License-Identifier: GPL-2.0-or-later."
      },
      "bento()": {
        "notice": "BentoBox token vault."
      },
      "burnLiquidity(address,uint256,bytes,(address,uint256)[])": {
        "notice": "Burn liquidity tokens to get back `bento` tokens."
      },
      "burnLiquiditySingle(address,uint256,bytes,uint256)": {
        "notice": "Burn liquidity tokens to get back `bento` tokens."
      },
      "complexPath(((address,address,bool,uint256,bytes)[],(address,address,uint64,bytes)[],(address,address,bool,uint256)[]))": {
        "notice": "Swaps multiple input tokens to multiple output tokens using multiple paths, in different percentages. For example, you can swap 50 DAI + 100 USDC into 60% ETH and 40% BTC."
      },
      "exactInput((address,uint256,uint256,(address,bytes)[]))": {
        "notice": "Swaps token A to token B indirectly by using multiple hops."
      },
      "exactInputLazy(uint256,(address,bytes)[])": {
        "notice": "Swaps token A to token B by using callbacks."
      },
      "exactInputSingle((uint256,uint256,address,address,bytes))": {
        "notice": "Swaps token A to token B directly. Swaps are done on `bento` tokens."
      },
      "exactInputSingleWithNativeToken((uint256,uint256,address,address,bytes))": {
        "notice": "Swaps token A to token B directly. It's the same as `exactInputSingle` except it takes raw ERC-20 tokens from the users and deposits them into `bento`."
      },
      "exactInputWithNativeToken((address,uint256,uint256,(address,bytes)[]))": {
        "notice": "Swaps token A to token B indirectly by using multiple hops. It's the same as `exactInput` except it takes raw ERC-20 tokens from the users and deposits them into `bento`."
      },
      "permitThis(address,uint256,uint256,uint8,bytes32,bytes32)": {
        "notice": "Provides EIP-2612 signed approval for this contract to spend user tokens."
      },
      "permitThisAllowed(address,uint256,uint256,uint8,bytes32,bytes32)": {
        "notice": "Provides DAI-derived signed approval for this contract to spend user tokens."
      },
      "refundETH()": {
        "notice": "Recover mistakenly sent ETH."
      },
      "sweepBentoBoxToken(address,uint256,address)": {
        "notice": "Recover mistakenly sent `bento` tokens."
      },
      "sweepNativeToken(address,uint256,address)": {
        "notice": "Recover mistakenly sent ERC-20 tokens."
      },
      "tridentMintCallback(bytes)": {
        "notice": "Can be used by the pool 'mint' functionality to take tokens from the user."
      },
      "tridentSwapCallback(bytes)": {
        "notice": "Used by the pool 'flashSwap' functionality to take input tokens from the user."
      },
      "unwrapWETH(uint256,address)": {
        "notice": "Unwrap this contract's `wETH` into ETH"
      }
    },
    "notice": "Router contract that helps in swapping across Trident pools.",
    "version": 1
  },
  "storageLayout": {
    "storage": [
      {
        "astId": 21,
        "contract": "contracts/TridentRouter.sol:TridentRouter",
        "label": "cachedMsgSender",
        "offset": 0,
        "slot": "0",
        "type": "t_address"
      },
      {
        "astId": 23,
        "contract": "contracts/TridentRouter.sol:TridentRouter",
        "label": "cachedPool",
        "offset": 0,
        "slot": "1",
        "type": "t_address"
      },
      {
        "astId": 27,
        "contract": "contracts/TridentRouter.sol:TridentRouter",
        "label": "whitelistedPools",
        "offset": 0,
        "slot": "2",
        "type": "t_mapping(t_address,t_bool)"
      }
    ],
    "types": {
      "t_address": {
        "encoding": "inplace",
        "label": "address",
        "numberOfBytes": "20"
      },
      "t_bool": {
        "encoding": "inplace",
        "label": "bool",
        "numberOfBytes": "1"
      },
      "t_mapping(t_address,t_bool)": {
        "encoding": "mapping",
        "key": "t_address",
        "label": "mapping(address => bool)",
        "numberOfBytes": "32",
        "value": "t_bool"
      }
    }
  }
}