{
  "_format": "hh-sol-artifact-1",
  "contractName": "PoolTemplate",
  "sourceName": "contracts/examples/PoolTemplate.sol",
  "abi": [
    {
      "inputs": [
        {
          "internalType": "bytes",
          "name": "_data",
          "type": "bytes"
        }
      ],
      "stateMutability": "nonpayable",
      "type": "constructor"
    },
    {
      "inputs": [],
      "name": "anotherConfigValue",
      "outputs": [
        {
          "internalType": "address",
          "name": "",
          "type": "address"
        }
      ],
      "stateMutability": "view",
      "type": "function"
    },
    {
      "inputs": [],
      "name": "configValue",
      "outputs": [
        {
          "internalType": "uint256",
          "name": "",
          "type": "uint256"
        }
      ],
      "stateMutability": "view",
      "type": "function"
    }
  ],
  "bytecode": "0x60c060405234801561001057600080fd5b5060405161029138038061029183398101604081905261002f9161005c565b80806020019051810190610043919061012b565b60601b6001600160601b03191660a0526080525061017e565b6000602080838503121561006f57600080fd5b82516001600160401b038082111561008657600080fd5b818501915085601f83011261009a57600080fd5b8151818111156100ac576100ac610168565b604051601f8201601f19908116603f011681019083821181831017156100d4576100d4610168565b8160405282815288868487010111156100ec57600080fd5b600093505b8284101561010e57848401860151818501870152928501926100f1565b8284111561011f5760008684830101525b98975050505050505050565b6000806040838503121561013e57600080fd5b825160208401519092506001600160a01b038116811461015d57600080fd5b809150509250929050565b634e487b7160e01b600052604160045260246000fd5b60805160a05160601c60ef6101a26000396000607301526000603a015260ef6000f3fe6080604052348015600f57600080fd5b506004361060315760003560e01c80626c51be146036578063073d911f14606f575b600080fd5b605c7f000000000000000000000000000000000000000000000000000000000000000081565b6040519081526020015b60405180910390f35b60957f000000000000000000000000000000000000000000000000000000000000000081565b60405173ffffffffffffffffffffffffffffffffffffffff9091168152602001606656fea264697066735822122020bc5d579197c9dbc110d4d6a559dac77aa7399b7a17ee26b4cbce9b95dba5a264736f6c63430008070033",
  "linkReferences": {},
  "deployedLinkReferences": {}
}