{
  "_format": "hh-sol-artifact-1",
  "contractName": "Migrator",
  "sourceName": "contracts/workInProgress/Migrator.sol",
  "abi": [
    {
      "inputs": [
        {
          "internalType": "address",
          "name": "_chef",
          "type": "address"
        },
        {
          "internalType": "contract IBentoBoxMinimal",
          "name": "_bentoBox",
          "type": "address"
        },
        {
          "internalType": "contract ConstantProductPoolFactory",
          "name": "_factory",
          "type": "address"
        }
      ],
      "stateMutability": "nonpayable",
      "type": "constructor"
    },
    {
      "inputs": [],
      "name": "bentoBox",
      "outputs": [
        {
          "internalType": "contract IBentoBoxMinimal",
          "name": "",
          "type": "address"
        }
      ],
      "stateMutability": "view",
      "type": "function"
    },
    {
      "inputs": [],
      "name": "chef",
      "outputs": [
        {
          "internalType": "address",
          "name": "",
          "type": "address"
        }
      ],
      "stateMutability": "view",
      "type": "function"
    },
    {
      "inputs": [],
      "name": "desiredLiquidity",
      "outputs": [
        {
          "internalType": "uint256",
          "name": "",
          "type": "uint256"
        }
      ],
      "stateMutability": "view",
      "type": "function"
    },
    {
      "inputs": [],
      "name": "factory",
      "outputs": [
        {
          "internalType": "contract ConstantProductPoolFactory",
          "name": "",
          "type": "address"
        }
      ],
      "stateMutability": "view",
      "type": "function"
    },
    {
      "inputs": [
        {
          "internalType": "contract ConstantProductPool",
          "name": "orig",
          "type": "address"
        }
      ],
      "name": "migrate",
      "outputs": [
        {
          "internalType": "contract IPool",
          "name": "",
          "type": "address"
        }
      ],
      "stateMutability": "nonpayable",
      "type": "function"
    }
  ],
  "bytecode": "0x608060405260001960035534801561001657600080fd5b50604051610c68380380610c6883398101604081905261003591610077565b600080546001600160a01b039485166001600160a01b0319918216179091556002805493851693821693909317909255600180549190931691161790556100dc565b60008060006060848603121561008c57600080fd5b8351610097816100c4565b60208501519093506100a8816100c4565b60408501519092506100b9816100c4565b809150509250925092565b6001600160a01b03811681146100d957600080fd5b50565b610b7d806100eb6000396000f3fe608060405234801561001057600080fd5b50600436106100675760003560e01c80636b2ace87116100505780636b2ace87146100cd578063c45a0155146100ed578063ce5494bb1461010d57600080fd5b80631fc8bc5d1461006c57806340dc0e37146100b6575b600080fd5b60005461008c9073ffffffffffffffffffffffffffffffffffffffff1681565b60405173ffffffffffffffffffffffffffffffffffffffff90911681526020015b60405180910390f35b6100bf60035481565b6040519081526020016100ad565b60025461008c9073ffffffffffffffffffffffffffffffffffffffff1681565b60015461008c9073ffffffffffffffffffffffffffffffffffffffff1681565b61008c61011b3660046109d2565b6000805473ffffffffffffffffffffffffffffffffffffffff1633146101a2576040517f08c379a000000000000000000000000000000000000000000000000000000000815260206004820152600560248201527f216368656600000000000000000000000000000000000000000000000000000060448201526064015b60405180910390fd5b60008273ffffffffffffffffffffffffffffffffffffffff16630dfe16816040518163ffffffff1660e01b815260040160206040518083038186803b1580156101ea57600080fd5b505afa1580156101fe573d6000803e3d6000fd5b505050506040513d601f19601f8201168201806040525081019061022291906108b2565b905060008373ffffffffffffffffffffffffffffffffffffffff1663d21220a76040518163ffffffff1660e01b815260040160206040518083038186803b15801561026c57600080fd5b505afa158015610280573d6000803e3d6000fd5b505050506040513d601f19601f820116820180604052508101906102a491906108b2565b6040805173ffffffffffffffffffffffffffffffffffffffff8086166020830152831691810191909152600a606082015260006080820181905291925060a001604080518083037fffffffffffffffffffffffffffffffffffffffffffffffffffffffffffffffe001815290829052600154815160208301207ff6ab6d99000000000000000000000000000000000000000000000000000000008452600484015290925060009173ffffffffffffffffffffffffffffffffffffffff9091169063f6ab6d999060240160206040518083038186803b15801561038557600080fd5b505afa158015610399573d6000803e3d6000fd5b505050506040513d601f19601f820116820180604052508101906103bd91906108b2565b905073ffffffffffffffffffffffffffffffffffffffff8116610485576001546040517f27c3cae100000000000000000000000000000000000000000000000000000000815273ffffffffffffffffffffffffffffffffffffffff909116906327c3cae190610430908590600401610a08565b602060405180830381600087803b15801561044a57600080fd5b505af115801561045e573d6000803e3d6000fd5b505050506040513d601f19601f8201168201806040525081019061048291906108b2565b90505b8073ffffffffffffffffffffffffffffffffffffffff166318160ddd6040518163ffffffff1660e01b8152600401602060405180830381600087803b1580156104cd57600080fd5b505af11580156104e1573d6000803e3d6000fd5b505050506040513d601f19601f8201168201806040525081019061050591906109ef565b15610592576040517f08c379a000000000000000000000000000000000000000000000000000000000815260206004820152602160248201527f70616972206d7573742068617665206e6f206578697374696e6720737570706c60448201527f79000000000000000000000000000000000000000000000000000000000000006064820152608401610199565b6040517f70a0823100000000000000000000000000000000000000000000000000000000815233600482015260009073ffffffffffffffffffffffffffffffffffffffff8816906370a082319060240160206040518083038186803b1580156105fa57600080fd5b505afa15801561060e573d6000803e3d6000fd5b505050506040513d601f19601f8201168201806040525081019061063291906109ef565b905080610643575095945050505050565b6040517f23b872dd00000000000000000000000000000000000000000000000000000000815233600482015273ffffffffffffffffffffffffffffffffffffffff88166024820181905260448201839052906323b872dd90606401602060405180830381600087803b1580156106b857600080fd5b505af11580156106cc573d6000803e3d6000fd5b505050506040513d601f19601f820116820180604052508101906106f091906109b0565b5060038190556040805173ffffffffffffffffffffffffffffffffffffffff848116602083015260008284015282518083038401815260608301938490527f2a07b6c700000000000000000000000000000000000000000000000000000000909352891691632a07b6c7916107689190606401610a08565b600060405180830381600087803b15801561078257600080fd5b505af1158015610796573d6000803e3d6000fd5b505050506040513d6000823e601f3d9081017fffffffffffffffffffffffffffffffffffffffffffffffffffffffffffffffe01682016040526107dc91908101906108d6565b506040805133602082015273ffffffffffffffffffffffffffffffffffffffff841691637ba0e2e791016040516020818303038152906040526040518263ffffffff1660e01b81526004016108319190610a08565b602060405180830381600087803b15801561084b57600080fd5b505af115801561085f573d6000803e3d6000fd5b505050506040513d601f19601f8201168201806040525081019061088391906109ef565b50507fffffffffffffffffffffffffffffffffffffffffffffffffffffffffffffffff60035595945050505050565b6000602082840312156108c457600080fd5b81516108cf81610b22565b9392505050565b600060208083850312156108e957600080fd5b825167ffffffffffffffff8082111561090157600080fd5b818501915085601f83011261091557600080fd5b81518181111561092757610927610af3565b610935848260051b01610aa4565b8181528481019250838501600683901b8501860189101561095557600080fd5b60009450845b838110156109a257604080838c031215610973578687fd5b61097b610a7b565b835161098681610b22565b815283890151898201528652948701949091019060010161095b565b509098975050505050505050565b6000602082840312156109c257600080fd5b815180151581146108cf57600080fd5b6000602082840312156109e457600080fd5b81356108cf81610b22565b600060208284031215610a0157600080fd5b5051919050565b600060208083528351808285015260005b81811015610a3557858101830151858201604001528201610a19565b81811115610a47576000604083870101525b50601f017fffffffffffffffffffffffffffffffffffffffffffffffffffffffffffffffe016929092016040019392505050565b6040805190810167ffffffffffffffff81118282101715610a9e57610a9e610af3565b60405290565b604051601f82017fffffffffffffffffffffffffffffffffffffffffffffffffffffffffffffffe016810167ffffffffffffffff81118282101715610aeb57610aeb610af3565b604052919050565b7f4e487b7100000000000000000000000000000000000000000000000000000000600052604160045260246000fd5b73ffffffffffffffffffffffffffffffffffffffff81168114610b4457600080fd5b5056fea26469706673582212201b8121da5f562cb738adc502a5b4bc5f10e7528001c68c18615db05a6b792f5264736f6c63430008070033",
  "linkReferences": {},
  "deployedLinkReferences": {}
}