{
  "_format": "hh-sol-artifact-1",
  "contractName": "TridentRouter",
  "sourceName": "contracts/TridentRouter.sol",
  "abi": [
    {
      "inputs": [
        {
          "internalType": "contract IBentoBoxMinimal",
          "name": "_bento",
          "type": "address"
        },
        {
          "internalType": "contract MasterDeployer",
          "name": "_masterDeployer",
          "type": "address"
        },
        {
          "internalType": "address",
          "name": "_wETH",
          "type": "address"
        }
      ],
      "stateMutability": "nonpayable",
      "type": "constructor"
    },
    {
      "inputs": [
        {
          "components": [
            {
              "internalType": "address",
              "name": "token",
              "type": "address"
            },
            {
              "internalType": "bool",
              "name": "native",
              "type": "bool"
            },
            {
              "internalType": "uint256",
              "name": "amount",
              "type": "uint256"
            }
          ],
          "internalType": "struct ITridentRouter.TokenInput[]",
          "name": "tokenInput",
          "type": "tuple[]"
        },
        {
          "internalType": "address",
          "name": "pool",
          "type": "address"
        },
        {
          "internalType": "uint256",
          "name": "minLiquidity",
          "type": "uint256"
        },
        {
          "internalType": "bytes",
          "name": "data",
          "type": "bytes"
        }
      ],
      "name": "addLiquidity",
      "outputs": [
        {
          "internalType": "uint256",
          "name": "liquidity",
          "type": "uint256"
        }
      ],
      "stateMutability": "payable",
      "type": "function"
    },
    {
      "inputs": [
        {
          "internalType": "address",
          "name": "pool",
          "type": "address"
        },
        {
          "internalType": "uint256",
          "name": "minLiquidity",
          "type": "uint256"
        },
        {
          "internalType": "bytes",
          "name": "data",
          "type": "bytes"
        }
      ],
      "name": "addLiquidityLazy",
      "outputs": [
        {
          "internalType": "uint256",
          "name": "liquidity",
          "type": "uint256"
        }
      ],
      "stateMutability": "payable",
      "type": "function"
    },
    {
      "inputs": [
        {
          "internalType": "bytes[]",
          "name": "data",
          "type": "bytes[]"
        }
      ],
      "name": "batch",
      "outputs": [
        {
          "internalType": "bytes[]",
          "name": "results",
          "type": "bytes[]"
        }
      ],
      "stateMutability": "payable",
      "type": "function"
    },
    {
      "inputs": [],
      "name": "bento",
      "outputs": [
        {
          "internalType": "contract IBentoBoxMinimal",
          "name": "",
          "type": "address"
        }
      ],
      "stateMutability": "view",
      "type": "function"
    },
    {
      "inputs": [
        {
          "internalType": "address",
          "name": "pool",
          "type": "address"
        },
        {
          "internalType": "uint256",
          "name": "liquidity",
          "type": "uint256"
        },
        {
          "internalType": "bytes",
          "name": "data",
          "type": "bytes"
        },
        {
          "components": [
            {
              "internalType": "address",
              "name": "token",
              "type": "address"
            },
            {
              "internalType": "uint256",
              "name": "amount",
              "type": "uint256"
            }
          ],
          "internalType": "struct IPool.TokenAmount[]",
          "name": "minWithdrawals",
          "type": "tuple[]"
        }
      ],
      "name": "burnLiquidity",
      "outputs": [],
      "stateMutability": "nonpayable",
      "type": "function"
    },
    {
      "inputs": [
        {
          "internalType": "address",
          "name": "pool",
          "type": "address"
        },
        {
          "internalType": "uint256",
          "name": "liquidity",
          "type": "uint256"
        },
        {
          "internalType": "bytes",
          "name": "data",
          "type": "bytes"
        },
        {
          "internalType": "uint256",
          "name": "minWithdrawal",
          "type": "uint256"
        }
      ],
      "name": "burnLiquiditySingle",
      "outputs": [],
      "stateMutability": "nonpayable",
      "type": "function"
    },
    {
      "inputs": [
        {
          "components": [
            {
              "components": [
                {
                  "internalType": "address",
                  "name": "tokenIn",
                  "type": "address"
                },
                {
                  "internalType": "address",
                  "name": "pool",
                  "type": "address"
                },
                {
                  "internalType": "bool",
                  "name": "native",
                  "type": "bool"
                },
                {
                  "internalType": "uint256",
                  "name": "amount",
                  "type": "uint256"
                },
                {
                  "internalType": "bytes",
                  "name": "data",
                  "type": "bytes"
                }
              ],
              "internalType": "struct ITridentRouter.InitialPath[]",
              "name": "initialPath",
              "type": "tuple[]"
            },
            {
              "components": [
                {
                  "internalType": "address",
                  "name": "tokenIn",
                  "type": "address"
                },
                {
                  "internalType": "address",
                  "name": "pool",
                  "type": "address"
                },
                {
                  "internalType": "uint64",
                  "name": "balancePercentage",
                  "type": "uint64"
                },
                {
                  "internalType": "bytes",
                  "name": "data",
                  "type": "bytes"
                }
              ],
              "internalType": "struct ITridentRouter.PercentagePath[]",
              "name": "percentagePath",
              "type": "tuple[]"
            },
            {
              "components": [
                {
                  "internalType": "address",
                  "name": "token",
                  "type": "address"
                },
                {
                  "internalType": "address",
                  "name": "to",
                  "type": "address"
                },
                {
                  "internalType": "bool",
                  "name": "unwrapBento",
                  "type": "bool"
                },
                {
                  "internalType": "uint256",
                  "name": "minAmount",
                  "type": "uint256"
                }
              ],
              "internalType": "struct ITridentRouter.Output[]",
              "name": "output",
              "type": "tuple[]"
            }
          ],
          "internalType": "struct ITridentRouter.ComplexPathParams",
          "name": "params",
          "type": "tuple"
        }
      ],
      "name": "complexPath",
      "outputs": [],
      "stateMutability": "payable",
      "type": "function"
    },
    {
      "inputs": [
        {
          "components": [
            {
              "internalType": "address",
              "name": "tokenIn",
              "type": "address"
            },
            {
              "internalType": "uint256",
              "name": "amountIn",
              "type": "uint256"
            },
            {
              "internalType": "uint256",
              "name": "amountOutMinimum",
              "type": "uint256"
            },
            {
              "components": [
                {
                  "internalType": "address",
                  "name": "pool",
                  "type": "address"
                },
                {
                  "internalType": "bytes",
                  "name": "data",
                  "type": "bytes"
                }
              ],
              "internalType": "struct ITridentRouter.Path[]",
              "name": "path",
              "type": "tuple[]"
            }
          ],
          "internalType": "struct ITridentRouter.ExactInputParams",
          "name": "params",
          "type": "tuple"
        }
      ],
      "name": "exactInput",
      "outputs": [
        {
          "internalType": "uint256",
          "name": "amountOut",
          "type": "uint256"
        }
      ],
      "stateMutability": "payable",
      "type": "function"
    },
    {
      "inputs": [
        {
          "internalType": "uint256",
          "name": "amountOutMinimum",
          "type": "uint256"
        },
        {
          "components": [
            {
              "internalType": "address",
              "name": "pool",
              "type": "address"
            },
            {
              "internalType": "bytes",
              "name": "data",
              "type": "bytes"
            }
          ],
          "internalType": "struct ITridentRouter.Path[]",
          "name": "path",
          "type": "tuple[]"
        }
      ],
      "name": "exactInputLazy",
      "outputs": [
        {
          "internalType": "uint256",
          "name": "amountOut",
          "type": "uint256"
        }
      ],
      "stateMutability": "payable",
      "type": "function"
    },
    {
      "inputs": [
        {
          "components": [
            {
              "internalType": "uint256",
              "name": "amountIn",
              "type": "uint256"
            },
            {
              "internalType": "uint256",
              "name": "amountOutMinimum",
              "type": "uint256"
            },
            {
              "internalType": "address",
              "name": "pool",
              "type": "address"
            },
            {
              "internalType": "address",
              "name": "tokenIn",
              "type": "address"
            },
            {
              "internalType": "bytes",
              "name": "data",
              "type": "bytes"
            }
          ],
          "internalType": "struct ITridentRouter.ExactInputSingleParams",
          "name": "params",
          "type": "tuple"
        }
      ],
      "name": "exactInputSingle",
      "outputs": [
        {
          "internalType": "uint256",
          "name": "amountOut",
          "type": "uint256"
        }
      ],
      "stateMutability": "payable",
      "type": "function"
    },
    {
      "inputs": [
        {
          "components": [
            {
              "internalType": "uint256",
              "name": "amountIn",
              "type": "uint256"
            },
            {
              "internalType": "uint256",
              "name": "amountOutMinimum",
              "type": "uint256"
            },
            {
              "internalType": "address",
              "name": "pool",
              "type": "address"
            },
            {
              "internalType": "address",
              "name": "tokenIn",
              "type": "address"
            },
            {
              "internalType": "bytes",
              "name": "data",
              "type": "bytes"
            }
          ],
          "internalType": "struct ITridentRouter.ExactInputSingleParams",
          "name": "params",
          "type": "tuple"
        }
      ],
      "name": "exactInputSingleWithNativeToken",
      "outputs": [
        {
          "internalType": "uint256",
          "name": "amountOut",
          "type": "uint256"
        }
      ],
      "stateMutability": "payable",
      "type": "function"
    },
    {
      "inputs": [
        {
          "components": [
            {
              "internalType": "address",
              "name": "tokenIn",
              "type": "address"
            },
            {
              "internalType": "uint256",
              "name": "amountIn",
              "type": "uint256"
            },
            {
              "internalType": "uint256",
              "name": "amountOutMinimum",
              "type": "uint256"
            },
            {
              "components": [
                {
                  "internalType": "address",
                  "name": "pool",
                  "type": "address"
                },
                {
                  "internalType": "bytes",
                  "name": "data",
                  "type": "bytes"
                }
              ],
              "internalType": "struct ITridentRouter.Path[]",
              "name": "path",
              "type": "tuple[]"
            }
          ],
          "internalType": "struct ITridentRouter.ExactInputParams",
          "name": "params",
          "type": "tuple"
        }
      ],
      "name": "exactInputWithNativeToken",
      "outputs": [
        {
          "internalType": "uint256",
          "name": "amountOut",
          "type": "uint256"
        }
      ],
      "stateMutability": "payable",
      "type": "function"
    },
    {
      "inputs": [],
      "name": "masterDeployer",
      "outputs": [
        {
          "internalType": "contract MasterDeployer",
          "name": "",
          "type": "address"
        }
      ],
      "stateMutability": "view",
      "type": "function"
    },
    {
      "inputs": [
        {
          "internalType": "address",
          "name": "token",
          "type": "address"
        },
        {
          "internalType": "uint256",
          "name": "amount",
          "type": "uint256"
        },
        {
          "internalType": "uint256",
          "name": "deadline",
          "type": "uint256"
        },
        {
          "internalType": "uint8",
          "name": "v",
          "type": "uint8"
        },
        {
          "internalType": "bytes32",
          "name": "r",
          "type": "bytes32"
        },
        {
          "internalType": "bytes32",
          "name": "s",
          "type": "bytes32"
        }
      ],
      "name": "permitThis",
      "outputs": [],
      "stateMutability": "nonpayable",
      "type": "function"
    },
    {
      "inputs": [
        {
          "internalType": "address",
          "name": "token",
          "type": "address"
        },
        {
          "internalType": "uint256",
          "name": "nonce",
          "type": "uint256"
        },
        {
          "internalType": "uint256",
          "name": "expiry",
          "type": "uint256"
        },
        {
          "internalType": "uint8",
          "name": "v",
          "type": "uint8"
        },
        {
          "internalType": "bytes32",
          "name": "r",
          "type": "bytes32"
        },
        {
          "internalType": "bytes32",
          "name": "s",
          "type": "bytes32"
        }
      ],
      "name": "permitThisAllowed",
      "outputs": [],
      "stateMutability": "nonpayable",
      "type": "function"
    },
    {
      "inputs": [],
      "name": "refundETH",
      "outputs": [],
      "stateMutability": "payable",
      "type": "function"
    },
    {
      "inputs": [
        {
          "internalType": "address",
          "name": "token",
          "type": "address"
        },
        {
          "internalType": "uint256",
          "name": "amount",
          "type": "uint256"
        },
        {
          "internalType": "address",
          "name": "recipient",
          "type": "address"
        }
      ],
      "name": "sweepBentoBoxToken",
      "outputs": [],
      "stateMutability": "nonpayable",
      "type": "function"
    },
    {
      "inputs": [
        {
          "internalType": "address",
          "name": "token",
          "type": "address"
        },
        {
          "internalType": "uint256",
          "name": "amount",
          "type": "uint256"
        },
        {
          "internalType": "address",
          "name": "recipient",
          "type": "address"
        }
      ],
      "name": "sweepNativeToken",
      "outputs": [],
      "stateMutability": "nonpayable",
      "type": "function"
    },
    {
      "inputs": [
        {
          "internalType": "bytes",
          "name": "data",
          "type": "bytes"
        }
      ],
      "name": "tridentMintCallback",
      "outputs": [],
      "stateMutability": "nonpayable",
      "type": "function"
    },
    {
      "inputs": [
        {
          "internalType": "bytes",
          "name": "data",
          "type": "bytes"
        }
      ],
      "name": "tridentSwapCallback",
      "outputs": [],
      "stateMutability": "nonpayable",
      "type": "function"
    },
    {
      "inputs": [
        {
          "internalType": "uint256",
          "name": "amountMinimum",
          "type": "uint256"
        },
        {
          "internalType": "address",
          "name": "recipient",
          "type": "address"
        }
      ],
      "name": "unwrapWETH",
      "outputs": [],
      "stateMutability": "nonpayable",
      "type": "function"
    },
    {
      "stateMutability": "payable",
      "type": "receive"
    }
  ],
  "bytecode": "0x60e06040523480156200001157600080fd5b5060405162005800380380620058008339810160408190526200003491620000c2565b6001600160601b0319606082901b166080526040805163577268d960e11b815290516001600160a01b0385169163aee4d1b291600480830192600092919082900301818387803b1580156200008857600080fd5b505af11580156200009d573d6000803e3d6000fd5b5050505050606091821b6001600160601b031990811660a052911b1660c0526200012f565b600080600060608486031215620000d857600080fd5b8351620000e58162000116565b6020850151909350620000f88162000116565b60408501519092506200010b8162000116565b809150509250925092565b6001600160a01b03811681146200012c57600080fd5b50565b60805160601c60a05160601c60c05160601c6155aa62000256600039600081816103fa015281816104c601528181610a1e01528181610c35015281816114c10152818161178501528181611cb701528181612138015281816126ca0152612c4d015260008181610288015281816107d401528181611388015281816118e201528181612088015281816125510152818161297501528181612b0001528181612f080152818161301d0152818161320201528181613369015281816135d50152818161379101528181613a7501528181613b5d01528181613c3d0152818161413f01528181614227015261431101526000818161018b015281816138f7015281816139a201528181613a3c0152818161406c0152818161410601526144f701526155aa6000f3fe60806040526004361061016e5760003560e01c8063783312d9116100cb578063a9b62c231161007f578063ced10b4911610059578063ced10b49146103c8578063cf58879a146103e8578063e16d9ce51461041c57600080fd5b8063a9b62c2314610375578063b96c5c0e14610395578063bd50c7b1146103a857600080fd5b806394ae4ab2116100b057806394ae4ab21461032f57806398a691de1461034f5780639fa744911461036257600080fd5b8063783312d9146102ef5780639128efda1461030f57600080fd5b80631e897afb116101225780632cfcb94f116101075780632cfcb94f146102635780634da318271461027657806377631981146102cf57600080fd5b80631e897afb146102305780632c0d9a011461025057600080fd5b806312210e8a1161015357806312210e8a146101f55780631aa349a8146101fd5780631ab5d6c81461021d57600080fd5b80630b0d1b1e146101bc5780630f93d439146101e257600080fd5b366101b7573373ffffffffffffffffffffffffffffffffffffffff7f000000000000000000000000000000000000000000000000000000000000000016146101b557600080fd5b005b600080fd5b6101cf6101ca366004614d73565b61043c565b6040519081526020015b60405180910390f35b6101cf6101f0366004614dae565b6107bb565b6101b56109c7565b34801561020957600080fd5b506101b561021836600461498c565b6109d9565b6101cf61022b366004614e4e565b610c27565b61024361023e366004614a52565b610fe2565b6040516101d99190614f5e565b6101cf61025e366004614d73565b61136f565b6101cf610271366004614b8d565b61173d565b34801561028257600080fd5b506102aa7f000000000000000000000000000000000000000000000000000000000000000081565b60405173ffffffffffffffffffffffffffffffffffffffff90911681526020016101d9565b3480156102db57600080fd5b506101b56102ea3660046149f0565b611b0c565b3480156102fb57600080fd5b506101b561030a36600461487d565b611c72565b34801561031b57600080fd5b506101b561032a3660046147df565b61202e565b34801561033b57600080fd5b506101b561034a3660046147df565b6120e0565b6101cf61035d366004614821565b6120f0565b6101cf610370366004614dae565b612394565b34801561038157600080fd5b506101b56103903660046149f0565b6123d0565b6101b56103a3366004614d38565b61242e565b3480156103b457600080fd5b506101b56103c3366004614c50565b6134a6565b3480156103d457600080fd5b506101b56103e3366004614c50565b613664565b3480156103f457600080fd5b506102aa7f000000000000000000000000000000000000000000000000000000000000000081565b34801561042857600080fd5b506101b5610437366004614e1e565b6138f0565b600061049661044e60208401846147c2565b61045b606085018561503e565b600081811061046c5761046c6154e3565b905060200281019061047e91906151a7565b61048c9060208101906147c2565b84602001356139a0565b60005b6104a6606084018461503e565b90508110156107475773ffffffffffffffffffffffffffffffffffffffff7f00000000000000000000000000000000000000000000000000000000000000001663a4063dbc6104f8606086018661503e565b84818110610508576105086154e3565b905060200281019061051a91906151a7565b6105289060208101906147c2565b6040517fffffffff0000000000000000000000000000000000000000000000000000000060e084901b16815273ffffffffffffffffffffffffffffffffffffffff909116600482015260240160206040518083038186803b15801561058c57600080fd5b505afa1580156105a0573d6000803e3d6000fd5b505050506040513d601f19601f820116820180604052508101906105c49190614c33565b61062f576040517f08c379a000000000000000000000000000000000000000000000000000000000815260206004820152600c60248201527f494e56414c49445f504f4f4c000000000000000000000000000000000000000060448201526064015b60405180910390fd5b61063c606084018461503e565b8281811061064c5761064c6154e3565b905060200281019061065e91906151a7565b61066c9060208101906147c2565b73ffffffffffffffffffffffffffffffffffffffff1663627dd56a610694606086018661503e565b848181106106a4576106a46154e3565b90506020028101906106b691906151a7565b6106c490602081019061510e565b6040518363ffffffff1660e01b81526004016106e1929190614fde565b602060405180830381600087803b1580156106fb57600080fd5b505af115801561070f573d6000803e3d6000fd5b505050506040513d601f19601f820116820180604052508101906107339190614e05565b91508061073f8161547b565b915050610499565b5081604001358110156107b6576040517f08c379a000000000000000000000000000000000000000000000000000000000815260206004820152601360248201527f544f4f5f4c4954544c455f5245434549564544000000000000000000000000006044820152606401610626565b919050565b600073ffffffffffffffffffffffffffffffffffffffff7f00000000000000000000000000000000000000000000000000000000000000001663f18d03cc61080960808501606086016147c2565b3361081a60608701604088016147c2565b6040517fffffffff0000000000000000000000000000000000000000000000000000000060e086901b16815273ffffffffffffffffffffffffffffffffffffffff93841660048201529183166024830152909116604482015284356064820152608401600060405180830381600087803b15801561089757600080fd5b505af11580156108ab573d6000803e3d6000fd5b506108c09250505060608301604084016147c2565b73ffffffffffffffffffffffffffffffffffffffff1663627dd56a6108e8608085018561510e565b6040518363ffffffff1660e01b8152600401610905929190614fde565b602060405180830381600087803b15801561091f57600080fd5b505af1158015610933573d6000803e3d6000fd5b505050506040513d601f19601f820116820180604052508101906109579190614e05565b905081602001358110156107b6576040517f08c379a000000000000000000000000000000000000000000000000000000000815260206004820152601360248201527f544f4f5f4c4954544c455f5245434549564544000000000000000000000000006044820152606401610626565b47156109d7576109d73347613cbf565b565b6040517fa4063dbc00000000000000000000000000000000000000000000000000000000815273ffffffffffffffffffffffffffffffffffffffff86811660048301527f0000000000000000000000000000000000000000000000000000000000000000169063a4063dbc9060240160206040518083038186803b158015610a6057600080fd5b505afa158015610a74573d6000803e3d6000fd5b505050506040513d601f19601f82011682018060405250810190610a989190614c33565b610afe576040517f08c379a000000000000000000000000000000000000000000000000000000000815260206004820152600c60248201527f494e56414c49445f504f4f4c00000000000000000000000000000000000000006044820152606401610626565b610b0a85338787613d89565b6040517faf8c09bf00000000000000000000000000000000000000000000000000000000815260009073ffffffffffffffffffffffffffffffffffffffff87169063af8c09bf90610b619087908790600401614fde565b602060405180830381600087803b158015610b7b57600080fd5b505af1158015610b8f573d6000803e3d6000fd5b505050506040513d601f19601f82011682018060405250810190610bb39190614e05565b905081811015610c1f576040517f08c379a000000000000000000000000000000000000000000000000000000000815260206004820152601360248201527f544f4f5f4c4954544c455f5245434549564544000000000000000000000000006044820152606401610626565b505050505050565b6000805b82811015610f46577f000000000000000000000000000000000000000000000000000000000000000073ffffffffffffffffffffffffffffffffffffffff1663a4063dbc858584818110610c8157610c816154e3565b9050602002810190610c9391906151a7565b610ca19060208101906147c2565b6040517fffffffff0000000000000000000000000000000000000000000000000000000060e084901b16815273ffffffffffffffffffffffffffffffffffffffff909116600482015260240160206040518083038186803b158015610d0557600080fd5b505afa158015610d19573d6000803e3d6000fd5b505050506040513d601f19601f82011682018060405250810190610d3d9190614c33565b610da3576040517f08c379a000000000000000000000000000000000000000000000000000000000815260206004820152600c60248201527f494e56414c49445f504f4f4c00000000000000000000000000000000000000006044820152606401610626565b600080547fffffffffffffffffffffffff00000000000000000000000000000000000000001633179055838382818110610ddf57610ddf6154e3565b9050602002810190610df191906151a7565b610dff9060208101906147c2565b600180547fffffffffffffffffffffffff00000000000000000000000000000000000000001673ffffffffffffffffffffffffffffffffffffffff92909216919091179055838382818110610e5657610e566154e3565b9050602002810190610e6891906151a7565b610e769060208101906147c2565b73ffffffffffffffffffffffffffffffffffffffff1663053da1c8858584818110610ea357610ea36154e3565b9050602002810190610eb591906151a7565b610ec390602081019061510e565b6040518363ffffffff1660e01b8152600401610ee0929190614fde565b602060405180830381600087803b158015610efa57600080fd5b505af1158015610f0e573d6000803e3d6000fd5b505050506040513d601f19601f82011682018060405250810190610f329190614e05565b915080610f3e8161547b565b915050610c2b565b50600180547fffffffffffffffffffffffff0000000000000000000000000000000000000000168117905583811015610fdb576040517f08c379a000000000000000000000000000000000000000000000000000000000815260206004820152601360248201527f544f4f5f4c4954544c455f5245434549564544000000000000000000000000006044820152606401610626565b9392505050565b60608167ffffffffffffffff811115610ffd57610ffd615512565b60405190808252806020026020018201604052801561103057816020015b606081526020019060019003908161101b5790505b5090506000805b838110156113675760006110a2868684818110611056576110566154e3565b9050602002810190611068919061510e565b8080601f016020809104026020016040519081016040528093929190818152602001838380828437600092019190915250613efa92505050565b90507fffffffff0000000000000000000000000000000000000000000000000000000081167f0f93d43900000000000000000000000000000000000000000000000000000000148061113557507fffffffff0000000000000000000000000000000000000000000000000000000081167f9fa7449100000000000000000000000000000000000000000000000000000000145b156111ab5782156111a2576040517f08c379a000000000000000000000000000000000000000000000000000000000815260206004820152601160248201527f537761702063616c6c65642074776963650000000000000000000000000000006044820152606401610626565b60019250611257565b7fffffffff0000000000000000000000000000000000000000000000000000000081167f1e897afb000000000000000000000000000000000000000000000000000000001415611257576040517f08c379a000000000000000000000000000000000000000000000000000000000815260206004820152600c60248201527f4e657374656420426174636800000000000000000000000000000000000000006044820152606401610626565b6000803088888681811061126d5761126d6154e3565b905060200281019061127f919061510e565b60405161128d929190614f32565b600060405180830381855af49150503d80600081146112c8576040519150601f19603f3d011682016040523d82523d6000602084013e6112cd565b606091505b509150915081611333576044815110156112e657600080fd5b600481019050808060200190518101906113009190614c86565b6040517f08c379a0000000000000000000000000000000000000000000000000000000008152600401610626919061502b565b80868581518110611346576113466154e3565b6020026020010181905250505050808061135f9061547b565b915050611037565b505092915050565b600073ffffffffffffffffffffffffffffffffffffffff7f00000000000000000000000000000000000000000000000000000000000000001663f18d03cc6113ba60208501856147c2565b336113c8606087018761503e565b60008181106113d9576113d96154e3565b90506020028101906113eb91906151a7565b6113f99060208101906147c2565b60405160e085901b7fffffffff0000000000000000000000000000000000000000000000000000000016815273ffffffffffffffffffffffffffffffffffffffff93841660048201529183166024830152909116604482015260208501356064820152608401600060405180830381600087803b15801561147957600080fd5b505af115801561148d573d6000803e3d6000fd5b5050505060005b6114a1606084018461503e565b90508110156107475773ffffffffffffffffffffffffffffffffffffffff7f00000000000000000000000000000000000000000000000000000000000000001663a4063dbc6114f3606086018661503e565b84818110611503576115036154e3565b905060200281019061151591906151a7565b6115239060208101906147c2565b6040517fffffffff0000000000000000000000000000000000000000000000000000000060e084901b16815273ffffffffffffffffffffffffffffffffffffffff909116600482015260240160206040518083038186803b15801561158757600080fd5b505afa15801561159b573d6000803e3d6000fd5b505050506040513d601f19601f820116820180604052508101906115bf9190614c33565b611625576040517f08c379a000000000000000000000000000000000000000000000000000000000815260206004820152600c60248201527f494e56414c49445f504f4f4c00000000000000000000000000000000000000006044820152606401610626565b611632606084018461503e565b82818110611642576116426154e3565b905060200281019061165491906151a7565b6116629060208101906147c2565b73ffffffffffffffffffffffffffffffffffffffff1663627dd56a61168a606086018661503e565b8481811061169a5761169a6154e3565b90506020028101906116ac91906151a7565b6116ba90602081019061510e565b6040518363ffffffff1660e01b81526004016116d7929190614fde565b602060405180830381600087803b1580156116f157600080fd5b505af1158015611705573d6000803e3d6000fd5b505050506040513d601f19601f820116820180604052508101906117299190614e05565b9150806117358161547b565b915050611494565b6040517fa4063dbc00000000000000000000000000000000000000000000000000000000815273ffffffffffffffffffffffffffffffffffffffff85811660048301526000917f00000000000000000000000000000000000000000000000000000000000000009091169063a4063dbc9060240160206040518083038186803b1580156117c957600080fd5b505afa1580156117dd573d6000803e3d6000fd5b505050506040513d601f19601f820116820180604052508101906118019190614c33565b611867576040517f08c379a000000000000000000000000000000000000000000000000000000000815260206004820152600c60248201527f494e56414c49445f504f4f4c00000000000000000000000000000000000000006044820152606401610626565b60005b86518110156119f057868181518110611885576118856154e3565b602002602001015160200151156118e0576118db8782815181106118ab576118ab6154e3565b602002602001015160000151878984815181106118ca576118ca6154e3565b6020026020010151604001516139a0565b6119de565b7f000000000000000000000000000000000000000000000000000000000000000073ffffffffffffffffffffffffffffffffffffffff1663f18d03cc88838151811061192e5761192e6154e3565b60200260200101516000015133898b868151811061194e5761194e6154e3565b6020026020010151604001516040518563ffffffff1660e01b81526004016119ab949392919073ffffffffffffffffffffffffffffffffffffffff9485168152928416602084015292166040820152606081019190915260800190565b600060405180830381600087803b1580156119c557600080fd5b505af11580156119d9573d6000803e3d6000fd5b505050505b806119e88161547b565b91505061186a565b506040517f7ba0e2e700000000000000000000000000000000000000000000000000000000815273ffffffffffffffffffffffffffffffffffffffff861690637ba0e2e790611a459086908690600401614fde565b602060405180830381600087803b158015611a5f57600080fd5b505af1158015611a73573d6000803e3d6000fd5b505050506040513d601f19601f82011682018060405250810190611a979190614e05565b905083811015611b03576040517f08c379a000000000000000000000000000000000000000000000000000000000815260206004820152601b60248201527f4e4f545f454e4f5547485f4c49515549444954595f4d494e54454400000000006044820152606401610626565b95945050505050565b6040513360248201523060448201526064810186905260848101859052600160a482015260ff841660c482015260e48101839052610104810182905260009073ffffffffffffffffffffffffffffffffffffffff881690638fcbaf0c90610124015b6040516020818303038152906040529060e01b6020820180517bffffffffffffffffffffffffffffffffffffffffffffffffffffffff8381831617835250505050604051611bbc9190614f42565b6000604051808303816000865af19150503d8060008114611bf9576040519150601f19603f3d011682016040523d82523d6000602084013e611bfe565b606091505b5050905080611c69576040517f08c379a000000000000000000000000000000000000000000000000000000000815260206004820152600d60248201527f5045524d49545f4641494c4544000000000000000000000000000000000000006044820152606401610626565b50505050505050565b6040517fa4063dbc00000000000000000000000000000000000000000000000000000000815273ffffffffffffffffffffffffffffffffffffffff86811660048301527f0000000000000000000000000000000000000000000000000000000000000000169063a4063dbc9060240160206040518083038186803b158015611cf957600080fd5b505afa158015611d0d573d6000803e3d6000fd5b505050506040513d601f19601f82011682018060405250810190611d319190614c33565b611d97576040517f08c379a000000000000000000000000000000000000000000000000000000000815260206004820152600c60248201527f494e56414c49445f504f4f4c00000000000000000000000000000000000000006044820152606401610626565b611da385338787613d89565b6040517f2a07b6c700000000000000000000000000000000000000000000000000000000815260009073ffffffffffffffffffffffffffffffffffffffff871690632a07b6c790611dfa9087908790600401614fde565b600060405180830381600087803b158015611e1457600080fd5b505af1158015611e28573d6000803e3d6000fd5b505050506040513d6000823e601f3d9081017fffffffffffffffffffffffffffffffffffffffffffffffffffffffffffffffe0168201604052611e6e9190810190614a94565b905060005b8251811015611c695760005b8251811015611fb157838281518110611e9a57611e9a6154e3565b60200260200101516000015173ffffffffffffffffffffffffffffffffffffffff16838281518110611ece57611ece6154e3565b60200260200101516000015173ffffffffffffffffffffffffffffffffffffffff161415611f9f57838281518110611f0857611f086154e3565b602002602001015160200151838281518110611f2657611f266154e3565b6020026020010151602001511015611f9a576040517f08c379a000000000000000000000000000000000000000000000000000000000815260206004820152601360248201527f544f4f5f4c4954544c455f5245434549564544000000000000000000000000006044820152606401610626565b611fb1565b80611fa98161547b565b915050611e7f565b8251811061201b576040517f08c379a000000000000000000000000000000000000000000000000000000000815260206004820152601960248201527f494e434f52524543545f544f4b454e5f57495448445241574e000000000000006044820152606401610626565b50806120268161547b565b915050611e73565b6040517ff18d03cc00000000000000000000000000000000000000000000000000000000815273ffffffffffffffffffffffffffffffffffffffff84811660048301523060248301528281166044830152606482018490527f0000000000000000000000000000000000000000000000000000000000000000169063f18d03cc90608401600060405180830381600087803b1580156120cc57600080fd5b505af1158015611c69573d6000803e3d6000fd5b6120eb838284613f01565b505050565b6040517fa4063dbc00000000000000000000000000000000000000000000000000000000815273ffffffffffffffffffffffffffffffffffffffff85811660048301526000917f00000000000000000000000000000000000000000000000000000000000000009091169063a4063dbc9060240160206040518083038186803b15801561217c57600080fd5b505afa158015612190573d6000803e3d6000fd5b505050506040513d601f19601f820116820180604052508101906121b49190614c33565b61221a576040517f08c379a000000000000000000000000000000000000000000000000000000000815260206004820152600c60248201527f494e56414c49445f504f4f4c00000000000000000000000000000000000000006044820152606401610626565b600080547fffffffffffffffffffffffff000000000000000000000000000000000000000090811633179091556001805473ffffffffffffffffffffffffffffffffffffffff88169216821790556040517f7ba0e2e7000000000000000000000000000000000000000000000000000000008152637ba0e2e7906122a49086908690600401614fde565b602060405180830381600087803b1580156122be57600080fd5b505af11580156122d2573d6000803e3d6000fd5b505050506040513d601f19601f820116820180604052508101906122f69190614e05565b600180547fffffffffffffffffffffffff0000000000000000000000000000000000000000168117905590508381101561238c576040517f08c379a000000000000000000000000000000000000000000000000000000000815260206004820152601b60248201527f4e4f545f454e4f5547485f4c49515549444954595f4d494e54454400000000006044820152606401610626565b949350505050565b60006123c06123a960808401606085016147c2565b6123b960608501604086016147c2565b84356139a0565b6108c060608301604084016147c2565b604051336024820152306044820152606481018690526084810185905260ff841660a482015260c4810183905260e4810182905260009073ffffffffffffffffffffffffffffffffffffffff88169063d505accf9061010401611b6e565b60005b61243b828061503e565b90508110156129425761244e828061503e565b8281811061245e5761245e6154e3565b90506020028101906124709190615173565b612481906060810190604001614c16565b1561253a57612535612493838061503e565b838181106124a3576124a36154e3565b90506020028101906124b59190615173565b6124c39060208101906147c2565b6124cd848061503e565b848181106124dd576124dd6154e3565b90506020028101906124ef9190615173565b6125009060408101906020016147c2565b61250a858061503e565b8581811061251a5761251a6154e3565b905060200281019061252c9190615173565b606001356139a0565b6126b3565b73ffffffffffffffffffffffffffffffffffffffff7f00000000000000000000000000000000000000000000000000000000000000001663f18d03cc612580848061503e565b84818110612590576125906154e3565b90506020028101906125a29190615173565b6125b09060208101906147c2565b336125bb868061503e565b868181106125cb576125cb6154e3565b90506020028101906125dd9190615173565b6125ee9060408101906020016147c2565b6125f8878061503e565b87818110612608576126086154e3565b905060200281019061261a9190615173565b60405160e086901b7fffffffff0000000000000000000000000000000000000000000000000000000016815273ffffffffffffffffffffffffffffffffffffffff94851660048201529284166024840152921660448201526060909101356064820152608401600060405180830381600087803b15801561269a57600080fd5b505af11580156126ae573d6000803e3d6000fd5b505050505b73ffffffffffffffffffffffffffffffffffffffff7f00000000000000000000000000000000000000000000000000000000000000001663a4063dbc6126f9848061503e565b84818110612709576127096154e3565b905060200281019061271b9190615173565b61272c9060408101906020016147c2565b6040517fffffffff0000000000000000000000000000000000000000000000000000000060e084901b16815273ffffffffffffffffffffffffffffffffffffffff909116600482015260240160206040518083038186803b15801561279057600080fd5b505afa1580156127a4573d6000803e3d6000fd5b505050506040513d601f19601f820116820180604052508101906127c89190614c33565b61282e576040517f08c379a000000000000000000000000000000000000000000000000000000000815260206004820152600c60248201527f494e56414c49445f504f4f4c00000000000000000000000000000000000000006044820152606401610626565b612838828061503e565b82818110612848576128486154e3565b905060200281019061285a9190615173565b61286b9060408101906020016147c2565b73ffffffffffffffffffffffffffffffffffffffff1663627dd56a612890848061503e565b848181106128a0576128a06154e3565b90506020028101906128b29190615173565b6128c090608081019061510e565b6040518363ffffffff1660e01b81526004016128dd929190614fde565b602060405180830381600087803b1580156128f757600080fd5b505af115801561290b573d6000803e3d6000fd5b505050506040513d601f19601f8201168201806040525081019061292f9190614e05565b508061293a8161547b565b915050612431565b5060005b612953602083018361503e565b9050811015612ed557600073ffffffffffffffffffffffffffffffffffffffff7f00000000000000000000000000000000000000000000000000000000000000001663f7888aec6129a7602086018661503e565b858181106129b7576129b76154e3565b90506020028101906129c991906151db565b6129d79060208101906147c2565b6040517fffffffff0000000000000000000000000000000000000000000000000000000060e084901b16815273ffffffffffffffffffffffffffffffffffffffff909116600482015230602482015260440160206040518083038186803b158015612a4157600080fd5b505afa158015612a55573d6000803e3d6000fd5b505050506040513d601f19601f82011682018060405250810190612a799190614e05565b90506000612a896006600a615347565b612a96602086018661503e565b85818110612aa657612aa66154e3565b9050602002810190612ab891906151db565b612ac9906060810190604001614ebe565b612add9067ffffffffffffffff1684615412565b612ae791906152ab565b905073ffffffffffffffffffffffffffffffffffffffff7f00000000000000000000000000000000000000000000000000000000000000001663f18d03cc612b32602087018761503e565b86818110612b4257612b426154e3565b9050602002810190612b5491906151db565b612b629060208101906147c2565b30612b70602089018961503e565b88818110612b8057612b806154e3565b9050602002810190612b9291906151db565b612ba39060408101906020016147c2565b60405160e085901b7fffffffff0000000000000000000000000000000000000000000000000000000016815273ffffffffffffffffffffffffffffffffffffffff93841660048201529183166024830152909116604482015260648101849052608401600060405180830381600087803b158015612c2057600080fd5b505af1158015612c34573d6000803e3d6000fd5b505073ffffffffffffffffffffffffffffffffffffffff7f000000000000000000000000000000000000000000000000000000000000000016915063a4063dbc9050612c83602087018761503e565b86818110612c9357612c936154e3565b9050602002810190612ca591906151db565b612cb69060408101906020016147c2565b6040517fffffffff0000000000000000000000000000000000000000000000000000000060e084901b16815273ffffffffffffffffffffffffffffffffffffffff909116600482015260240160206040518083038186803b158015612d1a57600080fd5b505afa158015612d2e573d6000803e3d6000fd5b505050506040513d601f19601f82011682018060405250810190612d529190614c33565b612db8576040517f08c379a000000000000000000000000000000000000000000000000000000000815260206004820152600c60248201527f494e56414c49445f504f4f4c00000000000000000000000000000000000000006044820152606401610626565b612dc5602085018561503e565b84818110612dd557612dd56154e3565b9050602002810190612de791906151db565b612df89060408101906020016147c2565b73ffffffffffffffffffffffffffffffffffffffff1663627dd56a612e20602087018761503e565b86818110612e3057612e306154e3565b9050602002810190612e4291906151db565b612e5090606081019061510e565b6040518363ffffffff1660e01b8152600401612e6d929190614fde565b602060405180830381600087803b158015612e8757600080fd5b505af1158015612e9b573d6000803e3d6000fd5b505050506040513d601f19601f82011682018060405250810190612ebf9190614e05565b5050508080612ecd9061547b565b915050612946565b5060005b612ee660408301836150a6565b90508110156134a257600073ffffffffffffffffffffffffffffffffffffffff7f00000000000000000000000000000000000000000000000000000000000000001663f7888aec612f3a60408601866150a6565b85818110612f4a57612f4a6154e3565b612f6092602060809092020190810191506147c2565b6040517fffffffff0000000000000000000000000000000000000000000000000000000060e084901b16815273ffffffffffffffffffffffffffffffffffffffff909116600482015230602482015260440160206040518083038186803b158015612fca57600080fd5b505afa158015612fde573d6000803e3d6000fd5b505050506040513d601f19601f820116820180604052508101906130029190614e05565b9050600073ffffffffffffffffffffffffffffffffffffffff7f000000000000000000000000000000000000000000000000000000000000000016635662311861304f60408701876150a6565b8681811061305f5761305f6154e3565b61307592602060809092020190810191506147c2565b6040517fffffffff0000000000000000000000000000000000000000000000000000000060e084901b16815273ffffffffffffffffffffffffffffffffffffffff9091166004820152602481018590526000604482015260640160206040518083038186803b1580156130e757600080fd5b505afa1580156130fb573d6000803e3d6000fd5b505050506040513d601f19601f8201168201806040525081019061311f9190614e05565b905061312e60408501856150a6565b8481811061313e5761313e6154e3565b905060800201606001358110156131b1576040517f08c379a000000000000000000000000000000000000000000000000000000000815260206004820152601360248201527f544f4f5f4c4954544c455f5245434549564544000000000000000000000000006044820152606401610626565b6131be60408501856150a6565b848181106131ce576131ce6154e3565b90506080020160400160208101906131e69190614c16565b156133525773ffffffffffffffffffffffffffffffffffffffff7f0000000000000000000000000000000000000000000000000000000000000000166397da6d3061323460408701876150a6565b86818110613244576132446154e3565b61325a92602060809092020190810191506147c2565b3061326860408901896150a6565b88818110613278576132786154e3565b905060800201602001602081019061329091906147c2565b60405160e085901b7fffffffff0000000000000000000000000000000000000000000000000000000016815273ffffffffffffffffffffffffffffffffffffffff938416600482015291831660248301529091166044820152600060648201526084810185905260a4016040805180830381600087803b15801561331357600080fd5b505af1158015613327573d6000803e3d6000fd5b505050506040513d601f19601f8201168201806040525081019061334b9190614e9a565b505061348d565b73ffffffffffffffffffffffffffffffffffffffff7f00000000000000000000000000000000000000000000000000000000000000001663f18d03cc61339b60408701876150a6565b868181106133ab576133ab6154e3565b6133c192602060809092020190810191506147c2565b306133cf60408901896150a6565b888181106133df576133df6154e3565b90506080020160200160208101906133f791906147c2565b60405160e085901b7fffffffff0000000000000000000000000000000000000000000000000000000016815273ffffffffffffffffffffffffffffffffffffffff93841660048201529183166024830152909116604482015260648101859052608401600060405180830381600087803b15801561347457600080fd5b505af1158015613488573d6000803e3d6000fd5b505050505b5050808061349a9061547b565b915050612ed9565b5050565b60015473ffffffffffffffffffffffffffffffffffffffff163314613527576040517f08c379a000000000000000000000000000000000000000000000000000000000815260206004820152601560248201527f554e415554484f52495a45445f43414c4c4241434b00000000000000000000006044820152606401610626565b600061353582840184614de9565b9050806020015115613573578051600054604083015161356e929173ffffffffffffffffffffffffffffffffffffffff1690339061406a565b613634565b805160005460408084015190517ff18d03cc00000000000000000000000000000000000000000000000000000000815273ffffffffffffffffffffffffffffffffffffffff9384166004820152918316602483015233604483015260648201527f00000000000000000000000000000000000000000000000000000000000000009091169063f18d03cc90608401600060405180830381600087803b15801561361b57600080fd5b505af115801561362f573d6000803e3d6000fd5b505050505b5050600080547fffffffffffffffffffffffff000000000000000000000000000000000000000016600117905550565b60015473ffffffffffffffffffffffffffffffffffffffff1633146136e5576040517f08c379a000000000000000000000000000000000000000000000000000000000815260206004820152601560248201527f554e415554484f52495a45445f43414c4c4241434b00000000000000000000006044820152606401610626565b60006136f382840184614b58565b905060005b81518110156138bf57818181518110613713576137136154e3565b6020026020010151602001511561378f5761378a828281518110613739576137396154e3565b60200260200101516000015160008054906101000a900473ffffffffffffffffffffffffffffffffffffffff1633858581518110613779576137796154e3565b60200260200101516040015161406a565b6138ad565b7f000000000000000000000000000000000000000000000000000000000000000073ffffffffffffffffffffffffffffffffffffffff1663f18d03cc8383815181106137dd576137dd6154e3565b60200260200101516000015160008054906101000a900473ffffffffffffffffffffffffffffffffffffffff163386868151811061381d5761381d6154e3565b6020026020010151604001516040518563ffffffff1660e01b815260040161387a949392919073ffffffffffffffffffffffffffffffffffffffff9485168152928416602084015292166040820152606081019190915260800190565b600060405180830381600087803b15801561389457600080fd5b505af11580156138a8573d6000803e3d6000fd5b505050505b806138b78161547b565b9150506136f8565b5050600080547fffffffffffffffffffffffff00000000000000000000000000000000000000001660011790555050565b600061391b7f0000000000000000000000000000000000000000000000000000000000000000614392565b905082811015613987576040517f08c379a000000000000000000000000000000000000000000000000000000000815260206004820152601160248201527f494e53554646494349454e545f574554480000000000000000000000000000006044820152606401610626565b80156120eb57613996816144f2565b6120eb8282613cbf565b7f000000000000000000000000000000000000000000000000000000000000000073ffffffffffffffffffffffffffffffffffffffff168373ffffffffffffffffffffffffffffffffffffffff161480156139fa57504715155b15613bdc576040517f5662311800000000000000000000000000000000000000000000000000000000815273ffffffffffffffffffffffffffffffffffffffff7f00000000000000000000000000000000000000000000000000000000000000008116600483015260248201839052600160448301526000917f00000000000000000000000000000000000000000000000000000000000000009091169063566231189060640160206040518083038186803b158015613ab957600080fd5b505afa158015613acd573d6000803e3d6000fd5b505050506040513d601f19601f82011682018060405250810190613af19190614e05565b9050804710613bda576040517f02b9446c00000000000000000000000000000000000000000000000000000000815260006004820181905230602483015273ffffffffffffffffffffffffffffffffffffffff85811660448401526064830191909152608482018490527f000000000000000000000000000000000000000000000000000000000000000016906302b9446c90839060a40160408051808303818588803b158015613ba157600080fd5b505af1158015613bb5573d6000803e3d6000fd5b50505050506040513d601f19601f82011682018060405250810190610c1f9190614e9a565b505b6040517f02b9446c00000000000000000000000000000000000000000000000000000000815273ffffffffffffffffffffffffffffffffffffffff8481166004830152336024830152838116604483015260006064830152608482018390527f000000000000000000000000000000000000000000000000000000000000000016906302b9446c9060a4016040805180830381600087803b158015613c8057600080fd5b505af1158015613c94573d6000803e3d6000fd5b505050506040513d601f19601f82011682018060405250810190613cb89190614e9a565b5050505050565b60008273ffffffffffffffffffffffffffffffffffffffff168260405160006040518083038185875af1925050503d8060008114613d19576040519150601f19603f3d011682016040523d82523d6000602084013e613d1e565b606091505b50509050806120eb576040517f08c379a000000000000000000000000000000000000000000000000000000000815260206004820152601360248201527f4554485f5452414e534645525f4641494c4544000000000000000000000000006044820152606401610626565b6040805173ffffffffffffffffffffffffffffffffffffffff85811660248301528481166044830152606480830185905283518084039091018152608490920183526020820180517bffffffffffffffffffffffffffffffffffffffffffffffffffffffff167f23b872dd000000000000000000000000000000000000000000000000000000001790529151600092839290881691613e289190614f42565b6000604051808303816000865af19150503d8060008114613e65576040519150601f19603f3d011682016040523d82523d6000602084013e613e6a565b606091505b5091509150818015613e94575080511580613e94575080806020019051810190613e949190614c33565b610c1f576040517f08c379a000000000000000000000000000000000000000000000000000000000815260206004820152601460248201527f5452414e534645525f46524f4d5f4641494c45440000000000000000000000006044820152606401610626565b6020015190565b6040805173ffffffffffffffffffffffffffffffffffffffff8481166024830152604480830185905283518084039091018152606490920183526020820180517bffffffffffffffffffffffffffffffffffffffffffffffffffffffff167fa9059cbb000000000000000000000000000000000000000000000000000000001790529151600092839290871691613f989190614f42565b6000604051808303816000865af19150503d8060008114613fd5576040519150601f19603f3d011682016040523d82523d6000602084013e613fda565b606091505b50915091508180156140045750805115806140045750808060200190518101906140049190614c33565b613cb8576040517f08c379a000000000000000000000000000000000000000000000000000000000815260206004820152600f60248201527f5452414e534645525f4641494c454400000000000000000000000000000000006044820152606401610626565b7f000000000000000000000000000000000000000000000000000000000000000073ffffffffffffffffffffffffffffffffffffffff168473ffffffffffffffffffffffffffffffffffffffff161480156140c457504715155b156142ae576040517f5662311800000000000000000000000000000000000000000000000000000000815273ffffffffffffffffffffffffffffffffffffffff7f00000000000000000000000000000000000000000000000000000000000000008116600483015260248201839052600160448301526000917f00000000000000000000000000000000000000000000000000000000000000009091169063566231189060640160206040518083038186803b15801561418357600080fd5b505afa158015614197573d6000803e3d6000fd5b505050506040513d601f19601f820116820180604052508101906141bb9190614e05565b90508047106142ac576040517f02b9446c00000000000000000000000000000000000000000000000000000000815260006004820181905230602483015273ffffffffffffffffffffffffffffffffffffffff85811660448401526064830191909152608482018490527f000000000000000000000000000000000000000000000000000000000000000016906302b9446c90839060a40160408051808303818588803b15801561426b57600080fd5b505af115801561427f573d6000803e3d6000fd5b50505050506040513d601f19601f820116820180604052508101906142a49190614e9a565b50505061438c565b505b6040517f02b9446c00000000000000000000000000000000000000000000000000000000815273ffffffffffffffffffffffffffffffffffffffff85811660048301528481166024830152838116604483015260006064830152608482018390527f000000000000000000000000000000000000000000000000000000000000000016906302b9446c9060a4016040805180830381600087803b15801561435457600080fd5b505af1158015614368573d6000803e3d6000fd5b505050506040513d601f19601f82011682018060405250810190610c1f9190614e9a565b50505050565b604080513060248083019190915282518083039091018152604490910182526020810180517bffffffffffffffffffffffffffffffffffffffffffffffffffffffff167f70a082310000000000000000000000000000000000000000000000000000000017905290516000918291829173ffffffffffffffffffffffffffffffffffffffff8616916144249190614f42565b600060405180830381855afa9150503d806000811461445f576040519150601f19603f3d011682016040523d82523d6000602084013e614464565b606091505b509150915081801561447857506020815110155b6144de576040517f08c379a000000000000000000000000000000000000000000000000000000000815260206004820152601160248201527f42414c414e43455f4f465f4641494c45440000000000000000000000000000006044820152606401610626565b8080602001905181019061238c9190614e05565b6000807f000000000000000000000000000000000000000000000000000000000000000073ffffffffffffffffffffffffffffffffffffffff16632e1a7d4d8460405160240161454491815260200190565b6040516020818303038152906040529060e01b6020820180517bffffffffffffffffffffffffffffffffffffffffffffffffffffffff83818316178352505050506040516145929190614f42565b6000604051808303816000865af19150503d80600081146145cf576040519150601f19603f3d011682016040523d82523d6000602084013e6145d4565b606091505b50915091508180156145e857506020815110155b6120eb576040517f08c379a000000000000000000000000000000000000000000000000000000000815260206004820152601960248201527f57495448445241575f46524f4d5f574554485f4641494c4544000000000000006044820152606401610626565b60008083601f84011261466057600080fd5b50813567ffffffffffffffff81111561467857600080fd5b6020830191508360208260051b850101111561469357600080fd5b9250929050565b600082601f8301126146ab57600080fd5b813560206146c06146bb83615287565b615238565b828152818101908583016060808602880185018910156146df57600080fd5b60005b86811015614706576146f48a84614756565b855293850193918101916001016146e2565b509198975050505050505050565b60008083601f84011261472657600080fd5b50813567ffffffffffffffff81111561473e57600080fd5b60208301915083602082850101111561469357600080fd5b60006060828403121561476857600080fd5b6040516060810181811067ffffffffffffffff8211171561478b5761478b615512565b604052905080823561479c81615541565b815260208301356147ac81615566565b6020820152604092830135920191909152919050565b6000602082840312156147d457600080fd5b8135610fdb81615541565b6000806000606084860312156147f457600080fd5b83356147ff81615541565b925060208401359150604084013561481681615541565b809150509250925092565b6000806000806060858703121561483757600080fd5b843561484281615541565b935060208501359250604085013567ffffffffffffffff81111561486557600080fd5b61487187828801614714565b95989497509550505050565b60008060008060006080868803121561489557600080fd5b85356148a081615541565b94506020868101359450604087013567ffffffffffffffff808211156148c557600080fd5b6148d18a838b01614714565b909650945060608901359150808211156148ea57600080fd5b508701601f810189136148fc57600080fd5b803561490a6146bb82615287565b8082825284820191508484018c868560061b870101111561492a57600080fd5b60009450845b84811015614978576040828f031215614947578586fd5b61494f61520f565b823561495a81615541565b81528288013588820152845292860192604090910190600101614930565b505080955050505050509295509295909350565b6000806000806000608086880312156149a457600080fd5b85356149af81615541565b945060208601359350604086013567ffffffffffffffff8111156149d257600080fd5b6149de88828901614714565b96999598509660600135949350505050565b60008060008060008060c08789031215614a0957600080fd5b8635614a1481615541565b95506020870135945060408701359350606087013560ff81168114614a3857600080fd5b9598949750929560808101359460a0909101359350915050565b60008060208385031215614a6557600080fd5b823567ffffffffffffffff811115614a7c57600080fd5b614a888582860161464e565b90969095509350505050565b60006020808385031215614aa757600080fd5b825167ffffffffffffffff811115614abe57600080fd5b8301601f81018513614acf57600080fd5b8051614add6146bb82615287565b80828252848201915084840188868560061b8701011115614afd57600080fd5b60009450845b84811015614b4a57604080838c031215614b1b578687fd5b614b2361520f565b8351614b2e81615541565b8152838901518982015285529387019390910190600101614b03565b509098975050505050505050565b600060208284031215614b6a57600080fd5b813567ffffffffffffffff811115614b8157600080fd5b61238c8482850161469a565b600080600080600060808688031215614ba557600080fd5b853567ffffffffffffffff80821115614bbd57600080fd5b614bc989838a0161469a565b965060208801359150614bdb82615541565b9094506040870135935060608701359080821115614bf857600080fd5b50614c0588828901614714565b969995985093965092949392505050565b600060208284031215614c2857600080fd5b8135610fdb81615566565b600060208284031215614c4557600080fd5b8151610fdb81615566565b60008060208385031215614c6357600080fd5b823567ffffffffffffffff811115614c7a57600080fd5b614a8885828601614714565b600060208284031215614c9857600080fd5b815167ffffffffffffffff80821115614cb057600080fd5b818401915084601f830112614cc457600080fd5b815181811115614cd657614cd6615512565b614d0760207fffffffffffffffffffffffffffffffffffffffffffffffffffffffffffffffe0601f84011601615238565b9150808252856020828501011115614d1e57600080fd5b614d2f81602084016020860161544f565b50949350505050565b600060208284031215614d4a57600080fd5b813567ffffffffffffffff811115614d6157600080fd5b820160608185031215610fdb57600080fd5b600060208284031215614d8557600080fd5b813567ffffffffffffffff811115614d9c57600080fd5b820160808185031215610fdb57600080fd5b600060208284031215614dc057600080fd5b813567ffffffffffffffff811115614dd757600080fd5b820160a08185031215610fdb57600080fd5b600060608284031215614dfb57600080fd5b610fdb8383614756565b600060208284031215614e1757600080fd5b5051919050565b60008060408385031215614e3157600080fd5b823591506020830135614e4381615541565b809150509250929050565b600080600060408486031215614e6357600080fd5b83359250602084013567ffffffffffffffff811115614e8157600080fd5b614e8d8682870161464e565b9497909650939450505050565b60008060408385031215614ead57600080fd5b505080516020909101519092909150565b600060208284031215614ed057600080fd5b813567ffffffffffffffff81168114610fdb57600080fd5b60008151808452614f0081602086016020860161544f565b601f017fffffffffffffffffffffffffffffffffffffffffffffffffffffffffffffffe0169290920160200192915050565b8183823760009101908152919050565b60008251614f5481846020870161544f565b9190910192915050565b6000602080830181845280855180835260408601915060408160051b870101925083870160005b82811015614fd1577fffffffffffffffffffffffffffffffffffffffffffffffffffffffffffffffc0888603018452614fbf858351614ee8565b94509285019290850190600101614f85565b5092979650505050505050565b60208152816020820152818360408301376000818301604090810191909152601f9092017fffffffffffffffffffffffffffffffffffffffffffffffffffffffffffffffe0160101919050565b602081526000610fdb6020830184614ee8565b60008083357fffffffffffffffffffffffffffffffffffffffffffffffffffffffffffffffe184360301811261507357600080fd5b83018035915067ffffffffffffffff82111561508e57600080fd5b6020019150600581901b360382131561469357600080fd5b60008083357fffffffffffffffffffffffffffffffffffffffffffffffffffffffffffffffe18436030181126150db57600080fd5b83018035915067ffffffffffffffff8211156150f657600080fd5b6020019150600781901b360382131561469357600080fd5b60008083357fffffffffffffffffffffffffffffffffffffffffffffffffffffffffffffffe184360301811261514357600080fd5b83018035915067ffffffffffffffff82111561515e57600080fd5b60200191503681900382131561469357600080fd5b600082357fffffffffffffffffffffffffffffffffffffffffffffffffffffffffffffff61833603018112614f5457600080fd5b600082357fffffffffffffffffffffffffffffffffffffffffffffffffffffffffffffffc1833603018112614f5457600080fd5b600082357fffffffffffffffffffffffffffffffffffffffffffffffffffffffffffffff81833603018112614f5457600080fd5b6040805190810167ffffffffffffffff8111828210171561523257615232615512565b60405290565b604051601f82017fffffffffffffffffffffffffffffffffffffffffffffffffffffffffffffffe016810167ffffffffffffffff8111828210171561527f5761527f615512565b604052919050565b600067ffffffffffffffff8211156152a1576152a1615512565b5060051b60200190565b6000826152e1577f4e487b7100000000000000000000000000000000000000000000000000000000600052601260045260246000fd5b500490565b600181815b8085111561533f57817fffffffffffffffffffffffffffffffffffffffffffffffffffffffffffffffff04821115615325576153256154b4565b8085161561533257918102915b93841c93908002906152eb565b509250929050565b6000610fdb60ff8416836000826153605750600161540c565b8161536d5750600061540c565b8160018114615383576002811461538d576153a9565b600191505061540c565b60ff84111561539e5761539e6154b4565b50506001821b61540c565b5060208310610133831016604e8410600b84101617156153cc575081810a61540c565b6153d683836152e6565b807fffffffffffffffffffffffffffffffffffffffffffffffffffffffffffffffff04821115615408576154086154b4565b0290505b92915050565b6000817fffffffffffffffffffffffffffffffffffffffffffffffffffffffffffffffff048311821515161561544a5761544a6154b4565b500290565b60005b8381101561546a578181015183820152602001615452565b8381111561438c5750506000910152565b60007fffffffffffffffffffffffffffffffffffffffffffffffffffffffffffffffff8214156154ad576154ad6154b4565b5060010190565b7f4e487b7100000000000000000000000000000000000000000000000000000000600052601160045260246000fd5b7f4e487b7100000000000000000000000000000000000000000000000000000000600052603260045260246000fd5b7f4e487b7100000000000000000000000000000000000000000000000000000000600052604160045260246000fd5b73ffffffffffffffffffffffffffffffffffffffff8116811461556357600080fd5b50565b801515811461556357600080fdfea26469706673582212206f37fe902feb46284d8eec0ad6103aa61dee000a0f6fefb6de744aedf71ce15564736f6c63430008070033",
  "linkReferences": {},
  "deployedLinkReferences": {}
}