{
  "address": "0x4a8aC34dB3648e3b10387e8cb640561993C5E533",
  "abi": [
    {
      "inputs": [
        {
          "internalType": "address",
          "name": "constantProductPoolFactory",
          "type": "address"
        },
        {
          "internalType": "address[]",
          "name": "tokens",
          "type": "address[]"
        }
      ],
      "name": "getPoolsForTokens",
      "outputs": [
        {
          "components": [
            {
              "internalType": "uint8",
              "name": "tokenA",
              "type": "uint8"
            },
            {
              "internalType": "uint8",
              "name": "tokenB",
              "type": "uint8"
            },
            {
              "internalType": "uint112",
              "name": "reserve0",
              "type": "uint112"
            },
            {
              "internalType": "uint112",
              "name": "reserve1",
              "type": "uint112"
            },
            {
              "internalType": "uint16",
              "name": "swapFeeAndTwapSupport",
              "type": "uint16"
            }
          ],
          "internalType": "struct ConstantProductPoolFactoryHelper.ConstantProductPoolInfo[]",
          "name": "poolInfos",
          "type": "tuple[]"
        },
        {
          "internalType": "uint256",
          "name": "length",
          "type": "uint256"
        }
      ],
      "stateMutability": "view",
      "type": "function"
    }
  ],
  "transactionHash": "0x19c1c87af1fc96e7fac9cb8234dcb95a61eca12b0af04217d2202f72877098e3",
  "args": [],
  "numDeployments": 1,
  "solcInputHash": "cc0dd648332dc79dff7abbdf9c45fa23",
  "bytecode": "0x608060405234801561001057600080fd5b50610bad806100206000396000f3fe608060405234801561001057600080fd5b506004361061002b5760003560e01c8063bb19dff614610030575b600080fd5b61004361003e36600461072a565b61005a565b604051610051929190610905565b60405180910390f35b60606000848382600261006e8360016109d5565b6100789084610a43565b61008291906109fa565b60ff1667ffffffffffffffff81111561009d5761009d610b23565b6040519080825280602002602001820160405280156100c6578160200160208202803683370190505b5090506000805b8360ff168160ff16101561026c5760006100e88260016109d5565b90505b8460ff168160ff1610156102595760008673ffffffffffffffffffffffffffffffffffffffff16635bc93d6c8c8c8660ff1681811061012c5761012c610af4565b90506020020160208101906101419190610706565b8d8d8660ff1681811061015657610156610af4565b905060200201602081019061016b9190610706565b6040517fffffffff0000000000000000000000000000000000000000000000000000000060e085901b16815273ffffffffffffffffffffffffffffffffffffffff92831660048201529116602482015260440160206040518083038186803b1580156101d657600080fd5b505afa1580156101ea573d6000803e3d6000fd5b505050506040513d601f19601f8201168201806040525081019061020e91906108ec565b905080858561021c81610a6c565b96508151811061022e5761022e610af4565b602090810291909101015261024381896109bd565b975050808061025190610aa5565b9150506100eb565b508061026481610aa5565b9150506100cd565b508467ffffffffffffffff81111561028657610286610b23565b6040519080825280602002602001820160405280156102fd57816020015b6040805160a0810182526000808252602080830182905292820181905260608201819052608082015282527fffffffffffffffffffffffffffffffffffffffffffffffffffffffffffffffff9092019101816102a45790505b509550600090506000805b8460ff168160ff1610156106ca5760006103238260016109d5565b90505b8560ff168160ff1610156106b75760008773ffffffffffffffffffffffffffffffffffffffff166371a258128d8d8660ff1681811061036757610367610af4565b905060200201602081019061037c9190610706565b8e8e8660ff1681811061039157610391610af4565b90506020020160208101906103a69190610706565b60008a8a6103b381610a6c565b9b50815181106103c5576103c5610af4565b60209081029190910101516040517fffffffff0000000000000000000000000000000000000000000000000000000060e087901b16815273ffffffffffffffffffffffffffffffffffffffff94851660048201529390921660248401526044830152606482015260840160006040518083038186803b15801561044757600080fd5b505afa15801561045b573d6000803e3d6000fd5b505050506040513d6000823e601f3d9081017fffffffffffffffffffffffffffffffffffffffffffffffffffffffffffffffe01682016040526104a191908101906107b2565b905060005b81518110156106a25760008b866104bc81610a6c565b9750815181106104ce576104ce610af4565b60209081029190910181015160ff8088168252861691810191909152835190915060009084908490811061050457610504610af4565b6020026020010151905060008060008373ffffffffffffffffffffffffffffffffffffffff16630902f1ac6040518163ffffffff1660e01b815260040160606040518083038186803b15801561055957600080fd5b505afa15801561056d573d6000803e3d6000fd5b505050506040513d601f19601f82011682018060405250810190610591919061089c565b6dffffffffffffffffffffffffffff8084166040808b019190915290831660608a015280517f54cf2aeb0000000000000000000000000000000000000000000000000000000081529051939650919450925073ffffffffffffffffffffffffffffffffffffffff8616916354cf2aeb91600480820192602092909190829003018186803b15801561062157600080fd5b505afa158015610635573d6000803e3d6000fd5b505050506040513d601f19601f8201168201806040525081019061065991906108ec565b61ffff16608086015263ffffffff81161561068a57618000856080018181516106829190610997565b61ffff169052505b5050505050808061069a90610a6c565b9150506104a6565b505080806106af90610aa5565b915050610326565b50806106c281610aa5565b915050610308565b505050505050935093915050565b80516106e381610b52565b919050565b80516dffffffffffffffffffffffffffff811681146106e357600080fd5b60006020828403121561071857600080fd5b813561072381610b52565b9392505050565b60008060006040848603121561073f57600080fd5b833561074a81610b52565b9250602084013567ffffffffffffffff8082111561076757600080fd5b818601915086601f83011261077b57600080fd5b81358181111561078a57600080fd5b8760208260051b850101111561079f57600080fd5b6020830194508093505050509250925092565b600060208083850312156107c557600080fd5b825167ffffffffffffffff808211156107dd57600080fd5b818501915085601f8301126107f157600080fd5b81518181111561080357610803610b23565b8060051b6040517fffffffffffffffffffffffffffffffffffffffffffffffffffffffffffffffe0603f8301168101818110858211171561084657610846610b23565b604052828152858101935084860182860187018a101561086557600080fd5b600095505b8386101561088f5761087b816106d8565b85526001959095019493860193860161086a565b5098975050505050505050565b6000806000606084860312156108b157600080fd5b6108ba846106e8565b92506108c8602085016106e8565b9150604084015163ffffffff811681146108e157600080fd5b809150509250925092565b6000602082840312156108fe57600080fd5b5051919050565b6040808252835182820181905260009190606090818501906020808901865b83811015610983578151805160ff9081168752848201511684870152878101516dffffffffffffffffffffffffffff9081168988015287820151168787015260809081015161ffff169086015260a09094019390820190600101610924565b505095909501959095525092949350505050565b600061ffff8083168185168083038211156109b4576109b4610ac5565b01949350505050565b600082198211156109d0576109d0610ac5565b500190565b600060ff821660ff84168060ff038211156109f2576109f2610ac5565b019392505050565b600060ff831680610a34577f4e487b7100000000000000000000000000000000000000000000000000000000600052601260045260246000fd5b8060ff84160491505092915050565b600060ff821660ff84168160ff0481118215151615610a6457610a64610ac5565b029392505050565b60007fffffffffffffffffffffffffffffffffffffffffffffffffffffffffffffffff821415610a9e57610a9e610ac5565b5060010190565b600060ff821660ff811415610abc57610abc610ac5565b60010192915050565b7f4e487b7100000000000000000000000000000000000000000000000000000000600052601160045260246000fd5b7f4e487b7100000000000000000000000000000000000000000000000000000000600052603260045260246000fd5b7f4e487b7100000000000000000000000000000000000000000000000000000000600052604160045260246000fd5b73ffffffffffffffffffffffffffffffffffffffff81168114610b7457600080fd5b5056fea2646970667358221220050e43a4ecab9320dd1d42fd857288bac30534e64829d734f37e78da4b7d21ea64736f6c63430008070033",
  "devdoc": {
    "author": "Ilya Lyalin",
    "kind": "dev",
    "methods": {},
    "version": 1
  },
  "userdoc": {
    "kind": "user",
    "methods": {},
    "notice": "Helper Contract for fetching info for several pools",
    "version": 1
  },
  "storageLayout": {
    "storage": [],
    "types": null
  }
}