{
  "address": "0x40051B2A78897FfDfB31C817b869e18Be495Ec2C",
  "abi": [
    {
      "inputs": [
        {
          "internalType": "address",
          "name": "_masterDeployer",
          "type": "address"
        }
      ],
      "stateMutability": "nonpayable",
      "type": "constructor"
    },
    {
      "inputs": [
        {
          "internalType": "bytes",
          "name": "",
          "type": "bytes"
        }
      ],
      "name": "configAddress",
      "outputs": [
        {
          "internalType": "address",
          "name": "",
          "type": "address"
        }
      ],
      "stateMutability": "view",
      "type": "function"
    },
    {
      "inputs": [
        {
          "internalType": "bytes",
          "name": "_deployData",
          "type": "bytes"
        }
      ],
      "name": "deployPool",
      "outputs": [
        {
          "internalType": "address",
          "name": "pool",
          "type": "address"
        }
      ],
      "stateMutability": "nonpayable",
      "type": "function"
    },
    {
      "inputs": [
        {
          "internalType": "address",
          "name": "token0",
          "type": "address"
        },
        {
          "internalType": "address",
          "name": "token1",
          "type": "address"
        },
        {
          "internalType": "uint256",
          "name": "startIndex",
          "type": "uint256"
        },
        {
          "internalType": "uint256",
          "name": "endIndex",
          "type": "uint256"
        }
      ],
      "name": "getPools",
      "outputs": [
        {
          "internalType": "address[]",
          "name": "pairPools",
          "type": "address[]"
        }
      ],
      "stateMutability": "view",
      "type": "function"
    },
    {
      "inputs": [],
      "name": "masterDeployer",
      "outputs": [
        {
          "internalType": "address",
          "name": "",
          "type": "address"
        }
      ],
      "stateMutability": "view",
      "type": "function"
    },
    {
      "inputs": [
        {
          "internalType": "address",
          "name": "",
          "type": "address"
        },
        {
          "internalType": "address",
          "name": "",
          "type": "address"
        },
        {
          "internalType": "uint256",
          "name": "",
          "type": "uint256"
        }
      ],
      "name": "pools",
      "outputs": [
        {
          "internalType": "address",
          "name": "",
          "type": "address"
        }
      ],
      "stateMutability": "view",
      "type": "function"
    },
    {
      "inputs": [
        {
          "internalType": "address",
          "name": "token0",
          "type": "address"
        },
        {
          "internalType": "address",
          "name": "token1",
          "type": "address"
        }
      ],
      "name": "poolsCount",
      "outputs": [
        {
          "internalType": "uint256",
          "name": "count",
          "type": "uint256"
        }
      ],
      "stateMutability": "view",
      "type": "function"
    }
  ],
  "transactionHash": "0x00ab865113ed2559f3d639c4f8890f03d17938924684f86ab9f2ce4a724f60b7",
  "args": [
    "0x312b493E71EF0aECdAF7480523C114c68a298B17"
  ],
  "solcInputHash": "8a0b70ce299dd51a4139b0ba951a7dae",
  "bytecode": "0x60a060405234801561001057600080fd5b506040516157e93803806157e983398101604081905261002f916100a0565b806001600160a01b03811661008a5760405162461bcd60e51b815260206004820152601e60248201527f50616972506f6f6c4465706c6f7965723a205a45524f5f414444524553530000604482015260640160405180910390fd5b60601b6001600160601b031916608052506100d0565b6000602082840312156100b257600080fd5b81516001600160a01b03811681146100c957600080fd5b9392505050565b60805160601c6156f46100f56000396000818161019e015261060601526156f46000f3fe60806040523480156200001157600080fd5b50600436106200007b5760003560e01c80635bc93d6c11620000565780635bc93d6c146200011c57806371a258121462000172578063cf58879a146200019857600080fd5b80630d617dfa1462000080578063169c4cef14620000ee57806327c3cae11462000105575b600080fd5b620000c462000091366004620008a3565b805160208183018101805160018252928201919093012091525473ffffffffffffffffffffffffffffffffffffffff1681565b60405173ffffffffffffffffffffffffffffffffffffffff90911681526020015b60405180910390f35b620000c4620000ff36600462000812565b620001c0565b620000c462000116366004620008a3565b62000213565b620001636200012d366004620007d4565b73ffffffffffffffffffffffffffffffffffffffff91821660009081526020818152604080832093909416825291909152205490565b604051908152602001620000e5565b620001896200018336600462000858565b62000318565b604051620000e59190620009cd565b620000c47f000000000000000000000000000000000000000000000000000000000000000081565b60006020528260005260406000206020528160005260406000208181548110620001e957600080fd5b60009182526020909120015473ffffffffffffffffffffffffffffffffffffffff16925083915050565b60008060008060008580602001905181019062000231919062000787565b93509350935093508273ffffffffffffffffffffffffffffffffffffffff168473ffffffffffffffffffffffffffffffffffffffff161115620002be576040805173ffffffffffffffffffffffffffffffffffffffff8086166020830152861691810191909152606081018390526080810182905292939260a00160405160208183030381529060405295505b6200030e848460405180602001620002d69062000779565b7fffffffffffffffffffffffffffffffffffffffffffffffffffffffffffffffe082820381018352601f909101166040528962000452565b9695505050505050565b606062000326838362000a9a565b67ffffffffffffffff81111562000341576200034162000b81565b6040519080825280602002602001820160405280156200036b578160200160208202803683370190505b50905060005b82841015620004495773ffffffffffffffffffffffffffffffffffffffff808716600090815260208181526040808320938916835292905220805485908110620003bf57620003bf62000b52565b9060005260206000200160009054906101000a900473ffffffffffffffffffffffffffffffffffffffff16828281518110620003ff57620003ff62000b52565b73ffffffffffffffffffffffffffffffffffffffff9092166020928302919091019091015283620004308162000ae7565b9450508080620004409062000ae7565b91505062000371565b50949350505050565b60008373ffffffffffffffffffffffffffffffffffffffff168573ffffffffffffffffffffffffffffffffffffffff161062000515576040517f08c379a000000000000000000000000000000000000000000000000000000000815260206004820152602560248201527f50616972506f6f6c4465706c6f7965723a20494e56414c49445f544f4b454e5f60448201527f4f5244455200000000000000000000000000000000000000000000000000000060648201526084015b60405180910390fd5b600073ffffffffffffffffffffffffffffffffffffffff166001836040516200053f91906200097c565b9081526040519081900360200190205473ffffffffffffffffffffffffffffffffffffffff1614620005f4576040517f08c379a000000000000000000000000000000000000000000000000000000000815260206004820152602760248201527f50616972506f6f6c4465706c6f7965723a20504f4f4c5f414c52454144595f4460448201527f45504c4f5945440000000000000000000000000000000000000000000000000060648201526084016200050c565b600082805190602001209050600084847f00000000000000000000000000000000000000000000000000000000000000006040516020016200063892919062000a29565b604080517fffffffffffffffffffffffffffffffffffffffffffffffffffffffffffffffe0818403018152908290526200067692916020016200099a565b6040516020818303038152906040529050818151602083016000f59250823b6200069f57600080fd5b73ffffffffffffffffffffffffffffffffffffffff8781166000908152602081815260408083208a8516845282528083208054600180820183559185529290932090910180547fffffffffffffffffffffffff000000000000000000000000000000000000000016938716939093179092559051849190620007239087906200097c565b908152602001604051809103902060006101000a81548173ffffffffffffffffffffffffffffffffffffffff021916908373ffffffffffffffffffffffffffffffffffffffff1602179055505050949350505050565b614ae88062000bd783390190565b600080600080608085870312156200079e57600080fd5b8451620007ab8162000bb0565b6020860151909450620007be8162000bb0565b6040860151606090960151949790965092505050565b60008060408385031215620007e857600080fd5b8235620007f58162000bb0565b91506020830135620008078162000bb0565b809150509250929050565b6000806000606084860312156200082857600080fd5b8335620008358162000bb0565b92506020840135620008478162000bb0565b929592945050506040919091013590565b600080600080608085870312156200086f57600080fd5b84356200087c8162000bb0565b935060208501356200088e8162000bb0565b93969395505050506040820135916060013590565b600060208284031215620008b657600080fd5b813567ffffffffffffffff80821115620008cf57600080fd5b818401915084601f830112620008e457600080fd5b813581811115620008f957620008f962000b81565b604051601f82017fffffffffffffffffffffffffffffffffffffffffffffffffffffffffffffffe0908116603f0116810190838211818310171562000942576200094262000b81565b816040528281528760208487010111156200095c57600080fd5b826020860160208301376000928101602001929092525095945050505050565b600082516200099081846020870162000ab4565b9190910192915050565b60008351620009ae81846020880162000ab4565b835190830190620009c481836020880162000ab4565b01949350505050565b6020808252825182820181905260009190848201906040850190845b8181101562000a1d57835173ffffffffffffffffffffffffffffffffffffffff1683529284019291840191600101620009e9565b50909695505050505050565b604081526000835180604084015262000a4a81606085016020880162000ab4565b73ffffffffffffffffffffffffffffffffffffffff93909316602083015250601f919091017fffffffffffffffffffffffffffffffffffffffffffffffffffffffffffffffe01601606001919050565b60008282101562000aaf5762000aaf62000b23565b500390565b60005b8381101562000ad157818101518382015260200162000ab7565b8381111562000ae1576000848401525b50505050565b60007fffffffffffffffffffffffffffffffffffffffffffffffffffffffffffffffff82141562000b1c5762000b1c62000b23565b5060010190565b7f4e487b7100000000000000000000000000000000000000000000000000000000600052601160045260246000fd5b7f4e487b7100000000000000000000000000000000000000000000000000000000600052603260045260246000fd5b7f4e487b7100000000000000000000000000000000000000000000000000000000600052604160045260246000fd5b73ffffffffffffffffffffffffffffffffffffffff8116811462000bd357600080fd5b5056fe6101e060405260016005553480156200001757600080fd5b5060405162004ae838038062004ae88339810160408190526200003a91620005c0565b604080518082018252600e81526d29bab9b434902628102a37b5b2b760911b6020918201528151808301835260018152603160f81b9082015281517f8b73c3c69bb8fe3d512ecc4cf759cc79239f7b179b0ffacaa9a75d522b39400f918101919091527fc2bf45081e840722410522aa366600d7fe4da5bfb5a5b417f4d5125b4ed180a4918101919091527fc89efdaa54c0f20c7adf612882df0950f5a951637e0307cdcb4c672f298b8bc6606082015246608082018190523060a08301529060c0016040516020818303038152906040528051906020012060808181525050506000806000808580602001905181019062000137919062000573565b929650909450925090506001600160a01b0384166200019d5760405162461bcd60e51b815260206004820152601860248201527f487962726964506f6f6c3a205a45524f5f41444452455353000000000000000060448201526064015b60405180910390fd5b826001600160a01b0316846001600160a01b03161415620002015760405162461bcd60e51b815260206004820152601f60248201527f487962726964506f6f6c3a204944454e544943414c5f41444452455353455300604482015260640162000194565b612710821115620002555760405162461bcd60e51b815260206004820152601c60248201527f487962726964506f6f6c3a20494e56414c49445f535741505f46454500000000604482015260640162000194565b80620002995760405162461bcd60e51b8152602060048201526012602482015271487962726964506f6f6c3a205a45524f5f4160701b604482015260640162000194565b6001600160601b0319606085811b82166101205284901b166101405260a082905260408051634da3182760e01b815290516001600160a01b03871691634da31827916004808301926020929190829003018186803b158015620002fb57600080fd5b505afa15801562000310573d6000803e3d6000fd5b505050506040513d601f19601f820116820180604052508101906200033691906200054c565b6001600160a01b031660e0816001600160a01b031660601b81525050846001600160a01b0316630c0a0cd26040518163ffffffff1660e01b815260040160206040518083038186803b1580156200038c57600080fd5b505afa158015620003a1573d6000803e3d6000fd5b505050506040513d601f19601f82011682018060405250810190620003c791906200054c565b6001600160601b0319606091821b811660c0529086901b1661010052610160819052620003f6816002620007e0565b6101808181525050836001600160a01b031663313ce5676040518163ffffffff1660e01b815260040160206040518083038186803b1580156200043857600080fd5b505afa1580156200044d573d6000803e3d6000fd5b505050506040513d601f19601f82011682018060405250810190620004739190620006b1565b6200048090601262000802565b6200048d90600a6200071f565b6101a08181525050826001600160a01b031663313ce5676040518163ffffffff1660e01b815260040160206040518083038186803b158015620004cf57600080fd5b505afa158015620004e4573d6000803e3d6000fd5b505050506040513d601f19601f820116820180604052508101906200050a9190620006b1565b6200051790601262000802565b6200052490600a6200071f565b6101c05250506001600555506200086d92505050565b8051620005478162000854565b919050565b6000602082840312156200055f57600080fd5b81516200056c8162000854565b9392505050565b600080600080608085870312156200058a57600080fd5b8451620005978162000854565b6020860151909450620005aa8162000854565b6040860151606090960151949790965092505050565b60008060408385031215620005d457600080fd5b82516001600160401b0380821115620005ec57600080fd5b818501915085601f8301126200060157600080fd5b8151818111156200061657620006166200083e565b604051601f8201601f19908116603f011681019083821181831017156200064157620006416200083e565b816040528281526020935088848487010111156200065e57600080fd5b600091505b8282101562000682578482018401518183018501529083019062000663565b82821115620006945760008484830101525b9550620006a69150508582016200053a565b925050509250929050565b600060208284031215620006c457600080fd5b815160ff811681146200056c57600080fd5b600181815b8085111562000717578160001904821115620006fb57620006fb62000828565b808516156200070957918102915b93841c9390800290620006db565b509250929050565b60006200056c60ff8416836000826200073b57506001620007da565b816200074a57506000620007da565b81600181146200076357600281146200076e576200078e565b6001915050620007da565b60ff84111562000782576200078262000828565b50506001821b620007da565b5060208310610133831016604e8410600b8410161715620007b3575081810a620007da565b620007bf8383620006d6565b8060001904821115620007d657620007d662000828565b0290505b92915050565b6000816000190483118215151615620007fd57620007fd62000828565b500290565b600060ff821660ff8416808210156200081f576200081f62000828565b90039392505050565b634e487b7160e01b600052601160045260246000fd5b634e487b7160e01b600052604160045260246000fd5b6001600160a01b03811681146200086a57600080fd5b50565b60805160a05160c05160601c60e05160601c6101005160601c6101205160601c6101405160601c61016051610180516101a0516101c051613fdf62000b09600039600081816103bf015281816119b001528181611a0d01528181611a6501528181611afe015261383b01526000818161053701528181611984015281816119dc01528181611a3901528181611ad8015261380d0152600081816135f301528181613649015281816136f4015261373e015260006105ec0152600081816105850152818161084c01528181610ab301528181610ba301528181610d6c01528181611252015281816113ad015281816115230152818161171c0152818161174601528181611905015281816120a50152818161215e0152818161228d015281816123470152818161240b01528181612a5201528181612f1e01526132a50152600081816102cd015281816106b5015281816107440152818161089c01528181610cab01528181610d1001528181611226015281816112b6015281816114ba015281816116940152818161182f0152818161189701528181611ea3015281816120fe015281816121c2015281816123a70152818161293701528181612e34015261310a01526000818161055e015261348b0152600081816103980152818161077a015281816108e301528181610bd901528181610d41015281816112ec015281816113e601528181611de0015281816121f8015281816124410152818161299b01528181612a8b01528181612bfe01528181612cd301528181612e6501528181612f520152818161313e01526132d701526000818161028101528181610f3201526135430152600081816103e6015281816107fe01528181610c5d01528181611e66015261345301526000818161037101526125fb0152613fdf6000f3fe608060405234801561001057600080fd5b50600436106101e55760003560e01c806367e4ac2c1161010f578063a9059cbb116100a2578063d21220a711610071578063d21220a714610580578063d505accf146105a7578063dd62ed3e146105bc578063f446c1d0146105e757600080fd5b8063a9059cbb1461050c578063af8c09bf1461051f578063baa8c7cb14610532578063cf58879a1461055957600080fd5b80637ecebe00116100de5780637ecebe001461047657806395d89b4114610496578063a69840a8146104d2578063a8f1f52e146104f957600080fd5b806367e4ac2c1461041b5780636b4a20441461043057806370a08231146104435780637ba0e2e71461046357600080fd5b80632a07b6c7116101875780634da31827116101565780634da31827146103935780634e25dc47146103ba57806354cf2aeb146103e1578063627dd56a1461040857600080fd5b80632a07b6c71461030b57806330adf81f1461032b578063313ce567146103525780633644e5151461036c57600080fd5b80630c0a0cd2116101c35780630c0a0cd21461027c5780630dfe1681146102c857806318160ddd146102ef57806323b872dd146102f857600080fd5b8063053da1c8146101ea57806306fdde0314610210578063095ea7b314610259575b600080fd5b6101fd6101f8366004613bf1565b61060e565b6040519081526020015b60405180910390f35b61024c6040518060400160405280600e81526020017f5375736869204c5020546f6b656e00000000000000000000000000000000000081525081565b6040516102079190613e09565b61026c610267366004613ad4565b610f75565b6040519015158152602001610207565b6102a37f000000000000000000000000000000000000000000000000000000000000000081565b60405173ffffffffffffffffffffffffffffffffffffffff9091168152602001610207565b6102a37f000000000000000000000000000000000000000000000000000000000000000081565b6101fd60005481565b61026c610306366004613b39565b610fef565b61031e610319366004613bf1565b61113b565b6040516102079190613da4565b6101fd7f6e71edae12b1b97f4d1f60370fef10105fa2faae0126114a169c64845d6126c981565b61035a601281565b60405160ff9091168152602001610207565b6101fd7f000000000000000000000000000000000000000000000000000000000000000081565b6102a37f000000000000000000000000000000000000000000000000000000000000000081565b6101fd7f000000000000000000000000000000000000000000000000000000000000000081565b6101fd7f000000000000000000000000000000000000000000000000000000000000000081565b6101fd610416366004613bf1565b6115ee565b610423611875565b6040516102079190613d4a565b6101fd61043e366004613ca0565b611974565b6101fd610451366004613925565b60016020526000908152604090205481565b6101fd610471366004613bf1565b611b37565b6101fd610484366004613925565b60036020526000908152604090205481565b61024c6040518060400160405280600381526020017f534c50000000000000000000000000000000000000000000000000000000000081525081565b6101fd7f54726964656e743a48796272696450616972000000000000000000000000000081565b6101fd610507366004613bf1565b611d68565b61026c61051a366004613ad4565b611f23565b6101fd61052d366004613bf1565b611fa8565b6101fd7f000000000000000000000000000000000000000000000000000000000000000081565b6102a37f000000000000000000000000000000000000000000000000000000000000000081565b6102a37f000000000000000000000000000000000000000000000000000000000000000081565b6105ba6105b5366004613b7a565b612542565b005b6101fd6105ca366004613b00565b600260209081526000928352604080842090915290825290205481565b6101fd7f000000000000000000000000000000000000000000000000000000000000000081565b6000600554600114610681576040517f08c379a000000000000000000000000000000000000000000000000000000000815260206004820152601260248201527f487962726964506f6f6c3a204c4f434b4544000000000000000000000000000060448201526064015b60405180910390fd5b600260055560008080808061069887890189613990565b945094509450945094506000806106ad6128f6565b9150915060007f000000000000000000000000000000000000000000000000000000000000000073ffffffffffffffffffffffffffffffffffffffff168873ffffffffffffffffffffffffffffffffffffffff161415610ab1576040517f5662311800000000000000000000000000000000000000000000000000000000815273ffffffffffffffffffffffffffffffffffffffff7f00000000000000000000000000000000000000000000000000000000000000008116600483015260248201879052600060448301527f0000000000000000000000000000000000000000000000000000000000000000169063566231189060640160206040518083038186803b1580156107bc57600080fd5b505afa1580156107d0573d6000803e3d6000fd5b505050506040513d601f19601f820116820180604052508101906107f49190613c63565b94506127106108237f000000000000000000000000000000000000000000000000000000000000000087613e6f565b61082d9190613e34565b905061084561083c8287613eac565b84846001611974565b98506108747f0000000000000000000000000000000000000000000000000000000000000000888b878a612b0e565b6040517ff7888aec0000000000000000000000000000000000000000000000000000000081527f000000000000000000000000000000000000000000000000000000000000000073ffffffffffffffffffffffffffffffffffffffff81811660048401523060248401526000927f00000000000000000000000000000000000000000000000000000000000000009190911691635662311891839063f7888aec9060440160206040518083038186803b15801561093057600080fd5b505afa158015610944573d6000803e3d6000fd5b505050506040513d601f19601f820116820180604052508101906109689190613c63565b6040517fffffffff0000000000000000000000000000000000000000000000000000000060e085901b16815273ffffffffffffffffffffffffffffffffffffffff909216600483015260248201526000604482015260640160206040518083038186803b1580156109d857600080fd5b505afa1580156109ec573d6000803e3d6000fd5b505050506040513d601f19601f82011682018060405250810190610a109190613c63565b905085610a1d8583613eac565b1015610aab576040517f08c379a000000000000000000000000000000000000000000000000000000000815260206004820152602360248201527f487962726964506f6f6c3a20496e7375666666696369656e7420616d6f756e7460448201527f20696e00000000000000000000000000000000000000000000000000000000006064820152608401610678565b50610f2c565b7f000000000000000000000000000000000000000000000000000000000000000073ffffffffffffffffffffffffffffffffffffffff168873ffffffffffffffffffffffffffffffffffffffff1614610b66576040517f08c379a000000000000000000000000000000000000000000000000000000000815260206004820152601f60248201527f487962726964506f6f6c3a20496e76616c696420696e70757420746f6b656e006044820152606401610678565b6040517f5662311800000000000000000000000000000000000000000000000000000000815273ffffffffffffffffffffffffffffffffffffffff7f00000000000000000000000000000000000000000000000000000000000000008116600483015260248201879052600060448301527f0000000000000000000000000000000000000000000000000000000000000000169063566231189060640160206040518083038186803b158015610c1b57600080fd5b505afa158015610c2f573d6000803e3d6000fd5b505050506040513d601f19601f82011682018060405250810190610c539190613c63565b9450612710610c827f000000000000000000000000000000000000000000000000000000000000000087613e6f565b610c8c9190613e34565b9050610ca4610c9b8287613eac565b84846000611974565b9850610cd37f0000000000000000000000000000000000000000000000000000000000000000888b878a612b0e565b6040517ff7888aec00000000000000000000000000000000000000000000000000000000815273ffffffffffffffffffffffffffffffffffffffff7f0000000000000000000000000000000000000000000000000000000000000000811660048301523060248301526000917f0000000000000000000000000000000000000000000000000000000000000000909116906356623118907f000000000000000000000000000000000000000000000000000000000000000090839063f7888aec9060440160206040518083038186803b158015610daf57600080fd5b505afa158015610dc3573d6000803e3d6000fd5b505050506040513d601f19601f82011682018060405250810190610de79190613c63565b6040517fffffffff0000000000000000000000000000000000000000000000000000000060e085901b16815273ffffffffffffffffffffffffffffffffffffffff909216600483015260248201526000604482015260640160206040518083038186803b158015610e5757600080fd5b505afa158015610e6b573d6000803e3d6000fd5b505050506040513d601f19601f82011682018060405250810190610e8f9190613c63565b905085610e9c8483613eac565b1015610f2a576040517f08c379a000000000000000000000000000000000000000000000000000000000815260206004820152602260248201527f487962726964506f6f6c3a20496e73756666696369656e7420616d6f756e742060448201527f696e0000000000000000000000000000000000000000000000000000000000006064820152608401610678565b505b610f59887f0000000000000000000000000000000000000000000000000000000000000000836000612b97565b610f61612df7565b505060016005555094979650505050505050565b33600081815260026020908152604080832073ffffffffffffffffffffffffffffffffffffffff8716808552925280832085905551919290917f8c5be1e5ebec7d5bd14f71427d1e84f3dd0314c0f7b2291e5b200ac8c7c3b92590610fdd9086815260200190565b60405180910390a35060015b92915050565b73ffffffffffffffffffffffffffffffffffffffff831660009081526002602090815260408083203384529091528120547fffffffffffffffffffffffffffffffffffffffffffffffffffffffffffffffff1461108c5773ffffffffffffffffffffffffffffffffffffffff8416600090815260026020908152604080832033845290915281208054849290611086908490613eac565b90915550505b73ffffffffffffffffffffffffffffffffffffffff8416600090815260016020526040812080548492906110c1908490613eac565b909155505073ffffffffffffffffffffffffffffffffffffffff808416600081815260016020526040908190208054860190555190918616907fddf252ad1be2c89b69c2b068fc378daa952ba7f163c4a11628f55a4df523b3ef906111299086815260200190565b60405180910390a35060019392505050565b60606005546001146111a9576040517f08c379a000000000000000000000000000000000000000000000000000000000815260206004820152601260248201527f487962726964506f6f6c3a204c4f434b454400000000000000000000000000006044820152606401610678565b60026005556000806111bd84860186613a9f565b6000805430825260016020526040822054939550919350909190806111e06130cd565b90925090506000846111f28486613e6f565b6111fc9190613e34565b905060008561120b8487613e6f565b6112159190613e34565b905061122130866133b6565b61124d7f000000000000000000000000000000000000000000000000000000000000000089848a612b97565b6112797f000000000000000000000000000000000000000000000000000000000000000089838a612b97565b6040517fda5139ca00000000000000000000000000000000000000000000000000000000815273ffffffffffffffffffffffffffffffffffffffff7f00000000000000000000000000000000000000000000000000000000000000008116600483015260248201849052600060448301527f0000000000000000000000000000000000000000000000000000000000000000169063da5139ca9060640160206040518083038186803b15801561132e57600080fd5b505afa158015611342573d6000803e3d6000fd5b505050506040513d601f19601f820116820180604052508101906113669190613c63565b6113709085613eac565b6040517fda5139ca00000000000000000000000000000000000000000000000000000000815273ffffffffffffffffffffffffffffffffffffffff7f00000000000000000000000000000000000000000000000000000000000000008116600483015260248201849052600060448301529195507f00000000000000000000000000000000000000000000000000000000000000009091169063da5139ca9060640160206040518083038186803b15801561142a57600080fd5b505afa15801561143e573d6000803e3d6000fd5b505050506040513d601f19601f820116820180604052508101906114629190613c63565b61146c9084613eac565b60408051600280825260608201909252919450816020015b604080518082019091526000808252602082015281526020019060019003908161148457905050985060405180604001604052807f000000000000000000000000000000000000000000000000000000000000000073ffffffffffffffffffffffffffffffffffffffff168152602001838152508960008151811061150b5761150b613f26565b602002602001018190525060405180604001604052807f000000000000000000000000000000000000000000000000000000000000000073ffffffffffffffffffffffffffffffffffffffff168152602001828152508960018151811061157457611574613f26565b6020026020010181905250611587612df7565b604080518381526020810183905273ffffffffffffffffffffffffffffffffffffffff8a169133917fdccd412f0b1252819cb1fd330b93224ca42612892bb3f4f789976e6d81936496910160405180910390a3505060016005555094979650505050505050565b600060055460011461165c576040517f08c379a000000000000000000000000000000000000000000000000000000000815260206004820152600660248201527f4c4f434b454400000000000000000000000000000000000000000000000000006044820152606401610678565b6000808061166c85870187613949565b92509250925060008061167d6128f6565b9150915060008061168c6130cd565b9150915060007f000000000000000000000000000000000000000000000000000000000000000073ffffffffffffffffffffffffffffffffffffffff168873ffffffffffffffffffffffffffffffffffffffff1614156117445760006116f28685613eac565b905060006117008a83613449565b905061171861170f8284613eac565b88886001611974565b9a507f000000000000000000000000000000000000000000000000000000000000000092505050611853565b7f000000000000000000000000000000000000000000000000000000000000000073ffffffffffffffffffffffffffffffffffffffff168873ffffffffffffffffffffffffffffffffffffffff16146117f9576040517f08c379a000000000000000000000000000000000000000000000000000000000815260206004820152601f60248201527f487962726964506f6f6c3a20496e76616c696420696e70757420746f6b656e006044820152606401610678565b60006118058584613eac565b905060006118138a83613449565b905061182b6118228284613eac565b88886000611974565b9a507f0000000000000000000000000000000000000000000000000000000000000000925050505b61185f81888b89612b97565b611867612df7565b505050505050505092915050565b60408051600280825260608083018452926020830190803683370190505090507f0000000000000000000000000000000000000000000000000000000000000000816000815181106118c9576118c9613f26565b602002602001019073ffffffffffffffffffffffffffffffffffffffff16908173ffffffffffffffffffffffffffffffffffffffff16815250507f00000000000000000000000000000000000000000000000000000000000000008160018151811061193757611937613f26565b602002602001019073ffffffffffffffffffffffffffffffffffffffff16908173ffffffffffffffffffffffffffffffffffffffff168152505090565b60008060008315611a08576119a97f000000000000000000000000000000000000000000000000000000000000000087613e6f565b91506119d57f000000000000000000000000000000000000000000000000000000000000000086613e6f565b9050611a017f000000000000000000000000000000000000000000000000000000000000000088613e6f565b9650611a8d565b611a327f000000000000000000000000000000000000000000000000000000000000000086613e6f565b9150611a5e7f000000000000000000000000000000000000000000000000000000000000000087613e6f565b9050611a8a7f000000000000000000000000000000000000000000000000000000000000000088613e6f565b96505b6000611a998383613571565b90506000611aa78985613e1c565b90506000611ab582846136c9565b905060006001611ac58387613eac565b611acf9190613eac565b905087611afc577f0000000000000000000000000000000000000000000000000000000000000000611b1e565b7f00000000000000000000000000000000000000000000000000000000000000005b611b289082613e34565b9b9a5050505050505050505050565b6000600554600114611ba5576040517f08c379a000000000000000000000000000000000000000000000000000000000815260206004820152601260248201527f487962726964506f6f6c3a204c4f434b454400000000000000000000000000006044820152606401610678565b60026005556000611bb883850185613925565b9050600080611bc56128f6565b6000805492945090925080611bd86130cd565b90925090506000611be98684613eac565b90506000611bf78684613eac565b90506000611c058585613805565b905085611c2c57611c186103e882613eac565b9950611c2760006103e8613875565b611c5e565b6000611c388989613805565b90508087611c468285613eac565b611c509190613e6f565b611c5a9190613e34565b9a50505b60008a11611cee576040517f08c379a000000000000000000000000000000000000000000000000000000000815260206004820152602960248201527f487962726964506f6f6c3a20494e53554646494349454e545f4c49515549444960448201527f54595f4d494e54454400000000000000000000000000000000000000000000006064820152608401610678565b611cf8898b613875565b611d00612df7565b604080518481526020810184905273ffffffffffffffffffffffffffffffffffffffff8b169133917fdbba30eb0402b389513e87f51f4db2db80bed454384ec6925a24097c3548a02a910160405180910390a350506001600555509598975050505050505050565b60008080611d7884860186613ad4565b91509150600080611d876128f6565b6040517f5662311800000000000000000000000000000000000000000000000000000000815273ffffffffffffffffffffffffffffffffffffffff878116600483015260248201879052600060448301529294509092507f00000000000000000000000000000000000000000000000000000000000000009091169063566231189060640160206040518083038186803b158015611e2457600080fd5b505afa158015611e38573d6000803e3d6000fd5b505050506040513d601f19601f82011682018060405250810190611e5c9190613c63565b9250612710611e8b7f000000000000000000000000000000000000000000000000000000000000000085613e6f565b611e959190613e34565b611e9f9084613eac565b92507f000000000000000000000000000000000000000000000000000000000000000073ffffffffffffffffffffffffffffffffffffffff168473ffffffffffffffffffffffffffffffffffffffff161415611f0957611f028383836001611974565b9450611f19565b611f168383836000611974565b94505b5050505092915050565b33600090815260016020526040812080548391908390611f44908490613eac565b909155505073ffffffffffffffffffffffffffffffffffffffff8316600081815260016020526040908190208054850190555133907fddf252ad1be2c89b69c2b068fc378daa952ba7f163c4a11628f55a4df523b3ef90610fdd9086815260200190565b6000600554600114612016576040517f08c379a000000000000000000000000000000000000000000000000000000000815260206004820152601260248201527f487962726964506f6f6c3a204c4f434b454400000000000000000000000000006044820152606401610678565b60026005556000808061202b85870187613949565b92509250925060008061203c6128f6565b9150915060008061204b6130cd565b6000805430808352600160205260409092205493955091935090919061207190826133b6565b60008261207e8684613e6f565b6120889190613e34565b90506000836120978685613e6f565b6120a19190613e34565b90507f000000000000000000000000000000000000000000000000000000000000000073ffffffffffffffffffffffffffffffffffffffff168b73ffffffffffffffffffffffffffffffffffffffff16141561228b5760006121237f000000000000000000000000000000000000000000000000000000000000000084613449565b905061214d6121328285613eac565b61213c858c613eac565b612146858c613eac565b6001611974565b6121579083613e1c565b91506121857f00000000000000000000000000000000000000000000000000000000000000008c848d612b97565b6040517fda5139ca00000000000000000000000000000000000000000000000000000000815273ffffffffffffffffffffffffffffffffffffffff7f00000000000000000000000000000000000000000000000000000000000000008116600483015260248201859052600060448301527f0000000000000000000000000000000000000000000000000000000000000000169063da5139ca9060640160206040518083038186803b15801561223a57600080fd5b505afa15801561224e573d6000803e3d6000fd5b505050506040513d601f19601f820116820180604052508101906122729190613c63565b61227c9088613eac565b9650819c5060009250506124d0565b7f000000000000000000000000000000000000000000000000000000000000000073ffffffffffffffffffffffffffffffffffffffff168b73ffffffffffffffffffffffffffffffffffffffff1614612340576040517f08c379a000000000000000000000000000000000000000000000000000000000815260206004820152601460248201527f494e56414c49445f4f55545055545f544f4b454e0000000000000000000000006044820152606401610678565b600061236c7f000000000000000000000000000000000000000000000000000000000000000083613449565b905061239661237b8284613eac565b612385858c613eac565b61238f858c613eac565b6000611974565b6123a09084613e1c565b92506123ce7f00000000000000000000000000000000000000000000000000000000000000008c858d612b97565b6040517fda5139ca00000000000000000000000000000000000000000000000000000000815273ffffffffffffffffffffffffffffffffffffffff7f00000000000000000000000000000000000000000000000000000000000000008116600483015260248201849052600060448301527f0000000000000000000000000000000000000000000000000000000000000000169063da5139ca9060640160206040518083038186803b15801561248357600080fd5b505afa158015612497573d6000803e3d6000fd5b505050506040513d601f19601f820116820180604052508101906124bb9190613c63565b6124c59087613eac565b9550829c5060009150505b6124d8612df7565b604080518381526020810183905273ffffffffffffffffffffffffffffffffffffffff8c169133917fdccd412f0b1252819cb1fd330b93224ca42612892bb3f4f789976e6d81936496910160405180910390a35050600160055550979a9950505050505050505050565b428410156125d2576040517f08c379a000000000000000000000000000000000000000000000000000000000815260206004820152602560248201527f54726964656e7445524332303a205045524d49545f444541444c494e455f455860448201527f50495245440000000000000000000000000000000000000000000000000000006064820152608401610678565b73ffffffffffffffffffffffffffffffffffffffff8716600090815260036020526040812080547f0000000000000000000000000000000000000000000000000000000000000000917f6e71edae12b1b97f4d1f60370fef10105fa2faae0126114a169c64845d6126c9918b918b918b918761264d83613ebe565b9091555060408051602081019690965273ffffffffffffffffffffffffffffffffffffffff94851690860152929091166060840152608083015260a082015260c0810187905260e001604051602081830303815290604052805190602001206040516020016126ee9291907f190100000000000000000000000000000000000000000000000000000000000081526002810192909252602282015260420190565b604080517fffffffffffffffffffffffffffffffffffffffffffffffffffffffffffffffe08184030181528282528051602091820120600080855291840180845281905260ff88169284019290925260608301869052608083018590529092509060019060a0016020604051602081039080840390855afa158015612777573d6000803e3d6000fd5b50506040517fffffffffffffffffffffffffffffffffffffffffffffffffffffffffffffffe0015191505073ffffffffffffffffffffffffffffffffffffffff8116158015906127f257508873ffffffffffffffffffffffffffffffffffffffff168173ffffffffffffffffffffffffffffffffffffffff16145b61287e576040517f08c379a000000000000000000000000000000000000000000000000000000000815260206004820152602660248201527f54726964656e7445524332303a20494e56414c49445f5045524d49545f53494760448201527f4e415455524500000000000000000000000000000000000000000000000000006064820152608401610678565b73ffffffffffffffffffffffffffffffffffffffff81811660009081526002602090815260408083208c8516808552908352928190208b9055518a815291928c16917f8c5be1e5ebec7d5bd14f71427d1e84f3dd0314c0f7b2291e5b200ac8c7c3b925910160405180910390a3505050505050505050565b600480546040517f5662311800000000000000000000000000000000000000000000000000000000815273ffffffffffffffffffffffffffffffffffffffff7f00000000000000000000000000000000000000000000000000000000000000008116938201939093526fffffffffffffffffffffffffffffffff80831660248301819052600060448401529370010000000000000000000000000000000090930416917f0000000000000000000000000000000000000000000000000000000000000000169063566231189060640160206040518083038186803b1580156129dd57600080fd5b505afa1580156129f1573d6000803e3d6000fd5b505050506040513d601f19601f82011682018060405250810190612a159190613c63565b6040517f5662311800000000000000000000000000000000000000000000000000000000815273ffffffffffffffffffffffffffffffffffffffff7f00000000000000000000000000000000000000000000000000000000000000008116600483015260248201849052600060448301529193507f0000000000000000000000000000000000000000000000000000000000000000909116906356623118906064015b60206040518083038186803b158015612ad057600080fd5b505afa158015612ae4573d6000803e3d6000fd5b505050506040513d601f19601f82011682018060405250810190612b089190613c63565b90509091565b612b1a85858584612b97565b815115612b90576040517fbd50c7b1000000000000000000000000000000000000000000000000000000008152339063bd50c7b190612b5d908590600401613e09565b600060405180830381600087803b158015612b7757600080fd5b505af1158015612b8b573d6000803e3d6000fd5b505050505b5050505050565b8015612c80576040517f97da6d3000000000000000000000000000000000000000000000000000000000815273ffffffffffffffffffffffffffffffffffffffff8581166004830152306024830152848116604483015260648201849052600060848301527f000000000000000000000000000000000000000000000000000000000000000016906397da6d309060a4016040805180830381600087803b158015612c4157600080fd5b505af1158015612c55573d6000803e3d6000fd5b505050506040513d601f19601f82011682018060405250810190612c799190613c7c565b5050612df1565b6040517fda5139ca00000000000000000000000000000000000000000000000000000000815273ffffffffffffffffffffffffffffffffffffffff858116600483015260248201849052600060448301527f0000000000000000000000000000000000000000000000000000000000000000169063f18d03cc90869030908790859063da5139ca9060640160206040518083038186803b158015612d2357600080fd5b505afa158015612d37573d6000803e3d6000fd5b505050506040513d601f19601f82011682018060405250810190612d5b9190613c63565b6040517fffffffff0000000000000000000000000000000000000000000000000000000060e087901b16815273ffffffffffffffffffffffffffffffffffffffff94851660048201529284166024840152921660448201526064810191909152608401600060405180830381600087803b158015612dd857600080fd5b505af1158015612dec573d6000803e3d6000fd5b505050505b50505050565b6040517ff7888aec00000000000000000000000000000000000000000000000000000000815273ffffffffffffffffffffffffffffffffffffffff7f0000000000000000000000000000000000000000000000000000000000000000811660048301523060248301526000917f00000000000000000000000000000000000000000000000000000000000000009091169063f7888aec9060440160206040518083038186803b158015612ea957600080fd5b505afa158015612ebd573d6000803e3d6000fd5b505050506040513d601f19601f82011682018060405250810190612ee19190613c63565b6040517ff7888aec00000000000000000000000000000000000000000000000000000000815273ffffffffffffffffffffffffffffffffffffffff7f0000000000000000000000000000000000000000000000000000000000000000811660048301523060248301529192506000917f0000000000000000000000000000000000000000000000000000000000000000169063f7888aec9060440160206040518083038186803b158015612f9457600080fd5b505afa158015612fa8573d6000803e3d6000fd5b505050506040513d601f19601f82011682018060405250810190612fcc9190613c63565b90506fffffffffffffffffffffffffffffffff82108015612ffc57506fffffffffffffffffffffffffffffffff81105b613062576040517f08c379a000000000000000000000000000000000000000000000000000000000815260206004820152601460248201527f487962726964506f6f6c3a204f564552464c4f570000000000000000000000006044820152606401610678565b6fffffffffffffffffffffffffffffffff818116700100000000000000000000000000000000029083161760045560408051838152602081018390527fcf2aa50876cdfbb541206f89af0ee78d44a2abf8d328e37fa4917f982149848a910160405180910390a15050565b6040517ff7888aec00000000000000000000000000000000000000000000000000000000815273ffffffffffffffffffffffffffffffffffffffff7f0000000000000000000000000000000000000000000000000000000000000000818116600484015230602484015260009283927f00000000000000000000000000000000000000000000000000000000000000001691635662311891839063f7888aec9060440160206040518083038186803b15801561318857600080fd5b505afa15801561319c573d6000803e3d6000fd5b505050506040513d601f19601f820116820180604052508101906131c09190613c63565b6040517fffffffff0000000000000000000000000000000000000000000000000000000060e085901b16815273ffffffffffffffffffffffffffffffffffffffff909216600483015260248201526000604482015260640160206040518083038186803b15801561323057600080fd5b505afa158015613244573d6000803e3d6000fd5b505050506040513d601f19601f820116820180604052508101906132689190613c63565b6040517ff7888aec00000000000000000000000000000000000000000000000000000000815273ffffffffffffffffffffffffffffffffffffffff7f000000000000000000000000000000000000000000000000000000000000000081811660048401523060248401529294507f00000000000000000000000000000000000000000000000000000000000000001691635662311891839063f7888aec9060440160206040518083038186803b15801561332157600080fd5b505afa158015613335573d6000803e3d6000fd5b505050506040513d601f19601f820116820180604052508101906133599190613c63565b6040517fffffffff0000000000000000000000000000000000000000000000000000000060e085901b16815273ffffffffffffffffffffffffffffffffffffffff9092166004830152602482015260006044820152606401612ab8565b73ffffffffffffffffffffffffffffffffffffffff8216600090815260016020526040812080548392906133eb908490613eac565b909155505060008054829003815560405182815273ffffffffffffffffffffffffffffffffffffffff8416907fddf252ad1be2c89b69c2b068fc378daa952ba7f163c4a11628f55a4df523b3ef906020015b60405180910390a35050565b60006127106134787f000000000000000000000000000000000000000000000000000000000000000084613e6f565b6134829190613e34565b905060006127107f000000000000000000000000000000000000000000000000000000000000000073ffffffffffffffffffffffffffffffffffffffff1663c14ad8026040518163ffffffff1660e01b815260040160206040518083038186803b1580156134ef57600080fd5b505afa158015613503573d6000803e3d6000fd5b505050506040513d601f19601f820116820180604052508101906135279190613c63565b6135319084613e6f565b61353b9190613e34565b905061356a847f0000000000000000000000000000000000000000000000000000000000000000836000612b97565b5092915050565b60008061357e8385613e1c565b90508061358f576000915050610fe9565b600081815b6101008110156136bf576000600487848a6135af8280613e6f565b6135b99190613e34565b6135c39190613e6f565b6135cd9190613e34565b6135d79190613e34565b90508293508060036135e99190613e6f565b83600161361760647f0000000000000000000000000000000000000000000000000000000000000000613e34565b6136219190613eac565b61362b9190613e6f565b6136359190613e1c565b83613641836002613e6f565b606461366d897f0000000000000000000000000000000000000000000000000000000000000000613e6f565b6136779190613e34565b6136819190613e1c565b61368b9190613e6f565b6136959190613e34565b92506136a183856138e5565b156136ac57506136bf565b50806136b781613ebe565b915050613594565b5095945050505050565b6000806136d7846002613e6f565b6136e18480613e6f565b6136eb9190613e34565b9050606461371a7f00000000000000000000000000000000000000000000000000000000000000006002613e6f565b6137249190613e34565b61372e8483613e6f565b6137389190613e34565b905060007f0000000000000000000000000000000000000000000000000000000000000000613768606486613e6f565b6137729190613e34565b61377c9086613e1c565b9050600084815b6101008110156137fa57819250868483600261379f9190613e6f565b6137a99190613e1c565b6137b39190613eac565b856137be8480613e6f565b6137c89190613e1c565b6137d29190613e34565b91506137de82846138e5565b156137e8576137fa565b806137f281613ebe565b915050613783565b509695505050505050565b6000806138327f000000000000000000000000000000000000000000000000000000000000000085613e6f565b905060006138607f000000000000000000000000000000000000000000000000000000000000000085613e6f565b905061386c8282613571565b95945050505050565b806000808282546138869190613e1c565b909155505073ffffffffffffffffffffffffffffffffffffffff82166000818152600160209081526040808320805486019055518481527fddf252ad1be2c89b69c2b068fc378daa952ba7f163c4a11628f55a4df523b3ef910161343d565b600060016138f384846138fc565b11159392505050565b60008183111561390b57508082035b500390565b8035801515811461392057600080fd5b919050565b60006020828403121561393757600080fd5b813561394281613f84565b9392505050565b60008060006060848603121561395e57600080fd5b833561396981613f84565b9250602084013561397981613f84565b915061398760408501613910565b90509250925092565b600080600080600060a086880312156139a857600080fd5b85356139b381613f84565b945060208601356139c381613f84565b93506139d160408701613910565b925060608601359150608086013567ffffffffffffffff808211156139f557600080fd5b818801915088601f830112613a0957600080fd5b813581811115613a1b57613a1b613f55565b604051601f82017fffffffffffffffffffffffffffffffffffffffffffffffffffffffffffffffe0908116603f01168101908382118183101715613a6157613a61613f55565b816040528281528b6020848701011115613a7a57600080fd5b8260208601602083013760006020848301015280955050505050509295509295909350565b60008060408385031215613ab257600080fd5b8235613abd81613f84565b9150613acb60208401613910565b90509250929050565b60008060408385031215613ae757600080fd5b8235613af281613f84565b946020939093013593505050565b60008060408385031215613b1357600080fd5b8235613b1e81613f84565b91506020830135613b2e81613f84565b809150509250929050565b600080600060608486031215613b4e57600080fd5b8335613b5981613f84565b92506020840135613b6981613f84565b929592945050506040919091013590565b600080600080600080600060e0888a031215613b9557600080fd5b8735613ba081613f84565b96506020880135613bb081613f84565b95506040880135945060608801359350608088013560ff81168114613bd457600080fd5b9699959850939692959460a0840135945060c09093013592915050565b60008060208385031215613c0457600080fd5b823567ffffffffffffffff80821115613c1c57600080fd5b818501915085601f830112613c3057600080fd5b813581811115613c3f57600080fd5b866020828501011115613c5157600080fd5b60209290920196919550909350505050565b600060208284031215613c7557600080fd5b5051919050565b60008060408385031215613c8f57600080fd5b505080516020909101519092909150565b60008060008060808587031215613cb657600080fd5b843593506020850135925060408501359150613cd460608601613910565b905092959194509250565b6000815180845260005b81811015613d0557602081850181015186830182015201613ce9565b81811115613d17576000602083870101525b50601f017fffffffffffffffffffffffffffffffffffffffffffffffffffffffffffffffe0169290920160200192915050565b6020808252825182820181905260009190848201906040850190845b81811015613d9857835173ffffffffffffffffffffffffffffffffffffffff1683529284019291840191600101613d66565b50909695505050505050565b602080825282518282018190526000919060409081850190868401855b82811015613dfc578151805173ffffffffffffffffffffffffffffffffffffffff168552860151868501529284019290850190600101613dc1565b5091979650505050505050565b6020815260006139426020830184613cdf565b60008219821115613e2f57613e2f613ef7565b500190565b600082613e6a577f4e487b7100000000000000000000000000000000000000000000000000000000600052601260045260246000fd5b500490565b6000817fffffffffffffffffffffffffffffffffffffffffffffffffffffffffffffffff0483118215151615613ea757613ea7613ef7565b500290565b60008282101561390b5761390b613ef7565b60007fffffffffffffffffffffffffffffffffffffffffffffffffffffffffffffffff821415613ef057613ef0613ef7565b5060010190565b7f4e487b7100000000000000000000000000000000000000000000000000000000600052601160045260246000fd5b7f4e487b7100000000000000000000000000000000000000000000000000000000600052603260045260246000fd5b7f4e487b7100000000000000000000000000000000000000000000000000000000600052604160045260246000fd5b73ffffffffffffffffffffffffffffffffffffffff81168114613fa657600080fd5b5056fea2646970667358221220d0aca49d6dd493ae92eda663b5fb734bd3e7e0fd082905d87554d4ba3d51c8e964736f6c63430008060033a2646970667358221220c3d899067e0a4ef9391d2eea3ef87e25491fbc64118e27cdd4ddd734a9a0461464736f6c63430008060033",
  "devdoc": {
    "author": "Mudit Gupta.",
    "kind": "dev",
    "methods": {},
    "version": 1
  },
  "userdoc": {
    "kind": "user",
    "methods": {},
    "notice": "Contract for deploying Trident exchange Hybrid Pool with configurations.",
    "version": 1
  },
  "storageLayout": {
    "storage": [
      {
        "astId": 7760,
        "contract": "contracts/pool/HybridPoolFactory.sol:HybridPoolFactory",
        "label": "pools",
        "offset": 0,
        "slot": "0",
        "type": "t_mapping(t_address,t_mapping(t_address,t_array(t_address)dyn_storage))"
      },
      {
        "astId": 7764,
        "contract": "contracts/pool/HybridPoolFactory.sol:HybridPoolFactory",
        "label": "configAddress",
        "offset": 0,
        "slot": "1",
        "type": "t_mapping(t_bytes_memory_ptr,t_address)"
      }
    ],
    "types": {
      "t_address": {
        "encoding": "inplace",
        "label": "address",
        "numberOfBytes": "20"
      },
      "t_array(t_address)dyn_storage": {
        "base": "t_address",
        "encoding": "dynamic_array",
        "label": "address[]",
        "numberOfBytes": "32"
      },
      "t_bytes_memory_ptr": {
        "encoding": "bytes",
        "label": "bytes",
        "numberOfBytes": "32"
      },
      "t_mapping(t_address,t_array(t_address)dyn_storage)": {
        "encoding": "mapping",
        "key": "t_address",
        "label": "mapping(address => address[])",
        "numberOfBytes": "32",
        "value": "t_array(t_address)dyn_storage"
      },
      "t_mapping(t_address,t_mapping(t_address,t_array(t_address)dyn_storage))": {
        "encoding": "mapping",
        "key": "t_address",
        "label": "mapping(address => mapping(address => address[]))",
        "numberOfBytes": "32",
        "value": "t_mapping(t_address,t_array(t_address)dyn_storage)"
      },
      "t_mapping(t_bytes_memory_ptr,t_address)": {
        "encoding": "mapping",
        "key": "t_bytes_memory_ptr",
        "label": "mapping(bytes => address)",
        "numberOfBytes": "32",
        "value": "t_address"
      }
    }
  }
}