{
  "address": "0x0FaBb19C1362cbdd83a13D9b53F54934b05fC771",
  "abi": [
    {
      "inputs": [
        {
          "internalType": "address",
          "name": "_masterDeployer",
          "type": "address"
        }
      ],
      "stateMutability": "nonpayable",
      "type": "constructor"
    },
    {
      "inputs": [
        {
          "internalType": "bytes32",
          "name": "",
          "type": "bytes32"
        }
      ],
      "name": "configAddress",
      "outputs": [
        {
          "internalType": "address",
          "name": "",
          "type": "address"
        }
      ],
      "stateMutability": "view",
      "type": "function"
    },
    {
      "inputs": [
        {
          "internalType": "bytes",
          "name": "_deployData",
          "type": "bytes"
        }
      ],
      "name": "deployPool",
      "outputs": [
        {
          "internalType": "address",
          "name": "pool",
          "type": "address"
        }
      ],
      "stateMutability": "nonpayable",
      "type": "function"
    },
    {
      "inputs": [
        {
          "internalType": "address",
          "name": "token0",
          "type": "address"
        },
        {
          "internalType": "address",
          "name": "token1",
          "type": "address"
        },
        {
          "internalType": "uint256",
          "name": "startIndex",
          "type": "uint256"
        },
        {
          "internalType": "uint256",
          "name": "endIndex",
          "type": "uint256"
        }
      ],
      "name": "getPools",
      "outputs": [
        {
          "internalType": "address[]",
          "name": "pairPools",
          "type": "address[]"
        }
      ],
      "stateMutability": "view",
      "type": "function"
    },
    {
      "inputs": [],
      "name": "masterDeployer",
      "outputs": [
        {
          "internalType": "address",
          "name": "",
          "type": "address"
        }
      ],
      "stateMutability": "view",
      "type": "function"
    },
    {
      "inputs": [
        {
          "internalType": "address",
          "name": "",
          "type": "address"
        },
        {
          "internalType": "address",
          "name": "",
          "type": "address"
        },
        {
          "internalType": "uint256",
          "name": "",
          "type": "uint256"
        }
      ],
      "name": "pools",
      "outputs": [
        {
          "internalType": "address",
          "name": "",
          "type": "address"
        }
      ],
      "stateMutability": "view",
      "type": "function"
    },
    {
      "inputs": [
        {
          "internalType": "address",
          "name": "token0",
          "type": "address"
        },
        {
          "internalType": "address",
          "name": "token1",
          "type": "address"
        }
      ],
      "name": "poolsCount",
      "outputs": [
        {
          "internalType": "uint256",
          "name": "count",
          "type": "uint256"
        }
      ],
      "stateMutability": "view",
      "type": "function"
    }
  ],
  "transactionHash": "0xf9e41e7fa318c333099c9768e957a30a6a01a07fca6b54a433a3e13e85942ef7",
  "args": [
    "0xa2A7Aa74cb94f37221FD49F5BA6F3fF876092700"
  ],
  "solcInputHash": "5b26bd138dbf575502052224cfa03b4c",
  "bytecode": "0x60a060405234801561001057600080fd5b5060405161515238038061515283398101604081905261002f9161008f565b806001600160a01b0381166100795760405162461bcd60e51b815260206004820152600c60248201526b5a45524f5f4144445245535360a01b604482015260640160405180910390fd5b60601b6001600160601b031916608052506100bf565b6000602082840312156100a157600080fd5b81516001600160a01b03811681146100b857600080fd5b9392505050565b60805160601c61506e6100e46000396000818161015a015261036f015261506e6000f3fe60806040523480156200001157600080fd5b50600436106200007b5760003560e01c806371a25812116200005657806371a25812146200012e578063cf58879a1462000154578063f6ab6d99146200017c57600080fd5b8063169c4cef146200008057806327c3cae114620000c15780635bc93d6c14620000d8575b600080fd5b620000976200009136600462000883565b620001b5565b60405173ffffffffffffffffffffffffffffffffffffffff90911681526020015b60405180910390f35b62000097620000d23660046200092e565b62000208565b6200011f620000e936600462000845565b73ffffffffffffffffffffffffffffffffffffffff91821660009081526020818152604080832093909416825291909152205490565b604051908152602001620000b8565b620001456200013f366004620008c9565b620003e3565b604051620000b8919062000a07565b620000977f000000000000000000000000000000000000000000000000000000000000000081565b620000976200018d36600462000914565b60016020526000908152604090205473ffffffffffffffffffffffffffffffffffffffff1681565b60006020528260005260406000206020528160005260406000208181548110620001de57600080fd5b60009182526020909120015473ffffffffffffffffffffffffffffffffffffffff16925083915050565b600080600080600085806020019051810190620002269190620007f8565b93509350935093508273ffffffffffffffffffffffffffffffffffffffff168473ffffffffffffffffffffffffffffffffffffffff161115620002b3576040805173ffffffffffffffffffffffffffffffffffffffff8086166020830152861691810191909152606081018390526080810182905292939260a00160405160208183030381529060405295505b6040805160028082526060820183526000926020830190803683370190505090508481600081518110620002eb57620002eb62000b7c565b602002602001019073ffffffffffffffffffffffffffffffffffffffff16908173ffffffffffffffffffffffffffffffffffffffff168152505083816001815181106200033c576200033c62000b7c565b73ffffffffffffffffffffffffffffffffffffffff909216602092830291909101820152875190880120604051819089907f0000000000000000000000000000000000000000000000000000000000000000906200039a90620007ea565b620003a792919062000a63565b8190604051809103906000f5905080158015620003c8573d6000803e3d6000fd5b509650620003d88783836200051d565b505050505050919050565b6060620003f1838362000af7565b67ffffffffffffffff8111156200040c576200040c62000bab565b60405190808252806020026020018201604052801562000436578160200160208202803683370190505b50905060005b82841015620005145773ffffffffffffffffffffffffffffffffffffffff8087166000908152602081815260408083209389168352929052208054859081106200048a576200048a62000b7c565b9060005260206000200160009054906101000a900473ffffffffffffffffffffffffffffffffffffffff16828281518110620004ca57620004ca62000b7c565b73ffffffffffffffffffffffffffffffffffffffff9092166020928302919091019091015283620004fb8162000b11565b94505080806200050b9062000b11565b9150506200043c565b50949350505050565b60008181526001602052604090205473ffffffffffffffffffffffffffffffffffffffff1615620005af576040517f08c379a000000000000000000000000000000000000000000000000000000000815260206004820152601560248201527f504f4f4c5f414c52454144595f4445504c4f594544000000000000000000000060448201526064015b60405180910390fd5b600081815260016020526040812080547fffffffffffffffffffffffff00000000000000000000000000000000000000001673ffffffffffffffffffffffffffffffffffffffff86161790555b6001835103811015620007e45782816001018151811062000621576200062162000b7c565b602002602001015173ffffffffffffffffffffffffffffffffffffffff1683828151811062000654576200065462000b7c565b602002602001015173ffffffffffffffffffffffffffffffffffffffff1610620006db576040517f08c379a000000000000000000000000000000000000000000000000000000000815260206004820152601360248201527f494e56414c49445f544f4b454e5f4f52444552000000000000000000000000006044820152606401620005a6565b600181015b8351811015620007da5760008085848151811062000702576200070262000b7c565b602002602001015173ffffffffffffffffffffffffffffffffffffffff1673ffffffffffffffffffffffffffffffffffffffff16815260200190815260200160002060008583815181106200075b576200075b62000b7c565b60209081029190910181015173ffffffffffffffffffffffffffffffffffffffff908116835282820193909352604090910160009081208054600180820183559183529290912090910180547fffffffffffffffffffffffff0000000000000000000000000000000000000000169288169290921790915501620006e0565b50600101620005fc565b50505050565b6144388062000c0183390190565b600080600080608085870312156200080f57600080fd5b84516200081c8162000bda565b60208601519094506200082f8162000bda565b6040860151606090960151949790965092505050565b600080604083850312156200085957600080fd5b8235620008668162000bda565b91506020830135620008788162000bda565b809150509250929050565b6000806000606084860312156200089957600080fd5b8335620008a68162000bda565b92506020840135620008b88162000bda565b929592945050506040919091013590565b60008060008060808587031215620008e057600080fd5b8435620008ed8162000bda565b93506020850135620008ff8162000bda565b93969395505050506040820135916060013590565b6000602082840312156200092757600080fd5b5035919050565b6000602082840312156200094157600080fd5b813567ffffffffffffffff808211156200095a57600080fd5b818401915084601f8301126200096f57600080fd5b81358181111562000984576200098462000bab565b604051601f82017fffffffffffffffffffffffffffffffffffffffffffffffffffffffffffffffe0908116603f01168101908382118183101715620009cd57620009cd62000bab565b81604052828152876020848701011115620009e757600080fd5b826020860160208301376000928101602001929092525095945050505050565b6020808252825182820181905260009190848201906040850190845b8181101562000a5757835173ffffffffffffffffffffffffffffffffffffffff168352928401929184019160010162000a23565b50909695505050505050565b604081526000835180604084015260005b8181101562000a93576020818701810151606086840101520162000a74565b8181111562000aa6576000606083860101525b5073ffffffffffffffffffffffffffffffffffffffff93909316602083015250601f919091017fffffffffffffffffffffffffffffffffffffffffffffffffffffffffffffffe01601606001919050565b60008282101562000b0c5762000b0c62000b4d565b500390565b60007fffffffffffffffffffffffffffffffffffffffffffffffffffffffffffffffff82141562000b465762000b4662000b4d565b5060010190565b7f4e487b7100000000000000000000000000000000000000000000000000000000600052601160045260246000fd5b7f4e487b7100000000000000000000000000000000000000000000000000000000600052603260045260246000fd5b7f4e487b7100000000000000000000000000000000000000000000000000000000600052604160045260246000fd5b73ffffffffffffffffffffffffffffffffffffffff8116811462000bfd57600080fd5b5056fe6101e06040523480156200001257600080fd5b5060405162004438380380620044388339810160408190526200003591620006d4565b604080518082018252600e81526d29bab9b434902628102a37b5b2b760911b6020918201528151808301835260018152603160f81b9082015281517f8b73c3c69bb8fe3d512ecc4cf759cc79239f7b179b0ffacaa9a75d522b39400f918101919091527fc2bf45081e840722410522aa366600d7fe4da5bfb5a5b417f4d5125b4ed180a4918101919091527fc89efdaa54c0f20c7adf612882df0950f5a951637e0307cdcb4c672f298b8bc6606082015246608082018190523060a08301529060c0016040516020818303038152906040528051906020012060808181525050506000806000808580602001905181019062000132919062000687565b929650909450925090506001600160a01b038416620001875760405162461bcd60e51b815260206004820152600c60248201526b5a45524f5f4144445245535360a01b60448201526064015b60405180910390fd5b826001600160a01b0316846001600160a01b03161415620001eb5760405162461bcd60e51b815260206004820152601360248201527f4944454e544943414c5f4144445245535345530000000000000000000000000060448201526064016200017e565b612710821115620002325760405162461bcd60e51b815260206004820152601060248201526f494e56414c49445f535741505f46454560801b60448201526064016200017e565b806200026a5760405162461bcd60e51b81526020600482015260066024820152655a45524f5f4160d01b60448201526064016200017e565b60408051600481526024810182526020810180516001600160e01b03166360a56c0160e11b17905290516000916001600160a01b03881691620002ae9190620007e0565b600060405180830381855afa9150503d8060008114620002eb576040519150601f19603f3d011682016040523d82523d6000602084013e620002f0565b606091505b5060408051600481526024810182526020810180516001600160e01b0316630605066960e11b1790529051919350600092506001600160a01b03891691620003399190620007e0565b600060405180830381855afa9150503d806000811462000376576040519150601f19603f3d011682016040523d82523d6000602084013e6200037b565b606091505b5060408051600481526024810182526020810180516001600160e01b0316634da3182760e01b1790529051919350600092506001600160a01b038a1691620003c49190620007e0565b600060405180830381855afa9150503d806000811462000401576040519150601f19603f3d011682016040523d82523d6000602084013e62000406565b606091505b5060408051600481526024810182526020810180516001600160e01b031663313ce56760e01b1790529051919350600092506001600160a01b038a16916200044f9190620007e0565b600060405180830381855afa9150503d80600081146200048c576040519150601f19603f3d011682016040523d82523d6000602084013e62000491565b606091505b5060408051600481526024810182526020810180516001600160e01b031663313ce56760e01b1790529051919350600092506001600160a01b038a1691620004da9190620007e0565b600060405180830381855afa9150503d806000811462000517576040519150601f19603f3d011682016040523d82523d6000602084013e6200051c565b606091505b506001600160601b031960608c811b8216610120528b901b166101405260a0899052865190925062000559915086016020908101908701620007a1565b600455835162000573908501602090810190860162000660565b60601b6001600160601b03191660c05282516200059a906020908501810190850162000660565b6001600160601b0319606091821b811660e052908b901b1661010052610160869052620005c986600262000908565b610180528151620005e49083016020908101908401620007bb565b620005f19060126200092a565b620005fe90600a62000847565b6101a0528051620006199082016020908101908301620007bb565b620006269060126200092a565b6200063390600a62000847565b6101c0525050600160065550620009c8975050505050505050565b80516200065b81620009af565b919050565b6000602082840312156200067357600080fd5b81516200068081620009af565b9392505050565b600080600080608085870312156200069e57600080fd5b8451620006ab81620009af565b6020860151909450620006be81620009af565b6040860151606090960151949790965092505050565b60008060408385031215620006e857600080fd5b82516001600160401b03808211156200070057600080fd5b818501915085601f8301126200071557600080fd5b8151818111156200072a576200072a62000999565b604051601f8201601f19908116603f0116810190838211818310171562000755576200075562000999565b816040528281528860208487010111156200076f57600080fd5b6200078283602083016020880162000950565b809650505050505062000798602084016200064e565b90509250929050565b600060208284031215620007b457600080fd5b5051919050565b600060208284031215620007ce57600080fd5b815160ff811681146200068057600080fd5b60008251620007f481846020870162000950565b9190910192915050565b600181815b808511156200083f57816000190482111562000823576200082362000983565b808516156200083157918102915b93841c939080029062000803565b509250929050565b60006200068060ff841683600082620008635750600162000902565b81620008725750600062000902565b81600181146200088b57600281146200089657620008b6565b600191505062000902565b60ff841115620008aa57620008aa62000983565b50506001821b62000902565b5060208310610133831016604e8410600b8410161715620008db575081810a62000902565b620008e78383620007fe565b8060001904821115620008fe57620008fe62000983565b0290505b92915050565b600081600019048311821515161562000925576200092562000983565b500290565b600060ff821660ff84168082101562000947576200094762000983565b90039392505050565b60005b838110156200096d57818101518382015260200162000953565b838111156200097d576000848401525b50505050565b634e487b7160e01b600052601160045260246000fd5b634e487b7160e01b600052604160045260246000fd5b6001600160a01b0381168114620009c557600080fd5b50565b60805160a05160c05160601c60e05160601c6101005160601c6101205160601c6101405160601c61016051610180516101a0516101c05161380562000c3360003960008181610402015281816123120152818161236f015281816123c70152818161245e0152612e1f015260008181610571015281816122e60152818161233e0152818161239b015281816124380152612df1015260008181612f4601528181612f9c0152818161304701526130910152600061062d0152600081816105c80152818161074b015281816107ee015281816108e7015281816109c201528181610a6e01528181610a9201528181610eed01528181610f4f0152818161103d0152818161121e01528181611277015281816114a301528181611aaf01528181611b6801528181611c8e01528181611d1a0152818161214601528181612afd0152612b21015260008181610310015281816106f7015281816107710152818161081d015281816108410152818161099c01528181610a3f01528181610ec101528181610f1901528181610fd4015281816111c90152818161132d01528181611435015281816118b101528181611b0801528181611b9401528181611bd401528181611cee0152818161211a01528181612aae0152612ad20152600081816105a101526117b40152600081816103db015281816121a6015281816125ac015281816126db015281816127d30152612c0d0152600081816102c401528181610b340152612cb9015260008181610429015281816107a0015281816109f10152818161187401528181612c6201528181612d410152612dac0152600081816103b40152611ed701526138056000f3fe608060405234801561001057600080fd5b506004361061020b5760003560e01c806367e4ac2c1161012a578063a9059cbb116100bd578063cf58879a1161008c578063d505accf11610071578063d505accf146105ea578063dd62ed3e146105fd578063f446c1d01461062857600080fd5b8063cf58879a1461059c578063d21220a7146105c357600080fd5b8063a9059cbb14610546578063af8c09bf14610559578063baa8c7cb1461056c578063c14ad8021461059357600080fd5b806392bc3219116100f957806392bc3219146104c657806395d89b41146104d0578063a69840a81461050c578063a8f1f52e1461053357600080fd5b806367e4ac2c1461045e57806370a08231146104735780637ba0e2e7146104935780637ecebe00146104a657600080fd5b80632a07b6c7116101a25780634da31827116101715780634da31827146103d65780634e25dc47146103fd57806354cf2aeb14610424578063627dd56a1461044b57600080fd5b80632a07b6c71461034e57806330adf81f1461036e578063313ce567146103955780633644e515146103af57600080fd5b80630c0a0cd2116101de5780630c0a0cd2146102bf5780630dfe16811461030b57806318160ddd1461033257806323b872dd1461033b57600080fd5b8063053da1c81461021057806306fdde03146102365780630902f1ac1461027f578063095ea7b31461029c575b600080fd5b61022361021e366004613453565b61064f565b6040519081526020015b60405180910390f35b6102726040518060400160405280600e81526020017f5375736869204c5020546f6b656e00000000000000000000000000000000000081525081565b60405161022d9190613603565b610287610bfe565b6040805192835260208301919091520161022d565b6102af6102aa366004613336565b610c12565b604051901515815260200161022d565b6102e67f000000000000000000000000000000000000000000000000000000000000000081565b60405173ffffffffffffffffffffffffffffffffffffffff909116815260200161022d565b6102e67f000000000000000000000000000000000000000000000000000000000000000081565b61022360005481565b6102af61034936600461339b565b610c8b565b61036161035c366004613453565b610dd7565b60405161022d919061359e565b6102237f6e71edae12b1b97f4d1f60370fef10105fa2faae0126114a169c64845d6126c981565b61039d601281565b60405160ff909116815260200161022d565b6102237f000000000000000000000000000000000000000000000000000000000000000081565b6102e67f000000000000000000000000000000000000000000000000000000000000000081565b6102237f000000000000000000000000000000000000000000000000000000000000000081565b6102237f000000000000000000000000000000000000000000000000000000000000000081565b610223610459366004613453565b61111d565b610466611413565b60405161022d9190613544565b61022361048136600461318e565b60016020526000908152604090205481565b6102236104a1366004613453565b611512565b6102236104b436600461318e565b60036020526000908152604090205481565b6104ce611742565b005b6102726040518060400160405280600381526020017f534c50000000000000000000000000000000000000000000000000000000000081525081565b6102237f54726964656e743a487962726964506f6f6c000000000000000000000000000081565b610223610541366004613453565b61183d565b6102af610554366004613336565b611931565b610223610567366004613453565b6119b6565b6102237f000000000000000000000000000000000000000000000000000000000000000081565b61022360045481565b6102e67f000000000000000000000000000000000000000000000000000000000000000081565b6102e67f000000000000000000000000000000000000000000000000000000000000000081565b6104ce6105f83660046133dc565b611dac565b61022361060b366004613362565b600260209081526000928352604080842090915290825290205481565b6102237f000000000000000000000000000000000000000000000000000000000000000081565b60006006546001146106c2576040517f08c379a000000000000000000000000000000000000000000000000000000000815260206004820152600660248201527f4c4f434b4544000000000000000000000000000000000000000000000000000060448201526064015b60405180910390fd5b60026006556000808080806106d9878901896131f2565b945094509450945094506000806106ee6120e8565b915091506000807f000000000000000000000000000000000000000000000000000000000000000073ffffffffffffffffffffffffffffffffffffffff168973ffffffffffffffffffffffffffffffffffffffff1614156108e5577f000000000000000000000000000000000000000000000000000000000000000091506107967f000000000000000000000000000000000000000000000000000000000000000087612171565b95506127106107c57f000000000000000000000000000000000000000000000000000000000000000088613669565b6107cf919061362e565b90506107e76107de82886136a6565b858560016122d6565b99506108167f0000000000000000000000000000000000000000000000000000000000000000898c888b612496565b600061086a7f00000000000000000000000000000000000000000000000000000000000000006108657f000000000000000000000000000000000000000000000000000000000000000061251f565b612171565b90508661087786836136a6565b10156108df576040517f08c379a000000000000000000000000000000000000000000000000000000000815260206004820152601660248201527f494e53554646494349454e545f414d4f554e545f494e0000000000000000000060448201526064016106b9565b50610b2d565b7f000000000000000000000000000000000000000000000000000000000000000073ffffffffffffffffffffffffffffffffffffffff168973ffffffffffffffffffffffffffffffffffffffff161461099a576040517f08c379a000000000000000000000000000000000000000000000000000000000815260206004820152601360248201527f494e56414c49445f494e5055545f544f4b454e0000000000000000000000000060448201526064016106b9565b7f000000000000000000000000000000000000000000000000000000000000000091506109e77f000000000000000000000000000000000000000000000000000000000000000087612171565b9550612710610a167f000000000000000000000000000000000000000000000000000000000000000088613669565b610a20919061362e565b9050610a38610a2f82886136a6565b858560006122d6565b9950610a677f0000000000000000000000000000000000000000000000000000000000000000898c888b612496565b6000610ab67f00000000000000000000000000000000000000000000000000000000000000006108657f000000000000000000000000000000000000000000000000000000000000000061251f565b905086610ac385836136a6565b1015610b2b576040517f08c379a000000000000000000000000000000000000000000000000000000000815260206004820152601660248201527f494e53554646494349454e545f414d4f554e545f494e0000000000000000000060448201526064016106b9565b505b610b5a89827f00000000000000000000000000000000000000000000000000000000000000006000612638565b610b62612997565b8173ffffffffffffffffffffffffffffffffffffffff168973ffffffffffffffffffffffffffffffffffffffff168973ffffffffffffffffffffffffffffffffffffffff167fcd3829a3813dc3cdd188fd3d01dcf3268c16be2fdd2dd21d0665418816e46062898e604051610be1929190918252602082015260400190565b60405180910390a450506001600655509598975050505050505050565b600080610c096120e8565b90939092509050565b33600081815260026020908152604080832073ffffffffffffffffffffffffffffffffffffffff8716808552925280832085905551919290917f8c5be1e5ebec7d5bd14f71427d1e84f3dd0314c0f7b2291e5b200ac8c7c3b92590610c7a9086815260200190565b60405180910390a350600192915050565b73ffffffffffffffffffffffffffffffffffffffff831660009081526002602090815260408083203384529091528120547fffffffffffffffffffffffffffffffffffffffffffffffffffffffffffffffff14610d285773ffffffffffffffffffffffffffffffffffffffff8416600090815260026020908152604080832033845290915281208054849290610d229084906136a6565b90915550505b73ffffffffffffffffffffffffffffffffffffffff841660009081526001602052604081208054849290610d5d9084906136a6565b909155505073ffffffffffffffffffffffffffffffffffffffff808416600081815260016020526040908190208054860190555190918616907fddf252ad1be2c89b69c2b068fc378daa952ba7f163c4a11628f55a4df523b3ef90610dc59086815260200190565b60405180910390a35060019392505050565b6060600654600114610e45576040517f08c379a000000000000000000000000000000000000000000000000000000000815260206004820152600660248201527f4c4f434b4544000000000000000000000000000000000000000000000000000060448201526064016106b9565b6002600655600080610e5984860186613301565b91509150600080610e68612aa6565b600080543082526001602052604082205493955091935090919082610e8d8684613669565b610e97919061362e565b9050600083610ea68685613669565b610eb0919061362e565b9050610ebc3084612b45565b610ee87f0000000000000000000000000000000000000000000000000000000000000000838a8a612638565b610f147f0000000000000000000000000000000000000000000000000000000000000000828a8a612638565b610f3e7f000000000000000000000000000000000000000000000000000000000000000083612bd8565b610f4890876136a6565b9550610f747f000000000000000000000000000000000000000000000000000000000000000082612bd8565b610f7e90866136a6565b9450610f88612997565b6040805160028082526060820190925290816020015b6040805180820190915260008082526020820152815260200190600190039081610f9e57905050985060405180604001604052807f000000000000000000000000000000000000000000000000000000000000000073ffffffffffffffffffffffffffffffffffffffff16815260200183815250896000815181106110255761102561374c565b602002602001018190525060405180604001604052807f000000000000000000000000000000000000000000000000000000000000000073ffffffffffffffffffffffffffffffffffffffff168152602001828152508960018151811061108e5761108e61374c565b60200260200101819052508773ffffffffffffffffffffffffffffffffffffffff163373ffffffffffffffffffffffffffffffffffffffff167fdccd412f0b1252819cb1fd330b93224ca42612892bb3f4f789976e6d819364968484604051611101929190918252602082015260400190565b60405180910390a3505060016006555094979650505050505050565b600060065460011461118b576040517f08c379a000000000000000000000000000000000000000000000000000000000815260206004820152600660248201527f4c4f434b4544000000000000000000000000000000000000000000000000000060448201526064016106b9565b6002600655600080806111a0858701876131ab565b9250925092506000806111b16120e8565b915091506000806111c0612aa6565b915091506000807f000000000000000000000000000000000000000000000000000000000000000073ffffffffffffffffffffffffffffffffffffffff168973ffffffffffffffffffffffffffffffffffffffff16141561127557507f000000000000000000000000000000000000000000000000000000000000000061124786856136a6565b915060006112558a84612c58565b905061126d61126482856136a6565b888860016122d6565b9a5050611380565b7f000000000000000000000000000000000000000000000000000000000000000073ffffffffffffffffffffffffffffffffffffffff168973ffffffffffffffffffffffffffffffffffffffff161461132a576040517f08c379a000000000000000000000000000000000000000000000000000000000815260206004820152601360248201527f494e56414c49445f494e5055545f544f4b454e0000000000000000000000000060448201526064016106b9565b507f000000000000000000000000000000000000000000000000000000000000000061135685846136a6565b915060006113648a84612c58565b905061137c61137382856136a6565b888860006122d6565b9a50505b61138c818b8a8a612638565b611394612997565b8073ffffffffffffffffffffffffffffffffffffffff168973ffffffffffffffffffffffffffffffffffffffff168973ffffffffffffffffffffffffffffffffffffffff167fcd3829a3813dc3cdd188fd3d01dcf3268c16be2fdd2dd21d0665418816e46062858e604051610be1929190918252602082015260400190565b60408051600280825260608083018452926020830190803683370190505090507f0000000000000000000000000000000000000000000000000000000000000000816000815181106114675761146761374c565b602002602001019073ffffffffffffffffffffffffffffffffffffffff16908173ffffffffffffffffffffffffffffffffffffffff16815250507f0000000000000000000000000000000000000000000000000000000000000000816001815181106114d5576114d561374c565b602002602001019073ffffffffffffffffffffffffffffffffffffffff16908173ffffffffffffffffffffffffffffffffffffffff168152505090565b6000600654600114611580576040517f08c379a000000000000000000000000000000000000000000000000000000000815260206004820152600660248201527f4c4f434b4544000000000000000000000000000000000000000000000000000060448201526064016106b9565b600260065560006115938385018561318e565b90506000806115a06120e8565b915091506000806115af612aa6565b600080549294509092506115c386856136a6565b905060006115d186856136a6565b90506000806115e284848b8b612ce6565b909250905060006116056115f6848a6136a6565b611600848a6136a6565b612de9565b90508561162c576116186103e8826136a6565b9b5061162760006103e8612e59565b61165e565b60006116388b8b612de9565b9050808761164682856136a6565b6116509190613669565b61165a919061362e565b9c50505b8b6116c5576040517f08c379a000000000000000000000000000000000000000000000000000000000815260206004820152601d60248201527f494e53554646494349454e545f4c49515549444954595f4d494e54454400000060448201526064016106b9565b6116cf8b8d612e59565b6116d7612997565b604080518681526020810186905273ffffffffffffffffffffffffffffffffffffffff8d169133917fdbba30eb0402b389513e87f51f4db2db80bed454384ec6925a24097c3548a02a91015b60405180910390a35050600160065550979a9950505050505050505050565b60408051600481526024810182526020810180517bffffffffffffffffffffffffffffffffffffffffffffffffffffffff167fc14ad80200000000000000000000000000000000000000000000000000000000179052905160009173ffffffffffffffffffffffffffffffffffffffff7f000000000000000000000000000000000000000000000000000000000000000016916117df9190613528565b600060405180830381855afa9150503d806000811461181a576040519150601f19603f3d011682016040523d82523d6000602084013e61181f565b606091505b509150508080602001905181019061183791906134c5565b60045550565b6000808061184d84860186613336565b9150915060008061185c6120e8565b9150915061186a8484612171565b92506127106118997f000000000000000000000000000000000000000000000000000000000000000085613669565b6118a3919061362e565b6118ad90846136a6565b92507f000000000000000000000000000000000000000000000000000000000000000073ffffffffffffffffffffffffffffffffffffffff168473ffffffffffffffffffffffffffffffffffffffff1614156119175761191083838360016122d6565b9450611927565b61192483838360006122d6565b94505b5050505092915050565b336000908152600160205260408120805483919083906119529084906136a6565b909155505073ffffffffffffffffffffffffffffffffffffffff8316600081815260016020526040908190208054850190555133907fddf252ad1be2c89b69c2b068fc378daa952ba7f163c4a11628f55a4df523b3ef90610c7a9086815260200190565b6000600654600114611a24576040517f08c379a000000000000000000000000000000000000000000000000000000000815260206004820152600660248201527f4c4f434b4544000000000000000000000000000000000000000000000000000060448201526064016106b9565b600260065560008080611a39858701876131ab565b925092509250600080611a4a6120e8565b91509150600080611a59612aa6565b600080543082526001602052604082205493955091935090919082611a7e8684613669565b611a88919061362e565b9050600083611a978685613669565b611aa1919061362e565b9050611aad3084612b45565b7f000000000000000000000000000000000000000000000000000000000000000073ffffffffffffffffffffffffffffffffffffffff168b73ffffffffffffffffffffffffffffffffffffffff161415611bd2576000611b2d7f000000000000000000000000000000000000000000000000000000000000000084612c58565b9050611b57611b3c82856136a6565b611b46858c6136a6565b611b50858c6136a6565b60016122d6565b611b619083613616565b9150611b8f7f0000000000000000000000000000000000000000000000000000000000000000838d8d612638565b611bb97f000000000000000000000000000000000000000000000000000000000000000084612bd8565b611bc390886136a6565b9650819c506000925050611d54565b7f000000000000000000000000000000000000000000000000000000000000000073ffffffffffffffffffffffffffffffffffffffff168b73ffffffffffffffffffffffffffffffffffffffff1614611c87576040517f08c379a000000000000000000000000000000000000000000000000000000000815260206004820152601460248201527f494e56414c49445f4f55545055545f544f4b454e00000000000000000000000060448201526064016106b9565b6000611cb37f000000000000000000000000000000000000000000000000000000000000000083612c58565b9050611cdd611cc282846136a6565b611ccc858c6136a6565b611cd6858c6136a6565b60006122d6565b611ce79084613616565b9250611d157f0000000000000000000000000000000000000000000000000000000000000000848d8d612638565b611d3f7f000000000000000000000000000000000000000000000000000000000000000083612bd8565b611d4990876136a6565b9550829c5060009150505b611d5c612997565b604080518381526020810183905273ffffffffffffffffffffffffffffffffffffffff8c169133917fdccd412f0b1252819cb1fd330b93224ca42612892bb3f4f789976e6d819364969101611723565b42841015611e16576040517f08c379a000000000000000000000000000000000000000000000000000000000815260206004820152601760248201527f5045524d49545f444541444c494e455f4558504952454400000000000000000060448201526064016106b9565b73ffffffffffffffffffffffffffffffffffffffff878116600081815260036020908152604080832080546001810190915581517f6e71edae12b1b97f4d1f60370fef10105fa2faae0126114a169c64845d6126c98185015280830195909552948b166060850152608084018a905260a084019490945260c08084018990528451808503909101815260e0840190945283519301929092207f19010000000000000000000000000000000000000000000000000000000000006101008301527f000000000000000000000000000000000000000000000000000000000000000061010283015261012282015261014201604080517fffffffffffffffffffffffffffffffffffffffffffffffffffffffffffffffe08184030181528282528051602091820120600080855291840180845281905260ff88169284019290925260608301869052608083018590529092509060019060a0016020604051602081039080840390855afa158015611f8f573d6000803e3d6000fd5b50506040517fffffffffffffffffffffffffffffffffffffffffffffffffffffffffffffffe0015191505073ffffffffffffffffffffffffffffffffffffffff81161580159061200a57508873ffffffffffffffffffffffffffffffffffffffff168173ffffffffffffffffffffffffffffffffffffffff16145b612070576040517f08c379a000000000000000000000000000000000000000000000000000000000815260206004820152601860248201527f494e56414c49445f5045524d49545f5349474e4154555245000000000000000060448201526064016106b9565b73ffffffffffffffffffffffffffffffffffffffff90811660009081526002602090815260408083208b8516808552908352928190208a905551898152919350918a16917f8c5be1e5ebec7d5bd14f71427d1e84f3dd0314c0f7b2291e5b200ac8c7c3b925910160405180910390a350505050505050565b6005546fffffffffffffffffffffffffffffffff8082169170010000000000000000000000000000000090041661213f7f000000000000000000000000000000000000000000000000000000000000000083612171565b915061216b7f000000000000000000000000000000000000000000000000000000000000000082612171565b90509091565b60405173ffffffffffffffffffffffffffffffffffffffff8381166024830152604482018390526000606483018190529182917f000000000000000000000000000000000000000000000000000000000000000016907f5662311800000000000000000000000000000000000000000000000000000000906084015b604080517fffffffffffffffffffffffffffffffffffffffffffffffffffffffffffffffe08184030181529181526020820180517bffffffffffffffffffffffffffffffffffffffffffffffffffffffff167fffffffff000000000000000000000000000000000000000000000000000000009094169390931790925290516122769190613528565b600060405180830381855afa9150503d80600081146122b1576040519150601f19603f3d011682016040523d82523d6000602084013e6122b6565b606091505b50915050808060200190518101906122ce91906134c5565b949350505050565b6000806000831561236a5761230b7f000000000000000000000000000000000000000000000000000000000000000087613669565b91506123377f000000000000000000000000000000000000000000000000000000000000000086613669565b90506123637f000000000000000000000000000000000000000000000000000000000000000088613669565b96506123ef565b6123947f000000000000000000000000000000000000000000000000000000000000000086613669565b91506123c07f000000000000000000000000000000000000000000000000000000000000000087613669565b90506123ec7f000000000000000000000000000000000000000000000000000000000000000088613669565b96505b60006123fb8383612ec9565b905060006124098985613616565b90506000612417828461301c565b9050600161242582866136a6565b61242f91906136a6565b95508661245c577f000000000000000000000000000000000000000000000000000000000000000061247e565b7f00000000000000000000000000000000000000000000000000000000000000005b612488908761362e565b9a9950505050505050505050565b6124a285848684612638565b815115612518576040517fbd50c7b1000000000000000000000000000000000000000000000000000000008152339063bd50c7b1906124e5908590600401613603565b600060405180830381600087803b1580156124ff57600080fd5b505af1158015612513573d6000803e3d6000fd5b505050505b5050505050565b6040805173ffffffffffffffffffffffffffffffffffffffff83811660248301523060448084019190915283518084039091018152606490920183526020820180517bffffffffffffffffffffffffffffffffffffffffffffffffffffffff167ff7888aec00000000000000000000000000000000000000000000000000000000179052915160009283927f0000000000000000000000000000000000000000000000000000000000000000909116916125d99190613528565b600060405180830381855afa9150503d8060008114612614576040519150601f19603f3d011682016040523d82523d6000602084013e612619565b606091505b509150508080602001905181019061263191906134c5565b9392505050565b80156127ba576040805173ffffffffffffffffffffffffffffffffffffffff8681166024830152306044830152848116606483015260848201869052600060a48084018290528451808503909101815260c490930184526020830180517bffffffffffffffffffffffffffffffffffffffffffffffffffffffff167f97da6d300000000000000000000000000000000000000000000000000000000017905292517f00000000000000000000000000000000000000000000000000000000000000009091169161270791613528565b6000604051808303816000865af19150503d8060008114612744576040519150601f19603f3d011682016040523d82523d6000602084013e612749565b606091505b50509050806127b4576040517f08c379a000000000000000000000000000000000000000000000000000000000815260206004820152600f60248201527f57495448445241575f4641494c4544000000000000000000000000000000000060448201526064016106b9565b50612991565b600073ffffffffffffffffffffffffffffffffffffffff7f0000000000000000000000000000000000000000000000000000000000000000167ff18d03cc00000000000000000000000000000000000000000000000000000000863086612821838a612bd8565b60405173ffffffffffffffffffffffffffffffffffffffff9485166024820152928416604484015292166064820152608481019190915260a401604080517fffffffffffffffffffffffffffffffffffffffffffffffffffffffffffffffe08184030181529181526020820180517bffffffffffffffffffffffffffffffffffffffffffffffffffffffff167fffffffff000000000000000000000000000000000000000000000000000000009094169390931790925290516128e49190613528565b6000604051808303816000865af19150503d8060008114612921576040519150601f19603f3d011682016040523d82523d6000602084013e612926565b606091505b5050905080612518576040517f08c379a000000000000000000000000000000000000000000000000000000000815260206004820152600f60248201527f5452414e534645525f4641494c4544000000000000000000000000000000000060448201526064016106b9565b50505050565b6000806129a2612aa6565b90925090506fffffffffffffffffffffffffffffffff821080156129d557506fffffffffffffffffffffffffffffffff81105b612a3b576040517f08c379a000000000000000000000000000000000000000000000000000000000815260206004820152600860248201527f4f564552464c4f5700000000000000000000000000000000000000000000000060448201526064016106b9565b6fffffffffffffffffffffffffffffffff818116700100000000000000000000000000000000029083161760055560408051838152602081018390527fcf2aa50876cdfbb541206f89af0ee78d44a2abf8d328e37fa4917f982149848a910160405180910390a15050565b600080612af67f00000000000000000000000000000000000000000000000000000000000000006108657f000000000000000000000000000000000000000000000000000000000000000061251f565b915061216b7f00000000000000000000000000000000000000000000000000000000000000006108657f000000000000000000000000000000000000000000000000000000000000000061251f565b73ffffffffffffffffffffffffffffffffffffffff821660009081526001602052604081208054839290612b7a9084906136a6565b909155505060008054829003815560405182815273ffffffffffffffffffffffffffffffffffffffff8416907fddf252ad1be2c89b69c2b068fc378daa952ba7f163c4a11628f55a4df523b3ef906020015b60405180910390a35050565b60405173ffffffffffffffffffffffffffffffffffffffff8381166024830152604482018390526000606483018190529182917f000000000000000000000000000000000000000000000000000000000000000016907fda5139ca00000000000000000000000000000000000000000000000000000000906084016121ed565b6000612710612c877f000000000000000000000000000000000000000000000000000000000000000084613669565b612c91919061362e565b9050600061271060045483612ca69190613669565b612cb0919061362e565b9050612cdf84827f00000000000000000000000000000000000000000000000000000000000000006000612638565b5092915050565b600080831580612cf4575082155b15612d0457506000905080612de0565b600084612d118589613669565b612d1b919061362e565b9050858111612d7657612d316127106002613669565b612d3b82886136a6565b612d65907f0000000000000000000000000000000000000000000000000000000000000000613669565b612d6f919061362e565b9150612dde565b600084612d838789613669565b612d8d919061362e565b9050612d9c6127106002613669565b612da6828a6136a6565b612dd0907f0000000000000000000000000000000000000000000000000000000000000000613669565b612dda919061362e565b9350505b505b94509492505050565b600080612e167f000000000000000000000000000000000000000000000000000000000000000085613669565b90506000612e447f000000000000000000000000000000000000000000000000000000000000000085613669565b9050612e508282612ec9565b95945050505050565b80600080828254612e6a9190613616565b909155505073ffffffffffffffffffffffffffffffffffffffff82166000818152600160209081526040808320805486019055518481527fddf252ad1be2c89b69c2b068fc378daa952ba7f163c4a11628f55a4df523b3ef9101612bcc565b600080612ed68385613616565b905080612ee257600091505b600081815b610100811015613012576000600487848a612f028280613669565b612f0c919061362e565b612f169190613669565b612f20919061362e565b612f2a919061362e565b9050829350806003612f3c9190613669565b836001612f6a60647f000000000000000000000000000000000000000000000000000000000000000061362e565b612f7491906136a6565b612f7e9190613669565b612f889190613616565b83612f94836002613669565b6064612fc0897f0000000000000000000000000000000000000000000000000000000000000000613669565b612fca919061362e565b612fd49190613616565b612fde9190613669565b612fe8919061362e565b9250612ff4838561314e565b15612fff5750613012565b508061300a816136e4565b915050612ee7565b5095945050505050565b60008061302a846002613669565b6130348480613669565b61303e919061362e565b9050606461306d7f00000000000000000000000000000000000000000000000000000000000000006002613669565b613077919061362e565b6130818483613669565b61308b919061362e565b905060007f00000000000000000000000000000000000000000000000000000000000000006130bb606486613669565b6130c5919061362e565b6130cf9086613616565b9050600084935060005b6101008110156119275784915085836130f3846002613669565b6130fd9190613616565b61310791906136a6565b846131128780613669565b61311c9190613616565b613126919061362e565b9450613132858361314e565b1561313c57611927565b80613146816136e4565b9150506130d9565b6000600161315c8484613165565b11159392505050565b60008183111561317457508082035b500390565b8035801515811461318957600080fd5b919050565b6000602082840312156131a057600080fd5b8135612631816137aa565b6000806000606084860312156131c057600080fd5b83356131cb816137aa565b925060208401356131db816137aa565b91506131e960408501613179565b90509250925092565b600080600080600060a0868803121561320a57600080fd5b8535613215816137aa565b94506020860135613225816137aa565b935061323360408701613179565b925060608601359150608086013567ffffffffffffffff8082111561325757600080fd5b818801915088601f83011261326b57600080fd5b81358181111561327d5761327d61377b565b604051601f82017fffffffffffffffffffffffffffffffffffffffffffffffffffffffffffffffe0908116603f011681019083821181831017156132c3576132c361377b565b816040528281528b60208487010111156132dc57600080fd5b8260208601602083013760006020848301015280955050505050509295509295909350565b6000806040838503121561331457600080fd5b823561331f816137aa565b915061332d60208401613179565b90509250929050565b6000806040838503121561334957600080fd5b8235613354816137aa565b946020939093013593505050565b6000806040838503121561337557600080fd5b8235613380816137aa565b91506020830135613390816137aa565b809150509250929050565b6000806000606084860312156133b057600080fd5b83356133bb816137aa565b925060208401356133cb816137aa565b929592945050506040919091013590565b600080600080600080600060e0888a0312156133f757600080fd5b8735613402816137aa565b96506020880135613412816137aa565b95506040880135945060608801359350608088013560ff8116811461343657600080fd5b9699959850939692959460a0840135945060c09093013592915050565b6000806020838503121561346657600080fd5b823567ffffffffffffffff8082111561347e57600080fd5b818501915085601f83011261349257600080fd5b8135818111156134a157600080fd5b8660208285010111156134b357600080fd5b60209290920196919550909350505050565b6000602082840312156134d757600080fd5b5051919050565b600081518084526134f68160208601602086016136b8565b601f017fffffffffffffffffffffffffffffffffffffffffffffffffffffffffffffffe0169290920160200192915050565b6000825161353a8184602087016136b8565b9190910192915050565b6020808252825182820181905260009190848201906040850190845b8181101561359257835173ffffffffffffffffffffffffffffffffffffffff1683529284019291840191600101613560565b50909695505050505050565b602080825282518282018190526000919060409081850190868401855b828110156135f6578151805173ffffffffffffffffffffffffffffffffffffffff1685528601518685015292840192908501906001016135bb565b5091979650505050505050565b60208152600061263160208301846134de565b600082198211156136295761362961371d565b500190565b600082613664577f4e487b7100000000000000000000000000000000000000000000000000000000600052601260045260246000fd5b500490565b6000817fffffffffffffffffffffffffffffffffffffffffffffffffffffffffffffffff04831182151516156136a1576136a161371d565b500290565b6000828210156131745761317461371d565b60005b838110156136d35781810151838201526020016136bb565b838111156129915750506000910152565b60007fffffffffffffffffffffffffffffffffffffffffffffffffffffffffffffffff8214156137165761371661371d565b5060010190565b7f4e487b7100000000000000000000000000000000000000000000000000000000600052601160045260246000fd5b7f4e487b7100000000000000000000000000000000000000000000000000000000600052603260045260246000fd5b7f4e487b7100000000000000000000000000000000000000000000000000000000600052604160045260246000fd5b73ffffffffffffffffffffffffffffffffffffffff811681146137cc57600080fd5b5056fea264697066735822122014aac58d7a1a2202ac8ae9fd971b06d8aa2818d3830b43ff8e7f39961fcc068864736f6c63430008070033a264697066735822122089a5c6d50141d0ea81c60a0e37d9e78d53bce38a7e082712da63be8dd02c4ad464736f6c63430008070033",
  "devdoc": {
    "author": "Mudit Gupta.",
    "kind": "dev",
    "methods": {},
    "version": 1
  },
  "userdoc": {
    "kind": "user",
    "methods": {},
    "notice": "Contract for deploying Trident exchange Hybrid Pool with configurations.",
    "version": 1
  },
  "storageLayout": {
    "storage": [
      {
        "astId": 7994,
        "contract": "contracts/pool/HybridPoolFactory.sol:HybridPoolFactory",
        "label": "pools",
        "offset": 0,
        "slot": "0",
        "type": "t_mapping(t_address,t_mapping(t_address,t_array(t_address)dyn_storage))"
      },
      {
        "astId": 7998,
        "contract": "contracts/pool/HybridPoolFactory.sol:HybridPoolFactory",
        "label": "configAddress",
        "offset": 0,
        "slot": "1",
        "type": "t_mapping(t_bytes32,t_address)"
      }
    ],
    "types": {
      "t_address": {
        "encoding": "inplace",
        "label": "address",
        "numberOfBytes": "20"
      },
      "t_array(t_address)dyn_storage": {
        "base": "t_address",
        "encoding": "dynamic_array",
        "label": "address[]",
        "numberOfBytes": "32"
      },
      "t_bytes32": {
        "encoding": "inplace",
        "label": "bytes32",
        "numberOfBytes": "32"
      },
      "t_mapping(t_address,t_array(t_address)dyn_storage)": {
        "encoding": "mapping",
        "key": "t_address",
        "label": "mapping(address => address[])",
        "numberOfBytes": "32",
        "value": "t_array(t_address)dyn_storage"
      },
      "t_mapping(t_address,t_mapping(t_address,t_array(t_address)dyn_storage))": {
        "encoding": "mapping",
        "key": "t_address",
        "label": "mapping(address => mapping(address => address[]))",
        "numberOfBytes": "32",
        "value": "t_mapping(t_address,t_array(t_address)dyn_storage)"
      },
      "t_mapping(t_bytes32,t_address)": {
        "encoding": "mapping",
        "key": "t_bytes32",
        "label": "mapping(bytes32 => address)",
        "numberOfBytes": "32",
        "value": "t_address"
      }
    }
  }
}