{
  "address": "0x86c82420820aE90954F102a6808Ec3C6679600C0",
  "abi": [
    {
      "inputs": [
        {
          "internalType": "uint256",
          "name": "_barFee",
          "type": "uint256"
        },
        {
          "internalType": "address",
          "name": "_barFeeTo",
          "type": "address"
        },
        {
          "internalType": "address",
          "name": "_bento",
          "type": "address"
        }
      ],
      "stateMutability": "nonpayable",
      "type": "constructor"
    },
    {
      "anonymous": false,
      "inputs": [
        {
          "indexed": true,
          "internalType": "address",
          "name": "_factory",
          "type": "address"
        },
        {
          "indexed": true,
          "internalType": "address",
          "name": "pool",
          "type": "address"
        }
      ],
      "name": "DeployPool",
      "type": "event"
    },
    {
      "anonymous": false,
      "inputs": [
        {
          "indexed": true,
          "internalType": "address",
          "name": "sender",
          "type": "address"
        },
        {
          "indexed": true,
          "internalType": "address",
          "name": "recipient",
          "type": "address"
        }
      ],
      "name": "TransferOwner",
      "type": "event"
    },
    {
      "anonymous": false,
      "inputs": [
        {
          "indexed": true,
          "internalType": "address",
          "name": "sender",
          "type": "address"
        },
        {
          "indexed": true,
          "internalType": "address",
          "name": "recipient",
          "type": "address"
        }
      ],
      "name": "TransferOwnerClaim",
      "type": "event"
    },
    {
      "inputs": [
        {
          "internalType": "address",
          "name": "_factory",
          "type": "address"
        }
      ],
      "name": "addToWhitelist",
      "outputs": [],
      "stateMutability": "nonpayable",
      "type": "function"
    },
    {
      "inputs": [],
      "name": "barFee",
      "outputs": [
        {
          "internalType": "uint256",
          "name": "",
          "type": "uint256"
        }
      ],
      "stateMutability": "view",
      "type": "function"
    },
    {
      "inputs": [],
      "name": "barFeeTo",
      "outputs": [
        {
          "internalType": "address",
          "name": "",
          "type": "address"
        }
      ],
      "stateMutability": "view",
      "type": "function"
    },
    {
      "inputs": [],
      "name": "bento",
      "outputs": [
        {
          "internalType": "address",
          "name": "",
          "type": "address"
        }
      ],
      "stateMutability": "view",
      "type": "function"
    },
    {
      "inputs": [],
      "name": "claimOwner",
      "outputs": [],
      "stateMutability": "nonpayable",
      "type": "function"
    },
    {
      "inputs": [
        {
          "internalType": "address",
          "name": "_factory",
          "type": "address"
        },
        {
          "internalType": "bytes",
          "name": "_deployData",
          "type": "bytes"
        }
      ],
      "name": "deployPool",
      "outputs": [
        {
          "internalType": "address",
          "name": "pool",
          "type": "address"
        }
      ],
      "stateMutability": "nonpayable",
      "type": "function"
    },
    {
      "inputs": [],
      "name": "migrator",
      "outputs": [
        {
          "internalType": "address",
          "name": "",
          "type": "address"
        }
      ],
      "stateMutability": "view",
      "type": "function"
    },
    {
      "inputs": [],
      "name": "owner",
      "outputs": [
        {
          "internalType": "address",
          "name": "",
          "type": "address"
        }
      ],
      "stateMutability": "view",
      "type": "function"
    },
    {
      "inputs": [],
      "name": "pendingOwner",
      "outputs": [
        {
          "internalType": "address",
          "name": "",
          "type": "address"
        }
      ],
      "stateMutability": "view",
      "type": "function"
    },
    {
      "inputs": [
        {
          "internalType": "uint256",
          "name": "",
          "type": "uint256"
        }
      ],
      "name": "pools",
      "outputs": [
        {
          "internalType": "address",
          "name": "",
          "type": "address"
        }
      ],
      "stateMutability": "view",
      "type": "function"
    },
    {
      "inputs": [],
      "name": "poolsCount",
      "outputs": [
        {
          "internalType": "uint256",
          "name": "count",
          "type": "uint256"
        }
      ],
      "stateMutability": "view",
      "type": "function"
    },
    {
      "inputs": [
        {
          "internalType": "address",
          "name": "_factory",
          "type": "address"
        }
      ],
      "name": "removeFromWhitelist",
      "outputs": [],
      "stateMutability": "nonpayable",
      "type": "function"
    },
    {
      "inputs": [
        {
          "internalType": "uint256",
          "name": "_barFee",
          "type": "uint256"
        }
      ],
      "name": "setBarFee",
      "outputs": [],
      "stateMutability": "nonpayable",
      "type": "function"
    },
    {
      "inputs": [
        {
          "internalType": "address",
          "name": "_migrator",
          "type": "address"
        }
      ],
      "name": "setMigrator",
      "outputs": [],
      "stateMutability": "nonpayable",
      "type": "function"
    },
    {
      "inputs": [
        {
          "internalType": "address",
          "name": "recipient",
          "type": "address"
        },
        {
          "internalType": "bool",
          "name": "direct",
          "type": "bool"
        }
      ],
      "name": "transferOwner",
      "outputs": [],
      "stateMutability": "nonpayable",
      "type": "function"
    },
    {
      "inputs": [
        {
          "internalType": "address",
          "name": "",
          "type": "address"
        }
      ],
      "name": "whitelistedFactories",
      "outputs": [
        {
          "internalType": "bool",
          "name": "",
          "type": "bool"
        }
      ],
      "stateMutability": "view",
      "type": "function"
    }
  ],
  "transactionHash": "0x49474063fdee1eba874f6868132500180fa0a57ef9a8177cab2bcc2a88373687",
  "args": [
    17,
    "0x58B4B6951e9174F153635574076241315D7d3503",
    "0x9A0D9920D92c178a58D99B455898Df2df22A2eE4"
  ],
  "solcInputHash": "7ad286c40d4c1de67eef9462b8e78838",
  "bytecode": "0x60c060405234801561001057600080fd5b50604051610e40380380610e4083398101604081905261002f91610182565b600080546001600160a01b0319163390811782556040519091907f5bb496b3f951b55d3a1d8e479725a4d25bdc7644fc355f0b71c540354820a1c5908290a36127108311156100b75760405162461bcd60e51b815260206004820152600f60248201526e494e56414c49445f4241525f46454560881b60448201526064015b60405180910390fd5b6001600160a01b0382166100fc5760405162461bcd60e51b815260206004820152600c60248201526b5a45524f5f4144445245535360a01b60448201526064016100ae565b6001600160a01b0381166101415760405162461bcd60e51b815260206004820152600c60248201526b5a45524f5f4144445245535360a01b60448201526064016100ae565b6002929092556001600160601b0319606091821b811660805291901b1660a0526101be565b80516001600160a01b038116811461017d57600080fd5b919050565b60008060006060848603121561019757600080fd5b835192506101a760208501610166565b91506101b560408501610166565b90509250925092565b60805160601c60a05160601c610c576101e9600039600061019e0152600061011f0152610c576000f3fe608060405234801561001057600080fd5b50600436106101005760003560e01c80638ab1d68111610097578063c14ad80211610066578063c14ad8021461026b578063cf81afaa14610274578063e30c397814610287578063e43252d7146102a757600080fd5b80638ab1d681146102135780638c788de0146102265780638da5cb5b14610238578063ac4afa381461025857600080fd5b80633bd1adec116100d35780633bd1adec146101915780634da31827146101995780636f50f2f4146101c05780637cd07e47146101f357600080fd5b806306e22d12146101055780630c0a0cd21461011a57806323cf31181461016b578063250558dc1461017e575b600080fd5b610118610113366004610b96565b6102ba565b005b6101417f000000000000000000000000000000000000000000000000000000000000000081565b60405173ffffffffffffffffffffffffffffffffffffffff90911681526020015b60405180910390f35b610118610179366004610a92565b6103b1565b61014161018c366004610b11565b610479565b610118610656565b6101417f000000000000000000000000000000000000000000000000000000000000000081565b6101e36101ce366004610a92565b60056020526000908152604090205460ff1681565b6040519015158152602001610162565b6003546101419073ffffffffffffffffffffffffffffffffffffffff1681565b610118610221366004610a92565b610754565b6004545b604051908152602001610162565b6000546101419073ffffffffffffffffffffffffffffffffffffffff1681565b610141610266366004610b96565b610821565b61022a60025481565b610118610282366004610ad3565b610858565b6001546101419073ffffffffffffffffffffffffffffffffffffffff1681565b6101186102b5366004610a92565b6109c2565b60005473ffffffffffffffffffffffffffffffffffffffff163314610340576040517f08c379a000000000000000000000000000000000000000000000000000000000815260206004820152600960248201527f4e4f545f4f574e4552000000000000000000000000000000000000000000000060448201526064015b60405180910390fd5b6127108111156103ac576040517f08c379a000000000000000000000000000000000000000000000000000000000815260206004820152600f60248201527f494e56414c49445f4241525f46454500000000000000000000000000000000006044820152606401610337565b600255565b60005473ffffffffffffffffffffffffffffffffffffffff163314610432576040517f08c379a000000000000000000000000000000000000000000000000000000000815260206004820152600960248201527f4e4f545f4f574e455200000000000000000000000000000000000000000000006044820152606401610337565b600380547fffffffffffffffffffffffff00000000000000000000000000000000000000001673ffffffffffffffffffffffffffffffffffffffff92909216919091179055565b73ffffffffffffffffffffffffffffffffffffffff831660009081526005602052604081205460ff16610508576040517f08c379a000000000000000000000000000000000000000000000000000000000815260206004820152601760248201527f464143544f52595f4e4f545f57484954454c49535445440000000000000000006044820152606401610337565b6040517f27c3cae100000000000000000000000000000000000000000000000000000000815273ffffffffffffffffffffffffffffffffffffffff8516906327c3cae19061055c9086908690600401610baf565b602060405180830381600087803b15801561057657600080fd5b505af115801561058a573d6000803e3d6000fd5b505050506040513d601f19601f820116820180604052508101906105ae9190610ab6565b6004805460018101825560009182527f8a35acfbc15ff81a39ae7d344fd709f28e8600b4aa8c65c6b64bfe7fe36bd19b0180547fffffffffffffffffffffffff00000000000000000000000000000000000000001673ffffffffffffffffffffffffffffffffffffffff84811691821790925560405193945092908716917f09310de353e26995666d463e09a3b190f1dc6e3b64426870ee889ade2cf99d6291a39392505050565b60015473ffffffffffffffffffffffffffffffffffffffff1633146106d7576040517f08c379a000000000000000000000000000000000000000000000000000000000815260206004820152601160248201527f4e4f545f50454e44494e475f4f574e45520000000000000000000000000000006044820152606401610337565b60008054604051339273ffffffffffffffffffffffffffffffffffffffff909216917f5bb496b3f951b55d3a1d8e479725a4d25bdc7644fc355f0b71c540354820a1c591a3600080547fffffffffffffffffffffffff00000000000000000000000000000000000000009081163317909155600180549091169055565b60005473ffffffffffffffffffffffffffffffffffffffff1633146107d5576040517f08c379a000000000000000000000000000000000000000000000000000000000815260206004820152600960248201527f4e4f545f4f574e455200000000000000000000000000000000000000000000006044820152606401610337565b73ffffffffffffffffffffffffffffffffffffffff16600090815260056020526040902080547fffffffffffffffffffffffffffffffffffffffffffffffffffffffffffffff00169055565b6004818154811061083157600080fd5b60009182526020909120015473ffffffffffffffffffffffffffffffffffffffff16905081565b60005473ffffffffffffffffffffffffffffffffffffffff1633146108d9576040517f08c379a000000000000000000000000000000000000000000000000000000000815260206004820152600960248201527f4e4f545f4f574e455200000000000000000000000000000000000000000000006044820152606401610337565b801561095057600080547fffffffffffffffffffffffff00000000000000000000000000000000000000001673ffffffffffffffffffffffffffffffffffffffff84169081178255604051909133917f5bb496b3f951b55d3a1d8e479725a4d25bdc7644fc355f0b71c540354820a1c59190a35050565b600180547fffffffffffffffffffffffff00000000000000000000000000000000000000001673ffffffffffffffffffffffffffffffffffffffff841690811790915560405133907f87f5c8846f4c51400fa448cfb84edcec5cc0f333b6d20a5b903e050823dcb66790600090a35050565b60005473ffffffffffffffffffffffffffffffffffffffff163314610a43576040517f08c379a000000000000000000000000000000000000000000000000000000000815260206004820152600960248201527f4e4f545f4f574e455200000000000000000000000000000000000000000000006044820152606401610337565b73ffffffffffffffffffffffffffffffffffffffff16600090815260056020526040902080547fffffffffffffffffffffffffffffffffffffffffffffffffffffffffffffff00166001179055565b600060208284031215610aa457600080fd5b8135610aaf81610bfc565b9392505050565b600060208284031215610ac857600080fd5b8151610aaf81610bfc565b60008060408385031215610ae657600080fd5b8235610af181610bfc565b915060208301358015158114610b0657600080fd5b809150509250929050565b600080600060408486031215610b2657600080fd5b8335610b3181610bfc565b9250602084013567ffffffffffffffff80821115610b4e57600080fd5b818601915086601f830112610b6257600080fd5b813581811115610b7157600080fd5b876020828501011115610b8357600080fd5b6020830194508093505050509250925092565b600060208284031215610ba857600080fd5b5035919050565b60208152816020820152818360408301376000818301604090810191909152601f9092017fffffffffffffffffffffffffffffffffffffffffffffffffffffffffffffffe0160101919050565b73ffffffffffffffffffffffffffffffffffffffff81168114610c1e57600080fd5b5056fea2646970667358221220799ca887f3371138fcc50c9d500e67a512aa42ed935eb8d3e3b4db57ec8b2e8864736f6c63430008070033",
  "devdoc": {
    "author": "Mudit Gupta.",
    "kind": "dev",
    "methods": {
      "transferOwner(address,bool)": {
        "params": {
          "direct": "If 'true', ownership is directly transferred.",
          "recipient": "Account granted `owner` access control."
        }
      }
    },
    "version": 1
  },
  "userdoc": {
    "kind": "user",
    "methods": {
      "claimOwner()": {
        "notice": "`pendingOwner` can claim `owner` account."
      },
      "transferOwner(address,bool)": {
        "notice": "Transfer `owner` account."
      }
    },
    "notice": "Trident pool deployer contract with template factory whitelist.",
    "version": 1
  },
  "storageLayout": {
    "storage": [
      {
        "astId": 8792,
        "contract": "contracts/deployer/MasterDeployer.sol:MasterDeployer",
        "label": "owner",
        "offset": 0,
        "slot": "0",
        "type": "t_address"
      },
      {
        "astId": 8794,
        "contract": "contracts/deployer/MasterDeployer.sol:MasterDeployer",
        "label": "pendingOwner",
        "offset": 0,
        "slot": "1",
        "type": "t_address"
      },
      {
        "astId": 1230,
        "contract": "contracts/deployer/MasterDeployer.sol:MasterDeployer",
        "label": "barFee",
        "offset": 0,
        "slot": "2",
        "type": "t_uint256"
      },
      {
        "astId": 1232,
        "contract": "contracts/deployer/MasterDeployer.sol:MasterDeployer",
        "label": "migrator",
        "offset": 0,
        "slot": "3",
        "type": "t_address"
      },
      {
        "astId": 1242,
        "contract": "contracts/deployer/MasterDeployer.sol:MasterDeployer",
        "label": "pools",
        "offset": 0,
        "slot": "4",
        "type": "t_array(t_address)dyn_storage"
      },
      {
        "astId": 1246,
        "contract": "contracts/deployer/MasterDeployer.sol:MasterDeployer",
        "label": "whitelistedFactories",
        "offset": 0,
        "slot": "5",
        "type": "t_mapping(t_address,t_bool)"
      }
    ],
    "types": {
      "t_address": {
        "encoding": "inplace",
        "label": "address",
        "numberOfBytes": "20"
      },
      "t_array(t_address)dyn_storage": {
        "base": "t_address",
        "encoding": "dynamic_array",
        "label": "address[]",
        "numberOfBytes": "32"
      },
      "t_bool": {
        "encoding": "inplace",
        "label": "bool",
        "numberOfBytes": "1"
      },
      "t_mapping(t_address,t_bool)": {
        "encoding": "mapping",
        "key": "t_address",
        "label": "mapping(address => bool)",
        "numberOfBytes": "32",
        "value": "t_bool"
      },
      "t_uint256": {
        "encoding": "inplace",
        "label": "uint256",
        "numberOfBytes": "32"
      }
    }
  }
}