{
  "address": "0x92A51131bad57465D1c29722CD809BAAE3ce0030",
  "abi": [
    {
      "inputs": [
        {
          "internalType": "uint256",
          "name": "_barFee",
          "type": "uint256"
        },
        {
          "internalType": "address",
          "name": "_barFeeTo",
          "type": "address"
        },
        {
          "internalType": "address",
          "name": "_bento",
          "type": "address"
        }
      ],
      "stateMutability": "nonpayable",
      "type": "constructor"
    },
    {
      "anonymous": false,
      "inputs": [
        {
          "indexed": true,
          "internalType": "address",
          "name": "factory",
          "type": "address"
        }
      ],
      "name": "AddToWhitelist",
      "type": "event"
    },
    {
      "anonymous": false,
      "inputs": [
        {
          "indexed": true,
          "internalType": "uint256",
          "name": "barFee",
          "type": "uint256"
        }
      ],
      "name": "BarFeeUpdated",
      "type": "event"
    },
    {
      "anonymous": false,
      "inputs": [
        {
          "indexed": true,
          "internalType": "address",
          "name": "factory",
          "type": "address"
        },
        {
          "indexed": true,
          "internalType": "address",
          "name": "pool",
          "type": "address"
        },
        {
          "indexed": false,
          "internalType": "bytes",
          "name": "deployData",
          "type": "bytes"
        }
      ],
      "name": "DeployPool",
      "type": "event"
    },
    {
      "anonymous": false,
      "inputs": [
        {
          "indexed": true,
          "internalType": "address",
          "name": "previousOwner",
          "type": "address"
        },
        {
          "indexed": true,
          "internalType": "address",
          "name": "newOwner",
          "type": "address"
        }
      ],
      "name": "OwnershipTransferred",
      "type": "event"
    },
    {
      "anonymous": false,
      "inputs": [
        {
          "indexed": true,
          "internalType": "address",
          "name": "factory",
          "type": "address"
        }
      ],
      "name": "RemoveFromWhitelist",
      "type": "event"
    },
    {
      "inputs": [
        {
          "internalType": "address",
          "name": "_factory",
          "type": "address"
        }
      ],
      "name": "addToWhitelist",
      "outputs": [],
      "stateMutability": "nonpayable",
      "type": "function"
    },
    {
      "inputs": [],
      "name": "barFee",
      "outputs": [
        {
          "internalType": "uint256",
          "name": "",
          "type": "uint256"
        }
      ],
      "stateMutability": "view",
      "type": "function"
    },
    {
      "inputs": [],
      "name": "barFeeTo",
      "outputs": [
        {
          "internalType": "address",
          "name": "",
          "type": "address"
        }
      ],
      "stateMutability": "view",
      "type": "function"
    },
    {
      "inputs": [],
      "name": "bento",
      "outputs": [
        {
          "internalType": "address",
          "name": "",
          "type": "address"
        }
      ],
      "stateMutability": "view",
      "type": "function"
    },
    {
      "inputs": [
        {
          "internalType": "address",
          "name": "_factory",
          "type": "address"
        },
        {
          "internalType": "bytes",
          "name": "_deployData",
          "type": "bytes"
        }
      ],
      "name": "deployPool",
      "outputs": [
        {
          "internalType": "address",
          "name": "pool",
          "type": "address"
        }
      ],
      "stateMutability": "nonpayable",
      "type": "function"
    },
    {
      "inputs": [],
      "name": "owner",
      "outputs": [
        {
          "internalType": "address",
          "name": "",
          "type": "address"
        }
      ],
      "stateMutability": "view",
      "type": "function"
    },
    {
      "inputs": [
        {
          "internalType": "address",
          "name": "",
          "type": "address"
        }
      ],
      "name": "pools",
      "outputs": [
        {
          "internalType": "bool",
          "name": "",
          "type": "bool"
        }
      ],
      "stateMutability": "view",
      "type": "function"
    },
    {
      "inputs": [
        {
          "internalType": "address",
          "name": "_factory",
          "type": "address"
        }
      ],
      "name": "removeFromWhitelist",
      "outputs": [],
      "stateMutability": "nonpayable",
      "type": "function"
    },
    {
      "inputs": [],
      "name": "renounceOwnership",
      "outputs": [],
      "stateMutability": "nonpayable",
      "type": "function"
    },
    {
      "inputs": [
        {
          "internalType": "uint256",
          "name": "_barFee",
          "type": "uint256"
        }
      ],
      "name": "setBarFee",
      "outputs": [],
      "stateMutability": "nonpayable",
      "type": "function"
    },
    {
      "inputs": [
        {
          "internalType": "address",
          "name": "newOwner",
          "type": "address"
        }
      ],
      "name": "transferOwnership",
      "outputs": [],
      "stateMutability": "nonpayable",
      "type": "function"
    },
    {
      "inputs": [
        {
          "internalType": "address",
          "name": "",
          "type": "address"
        }
      ],
      "name": "whitelistedFactories",
      "outputs": [
        {
          "internalType": "bool",
          "name": "",
          "type": "bool"
        }
      ],
      "stateMutability": "view",
      "type": "function"
    }
  ],
  "transactionHash": "0x55eb78cc1b62d0fe5f56a849313c11f109659fbceb32d0fd20d2ceaca35998cf",
  "args": [
    0,
    "0xD7C1A5A8b9aa6A9c77dbb56557D62cAAF63440da",
    "0xc381a85ed7C7448Da073b7d6C9d4cBf1Cbf576f0"
  ],
  "numDeployments": 1,
  "solcInputHash": "157d96c6c3cc41b6516c32d4c71fce5f",
  "bytecode": "0x60c060405234801561001057600080fd5b50604051610cbf380380610cbf83398101604081905261002f91610194565b61003833610128565b6127108311156100815760405162461bcd60e51b815260206004820152600f60248201526e494e56414c49445f4241525f46454560881b60448201526064015b60405180910390fd5b6001600160a01b0382166100c65760405162461bcd60e51b815260206004820152600c60248201526b5a45524f5f4144445245535360a01b6044820152606401610078565b6001600160a01b03811661010b5760405162461bcd60e51b815260206004820152600c60248201526b5a45524f5f4144445245535360a01b6044820152606401610078565b6001929092556001600160a01b039081166080521660a0526101d0565b600080546001600160a01b038381166001600160a01b0319831681178455604051919092169283917f8be0079c531659141344cd1fd0a4f28419497f9722a3daafe3b4186f6b6457e09190a35050565b80516001600160a01b038116811461018f57600080fd5b919050565b6000806000606084860312156101a957600080fd5b835192506101b960208501610178565b91506101c760408501610178565b90509250925092565b60805160a051610acb6101f460003960006101570152600060f30152610acb6000f3fe608060405234801561001057600080fd5b50600436106100d45760003560e01c80638ab1d68111610081578063c14ad8021161005b578063c14ad80214610208578063e43252d71461021f578063f2fde38b1461023257600080fd5b80638ab1d681146101b45780638da5cb5b146101c7578063a4063dbc146101e557600080fd5b80634da31827116100b25780634da31827146101525780636f50f2f414610179578063715018a6146101ac57600080fd5b806306e22d12146100d95780630c0a0cd2146100ee578063250558dc1461013f575b600080fd5b6100ec6100e7366004610947565b610245565b005b6101157f000000000000000000000000000000000000000000000000000000000000000081565b60405173ffffffffffffffffffffffffffffffffffffffff90911681526020015b60405180910390f35b61011561014d366004610982565b61036a565b6101157f000000000000000000000000000000000000000000000000000000000000000081565b61019c610187366004610a07565b60036020526000908152604090205460ff1681565b6040519015158152602001610136565b6100ec610528565b6100ec6101c2366004610a07565b6105b5565b60005473ffffffffffffffffffffffffffffffffffffffff16610115565b61019c6101f3366004610a07565b60026020526000908152604090205460ff1681565b61021160015481565b604051908152602001610136565b6100ec61022d366004610a07565b6106aa565b6100ec610240366004610a07565b6107a2565b60005473ffffffffffffffffffffffffffffffffffffffff1633146102cb576040517f08c379a000000000000000000000000000000000000000000000000000000000815260206004820181905260248201527f4f776e61626c653a2063616c6c6572206973206e6f7420746865206f776e657260448201526064015b60405180910390fd5b612710811115610337576040517f08c379a000000000000000000000000000000000000000000000000000000000815260206004820152600f60248201527f494e56414c49445f4241525f464545000000000000000000000000000000000060448201526064016102c2565b600181905560405181907f880a5214911723edb25bb08410581af1de2e40c52eda03920990c4bc27011fb690600090a250565b73ffffffffffffffffffffffffffffffffffffffff831660009081526003602052604081205460ff166103f9576040517f08c379a000000000000000000000000000000000000000000000000000000000815260206004820152601760248201527f464143544f52595f4e4f545f57484954454c495354454400000000000000000060448201526064016102c2565b6040517f27c3cae100000000000000000000000000000000000000000000000000000000815273ffffffffffffffffffffffffffffffffffffffff8516906327c3cae19061044d9086908690600401610a2b565b6020604051808303816000875af115801561046c573d6000803e3d6000fd5b505050506040513d601f19601f820116820180604052508101906104909190610a78565b73ffffffffffffffffffffffffffffffffffffffff8082166000818152600260205260409081902080547fffffffffffffffffffffffffffffffffffffffffffffffffffffffffffffff001660011790555192935091908616907fe469f9471ac1d98222517eb2cdff1ef4df5f7880269173bb782bb78e499d9de3906105199087908790610a2b565b60405180910390a39392505050565b60005473ffffffffffffffffffffffffffffffffffffffff1633146105a9576040517f08c379a000000000000000000000000000000000000000000000000000000000815260206004820181905260248201527f4f776e61626c653a2063616c6c6572206973206e6f7420746865206f776e657260448201526064016102c2565b6105b360006108d2565b565b60005473ffffffffffffffffffffffffffffffffffffffff163314610636576040517f08c379a000000000000000000000000000000000000000000000000000000000815260206004820181905260248201527f4f776e61626c653a2063616c6c6572206973206e6f7420746865206f776e657260448201526064016102c2565b73ffffffffffffffffffffffffffffffffffffffff811660008181526003602052604080822080547fffffffffffffffffffffffffffffffffffffffffffffffffffffffffffffff00169055517f1f756c8b089af6b33ee121fee8badac2553a2fa89c0575ea91ff8792617746c29190a250565b60005473ffffffffffffffffffffffffffffffffffffffff16331461072b576040517f08c379a000000000000000000000000000000000000000000000000000000000815260206004820181905260248201527f4f776e61626c653a2063616c6c6572206973206e6f7420746865206f776e657260448201526064016102c2565b73ffffffffffffffffffffffffffffffffffffffff811660008181526003602052604080822080547fffffffffffffffffffffffffffffffffffffffffffffffffffffffffffffff00166001179055517f75b2135d1c8c3519f3c09c43fe6527089ef09f40c7981ebf0ed46e79e79032c79190a250565b60005473ffffffffffffffffffffffffffffffffffffffff163314610823576040517f08c379a000000000000000000000000000000000000000000000000000000000815260206004820181905260248201527f4f776e61626c653a2063616c6c6572206973206e6f7420746865206f776e657260448201526064016102c2565b73ffffffffffffffffffffffffffffffffffffffff81166108c6576040517f08c379a000000000000000000000000000000000000000000000000000000000815260206004820152602660248201527f4f776e61626c653a206e6577206f776e657220697320746865207a65726f206160448201527f646472657373000000000000000000000000000000000000000000000000000060648201526084016102c2565b6108cf816108d2565b50565b6000805473ffffffffffffffffffffffffffffffffffffffff8381167fffffffffffffffffffffffff0000000000000000000000000000000000000000831681178455604051919092169283917f8be0079c531659141344cd1fd0a4f28419497f9722a3daafe3b4186f6b6457e09190a35050565b60006020828403121561095957600080fd5b5035919050565b73ffffffffffffffffffffffffffffffffffffffff811681146108cf57600080fd5b60008060006040848603121561099757600080fd5b83356109a281610960565b9250602084013567ffffffffffffffff808211156109bf57600080fd5b818601915086601f8301126109d357600080fd5b8135818111156109e257600080fd5b8760208285010111156109f457600080fd5b6020830194508093505050509250925092565b600060208284031215610a1957600080fd5b8135610a2481610960565b9392505050565b60208152816020820152818360408301376000818301604090810191909152601f9092017fffffffffffffffffffffffffffffffffffffffffffffffffffffffffffffffe0160101919050565b600060208284031215610a8a57600080fd5b8151610a248161096056fea2646970667358221220d3da077052699a53aba11c8865e17194ba7c4e011e1d964206b9c1cac1ff29e764736f6c634300080a0033",
  "devdoc": {
    "author": "Mudit Gupta.",
    "kind": "dev",
    "methods": {
      "owner()": {
        "details": "Returns the address of the current owner."
      },
      "renounceOwnership()": {
        "details": "Leaves the contract without owner. It will not be possible to call `onlyOwner` functions anymore. Can only be called by the current owner. NOTE: Renouncing ownership will leave the contract without an owner, thereby removing any functionality that is only available to the owner."
      },
      "transferOwnership(address)": {
        "details": "Transfers ownership of the contract to a new account (`newOwner`). Can only be called by the current owner."
      }
    },
    "version": 1
  },
  "userdoc": {
    "kind": "user",
    "methods": {},
    "notice": "Trident pool deployer contract with template factory whitelist.",
    "version": 1
  },
  "storageLayout": {
    "storage": [
      {
        "astId": 7,
        "contract": "contracts/deployer/MasterDeployer.sol:MasterDeployer",
        "label": "_owner",
        "offset": 0,
        "slot": "0",
        "type": "t_address"
      },
      {
        "astId": 5453,
        "contract": "contracts/deployer/MasterDeployer.sol:MasterDeployer",
        "label": "barFee",
        "offset": 0,
        "slot": "1",
        "type": "t_uint256"
      },
      {
        "astId": 5464,
        "contract": "contracts/deployer/MasterDeployer.sol:MasterDeployer",
        "label": "pools",
        "offset": 0,
        "slot": "2",
        "type": "t_mapping(t_address,t_bool)"
      },
      {
        "astId": 5468,
        "contract": "contracts/deployer/MasterDeployer.sol:MasterDeployer",
        "label": "whitelistedFactories",
        "offset": 0,
        "slot": "3",
        "type": "t_mapping(t_address,t_bool)"
      }
    ],
    "types": {
      "t_address": {
        "encoding": "inplace",
        "label": "address",
        "numberOfBytes": "20"
      },
      "t_bool": {
        "encoding": "inplace",
        "label": "bool",
        "numberOfBytes": "1"
      },
      "t_mapping(t_address,t_bool)": {
        "encoding": "mapping",
        "key": "t_address",
        "label": "mapping(address => bool)",
        "numberOfBytes": "32",
        "value": "t_bool"
      },
      "t_uint256": {
        "encoding": "inplace",
        "label": "uint256",
        "numberOfBytes": "32"
      }
    }
  }
}