{
  "address": "0x2508151286461F0b6d813e656d940DD51Fc70c6E",
  "abi": [
    {
      "inputs": [
        {
          "internalType": "contract IBentoBoxMinimal",
          "name": "_bento",
          "type": "address"
        },
        {
          "internalType": "contract IMasterDeployer",
          "name": "_masterDeployer",
          "type": "address"
        },
        {
          "internalType": "address",
          "name": "_wETH",
          "type": "address"
        }
      ],
      "stateMutability": "nonpayable",
      "type": "constructor"
    },
    {
      "inputs": [],
      "name": "IncorrectTokenWithdrawn",
      "type": "error"
    },
    {
      "inputs": [],
      "name": "InsufficientWETH",
      "type": "error"
    },
    {
      "inputs": [],
      "name": "InvalidPool",
      "type": "error"
    },
    {
      "inputs": [],
      "name": "NotEnoughLiquidityMinted",
      "type": "error"
    },
    {
      "inputs": [],
      "name": "NotWethSender",
      "type": "error"
    },
    {
      "inputs": [],
      "name": "TooLittleReceived",
      "type": "error"
    },
    {
      "inputs": [
        {
          "components": [
            {
              "internalType": "address",
              "name": "token",
              "type": "address"
            },
            {
              "internalType": "bool",
              "name": "native",
              "type": "bool"
            },
            {
              "internalType": "uint256",
              "name": "amount",
              "type": "uint256"
            }
          ],
          "internalType": "struct ITridentRouter.TokenInput[]",
          "name": "tokenInput",
          "type": "tuple[]"
        },
        {
          "internalType": "address",
          "name": "pool",
          "type": "address"
        },
        {
          "internalType": "uint256",
          "name": "minLiquidity",
          "type": "uint256"
        },
        {
          "internalType": "bytes",
          "name": "data",
          "type": "bytes"
        }
      ],
      "name": "addLiquidity",
      "outputs": [
        {
          "internalType": "uint256",
          "name": "liquidity",
          "type": "uint256"
        }
      ],
      "stateMutability": "payable",
      "type": "function"
    },
    {
      "inputs": [
        {
          "internalType": "uint8",
          "name": "v",
          "type": "uint8"
        },
        {
          "internalType": "bytes32",
          "name": "r",
          "type": "bytes32"
        },
        {
          "internalType": "bytes32",
          "name": "s",
          "type": "bytes32"
        }
      ],
      "name": "approveMasterContract",
      "outputs": [],
      "stateMutability": "payable",
      "type": "function"
    },
    {
      "inputs": [],
      "name": "bento",
      "outputs": [
        {
          "internalType": "contract IBentoBoxMinimal",
          "name": "",
          "type": "address"
        }
      ],
      "stateMutability": "view",
      "type": "function"
    },
    {
      "inputs": [
        {
          "internalType": "address",
          "name": "pool",
          "type": "address"
        },
        {
          "internalType": "uint256",
          "name": "liquidity",
          "type": "uint256"
        },
        {
          "internalType": "bytes",
          "name": "data",
          "type": "bytes"
        },
        {
          "components": [
            {
              "internalType": "address",
              "name": "token",
              "type": "address"
            },
            {
              "internalType": "uint256",
              "name": "amount",
              "type": "uint256"
            }
          ],
          "internalType": "struct IPool.TokenAmount[]",
          "name": "minWithdrawals",
          "type": "tuple[]"
        }
      ],
      "name": "burnLiquidity",
      "outputs": [],
      "stateMutability": "nonpayable",
      "type": "function"
    },
    {
      "inputs": [
        {
          "internalType": "address",
          "name": "pool",
          "type": "address"
        },
        {
          "internalType": "uint256",
          "name": "liquidity",
          "type": "uint256"
        },
        {
          "internalType": "bytes",
          "name": "data",
          "type": "bytes"
        },
        {
          "internalType": "uint256",
          "name": "minWithdrawal",
          "type": "uint256"
        }
      ],
      "name": "burnLiquiditySingle",
      "outputs": [],
      "stateMutability": "nonpayable",
      "type": "function"
    },
    {
      "inputs": [
        {
          "components": [
            {
              "components": [
                {
                  "internalType": "address",
                  "name": "tokenIn",
                  "type": "address"
                },
                {
                  "internalType": "address",
                  "name": "pool",
                  "type": "address"
                },
                {
                  "internalType": "bool",
                  "name": "native",
                  "type": "bool"
                },
                {
                  "internalType": "uint256",
                  "name": "amount",
                  "type": "uint256"
                },
                {
                  "internalType": "bytes",
                  "name": "data",
                  "type": "bytes"
                }
              ],
              "internalType": "struct ITridentRouter.InitialPath[]",
              "name": "initialPath",
              "type": "tuple[]"
            },
            {
              "components": [
                {
                  "internalType": "address",
                  "name": "tokenIn",
                  "type": "address"
                },
                {
                  "internalType": "address",
                  "name": "pool",
                  "type": "address"
                },
                {
                  "internalType": "uint64",
                  "name": "balancePercentage",
                  "type": "uint64"
                },
                {
                  "internalType": "bytes",
                  "name": "data",
                  "type": "bytes"
                }
              ],
              "internalType": "struct ITridentRouter.PercentagePath[]",
              "name": "percentagePath",
              "type": "tuple[]"
            },
            {
              "components": [
                {
                  "internalType": "address",
                  "name": "token",
                  "type": "address"
                },
                {
                  "internalType": "address",
                  "name": "to",
                  "type": "address"
                },
                {
                  "internalType": "bool",
                  "name": "unwrapBento",
                  "type": "bool"
                },
                {
                  "internalType": "uint256",
                  "name": "minAmount",
                  "type": "uint256"
                }
              ],
              "internalType": "struct ITridentRouter.Output[]",
              "name": "output",
              "type": "tuple[]"
            }
          ],
          "internalType": "struct ITridentRouter.ComplexPathParams",
          "name": "params",
          "type": "tuple"
        }
      ],
      "name": "complexPath",
      "outputs": [],
      "stateMutability": "payable",
      "type": "function"
    },
    {
      "inputs": [
        {
          "internalType": "address",
          "name": "factory",
          "type": "address"
        },
        {
          "internalType": "bytes",
          "name": "deployData",
          "type": "bytes"
        }
      ],
      "name": "deployPool",
      "outputs": [
        {
          "internalType": "address",
          "name": "",
          "type": "address"
        }
      ],
      "stateMutability": "payable",
      "type": "function"
    },
    {
      "inputs": [
        {
          "components": [
            {
              "internalType": "address",
              "name": "tokenIn",
              "type": "address"
            },
            {
              "internalType": "uint256",
              "name": "amountIn",
              "type": "uint256"
            },
            {
              "internalType": "uint256",
              "name": "amountOutMinimum",
              "type": "uint256"
            },
            {
              "components": [
                {
                  "internalType": "address",
                  "name": "pool",
                  "type": "address"
                },
                {
                  "internalType": "bytes",
                  "name": "data",
                  "type": "bytes"
                }
              ],
              "internalType": "struct ITridentRouter.Path[]",
              "name": "path",
              "type": "tuple[]"
            }
          ],
          "internalType": "struct ITridentRouter.ExactInputParams",
          "name": "params",
          "type": "tuple"
        }
      ],
      "name": "exactInput",
      "outputs": [
        {
          "internalType": "uint256",
          "name": "amountOut",
          "type": "uint256"
        }
      ],
      "stateMutability": "payable",
      "type": "function"
    },
    {
      "inputs": [
        {
          "components": [
            {
              "internalType": "uint256",
              "name": "amountIn",
              "type": "uint256"
            },
            {
              "internalType": "uint256",
              "name": "amountOutMinimum",
              "type": "uint256"
            },
            {
              "internalType": "address",
              "name": "pool",
              "type": "address"
            },
            {
              "internalType": "address",
              "name": "tokenIn",
              "type": "address"
            },
            {
              "internalType": "bytes",
              "name": "data",
              "type": "bytes"
            }
          ],
          "internalType": "struct ITridentRouter.ExactInputSingleParams",
          "name": "params",
          "type": "tuple"
        }
      ],
      "name": "exactInputSingle",
      "outputs": [
        {
          "internalType": "uint256",
          "name": "amountOut",
          "type": "uint256"
        }
      ],
      "stateMutability": "payable",
      "type": "function"
    },
    {
      "inputs": [
        {
          "components": [
            {
              "internalType": "uint256",
              "name": "amountIn",
              "type": "uint256"
            },
            {
              "internalType": "uint256",
              "name": "amountOutMinimum",
              "type": "uint256"
            },
            {
              "internalType": "address",
              "name": "pool",
              "type": "address"
            },
            {
              "internalType": "address",
              "name": "tokenIn",
              "type": "address"
            },
            {
              "internalType": "bytes",
              "name": "data",
              "type": "bytes"
            }
          ],
          "internalType": "struct ITridentRouter.ExactInputSingleParams",
          "name": "params",
          "type": "tuple"
        }
      ],
      "name": "exactInputSingleWithNativeToken",
      "outputs": [
        {
          "internalType": "uint256",
          "name": "amountOut",
          "type": "uint256"
        }
      ],
      "stateMutability": "payable",
      "type": "function"
    },
    {
      "inputs": [
        {
          "components": [
            {
              "internalType": "address",
              "name": "tokenIn",
              "type": "address"
            },
            {
              "internalType": "uint256",
              "name": "amountIn",
              "type": "uint256"
            },
            {
              "internalType": "uint256",
              "name": "amountOutMinimum",
              "type": "uint256"
            },
            {
              "components": [
                {
                  "internalType": "address",
                  "name": "pool",
                  "type": "address"
                },
                {
                  "internalType": "bytes",
                  "name": "data",
                  "type": "bytes"
                }
              ],
              "internalType": "struct ITridentRouter.Path[]",
              "name": "path",
              "type": "tuple[]"
            }
          ],
          "internalType": "struct ITridentRouter.ExactInputParams",
          "name": "params",
          "type": "tuple"
        }
      ],
      "name": "exactInputWithNativeToken",
      "outputs": [
        {
          "internalType": "uint256",
          "name": "amountOut",
          "type": "uint256"
        }
      ],
      "stateMutability": "payable",
      "type": "function"
    },
    {
      "inputs": [],
      "name": "masterDeployer",
      "outputs": [
        {
          "internalType": "contract IMasterDeployer",
          "name": "",
          "type": "address"
        }
      ],
      "stateMutability": "view",
      "type": "function"
    },
    {
      "inputs": [
        {
          "internalType": "bytes[]",
          "name": "data",
          "type": "bytes[]"
        }
      ],
      "name": "multicall",
      "outputs": [
        {
          "internalType": "bytes[]",
          "name": "results",
          "type": "bytes[]"
        }
      ],
      "stateMutability": "payable",
      "type": "function"
    },
    {
      "inputs": [
        {
          "internalType": "address",
          "name": "token",
          "type": "address"
        },
        {
          "internalType": "uint256",
          "name": "value",
          "type": "uint256"
        },
        {
          "internalType": "uint256",
          "name": "deadline",
          "type": "uint256"
        },
        {
          "internalType": "uint8",
          "name": "v",
          "type": "uint8"
        },
        {
          "internalType": "bytes32",
          "name": "r",
          "type": "bytes32"
        },
        {
          "internalType": "bytes32",
          "name": "s",
          "type": "bytes32"
        }
      ],
      "name": "selfPermit",
      "outputs": [],
      "stateMutability": "payable",
      "type": "function"
    },
    {
      "inputs": [
        {
          "internalType": "address",
          "name": "token",
          "type": "address"
        },
        {
          "internalType": "uint256",
          "name": "nonce",
          "type": "uint256"
        },
        {
          "internalType": "uint256",
          "name": "expiry",
          "type": "uint256"
        },
        {
          "internalType": "uint8",
          "name": "v",
          "type": "uint8"
        },
        {
          "internalType": "bytes32",
          "name": "r",
          "type": "bytes32"
        },
        {
          "internalType": "bytes32",
          "name": "s",
          "type": "bytes32"
        }
      ],
      "name": "selfPermitAllowed",
      "outputs": [],
      "stateMutability": "payable",
      "type": "function"
    },
    {
      "inputs": [
        {
          "internalType": "address",
          "name": "token",
          "type": "address"
        },
        {
          "internalType": "uint256",
          "name": "nonce",
          "type": "uint256"
        },
        {
          "internalType": "uint256",
          "name": "expiry",
          "type": "uint256"
        },
        {
          "internalType": "uint8",
          "name": "v",
          "type": "uint8"
        },
        {
          "internalType": "bytes32",
          "name": "r",
          "type": "bytes32"
        },
        {
          "internalType": "bytes32",
          "name": "s",
          "type": "bytes32"
        }
      ],
      "name": "selfPermitAllowedIfNecessary",
      "outputs": [],
      "stateMutability": "payable",
      "type": "function"
    },
    {
      "inputs": [
        {
          "internalType": "address",
          "name": "token",
          "type": "address"
        },
        {
          "internalType": "uint256",
          "name": "value",
          "type": "uint256"
        },
        {
          "internalType": "uint256",
          "name": "deadline",
          "type": "uint256"
        },
        {
          "internalType": "uint8",
          "name": "v",
          "type": "uint8"
        },
        {
          "internalType": "bytes32",
          "name": "r",
          "type": "bytes32"
        },
        {
          "internalType": "bytes32",
          "name": "s",
          "type": "bytes32"
        }
      ],
      "name": "selfPermitIfNecessary",
      "outputs": [],
      "stateMutability": "payable",
      "type": "function"
    },
    {
      "inputs": [
        {
          "internalType": "address",
          "name": "token",
          "type": "address"
        },
        {
          "internalType": "uint256",
          "name": "amount",
          "type": "uint256"
        },
        {
          "internalType": "address",
          "name": "recipient",
          "type": "address"
        },
        {
          "internalType": "bool",
          "name": "onBento",
          "type": "bool"
        }
      ],
      "name": "sweep",
      "outputs": [],
      "stateMutability": "payable",
      "type": "function"
    },
    {
      "inputs": [
        {
          "internalType": "uint256",
          "name": "amountMinimum",
          "type": "uint256"
        },
        {
          "internalType": "address",
          "name": "recipient",
          "type": "address"
        }
      ],
      "name": "unwrapWETH",
      "outputs": [],
      "stateMutability": "payable",
      "type": "function"
    },
    {
      "stateMutability": "payable",
      "type": "receive"
    }
  ],
  "transactionHash": "0x848083a8eb9a77f597c631bc0370519f64ccddc53bc374092db8c62d065d42da",
  "args": [
    "0xc381a85ed7C7448Da073b7d6C9d4cBf1Cbf576f0",
    "0xD928B344165768eC1e5E92d8cE624E0f692cc9c8",
    "0xd0A1E359811322d97991E03f863a0C30C2cF029C"
  ],
  "numDeployments": 1,
  "solcInputHash": "69c1395e920adf8b11288811a122ebb3",
  "bytecode": "0x60e06040523480156200001157600080fd5b5060405162003a6138038062003a618339810160408190526200003491620000ba565b6001600160601b0319606084811b821660805283811b821660a05282901b1660c0526040805163577268d960e11b815290516001600160a01b0385169163aee4d1b291600480830192600092919082900301818387803b1580156200009857600080fd5b505af1158015620000ad573d6000803e3d6000fd5b5050505050505062000127565b600080600060608486031215620000d057600080fd5b8351620000dd816200010e565b6020850151909350620000f0816200010e565b604085015190925062000103816200010e565b809150509250925092565b6001600160a01b03811681146200012457600080fd5b50565b60805160601c60a05160601c60c05160601c613891620001d0600039600081816101650152818161238b015261248b0152600081816103850152818161090b015261271f0152600081816102b2015281816105f0015281816109b701528181610c9001528181610eef01528181611615015281816118f401528181611a7f01528181611d3301528181611ee001528181612047015281816121d801526125b601526138916000f3fe6080604052600436106101485760003560e01c8063783312d9116100c0578063bc10869311610074578063cf58879a11610059578063cf58879a14610373578063e16d9ce5146103a7578063f3995c67146103ba57600080fd5b8063bc1086931461034d578063c2e3140a1461036057600080fd5b8063a4a78f0c116100a5578063a4a78f0c14610307578063ac9650d81461031a578063b96c5c0e1461033a57600080fd5b8063783312d9146102d45780639fa74491146102f457600080fd5b80632c0d9a0111610117578063403335a8116100fc578063403335a81461027a5780634659a4941461028d5780634da31827146102a057600080fd5b80632c0d9a01146102545780632cfcb94f1461026757600080fd5b80630b0d1b1e146101c35780630f93d439146101e95780631aa349a8146101fc578063250558dc1461021c57600080fd5b366101be573373ffffffffffffffffffffffffffffffffffffffff7f000000000000000000000000000000000000000000000000000000000000000016146101bc576040517fe7218bb300000000000000000000000000000000000000000000000000000000815260040160405180910390fd5b005b600080fd5b6101d66101d136600461307f565b6103cd565b6040519081526020015b60405180910390f35b6101d66101f73660046130ba565b6105d7565b34801561020857600080fd5b506101bc610217366004612c90565b6107b3565b61022f61022a366004612b2d565b6108cb565b60405173ffffffffffffffffffffffffffffffffffffffff90911681526020016101e0565b6101d661026236600461307f565b61099e565b6101d6610275366004612e9d565b610bf7565b6101bc61028836600461318c565b610e9d565b6101bc61029b366004612cf4565b610f65565b3480156102ac57600080fd5b5061022f7f000000000000000000000000000000000000000000000000000000000000000081565b3480156102e057600080fd5b506101bc6102ef366004612bd5565b611020565b6101d66103023660046130ba565b61126d565b6101bc610315366004612cf4565b6112a9565b61032d610328366004612d4e565b611382565b6040516101e0919061329b565b6101bc610348366004613044565b6114f2565b6101bc61035b366004612b82565b612178565b6101bc61036e366004612cf4565b6122a1565b34801561037f57600080fd5b5061022f7f000000000000000000000000000000000000000000000000000000000000000081565b6101bc6103b536600461310e565b61235a565b6101bc6103c8366004612cf4565b612522565b60006104276103df6020840184612aec565b6103ec6060850185613342565b60008181106103fd576103fd6137cd565b905060200281019061040f91906134b5565b61041d906020810190612aec565b846020013561259f565b60005b6104376060840184613342565b9050811015610593576104856104506060850185613342565b83818110610460576104606137cd565b905060200281019061047291906134b5565b610480906020810190612aec565b6126ad565b6104926060840184613342565b828181106104a2576104a26137cd565b90506020028101906104b491906134b5565b6104c2906020810190612aec565b73ffffffffffffffffffffffffffffffffffffffff1663627dd56a6104ea6060860186613342565b848181106104fa576104fa6137cd565b905060200281019061050c91906134b5565b61051a906020810190613412565b6040518363ffffffff1660e01b815260040161053792919061331b565b602060405180830381600087803b15801561055157600080fd5b505af1158015610565573d6000803e3d6000fd5b505050506040513d601f19601f8201168201806040525081019061058991906130f5565b915060010161042a565b5081604001358110156105d2576040517fc9f52c7100000000000000000000000000000000000000000000000000000000815260040160405180910390fd5b919050565b600073ffffffffffffffffffffffffffffffffffffffff7f00000000000000000000000000000000000000000000000000000000000000001663f18d03cc6106256080850160608601612aec565b336106366060870160408801612aec565b6040517fffffffff0000000000000000000000000000000000000000000000000000000060e086901b16815273ffffffffffffffffffffffffffffffffffffffff93841660048201529183166024830152909116604482015284356064820152608401600060405180830381600087803b1580156106b357600080fd5b505af11580156106c7573d6000803e3d6000fd5b506106dc925050506060830160408401612aec565b73ffffffffffffffffffffffffffffffffffffffff1663627dd56a6107046080850185613412565b6040518363ffffffff1660e01b815260040161072192919061331b565b602060405180830381600087803b15801561073b57600080fd5b505af115801561074f573d6000803e3d6000fd5b505050506040513d601f19601f8201168201806040525081019061077391906130f5565b905081602001358110156105d2576040517fc9f52c7100000000000000000000000000000000000000000000000000000000815260040160405180910390fd5b6107bc856126ad565b6107de73ffffffffffffffffffffffffffffffffffffffff8616338787612821565b6040517faf8c09bf00000000000000000000000000000000000000000000000000000000815260009073ffffffffffffffffffffffffffffffffffffffff87169063af8c09bf90610835908790879060040161331b565b602060405180830381600087803b15801561084f57600080fd5b505af1158015610863573d6000803e3d6000fd5b505050506040513d601f19601f8201168201806040525081019061088791906130f5565b9050818110156108c3576040517fc9f52c7100000000000000000000000000000000000000000000000000000000815260040160405180910390fd5b505050505050565b6040517f250558dc00000000000000000000000000000000000000000000000000000000815260009073ffffffffffffffffffffffffffffffffffffffff7f0000000000000000000000000000000000000000000000000000000000000000169063250558dc9061094490879087908790600401613262565b602060405180830381600087803b15801561095e57600080fd5b505af1158015610972573d6000803e3d6000fd5b505050506040513d601f19601f820116820180604052508101906109969190612b10565b949350505050565b600073ffffffffffffffffffffffffffffffffffffffff7f00000000000000000000000000000000000000000000000000000000000000001663f18d03cc6109e96020850185612aec565b336109f76060870187613342565b6000818110610a0857610a086137cd565b9050602002810190610a1a91906134b5565b610a28906020810190612aec565b60405160e085901b7fffffffff0000000000000000000000000000000000000000000000000000000016815273ffffffffffffffffffffffffffffffffffffffff93841660048201529183166024830152909116604482015260208501356064820152608401600060405180830381600087803b158015610aa857600080fd5b505af1158015610abc573d6000803e3d6000fd5b5050505060005b610ad06060840184613342565b905081101561059357610ae96104506060850185613342565b610af66060840184613342565b82818110610b0657610b066137cd565b9050602002810190610b1891906134b5565b610b26906020810190612aec565b73ffffffffffffffffffffffffffffffffffffffff1663627dd56a610b4e6060860186613342565b84818110610b5e57610b5e6137cd565b9050602002810190610b7091906134b5565b610b7e906020810190613412565b6040518363ffffffff1660e01b8152600401610b9b92919061331b565b602060405180830381600087803b158015610bb557600080fd5b505af1158015610bc9573d6000803e3d6000fd5b505050506040513d601f19601f82011682018060405250810190610bed91906130f5565b9150600101610ac3565b6000610c02856126ad565b60005b86811015610db057878782818110610c1f57610c1f6137cd565b9050606002016020016020810190610c379190612f58565b15610c8e57610c89888883818110610c5157610c516137cd565b610c679260206060909202019081019150612aec565b878a8a85818110610c7a57610c7a6137cd565b9050606002016040013561259f565b610da8565b7f000000000000000000000000000000000000000000000000000000000000000073ffffffffffffffffffffffffffffffffffffffff1663f18d03cc898984818110610cdc57610cdc6137cd565b610cf29260206060909202019081019150612aec565b33898c8c87818110610d0657610d066137cd565b604080517fffffffff0000000000000000000000000000000000000000000000000000000060e08a901b16815273ffffffffffffffffffffffffffffffffffffffff978816600482015295871660248701529590931660448501525060609091020191909101356064820152608401600060405180830381600087803b158015610d8f57600080fd5b505af1158015610da3573d6000803e3d6000fd5b505050505b600101610c05565b506040517f7ba0e2e700000000000000000000000000000000000000000000000000000000815273ffffffffffffffffffffffffffffffffffffffff861690637ba0e2e790610e05908690869060040161331b565b602060405180830381600087803b158015610e1f57600080fd5b505af1158015610e33573d6000803e3d6000fd5b505050506040513d601f19601f82011682018060405250810190610e5791906130f5565b905083811015610e93576040517f249942be00000000000000000000000000000000000000000000000000000000815260040160405180910390fd5b9695505050505050565b6040517fc0a47c930000000000000000000000000000000000000000000000000000000081523360048201523060248201526001604482015260ff841660648201526084810183905260a481018290527f000000000000000000000000000000000000000000000000000000000000000073ffffffffffffffffffffffffffffffffffffffff169063c0a47c939060c401600060405180830381600087803b158015610f4857600080fd5b505af1158015610f5c573d6000803e3d6000fd5b50505050505050565b6040517f8fcbaf0c00000000000000000000000000000000000000000000000000000000815233600482015230602482015260448101869052606481018590526001608482015260ff841660a482015260c4810183905260e4810182905273ffffffffffffffffffffffffffffffffffffffff871690638fcbaf0c90610104015b600060405180830381600087803b15801561100057600080fd5b505af1158015611014573d6000803e3d6000fd5b50505050505050505050565b611029866126ad565b61103586338888612821565b6040517f2a07b6c700000000000000000000000000000000000000000000000000000000815260009073ffffffffffffffffffffffffffffffffffffffff881690632a07b6c79061108c908890889060040161331b565b600060405180830381600087803b1580156110a657600080fd5b505af11580156110ba573d6000803e3d6000fd5b505050506040513d6000823e601f3d9081017fffffffffffffffffffffffffffffffffffffffffffffffffffffffffffffffe01682016040526111009190810190612dc3565b905060005b828110156112635760005b82518110156112185784848381811061112b5761112b6137cd565b6111419260206040909202019081019150612aec565b73ffffffffffffffffffffffffffffffffffffffff16838281518110611169576111696137cd565b60200260200101516000015173ffffffffffffffffffffffffffffffffffffffff161415611208578484838181106111a3576111a36137cd565b905060400201602001358382815181106111bf576111bf6137cd565b6020026020010151602001511015611203576040517fc9f52c7100000000000000000000000000000000000000000000000000000000815260040160405180910390fd5b611218565b61121181613765565b9050611110565b82518110611252576040517f85b6199600000000000000000000000000000000000000000000000000000000815260040160405180910390fd5b5061125c81613765565b9050611105565b5050505050505050565b60006112996112826080840160608501612aec565b6112926060850160408601612aec565b843561259f565b6106dc6060830160408401612aec565b6040517fdd62ed3e0000000000000000000000000000000000000000000000000000000081523360048201523060248201527fffffffffffffffffffffffffffffffffffffffffffffffffffffffffffffffff9073ffffffffffffffffffffffffffffffffffffffff88169063dd62ed3e9060440160206040518083038186803b15801561133657600080fd5b505afa15801561134a573d6000803e3d6000fd5b505050506040513d601f19601f8201168201806040525081019061136e91906130f5565b10156108c3576108c3868686868686610f65565b60608167ffffffffffffffff81111561139d5761139d6137fc565b6040519080825280602002602001820160405280156113d057816020015b60608152602001906001900390816113bb5790505b50905060005b828110156114eb57600080308686858181106113f4576113f46137cd565b90506020028101906114069190613412565b604051611414929190613252565b600060405180830381855af49150503d806000811461144f576040519150601f19603f3d011682016040523d82523d6000602084013e611454565b606091505b5091509150816114c35760448151101561146d57600080fd5b600481019050808060200190518101906114879190612f92565b6040517f08c379a00000000000000000000000000000000000000000000000000000000081526004016114ba919061332f565b60405180910390fd5b808484815181106114d6576114d66137cd565b602090810291909101015250506001016113d6565b5092915050565b60005b6114ff8280613342565b90508110156118c1576115128280613342565b82818110611522576115226137cd565b90506020028101906115349190613477565b611545906060810190604001612f58565b156115fe576115f96115578380613342565b83818110611567576115676137cd565b90506020028101906115799190613477565b611587906020810190612aec565b6115918480613342565b848181106115a1576115a16137cd565b90506020028101906115b39190613477565b6115c4906040810190602001612aec565b6115ce8580613342565b858181106115de576115de6137cd565b90506020028101906115f09190613477565b6060013561259f565b611777565b73ffffffffffffffffffffffffffffffffffffffff7f00000000000000000000000000000000000000000000000000000000000000001663f18d03cc6116448480613342565b84818110611654576116546137cd565b90506020028101906116669190613477565b611674906020810190612aec565b3361167f8680613342565b8681811061168f5761168f6137cd565b90506020028101906116a19190613477565b6116b2906040810190602001612aec565b6116bc8780613342565b878181106116cc576116cc6137cd565b90506020028101906116de9190613477565b60405160e086901b7fffffffff0000000000000000000000000000000000000000000000000000000016815273ffffffffffffffffffffffffffffffffffffffff94851660048201529284166024840152921660448201526060909101356064820152608401600060405180830381600087803b15801561175e57600080fd5b505af1158015611772573d6000803e3d6000fd5b505050505b6117b76117848380613342565b83818110611794576117946137cd565b90506020028101906117a69190613477565b610480906040810190602001612aec565b6117c18280613342565b828181106117d1576117d16137cd565b90506020028101906117e39190613477565b6117f4906040810190602001612aec565b73ffffffffffffffffffffffffffffffffffffffff1663627dd56a6118198480613342565b84818110611829576118296137cd565b905060200281019061183b9190613477565b611849906080810190613412565b6040518363ffffffff1660e01b815260040161186692919061331b565b602060405180830381600087803b15801561188057600080fd5b505af1158015611894573d6000803e3d6000fd5b505050506040513d601f19601f820116820180604052508101906118b891906130f5565b506001016114f5565b5060005b6118d26020830183613342565b9050811015611d0057600073ffffffffffffffffffffffffffffffffffffffff7f00000000000000000000000000000000000000000000000000000000000000001663f7888aec6119266020860186613342565b85818110611936576119366137cd565b905060200281019061194891906134e9565b611956906020810190612aec565b6040517fffffffff0000000000000000000000000000000000000000000000000000000060e084901b16815273ffffffffffffffffffffffffffffffffffffffff909116600482015230602482015260440160206040518083038186803b1580156119c057600080fd5b505afa1580156119d4573d6000803e3d6000fd5b505050506040513d601f19601f820116820180604052508101906119f891906130f5565b90506000611a086008600a613631565b611a156020860186613342565b85818110611a2557611a256137cd565b9050602002810190611a3791906134e9565b611a48906060810190604001613162565b611a5c9067ffffffffffffffff16846136fc565b611a669190613595565b905073ffffffffffffffffffffffffffffffffffffffff7f00000000000000000000000000000000000000000000000000000000000000001663f18d03cc611ab16020870187613342565b86818110611ac157611ac16137cd565b9050602002810190611ad391906134e9565b611ae1906020810190612aec565b30611aef6020890189613342565b88818110611aff57611aff6137cd565b9050602002810190611b1191906134e9565b611b22906040810190602001612aec565b60405160e085901b7fffffffff0000000000000000000000000000000000000000000000000000000016815273ffffffffffffffffffffffffffffffffffffffff93841660048201529183166024830152909116604482015260648101849052608401600060405180830381600087803b158015611b9f57600080fd5b505af1158015611bb3573d6000803e3d6000fd5b50611beb9250611bc99150506020860186613342565b85818110611bd957611bd96137cd565b90506020028101906117a691906134e9565b611bf86020850185613342565b84818110611c0857611c086137cd565b9050602002810190611c1a91906134e9565b611c2b906040810190602001612aec565b73ffffffffffffffffffffffffffffffffffffffff1663627dd56a611c536020870187613342565b86818110611c6357611c636137cd565b9050602002810190611c7591906134e9565b611c83906060810190613412565b6040518363ffffffff1660e01b8152600401611ca092919061331b565b602060405180830381600087803b158015611cba57600080fd5b505af1158015611cce573d6000803e3d6000fd5b505050506040513d601f19601f82011682018060405250810190611cf291906130f5565b5082600101925050506118c5565b5060005b611d1160408301836133aa565b905081101561217457600073ffffffffffffffffffffffffffffffffffffffff7f00000000000000000000000000000000000000000000000000000000000000001663f7888aec611d6560408601866133aa565b85818110611d7557611d756137cd565b611d8b9260206080909202019081019150612aec565b6040517fffffffff0000000000000000000000000000000000000000000000000000000060e084901b16815273ffffffffffffffffffffffffffffffffffffffff909116600482015230602482015260440160206040518083038186803b158015611df557600080fd5b505afa158015611e09573d6000803e3d6000fd5b505050506040513d601f19601f82011682018060405250810190611e2d91906130f5565b9050611e3c60408401846133aa565b83818110611e4c57611e4c6137cd565b90506080020160600135811015611e8f576040517fc9f52c7100000000000000000000000000000000000000000000000000000000815260040160405180910390fd5b611e9c60408401846133aa565b83818110611eac57611eac6137cd565b9050608002016040016020810190611ec49190612f58565b156120305773ffffffffffffffffffffffffffffffffffffffff7f0000000000000000000000000000000000000000000000000000000000000000166397da6d30611f1260408601866133aa565b85818110611f2257611f226137cd565b611f389260206080909202019081019150612aec565b30611f4660408801886133aa565b87818110611f5657611f566137cd565b9050608002016020016020810190611f6e9190612aec565b60405160e085901b7fffffffff0000000000000000000000000000000000000000000000000000000016815273ffffffffffffffffffffffffffffffffffffffff938416600482015291831660248301529091166044820152600060648201526084810184905260a4016040805180830381600087803b158015611ff157600080fd5b505af1158015612005573d6000803e3d6000fd5b505050506040513d601f19601f82011682018060405250810190612029919061313e565b505061216b565b73ffffffffffffffffffffffffffffffffffffffff7f00000000000000000000000000000000000000000000000000000000000000001663f18d03cc61207960408601866133aa565b85818110612089576120896137cd565b61209f9260206080909202019081019150612aec565b306120ad60408801886133aa565b878181106120bd576120bd6137cd565b90506080020160200160208101906120d59190612aec565b60405160e085901b7fffffffff0000000000000000000000000000000000000000000000000000000016815273ffffffffffffffffffffffffffffffffffffffff93841660048201529183166024830152909116604482015260648101849052608401600060405180830381600087803b15801561215257600080fd5b505af1158015612166573d6000803e3d6000fd5b505050505b50600101611d04565b5050565b8015612239576040517ff18d03cc00000000000000000000000000000000000000000000000000000000815273ffffffffffffffffffffffffffffffffffffffff85811660048301523060248301528381166044830152606482018590527f0000000000000000000000000000000000000000000000000000000000000000169063f18d03cc90608401600060405180830381600087803b15801561221c57600080fd5b505af1158015612230573d6000803e3d6000fd5b5050505061229b565b73ffffffffffffffffffffffffffffffffffffffff84161561227b5761227673ffffffffffffffffffffffffffffffffffffffff85168385612904565b61229b565b61229b73ffffffffffffffffffffffffffffffffffffffff8316476129cb565b50505050565b6040517fdd62ed3e000000000000000000000000000000000000000000000000000000008152336004820152306024820152859073ffffffffffffffffffffffffffffffffffffffff88169063dd62ed3e9060440160206040518083038186803b15801561230e57600080fd5b505afa158015612322573d6000803e3d6000fd5b505050506040513d601f19601f8201168201806040525081019061234691906130f5565b10156108c3576108c3868686868686612522565b6040517f70a082310000000000000000000000000000000000000000000000000000000081523060048201526000907f000000000000000000000000000000000000000000000000000000000000000073ffffffffffffffffffffffffffffffffffffffff16906370a082319060240160206040518083038186803b1580156123e257600080fd5b505afa1580156123f6573d6000803e3d6000fd5b505050506040513d601f19601f8201168201806040525081019061241a91906130f5565b905082811015612456576040517f6f2750f500000000000000000000000000000000000000000000000000000000815260040160405180910390fd5b801561251d576040517f2e1a7d4d000000000000000000000000000000000000000000000000000000008152600481018290527f000000000000000000000000000000000000000000000000000000000000000073ffffffffffffffffffffffffffffffffffffffff1690632e1a7d4d90602401600060405180830381600087803b1580156124e457600080fd5b505af11580156124f8573d6000803e3d6000fd5b5061251d9250505073ffffffffffffffffffffffffffffffffffffffff8316826129cb565b505050565b6040517fd505accf000000000000000000000000000000000000000000000000000000008152336004820152306024820152604481018690526064810185905260ff8416608482015260a4810183905260c4810182905273ffffffffffffffffffffffffffffffffffffffff87169063d505accf9060e401610fe6565b73ffffffffffffffffffffffffffffffffffffffff7f00000000000000000000000000000000000000000000000000000000000000008116906302b9446c908516156125ec5760006125ee565b825b6040517fffffffff0000000000000000000000000000000000000000000000000000000060e084901b16815273ffffffffffffffffffffffffffffffffffffffff808816600483015233602483015286166044820152606481018590526000608482015260a40160408051808303818588803b15801561266d57600080fd5b505af1158015612681573d6000803e3d6000fd5b50505050506040513d601f19601f820116820180604052508101906126a6919061313e565b5050505050565b73ffffffffffffffffffffffffffffffffffffffff811660009081526020819052604090205460ff1661281e576040517fa4063dbc00000000000000000000000000000000000000000000000000000000815273ffffffffffffffffffffffffffffffffffffffff82811660048301527f0000000000000000000000000000000000000000000000000000000000000000169063a4063dbc9060240160206040518083038186803b15801561276157600080fd5b505afa158015612775573d6000803e3d6000fd5b505050506040513d601f19601f820116820180604052508101906127999190612f75565b6127cf576040517f2083cd4000000000000000000000000000000000000000000000000000000000815260040160405180910390fd5b73ffffffffffffffffffffffffffffffffffffffff8116600090815260208190526040902080547fffffffffffffffffffffffffffffffffffffffffffffffffffffffffffffff001660011790555b50565b60006040517f23b872dd00000000000000000000000000000000000000000000000000000000815273ffffffffffffffffffffffffffffffffffffffff8516600482015273ffffffffffffffffffffffffffffffffffffffff8416602482015282604482015260008060648360008a5af191505061289e81612a40565b6126a6576040517f08c379a000000000000000000000000000000000000000000000000000000000815260206004820152601460248201527f5452414e534645525f46524f4d5f4641494c454400000000000000000000000060448201526064016114ba565b60006040517fa9059cbb00000000000000000000000000000000000000000000000000000000815273ffffffffffffffffffffffffffffffffffffffff841660048201528260248201526000806044836000895af191505061296581612a40565b61229b576040517f08c379a000000000000000000000000000000000000000000000000000000000815260206004820152600f60248201527f5452414e534645525f4641494c4544000000000000000000000000000000000060448201526064016114ba565b600080600080600085875af190508061251d576040517f08c379a000000000000000000000000000000000000000000000000000000000815260206004820152601360248201527f4554485f5452414e534645525f4641494c45440000000000000000000000000060448201526064016114ba565b60003d82612a5257806000803e806000fd5b8060208114612a6a578015612a7b5760009250612a80565b816000803e60005115159250612a80565b600192505b5050919050565b80356105d28161382b565b60008083601f840112612aa457600080fd5b50813567ffffffffffffffff811115612abc57600080fd5b602083019150836020828501011115612ad457600080fd5b9250929050565b803560ff811681146105d257600080fd5b600060208284031215612afe57600080fd5b8135612b098161382b565b9392505050565b600060208284031215612b2257600080fd5b8151612b098161382b565b600080600060408486031215612b4257600080fd5b8335612b4d8161382b565b9250602084013567ffffffffffffffff811115612b6957600080fd5b612b7586828701612a92565b9497909650939450505050565b60008060008060808587031215612b9857600080fd5b8435612ba38161382b565b9350602085013592506040850135612bba8161382b565b91506060850135612bca8161384d565b939692955090935050565b60008060008060008060808789031215612bee57600080fd5b8635612bf98161382b565b955060208701359450604087013567ffffffffffffffff80821115612c1d57600080fd5b612c298a838b01612a92565b90965094506060890135915080821115612c4257600080fd5b818901915089601f830112612c5657600080fd5b813581811115612c6557600080fd5b8a60208260061b8501011115612c7a57600080fd5b6020830194508093505050509295509295509295565b600080600080600060808688031215612ca857600080fd5b8535612cb38161382b565b945060208601359350604086013567ffffffffffffffff811115612cd657600080fd5b612ce288828901612a92565b96999598509660600135949350505050565b60008060008060008060c08789031215612d0d57600080fd5b8635612d188161382b565b95506020870135945060408701359350612d3460608801612adb565b92506080870135915060a087013590509295509295509295565b60008060208385031215612d6157600080fd5b823567ffffffffffffffff80821115612d7957600080fd5b818501915085601f830112612d8d57600080fd5b813581811115612d9c57600080fd5b8660208260051b8501011115612db157600080fd5b60209290920196919550909350505050565b60006020808385031215612dd657600080fd5b825167ffffffffffffffff80821115612dee57600080fd5b818501915085601f830112612e0257600080fd5b815181811115612e1457612e146137fc565b612e22848260051b01613546565b8181528481019250838501600683901b85018601891015612e4257600080fd5b60009450845b83811015612e8f57604080838c031215612e60578687fd5b612e6861351d565b8351612e738161382b565b8152838901518982015286529487019490910190600101612e48565b509098975050505050505050565b60008060008060008060808789031215612eb657600080fd5b863567ffffffffffffffff80821115612ece57600080fd5b818901915089601f830112612ee257600080fd5b813581811115612ef157600080fd5b8a6020606083028501011115612f0657600080fd5b60208301985080975050612f1c60208a01612a87565b9550604089013594506060890135915080821115612f3957600080fd5b50612f4689828a01612a92565b979a9699509497509295939492505050565b600060208284031215612f6a57600080fd5b8135612b098161384d565b600060208284031215612f8757600080fd5b8151612b098161384d565b600060208284031215612fa457600080fd5b815167ffffffffffffffff80821115612fbc57600080fd5b818401915084601f830112612fd057600080fd5b815181811115612fe257612fe26137fc565b61301360207fffffffffffffffffffffffffffffffffffffffffffffffffffffffffffffffe0601f84011601613546565b915080825285602082850101111561302a57600080fd5b61303b816020840160208601613739565b50949350505050565b60006020828403121561305657600080fd5b813567ffffffffffffffff81111561306d57600080fd5b820160608185031215612b0957600080fd5b60006020828403121561309157600080fd5b813567ffffffffffffffff8111156130a857600080fd5b820160808185031215612b0957600080fd5b6000602082840312156130cc57600080fd5b813567ffffffffffffffff8111156130e357600080fd5b820160a08185031215612b0957600080fd5b60006020828403121561310757600080fd5b5051919050565b6000806040838503121561312157600080fd5b8235915060208301356131338161382b565b809150509250929050565b6000806040838503121561315157600080fd5b505080516020909101519092909150565b60006020828403121561317457600080fd5b813567ffffffffffffffff81168114612b0957600080fd5b6000806000606084860312156131a157600080fd5b6131aa84612adb565b95602085013595506040909401359392505050565b8183528181602085013750600060208284010152600060207fffffffffffffffffffffffffffffffffffffffffffffffffffffffffffffffe0601f840116840101905092915050565b60008151808452613220816020860160208601613739565b601f017fffffffffffffffffffffffffffffffffffffffffffffffffffffffffffffffe0169290920160200192915050565b8183823760009101908152919050565b73ffffffffffffffffffffffffffffffffffffffff841681526040602082015260006132926040830184866131bf565b95945050505050565b6000602080830181845280855180835260408601915060408160051b870101925083870160005b8281101561330e577fffffffffffffffffffffffffffffffffffffffffffffffffffffffffffffffc08886030184526132fc858351613208565b945092850192908501906001016132c2565b5092979650505050505050565b6020815260006109966020830184866131bf565b602081526000612b096020830184613208565b60008083357fffffffffffffffffffffffffffffffffffffffffffffffffffffffffffffffe184360301811261337757600080fd5b83018035915067ffffffffffffffff82111561339257600080fd5b6020019150600581901b3603821315612ad457600080fd5b60008083357fffffffffffffffffffffffffffffffffffffffffffffffffffffffffffffffe18436030181126133df57600080fd5b83018035915067ffffffffffffffff8211156133fa57600080fd5b6020019150600781901b3603821315612ad457600080fd5b60008083357fffffffffffffffffffffffffffffffffffffffffffffffffffffffffffffffe184360301811261344757600080fd5b83018035915067ffffffffffffffff82111561346257600080fd5b602001915036819003821315612ad457600080fd5b600082357fffffffffffffffffffffffffffffffffffffffffffffffffffffffffffffff618336030181126134ab57600080fd5b9190910192915050565b600082357fffffffffffffffffffffffffffffffffffffffffffffffffffffffffffffffc18336030181126134ab57600080fd5b600082357fffffffffffffffffffffffffffffffffffffffffffffffffffffffffffffff818336030181126134ab57600080fd5b6040805190810167ffffffffffffffff81118282101715613540576135406137fc565b60405290565b604051601f82017fffffffffffffffffffffffffffffffffffffffffffffffffffffffffffffffe016810167ffffffffffffffff8111828210171561358d5761358d6137fc565b604052919050565b6000826135cb577f4e487b7100000000000000000000000000000000000000000000000000000000600052601260045260246000fd5b500490565b600181815b8085111561362957817fffffffffffffffffffffffffffffffffffffffffffffffffffffffffffffffff0482111561360f5761360f61379e565b8085161561361c57918102915b93841c93908002906135d5565b509250929050565b6000612b0960ff84168360008261364a575060016136f6565b81613657575060006136f6565b816001811461366d576002811461367757613693565b60019150506136f6565b60ff8411156136885761368861379e565b50506001821b6136f6565b5060208310610133831016604e8410600b84101617156136b6575081810a6136f6565b6136c083836135d0565b807fffffffffffffffffffffffffffffffffffffffffffffffffffffffffffffffff048211156136f2576136f261379e565b0290505b92915050565b6000817fffffffffffffffffffffffffffffffffffffffffffffffffffffffffffffffff04831182151516156137345761373461379e565b500290565b60005b8381101561375457818101518382015260200161373c565b8381111561229b5750506000910152565b60007fffffffffffffffffffffffffffffffffffffffffffffffffffffffffffffffff8214156137975761379761379e565b5060010190565b7f4e487b7100000000000000000000000000000000000000000000000000000000600052601160045260246000fd5b7f4e487b7100000000000000000000000000000000000000000000000000000000600052603260045260246000fd5b7f4e487b7100000000000000000000000000000000000000000000000000000000600052604160045260246000fd5b73ffffffffffffffffffffffffffffffffffffffff8116811461281e57600080fd5b801515811461281e57600080fdfea26469706673582212203cd7fb48f844d743fcb1a8bcf13e8b9ae631aa20637c2e8e73ed0ee0f1062d0d64736f6c63430008070033",
  "devdoc": {
    "errors": {
      "NotWethSender()": [
        {
          "details": "Custom Errors"
        }
      ]
    },
    "kind": "dev",
    "methods": {
      "addLiquidity((address,bool,uint256)[],address,uint256,bytes)": {
        "params": {
          "data": "Data required by the pool to add liquidity.",
          "minLiquidity": "Minimum output liquidity - caps slippage.",
          "pool": "Pool address to add liquidity to.",
          "tokenInput": "Token address and amount to add as liquidity."
        }
      },
      "burnLiquidity(address,uint256,bytes,(address,uint256)[])": {
        "params": {
          "data": "Data required by the pool to burn liquidity.",
          "liquidity": "Amount of liquidity tokens to burn.",
          "minWithdrawals": "Minimum amount of `bento` tokens to be returned.",
          "pool": "Pool address."
        }
      },
      "burnLiquiditySingle(address,uint256,bytes,uint256)": {
        "details": "The tokens are swapped automatically and the output is in a single token.",
        "params": {
          "data": "Data required by the pool to burn liquidity.",
          "liquidity": "Amount of liquidity tokens to burn.",
          "minWithdrawal": "Minimum amount of tokens to be returned.",
          "pool": "Pool address."
        }
      },
      "complexPath(((address,address,bool,uint256,bytes)[],(address,address,uint64,bytes)[],(address,address,bool,uint256)[]))": {
        "details": "This function is not optimized for single swaps and should only be used in complex cases where the amounts are large enough that minimizing slippage by using multiple paths is worth the extra gas.",
        "params": {
          "params": "This includes everything needed for the swap. Look at the `ComplexPathParams` struct for more details."
        }
      },
      "exactInput((address,uint256,uint256,(address,bytes)[]))": {
        "details": "Ensure that the pools are trusted before calling this function. The pools can steal users' tokens.",
        "params": {
          "params": "This includes the addresses of the tokens, pools, amount of token A to swap, minimum amount of token B after the swap and data required by the pools for the swaps."
        }
      },
      "exactInputSingle((uint256,uint256,address,address,bytes))": {
        "details": "Ensure that the pool is trusted before calling this function. The pool can steal users' tokens.",
        "params": {
          "params": "This includes the address of token A, pool, amount of token A to swap, minimum amount of token B after the swap and data required by the pool for the swap."
        }
      },
      "exactInputSingleWithNativeToken((uint256,uint256,address,address,bytes))": {
        "details": "Ensure that the pool is trusted before calling this function. The pool can steal users' tokens.",
        "params": {
          "params": "This includes the address of token A, pool, amount of token A to swap, minimum amount of token B after the swap and data required by the pool for the swap."
        }
      },
      "exactInputWithNativeToken((address,uint256,uint256,(address,bytes)[]))": {
        "details": "Ensure that the pools are trusted before calling this function. The pools can steal users' tokens.",
        "params": {
          "params": "This includes the addresses of the tokens, pools, amount of token A to swap, minimum amount of token B after the swap and data required by the pools for the swaps."
        }
      }
    },
    "stateVariables": {
      "whitelistedPools": {
        "details": "Cached whitelisted pools."
      }
    },
    "version": 1
  },
  "userdoc": {
    "kind": "user",
    "methods": {
      "addLiquidity((address,bool,uint256)[],address,uint256,bytes)": {
        "notice": "Add liquidity to a pool."
      },
      "approveMasterContract(uint8,bytes32,bytes32)": {
        "notice": "Wrapper function to allow bento set master contract approval to be batched, so the first trade can happen in one transaction."
      },
      "bento()": {
        "notice": "BentoBox token vault."
      },
      "burnLiquidity(address,uint256,bytes,(address,uint256)[])": {
        "notice": "Burn liquidity tokens to get back `bento` tokens."
      },
      "burnLiquiditySingle(address,uint256,bytes,uint256)": {
        "notice": "Burn liquidity tokens to get back `bento` tokens."
      },
      "complexPath(((address,address,bool,uint256,bytes)[],(address,address,uint64,bytes)[],(address,address,bool,uint256)[]))": {
        "notice": "Swaps multiple input tokens to multiple output tokens using multiple paths, in different percentages. For example, you can swap 50 DAI + 100 USDC into 60% ETH and 40% BTC."
      },
      "deployPool(address,bytes)": {
        "notice": "Wrapper function to allow pool deployment to be batched. "
      },
      "exactInput((address,uint256,uint256,(address,bytes)[]))": {
        "notice": "Swaps token A to token B indirectly by using multiple hops."
      },
      "exactInputSingle((uint256,uint256,address,address,bytes))": {
        "notice": "Swaps token A to token B directly. Swaps are done on `bento` tokens."
      },
      "exactInputSingleWithNativeToken((uint256,uint256,address,address,bytes))": {
        "notice": "Swaps token A to token B directly. It's the same as `exactInputSingle` except it takes raw ERC-20 tokens from the users and deposits them into `bento`."
      },
      "exactInputWithNativeToken((address,uint256,uint256,(address,bytes)[]))": {
        "notice": "Swaps token A to token B indirectly by using multiple hops. It's the same as `exactInput` except it takes raw ERC-20 tokens from the users and deposits them into `bento`."
      },
      "masterDeployer()": {
        "notice": "Master deployer."
      },
      "sweep(address,uint256,address,bool)": {
        "notice": "Recover mistakenly sent tokens."
      },
      "unwrapWETH(uint256,address)": {
        "notice": "Unwrap this contract's `wETH` into ETH."
      }
    },
    "notice": "Router contract that helps in swapping across Trident pools.",
    "version": 1
  },
  "storageLayout": {
    "storage": [
      {
        "astId": 3791,
        "contract": "contracts/TridentRouter.sol:TridentRouter",
        "label": "whitelistedPools",
        "offset": 0,
        "slot": "0",
        "type": "t_mapping(t_address,t_bool)"
      }
    ],
    "types": {
      "t_address": {
        "encoding": "inplace",
        "label": "address",
        "numberOfBytes": "20"
      },
      "t_bool": {
        "encoding": "inplace",
        "label": "bool",
        "numberOfBytes": "1"
      },
      "t_mapping(t_address,t_bool)": {
        "encoding": "mapping",
        "key": "t_address",
        "label": "mapping(address => bool)",
        "numberOfBytes": "32",
        "value": "t_bool"
      }
    }
  }
}