{
  "address": "0x9F48E9b7DF64191e374C1B134fC0B197C7f02CAb",
  "abi": [
    {
      "inputs": [
        {
          "internalType": "contract IBentoBoxMinimal",
          "name": "_bento",
          "type": "address"
        },
        {
          "internalType": "contract MasterDeployer",
          "name": "_masterDeployer",
          "type": "address"
        },
        {
          "internalType": "address",
          "name": "_wETH",
          "type": "address"
        }
      ],
      "stateMutability": "nonpayable",
      "type": "constructor"
    },
    {
      "inputs": [
        {
          "components": [
            {
              "internalType": "address",
              "name": "token",
              "type": "address"
            },
            {
              "internalType": "bool",
              "name": "native",
              "type": "bool"
            },
            {
              "internalType": "uint256",
              "name": "amount",
              "type": "uint256"
            }
          ],
          "internalType": "struct ITridentRouter.TokenInput[]",
          "name": "tokenInput",
          "type": "tuple[]"
        },
        {
          "internalType": "address",
          "name": "pool",
          "type": "address"
        },
        {
          "internalType": "uint256",
          "name": "minLiquidity",
          "type": "uint256"
        },
        {
          "internalType": "bytes",
          "name": "data",
          "type": "bytes"
        }
      ],
      "name": "addLiquidity",
      "outputs": [
        {
          "internalType": "uint256",
          "name": "liquidity",
          "type": "uint256"
        }
      ],
      "stateMutability": "payable",
      "type": "function"
    },
    {
      "inputs": [
        {
          "internalType": "address",
          "name": "pool",
          "type": "address"
        },
        {
          "internalType": "bytes",
          "name": "data",
          "type": "bytes"
        }
      ],
      "name": "addLiquidityLazy",
      "outputs": [],
      "stateMutability": "payable",
      "type": "function"
    },
    {
      "inputs": [
        {
          "internalType": "bytes[]",
          "name": "data",
          "type": "bytes[]"
        }
      ],
      "name": "batch",
      "outputs": [
        {
          "internalType": "bytes[]",
          "name": "results",
          "type": "bytes[]"
        }
      ],
      "stateMutability": "payable",
      "type": "function"
    },
    {
      "inputs": [],
      "name": "bento",
      "outputs": [
        {
          "internalType": "contract IBentoBoxMinimal",
          "name": "",
          "type": "address"
        }
      ],
      "stateMutability": "view",
      "type": "function"
    },
    {
      "inputs": [
        {
          "internalType": "address",
          "name": "pool",
          "type": "address"
        },
        {
          "internalType": "uint256",
          "name": "liquidity",
          "type": "uint256"
        },
        {
          "internalType": "bytes",
          "name": "data",
          "type": "bytes"
        },
        {
          "components": [
            {
              "internalType": "address",
              "name": "token",
              "type": "address"
            },
            {
              "internalType": "uint256",
              "name": "amount",
              "type": "uint256"
            }
          ],
          "internalType": "struct IPool.TokenAmount[]",
          "name": "minWithdrawals",
          "type": "tuple[]"
        }
      ],
      "name": "burnLiquidity",
      "outputs": [],
      "stateMutability": "nonpayable",
      "type": "function"
    },
    {
      "inputs": [
        {
          "internalType": "address",
          "name": "pool",
          "type": "address"
        },
        {
          "internalType": "uint256",
          "name": "liquidity",
          "type": "uint256"
        },
        {
          "internalType": "bytes",
          "name": "data",
          "type": "bytes"
        },
        {
          "internalType": "uint256",
          "name": "minWithdrawal",
          "type": "uint256"
        }
      ],
      "name": "burnLiquiditySingle",
      "outputs": [],
      "stateMutability": "nonpayable",
      "type": "function"
    },
    {
      "inputs": [
        {
          "components": [
            {
              "components": [
                {
                  "internalType": "address",
                  "name": "tokenIn",
                  "type": "address"
                },
                {
                  "internalType": "address",
                  "name": "pool",
                  "type": "address"
                },
                {
                  "internalType": "bool",
                  "name": "native",
                  "type": "bool"
                },
                {
                  "internalType": "uint256",
                  "name": "amount",
                  "type": "uint256"
                },
                {
                  "internalType": "bytes",
                  "name": "data",
                  "type": "bytes"
                }
              ],
              "internalType": "struct ITridentRouter.InitialPath[]",
              "name": "initialPath",
              "type": "tuple[]"
            },
            {
              "components": [
                {
                  "internalType": "address",
                  "name": "tokenIn",
                  "type": "address"
                },
                {
                  "internalType": "address",
                  "name": "pool",
                  "type": "address"
                },
                {
                  "internalType": "uint64",
                  "name": "balancePercentage",
                  "type": "uint64"
                },
                {
                  "internalType": "bytes",
                  "name": "data",
                  "type": "bytes"
                }
              ],
              "internalType": "struct ITridentRouter.PercentagePath[]",
              "name": "percentagePath",
              "type": "tuple[]"
            },
            {
              "components": [
                {
                  "internalType": "address",
                  "name": "token",
                  "type": "address"
                },
                {
                  "internalType": "address",
                  "name": "to",
                  "type": "address"
                },
                {
                  "internalType": "bool",
                  "name": "unwrapBento",
                  "type": "bool"
                },
                {
                  "internalType": "uint256",
                  "name": "minAmount",
                  "type": "uint256"
                }
              ],
              "internalType": "struct ITridentRouter.Output[]",
              "name": "output",
              "type": "tuple[]"
            }
          ],
          "internalType": "struct ITridentRouter.ComplexPathParams",
          "name": "params",
          "type": "tuple"
        }
      ],
      "name": "complexPath",
      "outputs": [],
      "stateMutability": "payable",
      "type": "function"
    },
    {
      "inputs": [
        {
          "components": [
            {
              "internalType": "address",
              "name": "tokenIn",
              "type": "address"
            },
            {
              "internalType": "uint256",
              "name": "amountIn",
              "type": "uint256"
            },
            {
              "internalType": "uint256",
              "name": "amountOutMinimum",
              "type": "uint256"
            },
            {
              "components": [
                {
                  "internalType": "address",
                  "name": "pool",
                  "type": "address"
                },
                {
                  "internalType": "bytes",
                  "name": "data",
                  "type": "bytes"
                }
              ],
              "internalType": "struct ITridentRouter.Path[]",
              "name": "path",
              "type": "tuple[]"
            }
          ],
          "internalType": "struct ITridentRouter.ExactInputParams",
          "name": "params",
          "type": "tuple"
        }
      ],
      "name": "exactInput",
      "outputs": [
        {
          "internalType": "uint256",
          "name": "amountOut",
          "type": "uint256"
        }
      ],
      "stateMutability": "payable",
      "type": "function"
    },
    {
      "inputs": [
        {
          "internalType": "uint256",
          "name": "amountOutMinimum",
          "type": "uint256"
        },
        {
          "components": [
            {
              "internalType": "address",
              "name": "pool",
              "type": "address"
            },
            {
              "internalType": "bytes",
              "name": "data",
              "type": "bytes"
            }
          ],
          "internalType": "struct ITridentRouter.Path[]",
          "name": "path",
          "type": "tuple[]"
        }
      ],
      "name": "exactInputLazy",
      "outputs": [
        {
          "internalType": "uint256",
          "name": "amountOut",
          "type": "uint256"
        }
      ],
      "stateMutability": "payable",
      "type": "function"
    },
    {
      "inputs": [
        {
          "components": [
            {
              "internalType": "uint256",
              "name": "amountIn",
              "type": "uint256"
            },
            {
              "internalType": "uint256",
              "name": "amountOutMinimum",
              "type": "uint256"
            },
            {
              "internalType": "address",
              "name": "pool",
              "type": "address"
            },
            {
              "internalType": "address",
              "name": "tokenIn",
              "type": "address"
            },
            {
              "internalType": "bytes",
              "name": "data",
              "type": "bytes"
            }
          ],
          "internalType": "struct ITridentRouter.ExactInputSingleParams",
          "name": "params",
          "type": "tuple"
        }
      ],
      "name": "exactInputSingle",
      "outputs": [
        {
          "internalType": "uint256",
          "name": "amountOut",
          "type": "uint256"
        }
      ],
      "stateMutability": "payable",
      "type": "function"
    },
    {
      "inputs": [
        {
          "components": [
            {
              "internalType": "uint256",
              "name": "amountIn",
              "type": "uint256"
            },
            {
              "internalType": "uint256",
              "name": "amountOutMinimum",
              "type": "uint256"
            },
            {
              "internalType": "address",
              "name": "pool",
              "type": "address"
            },
            {
              "internalType": "address",
              "name": "tokenIn",
              "type": "address"
            },
            {
              "internalType": "bytes",
              "name": "data",
              "type": "bytes"
            }
          ],
          "internalType": "struct ITridentRouter.ExactInputSingleParams",
          "name": "params",
          "type": "tuple"
        }
      ],
      "name": "exactInputSingleWithNativeToken",
      "outputs": [
        {
          "internalType": "uint256",
          "name": "amountOut",
          "type": "uint256"
        }
      ],
      "stateMutability": "payable",
      "type": "function"
    },
    {
      "inputs": [
        {
          "components": [
            {
              "internalType": "address",
              "name": "tokenIn",
              "type": "address"
            },
            {
              "internalType": "uint256",
              "name": "amountIn",
              "type": "uint256"
            },
            {
              "internalType": "uint256",
              "name": "amountOutMinimum",
              "type": "uint256"
            },
            {
              "components": [
                {
                  "internalType": "address",
                  "name": "pool",
                  "type": "address"
                },
                {
                  "internalType": "bytes",
                  "name": "data",
                  "type": "bytes"
                }
              ],
              "internalType": "struct ITridentRouter.Path[]",
              "name": "path",
              "type": "tuple[]"
            }
          ],
          "internalType": "struct ITridentRouter.ExactInputParams",
          "name": "params",
          "type": "tuple"
        }
      ],
      "name": "exactInputWithNativeToken",
      "outputs": [
        {
          "internalType": "uint256",
          "name": "amountOut",
          "type": "uint256"
        }
      ],
      "stateMutability": "payable",
      "type": "function"
    },
    {
      "inputs": [],
      "name": "masterDeployer",
      "outputs": [
        {
          "internalType": "contract MasterDeployer",
          "name": "",
          "type": "address"
        }
      ],
      "stateMutability": "view",
      "type": "function"
    },
    {
      "inputs": [
        {
          "internalType": "address",
          "name": "token",
          "type": "address"
        },
        {
          "internalType": "uint256",
          "name": "amount",
          "type": "uint256"
        },
        {
          "internalType": "uint256",
          "name": "deadline",
          "type": "uint256"
        },
        {
          "internalType": "uint8",
          "name": "v",
          "type": "uint8"
        },
        {
          "internalType": "bytes32",
          "name": "r",
          "type": "bytes32"
        },
        {
          "internalType": "bytes32",
          "name": "s",
          "type": "bytes32"
        }
      ],
      "name": "permitThis",
      "outputs": [],
      "stateMutability": "nonpayable",
      "type": "function"
    },
    {
      "inputs": [
        {
          "internalType": "address",
          "name": "token",
          "type": "address"
        },
        {
          "internalType": "uint256",
          "name": "nonce",
          "type": "uint256"
        },
        {
          "internalType": "uint256",
          "name": "expiry",
          "type": "uint256"
        },
        {
          "internalType": "uint8",
          "name": "v",
          "type": "uint8"
        },
        {
          "internalType": "bytes32",
          "name": "r",
          "type": "bytes32"
        },
        {
          "internalType": "bytes32",
          "name": "s",
          "type": "bytes32"
        }
      ],
      "name": "permitThisAllowed",
      "outputs": [],
      "stateMutability": "nonpayable",
      "type": "function"
    },
    {
      "inputs": [],
      "name": "refundETH",
      "outputs": [],
      "stateMutability": "payable",
      "type": "function"
    },
    {
      "inputs": [
        {
          "internalType": "address",
          "name": "token",
          "type": "address"
        },
        {
          "internalType": "uint256",
          "name": "amount",
          "type": "uint256"
        },
        {
          "internalType": "address",
          "name": "recipient",
          "type": "address"
        }
      ],
      "name": "sweepBentoBoxToken",
      "outputs": [],
      "stateMutability": "nonpayable",
      "type": "function"
    },
    {
      "inputs": [
        {
          "internalType": "address",
          "name": "token",
          "type": "address"
        },
        {
          "internalType": "uint256",
          "name": "amount",
          "type": "uint256"
        },
        {
          "internalType": "address",
          "name": "recipient",
          "type": "address"
        }
      ],
      "name": "sweepNativeToken",
      "outputs": [],
      "stateMutability": "nonpayable",
      "type": "function"
    },
    {
      "inputs": [
        {
          "internalType": "bytes",
          "name": "data",
          "type": "bytes"
        }
      ],
      "name": "tridentMintCallback",
      "outputs": [],
      "stateMutability": "nonpayable",
      "type": "function"
    },
    {
      "inputs": [
        {
          "internalType": "bytes",
          "name": "data",
          "type": "bytes"
        }
      ],
      "name": "tridentSwapCallback",
      "outputs": [],
      "stateMutability": "nonpayable",
      "type": "function"
    },
    {
      "inputs": [
        {
          "internalType": "uint256",
          "name": "amountMinimum",
          "type": "uint256"
        },
        {
          "internalType": "address",
          "name": "recipient",
          "type": "address"
        }
      ],
      "name": "unwrapWETH",
      "outputs": [],
      "stateMutability": "nonpayable",
      "type": "function"
    },
    {
      "stateMutability": "payable",
      "type": "receive"
    }
  ],
  "transactionHash": "0xb0fccb6190dc6c64d6baaf6d56d86e9e0848dec19037bb55bcd5c509caae6dc0",
  "args": [
    "0x9A0D9920D92c178a58D99B455898Df2df22A2eE4",
    "0xa2A7Aa74cb94f37221FD49F5BA6F3fF876092700",
    "0xd0A1E359811322d97991E03f863a0C30C2cF029C"
  ],
  "solcInputHash": "5b26bd138dbf575502052224cfa03b4c",
  "bytecode": "0x60e06040523480156200001157600080fd5b5060405162005781380380620057818339810160408190526200003491620000c2565b6001600160601b0319606082901b166080526040805163577268d960e11b815290516001600160a01b0385169163aee4d1b291600480830192600092919082900301818387803b1580156200008857600080fd5b505af11580156200009d573d6000803e3d6000fd5b5050505050606091821b6001600160601b031990811660a052911b1660c0526200012f565b600080600060608486031215620000d857600080fd5b8351620000e58162000116565b6020850151909350620000f88162000116565b60408501519092506200010b8162000116565b809150509250925092565b6001600160a01b03811681146200012c57600080fd5b50565b60805160601c60a05160601c60c05160601c61552b62000256600039600081816103fa015281816104c601528181610a1e01528181610c35015281816114c10152818161178501528181611cb701528181612135015281816126570152612bda015260008181610288015281816107d401528181611388015281816118e201528181612088015281816124de0152818161290201528181612a8d01528181612e9501528181612faa0152818161318f015281816132f6015281816135620152818161371e01528181613a0201528181613aea01528181613bca015281816140cc015281816141b4015261429e01526000818161018b015281816138840152818161392f015281816139c901528181613ff901528181614093015261448c015261552b6000f3fe60806040526004361061016e5760003560e01c8063783312d9116100cb578063a9b62c231161007f578063ced10b4911610059578063ced10b49146103c8578063cf58879a146103e8578063e16d9ce51461041c57600080fd5b8063a9b62c2314610375578063b96c5c0e14610395578063bd50c7b1146103a857600080fd5b806394ae4ab2116100b057806394ae4ab21461032f5780639bdd92311461034f5780639fa744911461036257600080fd5b8063783312d9146102ef5780639128efda1461030f57600080fd5b80631e897afb116101225780632cfcb94f116101075780632cfcb94f146102635780634da318271461027657806377631981146102cf57600080fd5b80631e897afb146102305780632c0d9a011461025057600080fd5b806312210e8a1161015357806312210e8a146101f55780631aa349a8146101fd5780631ab5d6c81461021d57600080fd5b80630b0d1b1e146101bc5780630f93d439146101e257600080fd5b366101b7573373ffffffffffffffffffffffffffffffffffffffff7f000000000000000000000000000000000000000000000000000000000000000016146101b557600080fd5b005b600080fd5b6101cf6101ca366004614d01565b61043c565b6040519081526020015b60405180910390f35b6101cf6101f0366004614d3c565b6107bb565b6101b56109c7565b34801561020957600080fd5b506101b561021836600461491a565b6109d9565b6101cf61022b366004614ddc565b610c27565b61024361023e3660046149e0565b610fe2565b6040516101d99190614edf565b6101cf61025e366004614d01565b61136f565b6101cf610271366004614b1b565b61173d565b34801561028257600080fd5b506102aa7f000000000000000000000000000000000000000000000000000000000000000081565b60405173ffffffffffffffffffffffffffffffffffffffff90911681526020016101d9565b3480156102db57600080fd5b506101b56102ea36600461497e565b611b0c565b3480156102fb57600080fd5b506101b561030a36600461480b565b611c72565b34801561031b57600080fd5b506101b561032a3660046147c9565b61202e565b34801561033b57600080fd5b506101b561034a3660046147c9565b6120e0565b6101b561035d366004614774565b6120f0565b6101cf610370366004614d3c565b612321565b34801561038157600080fd5b506101b561039036600461497e565b61235d565b6101b56103a3366004614cc6565b6123bb565b3480156103b457600080fd5b506101b56103c3366004614bde565b613433565b3480156103d457600080fd5b506101b56103e3366004614bde565b6135f1565b3480156103f457600080fd5b506102aa7f000000000000000000000000000000000000000000000000000000000000000081565b34801561042857600080fd5b506101b5610437366004614dac565b61387d565b600061049661044e6020840184614757565b61045b6060850185614fbf565b600081811061046c5761046c615464565b905060200281019061047e9190615128565b61048c906020810190614757565b846020013561392d565b60005b6104a66060840184614fbf565b90508110156107475773ffffffffffffffffffffffffffffffffffffffff7f00000000000000000000000000000000000000000000000000000000000000001663a4063dbc6104f86060860186614fbf565b8481811061050857610508615464565b905060200281019061051a9190615128565b610528906020810190614757565b6040517fffffffff0000000000000000000000000000000000000000000000000000000060e084901b16815273ffffffffffffffffffffffffffffffffffffffff909116600482015260240160206040518083038186803b15801561058c57600080fd5b505afa1580156105a0573d6000803e3d6000fd5b505050506040513d601f19601f820116820180604052508101906105c49190614bc1565b61062f576040517f08c379a000000000000000000000000000000000000000000000000000000000815260206004820152600c60248201527f494e56414c49445f504f4f4c000000000000000000000000000000000000000060448201526064015b60405180910390fd5b61063c6060840184614fbf565b8281811061064c5761064c615464565b905060200281019061065e9190615128565b61066c906020810190614757565b73ffffffffffffffffffffffffffffffffffffffff1663627dd56a6106946060860186614fbf565b848181106106a4576106a4615464565b90506020028101906106b69190615128565b6106c490602081019061508f565b6040518363ffffffff1660e01b81526004016106e1929190614f5f565b602060405180830381600087803b1580156106fb57600080fd5b505af115801561070f573d6000803e3d6000fd5b505050506040513d601f19601f820116820180604052508101906107339190614d93565b91508061073f816153fc565b915050610499565b5081604001358110156107b6576040517f08c379a000000000000000000000000000000000000000000000000000000000815260206004820152601360248201527f544f4f5f4c4954544c455f5245434549564544000000000000000000000000006044820152606401610626565b919050565b600073ffffffffffffffffffffffffffffffffffffffff7f00000000000000000000000000000000000000000000000000000000000000001663f18d03cc6108096080850160608601614757565b3361081a6060870160408801614757565b6040517fffffffff0000000000000000000000000000000000000000000000000000000060e086901b16815273ffffffffffffffffffffffffffffffffffffffff93841660048201529183166024830152909116604482015284356064820152608401600060405180830381600087803b15801561089757600080fd5b505af11580156108ab573d6000803e3d6000fd5b506108c0925050506060830160408401614757565b73ffffffffffffffffffffffffffffffffffffffff1663627dd56a6108e8608085018561508f565b6040518363ffffffff1660e01b8152600401610905929190614f5f565b602060405180830381600087803b15801561091f57600080fd5b505af1158015610933573d6000803e3d6000fd5b505050506040513d601f19601f820116820180604052508101906109579190614d93565b905081602001358110156107b6576040517f08c379a000000000000000000000000000000000000000000000000000000000815260206004820152601360248201527f544f4f5f4c4954544c455f5245434549564544000000000000000000000000006044820152606401610626565b47156109d7576109d73347613c4c565b565b6040517fa4063dbc00000000000000000000000000000000000000000000000000000000815273ffffffffffffffffffffffffffffffffffffffff86811660048301527f0000000000000000000000000000000000000000000000000000000000000000169063a4063dbc9060240160206040518083038186803b158015610a6057600080fd5b505afa158015610a74573d6000803e3d6000fd5b505050506040513d601f19601f82011682018060405250810190610a989190614bc1565b610afe576040517f08c379a000000000000000000000000000000000000000000000000000000000815260206004820152600c60248201527f494e56414c49445f504f4f4c00000000000000000000000000000000000000006044820152606401610626565b610b0a85338787613d16565b6040517faf8c09bf00000000000000000000000000000000000000000000000000000000815260009073ffffffffffffffffffffffffffffffffffffffff87169063af8c09bf90610b619087908790600401614f5f565b602060405180830381600087803b158015610b7b57600080fd5b505af1158015610b8f573d6000803e3d6000fd5b505050506040513d601f19601f82011682018060405250810190610bb39190614d93565b905081811015610c1f576040517f08c379a000000000000000000000000000000000000000000000000000000000815260206004820152601360248201527f544f4f5f4c4954544c455f5245434549564544000000000000000000000000006044820152606401610626565b505050505050565b6000805b82811015610f46577f000000000000000000000000000000000000000000000000000000000000000073ffffffffffffffffffffffffffffffffffffffff1663a4063dbc858584818110610c8157610c81615464565b9050602002810190610c939190615128565b610ca1906020810190614757565b6040517fffffffff0000000000000000000000000000000000000000000000000000000060e084901b16815273ffffffffffffffffffffffffffffffffffffffff909116600482015260240160206040518083038186803b158015610d0557600080fd5b505afa158015610d19573d6000803e3d6000fd5b505050506040513d601f19601f82011682018060405250810190610d3d9190614bc1565b610da3576040517f08c379a000000000000000000000000000000000000000000000000000000000815260206004820152600c60248201527f494e56414c49445f504f4f4c00000000000000000000000000000000000000006044820152606401610626565b600080547fffffffffffffffffffffffff00000000000000000000000000000000000000001633179055838382818110610ddf57610ddf615464565b9050602002810190610df19190615128565b610dff906020810190614757565b600180547fffffffffffffffffffffffff00000000000000000000000000000000000000001673ffffffffffffffffffffffffffffffffffffffff92909216919091179055838382818110610e5657610e56615464565b9050602002810190610e689190615128565b610e76906020810190614757565b73ffffffffffffffffffffffffffffffffffffffff1663053da1c8858584818110610ea357610ea3615464565b9050602002810190610eb59190615128565b610ec390602081019061508f565b6040518363ffffffff1660e01b8152600401610ee0929190614f5f565b602060405180830381600087803b158015610efa57600080fd5b505af1158015610f0e573d6000803e3d6000fd5b505050506040513d601f19601f82011682018060405250810190610f329190614d93565b915080610f3e816153fc565b915050610c2b565b50600180547fffffffffffffffffffffffff0000000000000000000000000000000000000000168117905583811015610fdb576040517f08c379a000000000000000000000000000000000000000000000000000000000815260206004820152601360248201527f544f4f5f4c4954544c455f5245434549564544000000000000000000000000006044820152606401610626565b9392505050565b60608167ffffffffffffffff811115610ffd57610ffd615493565b60405190808252806020026020018201604052801561103057816020015b606081526020019060019003908161101b5790505b5090506000805b838110156113675760006110a286868481811061105657611056615464565b9050602002810190611068919061508f565b8080601f016020809104026020016040519081016040528093929190818152602001838380828437600092019190915250613e8792505050565b90507fffffffff0000000000000000000000000000000000000000000000000000000081167f0f93d43900000000000000000000000000000000000000000000000000000000148061113557507fffffffff0000000000000000000000000000000000000000000000000000000081167f9fa7449100000000000000000000000000000000000000000000000000000000145b156111ab5782156111a2576040517f08c379a000000000000000000000000000000000000000000000000000000000815260206004820152601160248201527f537761702063616c6c65642074776963650000000000000000000000000000006044820152606401610626565b60019250611257565b7fffffffff0000000000000000000000000000000000000000000000000000000081167f1e897afb000000000000000000000000000000000000000000000000000000001415611257576040517f08c379a000000000000000000000000000000000000000000000000000000000815260206004820152600c60248201527f4e657374656420426174636800000000000000000000000000000000000000006044820152606401610626565b6000803088888681811061126d5761126d615464565b905060200281019061127f919061508f565b60405161128d929190614eb3565b600060405180830381855af49150503d80600081146112c8576040519150601f19603f3d011682016040523d82523d6000602084013e6112cd565b606091505b509150915081611333576044815110156112e657600080fd5b600481019050808060200190518101906113009190614c14565b6040517f08c379a00000000000000000000000000000000000000000000000000000000081526004016106269190614fac565b8086858151811061134657611346615464565b6020026020010181905250505050808061135f906153fc565b915050611037565b505092915050565b600073ffffffffffffffffffffffffffffffffffffffff7f00000000000000000000000000000000000000000000000000000000000000001663f18d03cc6113ba6020850185614757565b336113c86060870187614fbf565b60008181106113d9576113d9615464565b90506020028101906113eb9190615128565b6113f9906020810190614757565b60405160e085901b7fffffffff0000000000000000000000000000000000000000000000000000000016815273ffffffffffffffffffffffffffffffffffffffff93841660048201529183166024830152909116604482015260208501356064820152608401600060405180830381600087803b15801561147957600080fd5b505af115801561148d573d6000803e3d6000fd5b5050505060005b6114a16060840184614fbf565b90508110156107475773ffffffffffffffffffffffffffffffffffffffff7f00000000000000000000000000000000000000000000000000000000000000001663a4063dbc6114f36060860186614fbf565b8481811061150357611503615464565b90506020028101906115159190615128565b611523906020810190614757565b6040517fffffffff0000000000000000000000000000000000000000000000000000000060e084901b16815273ffffffffffffffffffffffffffffffffffffffff909116600482015260240160206040518083038186803b15801561158757600080fd5b505afa15801561159b573d6000803e3d6000fd5b505050506040513d601f19601f820116820180604052508101906115bf9190614bc1565b611625576040517f08c379a000000000000000000000000000000000000000000000000000000000815260206004820152600c60248201527f494e56414c49445f504f4f4c00000000000000000000000000000000000000006044820152606401610626565b6116326060840184614fbf565b8281811061164257611642615464565b90506020028101906116549190615128565b611662906020810190614757565b73ffffffffffffffffffffffffffffffffffffffff1663627dd56a61168a6060860186614fbf565b8481811061169a5761169a615464565b90506020028101906116ac9190615128565b6116ba90602081019061508f565b6040518363ffffffff1660e01b81526004016116d7929190614f5f565b602060405180830381600087803b1580156116f157600080fd5b505af1158015611705573d6000803e3d6000fd5b505050506040513d601f19601f820116820180604052508101906117299190614d93565b915080611735816153fc565b915050611494565b6040517fa4063dbc00000000000000000000000000000000000000000000000000000000815273ffffffffffffffffffffffffffffffffffffffff85811660048301526000917f00000000000000000000000000000000000000000000000000000000000000009091169063a4063dbc9060240160206040518083038186803b1580156117c957600080fd5b505afa1580156117dd573d6000803e3d6000fd5b505050506040513d601f19601f820116820180604052508101906118019190614bc1565b611867576040517f08c379a000000000000000000000000000000000000000000000000000000000815260206004820152600c60248201527f494e56414c49445f504f4f4c00000000000000000000000000000000000000006044820152606401610626565b60005b86518110156119f05786818151811061188557611885615464565b602002602001015160200151156118e0576118db8782815181106118ab576118ab615464565b602002602001015160000151878984815181106118ca576118ca615464565b60200260200101516040015161392d565b6119de565b7f000000000000000000000000000000000000000000000000000000000000000073ffffffffffffffffffffffffffffffffffffffff1663f18d03cc88838151811061192e5761192e615464565b60200260200101516000015133898b868151811061194e5761194e615464565b6020026020010151604001516040518563ffffffff1660e01b81526004016119ab949392919073ffffffffffffffffffffffffffffffffffffffff9485168152928416602084015292166040820152606081019190915260800190565b600060405180830381600087803b1580156119c557600080fd5b505af11580156119d9573d6000803e3d6000fd5b505050505b806119e8816153fc565b91505061186a565b506040517f7ba0e2e700000000000000000000000000000000000000000000000000000000815273ffffffffffffffffffffffffffffffffffffffff861690637ba0e2e790611a459086908690600401614f5f565b602060405180830381600087803b158015611a5f57600080fd5b505af1158015611a73573d6000803e3d6000fd5b505050506040513d601f19601f82011682018060405250810190611a979190614d93565b905083811015611b03576040517f08c379a000000000000000000000000000000000000000000000000000000000815260206004820152601b60248201527f4e4f545f454e4f5547485f4c49515549444954595f4d494e54454400000000006044820152606401610626565b95945050505050565b6040513360248201523060448201526064810186905260848101859052600160a482015260ff841660c482015260e48101839052610104810182905260009073ffffffffffffffffffffffffffffffffffffffff881690638fcbaf0c90610124015b6040516020818303038152906040529060e01b6020820180517bffffffffffffffffffffffffffffffffffffffffffffffffffffffff8381831617835250505050604051611bbc9190614ec3565b6000604051808303816000865af19150503d8060008114611bf9576040519150601f19603f3d011682016040523d82523d6000602084013e611bfe565b606091505b5050905080611c69576040517f08c379a000000000000000000000000000000000000000000000000000000000815260206004820152600d60248201527f5045524d49545f4641494c4544000000000000000000000000000000000000006044820152606401610626565b50505050505050565b6040517fa4063dbc00000000000000000000000000000000000000000000000000000000815273ffffffffffffffffffffffffffffffffffffffff86811660048301527f0000000000000000000000000000000000000000000000000000000000000000169063a4063dbc9060240160206040518083038186803b158015611cf957600080fd5b505afa158015611d0d573d6000803e3d6000fd5b505050506040513d601f19601f82011682018060405250810190611d319190614bc1565b611d97576040517f08c379a000000000000000000000000000000000000000000000000000000000815260206004820152600c60248201527f494e56414c49445f504f4f4c00000000000000000000000000000000000000006044820152606401610626565b611da385338787613d16565b6040517f2a07b6c700000000000000000000000000000000000000000000000000000000815260009073ffffffffffffffffffffffffffffffffffffffff871690632a07b6c790611dfa9087908790600401614f5f565b600060405180830381600087803b158015611e1457600080fd5b505af1158015611e28573d6000803e3d6000fd5b505050506040513d6000823e601f3d9081017fffffffffffffffffffffffffffffffffffffffffffffffffffffffffffffffe0168201604052611e6e9190810190614a22565b905060005b8251811015611c695760005b8251811015611fb157838281518110611e9a57611e9a615464565b60200260200101516000015173ffffffffffffffffffffffffffffffffffffffff16838281518110611ece57611ece615464565b60200260200101516000015173ffffffffffffffffffffffffffffffffffffffff161415611f9f57838281518110611f0857611f08615464565b602002602001015160200151838281518110611f2657611f26615464565b6020026020010151602001511015611f9a576040517f08c379a000000000000000000000000000000000000000000000000000000000815260206004820152601360248201527f544f4f5f4c4954544c455f5245434549564544000000000000000000000000006044820152606401610626565b611fb1565b80611fa9816153fc565b915050611e7f565b8251811061201b576040517f08c379a000000000000000000000000000000000000000000000000000000000815260206004820152601960248201527f494e434f52524543545f544f4b454e5f57495448445241574e000000000000006044820152606401610626565b5080612026816153fc565b915050611e73565b6040517ff18d03cc00000000000000000000000000000000000000000000000000000000815273ffffffffffffffffffffffffffffffffffffffff84811660048301523060248301528281166044830152606482018490527f0000000000000000000000000000000000000000000000000000000000000000169063f18d03cc90608401600060405180830381600087803b1580156120cc57600080fd5b505af1158015611c69573d6000803e3d6000fd5b6120eb838284613e8e565b505050565b6040517fa4063dbc00000000000000000000000000000000000000000000000000000000815273ffffffffffffffffffffffffffffffffffffffff84811660048301527f0000000000000000000000000000000000000000000000000000000000000000169063a4063dbc9060240160206040518083038186803b15801561217757600080fd5b505afa15801561218b573d6000803e3d6000fd5b505050506040513d601f19601f820116820180604052508101906121af9190614bc1565b612215576040517f08c379a000000000000000000000000000000000000000000000000000000000815260206004820152600c60248201527f494e56414c49445f504f4f4c00000000000000000000000000000000000000006044820152606401610626565b600080547fffffffffffffffffffffffff000000000000000000000000000000000000000090811633179091556001805473ffffffffffffffffffffffffffffffffffffffff86169216821790556040517f7ba0e2e7000000000000000000000000000000000000000000000000000000008152637ba0e2e79061229f9085908590600401614f5f565b602060405180830381600087803b1580156122b957600080fd5b505af11580156122cd573d6000803e3d6000fd5b505050506040513d601f19601f820116820180604052508101906122f19190614d93565b5050600180547fffffffffffffffffffffffff000000000000000000000000000000000000000016811790555050565b600061234d6123366080840160608501614757565b6123466060850160408601614757565b843561392d565b6108c06060830160408401614757565b604051336024820152306044820152606481018690526084810185905260ff841660a482015260c4810183905260e4810182905260009073ffffffffffffffffffffffffffffffffffffffff88169063d505accf9061010401611b6e565b60005b6123c88280614fbf565b90508110156128cf576123db8280614fbf565b828181106123eb576123eb615464565b90506020028101906123fd91906150f4565b61240e906060810190604001614ba4565b156124c7576124c26124208380614fbf565b8381811061243057612430615464565b905060200281019061244291906150f4565b612450906020810190614757565b61245a8480614fbf565b8481811061246a5761246a615464565b905060200281019061247c91906150f4565b61248d906040810190602001614757565b6124978580614fbf565b858181106124a7576124a7615464565b90506020028101906124b991906150f4565b6060013561392d565b612640565b73ffffffffffffffffffffffffffffffffffffffff7f00000000000000000000000000000000000000000000000000000000000000001663f18d03cc61250d8480614fbf565b8481811061251d5761251d615464565b905060200281019061252f91906150f4565b61253d906020810190614757565b336125488680614fbf565b8681811061255857612558615464565b905060200281019061256a91906150f4565b61257b906040810190602001614757565b6125858780614fbf565b8781811061259557612595615464565b90506020028101906125a791906150f4565b60405160e086901b7fffffffff0000000000000000000000000000000000000000000000000000000016815273ffffffffffffffffffffffffffffffffffffffff94851660048201529284166024840152921660448201526060909101356064820152608401600060405180830381600087803b15801561262757600080fd5b505af115801561263b573d6000803e3d6000fd5b505050505b73ffffffffffffffffffffffffffffffffffffffff7f00000000000000000000000000000000000000000000000000000000000000001663a4063dbc6126868480614fbf565b8481811061269657612696615464565b90506020028101906126a891906150f4565b6126b9906040810190602001614757565b6040517fffffffff0000000000000000000000000000000000000000000000000000000060e084901b16815273ffffffffffffffffffffffffffffffffffffffff909116600482015260240160206040518083038186803b15801561271d57600080fd5b505afa158015612731573d6000803e3d6000fd5b505050506040513d601f19601f820116820180604052508101906127559190614bc1565b6127bb576040517f08c379a000000000000000000000000000000000000000000000000000000000815260206004820152600c60248201527f494e56414c49445f504f4f4c00000000000000000000000000000000000000006044820152606401610626565b6127c58280614fbf565b828181106127d5576127d5615464565b90506020028101906127e791906150f4565b6127f8906040810190602001614757565b73ffffffffffffffffffffffffffffffffffffffff1663627dd56a61281d8480614fbf565b8481811061282d5761282d615464565b905060200281019061283f91906150f4565b61284d90608081019061508f565b6040518363ffffffff1660e01b815260040161286a929190614f5f565b602060405180830381600087803b15801561288457600080fd5b505af1158015612898573d6000803e3d6000fd5b505050506040513d601f19601f820116820180604052508101906128bc9190614d93565b50806128c7816153fc565b9150506123be565b5060005b6128e06020830183614fbf565b9050811015612e6257600073ffffffffffffffffffffffffffffffffffffffff7f00000000000000000000000000000000000000000000000000000000000000001663f7888aec6129346020860186614fbf565b8581811061294457612944615464565b9050602002810190612956919061515c565b612964906020810190614757565b6040517fffffffff0000000000000000000000000000000000000000000000000000000060e084901b16815273ffffffffffffffffffffffffffffffffffffffff909116600482015230602482015260440160206040518083038186803b1580156129ce57600080fd5b505afa1580156129e2573d6000803e3d6000fd5b505050506040513d601f19601f82011682018060405250810190612a069190614d93565b90506000612a166006600a6152c8565b612a236020860186614fbf565b85818110612a3357612a33615464565b9050602002810190612a45919061515c565b612a56906060810190604001614e3f565b612a6a9067ffffffffffffffff1684615393565b612a74919061522c565b905073ffffffffffffffffffffffffffffffffffffffff7f00000000000000000000000000000000000000000000000000000000000000001663f18d03cc612abf6020870187614fbf565b86818110612acf57612acf615464565b9050602002810190612ae1919061515c565b612aef906020810190614757565b30612afd6020890189614fbf565b88818110612b0d57612b0d615464565b9050602002810190612b1f919061515c565b612b30906040810190602001614757565b60405160e085901b7fffffffff0000000000000000000000000000000000000000000000000000000016815273ffffffffffffffffffffffffffffffffffffffff93841660048201529183166024830152909116604482015260648101849052608401600060405180830381600087803b158015612bad57600080fd5b505af1158015612bc1573d6000803e3d6000fd5b505073ffffffffffffffffffffffffffffffffffffffff7f000000000000000000000000000000000000000000000000000000000000000016915063a4063dbc9050612c106020870187614fbf565b86818110612c2057612c20615464565b9050602002810190612c32919061515c565b612c43906040810190602001614757565b6040517fffffffff0000000000000000000000000000000000000000000000000000000060e084901b16815273ffffffffffffffffffffffffffffffffffffffff909116600482015260240160206040518083038186803b158015612ca757600080fd5b505afa158015612cbb573d6000803e3d6000fd5b505050506040513d601f19601f82011682018060405250810190612cdf9190614bc1565b612d45576040517f08c379a000000000000000000000000000000000000000000000000000000000815260206004820152600c60248201527f494e56414c49445f504f4f4c00000000000000000000000000000000000000006044820152606401610626565b612d526020850185614fbf565b84818110612d6257612d62615464565b9050602002810190612d74919061515c565b612d85906040810190602001614757565b73ffffffffffffffffffffffffffffffffffffffff1663627dd56a612dad6020870187614fbf565b86818110612dbd57612dbd615464565b9050602002810190612dcf919061515c565b612ddd90606081019061508f565b6040518363ffffffff1660e01b8152600401612dfa929190614f5f565b602060405180830381600087803b158015612e1457600080fd5b505af1158015612e28573d6000803e3d6000fd5b505050506040513d601f19601f82011682018060405250810190612e4c9190614d93565b5050508080612e5a906153fc565b9150506128d3565b5060005b612e736040830183615027565b905081101561342f57600073ffffffffffffffffffffffffffffffffffffffff7f00000000000000000000000000000000000000000000000000000000000000001663f7888aec612ec76040860186615027565b85818110612ed757612ed7615464565b612eed9260206080909202019081019150614757565b6040517fffffffff0000000000000000000000000000000000000000000000000000000060e084901b16815273ffffffffffffffffffffffffffffffffffffffff909116600482015230602482015260440160206040518083038186803b158015612f5757600080fd5b505afa158015612f6b573d6000803e3d6000fd5b505050506040513d601f19601f82011682018060405250810190612f8f9190614d93565b9050600073ffffffffffffffffffffffffffffffffffffffff7f0000000000000000000000000000000000000000000000000000000000000000166356623118612fdc6040870187615027565b86818110612fec57612fec615464565b6130029260206080909202019081019150614757565b6040517fffffffff0000000000000000000000000000000000000000000000000000000060e084901b16815273ffffffffffffffffffffffffffffffffffffffff9091166004820152602481018590526000604482015260640160206040518083038186803b15801561307457600080fd5b505afa158015613088573d6000803e3d6000fd5b505050506040513d601f19601f820116820180604052508101906130ac9190614d93565b90506130bb6040850185615027565b848181106130cb576130cb615464565b9050608002016060013581101561313e576040517f08c379a000000000000000000000000000000000000000000000000000000000815260206004820152601360248201527f544f4f5f4c4954544c455f5245434549564544000000000000000000000000006044820152606401610626565b61314b6040850185615027565b8481811061315b5761315b615464565b90506080020160400160208101906131739190614ba4565b156132df5773ffffffffffffffffffffffffffffffffffffffff7f0000000000000000000000000000000000000000000000000000000000000000166397da6d306131c16040870187615027565b868181106131d1576131d1615464565b6131e79260206080909202019081019150614757565b306131f56040890189615027565b8881811061320557613205615464565b905060800201602001602081019061321d9190614757565b60405160e085901b7fffffffff0000000000000000000000000000000000000000000000000000000016815273ffffffffffffffffffffffffffffffffffffffff938416600482015291831660248301529091166044820152600060648201526084810185905260a4016040805180830381600087803b1580156132a057600080fd5b505af11580156132b4573d6000803e3d6000fd5b505050506040513d601f19601f820116820180604052508101906132d89190614e1b565b505061341a565b73ffffffffffffffffffffffffffffffffffffffff7f00000000000000000000000000000000000000000000000000000000000000001663f18d03cc6133286040870187615027565b8681811061333857613338615464565b61334e9260206080909202019081019150614757565b3061335c6040890189615027565b8881811061336c5761336c615464565b90506080020160200160208101906133849190614757565b60405160e085901b7fffffffff0000000000000000000000000000000000000000000000000000000016815273ffffffffffffffffffffffffffffffffffffffff93841660048201529183166024830152909116604482015260648101859052608401600060405180830381600087803b15801561340157600080fd5b505af1158015613415573d6000803e3d6000fd5b505050505b50508080613427906153fc565b915050612e66565b5050565b60015473ffffffffffffffffffffffffffffffffffffffff1633146134b4576040517f08c379a000000000000000000000000000000000000000000000000000000000815260206004820152601560248201527f554e415554484f52495a45445f43414c4c4241434b00000000000000000000006044820152606401610626565b60006134c282840184614d77565b905080602001511561350057805160005460408301516134fb929173ffffffffffffffffffffffffffffffffffffffff16903390613ff7565b6135c1565b805160005460408084015190517ff18d03cc00000000000000000000000000000000000000000000000000000000815273ffffffffffffffffffffffffffffffffffffffff9384166004820152918316602483015233604483015260648201527f00000000000000000000000000000000000000000000000000000000000000009091169063f18d03cc90608401600060405180830381600087803b1580156135a857600080fd5b505af11580156135bc573d6000803e3d6000fd5b505050505b5050600080547fffffffffffffffffffffffff000000000000000000000000000000000000000016600117905550565b60015473ffffffffffffffffffffffffffffffffffffffff163314613672576040517f08c379a000000000000000000000000000000000000000000000000000000000815260206004820152601560248201527f554e415554484f52495a45445f43414c4c4241434b00000000000000000000006044820152606401610626565b600061368082840184614ae6565b905060005b815181101561384c578181815181106136a0576136a0615464565b6020026020010151602001511561371c576137178282815181106136c6576136c6615464565b60200260200101516000015160008054906101000a900473ffffffffffffffffffffffffffffffffffffffff163385858151811061370657613706615464565b602002602001015160400151613ff7565b61383a565b7f000000000000000000000000000000000000000000000000000000000000000073ffffffffffffffffffffffffffffffffffffffff1663f18d03cc83838151811061376a5761376a615464565b60200260200101516000015160008054906101000a900473ffffffffffffffffffffffffffffffffffffffff16338686815181106137aa576137aa615464565b6020026020010151604001516040518563ffffffff1660e01b8152600401613807949392919073ffffffffffffffffffffffffffffffffffffffff9485168152928416602084015292166040820152606081019190915260800190565b600060405180830381600087803b15801561382157600080fd5b505af1158015613835573d6000803e3d6000fd5b505050505b80613844816153fc565b915050613685565b5050600080547fffffffffffffffffffffffff00000000000000000000000000000000000000001660011790555050565b60006138a87f000000000000000000000000000000000000000000000000000000000000000061431f565b905082811015613914576040517f08c379a000000000000000000000000000000000000000000000000000000000815260206004820152601160248201527f494e53554646494349454e545f574554480000000000000000000000000000006044820152606401610626565b80156120eb5761392381614487565b6120eb8282613c4c565b7f000000000000000000000000000000000000000000000000000000000000000073ffffffffffffffffffffffffffffffffffffffff168373ffffffffffffffffffffffffffffffffffffffff1614801561398757504715155b15613b69576040517f5662311800000000000000000000000000000000000000000000000000000000815273ffffffffffffffffffffffffffffffffffffffff7f00000000000000000000000000000000000000000000000000000000000000008116600483015260248201839052600160448301526000917f00000000000000000000000000000000000000000000000000000000000000009091169063566231189060640160206040518083038186803b158015613a4657600080fd5b505afa158015613a5a573d6000803e3d6000fd5b505050506040513d601f19601f82011682018060405250810190613a7e9190614d93565b9050804710613b67576040517f02b9446c00000000000000000000000000000000000000000000000000000000815260006004820181905230602483015273ffffffffffffffffffffffffffffffffffffffff85811660448401526064830191909152608482018490527f000000000000000000000000000000000000000000000000000000000000000016906302b9446c90839060a40160408051808303818588803b158015613b2e57600080fd5b505af1158015613b42573d6000803e3d6000fd5b50505050506040513d601f19601f82011682018060405250810190610c1f9190614e1b565b505b6040517f02b9446c00000000000000000000000000000000000000000000000000000000815273ffffffffffffffffffffffffffffffffffffffff8481166004830152336024830152838116604483015260006064830152608482018390527f000000000000000000000000000000000000000000000000000000000000000016906302b9446c9060a4016040805180830381600087803b158015613c0d57600080fd5b505af1158015613c21573d6000803e3d6000fd5b505050506040513d601f19601f82011682018060405250810190613c459190614e1b565b5050505050565b60008273ffffffffffffffffffffffffffffffffffffffff168260405160006040518083038185875af1925050503d8060008114613ca6576040519150601f19603f3d011682016040523d82523d6000602084013e613cab565b606091505b50509050806120eb576040517f08c379a000000000000000000000000000000000000000000000000000000000815260206004820152601360248201527f4554485f5452414e534645525f4641494c4544000000000000000000000000006044820152606401610626565b6040805173ffffffffffffffffffffffffffffffffffffffff85811660248301528481166044830152606480830185905283518084039091018152608490920183526020820180517bffffffffffffffffffffffffffffffffffffffffffffffffffffffff167f23b872dd000000000000000000000000000000000000000000000000000000001790529151600092839290881691613db59190614ec3565b6000604051808303816000865af19150503d8060008114613df2576040519150601f19603f3d011682016040523d82523d6000602084013e613df7565b606091505b5091509150818015613e21575080511580613e21575080806020019051810190613e219190614bc1565b610c1f576040517f08c379a000000000000000000000000000000000000000000000000000000000815260206004820152601460248201527f5452414e534645525f46524f4d5f4641494c45440000000000000000000000006044820152606401610626565b6020015190565b6040805173ffffffffffffffffffffffffffffffffffffffff8481166024830152604480830185905283518084039091018152606490920183526020820180517bffffffffffffffffffffffffffffffffffffffffffffffffffffffff167fa9059cbb000000000000000000000000000000000000000000000000000000001790529151600092839290871691613f259190614ec3565b6000604051808303816000865af19150503d8060008114613f62576040519150601f19603f3d011682016040523d82523d6000602084013e613f67565b606091505b5091509150818015613f91575080511580613f91575080806020019051810190613f919190614bc1565b613c45576040517f08c379a000000000000000000000000000000000000000000000000000000000815260206004820152600f60248201527f5452414e534645525f4641494c454400000000000000000000000000000000006044820152606401610626565b7f000000000000000000000000000000000000000000000000000000000000000073ffffffffffffffffffffffffffffffffffffffff168473ffffffffffffffffffffffffffffffffffffffff1614801561405157504715155b1561423b576040517f5662311800000000000000000000000000000000000000000000000000000000815273ffffffffffffffffffffffffffffffffffffffff7f00000000000000000000000000000000000000000000000000000000000000008116600483015260248201839052600160448301526000917f00000000000000000000000000000000000000000000000000000000000000009091169063566231189060640160206040518083038186803b15801561411057600080fd5b505afa158015614124573d6000803e3d6000fd5b505050506040513d601f19601f820116820180604052508101906141489190614d93565b9050804710614239576040517f02b9446c00000000000000000000000000000000000000000000000000000000815260006004820181905230602483015273ffffffffffffffffffffffffffffffffffffffff85811660448401526064830191909152608482018490527f000000000000000000000000000000000000000000000000000000000000000016906302b9446c90839060a40160408051808303818588803b1580156141f857600080fd5b505af115801561420c573d6000803e3d6000fd5b50505050506040513d601f19601f820116820180604052508101906142319190614e1b565b505050614319565b505b6040517f02b9446c00000000000000000000000000000000000000000000000000000000815273ffffffffffffffffffffffffffffffffffffffff85811660048301528481166024830152838116604483015260006064830152608482018390527f000000000000000000000000000000000000000000000000000000000000000016906302b9446c9060a4016040805180830381600087803b1580156142e157600080fd5b505af11580156142f5573d6000803e3d6000fd5b505050506040513d601f19601f82011682018060405250810190610c1f9190614e1b565b50505050565b604080513060248083019190915282518083039091018152604490910182526020810180517bffffffffffffffffffffffffffffffffffffffffffffffffffffffff167f70a082310000000000000000000000000000000000000000000000000000000017905290516000918291829173ffffffffffffffffffffffffffffffffffffffff8616916143b19190614ec3565b600060405180830381855afa9150503d80600081146143ec576040519150601f19603f3d011682016040523d82523d6000602084013e6143f1565b606091505b509150915081801561440557506020815110155b61446b576040517f08c379a000000000000000000000000000000000000000000000000000000000815260206004820152601160248201527f42414c414e43455f4f465f4641494c45440000000000000000000000000000006044820152606401610626565b8080602001905181019061447f9190614d93565b949350505050565b6000807f000000000000000000000000000000000000000000000000000000000000000073ffffffffffffffffffffffffffffffffffffffff16632e1a7d4d846040516024016144d991815260200190565b6040516020818303038152906040529060e01b6020820180517bffffffffffffffffffffffffffffffffffffffffffffffffffffffff83818316178352505050506040516145279190614ec3565b6000604051808303816000865af19150503d8060008114614564576040519150601f19603f3d011682016040523d82523d6000602084013e614569565b606091505b509150915081801561457d57506020815110155b6120eb576040517f08c379a000000000000000000000000000000000000000000000000000000000815260206004820152601960248201527f57495448445241575f46524f4d5f574554485f4641494c4544000000000000006044820152606401610626565b60008083601f8401126145f557600080fd5b50813567ffffffffffffffff81111561460d57600080fd5b6020830191508360208260051b850101111561462857600080fd5b9250929050565b600082601f83011261464057600080fd5b8135602061465561465083615208565b6151b9565b8281528181019085830160608086028801850189101561467457600080fd5b60005b8681101561469b576146898a846146eb565b85529385019391810191600101614677565b509198975050505050505050565b60008083601f8401126146bb57600080fd5b50813567ffffffffffffffff8111156146d357600080fd5b60208301915083602082850101111561462857600080fd5b6000606082840312156146fd57600080fd5b6040516060810181811067ffffffffffffffff8211171561472057614720615493565b6040529050808235614731816154c2565b81526020830135614741816154e7565b6020820152604092830135920191909152919050565b60006020828403121561476957600080fd5b8135610fdb816154c2565b60008060006040848603121561478957600080fd5b8335614794816154c2565b9250602084013567ffffffffffffffff8111156147b057600080fd5b6147bc868287016146a9565b9497909650939450505050565b6000806000606084860312156147de57600080fd5b83356147e9816154c2565b9250602084013591506040840135614800816154c2565b809150509250925092565b60008060008060006080868803121561482357600080fd5b853561482e816154c2565b9450602086810135945060408088013567ffffffffffffffff8082111561485457600080fd5b6148608b838c016146a9565b909750955060608a013591508082111561487957600080fd5b508801601f81018a1361488b57600080fd5b803561489961465082615208565b8082825285820191508584018d878560061b87010111156148b957600080fd5b600094505b838510156149065785818f0312156148d557600080fd5b6148dd615190565b81356148e8816154c2565b815281880135888201528352600194909401939186019185016148be565b508096505050505050509295509295909350565b60008060008060006080868803121561493257600080fd5b853561493d816154c2565b945060208601359350604086013567ffffffffffffffff81111561496057600080fd5b61496c888289016146a9565b96999598509660600135949350505050565b60008060008060008060c0878903121561499757600080fd5b86356149a2816154c2565b95506020870135945060408701359350606087013560ff811681146149c657600080fd5b9598949750929560808101359460a0909101359350915050565b600080602083850312156149f357600080fd5b823567ffffffffffffffff811115614a0a57600080fd5b614a16858286016145e3565b90969095509350505050565b60006020808385031215614a3557600080fd5b825167ffffffffffffffff811115614a4c57600080fd5b8301601f81018513614a5d57600080fd5b8051614a6b61465082615208565b80828252848201915084840188868560061b8701011115614a8b57600080fd5b60009450845b84811015614ad857604080838c031215614aa9578687fd5b614ab1615190565b8351614abc816154c2565b8152838901518982015285529387019390910190600101614a91565b509098975050505050505050565b600060208284031215614af857600080fd5b813567ffffffffffffffff811115614b0f57600080fd5b61447f8482850161462f565b600080600080600060808688031215614b3357600080fd5b853567ffffffffffffffff80821115614b4b57600080fd5b614b5789838a0161462f565b965060208801359150614b69826154c2565b9094506040870135935060608701359080821115614b8657600080fd5b50614b93888289016146a9565b969995985093965092949392505050565b600060208284031215614bb657600080fd5b8135610fdb816154e7565b600060208284031215614bd357600080fd5b8151610fdb816154e7565b60008060208385031215614bf157600080fd5b823567ffffffffffffffff811115614c0857600080fd5b614a16858286016146a9565b600060208284031215614c2657600080fd5b815167ffffffffffffffff80821115614c3e57600080fd5b818401915084601f830112614c5257600080fd5b815181811115614c6457614c64615493565b614c9560207fffffffffffffffffffffffffffffffffffffffffffffffffffffffffffffffe0601f840116016151b9565b9150808252856020828501011115614cac57600080fd5b614cbd8160208401602086016153d0565b50949350505050565b600060208284031215614cd857600080fd5b813567ffffffffffffffff811115614cef57600080fd5b820160608185031215610fdb57600080fd5b600060208284031215614d1357600080fd5b813567ffffffffffffffff811115614d2a57600080fd5b820160808185031215610fdb57600080fd5b600060208284031215614d4e57600080fd5b813567ffffffffffffffff811115614d6557600080fd5b820160a08185031215610fdb57600080fd5b600060608284031215614d8957600080fd5b610fdb83836146eb565b600060208284031215614da557600080fd5b5051919050565b60008060408385031215614dbf57600080fd5b823591506020830135614dd1816154c2565b809150509250929050565b600080600060408486031215614df157600080fd5b83359250602084013567ffffffffffffffff811115614e0f57600080fd5b6147bc868287016145e3565b60008060408385031215614e2e57600080fd5b505080516020909101519092909150565b600060208284031215614e5157600080fd5b813567ffffffffffffffff81168114610fdb57600080fd5b60008151808452614e818160208601602086016153d0565b601f017fffffffffffffffffffffffffffffffffffffffffffffffffffffffffffffffe0169290920160200192915050565b8183823760009101908152919050565b60008251614ed58184602087016153d0565b9190910192915050565b6000602080830181845280855180835260408601915060408160051b870101925083870160005b82811015614f52577fffffffffffffffffffffffffffffffffffffffffffffffffffffffffffffffc0888603018452614f40858351614e69565b94509285019290850190600101614f06565b5092979650505050505050565b60208152816020820152818360408301376000818301604090810191909152601f9092017fffffffffffffffffffffffffffffffffffffffffffffffffffffffffffffffe0160101919050565b602081526000610fdb6020830184614e69565b60008083357fffffffffffffffffffffffffffffffffffffffffffffffffffffffffffffffe1843603018112614ff457600080fd5b83018035915067ffffffffffffffff82111561500f57600080fd5b6020019150600581901b360382131561462857600080fd5b60008083357fffffffffffffffffffffffffffffffffffffffffffffffffffffffffffffffe184360301811261505c57600080fd5b83018035915067ffffffffffffffff82111561507757600080fd5b6020019150600781901b360382131561462857600080fd5b60008083357fffffffffffffffffffffffffffffffffffffffffffffffffffffffffffffffe18436030181126150c457600080fd5b83018035915067ffffffffffffffff8211156150df57600080fd5b60200191503681900382131561462857600080fd5b600082357fffffffffffffffffffffffffffffffffffffffffffffffffffffffffffffff61833603018112614ed557600080fd5b600082357fffffffffffffffffffffffffffffffffffffffffffffffffffffffffffffffc1833603018112614ed557600080fd5b600082357fffffffffffffffffffffffffffffffffffffffffffffffffffffffffffffff81833603018112614ed557600080fd5b6040805190810167ffffffffffffffff811182821017156151b3576151b3615493565b60405290565b604051601f82017fffffffffffffffffffffffffffffffffffffffffffffffffffffffffffffffe016810167ffffffffffffffff8111828210171561520057615200615493565b604052919050565b600067ffffffffffffffff82111561522257615222615493565b5060051b60200190565b600082615262577f4e487b7100000000000000000000000000000000000000000000000000000000600052601260045260246000fd5b500490565b600181815b808511156152c057817fffffffffffffffffffffffffffffffffffffffffffffffffffffffffffffffff048211156152a6576152a6615435565b808516156152b357918102915b93841c939080029061526c565b509250929050565b6000610fdb60ff8416836000826152e15750600161538d565b816152ee5750600061538d565b8160018114615304576002811461530e5761532a565b600191505061538d565b60ff84111561531f5761531f615435565b50506001821b61538d565b5060208310610133831016604e8410600b841016171561534d575081810a61538d565b6153578383615267565b807fffffffffffffffffffffffffffffffffffffffffffffffffffffffffffffffff0482111561538957615389615435565b0290505b92915050565b6000817fffffffffffffffffffffffffffffffffffffffffffffffffffffffffffffffff04831182151516156153cb576153cb615435565b500290565b60005b838110156153eb5781810151838201526020016153d3565b838111156143195750506000910152565b60007fffffffffffffffffffffffffffffffffffffffffffffffffffffffffffffffff82141561542e5761542e615435565b5060010190565b7f4e487b7100000000000000000000000000000000000000000000000000000000600052601160045260246000fd5b7f4e487b7100000000000000000000000000000000000000000000000000000000600052603260045260246000fd5b7f4e487b7100000000000000000000000000000000000000000000000000000000600052604160045260246000fd5b73ffffffffffffffffffffffffffffffffffffffff811681146154e457600080fd5b50565b80151581146154e457600080fdfea2646970667358221220d452651f0163f2428050d55cafa4a5f8122bae45a647c1948570de7a576283e364736f6c63430008070033",
  "devdoc": {
    "kind": "dev",
    "methods": {
      "addLiquidity((address,bool,uint256)[],address,uint256,bytes)": {
        "params": {
          "data": "Data required by the pool to add liquidity.",
          "minLiquidity": "Minimum output liquidity - caps slippage.",
          "pool": "Pool address to add liquidity to.",
          "tokenInput": "Token address and amount to add as liquidity."
        }
      },
      "addLiquidityLazy(address,bytes)": {
        "details": "The input tokens are sent to the pool during the callback."
      },
      "batch(bytes[])": {
        "details": "The `msg.value` should not be trusted for any method callable from this function.",
        "params": {
          "data": "ABI-encoded params for each of the calls to make to this contract."
        },
        "returns": {
          "results": "The results from each of the calls passed in via `data`."
        }
      },
      "burnLiquidity(address,uint256,bytes,(address,uint256)[])": {
        "params": {
          "data": "Data required by the pool to burn liquidity.",
          "liquidity": "Amount of liquidity tokens to burn.",
          "minWithdrawals": "Minimum amount of `bento` tokens to be returned.",
          "pool": "Pool address."
        }
      },
      "burnLiquiditySingle(address,uint256,bytes,uint256)": {
        "details": "The tokens are swapped automatically and the output is in a single token.",
        "params": {
          "data": "Data required by the pool to burn liquidity.",
          "liquidity": "Amount of liquidity tokens to burn.",
          "minWithdrawal": "Minimum amount of tokens to be returned.",
          "pool": "Pool address."
        }
      },
      "complexPath(((address,address,bool,uint256,bytes)[],(address,address,uint64,bytes)[],(address,address,bool,uint256)[]))": {
        "details": "This function is not optimized for single swaps and should only be used in complex cases where the amounts are large enough that minimizing slippage by using multiple paths is worth the extra gas.",
        "params": {
          "params": "This includes everything needed for the swap. Look at the `ComplexPathParams` struct for more details."
        }
      },
      "exactInput((address,uint256,uint256,(address,bytes)[]))": {
        "details": "Ensure that the pools are trusted before calling this function. The pools can steal users' tokens.",
        "params": {
          "params": "This includes the addresses of the tokens, pools, amount of token A to swap, minimum amount of token B after the swap and data required by the pools for the swaps."
        }
      },
      "exactInputLazy(uint256,(address,bytes)[])": {
        "details": "Ensure that the pools are trusted before calling this function. The pools can steal users' tokens. This function will unlikely be used in production but it shows how to use callbacks. One use case will be arbitrage.",
        "params": {
          "amountOutMinimum": "Minimum amount of token B after the swap.",
          "path": "Addresses of the pools and data required by the pools for the swaps."
        }
      },
      "exactInputSingle((uint256,uint256,address,address,bytes))": {
        "details": "Ensure that the pool is trusted before calling this function. The pool can steal users' tokens.",
        "params": {
          "params": "This includes the address of token A, pool, amount of token A to swap, minimum amount of token B after the swap and data required by the pool for the swap."
        }
      },
      "exactInputSingleWithNativeToken((uint256,uint256,address,address,bytes))": {
        "details": "Ensure that the pool is trusted before calling this function. The pool can steal users' tokens.",
        "params": {
          "params": "This includes the address of token A, pool, amount of token A to swap, minimum amount of token B after the swap and data required by the pool for the swap."
        }
      },
      "exactInputWithNativeToken((address,uint256,uint256,(address,bytes)[]))": {
        "details": "Ensure that the pools are trusted before calling this function. The pools can steal users' tokens.",
        "params": {
          "params": "This includes the addresses of the tokens, pools, amount of token A to swap, minimum amount of token B after the swap and data required by the pools for the swaps."
        }
      },
      "permitThis(address,uint256,uint256,uint8,bytes32,bytes32)": {
        "params": {
          "amount": "Token amount to grant spending right over.",
          "deadline": "Termination for signed approval (UTC timestamp in seconds).",
          "r": "Half of the ECDSA signature pair.",
          "s": "Half of the ECDSA signature pair.",
          "token": "Address of ERC-20 token.",
          "v": "The recovery byte of the signature."
        }
      },
      "permitThisAllowed(address,uint256,uint256,uint8,bytes32,bytes32)": {
        "params": {
          "expiry": "Termination for signed approval - UTC timestamp in seconds.",
          "nonce": "Token owner's nonce - increases at each call to {permit}.",
          "r": "Half of the ECDSA signature pair.",
          "s": "Half of the ECDSA signature pair.",
          "token": "Address of ERC-20 token.",
          "v": "The recovery byte of the signature."
        }
      }
    },
    "stateVariables": {
      "cachedMsgSender": {
        "details": "Used to ensure that `tridentSwapCallback` is called only by the authorized address. These are set when someone calls a flash swap and reset afterwards."
      }
    },
    "version": 1
  },
  "userdoc": {
    "kind": "user",
    "methods": {
      "addLiquidity((address,bool,uint256)[],address,uint256,bytes)": {
        "notice": "Add liquidity to a pool."
      },
      "addLiquidityLazy(address,bytes)": {
        "notice": "Add liquidity to a pool using callbacks - same as `addLiquidity`, but now with callbacks."
      },
      "batch(bytes[])": {
        "notice": "Provides batch function calls for this contract and returns the data from all of them if they all succeed. Adapted from https://github.com/Uniswap/uniswap-v3-periphery/blob/main/contracts/base/Multicall.sol, License-Identifier: GPL-2.0-or-later."
      },
      "bento()": {
        "notice": "BentoBox token vault."
      },
      "burnLiquidity(address,uint256,bytes,(address,uint256)[])": {
        "notice": "Burn liquidity tokens to get back `bento` tokens."
      },
      "burnLiquiditySingle(address,uint256,bytes,uint256)": {
        "notice": "Burn liquidity tokens to get back `bento` tokens."
      },
      "complexPath(((address,address,bool,uint256,bytes)[],(address,address,uint64,bytes)[],(address,address,bool,uint256)[]))": {
        "notice": "Swaps multiple input tokens to multiple output tokens using multiple paths, in different percentages. For example, you can swap 50 DAI + 100 USDC into 60% ETH and 40% BTC."
      },
      "exactInput((address,uint256,uint256,(address,bytes)[]))": {
        "notice": "Swaps token A to token B indirectly by using multiple hops."
      },
      "exactInputLazy(uint256,(address,bytes)[])": {
        "notice": "Swaps token A to token B by using callbacks."
      },
      "exactInputSingle((uint256,uint256,address,address,bytes))": {
        "notice": "Swaps token A to token B directly. Swaps are done on `bento` tokens."
      },
      "exactInputSingleWithNativeToken((uint256,uint256,address,address,bytes))": {
        "notice": "Swaps token A to token B directly. It's the same as `exactInputSingle` except it takes raw ERC-20 tokens from the users and deposits them into `bento`."
      },
      "exactInputWithNativeToken((address,uint256,uint256,(address,bytes)[]))": {
        "notice": "Swaps token A to token B indirectly by using multiple hops. It's the same as `exactInput` except it takes raw ERC-20 tokens from the users and deposits them into `bento`."
      },
      "permitThis(address,uint256,uint256,uint8,bytes32,bytes32)": {
        "notice": "Provides EIP-2612 signed approval for this contract to spend user tokens."
      },
      "permitThisAllowed(address,uint256,uint256,uint8,bytes32,bytes32)": {
        "notice": "Provides DAI-derived signed approval for this contract to spend user tokens."
      },
      "refundETH()": {
        "notice": "Recover mistakenly sent ETH."
      },
      "sweepBentoBoxToken(address,uint256,address)": {
        "notice": "Recover mistakenly sent `bento` tokens."
      },
      "sweepNativeToken(address,uint256,address)": {
        "notice": "Recover mistakenly sent ERC-20 tokens."
      },
      "tridentMintCallback(bytes)": {
        "notice": "Can be used by the pool 'mint' functionality to take tokens from the user."
      },
      "tridentSwapCallback(bytes)": {
        "notice": "Used by the pool 'flashSwap' functionality to take input tokens from the user."
      },
      "unwrapWETH(uint256,address)": {
        "notice": "Unwrap this contract's `wETH` into ETH"
      }
    },
    "notice": "Router contract that helps in swapping across Trident pools.",
    "version": 1
  },
  "storageLayout": {
    "storage": [
      {
        "astId": 21,
        "contract": "contracts/TridentRouter.sol:TridentRouter",
        "label": "cachedMsgSender",
        "offset": 0,
        "slot": "0",
        "type": "t_address"
      },
      {
        "astId": 23,
        "contract": "contracts/TridentRouter.sol:TridentRouter",
        "label": "cachedPool",
        "offset": 0,
        "slot": "1",
        "type": "t_address"
      }
    ],
    "types": {
      "t_address": {
        "encoding": "inplace",
        "label": "address",
        "numberOfBytes": "20"
      }
    }
  }
}