{
  "address": "0xeCf027a4971242804880B31B2a7e0Cfb203020EF",
  "abi": [
    {
      "inputs": [
        {
          "internalType": "contract IBentoBoxMinimal",
          "name": "_bento",
          "type": "address"
        },
        {
          "internalType": "contract MasterDeployer",
          "name": "_masterDeployer",
          "type": "address"
        },
        {
          "internalType": "address",
          "name": "_wETH",
          "type": "address"
        }
      ],
      "stateMutability": "nonpayable",
      "type": "constructor"
    },
    {
      "inputs": [
        {
          "components": [
            {
              "internalType": "address",
              "name": "token",
              "type": "address"
            },
            {
              "internalType": "bool",
              "name": "native",
              "type": "bool"
            },
            {
              "internalType": "uint256",
              "name": "amount",
              "type": "uint256"
            }
          ],
          "internalType": "struct ITridentRouter.TokenInput[]",
          "name": "tokenInput",
          "type": "tuple[]"
        },
        {
          "internalType": "address",
          "name": "pool",
          "type": "address"
        },
        {
          "internalType": "uint256",
          "name": "minLiquidity",
          "type": "uint256"
        },
        {
          "internalType": "bytes",
          "name": "data",
          "type": "bytes"
        }
      ],
      "name": "addLiquidity",
      "outputs": [
        {
          "internalType": "uint256",
          "name": "liquidity",
          "type": "uint256"
        }
      ],
      "stateMutability": "payable",
      "type": "function"
    },
    {
      "inputs": [
        {
          "internalType": "address",
          "name": "pool",
          "type": "address"
        },
        {
          "internalType": "uint256",
          "name": "minLiquidity",
          "type": "uint256"
        },
        {
          "internalType": "bytes",
          "name": "data",
          "type": "bytes"
        }
      ],
      "name": "addLiquidityLazy",
      "outputs": [
        {
          "internalType": "uint256",
          "name": "liquidity",
          "type": "uint256"
        }
      ],
      "stateMutability": "payable",
      "type": "function"
    },
    {
      "inputs": [
        {
          "internalType": "bytes[]",
          "name": "data",
          "type": "bytes[]"
        }
      ],
      "name": "batch",
      "outputs": [
        {
          "internalType": "bytes[]",
          "name": "results",
          "type": "bytes[]"
        }
      ],
      "stateMutability": "payable",
      "type": "function"
    },
    {
      "inputs": [],
      "name": "bento",
      "outputs": [
        {
          "internalType": "contract IBentoBoxMinimal",
          "name": "",
          "type": "address"
        }
      ],
      "stateMutability": "view",
      "type": "function"
    },
    {
      "inputs": [
        {
          "internalType": "address",
          "name": "pool",
          "type": "address"
        },
        {
          "internalType": "uint256",
          "name": "liquidity",
          "type": "uint256"
        },
        {
          "internalType": "bytes",
          "name": "data",
          "type": "bytes"
        },
        {
          "components": [
            {
              "internalType": "address",
              "name": "token",
              "type": "address"
            },
            {
              "internalType": "uint256",
              "name": "amount",
              "type": "uint256"
            }
          ],
          "internalType": "struct IPool.TokenAmount[]",
          "name": "minWithdrawals",
          "type": "tuple[]"
        }
      ],
      "name": "burnLiquidity",
      "outputs": [],
      "stateMutability": "nonpayable",
      "type": "function"
    },
    {
      "inputs": [
        {
          "internalType": "address",
          "name": "pool",
          "type": "address"
        },
        {
          "internalType": "uint256",
          "name": "liquidity",
          "type": "uint256"
        },
        {
          "internalType": "bytes",
          "name": "data",
          "type": "bytes"
        },
        {
          "internalType": "uint256",
          "name": "minWithdrawal",
          "type": "uint256"
        }
      ],
      "name": "burnLiquiditySingle",
      "outputs": [],
      "stateMutability": "nonpayable",
      "type": "function"
    },
    {
      "inputs": [
        {
          "components": [
            {
              "components": [
                {
                  "internalType": "address",
                  "name": "tokenIn",
                  "type": "address"
                },
                {
                  "internalType": "address",
                  "name": "pool",
                  "type": "address"
                },
                {
                  "internalType": "bool",
                  "name": "native",
                  "type": "bool"
                },
                {
                  "internalType": "uint256",
                  "name": "amount",
                  "type": "uint256"
                },
                {
                  "internalType": "bytes",
                  "name": "data",
                  "type": "bytes"
                }
              ],
              "internalType": "struct ITridentRouter.InitialPath[]",
              "name": "initialPath",
              "type": "tuple[]"
            },
            {
              "components": [
                {
                  "internalType": "address",
                  "name": "tokenIn",
                  "type": "address"
                },
                {
                  "internalType": "address",
                  "name": "pool",
                  "type": "address"
                },
                {
                  "internalType": "uint64",
                  "name": "balancePercentage",
                  "type": "uint64"
                },
                {
                  "internalType": "bytes",
                  "name": "data",
                  "type": "bytes"
                }
              ],
              "internalType": "struct ITridentRouter.PercentagePath[]",
              "name": "percentagePath",
              "type": "tuple[]"
            },
            {
              "components": [
                {
                  "internalType": "address",
                  "name": "token",
                  "type": "address"
                },
                {
                  "internalType": "address",
                  "name": "to",
                  "type": "address"
                },
                {
                  "internalType": "bool",
                  "name": "unwrapBento",
                  "type": "bool"
                },
                {
                  "internalType": "uint256",
                  "name": "minAmount",
                  "type": "uint256"
                }
              ],
              "internalType": "struct ITridentRouter.Output[]",
              "name": "output",
              "type": "tuple[]"
            }
          ],
          "internalType": "struct ITridentRouter.ComplexPathParams",
          "name": "params",
          "type": "tuple"
        }
      ],
      "name": "complexPath",
      "outputs": [],
      "stateMutability": "payable",
      "type": "function"
    },
    {
      "inputs": [
        {
          "internalType": "address",
          "name": "_factory",
          "type": "address"
        },
        {
          "internalType": "bytes",
          "name": "_deployData",
          "type": "bytes"
        }
      ],
      "name": "deployPool",
      "outputs": [
        {
          "internalType": "address",
          "name": "",
          "type": "address"
        }
      ],
      "stateMutability": "nonpayable",
      "type": "function"
    },
    {
      "inputs": [
        {
          "components": [
            {
              "internalType": "address",
              "name": "tokenIn",
              "type": "address"
            },
            {
              "internalType": "uint256",
              "name": "amountIn",
              "type": "uint256"
            },
            {
              "internalType": "uint256",
              "name": "amountOutMinimum",
              "type": "uint256"
            },
            {
              "components": [
                {
                  "internalType": "address",
                  "name": "pool",
                  "type": "address"
                },
                {
                  "internalType": "bytes",
                  "name": "data",
                  "type": "bytes"
                }
              ],
              "internalType": "struct ITridentRouter.Path[]",
              "name": "path",
              "type": "tuple[]"
            }
          ],
          "internalType": "struct ITridentRouter.ExactInputParams",
          "name": "params",
          "type": "tuple"
        }
      ],
      "name": "exactInput",
      "outputs": [
        {
          "internalType": "uint256",
          "name": "amountOut",
          "type": "uint256"
        }
      ],
      "stateMutability": "payable",
      "type": "function"
    },
    {
      "inputs": [
        {
          "internalType": "uint256",
          "name": "amountOutMinimum",
          "type": "uint256"
        },
        {
          "components": [
            {
              "internalType": "address",
              "name": "pool",
              "type": "address"
            },
            {
              "internalType": "bytes",
              "name": "data",
              "type": "bytes"
            }
          ],
          "internalType": "struct ITridentRouter.Path[]",
          "name": "path",
          "type": "tuple[]"
        }
      ],
      "name": "exactInputLazy",
      "outputs": [
        {
          "internalType": "uint256",
          "name": "amountOut",
          "type": "uint256"
        }
      ],
      "stateMutability": "payable",
      "type": "function"
    },
    {
      "inputs": [
        {
          "components": [
            {
              "internalType": "uint256",
              "name": "amountIn",
              "type": "uint256"
            },
            {
              "internalType": "uint256",
              "name": "amountOutMinimum",
              "type": "uint256"
            },
            {
              "internalType": "address",
              "name": "pool",
              "type": "address"
            },
            {
              "internalType": "address",
              "name": "tokenIn",
              "type": "address"
            },
            {
              "internalType": "bytes",
              "name": "data",
              "type": "bytes"
            }
          ],
          "internalType": "struct ITridentRouter.ExactInputSingleParams",
          "name": "params",
          "type": "tuple"
        }
      ],
      "name": "exactInputSingle",
      "outputs": [
        {
          "internalType": "uint256",
          "name": "amountOut",
          "type": "uint256"
        }
      ],
      "stateMutability": "payable",
      "type": "function"
    },
    {
      "inputs": [
        {
          "components": [
            {
              "internalType": "uint256",
              "name": "amountIn",
              "type": "uint256"
            },
            {
              "internalType": "uint256",
              "name": "amountOutMinimum",
              "type": "uint256"
            },
            {
              "internalType": "address",
              "name": "pool",
              "type": "address"
            },
            {
              "internalType": "address",
              "name": "tokenIn",
              "type": "address"
            },
            {
              "internalType": "bytes",
              "name": "data",
              "type": "bytes"
            }
          ],
          "internalType": "struct ITridentRouter.ExactInputSingleParams",
          "name": "params",
          "type": "tuple"
        }
      ],
      "name": "exactInputSingleWithNativeToken",
      "outputs": [
        {
          "internalType": "uint256",
          "name": "amountOut",
          "type": "uint256"
        }
      ],
      "stateMutability": "payable",
      "type": "function"
    },
    {
      "inputs": [
        {
          "components": [
            {
              "internalType": "address",
              "name": "tokenIn",
              "type": "address"
            },
            {
              "internalType": "uint256",
              "name": "amountIn",
              "type": "uint256"
            },
            {
              "internalType": "uint256",
              "name": "amountOutMinimum",
              "type": "uint256"
            },
            {
              "components": [
                {
                  "internalType": "address",
                  "name": "pool",
                  "type": "address"
                },
                {
                  "internalType": "bytes",
                  "name": "data",
                  "type": "bytes"
                }
              ],
              "internalType": "struct ITridentRouter.Path[]",
              "name": "path",
              "type": "tuple[]"
            }
          ],
          "internalType": "struct ITridentRouter.ExactInputParams",
          "name": "params",
          "type": "tuple"
        }
      ],
      "name": "exactInputWithNativeToken",
      "outputs": [
        {
          "internalType": "uint256",
          "name": "amountOut",
          "type": "uint256"
        }
      ],
      "stateMutability": "payable",
      "type": "function"
    },
    {
      "inputs": [],
      "name": "masterDeployer",
      "outputs": [
        {
          "internalType": "contract MasterDeployer",
          "name": "",
          "type": "address"
        }
      ],
      "stateMutability": "view",
      "type": "function"
    },
    {
      "inputs": [
        {
          "internalType": "address",
          "name": "token",
          "type": "address"
        },
        {
          "internalType": "uint256",
          "name": "amount",
          "type": "uint256"
        },
        {
          "internalType": "uint256",
          "name": "deadline",
          "type": "uint256"
        },
        {
          "internalType": "uint8",
          "name": "v",
          "type": "uint8"
        },
        {
          "internalType": "bytes32",
          "name": "r",
          "type": "bytes32"
        },
        {
          "internalType": "bytes32",
          "name": "s",
          "type": "bytes32"
        }
      ],
      "name": "permitThis",
      "outputs": [],
      "stateMutability": "nonpayable",
      "type": "function"
    },
    {
      "inputs": [
        {
          "internalType": "address",
          "name": "token",
          "type": "address"
        },
        {
          "internalType": "uint256",
          "name": "nonce",
          "type": "uint256"
        },
        {
          "internalType": "uint256",
          "name": "expiry",
          "type": "uint256"
        },
        {
          "internalType": "uint8",
          "name": "v",
          "type": "uint8"
        },
        {
          "internalType": "bytes32",
          "name": "r",
          "type": "bytes32"
        },
        {
          "internalType": "bytes32",
          "name": "s",
          "type": "bytes32"
        }
      ],
      "name": "permitThisAllowed",
      "outputs": [],
      "stateMutability": "nonpayable",
      "type": "function"
    },
    {
      "inputs": [],
      "name": "refundETH",
      "outputs": [],
      "stateMutability": "payable",
      "type": "function"
    },
    {
      "inputs": [
        {
          "internalType": "address",
          "name": "token",
          "type": "address"
        },
        {
          "internalType": "uint256",
          "name": "amount",
          "type": "uint256"
        },
        {
          "internalType": "address",
          "name": "recipient",
          "type": "address"
        }
      ],
      "name": "sweepBentoBoxToken",
      "outputs": [],
      "stateMutability": "nonpayable",
      "type": "function"
    },
    {
      "inputs": [
        {
          "internalType": "address",
          "name": "token",
          "type": "address"
        },
        {
          "internalType": "uint256",
          "name": "amount",
          "type": "uint256"
        },
        {
          "internalType": "address",
          "name": "recipient",
          "type": "address"
        }
      ],
      "name": "sweepNativeToken",
      "outputs": [],
      "stateMutability": "nonpayable",
      "type": "function"
    },
    {
      "inputs": [
        {
          "internalType": "bytes",
          "name": "data",
          "type": "bytes"
        }
      ],
      "name": "tridentMintCallback",
      "outputs": [],
      "stateMutability": "nonpayable",
      "type": "function"
    },
    {
      "inputs": [
        {
          "internalType": "bytes",
          "name": "data",
          "type": "bytes"
        }
      ],
      "name": "tridentSwapCallback",
      "outputs": [],
      "stateMutability": "nonpayable",
      "type": "function"
    },
    {
      "inputs": [
        {
          "internalType": "uint256",
          "name": "amountMinimum",
          "type": "uint256"
        },
        {
          "internalType": "address",
          "name": "recipient",
          "type": "address"
        }
      ],
      "name": "unwrapWETH",
      "outputs": [],
      "stateMutability": "nonpayable",
      "type": "function"
    },
    {
      "stateMutability": "payable",
      "type": "receive"
    }
  ],
  "transactionHash": "0x8e14352a439ba7f07a6ace2ecf4fd662a06950d1b1c0428886c70fb2997a0a90",
  "args": [
    "0xc381a85ed7C7448Da073b7d6C9d4cBf1Cbf576f0",
    "0xBe8bdb5A8341808e4665207C77B76aDC30598EAE",
    "0xd0A1E359811322d97991E03f863a0C30C2cF029C"
  ],
  "solcInputHash": "bc50caee4059efe4f07004e2e38237ac",
  "bytecode": "0x60e06040523480156200001157600080fd5b5060405162004a9038038062004a908339810160408190526200003491620000c2565b6001600160601b0319606082901b166080526040805163577268d960e11b815290516001600160a01b0385169163aee4d1b291600480830192600092919082900301818387803b1580156200008857600080fd5b505af11580156200009d573d6000803e3d6000fd5b5050505050606091821b6001600160601b031990811660a052911b1660c0526200012f565b600080600060608486031215620000d857600080fd5b8351620000e58162000116565b6020850151909350620000f88162000116565b60408501519092506200010b8162000116565b809150509250925092565b6001600160a01b03811681146200012c57600080fd5b50565b60805160601c60a05160601c60c05160601c6148aa620001e6600039600081816104250152818161103901526130160152600081816102d8015281816106c9015281816110e5015281816113b501528181611a3f01528181611ded015281816120d6015281816122610152818161251d015281816126fa0152818161286101528181612acb01528181612c8701528181612ead015261350a01526000818161019601528181612ded015261376001526148aa6000f3fe6080604052600436106101795760003560e01c8063783312d9116100cb578063a9b62c231161007f578063ced10b4911610059578063ced10b49146103f3578063cf58879a14610413578063e16d9ce51461044757600080fd5b8063a9b62c23146103a0578063b96c5c0e146103c0578063bd50c7b1146103d357600080fd5b806394ae4ab2116100b057806394ae4ab21461035a57806398a691de1461037a5780639fa744911461038d57600080fd5b8063783312d91461031a5780639128efda1461033a57600080fd5b80631e897afb1161012d5780632cfcb94f116101075780632cfcb94f146102b35780634da31827146102c657806377631981146102fa57600080fd5b80631e897afb1461023b578063250558dc1461025b5780632c0d9a01146102a057600080fd5b806312210e8a1161015e57806312210e8a146102005780631aa349a8146102085780631ab5d6c81461022857600080fd5b80630b0d1b1e146101c75780630f93d439146101ed57600080fd5b366101c2573373ffffffffffffffffffffffffffffffffffffffff7f000000000000000000000000000000000000000000000000000000000000000016146101c057600080fd5b005b600080fd5b6101da6101d536600461403f565b610467565b6040519081526020015b60405180910390f35b6101da6101fb36600461407a565b6106b0565b6101c06108bc565b34801561021457600080fd5b506101c0610223366004613c58565b6108ce565b6101da61023636600461411a565b610a00565b61024e610249366004613d1e565b610c6c565b6040516101e49190614296565b34801561026757600080fd5b5061027b610276366004613a56565b610ff9565b60405173ffffffffffffffffffffffffffffffffffffffff90911681526020016101e4565b6101da6102ae36600461403f565b6110cc565b6101da6102c1366004613e59565b61132f565b3480156102d257600080fd5b5061027b7f000000000000000000000000000000000000000000000000000000000000000081565b34801561030657600080fd5b506101c0610315366004613cbc565b6115df565b34801561032657600080fd5b506101c0610335366004613b49565b611745565b34801561034657600080fd5b506101c0610355366004613aab565b6119e5565b34801561036657600080fd5b506101c0610375366004613aab565b611a97565b6101da610388366004613aed565b611aa7565b6101da61039b36600461407a565b611c30565b3480156103ac57600080fd5b506101c06103bb366004613cbc565b611c6c565b6101c06103ce366004614004565b611cca565b3480156103df57600080fd5b506101c06103ee366004613f1c565b61299c565b3480156103ff57600080fd5b506101c061040e366004613f1c565b612b5a565b34801561041f57600080fd5b5061027b7f000000000000000000000000000000000000000000000000000000000000000081565b34801561045357600080fd5b506101c06104623660046140ea565b612de6565b60006104c16104796020840184613a1c565b610486606085018561433d565b6000818110610497576104976147e6565b90506020028101906104a991906144a6565b6104b7906020810190613a1c565b8460200135612e96565b60005b6104d1606084018461433d565b90508110156106375761051f6104ea606085018561433d565b838181106104fa576104fa6147e6565b905060200281019061050c91906144a6565b61051a906020810190613a1c565b612fa4565b61052c606084018461433d565b8281811061053c5761053c6147e6565b905060200281019061054e91906144a6565b61055c906020810190613a1c565b73ffffffffffffffffffffffffffffffffffffffff1663627dd56a610584606086018661433d565b84818110610594576105946147e6565b90506020028101906105a691906144a6565b6105b490602081019061440d565b6040518363ffffffff1660e01b81526004016105d1929190614316565b602060405180830381600087803b1580156105eb57600080fd5b505af11580156105ff573d6000803e3d6000fd5b505050506040513d601f19601f8201168201806040525081019061062391906140d1565b91508061062f8161477e565b9150506104c4565b5081604001358110156106ab576040517f08c379a000000000000000000000000000000000000000000000000000000000815260206004820152601360248201527f544f4f5f4c4954544c455f52454345495645440000000000000000000000000060448201526064015b60405180910390fd5b919050565b600073ffffffffffffffffffffffffffffffffffffffff7f00000000000000000000000000000000000000000000000000000000000000001663f18d03cc6106fe6080850160608601613a1c565b3361070f6060870160408801613a1c565b6040517fffffffff0000000000000000000000000000000000000000000000000000000060e086901b16815273ffffffffffffffffffffffffffffffffffffffff93841660048201529183166024830152909116604482015284356064820152608401600060405180830381600087803b15801561078c57600080fd5b505af11580156107a0573d6000803e3d6000fd5b506107b5925050506060830160408401613a1c565b73ffffffffffffffffffffffffffffffffffffffff1663627dd56a6107dd608085018561440d565b6040518363ffffffff1660e01b81526004016107fa929190614316565b602060405180830381600087803b15801561081457600080fd5b505af1158015610828573d6000803e3d6000fd5b505050506040513d601f19601f8201168201806040525081019061084c91906140d1565b905081602001358110156106ab576040517f08c379a000000000000000000000000000000000000000000000000000000000815260206004820152601360248201527f544f4f5f4c4954544c455f52454345495645440000000000000000000000000060448201526064016106a2565b47156108cc576108cc3347613148565b565b6108d785612fa4565b6108e385338787613212565b6040517faf8c09bf00000000000000000000000000000000000000000000000000000000815260009073ffffffffffffffffffffffffffffffffffffffff87169063af8c09bf9061093a9087908790600401614316565b602060405180830381600087803b15801561095457600080fd5b505af1158015610968573d6000803e3d6000fd5b505050506040513d601f19601f8201168201806040525081019061098c91906140d1565b9050818110156109f8576040517f08c379a000000000000000000000000000000000000000000000000000000000815260206004820152601360248201527f544f4f5f4c4954544c455f52454345495645440000000000000000000000000060448201526064016106a2565b505050505050565b6000805b82811015610bc457610a218484838181106104fa576104fa6147e6565b600080547fffffffffffffffffffffffff00000000000000000000000000000000000000001633179055838382818110610a5d57610a5d6147e6565b9050602002810190610a6f91906144a6565b610a7d906020810190613a1c565b600180547fffffffffffffffffffffffff00000000000000000000000000000000000000001673ffffffffffffffffffffffffffffffffffffffff92909216919091179055838382818110610ad457610ad46147e6565b9050602002810190610ae691906144a6565b610af4906020810190613a1c565b73ffffffffffffffffffffffffffffffffffffffff1663053da1c8858584818110610b2157610b216147e6565b9050602002810190610b3391906144a6565b610b4190602081019061440d565b6040518363ffffffff1660e01b8152600401610b5e929190614316565b602060405180830381600087803b158015610b7857600080fd5b505af1158015610b8c573d6000803e3d6000fd5b505050506040513d601f19601f82011682018060405250810190610bb091906140d1565b915080610bbc8161477e565b915050610a04565b506000805460017fffffffffffffffffffffffff000000000000000000000000000000000000000091821681179092558154168117905583811015610c65576040517f08c379a000000000000000000000000000000000000000000000000000000000815260206004820152601360248201527f544f4f5f4c4954544c455f52454345495645440000000000000000000000000060448201526064016106a2565b9392505050565b60608167ffffffffffffffff811115610c8757610c87614815565b604051908082528060200260200182016040528015610cba57816020015b6060815260200190600190039081610ca55790505b5090506000805b83811015610ff1576000610d2c868684818110610ce057610ce06147e6565b9050602002810190610cf2919061440d565b8080601f01602080910402602001604051908101604052809392919081815260200183838082843760009201919091525061338392505050565b90507fffffffff0000000000000000000000000000000000000000000000000000000081167f0f93d439000000000000000000000000000000000000000000000000000000001480610dbf57507fffffffff0000000000000000000000000000000000000000000000000000000081167f9fa7449100000000000000000000000000000000000000000000000000000000145b15610e35578215610e2c576040517f08c379a000000000000000000000000000000000000000000000000000000000815260206004820152601160248201527f537761702063616c6c656420747769636500000000000000000000000000000060448201526064016106a2565b60019250610ee1565b7fffffffff0000000000000000000000000000000000000000000000000000000081167f1e897afb000000000000000000000000000000000000000000000000000000001415610ee1576040517f08c379a000000000000000000000000000000000000000000000000000000000815260206004820152600c60248201527f4e6573746564204261746368000000000000000000000000000000000000000060448201526064016106a2565b60008030888886818110610ef757610ef76147e6565b9050602002810190610f09919061440d565b604051610f1792919061423a565b600060405180830381855af49150503d8060008114610f52576040519150601f19603f3d011682016040523d82523d6000602084013e610f57565b606091505b509150915081610fbd57604481511015610f7057600080fd5b60048101905080806020019051810190610f8a9190613f52565b6040517f08c379a00000000000000000000000000000000000000000000000000000000081526004016106a2919061432a565b80868581518110610fd057610fd06147e6565b60200260200101819052505050508080610fe99061477e565b915050610cc1565b505092915050565b6040517f250558dc00000000000000000000000000000000000000000000000000000000815260009073ffffffffffffffffffffffffffffffffffffffff7f0000000000000000000000000000000000000000000000000000000000000000169063250558dc9061107290879087908790600401614266565b602060405180830381600087803b15801561108c57600080fd5b505af11580156110a0573d6000803e3d6000fd5b505050506040513d601f19601f820116820180604052508101906110c49190613a39565b949350505050565b600073ffffffffffffffffffffffffffffffffffffffff7f00000000000000000000000000000000000000000000000000000000000000001663f18d03cc6111176020850185613a1c565b33611125606087018761433d565b6000818110611136576111366147e6565b905060200281019061114891906144a6565b611156906020810190613a1c565b60405160e085901b7fffffffff0000000000000000000000000000000000000000000000000000000016815273ffffffffffffffffffffffffffffffffffffffff93841660048201529183166024830152909116604482015260208501356064820152608401600060405180830381600087803b1580156111d657600080fd5b505af11580156111ea573d6000803e3d6000fd5b5050505060005b6111fe606084018461433d565b9050811015610637576112176104ea606085018561433d565b611224606084018461433d565b82818110611234576112346147e6565b905060200281019061124691906144a6565b611254906020810190613a1c565b73ffffffffffffffffffffffffffffffffffffffff1663627dd56a61127c606086018661433d565b8481811061128c5761128c6147e6565b905060200281019061129e91906144a6565b6112ac90602081019061440d565b6040518363ffffffff1660e01b81526004016112c9929190614316565b602060405180830381600087803b1580156112e357600080fd5b505af11580156112f7573d6000803e3d6000fd5b505050506040513d601f19601f8201168201806040525081019061131b91906140d1565b9150806113278161477e565b9150506111f1565b600061133a85612fa4565b60005b86518110156114c357868181518110611358576113586147e6565b602002602001015160200151156113b3576113ae87828151811061137e5761137e6147e6565b6020026020010151600001518789848151811061139d5761139d6147e6565b602002602001015160400151612e96565b6114b1565b7f000000000000000000000000000000000000000000000000000000000000000073ffffffffffffffffffffffffffffffffffffffff1663f18d03cc888381518110611401576114016147e6565b60200260200101516000015133898b8681518110611421576114216147e6565b6020026020010151604001516040518563ffffffff1660e01b815260040161147e949392919073ffffffffffffffffffffffffffffffffffffffff9485168152928416602084015292166040820152606081019190915260800190565b600060405180830381600087803b15801561149857600080fd5b505af11580156114ac573d6000803e3d6000fd5b505050505b806114bb8161477e565b91505061133d565b506040517f7ba0e2e700000000000000000000000000000000000000000000000000000000815273ffffffffffffffffffffffffffffffffffffffff861690637ba0e2e7906115189086908690600401614316565b602060405180830381600087803b15801561153257600080fd5b505af1158015611546573d6000803e3d6000fd5b505050506040513d601f19601f8201168201806040525081019061156a91906140d1565b9050838110156115d6576040517f08c379a000000000000000000000000000000000000000000000000000000000815260206004820152601b60248201527f4e4f545f454e4f5547485f4c49515549444954595f4d494e544544000000000060448201526064016106a2565b95945050505050565b6040513360248201523060448201526064810186905260848101859052600160a482015260ff841660c482015260e48101839052610104810182905260009073ffffffffffffffffffffffffffffffffffffffff881690638fcbaf0c90610124015b6040516020818303038152906040529060e01b6020820180517bffffffffffffffffffffffffffffffffffffffffffffffffffffffff838183161783525050505060405161168f919061424a565b6000604051808303816000865af19150503d80600081146116cc576040519150601f19603f3d011682016040523d82523d6000602084013e6116d1565b606091505b505090508061173c576040517f08c379a000000000000000000000000000000000000000000000000000000000815260206004820152600d60248201527f5045524d49545f4641494c45440000000000000000000000000000000000000060448201526064016106a2565b50505050505050565b61174e85612fa4565b61175a85338787613212565b6040517f2a07b6c700000000000000000000000000000000000000000000000000000000815260009073ffffffffffffffffffffffffffffffffffffffff871690632a07b6c7906117b19087908790600401614316565b600060405180830381600087803b1580156117cb57600080fd5b505af11580156117df573d6000803e3d6000fd5b505050506040513d6000823e601f3d9081017fffffffffffffffffffffffffffffffffffffffffffffffffffffffffffffffe01682016040526118259190810190613d60565b905060005b825181101561173c5760005b825181101561196857838281518110611851576118516147e6565b60200260200101516000015173ffffffffffffffffffffffffffffffffffffffff16838281518110611885576118856147e6565b60200260200101516000015173ffffffffffffffffffffffffffffffffffffffff161415611956578382815181106118bf576118bf6147e6565b6020026020010151602001518382815181106118dd576118dd6147e6565b6020026020010151602001511015611951576040517f08c379a000000000000000000000000000000000000000000000000000000000815260206004820152601360248201527f544f4f5f4c4954544c455f52454345495645440000000000000000000000000060448201526064016106a2565b611968565b806119608161477e565b915050611836565b825181106119d2576040517f08c379a000000000000000000000000000000000000000000000000000000000815260206004820152601960248201527f494e434f52524543545f544f4b454e5f57495448445241574e0000000000000060448201526064016106a2565b50806119dd8161477e565b91505061182a565b6040517ff18d03cc00000000000000000000000000000000000000000000000000000000815273ffffffffffffffffffffffffffffffffffffffff84811660048301523060248301528281166044830152606482018490527f0000000000000000000000000000000000000000000000000000000000000000169063f18d03cc90608401600060405180830381600087803b158015611a8357600080fd5b505af115801561173c573d6000803e3d6000fd5b611aa283828461338a565b505050565b6000611ab285612fa4565b600080547fffffffffffffffffffffffff000000000000000000000000000000000000000090811633179091556001805473ffffffffffffffffffffffffffffffffffffffff88169216821790556040517f7ba0e2e7000000000000000000000000000000000000000000000000000000008152637ba0e2e790611b3c9086908690600401614316565b602060405180830381600087803b158015611b5657600080fd5b505af1158015611b6a573d6000803e3d6000fd5b505050506040513d601f19601f82011682018060405250810190611b8e91906140d1565b6000805460017fffffffffffffffffffffffff00000000000000000000000000000000000000009182168117909255815416811790559050838110156110c4576040517f08c379a000000000000000000000000000000000000000000000000000000000815260206004820152601b60248201527f4e4f545f454e4f5547485f4c49515549444954595f4d494e544544000000000060448201526064016106a2565b6000611c5c611c456080840160608501613a1c565b611c556060850160408601613a1c565b8435612e96565b6107b56060830160408401613a1c565b604051336024820152306044820152606481018690526084810185905260ff841660a482015260c4810183905260e4810182905260009073ffffffffffffffffffffffffffffffffffffffff88169063d505accf9061010401611641565b60005b611cd7828061433d565b90508110156120a357611cea828061433d565b82818110611cfa57611cfa6147e6565b9050602002810190611d0c9190614472565b611d1d906060810190604001613ee2565b15611dd657611dd1611d2f838061433d565b83818110611d3f57611d3f6147e6565b9050602002810190611d519190614472565b611d5f906020810190613a1c565b611d69848061433d565b84818110611d7957611d796147e6565b9050602002810190611d8b9190614472565b611d9c906040810190602001613a1c565b611da6858061433d565b85818110611db657611db66147e6565b9050602002810190611dc89190614472565b60600135612e96565b611f4f565b73ffffffffffffffffffffffffffffffffffffffff7f00000000000000000000000000000000000000000000000000000000000000001663f18d03cc611e1c848061433d565b84818110611e2c57611e2c6147e6565b9050602002810190611e3e9190614472565b611e4c906020810190613a1c565b33611e57868061433d565b86818110611e6757611e676147e6565b9050602002810190611e799190614472565b611e8a906040810190602001613a1c565b611e94878061433d565b87818110611ea457611ea46147e6565b9050602002810190611eb69190614472565b60405160e086901b7fffffffff0000000000000000000000000000000000000000000000000000000016815273ffffffffffffffffffffffffffffffffffffffff94851660048201529284166024840152921660448201526060909101356064820152608401600060405180830381600087803b158015611f3657600080fd5b505af1158015611f4a573d6000803e3d6000fd5b505050505b611f8f611f5c838061433d565b83818110611f6c57611f6c6147e6565b9050602002810190611f7e9190614472565b61051a906040810190602001613a1c565b611f99828061433d565b82818110611fa957611fa96147e6565b9050602002810190611fbb9190614472565b611fcc906040810190602001613a1c565b73ffffffffffffffffffffffffffffffffffffffff1663627dd56a611ff1848061433d565b84818110612001576120016147e6565b90506020028101906120139190614472565b61202190608081019061440d565b6040518363ffffffff1660e01b815260040161203e929190614316565b602060405180830381600087803b15801561205857600080fd5b505af115801561206c573d6000803e3d6000fd5b505050506040513d601f19601f8201168201806040525081019061209091906140d1565b508061209b8161477e565b915050611ccd565b5060005b6120b4602083018361433d565b90508110156124ea57600073ffffffffffffffffffffffffffffffffffffffff7f00000000000000000000000000000000000000000000000000000000000000001663f7888aec612108602086018661433d565b85818110612118576121186147e6565b905060200281019061212a91906144da565b612138906020810190613a1c565b6040517fffffffff0000000000000000000000000000000000000000000000000000000060e084901b16815273ffffffffffffffffffffffffffffffffffffffff909116600482015230602482015260440160206040518083038186803b1580156121a257600080fd5b505afa1580156121b6573d6000803e3d6000fd5b505050506040513d601f19601f820116820180604052508101906121da91906140d1565b905060006121ea6008600a614646565b6121f7602086018661433d565b85818110612207576122076147e6565b905060200281019061221991906144da565b61222a90606081019060400161417d565b61223e9067ffffffffffffffff1684614711565b61224891906145aa565b905073ffffffffffffffffffffffffffffffffffffffff7f00000000000000000000000000000000000000000000000000000000000000001663f18d03cc612293602087018761433d565b868181106122a3576122a36147e6565b90506020028101906122b591906144da565b6122c3906020810190613a1c565b306122d1602089018961433d565b888181106122e1576122e16147e6565b90506020028101906122f391906144da565b612304906040810190602001613a1c565b60405160e085901b7fffffffff0000000000000000000000000000000000000000000000000000000016815273ffffffffffffffffffffffffffffffffffffffff93841660048201529183166024830152909116604482015260648101849052608401600060405180830381600087803b15801561238157600080fd5b505af1158015612395573d6000803e3d6000fd5b506123cd92506123ab915050602086018661433d565b858181106123bb576123bb6147e6565b9050602002810190611f7e91906144da565b6123da602085018561433d565b848181106123ea576123ea6147e6565b90506020028101906123fc91906144da565b61240d906040810190602001613a1c565b73ffffffffffffffffffffffffffffffffffffffff1663627dd56a612435602087018761433d565b86818110612445576124456147e6565b905060200281019061245791906144da565b61246590606081019061440d565b6040518363ffffffff1660e01b8152600401612482929190614316565b602060405180830381600087803b15801561249c57600080fd5b505af11580156124b0573d6000803e3d6000fd5b505050506040513d601f19601f820116820180604052508101906124d491906140d1565b50505080806124e29061477e565b9150506120a7565b5060005b6124fb60408301836143a5565b905081101561299857600073ffffffffffffffffffffffffffffffffffffffff7f00000000000000000000000000000000000000000000000000000000000000001663f7888aec61254f60408601866143a5565b8581811061255f5761255f6147e6565b6125759260206080909202019081019150613a1c565b6040517fffffffff0000000000000000000000000000000000000000000000000000000060e084901b16815273ffffffffffffffffffffffffffffffffffffffff909116600482015230602482015260440160206040518083038186803b1580156125df57600080fd5b505afa1580156125f3573d6000803e3d6000fd5b505050506040513d601f19601f8201168201806040525081019061261791906140d1565b905061262660408401846143a5565b83818110612636576126366147e6565b905060800201606001358110156126a9576040517f08c379a000000000000000000000000000000000000000000000000000000000815260206004820152601360248201527f544f4f5f4c4954544c455f52454345495645440000000000000000000000000060448201526064016106a2565b6126b660408401846143a5565b838181106126c6576126c66147e6565b90506080020160400160208101906126de9190613ee2565b1561284a5773ffffffffffffffffffffffffffffffffffffffff7f0000000000000000000000000000000000000000000000000000000000000000166397da6d3061272c60408601866143a5565b8581811061273c5761273c6147e6565b6127529260206080909202019081019150613a1c565b3061276060408801886143a5565b87818110612770576127706147e6565b90506080020160200160208101906127889190613a1c565b60405160e085901b7fffffffff0000000000000000000000000000000000000000000000000000000016815273ffffffffffffffffffffffffffffffffffffffff938416600482015291831660248301529091166044820152600060648201526084810184905260a4016040805180830381600087803b15801561280b57600080fd5b505af115801561281f573d6000803e3d6000fd5b505050506040513d601f19601f820116820180604052508101906128439190614159565b5050612985565b73ffffffffffffffffffffffffffffffffffffffff7f00000000000000000000000000000000000000000000000000000000000000001663f18d03cc61289360408601866143a5565b858181106128a3576128a36147e6565b6128b99260206080909202019081019150613a1c565b306128c760408801886143a5565b878181106128d7576128d76147e6565b90506080020160200160208101906128ef9190613a1c565b60405160e085901b7fffffffff0000000000000000000000000000000000000000000000000000000016815273ffffffffffffffffffffffffffffffffffffffff93841660048201529183166024830152909116604482015260648101849052608401600060405180830381600087803b15801561296c57600080fd5b505af1158015612980573d6000803e3d6000fd5b505050505b50806129908161477e565b9150506124ee565b5050565b60015473ffffffffffffffffffffffffffffffffffffffff163314612a1d576040517f08c379a000000000000000000000000000000000000000000000000000000000815260206004820152601560248201527f554e415554484f52495a45445f43414c4c4241434b000000000000000000000060448201526064016106a2565b6000612a2b828401846140b5565b9050806020015115612a695780516000546040830151612a64929173ffffffffffffffffffffffffffffffffffffffff169033906134f3565b612b2a565b805160005460408084015190517ff18d03cc00000000000000000000000000000000000000000000000000000000815273ffffffffffffffffffffffffffffffffffffffff9384166004820152918316602483015233604483015260648201527f00000000000000000000000000000000000000000000000000000000000000009091169063f18d03cc90608401600060405180830381600087803b158015612b1157600080fd5b505af1158015612b25573d6000803e3d6000fd5b505050505b5050600080547fffffffffffffffffffffffff000000000000000000000000000000000000000016600117905550565b60015473ffffffffffffffffffffffffffffffffffffffff163314612bdb576040517f08c379a000000000000000000000000000000000000000000000000000000000815260206004820152601560248201527f554e415554484f52495a45445f43414c4c4241434b000000000000000000000060448201526064016106a2565b6000612be982840184613e24565b905060005b8151811015612db557818181518110612c0957612c096147e6565b60200260200101516020015115612c8557612c80828281518110612c2f57612c2f6147e6565b60200260200101516000015160008054906101000a900473ffffffffffffffffffffffffffffffffffffffff1633858581518110612c6f57612c6f6147e6565b6020026020010151604001516134f3565b612da3565b7f000000000000000000000000000000000000000000000000000000000000000073ffffffffffffffffffffffffffffffffffffffff1663f18d03cc838381518110612cd357612cd36147e6565b60200260200101516000015160008054906101000a900473ffffffffffffffffffffffffffffffffffffffff1633868681518110612d1357612d136147e6565b6020026020010151604001516040518563ffffffff1660e01b8152600401612d70949392919073ffffffffffffffffffffffffffffffffffffffff9485168152928416602084015292166040820152606081019190915260800190565b600060405180830381600087803b158015612d8a57600080fd5b505af1158015612d9e573d6000803e3d6000fd5b505050505b80612dad8161477e565b915050612bee565b5050600080547fffffffffffffffffffffffff00000000000000000000000000000000000000001660011790555050565b6000612e117f00000000000000000000000000000000000000000000000000000000000000006135fc565b905082811015612e7d576040517f08c379a000000000000000000000000000000000000000000000000000000000815260206004820152601160248201527f494e53554646494349454e545f5745544800000000000000000000000000000060448201526064016106a2565b8015611aa257612e8c8161375c565b611aa28282613148565b73ffffffffffffffffffffffffffffffffffffffff7f00000000000000000000000000000000000000000000000000000000000000008116906302b9446c90851615612ee3576000612ee5565b825b6040517fffffffff0000000000000000000000000000000000000000000000000000000060e084901b16815273ffffffffffffffffffffffffffffffffffffffff808816600483015233602483015286166044820152606481018590526000608482015260a40160408051808303818588803b158015612f6457600080fd5b505af1158015612f78573d6000803e3d6000fd5b50505050506040513d601f19601f82011682018060405250810190612f9d9190614159565b5050505050565b73ffffffffffffffffffffffffffffffffffffffff811660009081526002602052604090205460ff16613145576040517fa4063dbc00000000000000000000000000000000000000000000000000000000815273ffffffffffffffffffffffffffffffffffffffff82811660048301527f0000000000000000000000000000000000000000000000000000000000000000169063a4063dbc9060240160206040518083038186803b15801561305857600080fd5b505afa15801561306c573d6000803e3d6000fd5b505050506040513d601f19601f820116820180604052508101906130909190613eff565b6130f6576040517f08c379a000000000000000000000000000000000000000000000000000000000815260206004820152600c60248201527f494e56414c494420504f4f4c000000000000000000000000000000000000000060448201526064016106a2565b73ffffffffffffffffffffffffffffffffffffffff8116600090815260026020526040902080547fffffffffffffffffffffffffffffffffffffffffffffffffffffffffffffff001660011790555b50565b60008273ffffffffffffffffffffffffffffffffffffffff168260405160006040518083038185875af1925050503d80600081146131a2576040519150601f19603f3d011682016040523d82523d6000602084013e6131a7565b606091505b5050905080611aa2576040517f08c379a000000000000000000000000000000000000000000000000000000000815260206004820152601360248201527f4554485f5452414e534645525f4641494c45440000000000000000000000000060448201526064016106a2565b6040805173ffffffffffffffffffffffffffffffffffffffff85811660248301528481166044830152606480830185905283518084039091018152608490920183526020820180517bffffffffffffffffffffffffffffffffffffffffffffffffffffffff167f23b872dd0000000000000000000000000000000000000000000000000000000017905291516000928392908816916132b1919061424a565b6000604051808303816000865af19150503d80600081146132ee576040519150601f19603f3d011682016040523d82523d6000602084013e6132f3565b606091505b509150915081801561331d57508051158061331d57508080602001905181019061331d9190613eff565b6109f8576040517f08c379a000000000000000000000000000000000000000000000000000000000815260206004820152601460248201527f5452414e534645525f46524f4d5f4641494c454400000000000000000000000060448201526064016106a2565b6020015190565b6040805173ffffffffffffffffffffffffffffffffffffffff8481166024830152604480830185905283518084039091018152606490920183526020820180517bffffffffffffffffffffffffffffffffffffffffffffffffffffffff167fa9059cbb000000000000000000000000000000000000000000000000000000001790529151600092839290871691613421919061424a565b6000604051808303816000865af19150503d806000811461345e576040519150601f19603f3d011682016040523d82523d6000602084013e613463565b606091505b509150915081801561348d57508051158061348d57508080602001905181019061348d9190613eff565b612f9d576040517f08c379a000000000000000000000000000000000000000000000000000000000815260206004820152600f60248201527f5452414e534645525f4641494c4544000000000000000000000000000000000060448201526064016106a2565b73ffffffffffffffffffffffffffffffffffffffff7f00000000000000000000000000000000000000000000000000000000000000008116906302b9446c90861615613540576000613542565b825b6040517fffffffff0000000000000000000000000000000000000000000000000000000060e084901b16815273ffffffffffffffffffffffffffffffffffffffff8089166004830152808816602483015286166044820152606481018590526000608482015260a40160408051808303818588803b1580156135c357600080fd5b505af11580156135d7573d6000803e3d6000fd5b50505050506040513d601f19601f820116820180604052508101906109f89190614159565b604080513060248083019190915282518083039091018152604490910182526020810180517bffffffffffffffffffffffffffffffffffffffffffffffffffffffff167f70a082310000000000000000000000000000000000000000000000000000000017905290516000918291829173ffffffffffffffffffffffffffffffffffffffff86169161368e919061424a565b600060405180830381855afa9150503d80600081146136c9576040519150601f19603f3d011682016040523d82523d6000602084013e6136ce565b606091505b50915091508180156136e257506020815110155b613748576040517f08c379a000000000000000000000000000000000000000000000000000000000815260206004820152601160248201527f42414c414e43455f4f465f4641494c454400000000000000000000000000000060448201526064016106a2565b808060200190518101906110c491906140d1565b60007f000000000000000000000000000000000000000000000000000000000000000073ffffffffffffffffffffffffffffffffffffffff16632e1a7d4d836040516024016137ad91815260200190565b6040516020818303038152906040529060e01b6020820180517bffffffffffffffffffffffffffffffffffffffffffffffffffffffff83818316178352505050506040516137fb919061424a565b6000604051808303816000865af19150503d8060008114613838576040519150601f19603f3d011682016040523d82523d6000602084013e61383d565b606091505b5050905080612998576040517f08c379a000000000000000000000000000000000000000000000000000000000815260206004820152601960248201527f57495448445241575f46524f4d5f574554485f4641494c45440000000000000060448201526064016106a2565b60008083601f8401126138ba57600080fd5b50813567ffffffffffffffff8111156138d257600080fd5b6020830191508360208260051b85010111156138ed57600080fd5b9250929050565b600082601f83011261390557600080fd5b8135602061391a61391583614586565b614537565b8281528181019085830160608086028801850189101561393957600080fd5b60005b868110156139605761394e8a846139b0565b8552938501939181019160010161393c565b509198975050505050505050565b60008083601f84011261398057600080fd5b50813567ffffffffffffffff81111561399857600080fd5b6020830191508360208285010111156138ed57600080fd5b6000606082840312156139c257600080fd5b6040516060810181811067ffffffffffffffff821117156139e5576139e5614815565b60405290508082356139f681614844565b81526020830135613a0681614866565b6020820152604092830135920191909152919050565b600060208284031215613a2e57600080fd5b8135610c6581614844565b600060208284031215613a4b57600080fd5b8151610c6581614844565b600080600060408486031215613a6b57600080fd5b8335613a7681614844565b9250602084013567ffffffffffffffff811115613a9257600080fd5b613a9e8682870161396e565b9497909650939450505050565b600080600060608486031215613ac057600080fd5b8335613acb81614844565b9250602084013591506040840135613ae281614844565b809150509250925092565b60008060008060608587031215613b0357600080fd5b8435613b0e81614844565b935060208501359250604085013567ffffffffffffffff811115613b3157600080fd5b613b3d8782880161396e565b95989497509550505050565b600080600080600060808688031215613b6157600080fd5b8535613b6c81614844565b94506020868101359450604087013567ffffffffffffffff80821115613b9157600080fd5b613b9d8a838b0161396e565b90965094506060890135915080821115613bb657600080fd5b508701601f81018913613bc857600080fd5b8035613bd661391582614586565b8082825284820191508484018c868560061b8701011115613bf657600080fd5b60009450845b84811015613c44576040828f031215613c13578586fd5b613c1b61450e565b8235613c2681614844565b81528288013588820152845292860192604090910190600101613bfc565b505080955050505050509295509295909350565b600080600080600060808688031215613c7057600080fd5b8535613c7b81614844565b945060208601359350604086013567ffffffffffffffff811115613c9e57600080fd5b613caa8882890161396e565b96999598509660600135949350505050565b60008060008060008060c08789031215613cd557600080fd5b8635613ce081614844565b95506020870135945060408701359350606087013560ff81168114613d0457600080fd5b9598949750929560808101359460a0909101359350915050565b60008060208385031215613d3157600080fd5b823567ffffffffffffffff811115613d4857600080fd5b613d54858286016138a8565b90969095509350505050565b60006020808385031215613d7357600080fd5b825167ffffffffffffffff811115613d8a57600080fd5b8301601f81018513613d9b57600080fd5b8051613da961391582614586565b80828252848201915084840188868560061b8701011115613dc957600080fd5b60009450845b84811015613e1657604080838c031215613de7578687fd5b613def61450e565b8351613dfa81614844565b8152838901518982015285529387019390910190600101613dcf565b509098975050505050505050565b600060208284031215613e3657600080fd5b813567ffffffffffffffff811115613e4d57600080fd5b6110c4848285016138f4565b600080600080600060808688031215613e7157600080fd5b853567ffffffffffffffff80821115613e8957600080fd5b613e9589838a016138f4565b965060208801359150613ea782614844565b9094506040870135935060608701359080821115613ec457600080fd5b50613ed18882890161396e565b969995985093965092949392505050565b600060208284031215613ef457600080fd5b8135610c6581614866565b600060208284031215613f1157600080fd5b8151610c6581614866565b60008060208385031215613f2f57600080fd5b823567ffffffffffffffff811115613f4657600080fd5b613d548582860161396e565b600060208284031215613f6457600080fd5b815167ffffffffffffffff80821115613f7c57600080fd5b818401915084601f830112613f9057600080fd5b815181811115613fa257613fa2614815565b613fd360207fffffffffffffffffffffffffffffffffffffffffffffffffffffffffffffffe0601f84011601614537565b9150808252856020828501011115613fea57600080fd5b613ffb81602084016020860161474e565b50949350505050565b60006020828403121561401657600080fd5b813567ffffffffffffffff81111561402d57600080fd5b820160608185031215610c6557600080fd5b60006020828403121561405157600080fd5b813567ffffffffffffffff81111561406857600080fd5b820160808185031215610c6557600080fd5b60006020828403121561408c57600080fd5b813567ffffffffffffffff8111156140a357600080fd5b820160a08185031215610c6557600080fd5b6000606082840312156140c757600080fd5b610c6583836139b0565b6000602082840312156140e357600080fd5b5051919050565b600080604083850312156140fd57600080fd5b82359150602083013561410f81614844565b809150509250929050565b60008060006040848603121561412f57600080fd5b83359250602084013567ffffffffffffffff81111561414d57600080fd5b613a9e868287016138a8565b6000806040838503121561416c57600080fd5b505080516020909101519092909150565b60006020828403121561418f57600080fd5b813567ffffffffffffffff81168114610c6557600080fd5b8183528181602085013750600060208284010152600060207fffffffffffffffffffffffffffffffffffffffffffffffffffffffffffffffe0601f840116840101905092915050565b6000815180845261420881602086016020860161474e565b601f017fffffffffffffffffffffffffffffffffffffffffffffffffffffffffffffffe0169290920160200192915050565b8183823760009101908152919050565b6000825161425c81846020870161474e565b9190910192915050565b73ffffffffffffffffffffffffffffffffffffffff841681526040602082015260006115d66040830184866141a7565b6000602080830181845280855180835260408601915060408160051b870101925083870160005b82811015614309577fffffffffffffffffffffffffffffffffffffffffffffffffffffffffffffffc08886030184526142f78583516141f0565b945092850192908501906001016142bd565b5092979650505050505050565b6020815260006110c46020830184866141a7565b602081526000610c6560208301846141f0565b60008083357fffffffffffffffffffffffffffffffffffffffffffffffffffffffffffffffe184360301811261437257600080fd5b83018035915067ffffffffffffffff82111561438d57600080fd5b6020019150600581901b36038213156138ed57600080fd5b60008083357fffffffffffffffffffffffffffffffffffffffffffffffffffffffffffffffe18436030181126143da57600080fd5b83018035915067ffffffffffffffff8211156143f557600080fd5b6020019150600781901b36038213156138ed57600080fd5b60008083357fffffffffffffffffffffffffffffffffffffffffffffffffffffffffffffffe184360301811261444257600080fd5b83018035915067ffffffffffffffff82111561445d57600080fd5b6020019150368190038213156138ed57600080fd5b600082357fffffffffffffffffffffffffffffffffffffffffffffffffffffffffffffff6183360301811261425c57600080fd5b600082357fffffffffffffffffffffffffffffffffffffffffffffffffffffffffffffffc183360301811261425c57600080fd5b600082357fffffffffffffffffffffffffffffffffffffffffffffffffffffffffffffff8183360301811261425c57600080fd5b6040805190810167ffffffffffffffff8111828210171561453157614531614815565b60405290565b604051601f82017fffffffffffffffffffffffffffffffffffffffffffffffffffffffffffffffe016810167ffffffffffffffff8111828210171561457e5761457e614815565b604052919050565b600067ffffffffffffffff8211156145a0576145a0614815565b5060051b60200190565b6000826145e0577f4e487b7100000000000000000000000000000000000000000000000000000000600052601260045260246000fd5b500490565b600181815b8085111561463e57817fffffffffffffffffffffffffffffffffffffffffffffffffffffffffffffffff04821115614624576146246147b7565b8085161561463157918102915b93841c93908002906145ea565b509250929050565b6000610c6560ff84168360008261465f5750600161470b565b8161466c5750600061470b565b8160018114614682576002811461468c576146a8565b600191505061470b565b60ff84111561469d5761469d6147b7565b50506001821b61470b565b5060208310610133831016604e8410600b84101617156146cb575081810a61470b565b6146d583836145e5565b807fffffffffffffffffffffffffffffffffffffffffffffffffffffffffffffffff04821115614707576147076147b7565b0290505b92915050565b6000817fffffffffffffffffffffffffffffffffffffffffffffffffffffffffffffffff0483118215151615614749576147496147b7565b500290565b60005b83811015614769578181015183820152602001614751565b83811115614778576000848401525b50505050565b60007fffffffffffffffffffffffffffffffffffffffffffffffffffffffffffffffff8214156147b0576147b06147b7565b5060010190565b7f4e487b7100000000000000000000000000000000000000000000000000000000600052601160045260246000fd5b7f4e487b7100000000000000000000000000000000000000000000000000000000600052603260045260246000fd5b7f4e487b7100000000000000000000000000000000000000000000000000000000600052604160045260246000fd5b73ffffffffffffffffffffffffffffffffffffffff8116811461314557600080fd5b801515811461314557600080fdfea2646970667358221220552af48e84bc910c2f9ef20738d765a690709bb91df88d00c1700013ca55230b64736f6c63430008070033",
  "devdoc": {
    "kind": "dev",
    "methods": {
      "addLiquidity((address,bool,uint256)[],address,uint256,bytes)": {
        "params": {
          "data": "Data required by the pool to add liquidity.",
          "minLiquidity": "Minimum output liquidity - caps slippage.",
          "pool": "Pool address to add liquidity to.",
          "tokenInput": "Token address and amount to add as liquidity."
        }
      },
      "addLiquidityLazy(address,uint256,bytes)": {
        "details": "The input tokens are sent to the pool during the callback."
      },
      "batch(bytes[])": {
        "details": "The `msg.value` should not be trusted for any method callable from this function.",
        "params": {
          "data": "ABI-encoded params for each of the calls to make to this contract."
        },
        "returns": {
          "results": "The results from each of the calls passed in via `data`."
        }
      },
      "burnLiquidity(address,uint256,bytes,(address,uint256)[])": {
        "params": {
          "data": "Data required by the pool to burn liquidity.",
          "liquidity": "Amount of liquidity tokens to burn.",
          "minWithdrawals": "Minimum amount of `bento` tokens to be returned.",
          "pool": "Pool address."
        }
      },
      "burnLiquiditySingle(address,uint256,bytes,uint256)": {
        "details": "The tokens are swapped automatically and the output is in a single token.",
        "params": {
          "data": "Data required by the pool to burn liquidity.",
          "liquidity": "Amount of liquidity tokens to burn.",
          "minWithdrawal": "Minimum amount of tokens to be returned.",
          "pool": "Pool address."
        }
      },
      "complexPath(((address,address,bool,uint256,bytes)[],(address,address,uint64,bytes)[],(address,address,bool,uint256)[]))": {
        "details": "This function is not optimized for single swaps and should only be used in complex cases where the amounts are large enough that minimizing slippage by using multiple paths is worth the extra gas.",
        "params": {
          "params": "This includes everything needed for the swap. Look at the `ComplexPathParams` struct for more details."
        }
      },
      "exactInput((address,uint256,uint256,(address,bytes)[]))": {
        "details": "Ensure that the pools are trusted before calling this function. The pools can steal users' tokens.",
        "params": {
          "params": "This includes the addresses of the tokens, pools, amount of token A to swap, minimum amount of token B after the swap and data required by the pools for the swaps."
        }
      },
      "exactInputLazy(uint256,(address,bytes)[])": {
        "details": "Ensure that the pools are trusted before calling this function. The pools can steal users' tokens. This function will unlikely be used in production but it shows how to use callbacks. One use case will be arbitrage.",
        "params": {
          "amountOutMinimum": "Minimum amount of token B after the swap.",
          "path": "Addresses of the pools and data required by the pools for the swaps."
        }
      },
      "exactInputSingle((uint256,uint256,address,address,bytes))": {
        "details": "Ensure that the pool is trusted before calling this function. The pool can steal users' tokens.",
        "params": {
          "params": "This includes the address of token A, pool, amount of token A to swap, minimum amount of token B after the swap and data required by the pool for the swap."
        }
      },
      "exactInputSingleWithNativeToken((uint256,uint256,address,address,bytes))": {
        "details": "Ensure that the pool is trusted before calling this function. The pool can steal users' tokens.",
        "params": {
          "params": "This includes the address of token A, pool, amount of token A to swap, minimum amount of token B after the swap and data required by the pool for the swap."
        }
      },
      "exactInputWithNativeToken((address,uint256,uint256,(address,bytes)[]))": {
        "details": "Ensure that the pools are trusted before calling this function. The pools can steal users' tokens.",
        "params": {
          "params": "This includes the addresses of the tokens, pools, amount of token A to swap, minimum amount of token B after the swap and data required by the pools for the swaps."
        }
      },
      "permitThis(address,uint256,uint256,uint8,bytes32,bytes32)": {
        "params": {
          "amount": "Token amount to grant spending right over.",
          "deadline": "Termination for signed approval (UTC timestamp in seconds).",
          "r": "Half of the ECDSA signature pair.",
          "s": "Half of the ECDSA signature pair.",
          "token": "Address of ERC-20 token.",
          "v": "The recovery byte of the signature."
        }
      },
      "permitThisAllowed(address,uint256,uint256,uint8,bytes32,bytes32)": {
        "params": {
          "expiry": "Termination for signed approval - UTC timestamp in seconds.",
          "nonce": "Token owner's nonce - increases at each call to {permit}.",
          "r": "Half of the ECDSA signature pair.",
          "s": "Half of the ECDSA signature pair.",
          "token": "Address of ERC-20 token.",
          "v": "The recovery byte of the signature."
        }
      }
    },
    "stateVariables": {
      "cachedMsgSender": {
        "details": "Used to ensure that `tridentSwapCallback` is called only by the authorized address. These are set when someone calls a flash swap and reset afterwards."
      }
    },
    "version": 1
  },
  "userdoc": {
    "kind": "user",
    "methods": {
      "addLiquidity((address,bool,uint256)[],address,uint256,bytes)": {
        "notice": "Add liquidity to a pool."
      },
      "addLiquidityLazy(address,uint256,bytes)": {
        "notice": "Add liquidity to a pool using callbacks - same as `addLiquidity`, but now with callbacks."
      },
      "batch(bytes[])": {
        "notice": "Provides batch function calls for this contract and returns the data from all of them if they all succeed. Adapted from https://github.com/Uniswap/uniswap-v3-periphery/blob/main/contracts/base/Multicall.sol, License-Identifier: GPL-2.0-or-later."
      },
      "bento()": {
        "notice": "BentoBox token vault."
      },
      "burnLiquidity(address,uint256,bytes,(address,uint256)[])": {
        "notice": "Burn liquidity tokens to get back `bento` tokens."
      },
      "burnLiquiditySingle(address,uint256,bytes,uint256)": {
        "notice": "Burn liquidity tokens to get back `bento` tokens."
      },
      "complexPath(((address,address,bool,uint256,bytes)[],(address,address,uint64,bytes)[],(address,address,bool,uint256)[]))": {
        "notice": "Swaps multiple input tokens to multiple output tokens using multiple paths, in different percentages. For example, you can swap 50 DAI + 100 USDC into 60% ETH and 40% BTC."
      },
      "exactInput((address,uint256,uint256,(address,bytes)[]))": {
        "notice": "Swaps token A to token B indirectly by using multiple hops."
      },
      "exactInputLazy(uint256,(address,bytes)[])": {
        "notice": "Swaps token A to token B by using callbacks."
      },
      "exactInputSingle((uint256,uint256,address,address,bytes))": {
        "notice": "Swaps token A to token B directly. Swaps are done on `bento` tokens."
      },
      "exactInputSingleWithNativeToken((uint256,uint256,address,address,bytes))": {
        "notice": "Swaps token A to token B directly. It's the same as `exactInputSingle` except it takes raw ERC-20 tokens from the users and deposits them into `bento`."
      },
      "exactInputWithNativeToken((address,uint256,uint256,(address,bytes)[]))": {
        "notice": "Swaps token A to token B indirectly by using multiple hops. It's the same as `exactInput` except it takes raw ERC-20 tokens from the users and deposits them into `bento`."
      },
      "permitThis(address,uint256,uint256,uint8,bytes32,bytes32)": {
        "notice": "Provides EIP-2612 signed approval for this contract to spend user tokens."
      },
      "permitThisAllowed(address,uint256,uint256,uint8,bytes32,bytes32)": {
        "notice": "Provides DAI-derived signed approval for this contract to spend user tokens."
      },
      "refundETH()": {
        "notice": "Recover mistakenly sent ETH."
      },
      "sweepBentoBoxToken(address,uint256,address)": {
        "notice": "Recover mistakenly sent `bento` tokens."
      },
      "sweepNativeToken(address,uint256,address)": {
        "notice": "Recover mistakenly sent ERC-20 tokens."
      },
      "tridentMintCallback(bytes)": {
        "notice": "Can be used by the pool 'mint' functionality to take tokens from the user."
      },
      "tridentSwapCallback(bytes)": {
        "notice": "Used by the pool 'flashSwap' functionality to take input tokens from the user."
      },
      "unwrapWETH(uint256,address)": {
        "notice": "Unwrap this contract's `wETH` into ETH"
      }
    },
    "notice": "Router contract that helps in swapping across Trident pools.",
    "version": 1
  },
  "storageLayout": {
    "storage": [
      {
        "astId": 21,
        "contract": "contracts/TridentRouter.sol:TridentRouter",
        "label": "cachedMsgSender",
        "offset": 0,
        "slot": "0",
        "type": "t_address"
      },
      {
        "astId": 23,
        "contract": "contracts/TridentRouter.sol:TridentRouter",
        "label": "cachedPool",
        "offset": 0,
        "slot": "1",
        "type": "t_address"
      },
      {
        "astId": 27,
        "contract": "contracts/TridentRouter.sol:TridentRouter",
        "label": "whitelistedPools",
        "offset": 0,
        "slot": "2",
        "type": "t_mapping(t_address,t_bool)"
      }
    ],
    "types": {
      "t_address": {
        "encoding": "inplace",
        "label": "address",
        "numberOfBytes": "20"
      },
      "t_bool": {
        "encoding": "inplace",
        "label": "bool",
        "numberOfBytes": "1"
      },
      "t_mapping(t_address,t_bool)": {
        "encoding": "mapping",
        "key": "t_address",
        "label": "mapping(address => bool)",
        "numberOfBytes": "32",
        "value": "t_bool"
      }
    }
  }
}