{
  "address": "0x29018959f214Ecb0b1AD1b7B0b96Fc3b9c22d52b",
  "abi": [
    {
      "inputs": [
        {
          "internalType": "contract IBentoBoxMinimal",
          "name": "bento",
          "type": "address"
        },
        {
          "internalType": "contract IMasterDeployer",
          "name": "masterDeployer",
          "type": "address"
        },
        {
          "internalType": "address",
          "name": "wETH",
          "type": "address"
        }
      ],
      "stateMutability": "nonpayable",
      "type": "constructor"
    },
    {
      "inputs": [],
      "name": "PermitFailed",
      "type": "error"
    },
    {
      "inputs": [
        {
          "components": [
            {
              "internalType": "address",
              "name": "token",
              "type": "address"
            },
            {
              "internalType": "bool",
              "name": "native",
              "type": "bool"
            },
            {
              "internalType": "uint256",
              "name": "amount",
              "type": "uint256"
            }
          ],
          "internalType": "struct ITridentRouter.TokenInput[]",
          "name": "tokenInput",
          "type": "tuple[]"
        },
        {
          "internalType": "address",
          "name": "pool",
          "type": "address"
        },
        {
          "internalType": "uint256",
          "name": "minLiquidity",
          "type": "uint256"
        },
        {
          "internalType": "bytes",
          "name": "data",
          "type": "bytes"
        }
      ],
      "name": "addLiquidity",
      "outputs": [
        {
          "internalType": "uint256",
          "name": "liquidity",
          "type": "uint256"
        }
      ],
      "stateMutability": "payable",
      "type": "function"
    },
    {
      "inputs": [
        {
          "internalType": "address",
          "name": "pool",
          "type": "address"
        },
        {
          "internalType": "uint256",
          "name": "minLiquidity",
          "type": "uint256"
        },
        {
          "internalType": "bytes",
          "name": "data",
          "type": "bytes"
        }
      ],
      "name": "addLiquidityLazy",
      "outputs": [
        {
          "internalType": "uint256",
          "name": "liquidity",
          "type": "uint256"
        }
      ],
      "stateMutability": "payable",
      "type": "function"
    },
    {
      "inputs": [
        {
          "internalType": "uint8",
          "name": "v",
          "type": "uint8"
        },
        {
          "internalType": "bytes32",
          "name": "r",
          "type": "bytes32"
        },
        {
          "internalType": "bytes32",
          "name": "s",
          "type": "bytes32"
        }
      ],
      "name": "approveMasterContract",
      "outputs": [],
      "stateMutability": "nonpayable",
      "type": "function"
    },
    {
      "inputs": [
        {
          "internalType": "bytes[]",
          "name": "data",
          "type": "bytes[]"
        }
      ],
      "name": "batch",
      "outputs": [
        {
          "internalType": "bytes[]",
          "name": "results",
          "type": "bytes[]"
        }
      ],
      "stateMutability": "payable",
      "type": "function"
    },
    {
      "inputs": [],
      "name": "bento",
      "outputs": [
        {
          "internalType": "contract IBentoBoxMinimal",
          "name": "",
          "type": "address"
        }
      ],
      "stateMutability": "view",
      "type": "function"
    },
    {
      "inputs": [
        {
          "internalType": "address",
          "name": "pool",
          "type": "address"
        },
        {
          "internalType": "uint256",
          "name": "liquidity",
          "type": "uint256"
        },
        {
          "internalType": "bytes",
          "name": "data",
          "type": "bytes"
        },
        {
          "components": [
            {
              "internalType": "address",
              "name": "token",
              "type": "address"
            },
            {
              "internalType": "uint256",
              "name": "amount",
              "type": "uint256"
            }
          ],
          "internalType": "struct IPool.TokenAmount[]",
          "name": "minWithdrawals",
          "type": "tuple[]"
        }
      ],
      "name": "burnLiquidity",
      "outputs": [],
      "stateMutability": "nonpayable",
      "type": "function"
    },
    {
      "inputs": [
        {
          "internalType": "address",
          "name": "pool",
          "type": "address"
        },
        {
          "internalType": "uint256",
          "name": "liquidity",
          "type": "uint256"
        },
        {
          "internalType": "bytes",
          "name": "data",
          "type": "bytes"
        },
        {
          "internalType": "uint256",
          "name": "minWithdrawal",
          "type": "uint256"
        }
      ],
      "name": "burnLiquiditySingle",
      "outputs": [],
      "stateMutability": "nonpayable",
      "type": "function"
    },
    {
      "inputs": [
        {
          "components": [
            {
              "components": [
                {
                  "internalType": "address",
                  "name": "tokenIn",
                  "type": "address"
                },
                {
                  "internalType": "address",
                  "name": "pool",
                  "type": "address"
                },
                {
                  "internalType": "bool",
                  "name": "native",
                  "type": "bool"
                },
                {
                  "internalType": "uint256",
                  "name": "amount",
                  "type": "uint256"
                },
                {
                  "internalType": "bytes",
                  "name": "data",
                  "type": "bytes"
                }
              ],
              "internalType": "struct ITridentRouter.InitialPath[]",
              "name": "initialPath",
              "type": "tuple[]"
            },
            {
              "components": [
                {
                  "internalType": "address",
                  "name": "tokenIn",
                  "type": "address"
                },
                {
                  "internalType": "address",
                  "name": "pool",
                  "type": "address"
                },
                {
                  "internalType": "uint64",
                  "name": "balancePercentage",
                  "type": "uint64"
                },
                {
                  "internalType": "bytes",
                  "name": "data",
                  "type": "bytes"
                }
              ],
              "internalType": "struct ITridentRouter.PercentagePath[]",
              "name": "percentagePath",
              "type": "tuple[]"
            },
            {
              "components": [
                {
                  "internalType": "address",
                  "name": "token",
                  "type": "address"
                },
                {
                  "internalType": "address",
                  "name": "to",
                  "type": "address"
                },
                {
                  "internalType": "bool",
                  "name": "unwrapBento",
                  "type": "bool"
                },
                {
                  "internalType": "uint256",
                  "name": "minAmount",
                  "type": "uint256"
                }
              ],
              "internalType": "struct ITridentRouter.Output[]",
              "name": "output",
              "type": "tuple[]"
            }
          ],
          "internalType": "struct ITridentRouter.ComplexPathParams",
          "name": "params",
          "type": "tuple"
        }
      ],
      "name": "complexPath",
      "outputs": [],
      "stateMutability": "payable",
      "type": "function"
    },
    {
      "inputs": [
        {
          "internalType": "address",
          "name": "_factory",
          "type": "address"
        },
        {
          "internalType": "bytes",
          "name": "_deployData",
          "type": "bytes"
        }
      ],
      "name": "deployPool",
      "outputs": [
        {
          "internalType": "address",
          "name": "",
          "type": "address"
        }
      ],
      "stateMutability": "nonpayable",
      "type": "function"
    },
    {
      "inputs": [
        {
          "components": [
            {
              "internalType": "address",
              "name": "tokenIn",
              "type": "address"
            },
            {
              "internalType": "uint256",
              "name": "amountIn",
              "type": "uint256"
            },
            {
              "internalType": "uint256",
              "name": "amountOutMinimum",
              "type": "uint256"
            },
            {
              "components": [
                {
                  "internalType": "address",
                  "name": "pool",
                  "type": "address"
                },
                {
                  "internalType": "bytes",
                  "name": "data",
                  "type": "bytes"
                }
              ],
              "internalType": "struct ITridentRouter.Path[]",
              "name": "path",
              "type": "tuple[]"
            }
          ],
          "internalType": "struct ITridentRouter.ExactInputParams",
          "name": "params",
          "type": "tuple"
        }
      ],
      "name": "exactInput",
      "outputs": [
        {
          "internalType": "uint256",
          "name": "amountOut",
          "type": "uint256"
        }
      ],
      "stateMutability": "payable",
      "type": "function"
    },
    {
      "inputs": [
        {
          "internalType": "uint256",
          "name": "amountOutMinimum",
          "type": "uint256"
        },
        {
          "components": [
            {
              "internalType": "address",
              "name": "pool",
              "type": "address"
            },
            {
              "internalType": "bytes",
              "name": "data",
              "type": "bytes"
            }
          ],
          "internalType": "struct ITridentRouter.Path[]",
          "name": "path",
          "type": "tuple[]"
        }
      ],
      "name": "exactInputLazy",
      "outputs": [
        {
          "internalType": "uint256",
          "name": "amountOut",
          "type": "uint256"
        }
      ],
      "stateMutability": "payable",
      "type": "function"
    },
    {
      "inputs": [
        {
          "components": [
            {
              "internalType": "uint256",
              "name": "amountIn",
              "type": "uint256"
            },
            {
              "internalType": "uint256",
              "name": "amountOutMinimum",
              "type": "uint256"
            },
            {
              "internalType": "address",
              "name": "pool",
              "type": "address"
            },
            {
              "internalType": "address",
              "name": "tokenIn",
              "type": "address"
            },
            {
              "internalType": "bytes",
              "name": "data",
              "type": "bytes"
            }
          ],
          "internalType": "struct ITridentRouter.ExactInputSingleParams",
          "name": "params",
          "type": "tuple"
        }
      ],
      "name": "exactInputSingle",
      "outputs": [
        {
          "internalType": "uint256",
          "name": "amountOut",
          "type": "uint256"
        }
      ],
      "stateMutability": "payable",
      "type": "function"
    },
    {
      "inputs": [
        {
          "components": [
            {
              "internalType": "uint256",
              "name": "amountIn",
              "type": "uint256"
            },
            {
              "internalType": "uint256",
              "name": "amountOutMinimum",
              "type": "uint256"
            },
            {
              "internalType": "address",
              "name": "pool",
              "type": "address"
            },
            {
              "internalType": "address",
              "name": "tokenIn",
              "type": "address"
            },
            {
              "internalType": "bytes",
              "name": "data",
              "type": "bytes"
            }
          ],
          "internalType": "struct ITridentRouter.ExactInputSingleParams",
          "name": "params",
          "type": "tuple"
        }
      ],
      "name": "exactInputSingleWithNativeToken",
      "outputs": [
        {
          "internalType": "uint256",
          "name": "amountOut",
          "type": "uint256"
        }
      ],
      "stateMutability": "payable",
      "type": "function"
    },
    {
      "inputs": [
        {
          "components": [
            {
              "internalType": "address",
              "name": "tokenIn",
              "type": "address"
            },
            {
              "internalType": "uint256",
              "name": "amountIn",
              "type": "uint256"
            },
            {
              "internalType": "uint256",
              "name": "amountOutMinimum",
              "type": "uint256"
            },
            {
              "components": [
                {
                  "internalType": "address",
                  "name": "pool",
                  "type": "address"
                },
                {
                  "internalType": "bytes",
                  "name": "data",
                  "type": "bytes"
                }
              ],
              "internalType": "struct ITridentRouter.Path[]",
              "name": "path",
              "type": "tuple[]"
            }
          ],
          "internalType": "struct ITridentRouter.ExactInputParams",
          "name": "params",
          "type": "tuple"
        }
      ],
      "name": "exactInputWithNativeToken",
      "outputs": [
        {
          "internalType": "uint256",
          "name": "amountOut",
          "type": "uint256"
        }
      ],
      "stateMutability": "payable",
      "type": "function"
    },
    {
      "inputs": [],
      "name": "masterDeployer",
      "outputs": [
        {
          "internalType": "contract IMasterDeployer",
          "name": "",
          "type": "address"
        }
      ],
      "stateMutability": "view",
      "type": "function"
    },
    {
      "inputs": [
        {
          "internalType": "address",
          "name": "token",
          "type": "address"
        },
        {
          "internalType": "uint256",
          "name": "amount",
          "type": "uint256"
        },
        {
          "internalType": "uint256",
          "name": "deadline",
          "type": "uint256"
        },
        {
          "internalType": "uint8",
          "name": "v",
          "type": "uint8"
        },
        {
          "internalType": "bytes32",
          "name": "r",
          "type": "bytes32"
        },
        {
          "internalType": "bytes32",
          "name": "s",
          "type": "bytes32"
        }
      ],
      "name": "permitThis",
      "outputs": [],
      "stateMutability": "nonpayable",
      "type": "function"
    },
    {
      "inputs": [
        {
          "internalType": "address",
          "name": "token",
          "type": "address"
        },
        {
          "internalType": "uint256",
          "name": "nonce",
          "type": "uint256"
        },
        {
          "internalType": "uint256",
          "name": "expiry",
          "type": "uint256"
        },
        {
          "internalType": "uint8",
          "name": "v",
          "type": "uint8"
        },
        {
          "internalType": "bytes32",
          "name": "r",
          "type": "bytes32"
        },
        {
          "internalType": "bytes32",
          "name": "s",
          "type": "bytes32"
        }
      ],
      "name": "permitThisAllowed",
      "outputs": [],
      "stateMutability": "nonpayable",
      "type": "function"
    },
    {
      "inputs": [],
      "name": "refundETH",
      "outputs": [],
      "stateMutability": "payable",
      "type": "function"
    },
    {
      "inputs": [
        {
          "internalType": "address",
          "name": "token",
          "type": "address"
        },
        {
          "internalType": "uint256",
          "name": "amount",
          "type": "uint256"
        },
        {
          "internalType": "address",
          "name": "recipient",
          "type": "address"
        }
      ],
      "name": "sweepBentoBoxToken",
      "outputs": [],
      "stateMutability": "nonpayable",
      "type": "function"
    },
    {
      "inputs": [
        {
          "internalType": "address",
          "name": "token",
          "type": "address"
        },
        {
          "internalType": "uint256",
          "name": "amount",
          "type": "uint256"
        },
        {
          "internalType": "address",
          "name": "recipient",
          "type": "address"
        }
      ],
      "name": "sweepNativeToken",
      "outputs": [],
      "stateMutability": "nonpayable",
      "type": "function"
    },
    {
      "inputs": [
        {
          "internalType": "bytes",
          "name": "data",
          "type": "bytes"
        }
      ],
      "name": "tridentMintCallback",
      "outputs": [],
      "stateMutability": "nonpayable",
      "type": "function"
    },
    {
      "inputs": [
        {
          "internalType": "bytes",
          "name": "data",
          "type": "bytes"
        }
      ],
      "name": "tridentSwapCallback",
      "outputs": [],
      "stateMutability": "nonpayable",
      "type": "function"
    },
    {
      "inputs": [
        {
          "internalType": "uint256",
          "name": "amountMinimum",
          "type": "uint256"
        },
        {
          "internalType": "address",
          "name": "recipient",
          "type": "address"
        }
      ],
      "name": "unwrapWETH",
      "outputs": [],
      "stateMutability": "nonpayable",
      "type": "function"
    },
    {
      "stateMutability": "payable",
      "type": "receive"
    }
  ],
  "transactionHash": "0x85321b18632110544865a433071520f2c1de3614c6d1b24d29e0169b6836e99c",
  "args": [
    "0xc381a85ed7C7448Da073b7d6C9d4cBf1Cbf576f0",
    "0xBe8bdb5A8341808e4665207C77B76aDC30598EAE",
    "0xd0A1E359811322d97991E03f863a0C30C2cF029C"
  ],
  "solcInputHash": "1e7afc8fefaa80b40697dbff9648977c",
  "bytecode": "0x60e06040523480156200001157600080fd5b5060405162004b6738038062004b678339810160408190526200003491620000c4565b6001600160601b0319606084811b821660805283811b821660a05282901b1660c0526040805163577268d960e11b815290518491849184916001600160a01b0385169163aee4d1b29160048082019260009290919082900301818387803b1580156200009f57600080fd5b505af1158015620000b4573d6000803e3d6000fd5b5050505050505050505062000131565b600080600060608486031215620000da57600080fd5b8351620000e78162000118565b6020850151909350620000fa8162000118565b60408501519092506200010d8162000118565b809150509250925092565b6001600160a01b03811681146200012e57600080fd5b50565b60805160601c60a05160601c60c05160601c614978620001ef600039600081816101a101528181612e7f01526137f20152600081816104500152818161106401526130a8015260008181610303015281816106f401528181611110015281816113e00152818161165c01528181611afa01528181611e7f01528181612168015281816122f3015281816125af0152818161278c015281816128f301528181612b5d01528181612d1901528181612f3f015261359c01526149786000f3fe6080604052600436106101845760003560e01c806377631981116100d6578063a9b62c231161007f578063ced10b4911610059578063ced10b491461041e578063cf58879a1461043e578063e16d9ce51461047257600080fd5b8063a9b62c23146103cb578063b96c5c0e146103eb578063bd50c7b1146103fe57600080fd5b806394ae4ab2116100b057806394ae4ab21461038557806398a691de146103a55780639fa74491146103b857600080fd5b80637763198114610325578063783312d9146103455780639128efda1461036557600080fd5b80631e897afb116101385780632cfcb94f116101125780632cfcb94f146102be578063403335a8146102d15780634da31827146102f157600080fd5b80631e897afb14610246578063250558dc146102665780632c0d9a01146102ab57600080fd5b806312210e8a1161016957806312210e8a1461020b5780631aa349a8146102135780631ab5d6c81461023357600080fd5b80630b0d1b1e146101d25780630f93d439146101f857600080fd5b366101cd573373ffffffffffffffffffffffffffffffffffffffff7f000000000000000000000000000000000000000000000000000000000000000016146101cb57600080fd5b005b600080fd5b6101e56101e03660046140da565b610492565b6040519081526020015b60405180910390f35b6101e5610206366004614115565b6106db565b6101cb6108e7565b34801561021f57600080fd5b506101cb61022e366004613cfb565b6108f9565b6101e56102413660046141b5565b610a2b565b610259610254366004613db9565b610c97565b6040516101ef9190614364565b34801561027257600080fd5b50610286610281366004613af9565b611024565b60405173ffffffffffffffffffffffffffffffffffffffff90911681526020016101ef565b6101e56102b93660046140da565b6110f7565b6101e56102cc366004613ef4565b61135a565b3480156102dd57600080fd5b506101cb6102ec366004614242565b61160a565b3480156102fd57600080fd5b506102867f000000000000000000000000000000000000000000000000000000000000000081565b34801561033157600080fd5b506101cb610340366004613d5f565b6116d3565b34801561035157600080fd5b506101cb610360366004613bec565b611800565b34801561037157600080fd5b506101cb610380366004613b4e565b611aa0565b34801561039157600080fd5b506101cb6103a0366004613b4e565b611b29565b6101e56103b3366004613b90565b611b39565b6101e56103c6366004614115565b611cc2565b3480156103d757600080fd5b506101cb6103e6366004613d5f565b611cfe565b6101cb6103f936600461409f565b611d5c565b34801561040a57600080fd5b506101cb610419366004613fb7565b612a2e565b34801561042a57600080fd5b506101cb610439366004613fb7565b612bec565b34801561044a57600080fd5b506102867f000000000000000000000000000000000000000000000000000000000000000081565b34801561047e57600080fd5b506101cb61048d366004614185565b612e78565b60006104ec6104a46020840184613abf565b6104b1606085018561440b565b60008181106104c2576104c26148b4565b90506020028101906104d49190614574565b6104e2906020810190613abf565b8460200135612f28565b60005b6104fc606084018461440b565b90508110156106625761054a610515606085018561440b565b83818110610525576105256148b4565b90506020028101906105379190614574565b610545906020810190613abf565b613036565b610557606084018461440b565b82818110610567576105676148b4565b90506020028101906105799190614574565b610587906020810190613abf565b73ffffffffffffffffffffffffffffffffffffffff1663627dd56a6105af606086018661440b565b848181106105bf576105bf6148b4565b90506020028101906105d19190614574565b6105df9060208101906144db565b6040518363ffffffff1660e01b81526004016105fc9291906143e4565b602060405180830381600087803b15801561061657600080fd5b505af115801561062a573d6000803e3d6000fd5b505050506040513d601f19601f8201168201806040525081019061064e919061416c565b91508061065a8161484c565b9150506104ef565b5081604001358110156106d6576040517f08c379a000000000000000000000000000000000000000000000000000000000815260206004820152601360248201527f544f4f5f4c4954544c455f52454345495645440000000000000000000000000060448201526064015b60405180910390fd5b919050565b600073ffffffffffffffffffffffffffffffffffffffff7f00000000000000000000000000000000000000000000000000000000000000001663f18d03cc6107296080850160608601613abf565b3361073a6060870160408801613abf565b6040517fffffffff0000000000000000000000000000000000000000000000000000000060e086901b16815273ffffffffffffffffffffffffffffffffffffffff93841660048201529183166024830152909116604482015284356064820152608401600060405180830381600087803b1580156107b757600080fd5b505af11580156107cb573d6000803e3d6000fd5b506107e0925050506060830160408401613abf565b73ffffffffffffffffffffffffffffffffffffffff1663627dd56a61080860808501856144db565b6040518363ffffffff1660e01b81526004016108259291906143e4565b602060405180830381600087803b15801561083f57600080fd5b505af1158015610853573d6000803e3d6000fd5b505050506040513d601f19601f82011682018060405250810190610877919061416c565b905081602001358110156106d6576040517f08c379a000000000000000000000000000000000000000000000000000000000815260206004820152601360248201527f544f4f5f4c4954544c455f52454345495645440000000000000000000000000060448201526064016106cd565b47156108f7576108f733476131da565b565b61090285613036565b61090e853387876132a4565b6040517faf8c09bf00000000000000000000000000000000000000000000000000000000815260009073ffffffffffffffffffffffffffffffffffffffff87169063af8c09bf9061096590879087906004016143e4565b602060405180830381600087803b15801561097f57600080fd5b505af1158015610993573d6000803e3d6000fd5b505050506040513d601f19601f820116820180604052508101906109b7919061416c565b905081811015610a23576040517f08c379a000000000000000000000000000000000000000000000000000000000815260206004820152601360248201527f544f4f5f4c4954544c455f52454345495645440000000000000000000000000060448201526064016106cd565b505050505050565b6000805b82811015610bef57610a4c848483818110610525576105256148b4565b600080547fffffffffffffffffffffffff00000000000000000000000000000000000000001633179055838382818110610a8857610a886148b4565b9050602002810190610a9a9190614574565b610aa8906020810190613abf565b600180547fffffffffffffffffffffffff00000000000000000000000000000000000000001673ffffffffffffffffffffffffffffffffffffffff92909216919091179055838382818110610aff57610aff6148b4565b9050602002810190610b119190614574565b610b1f906020810190613abf565b73ffffffffffffffffffffffffffffffffffffffff1663053da1c8858584818110610b4c57610b4c6148b4565b9050602002810190610b5e9190614574565b610b6c9060208101906144db565b6040518363ffffffff1660e01b8152600401610b899291906143e4565b602060405180830381600087803b158015610ba357600080fd5b505af1158015610bb7573d6000803e3d6000fd5b505050506040513d601f19601f82011682018060405250810190610bdb919061416c565b915080610be78161484c565b915050610a2f565b506000805460017fffffffffffffffffffffffff000000000000000000000000000000000000000091821681179092558154168117905583811015610c90576040517f08c379a000000000000000000000000000000000000000000000000000000000815260206004820152601360248201527f544f4f5f4c4954544c455f52454345495645440000000000000000000000000060448201526064016106cd565b9392505050565b60608167ffffffffffffffff811115610cb257610cb26148e3565b604051908082528060200260200182016040528015610ce557816020015b6060815260200190600190039081610cd05790505b5090506000805b8381101561101c576000610d57868684818110610d0b57610d0b6148b4565b9050602002810190610d1d91906144db565b8080601f01602080910402602001604051908101604052809392919081815260200183838082843760009201919091525061341592505050565b90507fffffffff0000000000000000000000000000000000000000000000000000000081167f0f93d439000000000000000000000000000000000000000000000000000000001480610dea57507fffffffff0000000000000000000000000000000000000000000000000000000081167f9fa7449100000000000000000000000000000000000000000000000000000000145b15610e60578215610e57576040517f08c379a000000000000000000000000000000000000000000000000000000000815260206004820152601160248201527f537761702063616c6c656420747769636500000000000000000000000000000060448201526064016106cd565b60019250610f0c565b7fffffffff0000000000000000000000000000000000000000000000000000000081167f1e897afb000000000000000000000000000000000000000000000000000000001415610f0c576040517f08c379a000000000000000000000000000000000000000000000000000000000815260206004820152600c60248201527f4e6573746564204261746368000000000000000000000000000000000000000060448201526064016106cd565b60008030888886818110610f2257610f226148b4565b9050602002810190610f3491906144db565b604051610f42929190614308565b600060405180830381855af49150503d8060008114610f7d576040519150601f19603f3d011682016040523d82523d6000602084013e610f82565b606091505b509150915081610fe857604481511015610f9b57600080fd5b60048101905080806020019051810190610fb59190613fed565b6040517f08c379a00000000000000000000000000000000000000000000000000000000081526004016106cd91906143f8565b80868581518110610ffb57610ffb6148b4565b602002602001018190525050505080806110149061484c565b915050610cec565b505092915050565b6040517f250558dc00000000000000000000000000000000000000000000000000000000815260009073ffffffffffffffffffffffffffffffffffffffff7f0000000000000000000000000000000000000000000000000000000000000000169063250558dc9061109d90879087908790600401614334565b602060405180830381600087803b1580156110b757600080fd5b505af11580156110cb573d6000803e3d6000fd5b505050506040513d601f19601f820116820180604052508101906110ef9190613adc565b949350505050565b600073ffffffffffffffffffffffffffffffffffffffff7f00000000000000000000000000000000000000000000000000000000000000001663f18d03cc6111426020850185613abf565b33611150606087018761440b565b6000818110611161576111616148b4565b90506020028101906111739190614574565b611181906020810190613abf565b60405160e085901b7fffffffff0000000000000000000000000000000000000000000000000000000016815273ffffffffffffffffffffffffffffffffffffffff93841660048201529183166024830152909116604482015260208501356064820152608401600060405180830381600087803b15801561120157600080fd5b505af1158015611215573d6000803e3d6000fd5b5050505060005b611229606084018461440b565b905081101561066257611242610515606085018561440b565b61124f606084018461440b565b8281811061125f5761125f6148b4565b90506020028101906112719190614574565b61127f906020810190613abf565b73ffffffffffffffffffffffffffffffffffffffff1663627dd56a6112a7606086018661440b565b848181106112b7576112b76148b4565b90506020028101906112c99190614574565b6112d79060208101906144db565b6040518363ffffffff1660e01b81526004016112f49291906143e4565b602060405180830381600087803b15801561130e57600080fd5b505af1158015611322573d6000803e3d6000fd5b505050506040513d601f19601f82011682018060405250810190611346919061416c565b9150806113528161484c565b91505061121c565b600061136585613036565b60005b86518110156114ee57868181518110611383576113836148b4565b602002602001015160200151156113de576113d98782815181106113a9576113a96148b4565b602002602001015160000151878984815181106113c8576113c86148b4565b602002602001015160400151612f28565b6114dc565b7f000000000000000000000000000000000000000000000000000000000000000073ffffffffffffffffffffffffffffffffffffffff1663f18d03cc88838151811061142c5761142c6148b4565b60200260200101516000015133898b868151811061144c5761144c6148b4565b6020026020010151604001516040518563ffffffff1660e01b81526004016114a9949392919073ffffffffffffffffffffffffffffffffffffffff9485168152928416602084015292166040820152606081019190915260800190565b600060405180830381600087803b1580156114c357600080fd5b505af11580156114d7573d6000803e3d6000fd5b505050505b806114e68161484c565b915050611368565b506040517f7ba0e2e700000000000000000000000000000000000000000000000000000000815273ffffffffffffffffffffffffffffffffffffffff861690637ba0e2e79061154390869086906004016143e4565b602060405180830381600087803b15801561155d57600080fd5b505af1158015611571573d6000803e3d6000fd5b505050506040513d601f19601f82011682018060405250810190611595919061416c565b905083811015611601576040517f08c379a000000000000000000000000000000000000000000000000000000000815260206004820152601b60248201527f4e4f545f454e4f5547485f4c49515549444954595f4d494e544544000000000060448201526064016106cd565b95945050505050565b6040517fc0a47c930000000000000000000000000000000000000000000000000000000081523360048201523060248201526001604482015260ff841660648201526084810183905260a481018290527f000000000000000000000000000000000000000000000000000000000000000073ffffffffffffffffffffffffffffffffffffffff169063c0a47c939060c4015b600060405180830381600087803b1580156116b657600080fd5b505af11580156116ca573d6000803e3d6000fd5b50505050505050565b6040513360248201523060448201526064810186905260848101859052600160a482015260ff841660c482015260e48101839052610104810182905260009073ffffffffffffffffffffffffffffffffffffffff881690638fcbaf0c90610124015b6040516020818303038152906040529060e01b6020820180517bffffffffffffffffffffffffffffffffffffffffffffffffffffffff83818316178352505050506040516117839190614318565b6000604051808303816000865af19150503d80600081146117c0576040519150601f19603f3d011682016040523d82523d6000602084013e6117c5565b606091505b50509050806116ca576040517fb78cb0dd00000000000000000000000000000000000000000000000000000000815260040160405180910390fd5b61180985613036565b611815853387876132a4565b6040517f2a07b6c700000000000000000000000000000000000000000000000000000000815260009073ffffffffffffffffffffffffffffffffffffffff871690632a07b6c79061186c90879087906004016143e4565b600060405180830381600087803b15801561188657600080fd5b505af115801561189a573d6000803e3d6000fd5b505050506040513d6000823e601f3d9081017fffffffffffffffffffffffffffffffffffffffffffffffffffffffffffffffe01682016040526118e09190810190613dfb565b905060005b82518110156116ca5760005b8251811015611a235783828151811061190c5761190c6148b4565b60200260200101516000015173ffffffffffffffffffffffffffffffffffffffff16838281518110611940576119406148b4565b60200260200101516000015173ffffffffffffffffffffffffffffffffffffffff161415611a115783828151811061197a5761197a6148b4565b602002602001015160200151838281518110611998576119986148b4565b6020026020010151602001511015611a0c576040517f08c379a000000000000000000000000000000000000000000000000000000000815260206004820152601360248201527f544f4f5f4c4954544c455f52454345495645440000000000000000000000000060448201526064016106cd565b611a23565b80611a1b8161484c565b9150506118f1565b82518110611a8d576040517f08c379a000000000000000000000000000000000000000000000000000000000815260206004820152601960248201527f494e434f52524543545f544f4b454e5f57495448445241574e0000000000000060448201526064016106cd565b5080611a988161484c565b9150506118e5565b6040517ff18d03cc00000000000000000000000000000000000000000000000000000000815273ffffffffffffffffffffffffffffffffffffffff84811660048301523060248301528281166044830152606482018490527f0000000000000000000000000000000000000000000000000000000000000000169063f18d03cc9060840161169c565b611b3483828461341c565b505050565b6000611b4485613036565b600080547fffffffffffffffffffffffff000000000000000000000000000000000000000090811633179091556001805473ffffffffffffffffffffffffffffffffffffffff88169216821790556040517f7ba0e2e7000000000000000000000000000000000000000000000000000000008152637ba0e2e790611bce90869086906004016143e4565b602060405180830381600087803b158015611be857600080fd5b505af1158015611bfc573d6000803e3d6000fd5b505050506040513d601f19601f82011682018060405250810190611c20919061416c565b6000805460017fffffffffffffffffffffffff00000000000000000000000000000000000000009182168117909255815416811790559050838110156110ef576040517f08c379a000000000000000000000000000000000000000000000000000000000815260206004820152601b60248201527f4e4f545f454e4f5547485f4c49515549444954595f4d494e544544000000000060448201526064016106cd565b6000611cee611cd76080840160608501613abf565b611ce76060850160408601613abf565b8435612f28565b6107e06060830160408401613abf565b604051336024820152306044820152606481018690526084810185905260ff841660a482015260c4810183905260e4810182905260009073ffffffffffffffffffffffffffffffffffffffff88169063d505accf9061010401611735565b60005b611d69828061440b565b905081101561213557611d7c828061440b565b82818110611d8c57611d8c6148b4565b9050602002810190611d9e9190614540565b611daf906060810190604001613f7d565b15611e6857611e63611dc1838061440b565b83818110611dd157611dd16148b4565b9050602002810190611de39190614540565b611df1906020810190613abf565b611dfb848061440b565b84818110611e0b57611e0b6148b4565b9050602002810190611e1d9190614540565b611e2e906040810190602001613abf565b611e38858061440b565b85818110611e4857611e486148b4565b9050602002810190611e5a9190614540565b60600135612f28565b611fe1565b73ffffffffffffffffffffffffffffffffffffffff7f00000000000000000000000000000000000000000000000000000000000000001663f18d03cc611eae848061440b565b84818110611ebe57611ebe6148b4565b9050602002810190611ed09190614540565b611ede906020810190613abf565b33611ee9868061440b565b86818110611ef957611ef96148b4565b9050602002810190611f0b9190614540565b611f1c906040810190602001613abf565b611f26878061440b565b87818110611f3657611f366148b4565b9050602002810190611f489190614540565b60405160e086901b7fffffffff0000000000000000000000000000000000000000000000000000000016815273ffffffffffffffffffffffffffffffffffffffff94851660048201529284166024840152921660448201526060909101356064820152608401600060405180830381600087803b158015611fc857600080fd5b505af1158015611fdc573d6000803e3d6000fd5b505050505b612021611fee838061440b565b83818110611ffe57611ffe6148b4565b90506020028101906120109190614540565b610545906040810190602001613abf565b61202b828061440b565b8281811061203b5761203b6148b4565b905060200281019061204d9190614540565b61205e906040810190602001613abf565b73ffffffffffffffffffffffffffffffffffffffff1663627dd56a612083848061440b565b84818110612093576120936148b4565b90506020028101906120a59190614540565b6120b39060808101906144db565b6040518363ffffffff1660e01b81526004016120d09291906143e4565b602060405180830381600087803b1580156120ea57600080fd5b505af11580156120fe573d6000803e3d6000fd5b505050506040513d601f19601f82011682018060405250810190612122919061416c565b508061212d8161484c565b915050611d5f565b5060005b612146602083018361440b565b905081101561257c57600073ffffffffffffffffffffffffffffffffffffffff7f00000000000000000000000000000000000000000000000000000000000000001663f7888aec61219a602086018661440b565b858181106121aa576121aa6148b4565b90506020028101906121bc91906145a8565b6121ca906020810190613abf565b6040517fffffffff0000000000000000000000000000000000000000000000000000000060e084901b16815273ffffffffffffffffffffffffffffffffffffffff909116600482015230602482015260440160206040518083038186803b15801561223457600080fd5b505afa158015612248573d6000803e3d6000fd5b505050506040513d601f19601f8201168201806040525081019061226c919061416c565b9050600061227c6008600a614714565b612289602086018661440b565b85818110612299576122996148b4565b90506020028101906122ab91906145a8565b6122bc906060810190604001614218565b6122d09067ffffffffffffffff16846147df565b6122da9190614678565b905073ffffffffffffffffffffffffffffffffffffffff7f00000000000000000000000000000000000000000000000000000000000000001663f18d03cc612325602087018761440b565b86818110612335576123356148b4565b905060200281019061234791906145a8565b612355906020810190613abf565b30612363602089018961440b565b88818110612373576123736148b4565b905060200281019061238591906145a8565b612396906040810190602001613abf565b60405160e085901b7fffffffff0000000000000000000000000000000000000000000000000000000016815273ffffffffffffffffffffffffffffffffffffffff93841660048201529183166024830152909116604482015260648101849052608401600060405180830381600087803b15801561241357600080fd5b505af1158015612427573d6000803e3d6000fd5b5061245f925061243d915050602086018661440b565b8581811061244d5761244d6148b4565b905060200281019061201091906145a8565b61246c602085018561440b565b8481811061247c5761247c6148b4565b905060200281019061248e91906145a8565b61249f906040810190602001613abf565b73ffffffffffffffffffffffffffffffffffffffff1663627dd56a6124c7602087018761440b565b868181106124d7576124d76148b4565b90506020028101906124e991906145a8565b6124f79060608101906144db565b6040518363ffffffff1660e01b81526004016125149291906143e4565b602060405180830381600087803b15801561252e57600080fd5b505af1158015612542573d6000803e3d6000fd5b505050506040513d601f19601f82011682018060405250810190612566919061416c565b50505080806125749061484c565b915050612139565b5060005b61258d6040830183614473565b9050811015612a2a57600073ffffffffffffffffffffffffffffffffffffffff7f00000000000000000000000000000000000000000000000000000000000000001663f7888aec6125e16040860186614473565b858181106125f1576125f16148b4565b6126079260206080909202019081019150613abf565b6040517fffffffff0000000000000000000000000000000000000000000000000000000060e084901b16815273ffffffffffffffffffffffffffffffffffffffff909116600482015230602482015260440160206040518083038186803b15801561267157600080fd5b505afa158015612685573d6000803e3d6000fd5b505050506040513d601f19601f820116820180604052508101906126a9919061416c565b90506126b86040840184614473565b838181106126c8576126c86148b4565b9050608002016060013581101561273b576040517f08c379a000000000000000000000000000000000000000000000000000000000815260206004820152601360248201527f544f4f5f4c4954544c455f52454345495645440000000000000000000000000060448201526064016106cd565b6127486040840184614473565b83818110612758576127586148b4565b90506080020160400160208101906127709190613f7d565b156128dc5773ffffffffffffffffffffffffffffffffffffffff7f0000000000000000000000000000000000000000000000000000000000000000166397da6d306127be6040860186614473565b858181106127ce576127ce6148b4565b6127e49260206080909202019081019150613abf565b306127f26040880188614473565b87818110612802576128026148b4565b905060800201602001602081019061281a9190613abf565b60405160e085901b7fffffffff0000000000000000000000000000000000000000000000000000000016815273ffffffffffffffffffffffffffffffffffffffff938416600482015291831660248301529091166044820152600060648201526084810184905260a4016040805180830381600087803b15801561289d57600080fd5b505af11580156128b1573d6000803e3d6000fd5b505050506040513d601f19601f820116820180604052508101906128d591906141f4565b5050612a17565b73ffffffffffffffffffffffffffffffffffffffff7f00000000000000000000000000000000000000000000000000000000000000001663f18d03cc6129256040860186614473565b85818110612935576129356148b4565b61294b9260206080909202019081019150613abf565b306129596040880188614473565b87818110612969576129696148b4565b90506080020160200160208101906129819190613abf565b60405160e085901b7fffffffff0000000000000000000000000000000000000000000000000000000016815273ffffffffffffffffffffffffffffffffffffffff93841660048201529183166024830152909116604482015260648101849052608401600060405180830381600087803b1580156129fe57600080fd5b505af1158015612a12573d6000803e3d6000fd5b505050505b5080612a228161484c565b915050612580565b5050565b60015473ffffffffffffffffffffffffffffffffffffffff163314612aaf576040517f08c379a000000000000000000000000000000000000000000000000000000000815260206004820152601560248201527f554e415554484f52495a45445f43414c4c4241434b000000000000000000000060448201526064016106cd565b6000612abd82840184614150565b9050806020015115612afb5780516000546040830151612af6929173ffffffffffffffffffffffffffffffffffffffff16903390613585565b612bbc565b805160005460408084015190517ff18d03cc00000000000000000000000000000000000000000000000000000000815273ffffffffffffffffffffffffffffffffffffffff9384166004820152918316602483015233604483015260648201527f00000000000000000000000000000000000000000000000000000000000000009091169063f18d03cc90608401600060405180830381600087803b158015612ba357600080fd5b505af1158015612bb7573d6000803e3d6000fd5b505050505b5050600080547fffffffffffffffffffffffff000000000000000000000000000000000000000016600117905550565b60015473ffffffffffffffffffffffffffffffffffffffff163314612c6d576040517f08c379a000000000000000000000000000000000000000000000000000000000815260206004820152601560248201527f554e415554484f52495a45445f43414c4c4241434b000000000000000000000060448201526064016106cd565b6000612c7b82840184613ebf565b905060005b8151811015612e4757818181518110612c9b57612c9b6148b4565b60200260200101516020015115612d1757612d12828281518110612cc157612cc16148b4565b60200260200101516000015160008054906101000a900473ffffffffffffffffffffffffffffffffffffffff1633858581518110612d0157612d016148b4565b602002602001015160400151613585565b612e35565b7f000000000000000000000000000000000000000000000000000000000000000073ffffffffffffffffffffffffffffffffffffffff1663f18d03cc838381518110612d6557612d656148b4565b60200260200101516000015160008054906101000a900473ffffffffffffffffffffffffffffffffffffffff1633868681518110612da557612da56148b4565b6020026020010151604001516040518563ffffffff1660e01b8152600401612e02949392919073ffffffffffffffffffffffffffffffffffffffff9485168152928416602084015292166040820152606081019190915260800190565b600060405180830381600087803b158015612e1c57600080fd5b505af1158015612e30573d6000803e3d6000fd5b505050505b80612e3f8161484c565b915050612c80565b5050600080547fffffffffffffffffffffffff00000000000000000000000000000000000000001660011790555050565b6000612ea37f000000000000000000000000000000000000000000000000000000000000000061368e565b905082811015612f0f576040517f08c379a000000000000000000000000000000000000000000000000000000000815260206004820152601160248201527f494e53554646494349454e545f5745544800000000000000000000000000000060448201526064016106cd565b8015611b3457612f1e816137ee565b611b3482826131da565b73ffffffffffffffffffffffffffffffffffffffff7f00000000000000000000000000000000000000000000000000000000000000008116906302b9446c90851615612f75576000612f77565b825b6040517fffffffff0000000000000000000000000000000000000000000000000000000060e084901b16815273ffffffffffffffffffffffffffffffffffffffff808816600483015233602483015286166044820152606481018590526000608482015260a40160408051808303818588803b158015612ff657600080fd5b505af115801561300a573d6000803e3d6000fd5b50505050506040513d601f19601f8201168201806040525081019061302f91906141f4565b5050505050565b73ffffffffffffffffffffffffffffffffffffffff811660009081526002602052604090205460ff166131d7576040517fa4063dbc00000000000000000000000000000000000000000000000000000000815273ffffffffffffffffffffffffffffffffffffffff82811660048301527f0000000000000000000000000000000000000000000000000000000000000000169063a4063dbc9060240160206040518083038186803b1580156130ea57600080fd5b505afa1580156130fe573d6000803e3d6000fd5b505050506040513d601f19601f820116820180604052508101906131229190613f9a565b613188576040517f08c379a000000000000000000000000000000000000000000000000000000000815260206004820152600c60248201527f494e56414c494420504f4f4c000000000000000000000000000000000000000060448201526064016106cd565b73ffffffffffffffffffffffffffffffffffffffff8116600090815260026020526040902080547fffffffffffffffffffffffffffffffffffffffffffffffffffffffffffffff001660011790555b50565b60008273ffffffffffffffffffffffffffffffffffffffff168260405160006040518083038185875af1925050503d8060008114613234576040519150601f19603f3d011682016040523d82523d6000602084013e613239565b606091505b5050905080611b34576040517f08c379a000000000000000000000000000000000000000000000000000000000815260206004820152601360248201527f4554485f5452414e534645525f4641494c45440000000000000000000000000060448201526064016106cd565b6040805173ffffffffffffffffffffffffffffffffffffffff85811660248301528481166044830152606480830185905283518084039091018152608490920183526020820180517bffffffffffffffffffffffffffffffffffffffffffffffffffffffff167f23b872dd0000000000000000000000000000000000000000000000000000000017905291516000928392908816916133439190614318565b6000604051808303816000865af19150503d8060008114613380576040519150601f19603f3d011682016040523d82523d6000602084013e613385565b606091505b50915091508180156133af5750805115806133af5750808060200190518101906133af9190613f9a565b610a23576040517f08c379a000000000000000000000000000000000000000000000000000000000815260206004820152601460248201527f5452414e534645525f46524f4d5f4641494c454400000000000000000000000060448201526064016106cd565b6020015190565b6040805173ffffffffffffffffffffffffffffffffffffffff8481166024830152604480830185905283518084039091018152606490920183526020820180517bffffffffffffffffffffffffffffffffffffffffffffffffffffffff167fa9059cbb0000000000000000000000000000000000000000000000000000000017905291516000928392908716916134b39190614318565b6000604051808303816000865af19150503d80600081146134f0576040519150601f19603f3d011682016040523d82523d6000602084013e6134f5565b606091505b509150915081801561351f57508051158061351f57508080602001905181019061351f9190613f9a565b61302f576040517f08c379a000000000000000000000000000000000000000000000000000000000815260206004820152600f60248201527f5452414e534645525f4641494c4544000000000000000000000000000000000060448201526064016106cd565b73ffffffffffffffffffffffffffffffffffffffff7f00000000000000000000000000000000000000000000000000000000000000008116906302b9446c908616156135d25760006135d4565b825b6040517fffffffff0000000000000000000000000000000000000000000000000000000060e084901b16815273ffffffffffffffffffffffffffffffffffffffff8089166004830152808816602483015286166044820152606481018590526000608482015260a40160408051808303818588803b15801561365557600080fd5b505af1158015613669573d6000803e3d6000fd5b50505050506040513d601f19601f82011682018060405250810190610a2391906141f4565b604080513060248083019190915282518083039091018152604490910182526020810180517bffffffffffffffffffffffffffffffffffffffffffffffffffffffff167f70a082310000000000000000000000000000000000000000000000000000000017905290516000918291829173ffffffffffffffffffffffffffffffffffffffff8616916137209190614318565b600060405180830381855afa9150503d806000811461375b576040519150601f19603f3d011682016040523d82523d6000602084013e613760565b606091505b509150915081801561377457506020815110155b6137da576040517f08c379a000000000000000000000000000000000000000000000000000000000815260206004820152601160248201527f42414c414e43455f4f465f4641494c454400000000000000000000000000000060448201526064016106cd565b808060200190518101906110ef919061416c565b60007f000000000000000000000000000000000000000000000000000000000000000073ffffffffffffffffffffffffffffffffffffffff16632e1a7d4d8360405160240161383f91815260200190565b6040516020818303038152906040529060e01b6020820180517bffffffffffffffffffffffffffffffffffffffffffffffffffffffff838183161783525050505060405161388d9190614318565b6000604051808303816000865af19150503d80600081146138ca576040519150601f19603f3d011682016040523d82523d6000602084013e6138cf565b606091505b5050905080612a2a576040517f08c379a000000000000000000000000000000000000000000000000000000000815260206004820152601960248201527f57495448445241575f46524f4d5f574554485f4641494c45440000000000000060448201526064016106cd565b60008083601f84011261394c57600080fd5b50813567ffffffffffffffff81111561396457600080fd5b6020830191508360208260051b850101111561397f57600080fd5b9250929050565b600082601f83011261399757600080fd5b813560206139ac6139a783614654565b614605565b828152818101908583016060808602880185018910156139cb57600080fd5b60005b868110156139f2576139e08a84613a42565b855293850193918101916001016139ce565b509198975050505050505050565b60008083601f840112613a1257600080fd5b50813567ffffffffffffffff811115613a2a57600080fd5b60208301915083602082850101111561397f57600080fd5b600060608284031215613a5457600080fd5b6040516060810181811067ffffffffffffffff82111715613a7757613a776148e3565b6040529050808235613a8881614912565b81526020830135613a9881614934565b6020820152604092830135920191909152919050565b803560ff811681146106d657600080fd5b600060208284031215613ad157600080fd5b8135610c9081614912565b600060208284031215613aee57600080fd5b8151610c9081614912565b600080600060408486031215613b0e57600080fd5b8335613b1981614912565b9250602084013567ffffffffffffffff811115613b3557600080fd5b613b4186828701613a00565b9497909650939450505050565b600080600060608486031215613b6357600080fd5b8335613b6e81614912565b9250602084013591506040840135613b8581614912565b809150509250925092565b60008060008060608587031215613ba657600080fd5b8435613bb181614912565b935060208501359250604085013567ffffffffffffffff811115613bd457600080fd5b613be087828801613a00565b95989497509550505050565b600080600080600060808688031215613c0457600080fd5b8535613c0f81614912565b9450602086810135945060408088013567ffffffffffffffff80821115613c3557600080fd5b613c418b838c01613a00565b909750955060608a0135915080821115613c5a57600080fd5b508801601f81018a13613c6c57600080fd5b8035613c7a6139a782614654565b8082825285820191508584018d878560061b8701011115613c9a57600080fd5b600094505b83851015613ce75785818f031215613cb657600080fd5b613cbe6145dc565b8135613cc981614912565b81528188013588820152835260019490940193918601918501613c9f565b508096505050505050509295509295909350565b600080600080600060808688031215613d1357600080fd5b8535613d1e81614912565b945060208601359350604086013567ffffffffffffffff811115613d4157600080fd5b613d4d88828901613a00565b96999598509660600135949350505050565b60008060008060008060c08789031215613d7857600080fd5b8635613d8381614912565b95506020870135945060408701359350613d9f60608801613aae565b92506080870135915060a087013590509295509295509295565b60008060208385031215613dcc57600080fd5b823567ffffffffffffffff811115613de357600080fd5b613def8582860161393a565b90969095509350505050565b60006020808385031215613e0e57600080fd5b825167ffffffffffffffff811115613e2557600080fd5b8301601f81018513613e3657600080fd5b8051613e446139a782614654565b80828252848201915084840188868560061b8701011115613e6457600080fd5b60009450845b84811015613eb157604080838c031215613e82578687fd5b613e8a6145dc565b8351613e9581614912565b8152838901518982015285529387019390910190600101613e6a565b509098975050505050505050565b600060208284031215613ed157600080fd5b813567ffffffffffffffff811115613ee857600080fd5b6110ef84828501613986565b600080600080600060808688031215613f0c57600080fd5b853567ffffffffffffffff80821115613f2457600080fd5b613f3089838a01613986565b965060208801359150613f4282614912565b9094506040870135935060608701359080821115613f5f57600080fd5b50613f6c88828901613a00565b969995985093965092949392505050565b600060208284031215613f8f57600080fd5b8135610c9081614934565b600060208284031215613fac57600080fd5b8151610c9081614934565b60008060208385031215613fca57600080fd5b823567ffffffffffffffff811115613fe157600080fd5b613def85828601613a00565b600060208284031215613fff57600080fd5b815167ffffffffffffffff8082111561401757600080fd5b818401915084601f83011261402b57600080fd5b81518181111561403d5761403d6148e3565b61406e60207fffffffffffffffffffffffffffffffffffffffffffffffffffffffffffffffe0601f84011601614605565b915080825285602082850101111561408557600080fd5b61409681602084016020860161481c565b50949350505050565b6000602082840312156140b157600080fd5b813567ffffffffffffffff8111156140c857600080fd5b820160608185031215610c9057600080fd5b6000602082840312156140ec57600080fd5b813567ffffffffffffffff81111561410357600080fd5b820160808185031215610c9057600080fd5b60006020828403121561412757600080fd5b813567ffffffffffffffff81111561413e57600080fd5b820160a08185031215610c9057600080fd5b60006060828403121561416257600080fd5b610c908383613a42565b60006020828403121561417e57600080fd5b5051919050565b6000806040838503121561419857600080fd5b8235915060208301356141aa81614912565b809150509250929050565b6000806000604084860312156141ca57600080fd5b83359250602084013567ffffffffffffffff8111156141e857600080fd5b613b418682870161393a565b6000806040838503121561420757600080fd5b505080516020909101519092909150565b60006020828403121561422a57600080fd5b813567ffffffffffffffff81168114610c9057600080fd5b60008060006060848603121561425757600080fd5b61426084613aae565b95602085013595506040909401359392505050565b8183528181602085013750600060208284010152600060207fffffffffffffffffffffffffffffffffffffffffffffffffffffffffffffffe0601f840116840101905092915050565b600081518084526142d681602086016020860161481c565b601f017fffffffffffffffffffffffffffffffffffffffffffffffffffffffffffffffe0169290920160200192915050565b8183823760009101908152919050565b6000825161432a81846020870161481c565b9190910192915050565b73ffffffffffffffffffffffffffffffffffffffff84168152604060208201526000611601604083018486614275565b6000602080830181845280855180835260408601915060408160051b870101925083870160005b828110156143d7577fffffffffffffffffffffffffffffffffffffffffffffffffffffffffffffffc08886030184526143c58583516142be565b9450928501929085019060010161438b565b5092979650505050505050565b6020815260006110ef602083018486614275565b602081526000610c9060208301846142be565b60008083357fffffffffffffffffffffffffffffffffffffffffffffffffffffffffffffffe184360301811261444057600080fd5b83018035915067ffffffffffffffff82111561445b57600080fd5b6020019150600581901b360382131561397f57600080fd5b60008083357fffffffffffffffffffffffffffffffffffffffffffffffffffffffffffffffe18436030181126144a857600080fd5b83018035915067ffffffffffffffff8211156144c357600080fd5b6020019150600781901b360382131561397f57600080fd5b60008083357fffffffffffffffffffffffffffffffffffffffffffffffffffffffffffffffe184360301811261451057600080fd5b83018035915067ffffffffffffffff82111561452b57600080fd5b60200191503681900382131561397f57600080fd5b600082357fffffffffffffffffffffffffffffffffffffffffffffffffffffffffffffff6183360301811261432a57600080fd5b600082357fffffffffffffffffffffffffffffffffffffffffffffffffffffffffffffffc183360301811261432a57600080fd5b600082357fffffffffffffffffffffffffffffffffffffffffffffffffffffffffffffff8183360301811261432a57600080fd5b6040805190810167ffffffffffffffff811182821017156145ff576145ff6148e3565b60405290565b604051601f82017fffffffffffffffffffffffffffffffffffffffffffffffffffffffffffffffe016810167ffffffffffffffff8111828210171561464c5761464c6148e3565b604052919050565b600067ffffffffffffffff82111561466e5761466e6148e3565b5060051b60200190565b6000826146ae577f4e487b7100000000000000000000000000000000000000000000000000000000600052601260045260246000fd5b500490565b600181815b8085111561470c57817fffffffffffffffffffffffffffffffffffffffffffffffffffffffffffffffff048211156146f2576146f2614885565b808516156146ff57918102915b93841c93908002906146b8565b509250929050565b6000610c9060ff84168360008261472d575060016147d9565b8161473a575060006147d9565b8160018114614750576002811461475a57614776565b60019150506147d9565b60ff84111561476b5761476b614885565b50506001821b6147d9565b5060208310610133831016604e8410600b8410161715614799575081810a6147d9565b6147a383836146b3565b807fffffffffffffffffffffffffffffffffffffffffffffffffffffffffffffffff048211156147d5576147d5614885565b0290505b92915050565b6000817fffffffffffffffffffffffffffffffffffffffffffffffffffffffffffffffff048311821515161561481757614817614885565b500290565b60005b8381101561483757818101518382015260200161481f565b83811115614846576000848401525b50505050565b60007fffffffffffffffffffffffffffffffffffffffffffffffffffffffffffffffff82141561487e5761487e614885565b5060010190565b7f4e487b7100000000000000000000000000000000000000000000000000000000600052601160045260246000fd5b7f4e487b7100000000000000000000000000000000000000000000000000000000600052603260045260246000fd5b7f4e487b7100000000000000000000000000000000000000000000000000000000600052604160045260246000fd5b73ffffffffffffffffffffffffffffffffffffffff811681146131d757600080fd5b80151581146131d757600080fdfea2646970667358221220e04536b4d2caf0143d04a5be26157bedd3659bf893025c951319fffb387fd5bc64736f6c63430008070033",
  "devdoc": {
    "kind": "dev",
    "methods": {
      "addLiquidity((address,bool,uint256)[],address,uint256,bytes)": {
        "params": {
          "data": "Data required by the pool to add liquidity.",
          "minLiquidity": "Minimum output liquidity - caps slippage.",
          "pool": "Pool address to add liquidity to.",
          "tokenInput": "Token address and amount to add as liquidity."
        }
      },
      "addLiquidityLazy(address,uint256,bytes)": {
        "details": "The input tokens are sent to the pool during the callback."
      },
      "batch(bytes[])": {
        "details": "The `msg.value` should not be trusted for any method callable from this function.Uses a modified version of the batch function - preventing multiple calls of the single input swap functions",
        "params": {
          "data": "ABI-encoded params for each of the calls to make to this contract."
        },
        "returns": {
          "results": "The results from each of the calls passed in via `data`."
        }
      },
      "burnLiquidity(address,uint256,bytes,(address,uint256)[])": {
        "params": {
          "data": "Data required by the pool to burn liquidity.",
          "liquidity": "Amount of liquidity tokens to burn.",
          "minWithdrawals": "Minimum amount of `bento` tokens to be returned.",
          "pool": "Pool address."
        }
      },
      "burnLiquiditySingle(address,uint256,bytes,uint256)": {
        "details": "The tokens are swapped automatically and the output is in a single token.",
        "params": {
          "data": "Data required by the pool to burn liquidity.",
          "liquidity": "Amount of liquidity tokens to burn.",
          "minWithdrawal": "Minimum amount of tokens to be returned.",
          "pool": "Pool address."
        }
      },
      "complexPath(((address,address,bool,uint256,bytes)[],(address,address,uint64,bytes)[],(address,address,bool,uint256)[]))": {
        "details": "This function is not optimized for single swaps and should only be used in complex cases where the amounts are large enough that minimizing slippage by using multiple paths is worth the extra gas.",
        "params": {
          "params": "This includes everything needed for the swap. Look at the `ComplexPathParams` struct for more details."
        }
      },
      "exactInput((address,uint256,uint256,(address,bytes)[]))": {
        "details": "Ensure that the pools are trusted before calling this function. The pools can steal users' tokens.",
        "params": {
          "params": "This includes the addresses of the tokens, pools, amount of token A to swap, minimum amount of token B after the swap and data required by the pools for the swaps."
        }
      },
      "exactInputLazy(uint256,(address,bytes)[])": {
        "details": "Ensure that the pools are trusted before calling this function. The pools can steal users' tokens. This function will unlikely be used in production but it shows how to use callbacks. One use case will be arbitrage.",
        "params": {
          "amountOutMinimum": "Minimum amount of token B after the swap.",
          "path": "Addresses of the pools and data required by the pools for the swaps."
        }
      },
      "exactInputSingle((uint256,uint256,address,address,bytes))": {
        "details": "Ensure that the pool is trusted before calling this function. The pool can steal users' tokens.",
        "params": {
          "params": "This includes the address of token A, pool, amount of token A to swap, minimum amount of token B after the swap and data required by the pool for the swap."
        }
      },
      "exactInputSingleWithNativeToken((uint256,uint256,address,address,bytes))": {
        "details": "Ensure that the pool is trusted before calling this function. The pool can steal users' tokens.",
        "params": {
          "params": "This includes the address of token A, pool, amount of token A to swap, minimum amount of token B after the swap and data required by the pool for the swap."
        }
      },
      "exactInputWithNativeToken((address,uint256,uint256,(address,bytes)[]))": {
        "details": "Ensure that the pools are trusted before calling this function. The pools can steal users' tokens.",
        "params": {
          "params": "This includes the addresses of the tokens, pools, amount of token A to swap, minimum amount of token B after the swap and data required by the pools for the swaps."
        }
      },
      "permitThis(address,uint256,uint256,uint8,bytes32,bytes32)": {
        "params": {
          "amount": "Token amount to grant spending right over.",
          "deadline": "Termination for signed approval (UTC timestamp in seconds).",
          "r": "Half of the ECDSA signature pair.",
          "s": "Half of the ECDSA signature pair.",
          "token": "Address of ERC-20 token.",
          "v": "The recovery byte of the signature."
        }
      },
      "permitThisAllowed(address,uint256,uint256,uint8,bytes32,bytes32)": {
        "params": {
          "expiry": "Termination for signed approval - UTC timestamp in seconds.",
          "nonce": "Token owner's nonce - increases at each call to {permit}.",
          "r": "Half of the ECDSA signature pair.",
          "s": "Half of the ECDSA signature pair.",
          "token": "Address of ERC-20 token.",
          "v": "The recovery byte of the signature."
        }
      }
    },
    "stateVariables": {
      "cachedMsgSender": {
        "details": "Used to ensure that `tridentSwapCallback` is called only by the authorized address. These are set when someone calls a flash swap and reset afterwards."
      }
    },
    "version": 1
  },
  "userdoc": {
    "kind": "user",
    "methods": {
      "addLiquidity((address,bool,uint256)[],address,uint256,bytes)": {
        "notice": "Add liquidity to a pool."
      },
      "addLiquidityLazy(address,uint256,bytes)": {
        "notice": "Add liquidity to a pool using callbacks - same as `addLiquidity`, but now with callbacks."
      },
      "approveMasterContract(uint8,bytes32,bytes32)": {
        "notice": "Helper function to allow batching of BentoBox master contract approvals so the first trade can happen in one transaction."
      },
      "batch(bytes[])": {
        "notice": "Provides batch function calls for this contract and returns the data from all of them if they all succeed. Adapted from https://github.com/Uniswap/uniswap-v3-periphery/blob/main/contracts/base/Multicall.sol, License-Identifier: GPL-2.0-or-later."
      },
      "bento()": {
        "notice": "BentoBox token vault."
      },
      "burnLiquidity(address,uint256,bytes,(address,uint256)[])": {
        "notice": "Burn liquidity tokens to get back `bento` tokens."
      },
      "burnLiquiditySingle(address,uint256,bytes,uint256)": {
        "notice": "Burn liquidity tokens to get back `bento` tokens."
      },
      "complexPath(((address,address,bool,uint256,bytes)[],(address,address,uint64,bytes)[],(address,address,bool,uint256)[]))": {
        "notice": "Swaps multiple input tokens to multiple output tokens using multiple paths, in different percentages. For example, you can swap 50 DAI + 100 USDC into 60% ETH and 40% BTC."
      },
      "exactInput((address,uint256,uint256,(address,bytes)[]))": {
        "notice": "Swaps token A to token B indirectly by using multiple hops."
      },
      "exactInputLazy(uint256,(address,bytes)[])": {
        "notice": "Swaps token A to token B by using callbacks."
      },
      "exactInputSingle((uint256,uint256,address,address,bytes))": {
        "notice": "Swaps token A to token B directly. Swaps are done on `bento` tokens."
      },
      "exactInputSingleWithNativeToken((uint256,uint256,address,address,bytes))": {
        "notice": "Swaps token A to token B directly. It's the same as `exactInputSingle` except it takes raw ERC-20 tokens from the users and deposits them into `bento`."
      },
      "exactInputWithNativeToken((address,uint256,uint256,(address,bytes)[]))": {
        "notice": "Swaps token A to token B indirectly by using multiple hops. It's the same as `exactInput` except it takes raw ERC-20 tokens from the users and deposits them into `bento`."
      },
      "masterDeployer()": {
        "notice": "Trident AMM master deployer contract."
      },
      "permitThis(address,uint256,uint256,uint8,bytes32,bytes32)": {
        "notice": "Provides EIP-2612 signed approval for this contract to spend user tokens."
      },
      "permitThisAllowed(address,uint256,uint256,uint8,bytes32,bytes32)": {
        "notice": "Provides DAI-derived signed approval for this contract to spend user tokens."
      },
      "refundETH()": {
        "notice": "Recover mistakenly sent ETH."
      },
      "sweepBentoBoxToken(address,uint256,address)": {
        "notice": "Recover mistakenly sent `bento` tokens."
      },
      "sweepNativeToken(address,uint256,address)": {
        "notice": "Recover mistakenly sent ERC-20 tokens."
      },
      "tridentMintCallback(bytes)": {
        "notice": "Can be used by the pool 'mint' functionality to take tokens from the user."
      },
      "tridentSwapCallback(bytes)": {
        "notice": "Used by the pool 'flashSwap' functionality to take input tokens from the user."
      },
      "unwrapWETH(uint256,address)": {
        "notice": "Unwrap this contract's `wETH` into ETH"
      }
    },
    "notice": "Router contract that helps in swapping across Trident pools.",
    "version": 1
  },
  "storageLayout": {
    "storage": [
      {
        "astId": 683,
        "contract": "contracts/TridentRouter.sol:TridentRouter",
        "label": "cachedMsgSender",
        "offset": 0,
        "slot": "0",
        "type": "t_address"
      },
      {
        "astId": 685,
        "contract": "contracts/TridentRouter.sol:TridentRouter",
        "label": "cachedPool",
        "offset": 0,
        "slot": "1",
        "type": "t_address"
      },
      {
        "astId": 689,
        "contract": "contracts/TridentRouter.sol:TridentRouter",
        "label": "whitelistedPools",
        "offset": 0,
        "slot": "2",
        "type": "t_mapping(t_address,t_bool)"
      }
    ],
    "types": {
      "t_address": {
        "encoding": "inplace",
        "label": "address",
        "numberOfBytes": "20"
      },
      "t_bool": {
        "encoding": "inplace",
        "label": "bool",
        "numberOfBytes": "1"
      },
      "t_mapping(t_address,t_bool)": {
        "encoding": "mapping",
        "key": "t_address",
        "label": "mapping(address => bool)",
        "numberOfBytes": "32",
        "value": "t_bool"
      }
    }
  }
}