{
  "address": "0x1C18cca66D15c41856990E17b5A28009Aa1aF07e",
  "abi": [
    {
      "inputs": [
        {
          "internalType": "contract IBentoBoxMinimal",
          "name": "bento",
          "type": "address"
        },
        {
          "internalType": "contract IMasterDeployer",
          "name": "masterDeployer",
          "type": "address"
        },
        {
          "internalType": "address",
          "name": "wETH",
          "type": "address"
        }
      ],
      "stateMutability": "nonpayable",
      "type": "constructor"
    },
    {
      "inputs": [],
      "name": "IncorrectTokenWithdrawn",
      "type": "error"
    },
    {
      "inputs": [],
      "name": "InsufficientWETH",
      "type": "error"
    },
    {
      "inputs": [],
      "name": "InvalidPool",
      "type": "error"
    },
    {
      "inputs": [],
      "name": "NotEnoughLiquidityMinted",
      "type": "error"
    },
    {
      "inputs": [],
      "name": "PermitFailed",
      "type": "error"
    },
    {
      "inputs": [],
      "name": "TooLittleReceived",
      "type": "error"
    },
    {
      "inputs": [],
      "name": "UnauthorizedCallback",
      "type": "error"
    },
    {
      "inputs": [
        {
          "components": [
            {
              "internalType": "address",
              "name": "token",
              "type": "address"
            },
            {
              "internalType": "bool",
              "name": "native",
              "type": "bool"
            },
            {
              "internalType": "uint256",
              "name": "amount",
              "type": "uint256"
            }
          ],
          "internalType": "struct ITridentRouter.TokenInput[]",
          "name": "tokenInput",
          "type": "tuple[]"
        },
        {
          "internalType": "address",
          "name": "pool",
          "type": "address"
        },
        {
          "internalType": "uint256",
          "name": "minLiquidity",
          "type": "uint256"
        },
        {
          "internalType": "bytes",
          "name": "data",
          "type": "bytes"
        }
      ],
      "name": "addLiquidity",
      "outputs": [
        {
          "internalType": "uint256",
          "name": "liquidity",
          "type": "uint256"
        }
      ],
      "stateMutability": "payable",
      "type": "function"
    },
    {
      "inputs": [
        {
          "internalType": "address",
          "name": "pool",
          "type": "address"
        },
        {
          "internalType": "uint256",
          "name": "minLiquidity",
          "type": "uint256"
        },
        {
          "internalType": "bytes",
          "name": "data",
          "type": "bytes"
        }
      ],
      "name": "addLiquidityLazy",
      "outputs": [
        {
          "internalType": "uint256",
          "name": "liquidity",
          "type": "uint256"
        }
      ],
      "stateMutability": "payable",
      "type": "function"
    },
    {
      "inputs": [
        {
          "internalType": "uint8",
          "name": "v",
          "type": "uint8"
        },
        {
          "internalType": "bytes32",
          "name": "r",
          "type": "bytes32"
        },
        {
          "internalType": "bytes32",
          "name": "s",
          "type": "bytes32"
        }
      ],
      "name": "approveMasterContract",
      "outputs": [],
      "stateMutability": "payable",
      "type": "function"
    },
    {
      "inputs": [
        {
          "internalType": "bytes[]",
          "name": "data",
          "type": "bytes[]"
        }
      ],
      "name": "batch",
      "outputs": [
        {
          "internalType": "bytes[]",
          "name": "results",
          "type": "bytes[]"
        }
      ],
      "stateMutability": "payable",
      "type": "function"
    },
    {
      "inputs": [],
      "name": "bento",
      "outputs": [
        {
          "internalType": "contract IBentoBoxMinimal",
          "name": "",
          "type": "address"
        }
      ],
      "stateMutability": "view",
      "type": "function"
    },
    {
      "inputs": [
        {
          "internalType": "address",
          "name": "pool",
          "type": "address"
        },
        {
          "internalType": "uint256",
          "name": "liquidity",
          "type": "uint256"
        },
        {
          "internalType": "bytes",
          "name": "data",
          "type": "bytes"
        },
        {
          "components": [
            {
              "internalType": "address",
              "name": "token",
              "type": "address"
            },
            {
              "internalType": "uint256",
              "name": "amount",
              "type": "uint256"
            }
          ],
          "internalType": "struct IPool.TokenAmount[]",
          "name": "minWithdrawals",
          "type": "tuple[]"
        }
      ],
      "name": "burnLiquidity",
      "outputs": [],
      "stateMutability": "nonpayable",
      "type": "function"
    },
    {
      "inputs": [
        {
          "internalType": "address",
          "name": "pool",
          "type": "address"
        },
        {
          "internalType": "uint256",
          "name": "liquidity",
          "type": "uint256"
        },
        {
          "internalType": "bytes",
          "name": "data",
          "type": "bytes"
        },
        {
          "internalType": "uint256",
          "name": "minWithdrawal",
          "type": "uint256"
        }
      ],
      "name": "burnLiquiditySingle",
      "outputs": [],
      "stateMutability": "nonpayable",
      "type": "function"
    },
    {
      "inputs": [
        {
          "components": [
            {
              "components": [
                {
                  "internalType": "address",
                  "name": "tokenIn",
                  "type": "address"
                },
                {
                  "internalType": "address",
                  "name": "pool",
                  "type": "address"
                },
                {
                  "internalType": "bool",
                  "name": "native",
                  "type": "bool"
                },
                {
                  "internalType": "uint256",
                  "name": "amount",
                  "type": "uint256"
                },
                {
                  "internalType": "bytes",
                  "name": "data",
                  "type": "bytes"
                }
              ],
              "internalType": "struct ITridentRouter.InitialPath[]",
              "name": "initialPath",
              "type": "tuple[]"
            },
            {
              "components": [
                {
                  "internalType": "address",
                  "name": "tokenIn",
                  "type": "address"
                },
                {
                  "internalType": "address",
                  "name": "pool",
                  "type": "address"
                },
                {
                  "internalType": "uint64",
                  "name": "balancePercentage",
                  "type": "uint64"
                },
                {
                  "internalType": "bytes",
                  "name": "data",
                  "type": "bytes"
                }
              ],
              "internalType": "struct ITridentRouter.PercentagePath[]",
              "name": "percentagePath",
              "type": "tuple[]"
            },
            {
              "components": [
                {
                  "internalType": "address",
                  "name": "token",
                  "type": "address"
                },
                {
                  "internalType": "address",
                  "name": "to",
                  "type": "address"
                },
                {
                  "internalType": "bool",
                  "name": "unwrapBento",
                  "type": "bool"
                },
                {
                  "internalType": "uint256",
                  "name": "minAmount",
                  "type": "uint256"
                }
              ],
              "internalType": "struct ITridentRouter.Output[]",
              "name": "output",
              "type": "tuple[]"
            }
          ],
          "internalType": "struct ITridentRouter.ComplexPathParams",
          "name": "params",
          "type": "tuple"
        }
      ],
      "name": "complexPath",
      "outputs": [],
      "stateMutability": "payable",
      "type": "function"
    },
    {
      "inputs": [
        {
          "internalType": "address",
          "name": "factory",
          "type": "address"
        },
        {
          "internalType": "bytes",
          "name": "deployData",
          "type": "bytes"
        }
      ],
      "name": "deployPool",
      "outputs": [
        {
          "internalType": "address",
          "name": "",
          "type": "address"
        }
      ],
      "stateMutability": "payable",
      "type": "function"
    },
    {
      "inputs": [
        {
          "components": [
            {
              "internalType": "address",
              "name": "tokenIn",
              "type": "address"
            },
            {
              "internalType": "uint256",
              "name": "amountIn",
              "type": "uint256"
            },
            {
              "internalType": "uint256",
              "name": "amountOutMinimum",
              "type": "uint256"
            },
            {
              "components": [
                {
                  "internalType": "address",
                  "name": "pool",
                  "type": "address"
                },
                {
                  "internalType": "bytes",
                  "name": "data",
                  "type": "bytes"
                }
              ],
              "internalType": "struct ITridentRouter.Path[]",
              "name": "path",
              "type": "tuple[]"
            }
          ],
          "internalType": "struct ITridentRouter.ExactInputParams",
          "name": "params",
          "type": "tuple"
        }
      ],
      "name": "exactInput",
      "outputs": [
        {
          "internalType": "uint256",
          "name": "amountOut",
          "type": "uint256"
        }
      ],
      "stateMutability": "payable",
      "type": "function"
    },
    {
      "inputs": [
        {
          "internalType": "uint256",
          "name": "amountOutMinimum",
          "type": "uint256"
        },
        {
          "components": [
            {
              "internalType": "address",
              "name": "pool",
              "type": "address"
            },
            {
              "internalType": "bytes",
              "name": "data",
              "type": "bytes"
            }
          ],
          "internalType": "struct ITridentRouter.Path[]",
          "name": "path",
          "type": "tuple[]"
        }
      ],
      "name": "exactInputLazy",
      "outputs": [
        {
          "internalType": "uint256",
          "name": "amountOut",
          "type": "uint256"
        }
      ],
      "stateMutability": "payable",
      "type": "function"
    },
    {
      "inputs": [
        {
          "components": [
            {
              "internalType": "uint256",
              "name": "amountIn",
              "type": "uint256"
            },
            {
              "internalType": "uint256",
              "name": "amountOutMinimum",
              "type": "uint256"
            },
            {
              "internalType": "address",
              "name": "pool",
              "type": "address"
            },
            {
              "internalType": "address",
              "name": "tokenIn",
              "type": "address"
            },
            {
              "internalType": "bytes",
              "name": "data",
              "type": "bytes"
            }
          ],
          "internalType": "struct ITridentRouter.ExactInputSingleParams",
          "name": "params",
          "type": "tuple"
        }
      ],
      "name": "exactInputSingle",
      "outputs": [
        {
          "internalType": "uint256",
          "name": "amountOut",
          "type": "uint256"
        }
      ],
      "stateMutability": "payable",
      "type": "function"
    },
    {
      "inputs": [
        {
          "components": [
            {
              "internalType": "uint256",
              "name": "amountIn",
              "type": "uint256"
            },
            {
              "internalType": "uint256",
              "name": "amountOutMinimum",
              "type": "uint256"
            },
            {
              "internalType": "address",
              "name": "pool",
              "type": "address"
            },
            {
              "internalType": "address",
              "name": "tokenIn",
              "type": "address"
            },
            {
              "internalType": "bytes",
              "name": "data",
              "type": "bytes"
            }
          ],
          "internalType": "struct ITridentRouter.ExactInputSingleParams",
          "name": "params",
          "type": "tuple"
        }
      ],
      "name": "exactInputSingleWithNativeToken",
      "outputs": [
        {
          "internalType": "uint256",
          "name": "amountOut",
          "type": "uint256"
        }
      ],
      "stateMutability": "payable",
      "type": "function"
    },
    {
      "inputs": [
        {
          "components": [
            {
              "internalType": "address",
              "name": "tokenIn",
              "type": "address"
            },
            {
              "internalType": "uint256",
              "name": "amountIn",
              "type": "uint256"
            },
            {
              "internalType": "uint256",
              "name": "amountOutMinimum",
              "type": "uint256"
            },
            {
              "components": [
                {
                  "internalType": "address",
                  "name": "pool",
                  "type": "address"
                },
                {
                  "internalType": "bytes",
                  "name": "data",
                  "type": "bytes"
                }
              ],
              "internalType": "struct ITridentRouter.Path[]",
              "name": "path",
              "type": "tuple[]"
            }
          ],
          "internalType": "struct ITridentRouter.ExactInputParams",
          "name": "params",
          "type": "tuple"
        }
      ],
      "name": "exactInputWithNativeToken",
      "outputs": [
        {
          "internalType": "uint256",
          "name": "amountOut",
          "type": "uint256"
        }
      ],
      "stateMutability": "payable",
      "type": "function"
    },
    {
      "inputs": [],
      "name": "masterDeployer",
      "outputs": [
        {
          "internalType": "contract IMasterDeployer",
          "name": "",
          "type": "address"
        }
      ],
      "stateMutability": "view",
      "type": "function"
    },
    {
      "inputs": [
        {
          "internalType": "address",
          "name": "token",
          "type": "address"
        },
        {
          "internalType": "uint256",
          "name": "amount",
          "type": "uint256"
        },
        {
          "internalType": "uint256",
          "name": "deadline",
          "type": "uint256"
        },
        {
          "internalType": "uint8",
          "name": "v",
          "type": "uint8"
        },
        {
          "internalType": "bytes32",
          "name": "r",
          "type": "bytes32"
        },
        {
          "internalType": "bytes32",
          "name": "s",
          "type": "bytes32"
        }
      ],
      "name": "permitThis",
      "outputs": [],
      "stateMutability": "nonpayable",
      "type": "function"
    },
    {
      "inputs": [
        {
          "internalType": "address",
          "name": "token",
          "type": "address"
        },
        {
          "internalType": "uint256",
          "name": "nonce",
          "type": "uint256"
        },
        {
          "internalType": "uint256",
          "name": "expiry",
          "type": "uint256"
        },
        {
          "internalType": "uint8",
          "name": "v",
          "type": "uint8"
        },
        {
          "internalType": "bytes32",
          "name": "r",
          "type": "bytes32"
        },
        {
          "internalType": "bytes32",
          "name": "s",
          "type": "bytes32"
        }
      ],
      "name": "permitThisAllowed",
      "outputs": [],
      "stateMutability": "nonpayable",
      "type": "function"
    },
    {
      "inputs": [
        {
          "internalType": "address",
          "name": "token",
          "type": "address"
        },
        {
          "internalType": "uint256",
          "name": "amount",
          "type": "uint256"
        },
        {
          "internalType": "address",
          "name": "recipient",
          "type": "address"
        },
        {
          "internalType": "bool",
          "name": "onBento",
          "type": "bool"
        }
      ],
      "name": "sweep",
      "outputs": [],
      "stateMutability": "payable",
      "type": "function"
    },
    {
      "inputs": [
        {
          "internalType": "bytes",
          "name": "data",
          "type": "bytes"
        }
      ],
      "name": "tridentMintCallback",
      "outputs": [],
      "stateMutability": "nonpayable",
      "type": "function"
    },
    {
      "inputs": [
        {
          "internalType": "bytes",
          "name": "data",
          "type": "bytes"
        }
      ],
      "name": "tridentSwapCallback",
      "outputs": [],
      "stateMutability": "nonpayable",
      "type": "function"
    },
    {
      "inputs": [
        {
          "internalType": "uint256",
          "name": "amountMinimum",
          "type": "uint256"
        },
        {
          "internalType": "address",
          "name": "recipient",
          "type": "address"
        }
      ],
      "name": "unwrapWETH",
      "outputs": [],
      "stateMutability": "payable",
      "type": "function"
    },
    {
      "stateMutability": "payable",
      "type": "receive"
    }
  ],
  "transactionHash": "0x52411d4ee9c1f24e44d00d930ca91b38ac331e915d7640e97c160177acc75e9f",
  "args": [
    "0xc381a85ed7C7448Da073b7d6C9d4cBf1Cbf576f0",
    "0xE716603A1BEE1b94E2e882b0e3C114aA1500D408",
    "0xd0A1E359811322d97991E03f863a0C30C2cF029C"
  ],
  "numDeployments": 1,
  "solcInputHash": "fdb0a65f5036c9a53006434d920187d8",
  "bytecode": "0x60e06040523480156200001157600080fd5b50604051620046ca380380620046ca8339810160408190526200003491620000c4565b6001600160601b0319606084811b821660805283811b821660a05282901b1660c0526040805163577268d960e11b815290518491849184916001600160a01b0385169163aee4d1b29160048082019260009290919082900301818387803b1580156200009f57600080fd5b505af1158015620000b4573d6000803e3d6000fd5b5050505050505050505062000131565b600080600060608486031215620000da57600080fd5b8351620000e78162000118565b6020850151909350620000fa8162000118565b60408501519092506200010d8162000118565b809150509250925092565b6001600160a01b03811681146200012e57600080fd5b50565b60805160601c60a05160601c60c05160601c6144db620001ef6000396000818161018b01528181612a3701526133480152600081816103eb01528181610d090152612c350152600081816102cb0152818161064d01528181610db501528181611085015281816112d1015281816119ca01528181611cb301528181611e3e015281816120fa015281816122a70152818161240e015281816125a901528181612745015281816128d101528181612acc01526130f201526144db6000f3fe60806040526004361061016e5760003560e01c806377631981116100cb578063b96c5c0e1161007f578063ced10b4911610059578063ced10b49146103b9578063cf58879a146103d9578063e16d9ce51461040d57600080fd5b8063b96c5c0e14610373578063bc10869314610386578063bd50c7b11461039957600080fd5b806398a691de116100b057806398a691de1461032d5780639fa7449114610340578063a9b62c231461035357600080fd5b806377631981146102ed578063783312d91461030d57600080fd5b8063250558dc116101225780632cfcb94f116101075780632cfcb94f14610293578063403335a8146102a65780634da31827146102b957600080fd5b8063250558dc146102485780632c0d9a011461028057600080fd5b80631aa349a8116101535780631aa349a8146101f55780631ab5d6c8146102155780631e897afb1461022857600080fd5b80630b0d1b1e146101bc5780630f93d439146101e257600080fd5b366101b7573373ffffffffffffffffffffffffffffffffffffffff7f000000000000000000000000000000000000000000000000000000000000000016146101b557600080fd5b005b600080fd5b6101cf6101ca366004613c41565b610420565b6040519081526020015b60405180910390f35b6101cf6101f0366004613c7c565b610634565b34801561020157600080fd5b506101b5610210366004613862565b610810565b6101cf610223366004613d1c565b610912565b61023b610236366004613920565b610b4e565b6040516101d99190613ecb565b61025b61025636600461364f565b610cc9565b60405173ffffffffffffffffffffffffffffffffffffffff90911681526020016101d9565b6101cf61028e366004613c41565b610d9c565b6101cf6102a1366004613a5b565b610fff565b6101b56102b4366004613da9565b61127f565b3480156102c557600080fd5b5061025b7f000000000000000000000000000000000000000000000000000000000000000081565b3480156102f957600080fd5b506101b56103083660046138c6565b611347565b34801561031957600080fd5b506101b5610328366004613753565b611474565b6101cf61033b3660046136f7565b6116b4565b6101cf61034e366004613c7c565b61180d565b34801561035f57600080fd5b506101b561036e3660046138c6565b611849565b6101b5610381366004613c06565b6118a7565b6101b56103943660046136a4565b612549565b3480156103a557600080fd5b506101b56103b4366004613b1e565b612646565b3480156103c557600080fd5b506101b56103d4366004613b1e565b6127d4565b3480156103e557600080fd5b5061025b7f000000000000000000000000000000000000000000000000000000000000000081565b6101b561041b366004613cec565b612a30565b600061047a6104326020840184613615565b61043f6060850185613f72565b600081811061045057610450614417565b905060200281019061046291906140db565b610470906020810190613615565b8460200135612ab5565b60005b61048a6060840184613f72565b90508110156105f0576104d86104a36060850185613f72565b838181106104b3576104b3614417565b90506020028101906104c591906140db565b6104d3906020810190613615565b612bc3565b6104e56060840184613f72565b828181106104f5576104f5614417565b905060200281019061050791906140db565b610515906020810190613615565b73ffffffffffffffffffffffffffffffffffffffff1663627dd56a61053d6060860186613f72565b8481811061054d5761054d614417565b905060200281019061055f91906140db565b61056d906020810190614042565b6040518363ffffffff1660e01b815260040161058a929190613f4b565b602060405180830381600087803b1580156105a457600080fd5b505af11580156105b8573d6000803e3d6000fd5b505050506040513d601f19601f820116820180604052508101906105dc9190613cd3565b9150806105e8816143af565b91505061047d565b50816040013581101561062f576040517fc9f52c7100000000000000000000000000000000000000000000000000000000815260040160405180910390fd5b919050565b600073ffffffffffffffffffffffffffffffffffffffff7f00000000000000000000000000000000000000000000000000000000000000001663f18d03cc6106826080850160608601613615565b336106936060870160408801613615565b6040517fffffffff0000000000000000000000000000000000000000000000000000000060e086901b16815273ffffffffffffffffffffffffffffffffffffffff93841660048201529183166024830152909116604482015284356064820152608401600060405180830381600087803b15801561071057600080fd5b505af1158015610724573d6000803e3d6000fd5b50610739925050506060830160408401613615565b73ffffffffffffffffffffffffffffffffffffffff1663627dd56a6107616080850185614042565b6040518363ffffffff1660e01b815260040161077e929190613f4b565b602060405180830381600087803b15801561079857600080fd5b505af11580156107ac573d6000803e3d6000fd5b505050506040513d601f19601f820116820180604052508101906107d09190613cd3565b9050816020013581101561062f576040517fc9f52c7100000000000000000000000000000000000000000000000000000000815260040160405180910390fd5b61081985612bc3565b61082585338787612d37565b6040517faf8c09bf00000000000000000000000000000000000000000000000000000000815260009073ffffffffffffffffffffffffffffffffffffffff87169063af8c09bf9061087c9087908790600401613f4b565b602060405180830381600087803b15801561089657600080fd5b505af11580156108aa573d6000803e3d6000fd5b505050506040513d601f19601f820116820180604052508101906108ce9190613cd3565b90508181101561090a576040517fc9f52c7100000000000000000000000000000000000000000000000000000000815260040160405180910390fd5b505050505050565b6000805b82811015610ad6576109338484838181106104b3576104b3614417565b600080547fffffffffffffffffffffffff0000000000000000000000000000000000000000163317905583838281811061096f5761096f614417565b905060200281019061098191906140db565b61098f906020810190613615565b600180547fffffffffffffffffffffffff00000000000000000000000000000000000000001673ffffffffffffffffffffffffffffffffffffffff929092169190911790558383828181106109e6576109e6614417565b90506020028101906109f891906140db565b610a06906020810190613615565b73ffffffffffffffffffffffffffffffffffffffff1663053da1c8858584818110610a3357610a33614417565b9050602002810190610a4591906140db565b610a53906020810190614042565b6040518363ffffffff1660e01b8152600401610a70929190613f4b565b602060405180830381600087803b158015610a8a57600080fd5b505af1158015610a9e573d6000803e3d6000fd5b505050506040513d601f19601f82011682018060405250810190610ac29190613cd3565b915080610ace816143af565b915050610916565b506000805460017fffffffffffffffffffffffff000000000000000000000000000000000000000091821681179092558154168117905583811015610b47576040517fc9f52c7100000000000000000000000000000000000000000000000000000000815260040160405180910390fd5b9392505050565b60608167ffffffffffffffff811115610b6957610b69614446565b604051908082528060200260200182016040528015610b9c57816020015b6060815260200190600190039081610b875790505b50905060005b82811015610cc25760008030868685818110610bc057610bc0614417565b9050602002810190610bd29190614042565b604051610be0929190613e6f565b600060405180830381855af49150503d8060008114610c1b576040519150601f19603f3d011682016040523d82523d6000602084013e610c20565b606091505b509150915081610c8f57604481511015610c3957600080fd5b60048101905080806020019051810190610c539190613b54565b6040517f08c379a0000000000000000000000000000000000000000000000000000000008152600401610c869190613f5f565b60405180910390fd5b80848481518110610ca257610ca2614417565b602002602001018190525050508080610cba906143af565b915050610ba2565b5092915050565b6040517f250558dc00000000000000000000000000000000000000000000000000000000815260009073ffffffffffffffffffffffffffffffffffffffff7f0000000000000000000000000000000000000000000000000000000000000000169063250558dc90610d4290879087908790600401613e9b565b602060405180830381600087803b158015610d5c57600080fd5b505af1158015610d70573d6000803e3d6000fd5b505050506040513d601f19601f82011682018060405250810190610d949190613632565b949350505050565b600073ffffffffffffffffffffffffffffffffffffffff7f00000000000000000000000000000000000000000000000000000000000000001663f18d03cc610de76020850185613615565b33610df56060870187613f72565b6000818110610e0657610e06614417565b9050602002810190610e1891906140db565b610e26906020810190613615565b60405160e085901b7fffffffff0000000000000000000000000000000000000000000000000000000016815273ffffffffffffffffffffffffffffffffffffffff93841660048201529183166024830152909116604482015260208501356064820152608401600060405180830381600087803b158015610ea657600080fd5b505af1158015610eba573d6000803e3d6000fd5b5050505060005b610ece6060840184613f72565b90508110156105f057610ee76104a36060850185613f72565b610ef46060840184613f72565b82818110610f0457610f04614417565b9050602002810190610f1691906140db565b610f24906020810190613615565b73ffffffffffffffffffffffffffffffffffffffff1663627dd56a610f4c6060860186613f72565b84818110610f5c57610f5c614417565b9050602002810190610f6e91906140db565b610f7c906020810190614042565b6040518363ffffffff1660e01b8152600401610f99929190613f4b565b602060405180830381600087803b158015610fb357600080fd5b505af1158015610fc7573d6000803e3d6000fd5b505050506040513d601f19601f82011682018060405250810190610feb9190613cd3565b915080610ff7816143af565b915050610ec1565b600061100a85612bc3565b60005b86518110156111935786818151811061102857611028614417565b602002602001015160200151156110835761107e87828151811061104e5761104e614417565b6020026020010151600001518789848151811061106d5761106d614417565b602002602001015160400151612ab5565b611181565b7f000000000000000000000000000000000000000000000000000000000000000073ffffffffffffffffffffffffffffffffffffffff1663f18d03cc8883815181106110d1576110d1614417565b60200260200101516000015133898b86815181106110f1576110f1614417565b6020026020010151604001516040518563ffffffff1660e01b815260040161114e949392919073ffffffffffffffffffffffffffffffffffffffff9485168152928416602084015292166040820152606081019190915260800190565b600060405180830381600087803b15801561116857600080fd5b505af115801561117c573d6000803e3d6000fd5b505050505b8061118b816143af565b91505061100d565b506040517f7ba0e2e700000000000000000000000000000000000000000000000000000000815273ffffffffffffffffffffffffffffffffffffffff861690637ba0e2e7906111e89086908690600401613f4b565b602060405180830381600087803b15801561120257600080fd5b505af1158015611216573d6000803e3d6000fd5b505050506040513d601f19601f8201168201806040525081019061123a9190613cd3565b905083811015611276576040517f249942be00000000000000000000000000000000000000000000000000000000815260040160405180910390fd5b95945050505050565b6040517fc0a47c930000000000000000000000000000000000000000000000000000000081523360048201523060248201526001604482015260ff841660648201526084810183905260a481018290527f000000000000000000000000000000000000000000000000000000000000000073ffffffffffffffffffffffffffffffffffffffff169063c0a47c939060c401600060405180830381600087803b15801561132a57600080fd5b505af115801561133e573d6000803e3d6000fd5b50505050505050565b6040513360248201523060448201526064810186905260848101859052600160a482015260ff841660c482015260e48101839052610104810182905260009073ffffffffffffffffffffffffffffffffffffffff881690638fcbaf0c90610124015b6040516020818303038152906040529060e01b6020820180517bffffffffffffffffffffffffffffffffffffffffffffffffffffffff83818316178352505050506040516113f79190613e7f565b6000604051808303816000865af19150503d8060008114611434576040519150601f19603f3d011682016040523d82523d6000602084013e611439565b606091505b505090508061133e576040517fb78cb0dd00000000000000000000000000000000000000000000000000000000815260040160405180910390fd5b61147d85612bc3565b61148985338787612d37565b6040517f2a07b6c700000000000000000000000000000000000000000000000000000000815260009073ffffffffffffffffffffffffffffffffffffffff871690632a07b6c7906114e09087908790600401613f4b565b600060405180830381600087803b1580156114fa57600080fd5b505af115801561150e573d6000803e3d6000fd5b505050506040513d6000823e601f3d9081017fffffffffffffffffffffffffffffffffffffffffffffffffffffffffffffffe01682016040526115549190810190613962565b905060005b825181101561133e5760005b82518110156116675783828151811061158057611580614417565b60200260200101516000015173ffffffffffffffffffffffffffffffffffffffff168382815181106115b4576115b4614417565b60200260200101516000015173ffffffffffffffffffffffffffffffffffffffff161415611655578382815181106115ee576115ee614417565b60200260200101516020015183828151811061160c5761160c614417565b6020026020010151602001511015611650576040517fc9f52c7100000000000000000000000000000000000000000000000000000000815260040160405180910390fd5b611667565b8061165f816143af565b915050611565565b825181106116a1576040517f85b6199600000000000000000000000000000000000000000000000000000000815260040160405180910390fd5b50806116ac816143af565b915050611559565b60006116bf85612bc3565b600080547fffffffffffffffffffffffff000000000000000000000000000000000000000090811633179091556001805473ffffffffffffffffffffffffffffffffffffffff88169216821790556040517f7ba0e2e7000000000000000000000000000000000000000000000000000000008152637ba0e2e7906117499086908690600401613f4b565b602060405180830381600087803b15801561176357600080fd5b505af1158015611777573d6000803e3d6000fd5b505050506040513d601f19601f8201168201806040525081019061179b9190613cd3565b6000805460017fffffffffffffffffffffffff0000000000000000000000000000000000000000918216811790925581541681179055905083811015610d94576040517f249942be00000000000000000000000000000000000000000000000000000000815260040160405180910390fd5b60006118396118226080840160608501613615565b6118326060850160408601613615565b8435612ab5565b6107396060830160408401613615565b604051336024820152306044820152606481018690526084810185905260ff841660a482015260c4810183905260e4810182905260009073ffffffffffffffffffffffffffffffffffffffff88169063d505accf90610104016113a9565b60005b6118b48280613f72565b9050811015611c80576118c78280613f72565b828181106118d7576118d7614417565b90506020028101906118e991906140a7565b6118fa906060810190604001613ae4565b156119b3576119ae61190c8380613f72565b8381811061191c5761191c614417565b905060200281019061192e91906140a7565b61193c906020810190613615565b6119468480613f72565b8481811061195657611956614417565b905060200281019061196891906140a7565b611979906040810190602001613615565b6119838580613f72565b8581811061199357611993614417565b90506020028101906119a591906140a7565b60600135612ab5565b611b2c565b73ffffffffffffffffffffffffffffffffffffffff7f00000000000000000000000000000000000000000000000000000000000000001663f18d03cc6119f98480613f72565b84818110611a0957611a09614417565b9050602002810190611a1b91906140a7565b611a29906020810190613615565b33611a348680613f72565b86818110611a4457611a44614417565b9050602002810190611a5691906140a7565b611a67906040810190602001613615565b611a718780613f72565b87818110611a8157611a81614417565b9050602002810190611a9391906140a7565b60405160e086901b7fffffffff0000000000000000000000000000000000000000000000000000000016815273ffffffffffffffffffffffffffffffffffffffff94851660048201529284166024840152921660448201526060909101356064820152608401600060405180830381600087803b158015611b1357600080fd5b505af1158015611b27573d6000803e3d6000fd5b505050505b611b6c611b398380613f72565b83818110611b4957611b49614417565b9050602002810190611b5b91906140a7565b6104d3906040810190602001613615565b611b768280613f72565b82818110611b8657611b86614417565b9050602002810190611b9891906140a7565b611ba9906040810190602001613615565b73ffffffffffffffffffffffffffffffffffffffff1663627dd56a611bce8480613f72565b84818110611bde57611bde614417565b9050602002810190611bf091906140a7565b611bfe906080810190614042565b6040518363ffffffff1660e01b8152600401611c1b929190613f4b565b602060405180830381600087803b158015611c3557600080fd5b505af1158015611c49573d6000803e3d6000fd5b505050506040513d601f19601f82011682018060405250810190611c6d9190613cd3565b5080611c78816143af565b9150506118aa565b5060005b611c916020830183613f72565b90508110156120c757600073ffffffffffffffffffffffffffffffffffffffff7f00000000000000000000000000000000000000000000000000000000000000001663f7888aec611ce56020860186613f72565b85818110611cf557611cf5614417565b9050602002810190611d07919061410f565b611d15906020810190613615565b6040517fffffffff0000000000000000000000000000000000000000000000000000000060e084901b16815273ffffffffffffffffffffffffffffffffffffffff909116600482015230602482015260440160206040518083038186803b158015611d7f57600080fd5b505afa158015611d93573d6000803e3d6000fd5b505050506040513d601f19601f82011682018060405250810190611db79190613cd3565b90506000611dc76008600a61427b565b611dd46020860186613f72565b85818110611de457611de4614417565b9050602002810190611df6919061410f565b611e07906060810190604001613d7f565b611e1b9067ffffffffffffffff1684614346565b611e2591906141df565b905073ffffffffffffffffffffffffffffffffffffffff7f00000000000000000000000000000000000000000000000000000000000000001663f18d03cc611e706020870187613f72565b86818110611e8057611e80614417565b9050602002810190611e92919061410f565b611ea0906020810190613615565b30611eae6020890189613f72565b88818110611ebe57611ebe614417565b9050602002810190611ed0919061410f565b611ee1906040810190602001613615565b60405160e085901b7fffffffff0000000000000000000000000000000000000000000000000000000016815273ffffffffffffffffffffffffffffffffffffffff93841660048201529183166024830152909116604482015260648101849052608401600060405180830381600087803b158015611f5e57600080fd5b505af1158015611f72573d6000803e3d6000fd5b50611faa9250611f889150506020860186613f72565b85818110611f9857611f98614417565b9050602002810190611b5b919061410f565b611fb76020850185613f72565b84818110611fc757611fc7614417565b9050602002810190611fd9919061410f565b611fea906040810190602001613615565b73ffffffffffffffffffffffffffffffffffffffff1663627dd56a6120126020870187613f72565b8681811061202257612022614417565b9050602002810190612034919061410f565b612042906060810190614042565b6040518363ffffffff1660e01b815260040161205f929190613f4b565b602060405180830381600087803b15801561207957600080fd5b505af115801561208d573d6000803e3d6000fd5b505050506040513d601f19601f820116820180604052508101906120b19190613cd3565b50505080806120bf906143af565b915050611c84565b5060005b6120d86040830183613fda565b905081101561254557600073ffffffffffffffffffffffffffffffffffffffff7f00000000000000000000000000000000000000000000000000000000000000001663f7888aec61212c6040860186613fda565b8581811061213c5761213c614417565b6121529260206080909202019081019150613615565b6040517fffffffff0000000000000000000000000000000000000000000000000000000060e084901b16815273ffffffffffffffffffffffffffffffffffffffff909116600482015230602482015260440160206040518083038186803b1580156121bc57600080fd5b505afa1580156121d0573d6000803e3d6000fd5b505050506040513d601f19601f820116820180604052508101906121f49190613cd3565b90506122036040840184613fda565b8381811061221357612213614417565b90506080020160600135811015612256576040517fc9f52c7100000000000000000000000000000000000000000000000000000000815260040160405180910390fd5b6122636040840184613fda565b8381811061227357612273614417565b905060800201604001602081019061228b9190613ae4565b156123f75773ffffffffffffffffffffffffffffffffffffffff7f0000000000000000000000000000000000000000000000000000000000000000166397da6d306122d96040860186613fda565b858181106122e9576122e9614417565b6122ff9260206080909202019081019150613615565b3061230d6040880188613fda565b8781811061231d5761231d614417565b90506080020160200160208101906123359190613615565b60405160e085901b7fffffffff0000000000000000000000000000000000000000000000000000000016815273ffffffffffffffffffffffffffffffffffffffff938416600482015291831660248301529091166044820152600060648201526084810184905260a4016040805180830381600087803b1580156123b857600080fd5b505af11580156123cc573d6000803e3d6000fd5b505050506040513d601f19601f820116820180604052508101906123f09190613d5b565b5050612532565b73ffffffffffffffffffffffffffffffffffffffff7f00000000000000000000000000000000000000000000000000000000000000001663f18d03cc6124406040860186613fda565b8581811061245057612450614417565b6124669260206080909202019081019150613615565b306124746040880188613fda565b8781811061248457612484614417565b905060800201602001602081019061249c9190613615565b60405160e085901b7fffffffff0000000000000000000000000000000000000000000000000000000016815273ffffffffffffffffffffffffffffffffffffffff93841660048201529183166024830152909116604482015260648101849052608401600060405180830381600087803b15801561251957600080fd5b505af115801561252d573d6000803e3d6000fd5b505050505b508061253d816143af565b9150506120cb565b5050565b801561260a576040517ff18d03cc00000000000000000000000000000000000000000000000000000000815273ffffffffffffffffffffffffffffffffffffffff85811660048301523060248301528381166044830152606482018590527f0000000000000000000000000000000000000000000000000000000000000000169063f18d03cc90608401600060405180830381600087803b1580156125ed57600080fd5b505af1158015612601573d6000803e3d6000fd5b50505050612640565b73ffffffffffffffffffffffffffffffffffffffff84161561263657612631848385612ea8565b612640565b6126403347613011565b50505050565b60015473ffffffffffffffffffffffffffffffffffffffff163314612697576040517ff5c6c81a00000000000000000000000000000000000000000000000000000000815260040160405180910390fd5b60006126a582840184613cb7565b90508060200151156126e357805160005460408301516126de929173ffffffffffffffffffffffffffffffffffffffff169033906130db565b6127a4565b805160005460408084015190517ff18d03cc00000000000000000000000000000000000000000000000000000000815273ffffffffffffffffffffffffffffffffffffffff9384166004820152918316602483015233604483015260648201527f00000000000000000000000000000000000000000000000000000000000000009091169063f18d03cc90608401600060405180830381600087803b15801561278b57600080fd5b505af115801561279f573d6000803e3d6000fd5b505050505b5050600080547fffffffffffffffffffffffff000000000000000000000000000000000000000016600117905550565b60015473ffffffffffffffffffffffffffffffffffffffff163314612825576040517ff5c6c81a00000000000000000000000000000000000000000000000000000000815260040160405180910390fd5b600061283382840184613a26565b905060005b81518110156129ff5781818151811061285357612853614417565b602002602001015160200151156128cf576128ca82828151811061287957612879614417565b60200260200101516000015160008054906101000a900473ffffffffffffffffffffffffffffffffffffffff16338585815181106128b9576128b9614417565b6020026020010151604001516130db565b6129ed565b7f000000000000000000000000000000000000000000000000000000000000000073ffffffffffffffffffffffffffffffffffffffff1663f18d03cc83838151811061291d5761291d614417565b60200260200101516000015160008054906101000a900473ffffffffffffffffffffffffffffffffffffffff163386868151811061295d5761295d614417565b6020026020010151604001516040518563ffffffff1660e01b81526004016129ba949392919073ffffffffffffffffffffffffffffffffffffffff9485168152928416602084015292166040820152606081019190915260800190565b600060405180830381600087803b1580156129d457600080fd5b505af11580156129e8573d6000803e3d6000fd5b505050505b806129f7816143af565b915050612838565b5050600080547fffffffffffffffffffffffff00000000000000000000000000000000000000001660011790555050565b6000612a5b7f00000000000000000000000000000000000000000000000000000000000000006131e4565b905082811015612a97576040517f6f2750f500000000000000000000000000000000000000000000000000000000815260040160405180910390fd5b8015612ab057612aa681613344565b612ab08282613011565b505050565b73ffffffffffffffffffffffffffffffffffffffff7f00000000000000000000000000000000000000000000000000000000000000008116906302b9446c90851615612b02576000612b04565b825b6040517fffffffff0000000000000000000000000000000000000000000000000000000060e084901b16815273ffffffffffffffffffffffffffffffffffffffff808816600483015233602483015286166044820152606481018590526000608482015260a40160408051808303818588803b158015612b8357600080fd5b505af1158015612b97573d6000803e3d6000fd5b50505050506040513d601f19601f82011682018060405250810190612bbc9190613d5b565b5050505050565b73ffffffffffffffffffffffffffffffffffffffff811660009081526002602052604090205460ff16612d34576040517fa4063dbc00000000000000000000000000000000000000000000000000000000815273ffffffffffffffffffffffffffffffffffffffff82811660048301527f0000000000000000000000000000000000000000000000000000000000000000169063a4063dbc9060240160206040518083038186803b158015612c7757600080fd5b505afa158015612c8b573d6000803e3d6000fd5b505050506040513d601f19601f82011682018060405250810190612caf9190613b01565b612ce5576040517f2083cd4000000000000000000000000000000000000000000000000000000000815260040160405180910390fd5b73ffffffffffffffffffffffffffffffffffffffff8116600090815260026020526040902080547fffffffffffffffffffffffffffffffffffffffffffffffffffffffffffffff001660011790555b50565b6040805173ffffffffffffffffffffffffffffffffffffffff85811660248301528481166044830152606480830185905283518084039091018152608490920183526020820180517bffffffffffffffffffffffffffffffffffffffffffffffffffffffff167f23b872dd000000000000000000000000000000000000000000000000000000001790529151600092839290881691612dd69190613e7f565b6000604051808303816000865af19150503d8060008114612e13576040519150601f19603f3d011682016040523d82523d6000602084013e612e18565b606091505b5091509150818015612e42575080511580612e42575080806020019051810190612e429190613b01565b61090a576040517f08c379a000000000000000000000000000000000000000000000000000000000815260206004820152601460248201527f5452414e534645525f46524f4d5f4641494c45440000000000000000000000006044820152606401610c86565b6040805173ffffffffffffffffffffffffffffffffffffffff8481166024830152604480830185905283518084039091018152606490920183526020820180517bffffffffffffffffffffffffffffffffffffffffffffffffffffffff167fa9059cbb000000000000000000000000000000000000000000000000000000001790529151600092839290871691612f3f9190613e7f565b6000604051808303816000865af19150503d8060008114612f7c576040519150601f19603f3d011682016040523d82523d6000602084013e612f81565b606091505b5091509150818015612fab575080511580612fab575080806020019051810190612fab9190613b01565b612bbc576040517f08c379a000000000000000000000000000000000000000000000000000000000815260206004820152600f60248201527f5452414e534645525f4641494c454400000000000000000000000000000000006044820152606401610c86565b60008273ffffffffffffffffffffffffffffffffffffffff168260405160006040518083038185875af1925050503d806000811461306b576040519150601f19603f3d011682016040523d82523d6000602084013e613070565b606091505b5050905080612ab0576040517f08c379a000000000000000000000000000000000000000000000000000000000815260206004820152601360248201527f4554485f5452414e534645525f4641494c4544000000000000000000000000006044820152606401610c86565b73ffffffffffffffffffffffffffffffffffffffff7f00000000000000000000000000000000000000000000000000000000000000008116906302b9446c9086161561312857600061312a565b825b6040517fffffffff0000000000000000000000000000000000000000000000000000000060e084901b16815273ffffffffffffffffffffffffffffffffffffffff8089166004830152808816602483015286166044820152606481018590526000608482015260a40160408051808303818588803b1580156131ab57600080fd5b505af11580156131bf573d6000803e3d6000fd5b50505050506040513d601f19601f8201168201806040525081019061090a9190613d5b565b604080513060248083019190915282518083039091018152604490910182526020810180517bffffffffffffffffffffffffffffffffffffffffffffffffffffffff167f70a082310000000000000000000000000000000000000000000000000000000017905290516000918291829173ffffffffffffffffffffffffffffffffffffffff8616916132769190613e7f565b600060405180830381855afa9150503d80600081146132b1576040519150601f19603f3d011682016040523d82523d6000602084013e6132b6565b606091505b50915091508180156132ca57506020815110155b613330576040517f08c379a000000000000000000000000000000000000000000000000000000000815260206004820152601160248201527f42414c414e43455f4f465f4641494c45440000000000000000000000000000006044820152606401610c86565b80806020019051810190610d949190613cd3565b60007f000000000000000000000000000000000000000000000000000000000000000073ffffffffffffffffffffffffffffffffffffffff16632e1a7d4d8360405160240161339591815260200190565b6040516020818303038152906040529060e01b6020820180517bffffffffffffffffffffffffffffffffffffffffffffffffffffffff83818316178352505050506040516133e39190613e7f565b6000604051808303816000865af19150503d8060008114613420576040519150601f19603f3d011682016040523d82523d6000602084013e613425565b606091505b5050905080612545576040517f08c379a000000000000000000000000000000000000000000000000000000000815260206004820152601960248201527f57495448445241575f46524f4d5f574554485f4641494c4544000000000000006044820152606401610c86565b60008083601f8401126134a257600080fd5b50813567ffffffffffffffff8111156134ba57600080fd5b6020830191508360208260051b85010111156134d557600080fd5b9250929050565b600082601f8301126134ed57600080fd5b813560206135026134fd836141bb565b61416c565b8281528181019085830160608086028801850189101561352157600080fd5b60005b86811015613548576135368a84613598565b85529385019391810191600101613524565b509198975050505050505050565b60008083601f84011261356857600080fd5b50813567ffffffffffffffff81111561358057600080fd5b6020830191508360208285010111156134d557600080fd5b6000606082840312156135aa57600080fd5b6040516060810181811067ffffffffffffffff821117156135cd576135cd614446565b60405290508082356135de81614475565b815260208301356135ee81614497565b6020820152604092830135920191909152919050565b803560ff8116811461062f57600080fd5b60006020828403121561362757600080fd5b8135610b4781614475565b60006020828403121561364457600080fd5b8151610b4781614475565b60008060006040848603121561366457600080fd5b833561366f81614475565b9250602084013567ffffffffffffffff81111561368b57600080fd5b61369786828701613556565b9497909650939450505050565b600080600080608085870312156136ba57600080fd5b84356136c581614475565b93506020850135925060408501356136dc81614475565b915060608501356136ec81614497565b939692955090935050565b6000806000806060858703121561370d57600080fd5b843561371881614475565b935060208501359250604085013567ffffffffffffffff81111561373b57600080fd5b61374787828801613556565b95989497509550505050565b60008060008060006080868803121561376b57600080fd5b853561377681614475565b9450602086810135945060408088013567ffffffffffffffff8082111561379c57600080fd5b6137a88b838c01613556565b909750955060608a01359150808211156137c157600080fd5b508801601f81018a136137d357600080fd5b80356137e16134fd826141bb565b8082825285820191508584018d878560061b870101111561380157600080fd5b600094505b8385101561384e5785818f03121561381d57600080fd5b613825614143565b813561383081614475565b81528188013588820152835260019490940193918601918501613806565b508096505050505050509295509295909350565b60008060008060006080868803121561387a57600080fd5b853561388581614475565b945060208601359350604086013567ffffffffffffffff8111156138a857600080fd5b6138b488828901613556565b96999598509660600135949350505050565b60008060008060008060c087890312156138df57600080fd5b86356138ea81614475565b9550602087013594506040870135935061390660608801613604565b92506080870135915060a087013590509295509295509295565b6000806020838503121561393357600080fd5b823567ffffffffffffffff81111561394a57600080fd5b61395685828601613490565b90969095509350505050565b6000602080838503121561397557600080fd5b825167ffffffffffffffff81111561398c57600080fd5b8301601f8101851361399d57600080fd5b80516139ab6134fd826141bb565b80828252848201915084840188868560061b87010111156139cb57600080fd5b60009450845b84811015613a1857604080838c0312156139e9578687fd5b6139f1614143565b83516139fc81614475565b81528389015189820152855293870193909101906001016139d1565b509098975050505050505050565b600060208284031215613a3857600080fd5b813567ffffffffffffffff811115613a4f57600080fd5b610d94848285016134dc565b600080600080600060808688031215613a7357600080fd5b853567ffffffffffffffff80821115613a8b57600080fd5b613a9789838a016134dc565b965060208801359150613aa982614475565b9094506040870135935060608701359080821115613ac657600080fd5b50613ad388828901613556565b969995985093965092949392505050565b600060208284031215613af657600080fd5b8135610b4781614497565b600060208284031215613b1357600080fd5b8151610b4781614497565b60008060208385031215613b3157600080fd5b823567ffffffffffffffff811115613b4857600080fd5b61395685828601613556565b600060208284031215613b6657600080fd5b815167ffffffffffffffff80821115613b7e57600080fd5b818401915084601f830112613b9257600080fd5b815181811115613ba457613ba4614446565b613bd560207fffffffffffffffffffffffffffffffffffffffffffffffffffffffffffffffe0601f8401160161416c565b9150808252856020828501011115613bec57600080fd5b613bfd816020840160208601614383565b50949350505050565b600060208284031215613c1857600080fd5b813567ffffffffffffffff811115613c2f57600080fd5b820160608185031215610b4757600080fd5b600060208284031215613c5357600080fd5b813567ffffffffffffffff811115613c6a57600080fd5b820160808185031215610b4757600080fd5b600060208284031215613c8e57600080fd5b813567ffffffffffffffff811115613ca557600080fd5b820160a08185031215610b4757600080fd5b600060608284031215613cc957600080fd5b610b478383613598565b600060208284031215613ce557600080fd5b5051919050565b60008060408385031215613cff57600080fd5b823591506020830135613d1181614475565b809150509250929050565b600080600060408486031215613d3157600080fd5b83359250602084013567ffffffffffffffff811115613d4f57600080fd5b61369786828701613490565b60008060408385031215613d6e57600080fd5b505080516020909101519092909150565b600060208284031215613d9157600080fd5b813567ffffffffffffffff81168114610b4757600080fd5b600080600060608486031215613dbe57600080fd5b613dc784613604565b95602085013595506040909401359392505050565b8183528181602085013750600060208284010152600060207fffffffffffffffffffffffffffffffffffffffffffffffffffffffffffffffe0601f840116840101905092915050565b60008151808452613e3d816020860160208601614383565b601f017fffffffffffffffffffffffffffffffffffffffffffffffffffffffffffffffe0169290920160200192915050565b8183823760009101908152919050565b60008251613e91818460208701614383565b9190910192915050565b73ffffffffffffffffffffffffffffffffffffffff84168152604060208201526000611276604083018486613ddc565b6000602080830181845280855180835260408601915060408160051b870101925083870160005b82811015613f3e577fffffffffffffffffffffffffffffffffffffffffffffffffffffffffffffffc0888603018452613f2c858351613e25565b94509285019290850190600101613ef2565b5092979650505050505050565b602081526000610d94602083018486613ddc565b602081526000610b476020830184613e25565b60008083357fffffffffffffffffffffffffffffffffffffffffffffffffffffffffffffffe1843603018112613fa757600080fd5b83018035915067ffffffffffffffff821115613fc257600080fd5b6020019150600581901b36038213156134d557600080fd5b60008083357fffffffffffffffffffffffffffffffffffffffffffffffffffffffffffffffe184360301811261400f57600080fd5b83018035915067ffffffffffffffff82111561402a57600080fd5b6020019150600781901b36038213156134d557600080fd5b60008083357fffffffffffffffffffffffffffffffffffffffffffffffffffffffffffffffe184360301811261407757600080fd5b83018035915067ffffffffffffffff82111561409257600080fd5b6020019150368190038213156134d557600080fd5b600082357fffffffffffffffffffffffffffffffffffffffffffffffffffffffffffffff61833603018112613e9157600080fd5b600082357fffffffffffffffffffffffffffffffffffffffffffffffffffffffffffffffc1833603018112613e9157600080fd5b600082357fffffffffffffffffffffffffffffffffffffffffffffffffffffffffffffff81833603018112613e9157600080fd5b6040805190810167ffffffffffffffff8111828210171561416657614166614446565b60405290565b604051601f82017fffffffffffffffffffffffffffffffffffffffffffffffffffffffffffffffe016810167ffffffffffffffff811182821017156141b3576141b3614446565b604052919050565b600067ffffffffffffffff8211156141d5576141d5614446565b5060051b60200190565b600082614215577f4e487b7100000000000000000000000000000000000000000000000000000000600052601260045260246000fd5b500490565b600181815b8085111561427357817fffffffffffffffffffffffffffffffffffffffffffffffffffffffffffffffff04821115614259576142596143e8565b8085161561426657918102915b93841c939080029061421f565b509250929050565b6000610b4760ff84168360008261429457506001614340565b816142a157506000614340565b81600181146142b757600281146142c1576142dd565b6001915050614340565b60ff8411156142d2576142d26143e8565b50506001821b614340565b5060208310610133831016604e8410600b8410161715614300575081810a614340565b61430a838361421a565b807fffffffffffffffffffffffffffffffffffffffffffffffffffffffffffffffff0482111561433c5761433c6143e8565b0290505b92915050565b6000817fffffffffffffffffffffffffffffffffffffffffffffffffffffffffffffffff048311821515161561437e5761437e6143e8565b500290565b60005b8381101561439e578181015183820152602001614386565b838111156126405750506000910152565b60007fffffffffffffffffffffffffffffffffffffffffffffffffffffffffffffffff8214156143e1576143e16143e8565b5060010190565b7f4e487b7100000000000000000000000000000000000000000000000000000000600052601160045260246000fd5b7f4e487b7100000000000000000000000000000000000000000000000000000000600052603260045260246000fd5b7f4e487b7100000000000000000000000000000000000000000000000000000000600052604160045260246000fd5b73ffffffffffffffffffffffffffffffffffffffff81168114612d3457600080fd5b8015158114612d3457600080fdfea26469706673582212208aaef1ae3c35cdd8a00b6a232b90de7a2aafc16c62e5a24f94e2d70f0decf6bf64736f6c63430008070033",
  "devdoc": {
    "kind": "dev",
    "methods": {
      "addLiquidity((address,bool,uint256)[],address,uint256,bytes)": {
        "params": {
          "data": "Data required by the pool to add liquidity.",
          "minLiquidity": "Minimum output liquidity - caps slippage.",
          "pool": "Pool address to add liquidity to.",
          "tokenInput": "Token address and amount to add as liquidity."
        }
      },
      "addLiquidityLazy(address,uint256,bytes)": {
        "details": "The input tokens are sent to the pool during the callback."
      },
      "batch(bytes[])": {
        "details": "The `msg.value` should not be trusted for any method callable from this function.",
        "params": {
          "data": "ABI-encoded params for each of the calls to make to this contract."
        },
        "returns": {
          "results": "The results from each of the calls passed in via `data`."
        }
      },
      "burnLiquidity(address,uint256,bytes,(address,uint256)[])": {
        "params": {
          "data": "Data required by the pool to burn liquidity.",
          "liquidity": "Amount of liquidity tokens to burn.",
          "minWithdrawals": "Minimum amount of `bento` tokens to be returned.",
          "pool": "Pool address."
        }
      },
      "burnLiquiditySingle(address,uint256,bytes,uint256)": {
        "details": "The tokens are swapped automatically and the output is in a single token.",
        "params": {
          "data": "Data required by the pool to burn liquidity.",
          "liquidity": "Amount of liquidity tokens to burn.",
          "minWithdrawal": "Minimum amount of tokens to be returned.",
          "pool": "Pool address."
        }
      },
      "complexPath(((address,address,bool,uint256,bytes)[],(address,address,uint64,bytes)[],(address,address,bool,uint256)[]))": {
        "details": "This function is not optimized for single swaps and should only be used in complex cases where the amounts are large enough that minimizing slippage by using multiple paths is worth the extra gas.",
        "params": {
          "params": "This includes everything needed for the swap. Look at the `ComplexPathParams` struct for more details."
        }
      },
      "exactInput((address,uint256,uint256,(address,bytes)[]))": {
        "details": "Ensure that the pools are trusted before calling this function. The pools can steal users' tokens.",
        "params": {
          "params": "This includes the addresses of the tokens, pools, amount of token A to swap, minimum amount of token B after the swap and data required by the pools for the swaps."
        }
      },
      "exactInputLazy(uint256,(address,bytes)[])": {
        "details": "Ensure that the pools are trusted before calling this function. The pools can steal users' tokens. This function will unlikely be used in production but it shows how to use callbacks. One use case will be arbitrage.",
        "params": {
          "amountOutMinimum": "Minimum amount of token B after the swap.",
          "path": "Addresses of the pools and data required by the pools for the swaps."
        }
      },
      "exactInputSingle((uint256,uint256,address,address,bytes))": {
        "details": "Ensure that the pool is trusted before calling this function. The pool can steal users' tokens.",
        "params": {
          "params": "This includes the address of token A, pool, amount of token A to swap, minimum amount of token B after the swap and data required by the pool for the swap."
        }
      },
      "exactInputSingleWithNativeToken((uint256,uint256,address,address,bytes))": {
        "details": "Ensure that the pool is trusted before calling this function. The pool can steal users' tokens.",
        "params": {
          "params": "This includes the address of token A, pool, amount of token A to swap, minimum amount of token B after the swap and data required by the pool for the swap."
        }
      },
      "exactInputWithNativeToken((address,uint256,uint256,(address,bytes)[]))": {
        "details": "Ensure that the pools are trusted before calling this function. The pools can steal users' tokens.",
        "params": {
          "params": "This includes the addresses of the tokens, pools, amount of token A to swap, minimum amount of token B after the swap and data required by the pools for the swaps."
        }
      },
      "permitThis(address,uint256,uint256,uint8,bytes32,bytes32)": {
        "params": {
          "amount": "Token amount to grant spending right over.",
          "deadline": "Termination for signed approval (UTC timestamp in seconds).",
          "r": "Half of the ECDSA signature pair.",
          "s": "Half of the ECDSA signature pair.",
          "token": "Address of ERC-20 token.",
          "v": "The recovery byte of the signature."
        }
      },
      "permitThisAllowed(address,uint256,uint256,uint8,bytes32,bytes32)": {
        "params": {
          "expiry": "Termination for signed approval - UTC timestamp in seconds.",
          "nonce": "Token owner's nonce - increases at each call to {permit}.",
          "r": "Half of the ECDSA signature pair.",
          "s": "Half of the ECDSA signature pair.",
          "token": "Address of ERC-20 token.",
          "v": "The recovery byte of the signature."
        }
      }
    },
    "stateVariables": {
      "cachedMsgSender": {
        "details": "Used to ensure that `tridentSwapCallback` is called only by the authorized address. These are set when someone calls a flash swap and reset afterwards."
      }
    },
    "version": 1
  },
  "userdoc": {
    "kind": "user",
    "methods": {
      "addLiquidity((address,bool,uint256)[],address,uint256,bytes)": {
        "notice": "Add liquidity to a pool."
      },
      "addLiquidityLazy(address,uint256,bytes)": {
        "notice": "Add liquidity to a pool using callbacks - same as `addLiquidity`, but now with callbacks."
      },
      "approveMasterContract(uint8,bytes32,bytes32)": {
        "notice": "Helper function to allow batching of BentoBox master contract approvals so the first trade can happen in one transaction."
      },
      "batch(bytes[])": {
        "notice": "Provides batch function calls for this contract and returns the data from all of them if they all succeed. Adapted from https://github.com/Uniswap/uniswap-v3-periphery/blob/main/contracts/base/Multicall.sol, License-Identifier: GPL-2.0-or-later."
      },
      "bento()": {
        "notice": "BentoBox token vault."
      },
      "burnLiquidity(address,uint256,bytes,(address,uint256)[])": {
        "notice": "Burn liquidity tokens to get back `bento` tokens."
      },
      "burnLiquiditySingle(address,uint256,bytes,uint256)": {
        "notice": "Burn liquidity tokens to get back `bento` tokens."
      },
      "complexPath(((address,address,bool,uint256,bytes)[],(address,address,uint64,bytes)[],(address,address,bool,uint256)[]))": {
        "notice": "Swaps multiple input tokens to multiple output tokens using multiple paths, in different percentages. For example, you can swap 50 DAI + 100 USDC into 60% ETH and 40% BTC."
      },
      "exactInput((address,uint256,uint256,(address,bytes)[]))": {
        "notice": "Swaps token A to token B indirectly by using multiple hops."
      },
      "exactInputLazy(uint256,(address,bytes)[])": {
        "notice": "Swaps token A to token B by using callbacks."
      },
      "exactInputSingle((uint256,uint256,address,address,bytes))": {
        "notice": "Swaps token A to token B directly. Swaps are done on `bento` tokens."
      },
      "exactInputSingleWithNativeToken((uint256,uint256,address,address,bytes))": {
        "notice": "Swaps token A to token B directly. It's the same as `exactInputSingle` except it takes raw ERC-20 tokens from the users and deposits them into `bento`."
      },
      "exactInputWithNativeToken((address,uint256,uint256,(address,bytes)[]))": {
        "notice": "Swaps token A to token B indirectly by using multiple hops. It's the same as `exactInput` except it takes raw ERC-20 tokens from the users and deposits them into `bento`."
      },
      "masterDeployer()": {
        "notice": "Trident AMM master deployer contract."
      },
      "permitThis(address,uint256,uint256,uint8,bytes32,bytes32)": {
        "notice": "Provides EIP-2612 signed approval for this contract to spend user tokens."
      },
      "permitThisAllowed(address,uint256,uint256,uint8,bytes32,bytes32)": {
        "notice": "Provides DAI-derived signed approval for this contract to spend user tokens."
      },
      "sweep(address,uint256,address,bool)": {
        "notice": "Recover mistakenly sent tokens."
      },
      "tridentMintCallback(bytes)": {
        "notice": "Can be used by the pool 'mint' functionality to take tokens from the user."
      },
      "tridentSwapCallback(bytes)": {
        "notice": "Used by the pool 'flashSwap' functionality to take input tokens from the user."
      },
      "unwrapWETH(uint256,address)": {
        "notice": "Unwrap this contract's `wETH` into ETH"
      }
    },
    "notice": "Router contract that helps in swapping across Trident pools.",
    "version": 1
  },
  "storageLayout": {
    "storage": [
      {
        "astId": 3510,
        "contract": "contracts/TridentRouter.sol:TridentRouter",
        "label": "cachedMsgSender",
        "offset": 0,
        "slot": "0",
        "type": "t_address"
      },
      {
        "astId": 3512,
        "contract": "contracts/TridentRouter.sol:TridentRouter",
        "label": "cachedPool",
        "offset": 0,
        "slot": "1",
        "type": "t_address"
      },
      {
        "astId": 3516,
        "contract": "contracts/TridentRouter.sol:TridentRouter",
        "label": "whitelistedPools",
        "offset": 0,
        "slot": "2",
        "type": "t_mapping(t_address,t_bool)"
      }
    ],
    "types": {
      "t_address": {
        "encoding": "inplace",
        "label": "address",
        "numberOfBytes": "20"
      },
      "t_bool": {
        "encoding": "inplace",
        "label": "bool",
        "numberOfBytes": "1"
      },
      "t_mapping(t_address,t_bool)": {
        "encoding": "mapping",
        "key": "t_address",
        "label": "mapping(address => bool)",
        "numberOfBytes": "32",
        "value": "t_bool"
      }
    }
  }
}