{
  "address": "0xFB95860639000DCEaD2CCde99a08837B3Fa61312",
  "abi": [
    {
      "inputs": [
        {
          "internalType": "contract IBentoBoxMinimal",
          "name": "_bentoBox",
          "type": "address"
        },
        {
          "internalType": "contract IPoolFactory",
          "name": "_poolFactory",
          "type": "address"
        },
        {
          "internalType": "contract IMasterDeployer",
          "name": "_masterDeployer",
          "type": "address"
        }
      ],
      "stateMutability": "nonpayable",
      "type": "constructor"
    },
    {
      "inputs": [],
      "name": "MinimumOutput",
      "type": "error"
    },
    {
      "inputs": [],
      "name": "PermitFailed",
      "type": "error"
    },
    {
      "inputs": [
        {
          "internalType": "bytes[]",
          "name": "data",
          "type": "bytes[]"
        }
      ],
      "name": "batch",
      "outputs": [
        {
          "internalType": "bytes[]",
          "name": "results",
          "type": "bytes[]"
        }
      ],
      "stateMutability": "payable",
      "type": "function"
    },
    {
      "inputs": [
        {
          "internalType": "contract IUniswapV2Minimal",
          "name": "pair",
          "type": "address"
        },
        {
          "internalType": "uint256",
          "name": "amount",
          "type": "uint256"
        },
        {
          "internalType": "uint256",
          "name": "swapFee",
          "type": "uint256"
        },
        {
          "internalType": "bool",
          "name": "twapSupport",
          "type": "bool"
        },
        {
          "internalType": "uint256",
          "name": "minToken0Received",
          "type": "uint256"
        },
        {
          "internalType": "uint256",
          "name": "minToken1Received",
          "type": "uint256"
        },
        {
          "internalType": "uint256",
          "name": "minLpReceived",
          "type": "uint256"
        }
      ],
      "name": "migrate",
      "outputs": [
        {
          "internalType": "uint256",
          "name": "liquidity",
          "type": "uint256"
        }
      ],
      "stateMutability": "nonpayable",
      "type": "function"
    },
    {
      "inputs": [
        {
          "internalType": "address",
          "name": "token",
          "type": "address"
        },
        {
          "internalType": "uint256",
          "name": "amount",
          "type": "uint256"
        },
        {
          "internalType": "uint256",
          "name": "deadline",
          "type": "uint256"
        },
        {
          "internalType": "uint8",
          "name": "v",
          "type": "uint8"
        },
        {
          "internalType": "bytes32",
          "name": "r",
          "type": "bytes32"
        },
        {
          "internalType": "bytes32",
          "name": "s",
          "type": "bytes32"
        }
      ],
      "name": "permitThis",
      "outputs": [],
      "stateMutability": "nonpayable",
      "type": "function"
    },
    {
      "inputs": [
        {
          "internalType": "address",
          "name": "token",
          "type": "address"
        },
        {
          "internalType": "uint256",
          "name": "nonce",
          "type": "uint256"
        },
        {
          "internalType": "uint256",
          "name": "expiry",
          "type": "uint256"
        },
        {
          "internalType": "uint8",
          "name": "v",
          "type": "uint8"
        },
        {
          "internalType": "bytes32",
          "name": "r",
          "type": "bytes32"
        },
        {
          "internalType": "bytes32",
          "name": "s",
          "type": "bytes32"
        }
      ],
      "name": "permitThisAllowed",
      "outputs": [],
      "stateMutability": "nonpayable",
      "type": "function"
    }
  ],
  "transactionHash": "0x3c160dfca678e1c9cda0891ae6de7c69c1886d9ff4755adb314424c2d6fdfc42",
  "args": [
    "0xc381a85ed7C7448Da073b7d6C9d4cBf1Cbf576f0",
    "0x77842BC587185BdfdFb5e1Df2EB7B76da6F92Ca2",
    "0xE716603A1BEE1b94E2e882b0e3C114aA1500D408"
  ],
  "numDeployments": 1,
  "solcInputHash": "b7240094d0ba8de3f277e47177212e0b",
  "bytecode": "0x60e060405234801561001057600080fd5b5060405161122b38038061122b83398101604081905261002f91610056565b6001600160601b0319606093841b811660805291831b821660a05290911b1660c0526100bb565b60008060006060848603121561006b57600080fd5b8351610076816100a3565b6020850151909350610087816100a3565b6040850151909250610098816100a3565b809150509250925092565b6001600160a01b03811681146100b857600080fd5b50565b60805160601c60a05160601c60c05160601c611123610108600039600061068101526000818161059601526106ae0152600081816108180152818161092d0152610a0d01526111236000f3fe60806040526004361061003f5760003560e01c80631e897afb14610044578063776319811461006d578063a9b62c231461008f578063fb728f12146100af575b600080fd5b610057610052366004610c21565b6100dd565b6040516100649190610ecd565b60405180910390f35b34801561007957600080fd5b5061008d610088366004610bbf565b610258565b005b34801561009b57600080fd5b5061008d6100aa366004610bbf565b61038e565b3480156100bb57600080fd5b506100cf6100ca366004610cb3565b6103ec565b604051908152602001610064565b60608167ffffffffffffffff8111156100f8576100f861108b565b60405190808252806020026020018201604052801561012b57816020015b60608152602001906001900390816101165790505b50905060005b82811015610251576000803086868581811061014f5761014f61105c565b90506020028101906101619190610f60565b60405161016f929190610e6a565b600060405180830381855af49150503d80600081146101aa576040519150601f19603f3d011682016040523d82523d6000602084013e6101af565b606091505b50915091508161021e576044815110156101c857600080fd5b600481019050808060200190518101906101e29190610d18565b6040517f08c379a00000000000000000000000000000000000000000000000000000000081526004016102159190610f4d565b60405180910390fd5b808484815181106102315761023161105c565b60200260200101819052505050808061024990610ffc565b915050610131565b5092915050565b6040513360248201523060448201526064810186905260848101859052600160a482015260ff841660c482015260e48101839052610104810182905260009073ffffffffffffffffffffffffffffffffffffffff881690638fcbaf0c90610124015b6040516020818303038152906040529060e01b6020820180517bffffffffffffffffffffffffffffffffffffffffffffffffffffffff83818316178352505050506040516103089190610e7a565b6000604051808303816000865af19150503d8060008114610345576040519150601f19603f3d011682016040523d82523d6000602084013e61034a565b606091505b5050905080610385576040517fb78cb0dd00000000000000000000000000000000000000000000000000000000815260040160405180910390fd5b50505050505050565b604051336024820152306044820152606481018690526084810185905260ff841660a482015260c4810183905260e4810182905260009073ffffffffffffffffffffffffffffffffffffffff88169063d505accf90610104016102ba565b6000808873ffffffffffffffffffffffffffffffffffffffff16630dfe16816040518163ffffffff1660e01b815260040160206040518083038186803b15801561043557600080fd5b505afa158015610449573d6000803e3d6000fd5b505050506040513d601f19601f8201168201806040525081019061046d9190610b9b565b905060008973ffffffffffffffffffffffffffffffffffffffff1663d21220a76040518163ffffffff1660e01b815260040160206040518083038186803b1580156104b757600080fd5b505afa1580156104cb573d6000803e3d6000fd5b505050506040513d601f19601f820116820180604052508101906104ef9190610b9b565b6040805173ffffffffffffffffffffffffffffffffffffffff8086166020830152831691810191909152606081018a9052881515608082015290915060009060a001604080518083037fffffffffffffffffffffffffffffffffffffffffffffffffffffffffffffffe001815290829052805160208201207ff6ab6d99000000000000000000000000000000000000000000000000000000008352600483015291506000907f000000000000000000000000000000000000000000000000000000000000000073ffffffffffffffffffffffffffffffffffffffff169063f6ab6d9990602401602060405180830381600087803b1580156105ef57600080fd5b505af1158015610603573d6000803e3d6000fd5b505050506040513d601f19601f820116820180604052508101906106279190610b9b565b905073ffffffffffffffffffffffffffffffffffffffff811661072d576040517f250558dc00000000000000000000000000000000000000000000000000000000815273ffffffffffffffffffffffffffffffffffffffff7f0000000000000000000000000000000000000000000000000000000000000000169063250558dc906106d8907f0000000000000000000000000000000000000000000000000000000000000000908690600401610e96565b602060405180830381600087803b1580156106f257600080fd5b505af1158015610706573d6000803e3d6000fd5b505050506040513d601f19601f8201168201806040525081019061072a9190610b9b565b90505b6040517f23b872dd00000000000000000000000000000000000000000000000000000000815233600482015273ffffffffffffffffffffffffffffffffffffffff8d1660248201819052604482018d9052906323b872dd90606401602060405180830381600087803b1580156107a257600080fd5b505af11580156107b6573d6000803e3d6000fd5b505050506040513d601f19601f820116820180604052508101906107da9190610c96565b506040517f89afcb4400000000000000000000000000000000000000000000000000000000815273ffffffffffffffffffffffffffffffffffffffff7f00000000000000000000000000000000000000000000000000000000000000008116600483015260009182918f16906389afcb44906024016040805180830381600087803b15801561086857600080fd5b505af115801561087c573d6000803e3d6000fd5b505050506040513d601f19601f820116820180604052508101906108a09190610dfc565b91509150898210806108b157508881105b156108e8576040517f9b9d48e100000000000000000000000000000000000000000000000000000000815260040160405180910390fd5b6040517f02b9446c00000000000000000000000000000000000000000000000000000000815273ffffffffffffffffffffffffffffffffffffffff87811660048301527f000000000000000000000000000000000000000000000000000000000000000081166024830181905290851660448301526064820184905260006084830152906302b9446c9060a4016040805180830381600087803b15801561098e57600080fd5b505af11580156109a2573d6000803e3d6000fd5b505050506040513d601f19601f820116820180604052508101906109c69190610dfc565b50506040517f02b9446c00000000000000000000000000000000000000000000000000000000815273ffffffffffffffffffffffffffffffffffffffff86811660048301527f000000000000000000000000000000000000000000000000000000000000000081166024830181905290851660448301526064820183905260006084830152906302b9446c9060a4016040805180830381600087803b158015610a6e57600080fd5b505af1158015610a82573d6000803e3d6000fd5b505050506040513d601f19601f82011682018060405250810190610aa69190610dfc565b50506040805133602082015273ffffffffffffffffffffffffffffffffffffffff851691637ba0e2e791016040516020818303038152906040526040518263ffffffff1660e01b8152600401610afc9190610f4d565b602060405180830381600087803b158015610b1657600080fd5b505af1158015610b2a573d6000803e3d6000fd5b505050506040513d601f19601f82011682018060405250810190610b4e9190610de3565b965087871015610b8a576040517f9b9d48e100000000000000000000000000000000000000000000000000000000815260040160405180910390fd5b505050505050979650505050505050565b600060208284031215610bad57600080fd5b8151610bb8816110ba565b9392505050565b60008060008060008060c08789031215610bd857600080fd5b8635610be3816110ba565b95506020870135945060408701359350606087013560ff81168114610c0757600080fd5b9598949750929560808101359460a0909101359350915050565b60008060208385031215610c3457600080fd5b823567ffffffffffffffff80821115610c4c57600080fd5b818501915085601f830112610c6057600080fd5b813581811115610c6f57600080fd5b8660208260051b8501011115610c8457600080fd5b60209290920196919550909350505050565b600060208284031215610ca857600080fd5b8151610bb8816110df565b600080600080600080600060e0888a031215610cce57600080fd5b8735610cd9816110ba565b965060208801359550604088013594506060880135610cf7816110df565b9699959850939660808101359560a0820135955060c0909101359350915050565b600060208284031215610d2a57600080fd5b815167ffffffffffffffff80821115610d4257600080fd5b818401915084601f830112610d5657600080fd5b815181811115610d6857610d6861108b565b604051601f82017fffffffffffffffffffffffffffffffffffffffffffffffffffffffffffffffe0908116603f01168101908382118183101715610dae57610dae61108b565b81604052828152876020848701011115610dc757600080fd5b610dd8836020830160208801610fcc565b979650505050505050565b600060208284031215610df557600080fd5b5051919050565b60008060408385031215610e0f57600080fd5b505080516020909101519092909150565b60008151808452610e38816020860160208601610fcc565b601f017fffffffffffffffffffffffffffffffffffffffffffffffffffffffffffffffe0169290920160200192915050565b8183823760009101908152919050565b60008251610e8c818460208701610fcc565b9190910192915050565b73ffffffffffffffffffffffffffffffffffffffff83168152604060208201526000610ec56040830184610e20565b949350505050565b6000602080830181845280855180835260408601915060408160051b870101925083870160005b82811015610f40577fffffffffffffffffffffffffffffffffffffffffffffffffffffffffffffffc0888603018452610f2e858351610e20565b94509285019290850190600101610ef4565b5092979650505050505050565b602081526000610bb86020830184610e20565b60008083357fffffffffffffffffffffffffffffffffffffffffffffffffffffffffffffffe1843603018112610f9557600080fd5b83018035915067ffffffffffffffff821115610fb057600080fd5b602001915036819003821315610fc557600080fd5b9250929050565b60005b83811015610fe7578181015183820152602001610fcf565b83811115610ff6576000848401525b50505050565b60007fffffffffffffffffffffffffffffffffffffffffffffffffffffffffffffffff821415611055577f4e487b7100000000000000000000000000000000000000000000000000000000600052601160045260246000fd5b5060010190565b7f4e487b7100000000000000000000000000000000000000000000000000000000600052603260045260246000fd5b7f4e487b7100000000000000000000000000000000000000000000000000000000600052604160045260246000fd5b73ffffffffffffffffffffffffffffffffffffffff811681146110dc57600080fd5b50565b80151581146110dc57600080fdfea264697066735822122052e51d772af6a38825a6cce201057c94935103920190a292392290834f829b7364736f6c63430008070033",
  "devdoc": {
    "kind": "dev",
    "methods": {
      "batch(bytes[])": {
        "details": "The `msg.value` should not be trusted for any method callable from this function.",
        "params": {
          "data": "ABI-encoded params for each of the calls to make to this contract."
        },
        "returns": {
          "results": "The results from each of the calls passed in via `data`."
        }
      },
      "migrate(address,uint256,uint256,bool,uint256,uint256,uint256)": {
        "details": "If the pool with the current conditions doesn't exist it will be deployed. ",
        "params": {
          "amount": "Liquidity amount (Lp token balance) to be migrated.",
          "minLpReceived": "Slippage protection for minting liquidity on the Trident CP pool.",
          "minToken0Received": "Slippage protection for removing liquidity from a UniV2 style pool.",
          "minToken1Received": "Slippage protection for removing liquidity from a UniV2 style pool.",
          "pair": "Uniswap V2 style liquidity pool address.",
          "swapFee": "Swap fee of the Trident CP pool we are migrating into.",
          "twapSupport": "Whether the Trident CP pool we are migrating into supports twap oracles."
        }
      },
      "permitThis(address,uint256,uint256,uint8,bytes32,bytes32)": {
        "params": {
          "amount": "Token amount to grant spending right over.",
          "deadline": "Termination for signed approval (UTC timestamp in seconds).",
          "r": "Half of the ECDSA signature pair.",
          "s": "Half of the ECDSA signature pair.",
          "token": "Address of ERC-20 token.",
          "v": "The recovery byte of the signature."
        }
      },
      "permitThisAllowed(address,uint256,uint256,uint8,bytes32,bytes32)": {
        "params": {
          "expiry": "Termination for signed approval - UTC timestamp in seconds.",
          "nonce": "Token owner's nonce - increases at each call to {permit}.",
          "r": "Half of the ECDSA signature pair.",
          "s": "Half of the ECDSA signature pair.",
          "token": "Address of ERC-20 token.",
          "v": "The recovery byte of the signature."
        }
      }
    },
    "version": 1
  },
  "userdoc": {
    "kind": "user",
    "methods": {
      "batch(bytes[])": {
        "notice": "Provides batch function calls for this contract and returns the data from all of them if they all succeed. Adapted from https://github.com/Uniswap/uniswap-v3-periphery/blob/main/contracts/base/Multicall.sol, License-Identifier: GPL-2.0-or-later."
      },
      "migrate(address,uint256,uint256,bool,uint256,uint256,uint256)": {
        "notice": "Function to migrate existing Sushiswap or other Uniswap V2 style pools to Trident."
      },
      "permitThis(address,uint256,uint256,uint8,bytes32,bytes32)": {
        "notice": "Provides EIP-2612 signed approval for this contract to spend user tokens."
      },
      "permitThisAllowed(address,uint256,uint256,uint8,bytes32,bytes32)": {
        "notice": "Provides DAI-derived signed approval for this contract to spend user tokens."
      }
    },
    "notice": "Liquidity migrator from UniV2 style pool to Trident Constant product pool.",
    "version": 1
  },
  "storageLayout": {
    "storage": [],
    "types": null
  }
}