{
  "address": "0xDAe42ad0c0867B86e7dE0Aad37B3eBbCa76cC803",
  "abi": [
    {
      "inputs": [
        {
          "internalType": "contract IBentoBoxMinimal",
          "name": "_bento",
          "type": "address"
        },
        {
          "internalType": "address",
          "name": "_wETH",
          "type": "address"
        }
      ],
      "stateMutability": "nonpayable",
      "type": "constructor"
    },
    {
      "inputs": [
        {
          "components": [
            {
              "internalType": "address",
              "name": "token",
              "type": "address"
            },
            {
              "internalType": "bool",
              "name": "native",
              "type": "bool"
            },
            {
              "internalType": "uint256",
              "name": "amount",
              "type": "uint256"
            }
          ],
          "internalType": "struct ITridentRouter.TokenInput[]",
          "name": "tokenInput",
          "type": "tuple[]"
        },
        {
          "internalType": "address",
          "name": "pool",
          "type": "address"
        },
        {
          "internalType": "uint256",
          "name": "minLiquidity",
          "type": "uint256"
        },
        {
          "internalType": "bytes",
          "name": "data",
          "type": "bytes"
        }
      ],
      "name": "addLiquidity",
      "outputs": [
        {
          "internalType": "uint256",
          "name": "liquidity",
          "type": "uint256"
        }
      ],
      "stateMutability": "payable",
      "type": "function"
    },
    {
      "inputs": [
        {
          "internalType": "address",
          "name": "pool",
          "type": "address"
        },
        {
          "internalType": "bytes",
          "name": "data",
          "type": "bytes"
        }
      ],
      "name": "addLiquidityLazy",
      "outputs": [],
      "stateMutability": "payable",
      "type": "function"
    },
    {
      "inputs": [
        {
          "internalType": "bytes[]",
          "name": "data",
          "type": "bytes[]"
        }
      ],
      "name": "batch",
      "outputs": [
        {
          "internalType": "bytes[]",
          "name": "results",
          "type": "bytes[]"
        }
      ],
      "stateMutability": "payable",
      "type": "function"
    },
    {
      "inputs": [],
      "name": "bento",
      "outputs": [
        {
          "internalType": "contract IBentoBoxMinimal",
          "name": "",
          "type": "address"
        }
      ],
      "stateMutability": "view",
      "type": "function"
    },
    {
      "inputs": [
        {
          "internalType": "address",
          "name": "pool",
          "type": "address"
        },
        {
          "internalType": "uint256",
          "name": "liquidity",
          "type": "uint256"
        },
        {
          "internalType": "bytes",
          "name": "data",
          "type": "bytes"
        },
        {
          "components": [
            {
              "internalType": "address",
              "name": "token",
              "type": "address"
            },
            {
              "internalType": "uint256",
              "name": "amount",
              "type": "uint256"
            }
          ],
          "internalType": "struct IPool.TokenAmount[]",
          "name": "minWithdrawals",
          "type": "tuple[]"
        }
      ],
      "name": "burnLiquidity",
      "outputs": [],
      "stateMutability": "nonpayable",
      "type": "function"
    },
    {
      "inputs": [
        {
          "internalType": "address",
          "name": "pool",
          "type": "address"
        },
        {
          "internalType": "uint256",
          "name": "liquidity",
          "type": "uint256"
        },
        {
          "internalType": "bytes",
          "name": "data",
          "type": "bytes"
        },
        {
          "internalType": "uint256",
          "name": "minWithdrawal",
          "type": "uint256"
        }
      ],
      "name": "burnLiquiditySingle",
      "outputs": [],
      "stateMutability": "nonpayable",
      "type": "function"
    },
    {
      "inputs": [
        {
          "components": [
            {
              "components": [
                {
                  "internalType": "address",
                  "name": "tokenIn",
                  "type": "address"
                },
                {
                  "internalType": "address",
                  "name": "pool",
                  "type": "address"
                },
                {
                  "internalType": "bool",
                  "name": "native",
                  "type": "bool"
                },
                {
                  "internalType": "uint256",
                  "name": "amount",
                  "type": "uint256"
                },
                {
                  "internalType": "bytes",
                  "name": "data",
                  "type": "bytes"
                }
              ],
              "internalType": "struct ITridentRouter.InitialPath[]",
              "name": "initialPath",
              "type": "tuple[]"
            },
            {
              "components": [
                {
                  "internalType": "address",
                  "name": "tokenIn",
                  "type": "address"
                },
                {
                  "internalType": "address",
                  "name": "pool",
                  "type": "address"
                },
                {
                  "internalType": "uint64",
                  "name": "balancePercentage",
                  "type": "uint64"
                },
                {
                  "internalType": "bytes",
                  "name": "data",
                  "type": "bytes"
                }
              ],
              "internalType": "struct ITridentRouter.PercentagePath[]",
              "name": "percentagePath",
              "type": "tuple[]"
            },
            {
              "components": [
                {
                  "internalType": "address",
                  "name": "token",
                  "type": "address"
                },
                {
                  "internalType": "address",
                  "name": "to",
                  "type": "address"
                },
                {
                  "internalType": "bool",
                  "name": "unwrapBento",
                  "type": "bool"
                },
                {
                  "internalType": "uint256",
                  "name": "minAmount",
                  "type": "uint256"
                }
              ],
              "internalType": "struct ITridentRouter.Output[]",
              "name": "output",
              "type": "tuple[]"
            }
          ],
          "internalType": "struct ITridentRouter.ComplexPathParams",
          "name": "params",
          "type": "tuple"
        }
      ],
      "name": "complexPath",
      "outputs": [],
      "stateMutability": "payable",
      "type": "function"
    },
    {
      "inputs": [
        {
          "components": [
            {
              "internalType": "address",
              "name": "tokenIn",
              "type": "address"
            },
            {
              "internalType": "address",
              "name": "tokenOut",
              "type": "address"
            },
            {
              "internalType": "uint256",
              "name": "amountIn",
              "type": "uint256"
            },
            {
              "internalType": "uint256",
              "name": "amountOutMinimum",
              "type": "uint256"
            },
            {
              "components": [
                {
                  "internalType": "address",
                  "name": "pool",
                  "type": "address"
                },
                {
                  "internalType": "bytes",
                  "name": "data",
                  "type": "bytes"
                }
              ],
              "internalType": "struct ITridentRouter.Path[]",
              "name": "path",
              "type": "tuple[]"
            }
          ],
          "internalType": "struct ITridentRouter.ExactInputParams",
          "name": "params",
          "type": "tuple"
        }
      ],
      "name": "exactInput",
      "outputs": [
        {
          "internalType": "uint256",
          "name": "amountOut",
          "type": "uint256"
        }
      ],
      "stateMutability": "payable",
      "type": "function"
    },
    {
      "inputs": [
        {
          "internalType": "uint256",
          "name": "amountOutMinimum",
          "type": "uint256"
        },
        {
          "components": [
            {
              "internalType": "address",
              "name": "pool",
              "type": "address"
            },
            {
              "internalType": "bytes",
              "name": "data",
              "type": "bytes"
            }
          ],
          "internalType": "struct ITridentRouter.Path[]",
          "name": "path",
          "type": "tuple[]"
        }
      ],
      "name": "exactInputLazy",
      "outputs": [
        {
          "internalType": "uint256",
          "name": "amountOut",
          "type": "uint256"
        }
      ],
      "stateMutability": "payable",
      "type": "function"
    },
    {
      "inputs": [
        {
          "components": [
            {
              "internalType": "uint256",
              "name": "amountIn",
              "type": "uint256"
            },
            {
              "internalType": "uint256",
              "name": "amountOutMinimum",
              "type": "uint256"
            },
            {
              "internalType": "address",
              "name": "pool",
              "type": "address"
            },
            {
              "internalType": "address",
              "name": "tokenIn",
              "type": "address"
            },
            {
              "internalType": "bytes",
              "name": "data",
              "type": "bytes"
            }
          ],
          "internalType": "struct ITridentRouter.ExactInputSingleParams",
          "name": "params",
          "type": "tuple"
        }
      ],
      "name": "exactInputSingle",
      "outputs": [
        {
          "internalType": "uint256",
          "name": "amountOut",
          "type": "uint256"
        }
      ],
      "stateMutability": "payable",
      "type": "function"
    },
    {
      "inputs": [
        {
          "components": [
            {
              "internalType": "uint256",
              "name": "amountIn",
              "type": "uint256"
            },
            {
              "internalType": "uint256",
              "name": "amountOutMinimum",
              "type": "uint256"
            },
            {
              "internalType": "address",
              "name": "pool",
              "type": "address"
            },
            {
              "internalType": "address",
              "name": "tokenIn",
              "type": "address"
            },
            {
              "internalType": "bytes",
              "name": "data",
              "type": "bytes"
            }
          ],
          "internalType": "struct ITridentRouter.ExactInputSingleParams",
          "name": "params",
          "type": "tuple"
        }
      ],
      "name": "exactInputSingleWithNativeToken",
      "outputs": [
        {
          "internalType": "uint256",
          "name": "amountOut",
          "type": "uint256"
        }
      ],
      "stateMutability": "payable",
      "type": "function"
    },
    {
      "inputs": [
        {
          "components": [
            {
              "internalType": "address",
              "name": "tokenIn",
              "type": "address"
            },
            {
              "internalType": "address",
              "name": "tokenOut",
              "type": "address"
            },
            {
              "internalType": "uint256",
              "name": "amountIn",
              "type": "uint256"
            },
            {
              "internalType": "uint256",
              "name": "amountOutMinimum",
              "type": "uint256"
            },
            {
              "components": [
                {
                  "internalType": "address",
                  "name": "pool",
                  "type": "address"
                },
                {
                  "internalType": "bytes",
                  "name": "data",
                  "type": "bytes"
                }
              ],
              "internalType": "struct ITridentRouter.Path[]",
              "name": "path",
              "type": "tuple[]"
            }
          ],
          "internalType": "struct ITridentRouter.ExactInputParams",
          "name": "params",
          "type": "tuple"
        }
      ],
      "name": "exactInputWithNativeToken",
      "outputs": [
        {
          "internalType": "uint256",
          "name": "amountOut",
          "type": "uint256"
        }
      ],
      "stateMutability": "payable",
      "type": "function"
    },
    {
      "inputs": [
        {
          "internalType": "address",
          "name": "token",
          "type": "address"
        },
        {
          "internalType": "uint256",
          "name": "amount",
          "type": "uint256"
        },
        {
          "internalType": "uint256",
          "name": "deadline",
          "type": "uint256"
        },
        {
          "internalType": "uint8",
          "name": "v",
          "type": "uint8"
        },
        {
          "internalType": "bytes32",
          "name": "r",
          "type": "bytes32"
        },
        {
          "internalType": "bytes32",
          "name": "s",
          "type": "bytes32"
        }
      ],
      "name": "permitThis",
      "outputs": [],
      "stateMutability": "nonpayable",
      "type": "function"
    },
    {
      "inputs": [
        {
          "internalType": "address",
          "name": "token",
          "type": "address"
        },
        {
          "internalType": "uint256",
          "name": "nonce",
          "type": "uint256"
        },
        {
          "internalType": "uint256",
          "name": "expiry",
          "type": "uint256"
        },
        {
          "internalType": "uint8",
          "name": "v",
          "type": "uint8"
        },
        {
          "internalType": "bytes32",
          "name": "r",
          "type": "bytes32"
        },
        {
          "internalType": "bytes32",
          "name": "s",
          "type": "bytes32"
        }
      ],
      "name": "permitThisAllowed",
      "outputs": [],
      "stateMutability": "nonpayable",
      "type": "function"
    },
    {
      "inputs": [],
      "name": "refundETH",
      "outputs": [],
      "stateMutability": "payable",
      "type": "function"
    },
    {
      "inputs": [
        {
          "internalType": "address",
          "name": "token",
          "type": "address"
        },
        {
          "internalType": "uint256",
          "name": "amount",
          "type": "uint256"
        },
        {
          "internalType": "address",
          "name": "recipient",
          "type": "address"
        }
      ],
      "name": "sweepBentoBoxToken",
      "outputs": [],
      "stateMutability": "nonpayable",
      "type": "function"
    },
    {
      "inputs": [
        {
          "internalType": "address",
          "name": "token",
          "type": "address"
        },
        {
          "internalType": "uint256",
          "name": "amount",
          "type": "uint256"
        },
        {
          "internalType": "address",
          "name": "recipient",
          "type": "address"
        }
      ],
      "name": "sweepNativeToken",
      "outputs": [],
      "stateMutability": "nonpayable",
      "type": "function"
    },
    {
      "inputs": [
        {
          "internalType": "bytes",
          "name": "data",
          "type": "bytes"
        }
      ],
      "name": "tridentMintCallback",
      "outputs": [],
      "stateMutability": "nonpayable",
      "type": "function"
    },
    {
      "inputs": [
        {
          "internalType": "bytes",
          "name": "data",
          "type": "bytes"
        }
      ],
      "name": "tridentSwapCallback",
      "outputs": [],
      "stateMutability": "nonpayable",
      "type": "function"
    },
    {
      "inputs": [
        {
          "internalType": "uint256",
          "name": "amountMinimum",
          "type": "uint256"
        },
        {
          "internalType": "address",
          "name": "recipient",
          "type": "address"
        }
      ],
      "name": "unwrapWETH",
      "outputs": [],
      "stateMutability": "nonpayable",
      "type": "function"
    },
    {
      "stateMutability": "payable",
      "type": "receive"
    }
  ],
  "transactionHash": "0xe13c576341ae907c965de4991ccb31030ce7fa21b11565034da868574f8527c7",
  "args": [
    "0x9A0D9920D92c178a58D99B455898Df2df22A2eE4",
    "0xd0A1E359811322d97991E03f863a0C30C2cF029C"
  ],
  "solcInputHash": "47bec81570f0351eaf53a1504750672c",
  "bytecode": "0x60c06040523480156200001157600080fd5b5060405162004891380380620048918339810160408190526200003491620000b8565b6001600160601b0319606082901b166080526040805163577268d960e11b815290516001600160a01b0384169163aee4d1b291600480830192600092919082900301818387803b1580156200008857600080fd5b505af11580156200009d573d6000803e3d6000fd5b505050505060601b6001600160601b03191660a05262000110565b60008060408385031215620000cc57600080fd5b8251620000d981620000f7565b6020840151909250620000ec81620000f7565b809150509250929050565b6001600160a01b03811681146200010d57600080fd5b50565b60805160601c60a05160601c6146a6620001eb600039600081816102570152818161041601528181610b8701528181610dca015281816114c9015281816117fa01528181611aa301528181611c2e01528181611eb701528181611fcc015281816121b101528181612318015281816125840152818161274001528181612de601528181612ecf01528181612faf0152818161326f01528181613358015261344201526000818161018001528181612a3101528181612d1301528181612dad0152818161319c01528181613236015261363001526146a66000f3fe6080604052600436106101635760003560e01c80639128efda116100c0578063b96c5c0e11610074578063ced10b4911610059578063ced10b49146103aa578063ddb125ed146103ca578063e16d9ce5146103dd57600080fd5b8063b96c5c0e14610377578063bd50c7b11461038a57600080fd5b80639bdd9231116100a55780639bdd9231146103315780639fa7449114610344578063a9b62c231461035757600080fd5b80639128efda146102f157806394ae4ab21461031157600080fd5b80632cfcb94f116101175780635321e563116100fc5780635321e5631461029e57806377631981146102b1578063783312d9146102d157600080fd5b80632cfcb94f146102325780634da318271461024557600080fd5b80631aa349a8116101485780631aa349a8146101df5780631ab5d6c8146101ff5780631e897afb1461021257600080fd5b80630f93d439146101b157806312210e8a146101d757600080fd5b366101ac573373ffffffffffffffffffffffffffffffffffffffff7f000000000000000000000000000000000000000000000000000000000000000016146101aa57600080fd5b005b600080fd5b6101c46101bf366004613ebd565b6103fd565b6040519081526020015b60405180910390f35b6101aa610613565b3480156101eb57600080fd5b506101aa6101fa366004613ad6565b610625565b6101c461020d366004613f57565b61074e565b610225610220366004613b9c565b610999565b6040516101ce919061405a565b6101c4610240366004613cd7565b610b0b565b34801561025157600080fd5b506102797f000000000000000000000000000000000000000000000000000000000000000081565b60405173ffffffffffffffffffffffffffffffffffffffff90911681526020016101ce565b6101c46102ac366004613ebd565b610db1565b3480156102bd57600080fd5b506101aa6102cc366004613b3a565b611072565b3480156102dd57600080fd5b506101aa6102ec3660046139c7565b6111d8565b3480156102fd57600080fd5b506101aa61030c366004613985565b61146f565b34801561031d57600080fd5b506101aa61032c366004613985565b611521565b6101aa61033f366004613930565b611531565b6101c4610352366004613ebd565b61163d565b34801561036357600080fd5b506101aa610372366004613b3a565b611679565b6101aa610385366004613e82565b6116d7565b34801561039657600080fd5b506101aa6103a5366004613d9a565b612455565b3480156103b657600080fd5b506101aa6103c5366004613d9a565b612613565b6101c46103d8366004613ebd565b61289f565b3480156103e957600080fd5b506101aa6103f8366004613f27565b612a2a565b600073ffffffffffffffffffffffffffffffffffffffff7f00000000000000000000000000000000000000000000000000000000000000001663f18d03cc61044b6080850160608601613913565b3361045c6060870160408801613913565b6040517fffffffff0000000000000000000000000000000000000000000000000000000060e086901b16815273ffffffffffffffffffffffffffffffffffffffff93841660048201529183166024830152909116604482015284356064820152608401600060405180830381600087803b1580156104d957600080fd5b505af11580156104ed573d6000803e3d6000fd5b50610502925050506060830160408401613913565b73ffffffffffffffffffffffffffffffffffffffff1663627dd56a61052a608085018561420a565b6040518363ffffffff1660e01b81526004016105479291906140da565b602060405180830381600087803b15801561056157600080fd5b505af1158015610575573d6000803e3d6000fd5b505050506040513d601f19601f820116820180604052508101906105999190613f0e565b9050816020013581101561060e576040517f08c379a000000000000000000000000000000000000000000000000000000000815260206004820152601360248201527f544f4f5f4c4954544c455f52454345495645440000000000000000000000000060448201526064015b60405180910390fd5b919050565b4715610623576106233347612ad6565b565b61063185338787612ba0565b6040517faf8c09bf00000000000000000000000000000000000000000000000000000000815260009073ffffffffffffffffffffffffffffffffffffffff87169063af8c09bf9061068890879087906004016140da565b602060405180830381600087803b1580156106a257600080fd5b505af11580156106b6573d6000803e3d6000fd5b505050506040513d601f19601f820116820180604052508101906106da9190613f0e565b905081811015610746576040517f08c379a000000000000000000000000000000000000000000000000000000000815260206004820152601360248201527f544f4f5f4c4954544c455f5245434549564544000000000000000000000000006044820152606401610605565b505050505050565b6000805b828110156108fd57600080547fffffffffffffffffffffffff00000000000000000000000000000000000000001633179055838382818110610796576107966145df565b90506020028101906107a891906142a3565b6107b6906020810190613913565b600180547fffffffffffffffffffffffff00000000000000000000000000000000000000001673ffffffffffffffffffffffffffffffffffffffff9290921691909117905583838281811061080d5761080d6145df565b905060200281019061081f91906142a3565b61082d906020810190613913565b73ffffffffffffffffffffffffffffffffffffffff1663053da1c885858481811061085a5761085a6145df565b905060200281019061086c91906142a3565b61087a90602081019061420a565b6040518363ffffffff1660e01b81526004016108979291906140da565b602060405180830381600087803b1580156108b157600080fd5b505af11580156108c5573d6000803e3d6000fd5b505050506040513d601f19601f820116820180604052508101906108e99190613f0e565b9150806108f581614577565b915050610752565b50600180547fffffffffffffffffffffffff0000000000000000000000000000000000000000168117905583811015610992576040517f08c379a000000000000000000000000000000000000000000000000000000000815260206004820152601360248201527f544f4f5f4c4954544c455f5245434549564544000000000000000000000000006044820152606401610605565b9392505050565b60608167ffffffffffffffff8111156109b4576109b461460e565b6040519080825280602002602001820160405280156109e757816020015b60608152602001906001900390816109d25790505b50905060005b82811015610b045760008030868685818110610a0b57610a0b6145df565b9050602002810190610a1d919061420a565b604051610a2b92919061402e565b600060405180830381855af49150503d8060008114610a66576040519150601f19603f3d011682016040523d82523d6000602084013e610a6b565b606091505b509150915081610ad157604481511015610a8457600080fd5b60048101905080806020019051810190610a9e9190613dd0565b6040517f08c379a00000000000000000000000000000000000000000000000000000000081526004016106059190614127565b80848481518110610ae457610ae46145df565b602002602001018190525050508080610afc90614577565b9150506109ed565b5092915050565b6000805b8651811015610c9557868181518110610b2a57610b2a6145df565b60200260200101516020015115610b8557610b80878281518110610b5057610b506145df565b60200260200101516000015187898481518110610b6f57610b6f6145df565b602002602001015160400151612d11565b610c83565b7f000000000000000000000000000000000000000000000000000000000000000073ffffffffffffffffffffffffffffffffffffffff1663f18d03cc888381518110610bd357610bd36145df565b60200260200101516000015133898b8681518110610bf357610bf36145df565b6020026020010151604001516040518563ffffffff1660e01b8152600401610c50949392919073ffffffffffffffffffffffffffffffffffffffff9485168152928416602084015292166040820152606081019190915260800190565b600060405180830381600087803b158015610c6a57600080fd5b505af1158015610c7e573d6000803e3d6000fd5b505050505b80610c8d81614577565b915050610b0f565b506040517f7ba0e2e700000000000000000000000000000000000000000000000000000000815273ffffffffffffffffffffffffffffffffffffffff861690637ba0e2e790610cea90869086906004016140da565b602060405180830381600087803b158015610d0457600080fd5b505af1158015610d18573d6000803e3d6000fd5b505050506040513d601f19601f82011682018060405250810190610d3c9190613f0e565b905083811015610da8576040517f08c379a000000000000000000000000000000000000000000000000000000000815260206004820152601b60248201527f4e4f545f454e4f5547485f4c49515549444954595f4d494e54454400000000006044820152606401610605565b95945050505050565b600073ffffffffffffffffffffffffffffffffffffffff7f00000000000000000000000000000000000000000000000000000000000000001663f18d03cc610dfc6020850185613913565b33610e0a608087018761413a565b6000818110610e1b57610e1b6145df565b9050602002810190610e2d91906142a3565b610e3b906020810190613913565b604080517fffffffff0000000000000000000000000000000000000000000000000000000060e087901b16815273ffffffffffffffffffffffffffffffffffffffff9485166004820152928416602484015292166044820152908501356064820152608401600060405180830381600087803b158015610eba57600080fd5b505af1158015610ece573d6000803e3d6000fd5b5050505060005b610ee2608084018461413a565b905081101561100357610ef8608084018461413a565b82818110610f0857610f086145df565b9050602002810190610f1a91906142a3565b610f28906020810190613913565b73ffffffffffffffffffffffffffffffffffffffff1663627dd56a610f50608086018661413a565b84818110610f6057610f606145df565b9050602002810190610f7291906142a3565b610f8090602081019061420a565b6040518363ffffffff1660e01b8152600401610f9d9291906140da565b602060405180830381600087803b158015610fb757600080fd5b505af1158015610fcb573d6000803e3d6000fd5b505050506040513d601f19601f82011682018060405250810190610fef9190613f0e565b915080610ffb81614577565b915050610ed5565b50816060013581101561060e576040517f08c379a000000000000000000000000000000000000000000000000000000000815260206004820152601360248201527f544f4f5f4c4954544c455f5245434549564544000000000000000000000000006044820152606401610605565b6040513360248201523060448201526064810186905260848101859052600160a482015260ff841660c482015260e48101839052610104810182905260009073ffffffffffffffffffffffffffffffffffffffff881690638fcbaf0c90610124015b6040516020818303038152906040529060e01b6020820180517bffffffffffffffffffffffffffffffffffffffffffffffffffffffff8381831617835250505050604051611122919061403e565b6000604051808303816000865af19150503d806000811461115f576040519150601f19603f3d011682016040523d82523d6000602084013e611164565b606091505b50509050806111cf576040517f08c379a000000000000000000000000000000000000000000000000000000000815260206004820152600d60248201527f5045524d49545f4641494c4544000000000000000000000000000000000000006044820152606401610605565b50505050505050565b6111e485338787612ba0565b6040517f2a07b6c700000000000000000000000000000000000000000000000000000000815260009073ffffffffffffffffffffffffffffffffffffffff871690632a07b6c79061123b90879087906004016140da565b600060405180830381600087803b15801561125557600080fd5b505af1158015611269573d6000803e3d6000fd5b505050506040513d6000823e601f3d9081017fffffffffffffffffffffffffffffffffffffffffffffffffffffffffffffffe01682016040526112af9190810190613bde565b905060005b82518110156111cf5760005b82518110156113f2578382815181106112db576112db6145df565b60200260200101516000015173ffffffffffffffffffffffffffffffffffffffff1683828151811061130f5761130f6145df565b60200260200101516000015173ffffffffffffffffffffffffffffffffffffffff1614156113e057838281518110611349576113496145df565b602002602001015160200151838281518110611367576113676145df565b60200260200101516020015110156113db576040517f08c379a000000000000000000000000000000000000000000000000000000000815260206004820152601360248201527f544f4f5f4c4954544c455f5245434549564544000000000000000000000000006044820152606401610605565b6113f2565b806113ea81614577565b9150506112c0565b8251811061145c576040517f08c379a000000000000000000000000000000000000000000000000000000000815260206004820152601960248201527f494e434f52524543545f544f4b454e5f57495448445241574e000000000000006044820152606401610605565b508061146781614577565b9150506112b4565b6040517ff18d03cc00000000000000000000000000000000000000000000000000000000815273ffffffffffffffffffffffffffffffffffffffff84811660048301523060248301528281166044830152606482018490527f0000000000000000000000000000000000000000000000000000000000000000169063f18d03cc90608401600060405180830381600087803b15801561150d57600080fd5b505af11580156111cf573d6000803e3d6000fd5b61152c838284613031565b505050565b600080547fffffffffffffffffffffffff000000000000000000000000000000000000000090811633179091556001805473ffffffffffffffffffffffffffffffffffffffff86169216821790556040517f7ba0e2e7000000000000000000000000000000000000000000000000000000008152637ba0e2e7906115bb90859085906004016140da565b602060405180830381600087803b1580156115d557600080fd5b505af11580156115e9573d6000803e3d6000fd5b505050506040513d601f19601f8201168201806040525081019061160d9190613f0e565b5050600180547fffffffffffffffffffffffff000000000000000000000000000000000000000016811790555050565b60006116696116526080840160608501613913565b6116626060850160408601613913565b8435612d11565b6105026060830160408401613913565b604051336024820152306044820152606481018690526084810185905260ff841660a482015260c4810183905260e4810182905260009073ffffffffffffffffffffffffffffffffffffffff88169063d505accf90610104016110d4565b60005b6116e4828061413a565b9050811015611a70576116f7828061413a565b82818110611707576117076145df565b9050602002810190611719919061426f565b61172a906060810190604001613d60565b156117e3576117de61173c838061413a565b8381811061174c5761174c6145df565b905060200281019061175e919061426f565b61176c906020810190613913565b611776848061413a565b84818110611786576117866145df565b9050602002810190611798919061426f565b6117a9906040810190602001613913565b6117b3858061413a565b858181106117c3576117c36145df565b90506020028101906117d5919061426f565b60600135612d11565b61195c565b73ffffffffffffffffffffffffffffffffffffffff7f00000000000000000000000000000000000000000000000000000000000000001663f18d03cc611829848061413a565b84818110611839576118396145df565b905060200281019061184b919061426f565b611859906020810190613913565b33611864868061413a565b86818110611874576118746145df565b9050602002810190611886919061426f565b611897906040810190602001613913565b6118a1878061413a565b878181106118b1576118b16145df565b90506020028101906118c3919061426f565b60405160e086901b7fffffffff0000000000000000000000000000000000000000000000000000000016815273ffffffffffffffffffffffffffffffffffffffff94851660048201529284166024840152921660448201526060909101356064820152608401600060405180830381600087803b15801561194357600080fd5b505af1158015611957573d6000803e3d6000fd5b505050505b611966828061413a565b82818110611976576119766145df565b9050602002810190611988919061426f565b611999906040810190602001613913565b73ffffffffffffffffffffffffffffffffffffffff1663627dd56a6119be848061413a565b848181106119ce576119ce6145df565b90506020028101906119e0919061426f565b6119ee90608081019061420a565b6040518363ffffffff1660e01b8152600401611a0b9291906140da565b602060405180830381600087803b158015611a2557600080fd5b505af1158015611a39573d6000803e3d6000fd5b505050506040513d601f19601f82011682018060405250810190611a5d9190613f0e565b5080611a6881614577565b9150506116da565b5060005b611a81602083018361413a565b9050811015611e8457600073ffffffffffffffffffffffffffffffffffffffff7f00000000000000000000000000000000000000000000000000000000000000001663f7888aec611ad5602086018661413a565b85818110611ae557611ae56145df565b9050602002810190611af791906142d7565b611b05906020810190613913565b6040517fffffffff0000000000000000000000000000000000000000000000000000000060e084901b16815273ffffffffffffffffffffffffffffffffffffffff909116600482015230602482015260440160206040518083038186803b158015611b6f57600080fd5b505afa158015611b83573d6000803e3d6000fd5b505050506040513d601f19601f82011682018060405250810190611ba79190613f0e565b90506000611bb76006600a614443565b611bc4602086018661413a565b85818110611bd457611bd46145df565b9050602002810190611be691906142d7565b611bf7906060810190604001613fba565b611c0b9067ffffffffffffffff168461450e565b611c1591906143a7565b905073ffffffffffffffffffffffffffffffffffffffff7f00000000000000000000000000000000000000000000000000000000000000001663f18d03cc611c60602087018761413a565b86818110611c7057611c706145df565b9050602002810190611c8291906142d7565b611c90906020810190613913565b30611c9e602089018961413a565b88818110611cae57611cae6145df565b9050602002810190611cc091906142d7565b611cd1906040810190602001613913565b60405160e085901b7fffffffff0000000000000000000000000000000000000000000000000000000016815273ffffffffffffffffffffffffffffffffffffffff93841660048201529183166024830152909116604482015260648101849052608401600060405180830381600087803b158015611d4e57600080fd5b505af1158015611d62573d6000803e3d6000fd5b50611d7492505050602085018561413a565b84818110611d8457611d846145df565b9050602002810190611d9691906142d7565b611da7906040810190602001613913565b73ffffffffffffffffffffffffffffffffffffffff1663627dd56a611dcf602087018761413a565b86818110611ddf57611ddf6145df565b9050602002810190611df191906142d7565b611dff90606081019061420a565b6040518363ffffffff1660e01b8152600401611e1c9291906140da565b602060405180830381600087803b158015611e3657600080fd5b505af1158015611e4a573d6000803e3d6000fd5b505050506040513d601f19601f82011682018060405250810190611e6e9190613f0e565b5050508080611e7c90614577565b915050611a74565b5060005b611e9560408301836141a2565b905081101561245157600073ffffffffffffffffffffffffffffffffffffffff7f00000000000000000000000000000000000000000000000000000000000000001663f7888aec611ee960408601866141a2565b85818110611ef957611ef96145df565b611f0f9260206080909202019081019150613913565b6040517fffffffff0000000000000000000000000000000000000000000000000000000060e084901b16815273ffffffffffffffffffffffffffffffffffffffff909116600482015230602482015260440160206040518083038186803b158015611f7957600080fd5b505afa158015611f8d573d6000803e3d6000fd5b505050506040513d601f19601f82011682018060405250810190611fb19190613f0e565b9050600073ffffffffffffffffffffffffffffffffffffffff7f0000000000000000000000000000000000000000000000000000000000000000166356623118611ffe60408701876141a2565b8681811061200e5761200e6145df565b6120249260206080909202019081019150613913565b6040517fffffffff0000000000000000000000000000000000000000000000000000000060e084901b16815273ffffffffffffffffffffffffffffffffffffffff9091166004820152602481018590526000604482015260640160206040518083038186803b15801561209657600080fd5b505afa1580156120aa573d6000803e3d6000fd5b505050506040513d601f19601f820116820180604052508101906120ce9190613f0e565b90506120dd60408501856141a2565b848181106120ed576120ed6145df565b90506080020160600135811015612160576040517f08c379a000000000000000000000000000000000000000000000000000000000815260206004820152601360248201527f544f4f5f4c4954544c455f5245434549564544000000000000000000000000006044820152606401610605565b61216d60408501856141a2565b8481811061217d5761217d6145df565b90506080020160400160208101906121959190613d60565b156123015773ffffffffffffffffffffffffffffffffffffffff7f0000000000000000000000000000000000000000000000000000000000000000166397da6d306121e360408701876141a2565b868181106121f3576121f36145df565b6122099260206080909202019081019150613913565b3061221760408901896141a2565b88818110612227576122276145df565b905060800201602001602081019061223f9190613913565b60405160e085901b7fffffffff0000000000000000000000000000000000000000000000000000000016815273ffffffffffffffffffffffffffffffffffffffff938416600482015291831660248301529091166044820152600060648201526084810185905260a4016040805180830381600087803b1580156122c257600080fd5b505af11580156122d6573d6000803e3d6000fd5b505050506040513d601f19601f820116820180604052508101906122fa9190613f96565b505061243c565b73ffffffffffffffffffffffffffffffffffffffff7f00000000000000000000000000000000000000000000000000000000000000001663f18d03cc61234a60408701876141a2565b8681811061235a5761235a6145df565b6123709260206080909202019081019150613913565b3061237e60408901896141a2565b8881811061238e5761238e6145df565b90506080020160200160208101906123a69190613913565b60405160e085901b7fffffffff0000000000000000000000000000000000000000000000000000000016815273ffffffffffffffffffffffffffffffffffffffff93841660048201529183166024830152909116604482015260648101859052608401600060405180830381600087803b15801561242357600080fd5b505af1158015612437573d6000803e3d6000fd5b505050505b5050808061244990614577565b915050611e88565b5050565b60015473ffffffffffffffffffffffffffffffffffffffff1633146124d6576040517f08c379a000000000000000000000000000000000000000000000000000000000815260206004820152601560248201527f554e415554484f52495a45445f43414c4c4241434b00000000000000000000006044820152606401610605565b60006124e482840184613ef2565b9050806020015115612522578051600054604083015161251d929173ffffffffffffffffffffffffffffffffffffffff1690339061319a565b6125e3565b805160005460408084015190517ff18d03cc00000000000000000000000000000000000000000000000000000000815273ffffffffffffffffffffffffffffffffffffffff9384166004820152918316602483015233604483015260648201527f00000000000000000000000000000000000000000000000000000000000000009091169063f18d03cc90608401600060405180830381600087803b1580156125ca57600080fd5b505af11580156125de573d6000803e3d6000fd5b505050505b5050600080547fffffffffffffffffffffffff000000000000000000000000000000000000000016600117905550565b60015473ffffffffffffffffffffffffffffffffffffffff163314612694576040517f08c379a000000000000000000000000000000000000000000000000000000000815260206004820152601560248201527f554e415554484f52495a45445f43414c4c4241434b00000000000000000000006044820152606401610605565b60006126a282840184613ca2565b905060005b815181101561286e578181815181106126c2576126c26145df565b6020026020010151602001511561273e576127398282815181106126e8576126e86145df565b60200260200101516000015160008054906101000a900473ffffffffffffffffffffffffffffffffffffffff1633858581518110612728576127286145df565b60200260200101516040015161319a565b61285c565b7f000000000000000000000000000000000000000000000000000000000000000073ffffffffffffffffffffffffffffffffffffffff1663f18d03cc83838151811061278c5761278c6145df565b60200260200101516000015160008054906101000a900473ffffffffffffffffffffffffffffffffffffffff16338686815181106127cc576127cc6145df565b6020026020010151604001516040518563ffffffff1660e01b8152600401612829949392919073ffffffffffffffffffffffffffffffffffffffff9485168152928416602084015292166040820152606081019190915260800190565b600060405180830381600087803b15801561284357600080fd5b505af1158015612857573d6000803e3d6000fd5b505050505b8061286681614577565b9150506126a7565b5050600080547fffffffffffffffffffffffff00000000000000000000000000000000000000001660011790555050565b60006128f96128b16020840184613913565b6128be608085018561413a565b60008181106128cf576128cf6145df565b90506020028101906128e191906142a3565b6128ef906020810190613913565b8460400135612d11565b60005b612909608084018461413a565b90508110156110035761291f608084018461413a565b8281811061292f5761292f6145df565b905060200281019061294191906142a3565b61294f906020810190613913565b73ffffffffffffffffffffffffffffffffffffffff1663627dd56a612977608086018661413a565b84818110612987576129876145df565b905060200281019061299991906142a3565b6129a790602081019061420a565b6040518363ffffffff1660e01b81526004016129c49291906140da565b602060405180830381600087803b1580156129de57600080fd5b505af11580156129f2573d6000803e3d6000fd5b505050506040513d601f19601f82011682018060405250810190612a169190613f0e565b915080612a2281614577565b9150506128fc565b6000612a557f00000000000000000000000000000000000000000000000000000000000000006134c3565b905082811015612ac1576040517f08c379a000000000000000000000000000000000000000000000000000000000815260206004820152601160248201527f494e53554646494349454e545f574554480000000000000000000000000000006044820152606401610605565b801561152c57612ad08161362b565b61152c82825b60008273ffffffffffffffffffffffffffffffffffffffff168260405160006040518083038185875af1925050503d8060008114612b30576040519150601f19603f3d011682016040523d82523d6000602084013e612b35565b606091505b505090508061152c576040517f08c379a000000000000000000000000000000000000000000000000000000000815260206004820152601360248201527f4554485f5452414e534645525f4641494c4544000000000000000000000000006044820152606401610605565b6040805173ffffffffffffffffffffffffffffffffffffffff85811660248301528481166044830152606480830185905283518084039091018152608490920183526020820180517bffffffffffffffffffffffffffffffffffffffffffffffffffffffff167f23b872dd000000000000000000000000000000000000000000000000000000001790529151600092839290881691612c3f919061403e565b6000604051808303816000865af19150503d8060008114612c7c576040519150601f19603f3d011682016040523d82523d6000602084013e612c81565b606091505b5091509150818015612cab575080511580612cab575080806020019051810190612cab9190613d7d565b610746576040517f08c379a000000000000000000000000000000000000000000000000000000000815260206004820152601460248201527f5452414e534645525f46524f4d5f4641494c45440000000000000000000000006044820152606401610605565b7f000000000000000000000000000000000000000000000000000000000000000073ffffffffffffffffffffffffffffffffffffffff168373ffffffffffffffffffffffffffffffffffffffff16148015612d6b57504715155b15612f4e576040517f5662311800000000000000000000000000000000000000000000000000000000815273ffffffffffffffffffffffffffffffffffffffff7f00000000000000000000000000000000000000000000000000000000000000008116600483015260248201839052600160448301526000917f00000000000000000000000000000000000000000000000000000000000000009091169063566231189060640160206040518083038186803b158015612e2a57600080fd5b505afa158015612e3e573d6000803e3d6000fd5b505050506040513d601f19601f82011682018060405250810190612e629190613f0e565b905080471115612f4c576040517f02b9446c00000000000000000000000000000000000000000000000000000000815260006004820181905230602483015273ffffffffffffffffffffffffffffffffffffffff85811660448401526064830191909152608482018490527f000000000000000000000000000000000000000000000000000000000000000016906302b9446c90839060a40160408051808303818588803b158015612f1357600080fd5b505af1158015612f27573d6000803e3d6000fd5b50505050506040513d601f19601f820116820180604052508101906107469190613f96565b505b6040517f02b9446c00000000000000000000000000000000000000000000000000000000815273ffffffffffffffffffffffffffffffffffffffff8481166004830152336024830152838116604483015260006064830152608482018390527f000000000000000000000000000000000000000000000000000000000000000016906302b9446c9060a4016040805180830381600087803b158015612ff257600080fd5b505af1158015613006573d6000803e3d6000fd5b505050506040513d601f19601f8201168201806040525081019061302a9190613f96565b5050505050565b6040805173ffffffffffffffffffffffffffffffffffffffff8481166024830152604480830185905283518084039091018152606490920183526020820180517bffffffffffffffffffffffffffffffffffffffffffffffffffffffff167fa9059cbb0000000000000000000000000000000000000000000000000000000017905291516000928392908716916130c8919061403e565b6000604051808303816000865af19150503d8060008114613105576040519150601f19603f3d011682016040523d82523d6000602084013e61310a565b606091505b50915091508180156131345750805115806131345750808060200190518101906131349190613d7d565b61302a576040517f08c379a000000000000000000000000000000000000000000000000000000000815260206004820152600f60248201527f5452414e534645525f4641494c454400000000000000000000000000000000006044820152606401610605565b7f000000000000000000000000000000000000000000000000000000000000000073ffffffffffffffffffffffffffffffffffffffff168473ffffffffffffffffffffffffffffffffffffffff161480156131f457504715155b156133df576040517f5662311800000000000000000000000000000000000000000000000000000000815273ffffffffffffffffffffffffffffffffffffffff7f00000000000000000000000000000000000000000000000000000000000000008116600483015260248201839052600160448301526000917f00000000000000000000000000000000000000000000000000000000000000009091169063566231189060640160206040518083038186803b1580156132b357600080fd5b505afa1580156132c7573d6000803e3d6000fd5b505050506040513d601f19601f820116820180604052508101906132eb9190613f0e565b9050804711156133dd576040517f02b9446c00000000000000000000000000000000000000000000000000000000815260006004820181905230602483015273ffffffffffffffffffffffffffffffffffffffff85811660448401526064830191909152608482018490527f000000000000000000000000000000000000000000000000000000000000000016906302b9446c90839060a40160408051808303818588803b15801561339c57600080fd5b505af11580156133b0573d6000803e3d6000fd5b50505050506040513d601f19601f820116820180604052508101906133d59190613f96565b5050506134bd565b505b6040517f02b9446c00000000000000000000000000000000000000000000000000000000815273ffffffffffffffffffffffffffffffffffffffff85811660048301528481166024830152838116604483015260006064830152608482018390527f000000000000000000000000000000000000000000000000000000000000000016906302b9446c9060a4016040805180830381600087803b15801561348557600080fd5b505af1158015613499573d6000803e3d6000fd5b505050506040513d601f19601f820116820180604052508101906107469190613f96565b50505050565b604080513060248083019190915282518083039091018152604490910182526020810180517bffffffffffffffffffffffffffffffffffffffffffffffffffffffff167f70a082310000000000000000000000000000000000000000000000000000000017905290516000918291829173ffffffffffffffffffffffffffffffffffffffff861691613555919061403e565b600060405180830381855afa9150503d8060008114613590576040519150601f19603f3d011682016040523d82523d6000602084013e613595565b606091505b50915091508180156135a957506020815110155b61360f576040517f08c379a000000000000000000000000000000000000000000000000000000000815260206004820152601160248201527f42414c414e43455f4f465f4641494c45440000000000000000000000000000006044820152606401610605565b808060200190518101906136239190613f0e565b949350505050565b6000807f000000000000000000000000000000000000000000000000000000000000000073ffffffffffffffffffffffffffffffffffffffff16632e1a7d4d8460405160240161367d91815260200190565b6040516020818303038152906040529060e01b6020820180517bffffffffffffffffffffffffffffffffffffffffffffffffffffffff83818316178352505050506040516136cb919061403e565b6000604051808303816000865af19150503d8060008114613708576040519150601f19603f3d011682016040523d82523d6000602084013e61370d565b606091505b509150915081801561372157506020815110155b61152c576040517f08c379a000000000000000000000000000000000000000000000000000000000815260206004820152601960248201527f57495448445241575f46524f4d5f574554485f4641494c4544000000000000006044820152606401610605565b60008083601f84011261379957600080fd5b50813567ffffffffffffffff8111156137b157600080fd5b6020830191508360208260051b85010111156137cc57600080fd5b9250929050565b600082601f8301126137e457600080fd5b813560206137f96137f483614383565b614334565b8281528181019085830160608086028801850189101561381857600080fd5b60005b8681101561383f5761382d8a846138a7565b8552938501939181019160010161381b565b509198975050505050505050565b60008083601f84011261385f57600080fd5b50813567ffffffffffffffff81111561387757600080fd5b6020830191508360208285010111156137cc57600080fd5b600060a082840312156138a157600080fd5b50919050565b6000606082840312156138b957600080fd5b6040516060810181811067ffffffffffffffff821117156138dc576138dc61460e565b60405290508082356138ed8161463d565b815260208301356138fd81614662565b6020820152604092830135920191909152919050565b60006020828403121561392557600080fd5b81356109928161463d565b60008060006040848603121561394557600080fd5b83356139508161463d565b9250602084013567ffffffffffffffff81111561396c57600080fd5b6139788682870161384d565b9497909650939450505050565b60008060006060848603121561399a57600080fd5b83356139a58161463d565b92506020840135915060408401356139bc8161463d565b809150509250925092565b6000806000806000608086880312156139df57600080fd5b85356139ea8161463d565b9450602086810135945060408088013567ffffffffffffffff80821115613a1057600080fd5b613a1c8b838c0161384d565b909750955060608a0135915080821115613a3557600080fd5b508801601f81018a13613a4757600080fd5b8035613a556137f482614383565b8082825285820191508584018d878560061b8701011115613a7557600080fd5b600094505b83851015613ac25785818f031215613a9157600080fd5b613a9961430b565b8135613aa48161463d565b81528188013588820152835260019490940193918601918501613a7a565b508096505050505050509295509295909350565b600080600080600060808688031215613aee57600080fd5b8535613af98161463d565b945060208601359350604086013567ffffffffffffffff811115613b1c57600080fd5b613b288882890161384d565b96999598509660600135949350505050565b60008060008060008060c08789031215613b5357600080fd5b8635613b5e8161463d565b95506020870135945060408701359350606087013560ff81168114613b8257600080fd5b9598949750929560808101359460a0909101359350915050565b60008060208385031215613baf57600080fd5b823567ffffffffffffffff811115613bc657600080fd5b613bd285828601613787565b90969095509350505050565b60006020808385031215613bf157600080fd5b825167ffffffffffffffff811115613c0857600080fd5b8301601f81018513613c1957600080fd5b8051613c276137f482614383565b80828252848201915084840188868560061b8701011115613c4757600080fd5b60009450845b84811015613c9457604080838c031215613c65578687fd5b613c6d61430b565b8351613c788161463d565b8152838901518982015285529387019390910190600101613c4d565b509098975050505050505050565b600060208284031215613cb457600080fd5b813567ffffffffffffffff811115613ccb57600080fd5b613623848285016137d3565b600080600080600060808688031215613cef57600080fd5b853567ffffffffffffffff80821115613d0757600080fd5b613d1389838a016137d3565b965060208801359150613d258261463d565b9094506040870135935060608701359080821115613d4257600080fd5b50613d4f8882890161384d565b969995985093965092949392505050565b600060208284031215613d7257600080fd5b813561099281614662565b600060208284031215613d8f57600080fd5b815161099281614662565b60008060208385031215613dad57600080fd5b823567ffffffffffffffff811115613dc457600080fd5b613bd28582860161384d565b600060208284031215613de257600080fd5b815167ffffffffffffffff80821115613dfa57600080fd5b818401915084601f830112613e0e57600080fd5b815181811115613e2057613e2061460e565b613e5160207fffffffffffffffffffffffffffffffffffffffffffffffffffffffffffffffe0601f84011601614334565b9150808252856020828501011115613e6857600080fd5b613e7981602084016020860161454b565b50949350505050565b600060208284031215613e9457600080fd5b813567ffffffffffffffff811115613eab57600080fd5b82016060818503121561099257600080fd5b600060208284031215613ecf57600080fd5b813567ffffffffffffffff811115613ee657600080fd5b6136238482850161388f565b600060608284031215613f0457600080fd5b61099283836138a7565b600060208284031215613f2057600080fd5b5051919050565b60008060408385031215613f3a57600080fd5b823591506020830135613f4c8161463d565b809150509250929050565b600080600060408486031215613f6c57600080fd5b83359250602084013567ffffffffffffffff811115613f8a57600080fd5b61397886828701613787565b60008060408385031215613fa957600080fd5b505080516020909101519092909150565b600060208284031215613fcc57600080fd5b813567ffffffffffffffff8116811461099257600080fd5b60008151808452613ffc81602086016020860161454b565b601f017fffffffffffffffffffffffffffffffffffffffffffffffffffffffffffffffe0169290920160200192915050565b8183823760009101908152919050565b6000825161405081846020870161454b565b9190910192915050565b6000602080830181845280855180835260408601915060408160051b870101925083870160005b828110156140cd577fffffffffffffffffffffffffffffffffffffffffffffffffffffffffffffffc08886030184526140bb858351613fe4565b94509285019290850190600101614081565b5092979650505050505050565b60208152816020820152818360408301376000818301604090810191909152601f9092017fffffffffffffffffffffffffffffffffffffffffffffffffffffffffffffffe0160101919050565b6020815260006109926020830184613fe4565b60008083357fffffffffffffffffffffffffffffffffffffffffffffffffffffffffffffffe184360301811261416f57600080fd5b83018035915067ffffffffffffffff82111561418a57600080fd5b6020019150600581901b36038213156137cc57600080fd5b60008083357fffffffffffffffffffffffffffffffffffffffffffffffffffffffffffffffe18436030181126141d757600080fd5b83018035915067ffffffffffffffff8211156141f257600080fd5b6020019150600781901b36038213156137cc57600080fd5b60008083357fffffffffffffffffffffffffffffffffffffffffffffffffffffffffffffffe184360301811261423f57600080fd5b83018035915067ffffffffffffffff82111561425a57600080fd5b6020019150368190038213156137cc57600080fd5b600082357fffffffffffffffffffffffffffffffffffffffffffffffffffffffffffffff6183360301811261405057600080fd5b600082357fffffffffffffffffffffffffffffffffffffffffffffffffffffffffffffffc183360301811261405057600080fd5b600082357fffffffffffffffffffffffffffffffffffffffffffffffffffffffffffffff8183360301811261405057600080fd5b6040805190810167ffffffffffffffff8111828210171561432e5761432e61460e565b60405290565b604051601f82017fffffffffffffffffffffffffffffffffffffffffffffffffffffffffffffffe016810167ffffffffffffffff8111828210171561437b5761437b61460e565b604052919050565b600067ffffffffffffffff82111561439d5761439d61460e565b5060051b60200190565b6000826143dd577f4e487b7100000000000000000000000000000000000000000000000000000000600052601260045260246000fd5b500490565b600181815b8085111561443b57817fffffffffffffffffffffffffffffffffffffffffffffffffffffffffffffffff04821115614421576144216145b0565b8085161561442e57918102915b93841c93908002906143e7565b509250929050565b600061099260ff84168360008261445c57506001614508565b8161446957506000614508565b816001811461447f5760028114614489576144a5565b6001915050614508565b60ff84111561449a5761449a6145b0565b50506001821b614508565b5060208310610133831016604e8410600b84101617156144c8575081810a614508565b6144d283836143e2565b807fffffffffffffffffffffffffffffffffffffffffffffffffffffffffffffffff04821115614504576145046145b0565b0290505b92915050565b6000817fffffffffffffffffffffffffffffffffffffffffffffffffffffffffffffffff0483118215151615614546576145466145b0565b500290565b60005b8381101561456657818101518382015260200161454e565b838111156134bd5750506000910152565b60007fffffffffffffffffffffffffffffffffffffffffffffffffffffffffffffffff8214156145a9576145a96145b0565b5060010190565b7f4e487b7100000000000000000000000000000000000000000000000000000000600052601160045260246000fd5b7f4e487b7100000000000000000000000000000000000000000000000000000000600052603260045260246000fd5b7f4e487b7100000000000000000000000000000000000000000000000000000000600052604160045260246000fd5b73ffffffffffffffffffffffffffffffffffffffff8116811461465f57600080fd5b50565b801515811461465f57600080fdfea26469706673582212201e34a0d35dc913ea9159af4ffa7ca6ef491c0b96fa728c6b3d9e4ff8d920f5d064736f6c63430008070033",
  "devdoc": {
    "kind": "dev",
    "methods": {
      "addLiquidity((address,bool,uint256)[],address,uint256,bytes)": {
        "params": {
          "data": "Data required by the pool to add liquidity.",
          "minLiquidity": "Minimum output liquidity - caps slippage.",
          "pool": "Pool address to add liquidity to.",
          "tokenInput": "Token address and amount to add as liquidity."
        }
      },
      "addLiquidityLazy(address,bytes)": {
        "details": "The input tokens are sent to the pool during the callback."
      },
      "batch(bytes[])": {
        "details": "The `msg.value` should not be trusted for any method callable from this function.",
        "params": {
          "data": "ABI-encoded params for each of the calls to make to this contract."
        },
        "returns": {
          "results": "The results from each of the calls passed in via `data`."
        }
      },
      "burnLiquidity(address,uint256,bytes,(address,uint256)[])": {
        "params": {
          "data": "Data required by the pool to burn liquidity.",
          "liquidity": "Amount of liquidity tokens to burn.",
          "minWithdrawals": "Minimum amount of `bento` tokens to be returned.",
          "pool": "Pool address."
        }
      },
      "burnLiquiditySingle(address,uint256,bytes,uint256)": {
        "details": "The tokens are swapped automatically and the output is in a single token.",
        "params": {
          "data": "Data required by the pool to burn liquidity.",
          "liquidity": "Amount of liquidity tokens to burn.",
          "minWithdrawal": "Minimum amount of tokens to be returned.",
          "pool": "Pool address."
        }
      },
      "complexPath(((address,address,bool,uint256,bytes)[],(address,address,uint64,bytes)[],(address,address,bool,uint256)[]))": {
        "details": "This function is not optimized for single swaps and should only be used in complex cases where the amounts are large enough that minimizing slippage by using multiple paths is worth the extra gas.",
        "params": {
          "params": "This includes everything needed for the swap. Look at the `ComplexPathParams` struct for more details."
        }
      },
      "exactInput((address,address,uint256,uint256,(address,bytes)[]))": {
        "details": "Ensure that the pools are trusted before calling this function. The pools can steal users' tokens.",
        "params": {
          "params": "This includes the addresses of the tokens, pools, amount of token A to swap, minimum amount of token B after the swap and data required by the pools for the swaps."
        }
      },
      "exactInputLazy(uint256,(address,bytes)[])": {
        "details": "Ensure that the pools are trusted before calling this function. The pools can steal users' tokens. This function will unlikely be used in production but it shows how to use callbacks. One use case will be arbitrage.",
        "params": {
          "amountOutMinimum": "Minimum amount of token B after the swap.",
          "path": "Addresses of the pools and data required by the pools for the swaps."
        }
      },
      "exactInputSingle((uint256,uint256,address,address,bytes))": {
        "details": "Ensure that the pool is trusted before calling this function. The pool can steal users' tokens.",
        "params": {
          "params": "This includes the address of token A, pool, amount of token A to swap, minimum amount of token B after the swap and data required by the pool for the swap."
        }
      },
      "exactInputSingleWithNativeToken((uint256,uint256,address,address,bytes))": {
        "details": "Ensure that the pool is trusted before calling this function. The pool can steal users' tokens.",
        "params": {
          "params": "This includes the address of token A, pool, amount of token A to swap, minimum amount of token B after the swap and data required by the pool for the swap."
        }
      },
      "exactInputWithNativeToken((address,address,uint256,uint256,(address,bytes)[]))": {
        "details": "Ensure that the pools are trusted before calling this function. The pools can steal users' tokens.",
        "params": {
          "params": "This includes the addresses of the tokens, pools, amount of token A to swap, minimum amount of token B after the swap and data required by the pools for the swaps."
        }
      },
      "permitThis(address,uint256,uint256,uint8,bytes32,bytes32)": {
        "params": {
          "amount": "Token amount to grant spending right over.",
          "deadline": "Termination for signed approval (UTC timestamp in seconds).",
          "r": "Half of the ECDSA signature pair.",
          "s": "Half of the ECDSA signature pair.",
          "token": "Address of ERC-20 token.",
          "v": "The recovery byte of the signature."
        }
      },
      "permitThisAllowed(address,uint256,uint256,uint8,bytes32,bytes32)": {
        "params": {
          "expiry": "Termination for signed approval - UTC timestamp in seconds.",
          "nonce": "Token owner's nonce - increases at each call to {permit}.",
          "r": "Half of the ECDSA signature pair.",
          "s": "Half of the ECDSA signature pair.",
          "token": "Address of ERC-20 token.",
          "v": "The recovery byte of the signature."
        }
      }
    },
    "stateVariables": {
      "cachedMsgSender": {
        "details": "Used to ensure that `tridentSwapCallback` is called only by the authorized address. These are set when someone calls a flash swap and reset afterwards."
      }
    },
    "version": 1
  },
  "userdoc": {
    "kind": "user",
    "methods": {
      "addLiquidity((address,bool,uint256)[],address,uint256,bytes)": {
        "notice": "Add liquidity to a pool."
      },
      "addLiquidityLazy(address,bytes)": {
        "notice": "Add liquidity to a pool using callbacks - same as `addLiquidity`, but now with callbacks."
      },
      "batch(bytes[])": {
        "notice": "Provides batch function calls for this contract and returns the data from all of them if they all succeed. Adapted from https://github.com/Uniswap/uniswap-v3-periphery/blob/main/contracts/base/Multicall.sol, License-Identifier: GPL-2.0-or-later."
      },
      "bento()": {
        "notice": "BentoBox token vault."
      },
      "burnLiquidity(address,uint256,bytes,(address,uint256)[])": {
        "notice": "Burn liquidity tokens to get back `bento` tokens."
      },
      "burnLiquiditySingle(address,uint256,bytes,uint256)": {
        "notice": "Burn liquidity tokens to get back `bento` tokens."
      },
      "complexPath(((address,address,bool,uint256,bytes)[],(address,address,uint64,bytes)[],(address,address,bool,uint256)[]))": {
        "notice": "Swaps multiple input tokens to multiple output tokens using multiple paths, in different percentages. For example, you can swap 50 DAI + 100 USDC into 60% ETH and 40% BTC."
      },
      "exactInput((address,address,uint256,uint256,(address,bytes)[]))": {
        "notice": "Swaps token A to token B indirectly by using multiple hops."
      },
      "exactInputLazy(uint256,(address,bytes)[])": {
        "notice": "Swaps token A to token B by using callbacks."
      },
      "exactInputSingle((uint256,uint256,address,address,bytes))": {
        "notice": "Swaps token A to token B directly. Swaps are done on `bento` tokens."
      },
      "exactInputSingleWithNativeToken((uint256,uint256,address,address,bytes))": {
        "notice": "Swaps token A to token B directly. It's the same as `exactInputSingle` except it takes raw ERC-20 tokens from the users and deposits them into `bento`."
      },
      "exactInputWithNativeToken((address,address,uint256,uint256,(address,bytes)[]))": {
        "notice": "Swaps token A to token B indirectly by using multiple hops. It's the same as `exactInput` except it takes raw ERC-20 tokens from the users and deposits them into `bento`."
      },
      "permitThis(address,uint256,uint256,uint8,bytes32,bytes32)": {
        "notice": "Provides EIP-2612 signed approval for this contract to spend user tokens."
      },
      "permitThisAllowed(address,uint256,uint256,uint8,bytes32,bytes32)": {
        "notice": "Provides DAI-derived signed approval for this contract to spend user tokens."
      },
      "refundETH()": {
        "notice": "Recover mistakenly sent ETH."
      },
      "sweepBentoBoxToken(address,uint256,address)": {
        "notice": "Recover mistakenly sent `bento` tokens."
      },
      "sweepNativeToken(address,uint256,address)": {
        "notice": "Recover mistakenly sent ERC-20 tokens."
      },
      "tridentMintCallback(bytes)": {
        "notice": "Can be used by the pool 'mint' functionality to take tokens from the user."
      },
      "tridentSwapCallback(bytes)": {
        "notice": "Used by the pool 'flashSwap' functionality to take input tokens from the user."
      },
      "unwrapWETH(uint256,address)": {
        "notice": "Unwrap this contract's `wETH` into ETH"
      }
    },
    "notice": "Router contract that helps in swapping across Trident pools.",
    "version": 1
  },
  "storageLayout": {
    "storage": [
      {
        "astId": 17,
        "contract": "contracts/TridentRouter.sol:TridentRouter",
        "label": "cachedMsgSender",
        "offset": 0,
        "slot": "0",
        "type": "t_address"
      },
      {
        "astId": 19,
        "contract": "contracts/TridentRouter.sol:TridentRouter",
        "label": "cachedPool",
        "offset": 0,
        "slot": "1",
        "type": "t_address"
      }
    ],
    "types": {
      "t_address": {
        "encoding": "inplace",
        "label": "address",
        "numberOfBytes": "20"
      }
    }
  }
}